:100000004844523000500500EB65F1A1200001008A
:100010000444050081000000B40600000000000058
:1000200025C50100E9C30100E9C30100E9C30100DE
:10003000E9C30100E9C30100E9C30100E9C301000C
:10004000E9C30100E9C30100E9C30100E9C30100FC
:10005000E9C30100E9C30100E9C30100E9C30100EC
:10006000E9C30100E9C30100E9C30100E9C30100DC
:10007000E9C30100E9C30100E9C30100E9C30100CC
:10008000E9C30100E9C30100E9C30100E9C30100BC
:10009000E9C30100E9C30100E9C3010000480047CA
:1000A00025C5010000000000000000000000000065
:1000B0000000000000000000000000000000000040
:1000C0000000000000000000000000000000000030
:1000D0000000000000000000000000000000000020
:1000E0000000000000000000000000000000000010
:1000F0000000000000000000000000000000000000
:1001000000000000000000000000000000000000EF
:100110000000000000000000000000009585800045
:100120004D898000558B80000D868000918880006D
:1001300021878000898780006987800049AD800021
:10014000D5C28000B1C18000F9C080005DC18000CF
:10015000C9C7010095C18000FDC380003DC2800079
:10016000ADC4800079C0800031C0800045BF8000F0
:100170005DC2800065BF80009DC280003DC48000DC
:10018000C9C48000CDC0800059C48000EDBF80008C
:1001900091C480003DC580000DC48000FDCA800070
:1001A00039CA80009DCA800059CA0100B1CA010045
:1001B0002DC9800041C9800055C98000B5C98000A3
:1001C0009DC880007DC980002DC7800041C8800087
:1001D00051C7800031C88000C5CA010071C58000C8
:1001E0006DC6800019C6800059C680001DC78000FA
:1001F00079C6800049C680002DC680008DC580006C
:1002000069CC0100C9AC80001DAD8000D5AC800078
:1002100039AD8000A10F8100A911810089108100F2
:100220005D0F81009DCD0100ADCD0100890F8100E2
:100230007D0D81001D1A81007D1881006D198100DE
:1002400029208100E914810051CD0100491081006D
:1002500015168100B51F8100E51F8100BD1C8100BE
:10026000991081005111810089208100C90F8100FE
:10027000091E810071CE0100FD188100691B8100FB
:10028000F10F8100A90D8100C1178100CD198100F6
:100290003116810065178100BD0D8100C1118100FB
:1002A000F10C8100510D8100A1D90100010D8100E7
:1002B000690D8100C9D90100D50C81008D0C810028
:1002C000710C81006585800041848000A9848000D4
:1002D000697E8000F97F8000897F800071AA80009C
:1002E00055A98000C1AB8000A5AB800089AA800021
:1002F0007DAA800065AA800099AB8000DDAB8000FC
:100300001DAA80003DAA800009AA80008DA9800056
:10031000A5A9800049AA8000F5A980004DAB800006
:10032000A5AA8000E9AA8000D97780000D78800016
:1003300019798000797C8000B57B8000617B80002A
:100340001D7B8000057B8000357B8000F979800073
:100350009D7A8000217A8000557A8000C57A8000DD
:100360003D7E8000E17D8000297D8000AD7D8000A4
:10037000A57C80007D85800089858000F5918000C6
:10038000758F8000D98F800015928000899280003F
:10039000A98F80002D8F80003593800011938000FD
:1003A000A9918000F5938000A19680005D94800063
:1003B000218E8000859780000D8D8000558D8000F6
:1003C0008D8D8000718B8000C58D8000AD8B80008D
:1003D0003D918000F18B800081988000AD8C800081
:1003E000ED8E80002990800009908000659080004B
:1003F00049908000DD968000CD9480003D92800081
:10040000B192800061938000419980000D99800035
:10041000799A8000FD9C800015A18000659C800079
:10042000A99B8000599B800061DC0100B19A80008B
:10043000E59C8000E19E8000E1A08000CDA08000CE
:1004400095998000F5998000C599800041A18000B0
:10045000899E8000499D8000C99D8000099F800081
:10046000F99E8000C99F8000DDA3800081A18000EB
:1004700075A380008DA28000FDA3800085A480006C
:1004800059A5800005A6800045A88000EDAB80003E
:1004900021BF800041B780006DB18000E9B08000CD
:1004A00021B28000D1B3800099B38000D1B2800026
:1004B00095B28000D1B580003DB68000B1B5800016
:1004C0000DB68000E1B58000B1B3800099B0800026
:1004D000ADB0800099BE8000F1B9800089BD800078
:1004E00055BC8000A5BD800021BB80006DBD800093
:1004F000D5B9800065B9800049B98000C1BD8000D0
:10050000E5B88000F1BD8000C9AF800029B8800047
:10051000C1B7800035B280005DB0800075B2800048
:1005200071BC80004DB0800051B280000DBA8000D7
:10053000A1BB8000E53502000DB380000DB4800042
:1005400091B98000DDBB80003DBB800039B58000E3
:10055000A1B1800091AD8000B1BE800061B6800085
:1005600089B08000C1AD800059CB8000D1CB800024
:1005700011CC800079CB800095CB8000F5CB80003A
:1005800065CB800045CB800071CC800095CD80008C
:10059000A9CC800039CC8000DDD2800089D38000D6
:1005A00009D3800039D2800021DB8000DDDA8000B1
:1005B000A9DA8000EDDB800065DC8000C5DC80000E
:1005C0006DDB800019DC80002DDD800081DF800084
:1005D00041E18000A1E18000F9EA800075E9800036
:1005E000B9E58000FDE1800035EE800079EF800004
:1005F000BDED8000D1EE800079EE800009F1800031
:1006000005FB8000F9FE800081048100390681002D
:10061000C10781003D098100390C8100750B810003
:10062000F50B8100E12181009122810025248100C8
:10063000ED238100492281009523810061238100FF
:1006400045238100D92281006D248100B1258100DC
:10065000E12A810035258100252A81000D2B8100AA
:10066000192B8100312B8100252B8100ED2A81007F
:10067000152581000D268100552481006127810008
:10068000412981008925810069298100E1298100B2
:10069000E927810065E70100BD248100B5278100BD
:1006A000392A81009D278100792481001926810043
:1006B00039248100B9268100D1258100A52481003B
:1006C0002125810059258100A52681009D258100D5
:1006D00075258100BD258100F52581004925810012
:1006E0005D2B81003D2B8100092C8100D92C8100DC
:1006F000A52D8100E92E81005D2C8100D143810070
:10070000D940810089528100293D81001930810042
:100710007D308100AD3781003D5481001537810067
:10072000C1358100C5388100115281002538810012
:10073000ED3C81005D408100295381003935810005
:10074000DD488100C1398100B95381003939810008
:10075000A15581005936020061538100414C0000CF
:10076000553B8100BD4781003541810085358100C1
:100770008538810055398100795481000D548100FC
:10078000713E81000D44810031448100913381002C
:10079000F53B8100C9348100F9418100853F81002A
:1007A0008D3C8100F13B020085488100F5338100DA
:1007B000C5408100C93E8100BD508100FD3B020063
:1007C000C1528100853D8100A9468100594F8100B9
:1007D0001D458100554481000D3381007D45810018
:1007E000B13A020091578100E93A0200E55A8100CE
:1007F000595B8100415B81004D588100B5578100F4
:10080000D15A810065598100B9598100D9578100B9
:10081000891E0200F15A81007959810075588100C2
:10082000F15F8100ED5D8100295D8100315F810014
:100830004160810061608100C15F8100F95E8100DB
:10084000795F8100ED5C8100FD5F8100A95D810021
:100850006D60810021608100555C8100415E8100F6
:100860005D6C81006D6C8100D97C81007198810084
:10087000E97C8100CD778100ED938100299681008C
:1008800015968100459481002D618100F1908100D1
:10089000D1798100697A8100257B8100157A8100F8
:1008A0003D7D810051918100817B81003D6B810004
:1008B000A17C81008581810099948100FD94810053
:1008C0007194810079748100997181005177810060
:1008D00089718100517381008970810029788100BC
:1008E00019948100D1718100E9978100E560810050
:1008F00029988100FD968100A96881003D938100BF
:1009000011818100F57B8100A1748100D173810088
:1009100039968100D1918100B56081001D918100DF
:100920007D6C8100616D8100CD6E81005D788100FC
:10093000D56B8100B53802008D7D81008177810003
:1009400015718100217681007D7281000170810026
:10095000056B8100656B8100396781001D6881002E
:100960002969810085678100597C81006D61810062
:1009700005A08100759F81000DA381000199810070
:10098000D5988100DDA901003DA28100D99981009F
:10099000B99C8100B19A810009AB010051AB010003
:1009A0006D9C810071A3810099370200A999810093
:1009B00089AB010021A7810011A58100859F8100DD
:1009C000FD9D8100A19B810075A78100D9A38100B5
:1009D000319A810035A48100A5A1810089AC010074
:1009E000F59E810071998100559F810075B4810049
:1009F000C1A78100A9BA810075A9810021EC8100FD
:100A0000F1BA810051E4810079C3810045B58100CC
:100A1000C5EC81001DD1810021D2810065D181000A
:100A200069D28100B93B020091AA810089A98100A5
:100A3000A9B1810005B2810065B581009DE6810004
:100A4000CDE48100ADEA810039CF810015C4810079
:100A500025D081005DC3810029B8810065C1810076
:100A6000F9C1810095C08100DDC5810005C7810005
:100A7000E1EE810099BE810019BA810069DB810035
:100A8000A1AF810071CD81009DC7810035AD01000E
:100A9000C937020059AA810085C88100C1CD8100F3
:100AA00065B88100A1AE81001DE4810081D681007E
:100AB00069E18100EDAF0100E537020031CA810034
:100AC000D1B00100A5AC8100B9EB810005ED81003A
:100AD000C5EF810061EA810041AF0100F5E98100C5
:100AE0007DC581002DBB8100B9390200D5BC8100D4
:100AF000FDA88100613A0200EDE88100FD390200A5
:100B000021D6810031C9810055F1810019F681009B
:100B100049F181000D008200ADF581006500820081
:100B2000A9F381009D008200CDF0810061F1810078
:100B3000E5B20100E9F2810061F2810031F2810049
:100B40008936020091F0810011F3810025F68100C1
:100B500009FB8100B9F48100DDF5810079F881009D
:100B6000F5FE8100E1F78100310182009936020033
:100B700065F78100B9008200290282006D208200A1
:100B8000290F8200F1118200291382001D168200B4
:100B90002D16820041128200B11E8200290E8200B1
:100BA000011E8200FD0D8200FD2C820015108200C6
:100BB000E90F82000924820075228200C12382008D
:100BC0009D238200410B8200B92C82008911820092
:100BD000D52B8200ED2B82004D2882001126820049
:100BE0007925820069028200710F82006D118200F6
:100BF000FD198200751B82003D218200DD0B820001
:100C0000312282007904820029218200510382006E
:100C1000B506820059248200E527820039B301001D
:100C2000251282003910820099268200950A8200DE
:100C30005D068200C9118200C50F8200251E820058
:100C4000DD068200DD1582005112820085068200D9
:100C500035178200E916820021178200BD2182002B
:100C6000F9238200D1248200891F8200F1208200B2
:100C7000FD118200BD248200991F8200F9278200A5
:100C800035118200FD108200A1278200E523820039
:100C9000F91A8200250C82008D1C8200012282003C
:100CA0006D28820021208200C1178200A9288200BD
:100CB0009D028200992B8200F10782002D2782007D
:100CC000252D820001258200B92582008924820019
:100CD0007D370200F90E82005D0B8200B50B8200A9
:100CE0004D0F820049028200C90582004D05820035
:100CF000B9B30100DD1E82003D1A82000D12820090
:100D00009D208200A10E8200792C8200DD1D8200D0
:100D1000FD1F820071178200C11F8200111882001E
:100D200065238200E5268200A1168200E50182008B
:100D300099128200151B82005D0182003913820026
:100D4000390D8200312C8200092C8200ED188200BE
:100D5000C5108200910F820091198200B526820091
:100D6000E110820065058200650C82006107820047
:100D700009B40100F91B8200552182009103820011
:100D8000B5038200652C8200E1248200B12282003A
:100D900065278200E1038200A1048200953B0200E6
:100DA000E13082005D2D8200613B8200C53382000C
:100DB00039398200E53C8200B13A8200653982000F
:100DC0009D3B8200E542820045B701004D3682001E
:100DD0007D348200F93E8200F93D8200AD37020089
:100DE0001DB801003D338200653082004D42820013
:100DF00001B90100213A8200354182009DB901000C
:100E0000F5358200DD358200093382001943820006
:100E100085408200E1338200653A82009139820088
:100E2000D9398200293082003D2E8200813B0200A8
:100E3000913A0200813B8200593D82008D2D820053
:100E40007D3A0200B52F8200F53C820069368200AF
:100E5000D93A820019348200913082000531820033
:100E60000D3C82007D388200DD360200853682002E
:100E7000253F8200053982002D518200A95682004B
:100E8000795A82008D568200D950820031628200E8
:100E9000F15E8200F55F8200C1538200094A820040
:100EA000894382002D508200516482009D5F820040
:100EB00049618200AD6082008D538200A55B820093
:100EC00019608200915A820075598200454C820057
:100ED000914C820071648200F1638200D5588200D7
:100EE000694782005557820081448200854A82000A
:100EF000C55682005544820099438200A94A820067
:100F000055558200295F8200E14C8200295D8200F4
:100F1000AD4B820049518200D5608200656182003C
:100F2000854B8200DD5D820079488200394D820068
:100F3000F1598200FD5E8200C91F0200995E8200A5
:100F40008565820029548200F15A8200B1628200D4
:100F5000CD5382008D478200014E8200B182820013
:100F6000856A82000D8C820051688200A56882002B
:100F7000D58C8200317F8200D16B8200356882007F
:100F8000696D8200858B820049748200F172820053
:100F9000456F8200A16D8200C96E8200556E82008D
:100FA000B96582009D7482003966820055698200AD
:100FB000DD7F820045848200B5698200796B820002
:100FC0007D8482006D728200F56882006D788200F7
:100FD0005D878200817082005D6C8200C182820028
:100FE000A972820045738200D56F82009D848200C1
:100FF000E9738200C1898200A1878200F1878200A3
:10100000ED6782003D898200E588820031728200AE
:101010000D8B8200D57782003D8C8200AD838200EB
:10102000117D82007D828200B97B8200D121020085
:101030005576820051778200B57682000D87820056
:1010400041868200D98B8200B56B82006585820063
:10105000657A82008977820071818200416A82000C
:10106000CD7E820095668200AD6A8200296B820087
:101070006DA082002543020001430200DD42020010
:10108000B9420200E5978200D99782005D988200FC
:101090002D9882004998820029A2820025A582000D
:1010A000F99882006DA68200F5A5820029A682002B
:1010B000C5A58200258D82001593820055A082006F
:1010C00065A3820021918200C19C82009D968200CE
:1010D000A992820041938200F58C8200ED410200CA
:1010E000D5968200ADA68200D5A38200C9A2820057
:1010F00099A682003D908200D1A082009D9082003E
:10110000219D8200DD93820099A1820095A082003A
:10111000D9410200D99182009D9982008D9D820063
:10112000B598820069988200B5998200F197820093
:10113000859A8200798E82001D8F82002995820017
:10114000C5A4820075A48200499A820085A9820004
:10115000F5AA820025A98200ADAA8200C1A682005C
:10116000793402008D34020015AA8200A5A98200FC
:1011700015A882003DAA8200E1A982006DA9820023
:1011800045A9820075AF8200C9AE820071BA010024
:1011900015BD820015AD8200D9B382002DAB82004F
:1011A0008DB98200E1AC82005DAE8200DDAE8200CE
:1011B000D9B882007DAD82001D36020021BB8200BD
:1011C00055BC82001DAE82007DAE8200B9BB82009C
:1011D000A9AC820039AC8200B5BD0100D5BD0100CB
:1011E000B1BC010079BC820049C201007DC082000F
:1011F000A9C1820081C1820009C182001DC1820093
:10120000B5C08200E1C0820069C082008DC082004A
:1012100059C18200D1C18200BDC18200A1C082003B
:10122000C9C08200F5C0820031C1820045C1820080
:1012300055C082006DC1820095C18200EDC282005E
:1012400051C382000DC4820095C38200E5C38200B1
:101250000967030091C6820025C4820081C3820011
:10126000FDC28200B5C4820045C482007DC28200F6
:10127000E5C18200E5C4820099C8820029CB8200C2
:1012800061C9820039C7820011CB820091C98200F6
:10129000E9CA820051CA8200ADC982004DCB8200EA
:1012A000C5C88200C5C98200D9C682006DDB820034
:1012B0007DDC8200D5CC820069DC82005DDB8200AF
:1012C000F9DE820041DF82008DDC8200D9C201009C
:1012D00035DC820005CD82007DDB820095D2820064
:1012E00035DE820005C3010005D3820075CF820080
:1012F00091D0820019D08200A5390200E1CD820090
:10130000F5CB82008939020069390200F5DA8200E2
:1013100041DB8200D1D08200BDD68200ADCE8200FA
:1013200075E2820089E4820099E48200FDEA82008D
:10133000E9E28200C5E8820009E482001DE482003F
:101340009DE68200C1E68200C5E2820085E9820056
:1013500021EA820049E2820059E98200D9E682004E
:1013600005E1820059EB820045EB8200B9E482007E
:1013700061EE8200A1E5820075E582007DE68200D3
:1013800059E78200F5E8820089E2820069EB820079
:1013900075ED8200C5EA82000DEB8200F1E082006B
:1013A0004DE382005D8A0300D5ED82005DE182009D
:1013B000C5ED8200B1ED82008DE0820041FD82002A
:1013C00035FF82001DFD82005DEF8200F5FE820088
:1013D000ADF18200B1F8820061FF820081FD8200E0
:1013E00089F782002537020029FC8200DD0983008D
:1013F000E50383005D1D830051248300A111830058
:10140000D91E8300CD118300591F8300851F8300DF
:1014100041218300091E830051218300C5248300DC
:101420006D1D8300090383005D1C8300A1128300EE
:1014300045208300D1008300951F83002D07830082
:1014400015028300ED018300CD0F83002501830089
:10145000752283000D24830069058300BD04830089
:10146000D508830041038300451A8300211C8300B3
:101470001D2083003D0D8300690283002911830034
:10148000D5108300010A83008D078300A521830006
:101490000D21830055238300052583000513830058
:1014A0004D0483000512830059208300CD0583007D
:1014B00095068300090083009D8A03006D13830055
:1014C000B1138300411E8300A5FF82002D7402002A
:1014D000BD450200D9500200954A0200554802005D
:1014E000354602000D580200994802008555020059
:1014F0006D480200654802005D480200E95D020097
:101500004D480200D945020011500200295702003F
:10151000FD4E0200F94702001D4602002946020066
:10152000BD790200114602001D610200D97A020055
:10153000554A0200114802003D710200F9450200BF
:101540000946020039640200914B0200F98C020046
:10155000B96F02005179020039490200694A02005C
:1015600055740200E5550200A1780200C17802001E
:101570004D4A0200F172020031C401006DC4010045
:10158000A9C40100C1C7010005D2010045D2010074
:101590004DD20100CDD20100C9D3010049D50100CF
:1015A00065D5010075D5010089D501009DD50100E3
:1015B000B5D501002DDD010085DD010049DF010009
:1015C00071DF01007DDF01008DDF010095DF01008B
:1015D000D1DF0100D5DF0100DDDF0100E1DF010027
:1015E000E5DF0100F9DF010039E0010009E1010058
:1015F00011E1010019E1010089E201000DE30100A0
:1016000045E301007DE30100B5E30100F5E30100DE
:1016100009E4010011E4010019E4010021E40100E2
:1016200075E4010091E40100F9E50100F1E6010033
:10163000F9E6010049E70100CDE70100151B0000B4
:10164000111C0000D91C0000F51C0000691D0000E1
:10165000511E00006D1E0000151F0000811F0000BC
:10166000F91F000031220000DD220000712400007B
:1016700005260000A1260000FD26000075270000B9
:10168000B52700007D28000099290000D12900001D
:10169000452A00004D2A00006D2A0000752E00002A
:1016A000012F00001D2F0000293000005D310000D7
:1016B00091310000D13100004D330000753300003E
:1016C000A5330000D5330000953400001535000027
:1016D000113500000D3500000539000055390000B6
:1016E000753900007D3A0000553D00008536000048
:1016F000053E0000793E0000893E0000993E000052
:10170000D13E0000813F00008D3F0000993F000066
:10171000D13F0000F53F000005400000B940000047
:10172000C5400000DD400000AD420000E142000085
:101730001D4300003D4300005D4300007543000071
:101740008543000049450000B546000011470000F0
:10175000D1480000ED480000C54C0000F54F0000E6
:10176000315100006D560000A1560000E557000001
:10177000255900004559000075640000A56400006B
:101780002D65000055650000C5650000416600003C
:10179000416A00006D6C0000F96E0000116F0000DE
:1017A0001D700000E570000029710000B17100009B
:1017B000097300005D7300007D730000AD740000CC
:1017C00071760000217700000D780000C9780000D4
:1017D0002D7F0000B1800000018100002181000008
:1017E000C18200009D3700003172000029380000DE
:1017F000998400008D8C0000158D0000754100005B
:1018000071980000CD1B0000299A0000519B000038
:101810005D9B0000699B0000B99C00009DB8000022
:1018200045B9000079BA00006DBB0000DDBB0000C7
:10183000F5BE000015C30000D5C300002DC5000093
:101840004DC5000069C90000DDCC000021D10000B9
:101850000DD20000E1D400000DD50000CDD5000070
:10186000B1D6000029D80000A5D8000099D9000001
:10187000B1DE000069E4000059D5000029E4000051
:1018800099D5000041E500005DE60000D1E60000CA
:1018900029E80000A1E9000089F3000049F50000F3
:1018A00099F6000001F70000D1FF0000E1020100FD
:1018B00011040100C10401003510010001110100F3
:1018C00059110100DD170100591901006D190100BE
:1018D000451A0100251D01003D24010015270100C6
:1018E000F13D0100DD3E010075410100D1490100DB
:1018F00091510100A174010021A6010031A601004F
:1019000005A70100A1A90100ADFF010029B3010055
:1019100031B3010019240200952302009D23020027
:1019200065230200252402005D34020051340200C8
:101930004D3402005934020055340200C53402000F
:10194000E9340200E5340200F93402002D350200CA
:10195000313502003935020041350200713502008F
:101960004D350200F1340200F53402006535020005
:10197000693502005D3502005935020089350200E3
:1019800081350200793502007D350200D53502002F
:1019900049350200453502006D680300DD8703000C
:1019A00001000000200000001F00000050000000A7
:1019B00001000000438B03000A07089C18004096B2
:1019C00000FFFFFFFFFFFFFFFFFFFFFFFFFFFFFF26
:1019D000FFFFFFFFFF0105020503050405050706DC
:1019E000070707080709070A060B060C020D020E77
:1019F00002220126022A022E02240528062C053086
:101A000006340538063C054006640568066C05701A
:101A100006740578067C058006840588068C029588
:101A20000599069D05A106A502B801BC02C001C426
:101A300002C801CC02D001D402D802AAAA030040F5
:101A40009600000000000000000000000000000000
:101A50000000000000000000000000000000000086
:101A60000000000000000000000000000000000076
:101A70000000000000000000000000000000000066
:101A80000000000000000000000000000000000056
:101A90000000000000000000000000000000000046
:101AA0000000000000000000000000000000000036
:101AB0000000000000000000000000000000000026
:101AC0000000000000000000000000000000000016
:101AD0000000000000000000000000000000000006
:101AE00000000000000000000000000000000000F6
:101AF00000000000000000000000000000000000E6
:101B000000000000000000000000000000000000D5
:101B100000000000000000000000000000000000C5
:101B20000000000090F92B007047C046406B7047E2
:101B3000D0F8D836D868012805D9032803D0023850
:101B400018BF012000E000207047C046D0F8E42113
:101B5000244B02EA0303002B42D1D0F864319B7975
:101B6000002B3DD1D0F8D836DB68012B03D9032BED
:101B700001D0022B34D1D0F8A0368BBB90F8E231E3
:101B800073BB90F8E4315BBB90F8E03143BB90F855
:101B9000F7362BBB836C1BBBD0F85C3803BB90F8CB
:101BA0007E37EBB919464318D3F844221AB193791A
:101BB0000BB11379A3B904312029F4D100214318C2
:101BC000D3F844223AB193792BB9D3791BB1D0F829
:101BD00064329A4204D104312029F0D1002000E07F
:101BE0000120704700FFFF00837C0168D0F8D822F5
:101BF000D3B1C379C3B19378B3B15378A3B9C37CDC
:101C000093B1B0F8623043B1826D40F2371302EA0B
:101C1000030313B190F8673033B1D1F864329842BE
:101C200014BF0020012000E00020704700B590F8AC
:101C300002E0002206E08318DB788B4201D101200C
:101C400003E001327245F6D1002000BDD0F86432C5
:101C50000246D3F8C832D98D93F8603001FB03F304
:101C6000580092F8E83113B103FB00F005E092F858
:101C7000E73113B103FB01F35800B0F5FA6F38BF39
:101C80004FF4FA607047C04630B591F804E00C6834
:101C90000546002208E08B18187910F0800F02D05A
:101CA00000F07F0004E00132A242F4D10EF07F0088
:101CB00010F0006F0AD1064A00F07F03D356002BC4
:101CC00004DAD5F84C369B7A40EAC32030BDC046D2
:101CD00054E18300D0F84C2611F4605F108903D1E1
:101CE00092F90730032B01D15378980100F47070FA
:101CF0007047C046837923B9837C13B14FF40073D6
:101D000000E00023002B14BF4FF400700220704746
:101D100001390F2934D8DFE801F0080C10143333EF
:101D2000333333181C2024282C30D0F844361A7052
:101D300026E0D0F844365A7022E0D0F844369A7043
:101D40001EE0D0F84436DA701AE0D0F844361A7142
:101D500016E0D0F844365A7112E0D0F844369A7141
:101D60000EE0D0F84436DA710AE0D0F844361A7240
:101D700006E0D0F844365A7202E0D0F844369A723F
:101D80007047C04610B5D0F8443693F901201B784F
:101D9000B2F1FF3F03D15BB10121521806E0012AE5
:101DA00014BF00220122934202D00121FFF7B0FFAD
:101DB00010BDC04610B5D0F8443693F90820B2F1F2
:101DC000FF3F02D10D21013204E00D21012A14BF91
:101DD00000220122FFF79CFF10BDC046016810B52C
:101DE000D1F86432CC6898422CD191F86A324BBB5E
:101DF000D0F8D8325B7A2BBBD0F8C82292F860308A
:101E0000B2F82EE00EFB03F35A0091F8E83113B15B
:101E100003FB02F205E091F8E70110B10EFB00F3BD
:101E20005A00D4F88011D4F88C01884201D20120E4
:101E300009E04FF47A7302FB0313984294BF002029
:101E4000012000E0002010BD0068704701207047AD
:101E5000D0F8E000003818BF0120704700230120AF
:101E6000C1F86C317047C046012070470131042928
:101E700004D801238B4013F0170F02D16FF01C0020
:101E800000E000207047C046012B02DC4FF0FF301D
:101E90001CE003685B6B33B1D1F8CC3013F0020F58
:101EA00001D10C2000E0002010708B795BB1B1F8FB
:101EB000623013F0400F06D091F86430012B04BF5C
:101EC00040F0010313700023537018467047C0465A
:101ED000642911DC632923DA4A2921D005DC07298A
:101EE00021DB08291CDD3C2914E0502918D01ADB1D
:101EF000A1F15C03032B12E0C32905DCC2290FDA30
:101F0000A1F1A803022B0AE0B1F5847F08D003DC1D
:101F1000B1F5807F04D006E0A1F58973012B02D8CA
:101F20006FF0160000E000207047C04600207047A8
:101F3000C88810F0080018BF6FF016007047C04640
:101F4000D0F8F0375889704770B5002605463446FA
:101F5000D5F8B434E218D36813B11069984736182D
:101F60001434B42CF4D1E96AB1F91C20B1F91E3053
:101F70009B18B1F920209B18B1F922209B18F0186A
:101F80000022AB18D3F844321BB1D3F80835DB88F4
:101F9000C0180432202AF4D170BDC0461389023B18
:101FA000052B32D8DFE803F005030C0A07220020D6
:101FB00022E0002309E06FF0004302E0002317E075
:101FC00000236FEAD3336FEAC333D28843F07F0034
:101FD00012F0200301D0012303E012F0100F08BF1C
:101FE000C343994213DB814211DC0EE04FF0FF3313
:101FF0006FEA13406FEA0040D38813F0200F00D03F
:1020000029B140F0FF03994201D8002001E06FF0B0
:102010001C00704700B58646084603881146C3EB8E
:102020000E039AB222B10B68A0F800E09B180B6077
:1020300000BDC0460368D0F83007D3F88C10836821
:102040007022013303F0010303FB020283604B683B
:1020500013618B685361CB689361D1F8B031D36160
:102060000B6C13624B6C5362D1F870329362D1F8EF
:102070007432D362D1F878321363D1F87C3253636F
:10208000D1F880329363D1F88432D363D1F88832A7
:102090001364D1F88C325364D1F890329364D1F840
:1020A0009432D364D1F898321365D1F89C325365D9
:1020B0007047C046D0F8D422002382F838307047E9
:1020C000D0F84C269378012B07D192F907308B4238
:1020D00014BF6FF01C0000200DE04B1C042B04D833
:1020E000DFE803F00607070306006FF01C0002E0BC
:1020F0000321D171002070474B6A43F400734B6297
:10210000C368D3F88031D2180A637047F0B501F183
:102110002404A37902F1240586460068AB71E379B3
:102120001646EB71236900222B61A388A271AB8054
:10213000E3680F46EB60E369A979EB61E261D0F8EF
:1021400070260C2301FB03225368BB4208BF566074
:102150007B6A084A03EA0202736A134373629EF8B9
:1021600097301BB1237A2B72A369AB6164896C81B0
:10217000F0BDC046F24680CF10B592F84C3092F8D0
:102180004D20B0F8401543EA022348F218020446F5
:1021900003EA020247F6E07042F0040200EA41104E
:1021A00042EA00000131A4F8401510BDF0B59E468A
:1021B000D0F878370446C8580D461646059F9DF856
:1021C00018C0002840D0D4F8DC3142690168D21A26
:1021D00018BF0122002908BF42F00102736AC168DA
:1021E00003F4403301F44031994218BF42F0010238
:1021F00043689E4518BF42F0010283689F4218BFA2
:1022000042F00102037C63450CBF964642F0010E8A
:102210002B699B794BB195F8CF30427C003B18BFBE
:1022200001239A4218BF4EF0010EE36A03EB8703C5
:1022300059682368DA690B68526C93422CBF734665
:102240004EF0010383F00100F0BDC04648F2F303F5
:10225000994201D1012005E048F23713994214BF99
:10226000002001207047C046042810B514460DD048
:1022700002DC022808D003E00B2809D0162815D06C
:102280004FF0000E724627E0CB000CE08B000AE016
:102290000B01B3FBF0F21FFA82FE0EFB00F2934239
:1022A00019D00EF101031FFA83FE14E00B22C900BE
:1022B000B1FBF2F31FFA83FE0EFB02F399420AD040
:1022C0000EF101031FFA83FE0EFB02F35B1A072BCC
:1022D00001D9753200E00022052300FB03F32370CF
:1022E00042F0040363704FEA1E23E370002384F876
:1022F00002E02371637110BD10F0006F10B59646B7
:1023000026D010F4000F00F4E06310D01B0A043B49
:10231000012B124A00F07F0004D8142300FB032392
:10232000D86817E0142300FB0323986812E01B0A07
:10233000043B012B094A00F07F0004D8142300FB62
:102340000323586806E0142300FB03F3985801E0C8
:1023500000F07F007246FFF787FF10BD70DE83003C
:1023600030B58C4604461D460AB10A4626E0016B8C
:102370004B7D9BB1D0F844361B787BB11CF0006FCD
:1023800009D10CF07F03022B08D0042B06D00B2BB5
:1023900004D0162B02D091F88E200FE01CF0006FB5
:1023A0000CF07F0E06D01A4A14230EFB03235B7C2D
:1023B000CB1801E001EB0E0393F87820CCF3022355
:1023C000043B012B22F4E0600FD812F0006F09D11A
:1023D00002F07F03022B08D0042B06D00B2B04D075
:1023E000162B02D040F4A06001E040EA052010F076
:1023F000006F0CD1074A00F07F03D356002B06DA9A
:10240000D4F84C2620F46053927A43EAC22030BDBF
:1024100070DE830054E1830010B5FFF75BFC10BD54
:10242000D0F8442692F90530032B03D0012B01D0BC
:10243000022000E004204B6803F48813B3F5881FE2
:1024400001D0D37903B1042092F90930B3F1FF3FF1
:1024500005D0022B03D0012B14BF042002207047AB
:1024600000B502464FF0000E03E0002380F810365E
:1024700000BD8BB20EF1010EA2F89035A2F8B03576
:102480000232BEF1100FF4D1EFE7C046D0F8D422EB
:102490000023106810B593600C46938100211950F9
:1024A0000433202BFAD15160146110BD30B585B0D2
:1024B00004460D4668460021102206F01BD994F808
:1024C00010064FF0000E0EE000216B4653F821304D
:1024D000102293FBF2F34B5501310229F5D114E0A0
:1024E000431C03F00F0004EB4001B1F99025009B61
:1024F0000EF1010E9B180093B1F9B025019B9B18BA
:10250000BEF1100F0193EBD1DEE705B030BDC04640
:1025100030B5D0F8D4420D4699B1A3682068CB18E5
:10252000616850F821209B1AE289A36040F821508D
:10253000531E01310B406360A3899A4201D90133D4
:10254000A381A2890AB9226103E0A36893FBF2F395
:102550002361206930BDC04610B5D0F8D4428E4604
:10256000A9B1616AA3696018027F0131C2EB0E0252
:102570009B1894F82820A36153B201F00701072BA0
:1025800080F81CE0616202DC531C84F8283094F966
:102590002820002AC3BFA36903EB620393FBF2F375
:1025A00000236361606910BD0020704770B58369C6
:1025B000054644689847AA6A904204D26B6A013380
:1025C0009B1A191801E0C2EB0001A86284B163688C
:1025D00003B169B162688A4207D80023636001339E
:1025E0002374246824B1891AF4E7C1EB0203636001
:1025F00070BDC046436810B504467BB1FFF7D6FFF7
:1026000007E00B688A68636000238B600B74C868FE
:102610009047616811B10B7C012BF2D010BDC04610
:10262000002310B5044680F82D30FFF7E3FF94F83F
:102630002D306BB962683AB1E3692046516898471A
:10264000012384F82D3003E0236A0BB1204698471C
:1026500010BDC0462DE9F0411F46036805461B68C2
:102660000C461B7E164623B319B38B680BBBFFF7D2
:102670009DFF2A1D314601E0C91A0246106820B1AB
:1026800043688B42F8D95B1A4360069B2060146054
:10269000E3606B68A7609C4261600CD195F82C30B8
:1026A0004BB1EB69284698470123184685F82D3031
:1026B00002E0002000E00120BDE8F08110B50B46EB
:1026C000041D0DE099420AD1086818B143684A68B0
:1026D0009B1843600B68236000238B6003E00C466B
:1026E00021680029EED110BD0368DB68D3F88001B2
:1026F0007047C046C36899617047C04610B500680E
:102700000021FFF7F7FF10BD10B50068FFF7F2FFDB
:1027100010BDC0460020704790F8D83100B593B185
:102720004FF0000E71464318B3F81826023140F6F8
:1027300029139A4298BF4EF0010E0C29F3D1DEF115
:10274000010338BF002380F8D73100BDD0F8D8226C
:10275000036810B5D3F81808116BFFF7AFFF10BD71
:1027600037B5D0F8D83205680446196BD5F8180883
:10277000FFF7A4FFD4F8D8320094196BD5F81808E5
:102780004FF42052014BFFF765FF3EBD8DE900007D
:10279000D0F8D832002210B583F82A20DA8C1A85B6
:1027A000FFF7DEFF10BDC046192901DC002004E060
:1027B000037E042B14BF002001207047192901DC7F
:1027C000002004E0037E7F2B14BF0020012070470F
:1027D000094BC1F3411233F81220084B01F00F01ED
:1027E0005B5C80F8C03080F8C130DBB2A0F8BE205E
:1027F00080F8C2307047C046F28B0300B8A30300D4
:1028000000B510F0006F14BF4FF00C0E00F07F0EFB
:10281000002205E0704502D15B18586806E00132DD
:102820000349D30051F832000028F3D100BDC0465F
:10283000FC8B0300482301220370002311F0010FD9
:10284000837018BF827011F0020F427003D083783A
:1028500043F00203837011F0040F03D0837843F038
:102860000403837003307047A8B1A1B1D1F86C3173
:1028700082F824307BB1D1F87031D1F87C015360FB
:10288000D1F87431936008B9014603E0D1F878318A
:1028900093FBF0F1D16070478B6D13F0010F0CD0FA
:1028A0000B6FB3F1FF3F18D001EB8303596FA1B158
:1028B0000B7A032B11D1052010E013F0020F01D089
:1028C00002200BE013F0040F01D0042006E013F403
:1028D00080730CBF18460B2000E001207047C046F3
:1028E00011F0006F70B58C46064601F07F0E184659
:1028F00015D02E4AB3F1180014230EFB03231B7CC2
:1029000001F40005C1F3015101EB93116FF00303D2
:1029100001FB0304336B1B68022B06D006E0244B3B
:1029200013F90E30002B37DA2CE0063C0CF4E06192
:1029300075B10B0A043B012B1C4A04D814230EFB6F
:102940000323DB6812E014230EFB03239B680DE0D6
:102950000B0A043B012B154A04D814230EFB032356
:102960005B6803E014230EFB03F39B589800A30855
:1029700003FB00F3A3F5AA43F03B4FF4FA52B3FB79
:10298000F2F012E0A0F114034FEA4E029B0803FBA1
:1029900002F3163BD80808E012F0010F01D06038AE
:1029A00000E0C0380EFB00F3180970BD70DE830034
:1029B00054E1830011F0006F10B501F07F0104466F
:1029C0009646006B06D0084A142301FB03235B7C68
:1029D000C31800E0431893F8781020467246882305
:1029E00010F0F8DD10BDC04670DE830011F0006FFE
:1029F00010B501F07F0104469646006B06D0084AE8
:102A0000142301FB03235B7CC31800E0431893F8F5
:102A10007810204672460E2310F0DCDD10BDC04653
:102A200070DE83002DE9F0471F46036B06461B68E6
:102A30008846012B14BF0A2510259146FFF7D6FFC3
:102A4000281880B257B14400414630464A463B46BA
:102A500010F0C0DDA4B22818001980B2BDE8F087DC
:102A600010B5FFF7C3FF10BD036B03481A68034B93
:102A7000012A18BF184670472CE18300D0DD83007F
:102A8000007E00F00200704710B51046EAB153789E
:102A9000032B1AD94C6844F480724A604379012BA5
:102AA00094BF44F4A06322F480634B604378052B09
:102AB0000BD9062B09D0037A13F0050F4B6814BF0E
:102AC00043F0806323F080634B6010BD4B7E0A7E31
:102AD000087D42EA03228B7E42EA0342CB7E42EA31
:102AE00003624B7D40EA0320130C12041B04120CFA
:102AF00040EA0303904288BFA3F58033184670472D
:102B0000D1F8CC322DE9F0410546188C0E46174617
:102B100088BB8B6D40F2371203EA0202002A0CBF19
:102B2000012411242A6B1368022B07D195F848362B
:102B30000133DBB2012B98BF44F02004537D53B125
:102B4000B86B07F13C0111F04DDC20B195F933363B
:102B50000BB144F48064D5F840375BB1D6F8CC3083
:102B600013F4804F06D1B7F8623013F4807F18BF9A
:102B700044F480742046BDE8F081C0461FB592F849
:102B80002A200C238DF80C20D0F870468E4602FBCC
:102B9000034101A809E00B68734501D1012007E05A
:102BA0000A7A0C23084602FB0341007A0028F2D17E
:102BB00004B010BD30B502F124048E46A17985B071
:102BC0008DF80C10D0F870260C2301FB032205466B
:102BD00001A80FE01368734501D0104604E0137A92
:102BE0000372002313601372017AD5F870260C2348
:102BF00001FB0322037A002BECD19DF80C30A3716A
:102C000005B030BDC1F380007047C0462DE9F047E4
:102C100001F1240999F8066007469046FEB1114675
:102C2000FFF7F0FFD8B912E00C2406FB04F4D7F844
:102C300070660123A5196B723846A35941466A682C
:102C400098470023A3512E7A6B722B7226B13B68F2
:102C5000DB699B699E42E7DD002389F80630BDE809
:102C6000F087C046022070474FF0000CF0B50F46C9
:102C700016461D46E646D0F80833D0F80C4313F04C
:102C8000006F03F07F010AD08A00B358191971450B
:102C9000B1500CD9D0F808338E462B6007E08A007B
:102CA000BB581B197345BB5084BF9E4629600CF16D
:102CB000010C0830BCF1400FDDD1F0BDF0B5069D30
:102CC0001746A9429E46059E03D27318C5EB030C16
:102CD00001E0C5EB010C4FEACC030EEB03025EF8FA
:102CE0000330C0F838325368C0F83C3209B9711E5D
:102CF00000E00139CB000EEB03025EF803304FF029
:102D0000000EC0F840325368C0F844321DE04FEA6C
:102D1000CC03FA18FB58546813F0006F03F07F01DE
:102D200007D000EB8102D2F8B4311B19C2F8B431DC
:102D300004E050F821301B1940F821300CF1010259
:102D4000731E02EA030C0EF1010EAE45DFD1F0BD99
:102D50002F2A30B50446964602D86FF00D0034E0B5
:102D6000B0F87831056B0B60B0F87A31AA894B6006
:102D7000EB891B0743EA023302688B601069BEF1DE
:102D80003B0FC36BCB6093680B61836A4B61C36A73
:102D90008B61B2F87A30CB61D4F87C314B62D2F8D7
:102DA000AC300B6243688B62836BCB620CD92B898E
:102DB00000220B636B89BEF13F0F4B638A6303D91B
:102DC000036C1046CB6300E0002030BD00B5D0F8A6
:102DD0000C254FF0000E714604E0431893F90935B5
:102DE00001319E449142F8DB022192FBF1F37344DE
:102DF00093FBF2F010F1550F01DA032009E010F116
:102E00004B0F01DA084604E010F1410FACBF00207F
:102E1000012000BDF0B5D0F8D85618232C6A6F6A8F
:102E200004FB03F1224615E0AE6A8819A24203D0E2
:102E3000437813F0010F0FD0437813F00C0F07D134
:102E40004369002B02DC8B57502B01D1008904E031
:102E500001321831BA42E7DB0020F0BD90F9F536B7
:102E6000ABB990F8EC3693B9B0F8123603F470436E
:102E7000B3F5005F0BD1012380F8EC3603689B6A41
:102E8000C0F8F03690F8F436013380F8F436704725
:102E900090F9F52642B990F8EC3680F8F426C0F89F
:102EA000F0260BB180F8EC267047C04610B590F9BB
:102EB000F5260146002A2FD190F8EC361BB31046B8
:102EC000964601EB0E03D3F8442252B1937943B9ED
:102ED000D37933B1937C23B1D2F8D0329B7903B14B
:102EE00001300EF1040EBEF1200FEAD110B981F8C5
:102EF000EC0611E00B68D1F8F0269B6A9B1A022BB6
:102F00000AD9084606E00368D0F8F0269B6A9B1AA7
:102F10001E2B01D9FFF7BCFF10BDC04600B5964679
:102F20000A689B180B609342036838BF0EF1010ECC
:102F30007344036000BDC04600B59E460B689E45C5
:102F4000CEEB03030B60036888BF01329B1A03605A
:102F500000BDC0462DE9F34196469A788C465978D3
:102F6000120442EA012219781D7A0A43D9785E7A5E
:102F700042EA01620192191D8A784C781B79120489
:102F800042EA04221A43CB789DF8207042EA036299
:102F900055EA06258046009208BF4FF480656FB958
:102FA00090F8E03153B1714662463B4610F044DC84
:102FB00001A903463A466846FFF7BEFF019C284632
:102FC0002246009910F0FCDB0246241A4FB998F80B
:102FD000E03133B198F8C531013BB3EB902F98BF86
:102FE00024180548AB021018C018B0FBF3F003FB1F
:102FF0000040BDE8FC81C046FF8F010013B50468A6
:103000008E46D4F8643298420AD1012300210093FD
:10301000204673460A46FFF79DFFE368C3F88C011C
:103020001CBDC04637B50568D5F86442A04207D13B
:10303000002000902846FFF78DFFEB68C3F88C0155
:103040003EBDC046904201D2012006E001D00020E2
:1030500003E099422CBF00200120704770B503683F
:10306000944693F84530C2F3072413F0030F0D463E
:1030700002F07F02CCF3C01613D096B1032C51D8C6
:10308000202A07D1B0F8123603F44063B3F5406F3D
:1030900048D10DE0072A01D903241EE0032C41D0BA
:1030A0001AE0224B02F07F0E13F90E30002B02DAE9
:1030B000012C37D810E0BEF1020F08D0BEF1040F8A
:1030C00005D0BEF10B0F02D0BEF1160F2AD12B682E
:1030D000022B27D134BB05E024B1D0F84C369B78C5
:1030E000012B1FD011462EB1022C42F0006108BF07
:1030F00042F0016141EAC4241CF0804F18BF44F043
:1031000080441CF4000F18BF44F400042AB1214687
:103110002A68012312F086D820B144F00043002031
:103120006B6401E06FF01C0070BDC04654E1830089
:10313000C368C3F88011C3F88421704711B1B0F897
:10314000640701E0B0F866077047C04682B030B54A
:10315000142401FB04F1D0F8B40404930B50069B33
:103160000C18079D6360059BA560E3602261BDE8C4
:10317000304002B07047C0467047C0460A23837093
:103180002233037101234371043383726FF03703D9
:10319000002214218371513301704270C270C272D7
:1031A000C27101724272037342737047D0F8F434F3
:1031B00000229A70D0F8F4345A71D0F8F4341A71AD
:1031C000D0F86432D3F8C81291F934306BB1D0F82A
:1031D000F42413784BB190F8683233B1CB8803F004
:1031E0006003602B04BFD38E1381704730B5044653
:1031F000B0F812061D4600F47043B3F5005F32D1FB
:1032000000F44063B3F5406F0BD0D4F83835588ED6
:1032100000F44063B3F5406F03D000230B701370CC
:1032200020E05FFA80FEBEF1040F0EF1050C01D81C
:10323000012301E0AEF105030B7000F44073B3F518
:10324000807F82F800C000F0FF0004D1022804DD76
:10325000AEF1020305E0DD2801DD002302E00EF1FE
:103260000203DBB22B7030BD89B14B787BB189781A
:1032700011F0040F01F0020003D0002814BF062053
:10328000042011F0010F03D040F0010000E0002005
:103290007047C04602F0030200B50E2994BF4FF4F8
:1032A000005E4FF4805E012A06D0032A0DD04FF451
:1032B00040704FF4006212E0DD2901D9002101E0E5
:1032C0008B1C99B24FF4807007E0022901D80021CD
:1032D00001E08B1E99B24FF400704FF4406241EA56
:1032E00000004EEA000042EA000080B200BDC04685
:1032F000006800B58E461146D0F88C205368013323
:103300005360936873449360436B6BB1074BD0F881
:103310009020595C064B5B5C02EBC302536801339F
:10332000536093687344936000BDC046D8E7830040
:10333000B0E78300006800B5436B8E4611466BB161
:10334000074BD0F89020595C064B5B5C02EBC30244
:10335000536A01335362936A7344936200BDC0465B
:10336000D8E78300B0E7830000B50022864607480F
:10337000910030F82230734502D10B18588803E0D1
:103380000132332AF3D1002000BDC046A0A20300C1
:10339000D0F8A03673B9D0F864319B7953B9D0F81E
:1033A000D836D868012807D9032805D0023818BFB5
:1033B000012002E0012000E0002080F001007047C1
:1033C000D0F88001C0F3C640400270474018D2B226
:1033D000032980F8842109D81302A3F5A263043BD2
:1033E00040F2726293FBF2F380F88A317047C04674
:1033F0007047C046B1F1FF3F01D1006B08E00029E2
:1034000009DB03685B6A994205DC00EB8103986B7A
:1034100090F84C0001E06FF01C007047D0F84C367B
:10342000D87A704790F8C304C0F381007047C04653
:10343000036B93F94D00704790F8C40400F003004B
:103440007047C0464B1C012B02D901292ED101E047
:10345000012905D1D0F84C369B78012B26D000E00D
:1034600021B1D0F84C369B78012B09D190F8C334A8
:1034700090F8C42443EA022323F080039BB207E0C0
:1034800090F8C33490F8C42443EA022343F0800345
:1034900080F8C334826B1B0A80F8C434CBB282F844
:1034A0004D30C26B012082F84D3000E000207047A3
:1034B0008B6813F0080F03D1D0F87837C85800B9DB
:1034C00000207047082810B5144601D9002008E0F4
:1034D000044B13F8202003EB80035B880A70012063
:1034E000238010BDB88B0300B2F1FF3F02D102F57B
:1034F000807202E0012313FA02F2D1F8CC0002EA52
:103500000000904214BF00200120704791F8CC00C9
:10351000003818BF01207047D1F8CC301A420CBFD8
:10352000002001207047C0467047C0467047C04623
:103530007047C04670B511F000648E4615469C4633
:103540000BD0534A01F07F01142301FB03231B7CA2
:103550009B09591C0BB1002306E0CEF3C2230121C5
:10356000022B14BF002301230EF07F06042D14BF8D
:1035700000220122002C4CD0202E04D1D0F84C3651
:1035800093F88E0083E0CB18022B24D0032B35D088
:10359000012B01D0002139E0D0F84C066AB1BCF112
:1035A000010F02D100F1760130E0BCF1020F14BF2F
:1035B00000F16E0100F1D30128E0BCF1010F02D14E
:1035C00000F1460122E0BCF1020F14BF00F13E0100
:1035D00000F1C3011AE0D0F84C063AB1BCF1030F78
:1035E00014BF00F17E0100F1DB010FE0BCF1030F1D
:1035F00014BF00F14E0100F1CB0107E0D0F84C06FA
:1036000012B100F1860101E000F1560106F0070059
:1036100037E0204B0EF07F015B56002B22DAD0F80A
:103620004C066AB1BCF1010F02D100F1660114E051
:10363000BCF1020F14BF00F15E0100F1D3010CE0F8
:10364000BCF1010F02D100F1360106E0BCF1020F1E
:1036500014BF00F12E0100F1C30106230E4AB6FB90
:10366000F3F30DE0022905D0042903D00B2901D082
:1036700016290BD1D0F84C36720803F12A01074BFA
:10368000985C19B1802801D0085C00E0002070BD72
:1036900070DE830054E1830092A30300748C030066
:1036A00070B50546D0F84C060C460430012105F0F3
:1036B00073DA94F91F20C0B2CAB994F91C30B3B1BF
:1036C000114609E0621803EB011392F9202005EB83
:1036D0004303A3F890250131814295F81036F1D1CA
:1036E000013303F00F0385F810360123E37794F9D3
:1036F0001C0070BD70B50E460546002837D0002965
:1037000035D0002A33D01269911D072B01D8002231
:1037100003E092794B7842EA0322C2F38103022B41
:1037200025D128460A312BF017DA0446F8B1D0F833
:103730006C31E3B128463146FFF7B2FFC0B2B0B1F9
:10374000D4F8703140B29842D4F87431B8BFC4F89C
:1037500070019842D4F87831C8BFC4F874011B18BE
:10376000C4F87831D4F87C310133C4F87C3170BDB1
:1037700010B52BF0F1D918B190F8383003F07F0074
:1037800010BDC04673B50E46D0F8F80401A9154621
:103790002AF084DE002406E01B69B34203D1A84767
:1037A00008B1631CDCB201A82AF080DE03460028C1
:1037B000F2D120467CBDC04610B5024AFFF7E2FFB9
:1037C00010BDC046652A000010B5024AFFF7DAFFB7
:1037D00010BDC046351E000070B50268044692F860
:1037E0003E306BBBD0F864319B794BBB90F8C03155
:1037F00033BBB0F89A311BBBD0F89C3103BB90F8B7
:10380000A231EBB992F82D30D3B91D466319D3F824
:10381000441281B18B7953B9D1F8CC329B687BB912
:10382000D1F8883063B9D1F88C304BB903E0204629
:10383000FFF7CAFF20B90435202DE7D1012000E0B1
:10384000002070BD13B5D0F8F80401A92AF026DED7
:10385000002405E01B7E13F0020F01D0631CDCB2D4
:1038600001A82AF023DE03460028F3D120461CBD20
:1038700070B50446084615460E46FEF757F9226B0A
:103880009369984232D023685B6A012B08D9536848
:10389000002B14BF38233C23E3589B69984225D062
:1038A00095F8263013F0010F18D03046FEF73AF99C
:1038B00004EB8000D0F84402D0F8CC3013F4806FD1
:1038C00001D0002011E0B4F8123603F47043B3F5D0
:1038D000805F14BF40234423C05806E02A78204666
:1038E00005F12601D2092BF041D9706370BDC046A5
:1038F00010B58E46114692B1D0F870228A4204D19A
:103900000B68C0F8703206E01A4622B113688B4289
:10391000FAD10B6813607046D02209F02DD910BD82
:1039200010B58E46114692B1D0F8EC278A4204D1E8
:103930000B68C0F8EC3706E01A4622B113688B42D8
:10394000FAD10B6813607046142209F015D910BD26
:103950008B6870B513F008060C46D0F8785706D17E
:10396000495921B14068CC2209F006D9665170BD91
:1039700010B519B14068142209F0FED810BDC04638
:1039800010B519B14068302209F0F6D810BDC04614
:1039900070B51E4603680446154608461422596849
:1039A00011F000DF30B10571D4F8EC37C660036068
:1039B000C4F8EC0770BDC0462DE9F0411F4603680E
:1039C00004460D46164640685968302211F0EADE7A
:1039D00040B1069B0460436201238561C6610762B2
:1039E00080F82C30BDE8F081036870B5D022044621
:1039F0000846596811F0D6DE054608B9064616E0B5
:103A0000236806461A6EDB698032DB6A043002EBFB
:103A10004302102105F080DDD4F870321BB9C4F8E0
:103A2000705204E013461A68002AFBD11D6030462C
:103A300070BDC0462DE9F041D0F8EC4705468846F8
:103A400017461E460DE0E368434509D1A37913F0FC
:103A5000020F05D0A868A1683A4633460FF050D847
:103A60002468002CEFD1BDE8F081C04670B5D0F8D5
:103A7000704205460DE0D4F8CC304BB14FF0FF3327
:103A8000284621460022FFF7D5FF0023C4F8CC309A
:103A90002468002CEFD170BD70B59E46D1F8CC30B3
:103AA00006460C4623F0FF0542B14EEA0303C1F877
:103AB000CC30E5B901224FF0FF3307E023EA0E03D3
:103AC0007545C1F8CC3012D11BB9013BFFF7B2FFED
:103AD0000DE007250123AB40D4F8CC201A4004D1D7
:103AE000304621462B46FFF7A5FF013DF2D270BDBF
:103AF000B3F1FF3F10B59C46144602D14FF0FF0EC4
:103B000002E0012303FA0CFED1F8CC300EEA0302E6
:103B100024B1724510D04EEA030302E062B123EAF9
:103B20000E03C1F8CC30D1F8CC3033F0FF0203D112
:103B300022466346FFF77EFF10BDC04670B50E46B5
:103B4000D0F864120546BC312BF006D82C68636BA4
:103B50008BB1E36D13F0080F0DD194F8B13013F071
:103B6000020F1ED020B142681E4B02EA030313B1BC
:103B700095F86A32ABB128463146FFF7C7FC0028FA
:103B80002FD0E3690222DB6A718993FBF2F3994239
:103B900027DA2846314600224FF0FF33FFF7A8FF0F
:103BA0001FE094F84D30E3B1072428463146224601
:103BB000FFF79AFC98B10C4BE25C0C2302FB036309
:103BC000998A2B680222DB69DB6A93FBF2F3994244
:103BD00005DA2846314600222346FFF789FF013CDB
:103BE000E3D270BD40000100B6E7830010B50C467B
:103BF00001689E464B6B8BB1CB6D13F0080F0DD156
:103C000091F8B13013F0020F12D022B15268124B6A
:103C100002EA030313B190F86A324BB1CA696389AF
:103C2000D26A934217DB214601224FF0FF3310E0A6
:103C300091F84D307BB1094B13F80E200C2302FB99
:103C400003439A8ACB69DB6A9A4204DB214601224C
:103C50007346FFF74DFF10BD40000100B6E783003B
:103C600010B500691DF0C4DC10BDC04613B50023BB
:103C7000044601AAC8B20DF107018DF80730ADF86E
:103C80000430FFF71FFC10B940F6AD300BE0022204
:103C900020699DF807101EF015D9BDF804301842B0
:103CA0000CBF002001201CBDF0B585B000260746E2
:103CB0000C461546C8B203AA0DF10F018DF80F602E
:103CC000ADF80C60FFF7FEFB10B96FF0010017E0D4
:103CD0009DF80F30BDF80C104DB115FA04F20091AB
:103CE0003869012192B21DF0BDDA304608E00122A8
:103CF000A24000913869294692B21DF0B3DA2846F5
:103D000005B0F0BD10B500691DF092DC10BDC046D5
:103D100010B500691DF094DC10BDC04610B50069F7
:103D20001DF00CDB10BDC04610B500691DF00EDBA8
:103D300010BDC04610B5044608F0C2DBD4F85037B9
:103D4000C01A42F21073984204D90023C4F84C37C9
:103D5000C4F8503710BDC04610B5044608F0B0DBBB
:103D6000D4F84C37C4F850070133C4F84C3710BDB1
:103D700010B50446D0F84C068E46C37A90F80AC0B7
:103D800093B182894FF6FF739A420DD0837B43B97A
:103D90008378012B05D0037B03F0010383F001013D
:103DA00000E00021C9B20BE0216B71450ED1837B8D
:103DB0002BB98378012B02D091F84C1000E0002140
:103DC0008C4503D0817220691DF036DA002010BDC9
:103DD000B2F1FF3F10B58E4601D1016B08E0002A19
:103DE00016DB03685B6A9A4212DC00EB8203996B74
:103DF000BEF1010F05D1D0F84C369B78012B07D0CE
:103E000000E005D881F84CE0FFF7B2FF012000E0A8
:103E1000002010BD10B5006917F0D4FA10BDC046DF
:103E200010B5D0F85C0101F0010132F03FFD10BD8A
:103E300010B500691EF0FED810BDC04670B503680D
:103E4000054693F82F4044B901210422FFF7F0FF03
:103E5000284621460422FFF7EBFF70BD10B500692C
:103E60001EF0FEDC10BDC04637B5044600691DF0EB
:103E7000C9D90025294601AA2046FFF7EFFF2946A8
:103E80002046BDF804200135FFF7A0FA062DF1D138
:103E90003EBDC046036B10B5A3F8001100691EF0CB
:103EA00087DA10BD036B10B5A3F8FE1000691EF091
:103EB00091DA10BD10B586469AB1086800220CE070
:103EC0008B181B7903F07F03022B05D0042B03D042
:103ED0000B2B01D0162B04D101328242F0D11F21CD
:103EE00000E00F217046FFF7DDFF10BD10B500693F
:103EF0001EF02ED910BDC04637B50C466A4601A942
:103F00000546FFF7F3FF019911F5FA6F09D9EB6840
:103F1000D3F880218A4238BFD3F88431019238BF68
:103F20000093002CB4BF4FF0FF32002223466846B6
:103F300001A9FEF7F3FF019AEB68C3F88021009A0C
:103F4000C3F884213EBDC046F0B5CB6885B00C46B1
:103F50000BB90B69F3B102A903AAFFF7C7FFE56824
:103F6000039F2469029E284621463A463346FFF7BE
:103F700069F878B9334601A869463A460195009434
:103F8000FEF7DAFF019B2BB9009A03F57A73B2FBB7
:103F9000F3F000E0002005B0F0BDC04610B50069A8
:103FA0001DF0A6DF10BDC04610B500691EF036DA60
:103FB00010BDC04625292DE9F041074615461E468D
:103FC00012DD4B00A3F12A04D0F84C0121461FF06A
:103FD0000FFB20EA050333439AB2824204D0D7F89C
:103FE0004C0121461FF0FCFABDE8F08110B50069D4
:103FF0001EF04AD910BDC04610B500691EF0DADBCC
:1040000010BDC04610B500691EF000DC10BDC046F2
:1040100013B5049C009400691DF00EDF1CBDC04662
:1040200007B59E4612B90EF11C0E01E092F948E068
:104030001B4A00F5026C0EEA020289B10823002A2D
:104040009EFBF3F1134605DA531E6FEA43736FEAE2
:104050005373013301229A401CF80130134310E0DE
:1040600008239EFBF3F1131E05DA013B6FEA43734D
:104070006FEA5373013301229A401CF8013023EA9E
:1040800002030CF80130049AD0F820380092102274
:104090000121002B14BF13460023FFF7B9FF0EBD0B
:1040A0000700008007B503468E4641B10323012176
:1040B0004FF4804280F86C170093134607E083F8B2
:1040C0006C170323009301214FF480427346FFF7DE
:1040D0009FFF0EBD10B500691DF09ADC10BDC046F3
:1040E00010B500691EF016DA10BDC04610B50069A3
:1040F0001DF098DB10BDC04610B500691DF08ADECA
:1041000010BDC04610B59E4612B90EF11C0E01E05E
:1041100092F948E01D4A00F5046C0CF1180C0EEA07
:10412000020289B10823002A9EFBF3F1134605DA47
:10413000531E6FEA43736FEA5373013301229A40AF
:104140001CF80130134310E008239EFBF3F1131E0B
:1041500005DA013B6FEA43736FEA537301330122BF
:104160009A401CF8013023EA02030CF8013090F861
:104170006A324BB1D0F858284FF48021002A0CBF86
:104180000A460022FFF7B8FF10BDC04607000080B6
:104190002DE9F04FD0F800B01F46DBF8643287B04D
:1041A00098428146DBF80CA042D19BF86A82B8F1B4
:1041B000000F3DD13B784FF0805100937B780A4649
:1041C0000193FB78BC7802933B79584603937B7943
:1041D0000493FB79BD7905937B7A3E7A56EA0326F0
:1041E00008BF4FF48066FFF787FF019B240444EA71
:1041F0000324009B2D041C43029B360444EA036401
:10420000049BCAF8804145EA0325039B48461D43A9
:10421000059B394645EA0365CAF88451CAF88861A6
:10422000FEF7ECFE58464FF080514246FFF764FF20
:1042300007B0BDE8F08FC04610B5837902682BB98E
:1042400092F86A3213B94FF0804C01E04FF4802CA1
:10425000837C43B992F86A322BB992F8683223B161
:1042600092F86C320BB94CF4003CD0F8CC3013F01F
:10427000400F04D090F83B300BB1014618E04FF0EE
:10428000000E02EB0E03D3F8441261B1814209D053
:10429000CB793BB1D1F8CC3013F0400F02D091F87C
:1042A0003B3033B900210EF1040EBEF1200FE8D1EE
:1042B00009B14CF0006C104602496246FFF71CFF42
:1042C00010BDC0460000064810B5026892F82C30B8
:1042D00043B192F82F302BB990F8D53113B94FF084
:1042E000807200E0002290F8C0310BB142F0A07261
:1042F0004FF0A071FFF700FF10BDC04610B5026877
:10430000014692F82F303BB192F8453013F0030F7D
:1043100007D1036B5B7D23B9D1F8C03133F0FF02C5
:1043200004D008464FF480110A4601E04FF4801192
:10433000FFF7E2FE10BDC04610B504680123204619
:1043400084F8C131FFF7DAFF20464FF40031002234
:10435000FFF7D2FE10BDC04610B50468002320460A
:1043600084F8C131FFF7CAFF4FF4003120460A46F6
:10437000FFF7C2FE10BDC046002B13B5044605DD95
:104380004FF48030009020691DF0DED91CBDC0467E
:10439000002B10B502DD00691EF068D810BDC046C4
:1043A00010B500691EF028DA10BDC04610B5002215
:1043B000044640F2D461FFF7F3FF204640F2D66195
:1043C0000022FFF7EDFF002010BDC04637B50446C0
:1043D00000200246A318D3F89C340432002B18BFE7
:1043E0000120102AF6D1D4F8283703B948B10029A2
:1043F0004FF000030CBF0D466FF01905A4F84837C5
:1044000002E0A4F84817054623681B7EBBB120468E
:10441000FFF766FE20467C21B4F84827FFF7C0FF6F
:10442000B4F84837202203212046002B14BF13463E
:1044300000230091FFF7ECFD2046FFF74BFE2846D6
:104440003EBDC04670B50C46002A0CBFA421B42165
:10445000642C06461546184602D96FF01C0014E07D
:104460000CB9224604E0C4F164031B0193FBF4F28F
:1044700018B1304692B2FFF793FF1DB10020A6F8A5
:10448000644702E0A6F86647284670BDB0F8403899
:1044900070B58C46154633B32AB100F50461B0F807
:1044A0004EE8023104E000F50461B0F850E808314C
:1044B0000B789C4502DA5FFA8EF10BE08B788C1C4E
:1044C0009C4501DA497805E00B790A1D9C45B4BF8B
:1044D000617851780368714588BF5FFA8EF12A468A
:1044E0001B7EFFF7AFFF002070BDC04670B5D0F84F
:1044F000D8420568A38BA384FEF732F90223236216
:104500002846B6210122FFF74BFF70BD10B50368A6
:104510001B7E1BB180210822FFF742FF10BDC04661
:1045200070B590F82930044663B14FF440756319B3
:104530002946204633F8E82C0235FFF731FFB5F560
:10454000427FF4D170BDC04610B50468FDF7D2FBC0
:10455000E3680246A3F8120696212046FFF720FFE3
:1045600010BDC04610B500691DF0E8DD10BDC046A5
:104570002DE9F04140F2D6610646FFF7F3FF40F225
:10458000D46104463046FFF7EDFF40F2D66107469E
:104590003046FFF7E7FFA04205460BD040F2D66158
:1045A0003046FFF7DFFF40F2D46105463046FFF7A3
:1045B000D9FF0746C7F38F20401900EB8510BDE8EF
:1045C000F081C046036870B51B6F054623BB90F8A9
:1045D000993113B1FFF700F9F0B928469221FFF79E
:1045E000C1FF400086B2BEB106F192012846D5F85F
:1045F000E447FFF7B7FF06F19401A0702846D5F80D
:10460000E447FFF7AFFF06F19601E0702846D5F8C2
:10461000E447FFF7A7FF207170BDC04670B5922137
:104620000546FFF79FFF400084B27CB1284604F1A5
:104630000801FFF797FF064640B1284604F19001B4
:10464000FFF790FF042801D9304600E00020D5F89C
:10465000E437188070BDC0460B6810B5762B0C4649
:104660000BD89221FFF77EFF400080B228B123686B
:1046700000EB43030120236000E0002010BDC04692
:1046800013B502AB43F8041D19460446FFF7E4FFD7
:1046900010B940F6AD3004E02046BDF80410FFF735
:1046A00061FF1CBD37B502AB43F8041D1946054632
:1046B0001446FFF7D1FF10B96FF0010006E028465D
:1046C000BDF80410A2B2FFF76BFE00203EBDC0464D
:1046D000154B2DE9F041804602F07F001B5601F09A
:1046E0007F00002B104BACBF4FF400764FF4E07608
:1046F0001B564046002B0C4BACBF4FF408754FF4D3
:10470000F0755C5C995C04F00F0401F00F0106EB9E
:104710004101FFF727FF05EB440102464046FFF742
:104720003FFEBDE8F081C04654E183002DE9F0472B
:104730000C4692210646FFF715FF400085B255B39F
:10474000304605F10801FFF70DFF814618B3D4F894
:1047500080A105F1180421463046FFF703FF05F15B
:104760001A0180463046FFF7FDFE214607463046D7
:10477000FFF7F8FE8045ECD148EA0743C3EB0A0295
:10478000B2FBF9F2013209FB0232304605F11C019D
:1047900092B2FFF705FEBDE8F087C04670B505464A
:1047A000FDF798FA542104462846FFF7DBFE20F473
:1047B000707222432846542192B2FFF7F1FD70BD7A
:1047C0002DE9F041144652781E1DDA7000237371F2
:1047D0008B6D804613F0040F0F4606D0A378012B93
:1047E00001D1E3780BB104233EE0BB6D03F0060278
:1047F000022A06D1A378012B01D1E3780BB17271A3
:1048000033E0B7F86250082D2FD120460921FDF77B
:104810000DFA08B109231AE020462946FDF706FAE9
:1048200008B1757114E020460A21FDF7FFF908B1BF
:104830000A230CE020460521FDF7F8F908B105230D
:1048400005E020460121FDF7F1F908B1012373715C
:104850007379083BDBB2022B07D8B01C1649032240
:1048600003F0FADE7379083B7371B7F86230B41D58
:1048700013F0020F08D113F0040F02D0022363716A
:1048800012E013F0400F01D00123F8E713F0800588
:10489000F4D1082B01D0102B06D106F108000649EF
:1048A000032203F0D9DE657140463946A21D02237A
:1048B000FDF7EAFABDE8F081D88A03001FB502933C
:1048C000069B08690393079B103801938B8A0C465B
:1048D00010338B82009208611022694603F0BCDE1F
:1048E000636A43F0040363621FBDC04670B553782A
:1048F00005469C1C8C4204DC1146224603F0ACDECB
:104900002D19284670BDC04670B51C4602338B4237
:1049100005460ADC002C0270447004DD0230049964
:10492000224603F099DEAB1C1D19284670BDC04617
:104930002DE9F74F032A01900F4614469846DDF8FB
:1049400034B001F104097ADD442301260B70002301
:10495000B2428E70CB7072DD951E18F4806303D165
:104960004FF0040A1E460BE0032D68DD881D03226C
:10497000344903F071DEA51F89F805604FF0080A7D
:1049800018F4006F0FD0032D59DD09EB8604A01C2D
:104990002C49032203F060DE02236371731C9EB274
:1049A0000AF1040A043D330A012D89F8006089F8F0
:1049B000013044DD0C9A09EB86039C1CAE1E12F4F8
:1049C00080730AF102080BD0032E38DDA01C1D49AC
:1049D000032203F041DE012363710AF10608AE1FD2
:1049E000184623701B0A032E637028DD04EB800435
:1049F0000322A01C134903F02FDE01985946FDF74E
:104A00004BFF331F0B2814BF00200120012B6071C6
:104A100015DD0023A371E3719BF806304BB1BBF8A1
:104A2000623013F4806F04D09BF86610012908BF30
:104A3000A17108F106027A700AB1BB1C9F183846B2
:104A4000BDE8FE8FE08A03002DE9F74F8946114645
:104A50000D9A9B46B2F86230019013F4747FDDF832
:104A6000308000F0AB8040F2371308EA0303002BDC
:104A700000F0A4800A228A4209F1040400F39E8017
:104A80003023002589F800300123BBF5007FC2EBFD
:104A9000010789F8023089F8035006D120464949B8
:104AA000032203F0D9DDE57009E0474903222046DF
:104AB00003F0D2DD01980D99FDF7EEFEE070261DA2
:104AC00018F0040303D14FF0080A1D460CE0032F31
:104AD00074DDA01D3C49032203F0BEDD0423737185
:104AE000043F4FF00C0A012518F0020F0FD0032FDE
:104AF00064DD06EB8504A01C3349032203F0ACDD22
:104B0000022363716B1C9DB20AF1040A043F2B0A55
:104B1000012F3570737051DD06EB85039E1CBD1EA1
:104B20001BF040030AF102080BD0032D46DDB01C38
:104B30002549032203F090DD012373710AF1060871
:104B4000BD1F1BF0800F1F460FD0032D36DD06EB77
:104B50008304A01C1C49032203F07EDD0223637141
:104B60007B1C9FB208F10408043D1BF4007F0FD0AA
:104B7000032D23DD06EB8704A01C1249032203F05A
:104B80006BDD022363717B1C9FB208F10408043DB6
:104B90003B0A012D3770737010DD06EB870202327D
:104BA00001980D990223FDF76FF908F1020289F8C7
:104BB00001201AB109F1020303EB02094846BDE8DE
:104BC000FE8FC046E48A0300E88A03002DE9FF4116
:104BD000DDF828800024054616461846224603E0E4
:104BE000135C0132E3189CB24245F9D101AF0622B1
:104BF000384603F031DDD5F82C15632901D90020A2
:104C000013E05FFA88F3D5F82405ADF80C300C22D8
:104C10004B1C01FB0200C5F82C353946ADF80A40A3
:104C2000ADF80E6003F018DD012004B0BDE8F0819E
:104C30002DE9F041069E8C8A086990460D462018A1
:104C40001946324603F008DDD8F8003034199B1BB2
:104C5000AC82C8F80030BDE8F081C046938A70B5D8
:104C6000072B16463BD91569AB7B05F10E02AA2B23
:104C700022D15378AA2B1FD19378032B1CD1D37840
:104C8000D3B91379C3B9537953B99379D17941EA37
:104C90000321FDF7DBFAD0F1010038BF00200CE062
:104CA000F82B09D19379D17941EA0321FDF7CEFAA6
:104CB000003818BF012000E0002080B1B38A05F160
:104CC0000804083BA91D06223461B38205F10E00D9
:104CD00003F0C2DC20462946062203F0BDDC70BD8D
:104CE00010B508461822024903F0B6DC10BDC046D4
:104CF000C8A303002DE9F041074696B09846164632
:104D000012B96FF001003DE10B791BB1D1F8C83247
:104D10005B8E01E0B0F8123603F47043B3F5805FA8
:104D200014BF002201223846314629F01FDF054614
:104D300010B96FF0140025E101AC00215422204687
:104D400003F0D8DC4FF003030622ADF804303146FF
:104D50004FF0540304F11000ADF8063003F07CDC92
:104D6000282205F1340104F1180003F075DC3B68DA
:104D70002A6A9B6A00219B1A049303910C916B6829
:104D800013F4807F01D0012303936B6813F0400F6D
:104D900003D0039B43F0020303932B7E13F0010F18
:104DA00003D0039B43F0080303932B7E13F0020F01
:104DB00008D0039B43F0100303933B686A6A9B6A25
:104DC0009B1A0C932B7E13F0100F03D0039B43F020
:104DD0002003039395F8C03013F0010F03D0039B19
:104DE00043F40073039395F8C03013F0020F03D01F
:104DF000039B43F48063039395F8C03013F0040FD2
:104E000003D0039B43F40063039395F8C03013F081
:104E1000080F03D0039B43F480530393D5F8E0308D
:104E20000D9153B1039A42F0400303936B6813F45E
:104E3000007F1CBF42F0C00303932B699B7993B1A1
:104E400095F8CF301BB1039B43F480730393B5F8FF
:104E5000F030ADF80830D7F83835DA8DB5F8F230E3
:104E600003FB02F30D936B6813F4803F03D0039BA5
:104E700043F4005303931C9B532B01DC34227CE04E
:104E8000039B43F480430393D5F840310E93D5F848
:104E900044310F93D5F848311093D5F84C31119324
:104EA000D5F8502112F0006F26D012F4000F02F452
:104EB000E06310D01B0A043B012B344902F07F024F
:104EC00004D8142302FB0313DA681BE0142302FB4B
:104ED00003139A6816E01B0A043B012B2B4902F0CE
:104EE0007F0204D8142302FB03135A680AE0142338
:104EF00002FB03F35A5805E002F07F024FF4FA7305
:104F000002FB03F21292D5F8542112F0006F26D062
:104F100012F4000F02F4E06310D01B0A043B012BD3
:104F20001A4902F07F0204D8142302FB0313DA6843
:104F30001BE0142302FB03139A6816E01B0A043BD0
:104F4000012B124902F07F0204D8142302FB031341
:104F50005A680AE0142302FB03F35A5805E002F0F2
:104F60007F024FF4FA7302FB03F21392D5F8583123
:104F700054221493D5F85C311593404601A903F0EF
:104F80006BDB002016B0BDE8F081C04670DE830008
:104F900073B50446154608464FF412720E460021BA
:104FA00003F0A8DB2046294629F0D6DD044610B3DD
:104FB000AB7913F0100F0DD040230093EB7904F57B
:104FC000B26201933046D4F898150C3204F566733A
:104FD000FDF774FEAB7913F0040F0CD0202300937F
:104FE000EB7930460193D4F8941104F5CC7204F5B2
:104FF0002673FDF763FE7CBD0021C0F8041310B5D5
:105000004FF4007200F5427003F074DB10BDC0462F
:1050100070B5054600242B19D3F8440208B1FFF7F8
:10502000EBFF0434202CF6D170BDC04670B588B0BB
:105030000D46064600212022684603F05BDB05F1A1
:105040001A016A7E684603F007DB30466A464FF471
:10505000B0712023FFF790F9304648216A7E6C46F4
:10506000FFF79EF908B070BD10B50C4660B159B19C
:1050700001F5B6702822002103F03CDB034BC4F895
:105080007431012384F8913110BDC046F1D8FFFF7F
:1050900010B50C46FFF7E8FF0120C4F86C0110BD05
:1050A0002DE9F04710461F4691F801800C46154641
:1050B00000210422DDF8209003F01CDB00211C22DB
:1050C000384603F017DBB8F1050F02D84FF0FF3078
:1050D00034E0A378E61C2B70E37834466B70737869
:1050E000AB700023EB70A8F103035FFA83F81DE0B7
:1050F000A078E57894F804C00E288CBF4FF0040E19
:105100004FF0010E0EE000F0070301229A40C108A3
:105110007B5C13437B5400EB0E0309F800C0D8B24C
:105120006B1EDDB20DB1DF28EDD903340323B8FBCC
:10513000F3F202FB03639C42DAD10020BDE8F08762
:1051400010B50021142203F0D5DA10BD10F0006F65
:1051500070B50E46154626D010F4000F00F4E0633B
:1051600010D01B0A043B012B1E4A00F07F0004D81C
:10517000142300FB0323D86817E0142300FB032348
:10518000986812E01B0A043B012B164A00F07F00CE
:1051900004D8142300FB0323586806E0142300FB03
:1051A00003F3985801E000F07F000F4B06221C5CCF
:1051B0000021284603F09EDA2B7804F00F0423F038
:1051C0000F0332051C43120DAB78520143EA124320
:1051D000AB706B7843EA12236B70E3B213432B700E
:1051E00070BDC04670DE830054E18300D0F83027E4
:1051F00010B50C46116811B153688B4207D8204690
:105200000021702203F076DA4FF0FF3051E0906811
:105210007021431E03F0010300FB012003FB012169
:1052200003690A699B1A63604A6943699B1AA36010
:105230008A6983699B1AE360CA69C3699B1A2361FF
:105240000A6A036A9B1A63614A6A436A9B1AA361EA
:105250008A6A836A9B1AE361CA6AC36A9B1A2362D9
:105260000A6B036B9B1A63624A6B436B9B1AA362C4
:105270008A6B836B9B1AE362C36BCA6B9B1A2363B3
:105280000A6C036C9B1A63634A6C436C9B1AA3639E
:105290008A6C836C9B1AE363CA6CC36C9B1A23648D
:1052A0000A6D036D9B1A63644A6D436D00209B1A5F
:1052B000A3644FF0010323804FF07003638010BD9F
:1052C0004FF0FF33A0F8343210B5044600F50C70EF
:1052D000063000210C2203F00DDA23685B6B23B942
:1052E0004FF0FF33A4F838320DE04FF00F03A4F86D
:1052F00036324FF0F003A4F838324FF47063A4F85C
:105300003A324FF20003A4F83C3210BD2DE9F04FC1
:1053100089B00393D2F8E03004909DF84C00B3F1CB
:10532000000918BF4FF001099046DDF848B002901F
:105330001769B9F1000F02D1CDF8149002E002F123
:105340001A020592D8F80420924B01F1240A02EACD
:1053500003030E69B9F1000F0CBF0A24102403B136
:105360000234BBF1000F03D09BF90E30E3189CB25E
:105370008B8AC4EB0605E3188B820D612246284612
:10538000002103F0B7D9149B04F10E021A80B9F181
:10539000000F3BD005990622281D03F05DD905F1C9
:1053A0000A0007F1C201062203F056D9BBF1000F33
:1053B00005D1D8F80420774B02EA03035BB106ACB1
:1053C00031460622204603F047D905F11000214658
:1053D000062203F041D906ACB11D0622204603F097
:1053E0003BD9062205F11800214603F035D9DAF839
:1053F000003013F0400F06D005F1100007F1BC019A
:10540000062203F029D94FF440765AE0BB791BB34A
:1054100031460622281D03F01FD905F10A0007F1C5
:10542000BC01062203F018D9BBF1000F05D1D8F852
:105430000420584B02EA03035BB106ACB11D0622FF
:10544000204603F009D905F110002146062203F099
:1054500003D94FF4007634E0BB7CFBB1D7F8CC30F5
:1054600013F0800F1AD107F1BC01062206AC281DEB
:1054700003F0F2D831460622204603F0EDD8B11DE4
:10548000062205F10A0003F0E7D805F110002146D5
:10549000062203F0E1D84FF4807612E0314606226E
:1054A000281D03F0D9D8B11D062205F10A0003F02A
:1054B000D3D805F1100007F1BC01062203F0CCD8C7
:1054C0000026D8F80420334B02EA0303ABB3DAF822
:1054D0000010029B11F4806F03F0070202D0ADF8B8
:1054E0001E2012E0049890F8F031012B06D141F40F
:1054F0008023CAF8003042F0200304E05B0103F08F
:10550000600342EA0303ADF81E30DAF8003013F00E
:10551000400F05D0BDF81E3043F08003ADF81E30BB
:10552000B9F1000F0CBF18201E2028180DF11E0124
:10553000022203F091D846F08006BBF1000F15D08F
:1055400005F11804B9F1000F01D005F11E04D8F8D7
:105550000420104B02EA030303B102340123009339
:10556000049839465A46234626F01ADA039A46F03A
:10557000080312B143F480639BB2BBF1000F01D06A
:1055800043F480432B7028461B0A6B7009B0BDE8BA
:10559000F08FC04640000100F7B51D46D0F87837BF
:1055A000D45895F90E20236804F11807FB18C2EBB4
:1055B0000306012300932A46334626F0F1D92B7ABD
:1055C000022B12D13A4600216B18B3F8BC30937508
:1055D000C3F30723D3758B1C02320A2B1946F3D170
:1055E00007F120003146032209E00B2B04F12E00C5
:1055F00002D1B11C102202E095F90E20314603F0D1
:105600002BD8FEBD036B70B5B0F81246054618697D
:105610001FF036F984421DD100242B19D3F844021F
:1056200048B183793BB9C3792BB1837C1BB903792A
:105630000BB1FEF781FE0434202CEED12B6893F8D9
:105640003E30CBB12B6B28461C21B3F80221FEF76C
:10565000A7FE11E000242B19D3F8440248B1837946
:105660003BB9C3792BB1837C1BB903790BB1FEF72E
:1056700073FE0434202CEED12846FEF73FFE284668
:10568000FEF722FE70BDC04670B5002506462C46CA
:105690003319D3F8440258B183794BB9C3793BB17C
:1056A000837C1BB1BC3003F0C9DC08B96B1CDDB2D4
:1056B0000434202CECD1284670BDC04610B5C37907
:1056C0000BB918460AE0837C0BB9012006E0BC3018
:1056D00003F0B4DCD0F1010038BF002010BDC0469B
:1056E0002DE9F0470026D0F8D88681463546374662
:1056F00025E0D8F82830FC186178FB5611F001023B
:1057000008BF1546012B02D141F0040314E0D9F87B
:105710005801218924F0D4DF18B9637843F00403D9
:105720000AE063692BB105B9258923892BB1AB4206
:1057300003D0637843F00803637001361837D8F854
:1057400024309E42D5DBBDE8F087C04670B50C46DC
:1057500009B90D4610E000252A46135D03B1013555
:1057600001320E2AF9D105B1033524F07DDC012880
:1057700002D1A37B03B10435284670BD2DE9F04169
:1057800007460D4616469846002B36D0002A34D0E0
:1057900024F06ADC012816D198F80E309BB1492319
:1057A0002B7002236B70D7F8580142F60E3124F0AB
:1057B000C1DA6A780E23EB70C2EB0603023BDEB25D
:1057C000AB1CA8709D1849232B70B31E6B70D7F8C3
:1057D000580142F6013124F0ADDA2C466378A87006
:1057E0000335012B09D9002212F80830D1B20BB1D0
:1057F00005F8011B01320F2AF6D12846BDE8F081D9
:1058000070B5D0F8C8620C4616220568084600211B
:1058100002F070DF708E04F083D86378207003F09C
:10582000FC026270738E03F44073B3F5007F08D0FE
:10583000B3F5407F03D0B3F5807F05D007E06270F9
:1058400005E042F0030301E042F001036370637876
:1058500003F0FB026270738E03F44063B3F5406F94
:1058600004BF42F0040363700022A270E270D5F816
:10587000443693F90530022B01D1A37005E0032BC8
:1058800001D0012B01D1A370E270D5F84436DB7949
:1058900043B1A378E27843EA022343F00403A37000
:1058A0001B0AE370D5F844369B7A43B1A378E278BB
:1058B00043EA022343F01003A3701B0AE3706378EA
:1058C00023F0080363700023C5F8D031D5F8CC313C
:1058D00063B1D5F8443693F90530032B06D06378CD
:1058E00043F0080363700123C5F8D0314FF0000383
:1058F000A5F8BE3495F9BC34012B02D095F83F369B
:10590000ABB1E278A37840F6084143EA022343F0C2
:105910000803A3701B0AE370728E41F6100302F4B1
:105920007042B2F5805F08BF0B46A5F8BE3405F59E
:105930009C61A01D0331102202F08EDE70BDC046B6
:1059400070B5037805460B7003790C464B704088A0
:1059500003F0E6DFA0706B78201DE37070BDC046D9
:105960003C2310B50B7004234B700231FFF7E8FFA6
:1059700010BDC0462DE9F0477F2BA0B091460C46E4
:105980001A469DF8A00040F3C480496EA1B1B4F856
:105990006830A3F10C06002E0EDDF31C23F0030388
:1059A00003F18005AA4204DB01F10C084FF0800AE4
:1059B00006E0002840F0AD8000268025B246B046C3
:1059C00000218022684602F095DE6D230093E38D6E
:1059D0000622ADF80E30B4F862302146ADF8103032
:1059E000638E02A8ADF84830238E0195ADF84A3099
:1059F00094F860306F468DF84C30638DADF84E30C2
:105A0000A38DADF87C3094F861308DF8503002F001
:105A100023DE227A0DF1130004F109018DF8122022
:105A200002F01ADEE38813F4807F05D09DF8603021
:105A300043F001038DF86030E38813F4005F05D074
:105A40009DF8603043F002038DF86030E38813F076
:105A5000020F05D09DF8603043F004038DF86030EC
:105A6000A26B07F13800102A28BF102204F13C0174
:105A70000D9202F0F1DDBDF810304FF6FC7203EA32
:105A8000020294F93430ADF8102013B142F0010352
:105A900001E042F00203E288ADF8103012F0200F6E
:105AA00024D0012312F0400F8DF8513003D0159B04
:105AB00043F002031593E38813F4806F03D0159B22
:105AC00043F020031593E38813F4006F03D0159B74
:105AD00043F04003159304F14D01102219A802F080
