:1000000000000000ED0500000905000009050000E2
:1000100009050000090500000905000009050000A8
:100020000905000009050000090500000905000098
:100030000905000009050000090500000905000088
:100040000505000005050000050500000505000088
:100050000505000005050000050500000505000078
:100060000505000005050000050500000505000068
:100070000505000005050000050500000505000058
:1000800000480047ED0500000000000000000000EF
:100090000000000000000000000000000000000060
:1000A0000000000000000000000000000000000050
:1000B0000000000000000000000000000000000040
:1000C0000000000000000000000000000000000030
:1000D0000000000000000000000000000000000020
:1000E0000000000000000000000000000000000010
:1000F000000000000000000044425050D4380400CA
:10010000DD3E0000153F0000B940000091400000B6
:100110001D410000A90F0000353F0000F53F000021
:10012000693F00009D3F0000D13F0000E13F00001B
:10013000A90F0000A90F0000591400005915000074
:100140006D16000089170000AD1800007D12000038
:10015000351300009913000029140000951C0000BD
:10016000D51900009D050000A90F00005F300200B6
:100170000B290200D11E020075280200812802000E
:10018000474102005F28020031270200B944020003
:10019000C921020069310200B93102006531020053
:1001A000AD310200211F0200A90F0000113702002B
:1001B000FD2E0200D33602000D230200AD22020004
:1001C00005220200FD210200F7210200754B02000A
:1001D000A90F000093210200D31E02009F340200E9
:1001E000EF1F0200A90F0000A90F00003533020025
:1001F000332102000D1F0200171F020041350200CB
:10020000031F0200A9280200A1330200152F0200DB
:10021000FF440200532102003D3302005D21020031
:10022000152B0200FF2D0200452D02002B27020096
:10023000A90F0000EF1E0200FD1E0200F71E0200C3
:10024000A90F00000F350200252E0200A90F0000A3
:10025000E536020003220200A90F0000A5320200C9
:1002600085320200952102003F330200ED3F02007B
:1002700099230200C3270200CD260200A326020014
:1002800033270200A90F00000127020029260200DF
:10029000C7230200F5260200653D0200410B000065
:1002A000A90F0000A90F0000E52100002947000068
:1002B000F97404007D8E040091470000AD490000F0
:1002C000A90F0000C5970400994A0000D9680000F2
:1002D000E1680000FD690000416A0000656A0000F5
:1002E000296E0000836E0000E57C00004580000060
:1002F0003D130100A12A0100A93201008D15010062
:10030000F91E0100B1D100008D4401005D510100D2
:10031000B15E0100A90F0000A90F0000656A01008D
:100320008D6A0100B16A0100A90F0000A90F000049
:10033000F19301008596010029A6010085BA01000C
:1003400085C0010095C0010035C30100BDF1010069
:10035000DD8C0300016563686F0000000000000889
:10036000200000000002000004000000FF03000065
:10037000500000000100000001000000010000002A
:100380000100000001000000007D00000A070801D4
:100390006E190000010000000800000077770000DF
:1003A0000104000000000000000000000000000048
:1003B000000000000000000000000000000000003D
:1003C000000000000000000000000000000000002D
:1003D000000000000000000000000000000000001D
:1003E000000000000000000000000000000000000D
:1003F00000000000000000000000000000000000FD
:1004000000000000000000000000000000000000EC
:1004100000000000000000000000000000000000DC
:1004200000000000000000000000000000000000CC
:1004300000000000000000000000000000000000BC
:1004400000000000000000000000000000000000AC
:10045000000000000000000000000000000000009C
:10046000000000000000000000000000000000008C
:10047000000000000000000000000000000000007C
:10048000000000000000000000000000000000006C
:10049000000000000000000000000000000000005C
:1004A000000000000000000000000000000000004C
:1004B000000000000000000000000000000000003C
:1004C000000000000000000000000000000000002C
:1004D000000000000000000000000000000000001C
:1004E000000000000000000000000000000000000C
:1004F00000000000000000000000000000000000FC
:100500000000000072B67047002312490B60EFF341
:1005100009808369416920300BB5203803695A4648
:1005200051460EB44A46414606B4C36882684168E3
:10053000FEB40368C269EFF303810EB48269EFF37E
:10054000058106B4044801680029FED06846884742
:1005500014B000BDFCED00E0C405000062B67047B9
:1005600072B6704704490840002803D003490A685E
:1005700002430A6070470000FFFF000000E100E056
:1005800004490840002804D003490A68C0430240D7
:100590000A607047FFFF000080E100E0024909683F
:1005A0009022885870470000CC0500000249096875
:1005B0009C22885070470000CC050000DDBAADBB1E
:1005C000000000000000000000000000000000002B
:1005D000000000000000000000000000024A116856
:1005E0001060081C70470000C405000072B6644823
:1005F000644900220A500168634A0A40634B9A42E8
:1006000018D1634CC26A224214D0624A13681B425A
:1006100010D1614B7C46614A23409A420AD160491D
:100620000B68604C2340082423435A4A5068104307
:100630000B6000475C4F0F403F4206D150460042DE
:1006400002D04046004229D1FEE7FC2141580A6809
:100650000F2313400F2BF1D0012B01D00431F6E70B
:100660000831524B1340524CA34206D100F0CEF851
:10067000804600F0D7F88146E9E74E4CA342E6D128
:100680000B1F1B68444C23401824E3409C4600F099
:10069000BDF8824600F0C6F88346D8E746494022B6
:1006A0004250374A45498958FF2319421CD05168A6
:1006B000434B194218D01168334B1940D36A02E0FA
:1006C00012E0A34210D0C0463E4B00E00CE03E4991
:1006D0008958194208D03D49895819409942FAD1A0
:1006E0003B4B11691942FCD049463F4204D1982343
:1006F000CB581024E34001E0364BCB581C24234058
:10070000002B01D000F09CF8404633490860484671
:1007100032490860504632490860604631490860F5
:1007200031490F60314D32490D6032483249002263
:1007300004C08142FCD831498D46022181F31488DE
:10074000BFF36F8F043DAD46009DEC431023DD41A8
:10075000AC4210D1240CA400294D2C606B461B1B0D
:100760002848294D2860002C05D01D6805600433F9
:100770000430043CF9DC81B001F0CFFFFEE700005B
:100780000000001814060000FFFF000024430000D2
:10079000000040000000001C000000FF0000001EE0
:1007A00008341018E3FFFFFF000000F000FF0F0007
:1007B000002A0800000E0800E00100000406000006
:1007C0000000380000080000180600000C060000B9
:1007D0000010000008040000CC050000D005000057
:1007E000D4050000D8050000C8050000000009007D
:1007F0003C140400543804007A4004003814040007
:1008000044140400792105004014040008680F22F4
:1008100004310240052AF9D1014A1040F746000090
:1008200000F0FFFF08680F2204310240052AF9D1C9
:1008300080221042F6D0014A1040F74600F0FFFF38
:10084000FEE72DE9FF41DDF828800B9E04466F4648
:100850000020B1FBF2FC02FB1C1118F80110013062
:1008600007F8011B61463D460029F2D183B183425E
:100870000EDD181A024603E0302305F8013B013A69
:10088000002AF9D13D1803E015F8010D2146B047C3
:100890006B469D42F8D1BDE8FF8100002DE9F74F7E
:1008A00004461D469346D0F804A00E464FF00008BB
:1008B000D1E0252803D02146A8470136CBE0737844
:1008C000232B01D0013600E0023633784FF00009C7
:1008D0002D2B08BF0136324608E0303B994413788F
:1008E000CB5C580702D50A2303FB09F91378164697
:1008F0000132DBB16049CF5C084617F00407ECD148
:100900002E2B13D13346B8460AE0303B98445A4A5E
:100910007378D35C590702D50A2303FB08F83346E2
:100920005B78013613B1C25C5207EED433786C2B7E
:1009300008BF01363078692843D009D858285FD0DD
:1009400001D8502808E0632879D064287ED138E0A7
:10095000732808D002D8702878D160E0752842D07A
:10096000782873D14CE0DBF80030444A0BF10407DF
:10097000002B08BF1346B8F1000F02D1B9F1000FE8
:1009800001D09B460CE0994601E02146A84719F8A2
:10099000010B0028F9D15CE02146A84709F1FF3995
:1009A000B9F1000F55D01BF8010B0028F4D104E079
:1009B00020202146A84709F1FF39B9F1000FF7D1EE
:1009C00047E00BF10407DBF800B0BBF1000F04DADD
:1009D0002D202146A847CBF1000B294B20468DE85E
:1009E0002800594607E0264B0BF104078DE8280044
:1009F000DBF8001020460A224B46FFF722FF28E0D2
:100A0000204A1F4BDBF80010582814BF1046184628
:100A10008DE821000BF1040720461022ECE7184B6B
:100A2000184ADBF80010502814BF104618468DE80D
:100A300021000BF10407204610220823DDE79BF874
:100A4000000021460BF10407A84702E02146A84711
:100A50005F460136BB46307800287FF42AAF236812
:100A60000BB12146A8476368002BC8BFC3EB0A0A35
:100A70005046BDE8FE8F00BFF27B8800F2EF880091
:100A8000E17B8800D07B880038B54B680446013B89
:100A9000002B0D464B6001DB00F0EEFAA4F10A0CCE
:100AA000DCF1000444EB0C042C7238BD0FB47FB5AC
:100AB000134D00262C786FF00043009601938DF8BB
:100AC00008606CB110F006D94FF47A73B0FBF3F103
:100AD000024603FB11220B482E70FFF7E7FF044686
:100AE00009AA68460899084B0392FFF7D7FE9DF8BC
:100AF000083020182B7004B0BDE8704004B0704777
:100B0000A8030000F9EF8800890A0000094B0A4990
:100B1000186890FBF1F201FB12010848424344F2CD
:100B2000A71000FB01200028DCBF00F100400138C5
:100B300018607047481404001DF30100ECF4FFFF37
:100B4000004870475438040004F036B838B5034CF8
:100B5000206805680FF054DF256038BDA838040010
:100B600010B50021302204460BF0E8D80C4B23606E
:100B70000C4B63600C4BA3600C4BE3600C4B23618C
:100B80000C4B63610C4BA3610C4BE3610C4B236278
:100B90000C4B63620C4BA3620C4BE36210BD00BFB5
:100BA00000000000829203008492030038120400C7
:100BB0003812040052380400543804007A4004000B
:100BC000C84F0400605405006C6505004C3B0600EE
:100BD00070B51E4D8CB06846FFF7C2FF2978E9B9A1
:100BE0000898099C241A06D022460BF0A7D808982A
:100BF00021460FF08BDE21461548FFF757FF154BB6
:100C000000221A70144B012219682A70E1B10B7886
:100C1000D3B1124B18680BF059DE15E0104E317845
:100C200091B90A980B9C241A06D022460BF086D85C
:100C30000A9821460FF06ADE0A482146FFF736FF80
:100C400000232B70012333700CB070BDA438040056
:100C500056F08800AC380400EC030000983804001B
:100C6000D038040088F08800014B1868704700BF36
:100C70003C1404002DE9F04F9DB00EA8FFF770FF63
:100C8000FFF7F2FF0E9B0F9A1399D21A129B119C39
:100C9000C3EB01091599149B6F4ECB1A1099DFF81D
:100CA000F881C1EB040B93443268D8F8001002F5C8
:100CB0009052521A4A44D218DFF8E0A1674C5A44C5
:100CC0001218674F0D92DAF8005022686548AD1887
:100CD0003A680C93C5EB020CCDF82CC0FFF7E6FE8A
:100CE0000C9B09F57E71019303F57E7307339B0A14
:100CF00007310BF57E72890A073202930523920AA7
:100D00000091039359464B465748FFF7CFFE33688F
:100D100020683968DDF82CC00190039300F57E70DF
:100D200003F57E730CF57E7601F57E72073007338E
:100D3000800A9B0A07320736920AB60A0290049389
:100D40004A4863460096FFF7B1FE0D9905F57E729D
:100D500001F57E7307339B0A0732920A00932946F6
:100D60000D9B4348FFF7A2FE424B43481968FFF72B
:100D70009DFE424B40461968414B0A6857469A42CD
:100D800003D04048FFF792FE23E01A910B4604E09F
:100D900016683B4D131DAE4203D11A461BAB9A4257
:100DA000F6D300681AABC1EB030CC61A851AC1EB67
:100DB000020E8DE8011034481A92CDF808C0CDF823
:100DC0000CE0CDF810E00596069607950895FFF71C
:100DD0006DFE2E4D286800283BD00378002B38D0BC
:100DE000B0F806800BF038DD2B6808F1FF385D891C
:100DF000024608FB05F606F57E730733403505FB12
:100E000008F5002BBCBF06F5FE630E339B128DE880
:100E1000280005F57E730733002BBCBF05F5FE6384
:100E20000E339B120293414633461948FFF73EFEAC
:100E300023683A68991B9B185B1B03F57E7001F5CC
:100E40007E720730800A07320090920A1148FFF73D
:100E50002DFE1DB0BDE8F08FB0030000D0030000F0
:100E6000C0030000BAF08800C9F0880007F18800CC
:100E70004BF18800BC03000085F18800A038040015
:100E80004B4154539FF18800C2F18800EC030000ED
:100E90003FF288006BF288001C390400B4030000A4
:100EA0000F4B73B51A680F490F4B05461C6808684D
:100EB0000E4B1B6890B1017881B1A4181C1BC68829
:100EC0000BF0CADC04F57E73013E07338DE8410068
:100ED0000749284622469B0A0AF0A8DF7CBD00BFCE
:100EE000D0030000EC030000B4030000C0030000C6
:100EF000C2990300F8B5054620B1860000241FE022
:100F0000FFF724FE124B1B68002BF9D1114A136026
:100F100018E0F82000210FF035DE0D4F60B90E48C3
:100F2000FFF7C4FD02E0013CFFF710FE386870B126
:100F3000002CF8DC0020F8BD3B6801340360386009
:100F4000B442E6DB034B01201A68AD181D60F8BD02
:100F5000A838040090380400F7990300014B186882
:100F6000704700BF9038040038B50446C0B1836AAA
:100F7000B3B1C36A0BB9836205E01030616A094AF4
:100F800023460FF003DFA36894F830500BB12046DE
:100F90009847012D04D12046BDE838400FF0689DE8
:100FA00038BD00BF690F000008B571460348FFF760
:100FB0007DFD0120BDE8084000F0F8BEB4F28800D5
:100FC0007047000037B5134B1B68D3F8A050037867
:100FD000F3B101A910F04AD9019B044633B910E0DE
:100FE000286821680AF040DF18B1ED68002DF7D1BC
:100FF0000AE06B68A868019922469847FFF7E0FF6E
:1010000020460FF0FDDC03E00348FFF74FFDF5E756
:101010003EBD00BFFC030000DBF4890010B5D0F832
:10102000A04004E021680348FFF740FDE468002C7D
:10103000F8D110BDB34689000E4B10B51C68A368EB
:10104000B3B1D4F89C307BB910BDA268D4F89C0031
:10105000D15C10F05DD9E2686369013A934201D036
:10106000013300E000236361636922699A42ECD195
:1010700010BD00BFFC03000038B51A4B05461C68C4
:10108000002C2DD00A2802D10D20FFF7F5FFA36810
:10109000EBB122699D54E2682369013A934201D081
:1010A000013300E00023D4F89C00236178B1626929
:1010B00093420CD1A268D15C10F02AD9E26863692E
:1010C000013A934201D0013300E000236361D4F878
:1010D0009C0028B101210322BDE8384010F010998E
:1010E00038BD00BFFC030000F8B5534B1C682568F1
:1010F00075B1631900261E77A561A319187F013603
:10110000FFF7BAFFAE42F8D10A20FFF7B5FF7AE049
:10111000D4F89C00002800F08D80022110F0E8D85F
:1011200000F00F00012800F08580022818D16369C3
:10113000226993420ED0A2682946D25CD4F89C0062
:1011400010F0DED8E2686369013A934218BF5D1C73
:10115000656105E00121D4F89C000A4610F0D0D862
:101160000521D4F89C0010F0C3D8C10762D5002136
:10117000D4F89C0010F0BCD8020607465AD41F28A9
:1011800009DC0D2856D84FF0F273834052D50D2854
:1011900017D0082801D07F2F0CD1A369002B49D08C
:1011A000013BA3610820FFF767FF2020FFF764FFE2
:1011B00008203BE00A2F05D01F2F03D801232777F3
:1011C000A3610A271D4E3846FFF756FF32780AB151
:1011D0000A2F2FD1A5690A2F04EB050311D0013581
:1011E000042D1F7709D142B904F11C0014492A4685
:1011F0000AF070DE08B9012333707F2DA56102D893
:10120000F8BD00221A770D4E33783BB97F2DA561CA
:1012100004D804F11C002946FFF7D4FE00233E2029
:10122000A36123603370FFF727FF2020BDE8F8405B
:10123000FFF722BFF8BD00BFFC0300000004000060
:1012400055030000F8B5094B05460C461020002157
:101250001E6817460FF096DCD6F8A0300560446093
:101260008760C360C6F8A000F8BD00BFFC030000A3
:10127000014B1868704700BFFC0300002DE9F843DC
:101280002B4B80461B68002B49D0032947DC9B6908
:10129000002B44D053F82150002D40D0D61C26F00E
:1012A00003062DE0B6F5AF6FB4BF37464FF4AF6716
:1012B000404607F1180917F033DA494610F036D9DD
:1012C000044600282FD04A4600210AF037DD27F0D7
:1012D0000303E318103304F10C02A3609B1AA381EB
:1012E0002B681BB92C602460646004E06A685C6051
:1012F0001460626023606B696C6001336B61F61B84
:10130000002ECFD12B68304603F11402EB60AB60A6
:101310002A61DE8101236B832E83BDE8F8834FF0C1
:10132000FF30BDE8F8834FF0FF30BDE8F88300BF21
:101330003C3904002DE9F843DFF858800546D8F819
:1013400000300C469146002B20D004291EDC9F69FA
:10135000E7B157F82160CEB917F0E2D9242110F097
:10136000E5D898B1D8F8003006601A695B69C261A7
:101370004660C660866046610362214647F82400E5
:101380004A462846BDE8F843FFF778BF4FF0FF30E4
:10139000BDE8F8833C390400F8B5224B06461B68CB
:1013A0001546002B38D0032936DC9B6953F82140C1
:1013B0001CBB31E06768002F31D0BB68DB1BDB430F
:1013C000ED1823689F4205D10023E360636023602A
:1013D00023610FE07A68304662605A601360E36010
:1013E0001433236117F09CD9BA6839460132D21BF5
:1013F00010F0A6D86369013B6361002DDADC236835
:10140000002003F1140222610022E360A360DA816C
:10141000012363832283F8BD4FF0FF30F8BD4FF006
:10142000FF30F8BD3C390400094B1B684BB1032960
:1014300007DC282808DC074B11431B6819540020DF
:1014400070474FF0FF3070474FF0FF30704700BFDC
:101450003C390400343904002DE9F8433B4B044681
:101460001B680E461D5C6A0605D5394804F03F012D
:101470003246FFF71BFB2B0666D5364A05F03F05C3
:1014800013689146996951F82550002D5CD0EF689A
:10149000002F59D019694FF00008EB69012264F35D
:1014A000070862F30F28994266F31F482FD00026E1
:1014B000032362F3070663F30F262B69BA6803F16F
:1014C00010018A420FD8002143F8041B9342FAD33B
:1014D000FA893F681A6007F114032B616B8BEF6088
:1014E000FB8101336B832C69EB6923602B6A63609A
:1014F00004F108032B61FFF751F8D9F80030A06020
:10150000E6601A695B6910342C61EA612B622B6911
:10151000BA6803F108018A420FD8002143F8041B7E
:101520009342FAD3FA891A603B6803F114022A61E4
:101530006A8BEB60DA8101326A832C69FFF72EF83F
:1015400084E8010108342C61BDE8F88334390400D3
:10155000339A03003C3904002DE9F743404B04461D
:101560001B680F461D5C1646680606D53D4804F00C
:101570003F013A463346FFF799FA29066ED53A4BB2
:1015800005F03F051A689946916951F82550002DDC
:1015900064D0EB68002B61D04FF00008022164F3A7
:1015A000070861F30F281169EA6967F31F48914240
:1015B00032D00122002762F30707032262F30F27CC
:1015C0002A69996802F1100081420FD8002042F880
:1015D000040B8A42FAD3D9891B68116003F1140203
:1015E0002A616A8BEB60DA8101326A832C69EA69CD
:1015F00022602A6A626004F108022A610193FEF700
:10160000CDFFD9F80020A060E7601169526910345D
:10161000019B2C61E9612A622A69996802F10C0038
:1016200081420FD8002042F8040B8A42FAD3D989AC
:101630001B68116003F114022A616A8BEB60DA8186
:1016400001326A832C69234643F8046B2B61FEF751
:10165000A5FFC4F8088060600C342C61BDE8FE83EF
:10166000343904003E9A03003C3904002DE9FF4759
:101670009846424B16461B6804461D5C0F466A0698
:1016800008D53F4804F03F013A463346CDF8008084
:10169000FFF70CFA2B066ED53A4B05F03F051A689A
:1016A0009A46916951F82550002D64D0EB68002BC3
:1016B00061D010694FF00009EA69032164F307095A
:1016C00061F30F29904267F31F4931D001220027AF
:1016D00062F307072A6961F30F27996802F1100086
:1016E00081420FD8002042F8040B8A42FAD3D989EC
:1016F0001B68116003F114022A616A8BEB60DA81C6
:1017000001326A832C69EA6922602A6A626004F104
:1017100008022A610393FEF741FFDAF80020A06077
:10172000E760116952691034039B2C61E9612A62F8
:101730002A69996802F1100081420FD8002042F80E
:10174000040B8A42FAD3D9891B68116003F1140291
:101750002A616A8BEB60DA8101326A832C6904F1B9
:10176000080384E840012B61FEF718FFC4F80C90D1
:10177000A06010342C61BDE8FF8700BF343904003D
:101780004C9A03003C3904002DE9F04F9846444B35
:1017900085B01B6804461D5C0F4668061646DDF8DA
:1017A000389008D53F4804F03F013A4633468DE86B
:1017B0000003FFF77BF929066FD53B4B05F03F058A
:1017C0001A689B46916951F82550002D65D0EB6849
:1017D000002B62D04FF0000A042164F3070A61F382
:1017E0000F2A1169EA6967F31F4A914232D0012238
:1017F000002762F30707032262F30F272A6999681B
:1018000002F1100081420FD8002042F8040B8A42F6
:10181000FAD3D9891B68116003F114022A616A8B1B
:10182000EB60DA8101326A832C69EA6922602A6AF4
:10183000626004F108022A610393FEF7AFFEDBF851
:101840000020A060E760116952691034039B2C618D
:10185000E9612A622A69996802F1140081420FD86D
:10186000002042F8040B8A42FAD3D9891B68116020
:1018700003F114022A616A8BEB60DA8101326A8318
:101880002C6904F10C0384E840032B61FEF786FE0B
:10189000C4F810A0E06014342C6105B0BDE8F08FEE
:1018A000343904005F9A03003C3904002DE9F04FFD
:1018B0009846454B87B01B6816461D5C04466A0671
:1018C0000F46DDF84090DDF844A008D53F4804F00D
:1018D0003F013A4633468DE80007FFF7E7F82B064D
:1018E0006FD53B4A05F03F0511688B6953F82550C9
:1018F000002D66D0EB68002B63D04FF0000B052065
:1019000064F3070B60F30F2B0869E96967F31F4B5A
:10191000884233D00121002761F30707032161F3D7
:101920000F272969986801F11004A0420FD80024FC
:1019300041F8044B8142FAD3D8891B68086003F14F
:1019400014012961698BEB60D981013169832C69AC
:10195000E9692160296A616004F108012961049242
:101960000593FEF71BFE049AA0601268E7601169F8
:1019700052691034059B2C61E9612A622A699968D1
:1019800002F1180081420FD8002042F8040B8A426D
:10199000FAD3D9891B68116003F114022A616A8B9A
:1019A000EB60DA8101326A832C6904F1100384E868
:1019B00040072B61FEF7F2FDC4F814B02061183423
:1019C0002C6107B0BDE8F08F34390400739A03002E
:1019D0003C3904000CB42DE9F043514B85B01B6831
:1019E00004465E5C0D4673060C9F16D54D4801F00B
:1019F0003F013A46FFF75AF80DAB0393A04606E0C5
:101A0000039B49481A1D19680392FFF74FF818F114
:101A1000FF38F5D24548FFF749F830067AD5444BF0
:101A200006F03F061A689946916951F82660002E23
:101A300070D0F368002B6DD04FF00008611C65F387
:101A4000070861F30F281169F26967F31F48914293
:101A500032D00122002762F30707032262F30F2727
:101A60003269996802F1100081420FD8002042F8D3
:101A7000040B8A42FAD3D9891B68116003F114025E
:101A80003261728BF360DA81013272833569F269F7
:101A90002A60326A6A6005F1080232610193FEF73A
:101AA0007DFDD9F80020A860EF60116952691035FA
:101AB000019B3561F16132623269A51C996802EBC4
:101AC0008505A94220460FD8002542F8045B8A42CA
:101AD000FAD3D98911601A68718B02F11403F2608C
:101AE0003361D181013171830DAB03931A4604E058
:101AF00052F8041B45F8041B3561013C611C356933
:101B0000F6D103EB80030393FEF748FD85E801015E
:101B10000835356105B0BDE8F04302B0704700BF3D
:101B2000343904008A9A0300949A030048E5880037
:101B30003C3904002DE9F74F514BB2F5007F1B688B
:101B40008046894616461C5C00F39880D51C48BF29
:101B5000951DAD10610611D54A4808F03F014FF6BA
:101B6000FF72FEF7A3FFCA46002705E046485AF871
:101B7000041B0137FEF79AFFAF42F7DB4348FEF73D
:101B800095FF22067AD5424B04F03F041A689B4623
:101B9000916951F82440002C70D0E368002B6DD07F
:101BA0000027691C68F3070761F30F271169E269D1
:101BB000CFF6FF77914239D001224FF0000A62F34D
:101BC000070A032262F30F2A2269996802F11000C2
:101BD00081420FD8002042F8040B8A42FAD3D989F7
:101BE0001B68116003F114022261628BE360DA81E9
:101BF00001326283D4F81080E269C8F80020226ABA
:101C0000C8F8042008F1080222610193FEF7C6FC1F
:101C100008F11002C8F80800C8F80CA02261DBF82F
:101C20000020019B11695269E16122622269A81CAE
:101C3000996802EB800081420FD8002042F8040B23
:101C40008A42FAD3D9891B68116003F11402226118
:101C5000628BE360DA810132628332464946206951
:101C600009F0E4DFD4F8108008EB85062661FEF762
:101C700095FC48F82500776008362661BDE8FE8FA0
:101C8000343904008A9A0300949A030048E58800D6
:101C90003C39040038B5054C25680FF06BD8286135
:101CA0002468FEF77BFC606138BD00BF3C3904004E
:101CB00010B50446FFF7EEFF20464FF47A7101227B
:101CC000BDE810400EF00E9E024B406819680DF002
:101CD000519800BF7839040038B51C4C20680EF0CC
:101CE0002DDD20681A4C436A03F4F033B3F5005F2E
:101CF00003D923680022C3F840262368D3F844564A
:101D00000EF02ADD23684022C3F80826D3F80836EF
:101D1000AB0119D50F4B1B6893B10FF09DD90E4B3A
:101D20000E49D3E90023D1E90001904271EB03048D
:101D300034BFC0EB02000020BDE838400FF0E89847
:101D4000BDE838400FF05E9838BD00BFC403000006
:101D5000D80300001804000008040000100400006C
:101D6000024B1B68D3F81406704700BFD80300006D
:101D700070B50A4D04462E6800F0E4F8204602F0E3
:101D8000BDFE074B1E6062B60EF0B6DE72B6204690
:101D90002E60BDE8704002F07FBE00BF00E100E0B1
:101DA00080E100E0FEF7DABBFEF7DABB10B50446CF
:101DB000FFF742F90CB100231B60054B00211868A6
:101DC0000CF0D8DF034B1B6803B19847FEE700BF58
:101DD000C4030000403904002DE9FF47484B044686
:101DE000D8620368A3F110020F2A40F28380032B0C
:101DF0000FD1444AC36C22F00102934209D1426CD4
:101E000006339361436C4FF0FF321A6004B0BDE8B3
:101E1000F0873D4E3D48F169FEF748FEA36C21680E
:101E20000093636C22460193A36839480293E368E8
:101E300000270393E36CFEF739FE656CFEF714FF91
:101E4000636C04F11001C3EB000AE36931480093AD
:101E5000236A4FEA9A0A0193636AB9460293A36A16
:101E6000B84603930EC9FEF721FEA36B04F12C01C3
:101E70000093E36B28480193236C02930EC9FEF78D
:101E800015FEEB682548009395E80E00FEF70EFE60
:101E9000EB6905F11001009321480EC9FEF706FE1B
:101EA00018E07A59D1070FD5FF2A0DD91D4B9A4258
:101EB00004D9A2F50003B3F5801F05D81A483946A6
:101EC000FEF7F4FD09F101090437B9F10F0F08F12C
:101ED000010801D8D045E4D13368002143F4806380
:101EE00086E81800114B18680CF044DF01461048D2
:101EF000FEF7DCFD002004B0BDE8F047FFF756BF59
:101F0000D438040021158100B03804009B9A0300E6
:101F1000A89A0300DD9A0300109B03003F9B030077
:101F20005D9B0300829203007B9B0300C4030000BF
:101F3000879B0300FFF750BF014B1860704700BF3D
:101F40004039040063B630BF704700002DE9F3410B
:101F50001F4605460C469DF82060002302E0E15C28
:101F600011B101339342FAD1E15C002940F09F8026
:101F70004EB1591C0533934200F29C8001A86118B0
:101F8000042209F053DE04F104084046524909F0E6
:101F90006BDF50B9002E00F09780D5F8B831019A68
:101FA000013B9A4200F289806FE040464B4909F0BC
:101FB0005BDF002857D04046494909F055DF00282B
:101FC00053D04046474909F04FDF90B9284613F0F7
:101FD00079DB28B1002E79D0019B002B70D101E074
:101FE000002E73D0019B082B67D83F4A9A4064D5D6
:101FF00070E040463D4909F037DF002837D04046C1
:102000003B4909F031DF002833D04046394909F017
:102010002BDF00282FD04046374909F025DF002864
:102020002BD04046354909F01FDF40B340463449C4
:1020300009F01ADF30B9002E4AD0019B102B3CD892
:10204000162022E040462F4909F00EDFC8B1404675
:102050002D4909F009DFB0B140462C4909F004DFF1
:1020600070BB192010E001200EE002200CE00420DB
:102070000AE0052008E0062006E0072004E008202A
:1020800002E0172000E018202EB1019B05EB80052F
:10209000C5F8943109E005EB800505F5CA712046C5
:1020A000042209F0C3DD04233B6000200AE06FF046
:1020B000010007E06FF00D0004E06FF01C0001E08C
:1020C0006FF01600BDE8FC813046E4E70320E2E74C
:1020D0001620E0E70320D8E7C2018900CF0189007C
:1020E000DB018900E7018900000080C1EE01890061
:1020F000F7018900FE0189000902890015028900A3
:102100001C028900270289002F02890038028900F9
:10211000704789690346886919460CF0CF9810B555
:102120000446806813F0C0D838B1002104F11C00C7
:102130000A46BDE810400EF0D59BA068BDE81040EF
:1021400013F0889A10B58469A06813F09FD838B14D
:10215000A06813F077DA2046BDE81040FFF7DFBF34
:1021600010BD836998690CF09D98012908B58369B1
:1021700005D19868117813F07FDA002008BD4FF080
:10218000FF3008BD89690346886919460CF0B69886
:1021900010B584690021342204F11C0009F0CEDD61
:1021A000034BA0686362246213F0F0D9002010BDD5
:1021B000B521000010B54468A06813F053DA20463A
:1021C000BDE81040FFF7ABBF0A4681690346886946
:1021D00019460CF02F990A46816903468869194609
:1021E0000BF0729F2DE9F0410E4650210446154632
:1021F00098460FF09BD90746A0B10021502209F064
:102200009DDD4FF4E8637B634FF47A73FB631C231B
:102210003B640C237B640423C7F80C803E607D6024
:10222000BC60BB643846BDE8F08100002DE9F04F8A
:102230000D460969AF8A8A6891B00024D1F80090F0
:102240000646049108920D940E940F94FFF722FD18
:102250000F2FD6F84080D6F844B00BD8974B1B68A8
:1022600013F0010300F0F58195493A469548FEF7D1
:102270001DFC26E00499089A4B68052000929249BB
:102280004A460D93FFF780FA0D9B1A0C13D09BB2B0
:1022900097420D930ED2894B1B68D80704D58B4803
:1022A00087493B46FEF702FC00240D9407946FF02B
:1022B0000D0709E013460D9AB2F5005F06D9002418
:1022C0000D9407946FF017070594C7E1103FBB42C8
:1022D00028BF3B460693E9682B69746CAA68C91A43
:1022E000201D9A1A89B28242A98204D9121A9B1A15
:1022F0008A182B61AA82B5F814A02B69AAF1100ADA
:10230000296810331FFA8AFA2B61A5F814A029B1A5
:10231000B06800220FF026D900232B600D9BCBEB79
:10232000080B0BEB03025245CDF828B00CD8D5F8BA
:102330001080AA681434C2EB0802A24204D3AB8214
:1023400001230024079317E0316CB0685918143149
:102350000FF034D9044660B1736CBDF8341003F14A
:102360001408036900229844C0F810808182079203
:1023700002E00123079380460021099105918B46D5
:10238000CDF82C90474663E00D9B069A9A4238BFE1
:102390001A460592002A51D0B06811460FF0C6D8EF
:1023A000834620B3059B2C46CAEB03080DE0736BF4
:1023B000B068984534BFC146994649460FF0FED8EB
:1023C000206040B1C9EB08080446B8F1000FEEDC0C
:1023D0005F4600243CE02968012228600446B0687A
:1023E0000FF0C0D8B0685946059A0FF0A9D8384BFD
:1023F0001B78EBB10A990D9BCA1806998A420DD930
:102400000A99C1F580625244934207D9A3F58063CB
:1024100001220D9309924FF0000BB5E70A990122B2
:10242000C1EB0A030D932F6909924FF0000B0FE0E7
:10243000DDF82C900D936FF01A070FE1059B0899BA
:10244000B846DDF82C900D9304914FF0FF37CDE0A6
:10245000002F99D0069BDDF82C90B84633B1049A32
:10246000384602F110011A4609F0E0DB194B994594
:1024700032D1069B072B40F2B580083BD8F8049078
:10248000069308F10808BBF1000F11D114B12346DF
:10249000224601E02B462A46126908321A6114B11D
:1024A0002346224601E02B462A46928A083A9A821F
:1024B000089941F00201049110E000BF7C03000084
:1024C0009B028900FC028900D403000016038900E6
:1024D000780300003EDAFEFF089A0492DFF898A124
:1024E000CA44BAF5A17F28BFCA46BAF5837F3AD05D
:1024F00006D8BAF1020F46D0BAF1FD0F49D10EE06D
:1025000040F207139A451ED040F20B139A4540D172
:1025100030680021554AF36B0EF0F8DB36E098F88E
:10252000023098F801201B0443EA022398F80020A7
:1025300098F803101343306843EA01610BF03ADE68
:10254000D146002752E040464949042209F0C2DC46
:102550000346F0B9474A01211268009197697068F3
:102560004146069A0DE040464149042209F0B2DC9A
:1025700078B9404B0D9A1B68009070689F6941467E
:102580000DABB84702E030680BF01ADE0746D146C3
:102590002CE0089B03F47041049B090B13F002022A
:1025A00008D0069B00930FAB01930EAB029301235F
:1025B000039307E010AB53F80C0D03928DE809006C
:1025C0000EAB029330684A4643460BF05BDD10F1D8
:1025D0000E0F07460AD1099941B100230D936FF000
:1025E0001A0703E0089A6FF017070492BBF1000F77
:1025F00008D0B068294600220D9BCDF800800AF073
:10260000D5D808E0BDF83410002C14BF23462B4663
:1026100099824FF0000B0FB10E9B0D93079A22B9D0
:102620002946B0680EF09EDF25460D9B304601938B
:102630004946049A3B46CDF80080029508F0DCDA62
:10264000BBF1000F0FD0B0685946059A0EF078DF45
:1026500009E01C4607936FF017070593089B4FF09E
:1026600000080493CEE711B0BDE8F08FB9E0800018
:102670003C0389002C040000E0EB1B0073B50B69E0
:102680000446C0680D469E7808F096DD002839D1D2
:1026900006F00F0120460BF0B3DD0646A0B9236A11
:1026A000294601332362606832460EF05BDF164B29
:1026B0001B68D90726D515481549AB8A2A4602B0AA
:1026C000BDE87040FEF7F2B9606829460EF0AEDF53
:1026D000024628B13369A06BDB683146984770B178
:1026E000A36A0133A362084B1B68DA070AD5AB8AD9
:1026F00007492A4607480096FEF7D8F902E0236901
:102700000133236102B070BD7C030000159C0300FF
:10271000080689008A048900704710B543F014FF49
:1027200043F0F4F843F0C8FF044643F0ADF8204608
:1027300047F0BAF8FEF74CFA2046BDE810400EF01C
:10274000A999704708B560B1002907DB43680268A2
:10275000C918914204DD0348FEF7A8F9002008BD1E
:10276000012008BD2306890038B50D460221044624
:10277000FFF7E8FF50B16368A2680220D15CD2186D
:102780005278023342EA01222A80636038BD7047E2
:102790002DE9F3410D460DF10601044616461F468C
:1027A00007F02EDD804620B92348FEF77FF9454625
:1027B0003EE094E80C00BDF806109A42CCBFC3EB93
:1027C0000200002081420ADD9A42C8BFC3EB020228
:1027D0001A48D8BF0022FEF769F9002528E02946EB
:1027E000204607F0DBDC054660B12046314607F0A5
:1027F000D5DC054630B14FB12046394607F0CEDC76
:10280000054618B90C48FEF751F911E0BDF806303D
:10281000002F0CBF02270327DF1B089BBFB21F80BE
:10282000A1686368099AC918DF19116001256760FA
:102830002846BDE8FC8100BF42068900F59F0300E1
:102840002DE9F043082285B004460E4608460025CF
:10285000002109F073DA2F462CE06760DF1B032F9D
:102860002BDD03A9204607F0CBDC20460DF10E013D
:1028700007F0C6DC94E80C00BDF80E809A42CCBF8D
:10288000C3EB02020022904517DCBDF80C004DF6A8
:10289000DD51884203EB0807A2680BD102EB030964
:1028A000684608F10401A9F1040207F0A1DC86E8FA
:1028B0000003013523689F42CFDB15B13046FFF797
:1028C00066FF284605B0BDE8F083000037B50D4629
:1028D00001AA0321044607F073DC78B101A810496E
:1028E000032209F08DD948B920460DF1070107F000
:1028F00055DC18B19DF80730092B04D00948FEF7C4
:10290000D5F800200BE02046294607F079DC044684
:1029100020B90448FEF7CAF8204600E001203EBD79
:10292000500689004206890037B50C460546082244
:102930000846002109F002DAA31C0093231D01932D
:1029400028462146621C0023FFF722FF3EBD37B513
:102950000C4605460C220846002109F0EFD9231D3C
:10296000009304F10803019328462146621CA31C2E
:10297000FFF70EFF3EBD30B57022054697B0084602
:102980000C46002109F0DAD995F86030DB0748D40D
:10299000B5F87420A96FAA180DA807F029DC0DA8B6
:1029A00001A907F021DD019B012B02D1029B1878C0
:1029B00003E0B5F848000AF069DA089A20800AB303
:1029C00001236360079910A807F012DC10A809A979
:1029D00000F02EF80C9A4AB10B9913A807F008DC06
:1029E00013A804F10C0100F07FF8A0600A9A4AB124
:1029F000099913A807F0FCDB13A804F1640100F0A7
:102A0000F9F82066049A01256AB10399656013A854
:102A100007F0EEDB13A804F16C0107F083DDA0667C
:102A200001E0002000E0284617B030BD70470000EC
:102A300073B5102204460D460846002109F07ED9E0
:102A4000204603216A4607F0BBDB80B16846244973
:102A5000032209F0D5D8064648B920460DF10601F3
:102A600007F09CDB18B19DF80630092B04D01D48F7
:102A7000FEF71CF8002032E0636827E06360D31A99
:102A8000022B26DD0DF10701204607F087DB01A9A7
:102A9000204607F0B5DB23686168BDF804208B424F
:102AA000CCBFC1EB030300239A4212DCA0688B1851
:102AB00041189DF80700022802D00D2806D102E037
:102AC0002A60696001E0AA60E960013622689342E9
:102AD000D4DB30461EB12846FFF7A8FF30467CBD48
:102AE0005006890042068900F7B5522205460C4679
:102AF0000846002109F022D995E80C009A426FDDC2
:102B000028460621224607F05BDB0646002846D011
:102B10002846A11DFFF728FE064600283FD00821C1
:102B20002846621807F04CDB0646002837D02846B6
:102B300004F1100107F032DB064600282FD0217C7B
:102B4000042912D92848042233E004EBC60228469F
:102B50000821113207F034DB074620B92348FDF77E
:102B6000A5FF3E463DE0013600E00026237C9E4264
:102B7000EBDB284601A9FFF7F7FD28B1BDF80420DB
:102B800041F211039A4203D01848FDF78FFF12E07B
:102B900028460DF10601FFF7E7FD064618B9134870
:102BA000FDF784FF1DE0BDF80610202905D9104867
:102BB0002022FDF77BFF002613E0284604F13102B6
:102BC00007F0FEDABDF806304FF00005984204D059
:102BD0000648FDF76BFF2E4603E0241884F83150B9
:102BE00001263046FEBD00BF23A703004206890030
:102BF00046A7030070B5022204460D460846002190
:102C000009F09CD894E80C009A4218DDD31A022BE4
:102C100015D12046294607F0C1DA064620B90A48F0
:102C2000FDF744FF304670BD2046691C07F0B6DA58
:102C3000044630B90448FDF739FF204670BD002036
:102C400070BD012070BD00BF4206890010B588B17B
:102C500000290ADB836853B190E80C005C189442A9
:102C600007DD0548D21AFDF721FF002010BD1846E8
:102C700010BD012010BD00BF6A0689002DE9F84390
:102C8000BDF824700E46002B0CBF02210321C91988
:102C9000044689B290469946456807F0C1DC314642
:102CA000204607F089DC2046414607F085DCB9F173
:102CB000000F04D020469DF8201007F07DDC27B1DE
:102CC000204639460A9A07F087DC6068401BBDE859
:102CD000F88300002DE9F04115460E464DF6DD5112
:102CE00004469846476807F09BDCA91D89B2204638
:102CF00007F096DC03210B4A204607F06DDC092122
:102D0000204607F059DC2046314607F089DC25B122
:102D100020462946424607F05FDC6068C01BBDE8DC
:102D2000F08100BF500689001FB50193069B002467
:102D3000029323460094FFF7A1FF04B010BD1FB516
:102D40000093BDF818300193079B02930123FFF70E
:102D500095FF05B000BD000081680A4A0A4B0029B2
:102D600018BF134609E0824204D1D0F8942701200D
:102D70001A60704702F5F26304331A68002AF2D130
:102D8000104670478C390400903904000B4B1B68C7
:102D900003E083420ED0D3F89437002BF9D1084BCF
:102DA0001B6803E0834207D0D3F89437002BF9D196
:102DB0001846704701207047012070478C39040085
:102DC00090390400014B1868704700BFD01404000C
:102DD000014B1868704700BFE014040020B1007A6E
:102DE000D0F1010038BF0020704701234187C36341
:102DF0007047000010B1182900D112B90248FDF740
:102E000055BE53684360704720A8030010B11829CD
:102E100000D112B90648FDF749BE064A126812B938
:102E2000D0F880270AB1D0F88C271A60704700BF0D
:102E300020A80300DC14040010B1182900D112B935
:102E40000348FDF733BE036B0BB99288C28370470A
:102E500020A8030010B1182900D112B90348FDF7CA
:102E600025BE036B0BB992888283704720A80300AC
:102E70002DE9F043144FA7B03B6806460C46914637
:102E8000FBB14B7826AD0D2B0CBF91F806804FF0AF
:102E9000000845F8940D06F11401062202A808F076
:102EA000C5DEA378CDF818908DF80E300223049378
:102EB00063788DF81C80059378683B6831462A4614
:102EC000984727B0BDE8F0839C39040070B5134DD6
:102ED000A6B02B6804460E46F3B10622019004F119
:102EE000140102A808F0A2DE94F8383094F875278F
:102EF0008DF80E3001230493236E0596069394F803
:102F0000743768689A4218BF43F080038DF81C300C
:102F100021462B6801AA984726B070BD9C39040051
:102F20002DE9F041104EA6B0336804468846174696
:102F3000BBB126AD45F8940D04F11401062202A898
:102F400008F074DE94F83830CDF814808DF80E3027
:102F5000032304938DF818703368706821462A465D
:102F6000984726B0BDE8F0819C390400F0B5164DB5
:102F7000A7B02B6804460E4617461BB301900622E5
:102F800002A804F1140108F051DE94F83830ADF8CD
:102F900014608DF80E300023802E049306D90B4860
:102FA0008021FDF783FD8023ADF814303946BDF84C
:102FB00014200DF1160008F039DE2B6868682146F0
:102FC00001AA984727B0F0BD9C39040033A803003C
:102FD00070B5104EA6B033680446C3B126AD45F8AF
:102FE000940D04F11401062202A808F01FDE94F8E3
:102FF000383070688DF80E3004230493638F2146B7
:10300000ADF814300023E3632A463368984726B0AE
:1030100070BD00BF9C39040038B50B4B0B4C054606
:10302000002918BF1C460BE014302946062208F080
:10303000E7DD08B9206838BD246804F5F26404347B
:1030400020680028F0D138BD8C3904009039040084
:10305000F8B5836805461BB1154B164F1E6802E094
:10306000154B164F1E683C4609E0143005F114015B
:10307000062208F0C5DD246804F5F26404342068F3
:103080000028F2D10BE00130B04205DB0C4831469C
:10309000FDF70CFD0020F8BD03F5F26704373B682F
:1030A000002BF0D13D600120C5F89437F8BD00BF7A
:1030B000E41404008C390400CC140400903904009A
:1030C00053A8030010B5044610B1182900D122B945
:1030D0002848BDE81040FDF7E9BC436A1A68596802
:1030E00090681FF005DEA36A1A68596890681FF09F
:1030F000FFDDE36A1A68596890681FF0F9DD636ABA
:103100001A68596890681FF06DDE616A08220B68C2
:1031100058680EF015DAA36A1A68596890681FF0AB
:1031200061DEA16A08220B6858680EF009DAE36ACA
:103130001A68596890681FF055DEE16A08220B682A
:1031400058680EF0FDD92046FFF706FED4F8700748
:1031500008B10DF055DCD4F87C0708B10DF050DC57
:10316000D4F8900708B10DF04BDC2046BDE81040C4
:103170000DF0469C20A8030070B5056B88B0082DA3
:10318000044605D80C9E00960D4E56F82550A847CB
:10319000636B226B9A4211D0E26BA56823631AB16C
:1031A00013B92046FFF714FF45B1236B33B908AAC2
:1031B00042F8183D20461821FFF784FF08B070BD83
:1031C000FCA7030007B500220A2113460092FFF76F
:1031D000D3FF0EBD07B50022092113460092FFF769
:1031E000CBFF0EBD07B50022082113460092FFF762
:1031F000C3FF0EBD07B510B1182900D12AB9074881
:1032000003B05DF804EBFDF751BC00220221134628
:103210000092FFF7B1FF03B000BD00BF20A803007C
:1032200038B500250446C0F88057D0F8900718B18B
:103230000DF0E6DBC4F89057C4F88857C4F88C57F3
:1032400038BD000038B5044610B1182900D122B9A4
:103250001148BDE83840FDF729BC104D2A6812B965
:10326000D0F8802762B1D4F88C2719688A4207DC2D
:10327000596898680A60D4F8901708F0D7DC02E023
:103280005B6800221A602B6823B12046BDE83840F5
:10329000FFF7C6BF38BD00BF20A80300DC14040040
:1032A000184B70B51B68164604460D46D0F88C279F
:1032B00013B10AB1144812E0D4F888178A1A95425B
:1032C00011D90BB9A80000E028464018C4F88807B7
:1032D00000210DF057DCC4F8900720B90B48BDE879
:1032E0007040FDF7E3BBD4F88C37D4F890072A463A
:1032F000C018314608F09ADCD4F88C375D19C4F850
:103300008C5770BDDC14040073A803009DA8030053
:1033100070B50446D0F87C070D46164620B10DF076
:103320006FDB0023C4F87C37AB0500219B0D5A1AD4
:10333000534243EB0203C3EB952384F87417C4F89C
:10334000785784F8753728460DF01CDCC4F87C07E4
:1033500010B9C4F8780770BDD4F878273146BDE8B5
:10336000704008F0639C000038B51446054610B163
:10337000182900D122B90A48BDE83840FDF796BBAC
:10338000FFF704FD30B12B6B4BB928466168A2688A
:10339000FFF7BEFFA068BDE838400DF0319B38BD97
:1033A00020A8030070B51546044610B1182900D1B5
:1033B00022B90F48BDE87040FDF778BB066BAEB987
:1033C000D0F8700718B10DF01BDBC4F8706768689F
:1033D00000210DF0D7DBC4F8700738B16A68C4F873
:1033E0006C27A968BDE8704008F0209C70BD00BF44
:1033F00020A8030070B50446D0F87C0720B10DF07A
:10340000FFDA0023C4F87C37636A00251A6859681C
:1034100090681FF06DDCA36A1A68596890681FF005
:1034200067DCE36A1A68596890681FF061DC6563BD
:103430006587E563256404F1440029464FF4E5629D
:1034400008F07CDC84F8745784F8845770BD38B574
:1034500004460D46FFF7CEFF00232046294663634E
:10346000BDE83840FFF7C1BC38B505460C4611B180
:103470000C2905D838BD0163FFF7BCFF6C6338BD6C
:103480000248BDE83840FDF711BB00BFADA80300FE
:1034900010B50446FFF7AEFF002120466163BDE88A
:1034A0001040FFF7A2BC00001829F7B515461E46CC
:1034B00001D102B12BB9374803B0BDE8F040FDF7A8
:1034C000F5BA00271F604FF4F36039460DF05ADB60
:1034D000044600285CD039464FF4F36208F02EDC35
:1034E0006B6805F11201A360AB6806222360EB68EC
:1034F00004F1140063602B8AA38108F097DB042396
:10350000A3834FF4FA63E3834FF0FF33A77623845A
:103510002046FFF721FC2046FFF79AFD08B91E4818
:1035200023E094E8030004F10E026AF0FFDE0028B5
:1035300002DA1A48FDF7BAFA206819492246194BEF
:1035400082F0B8DA606278B1206817492246174BDA
:1035500082F0B0DAA06238B1206815492246154BD6
:1035600082F0A8DAE06258B91348FDF79FFA2046C6
:10357000FFF7F2FB204603B0BDE8F0400DF0409AA3
:10358000002120460A460B460091FFF7F5FD346006
:1035900003B0F0BD20A80300BFA80300D8A8030013
:1035A000E5310000F3A80300D531000019A903009C
:1035B000C53100002CA9030001A9030010B5838BBD
:1035C000026C86B09A4204462CDAB0F84C3061683E
:1035D000009300F14E03019300F154030293B0F8FD
:1035E00060302246039300F1640304930068A36CE7
:1035F0006AF0CEDE10B10C48FDF758FA236C204675
:1036000001332364E16DFFF761FCB4F84C204AB14B
:10361000636A196888685968002306B0BDE81040DD
:103620001FF03E9B06B010BD3FA903004B1E0B2BA5
:103630000CD8DFE803F00D0D0D0D0D0D0D060D0D71
:103640000609418FFFF703BFFFF7B8BFFFF70CBFB5
:10365000704700002DE9F047044686B00E9F002019
:1036600004F14E052064A164A4F84C2019460622FA
:1036700004F154090FAE284696E8400508F0D6DA62
:1036800039460622484608F0D1DA94E80300B4F837
:103690004C30E6658DE828021FFA88F30393224632
:1036A000A36CCDF810A06AF073DE10B10B48FDF7E3
:1036B000FDF92046E16DFFF709FCB4F84C204AB152
:1036C000636A196888685968002306B0BDE8F04746
:1036D0001FF0E69A06B0BDE8F08700BF3FA90300DF
:1036E0004B1E70B5044615460B2B46D8DFE803F099
:1036F000494949064949493F49494941436A1A6884
:10370000596890681FF0F4DAAA7894F838309A4231
:1037100002D020463C2103E0AB882BB1204619465D
:10372000BDE87040FFF793BEEE8866B92046A98ACF
:10373000AA69FFF7B5FD01232046C4F88037BDE82C
:103740007040FFF7A5BE228CB2420DD3A16A0D4A8C
:103750000868126880684968002A08BF32461FF06E
:103760009FDA0723636370BD20460121D8E73E211D
:10377000D6E7BDE87040FFF721BFBDE87040FFF716
:1037800073BE70BD98390400F0B500F1640589B0CE
:1037900004460E46174605A82A464FF4E16106F096
:1037A00033DF394605A806F04FDF0C22206604F10E
:1037B000140301920290A18920463246009303959A
:1037C000FFF748FF09B0F0BD38B5436A04461A68F0
:1037D0000D46906859681FF08BDAAB7894F8382062
:1037E0009A4201D0204643E0A98821B12046BDE895
:1037F0003840FFF72CBEAB79190641D594F88417F1
:1038000003F07F039942204631D1298BEA69FFF703
:1038100047FD224B1B6823B12046298BAA79FFF76D
:103820007FFB2B893BB92046E18B94F83820FFF7CA
:10383000ABFF03230FE0228C9A420ED3A16A184AF1
:10384000086812688068002A08BF1A464968002381
:103850001FF026DA0723636303E020460121FFF708
:10386000F6FD94F88437013384F8843738BD01D2EB
:103870003C21BCE7E18BFFF787FF0323636338BD7F
:103880002046298BEA69FFF70BFD01232046C4F887
:103890008037BDE83840FFF7FBBD00BFDC140400F3
:1038A000983904004B1E10B50B2B15D8DFE803F038
:1038B000181818181806180B181818101146BDE813
:1038C0001040FFF781BF3E21BDE81040FFF7BFBDAC
:1038D000BDE81040FFF772BEBDE81040FFF7C4BD61
:1038E00010BD00000C2938B5044615461ED8124BF1
:1038F0008B4020D44FF480038B400FD44FF00073E3
:103900008B4013D5836A1A68596890681FF0F0D904
:1039100020462946BDE83840FFF756BFC18B90F8D6
:103920003820FFF731FF0323636338BD2046BDE82D
:103930003840FFF799BD38BD0000B87D70B58CB038
:1039400004460E461546202101AA09A806F05CDEB1
:103950000021324609A82B4606F040DF20469DF89C
:1039600028100B9A06F022DF0CB070BD2DE9F04153
:1039700092B004460E461746202104AA0CA8984689
:1039800004F1640506F040DE0CA87F219DF8642058
:10399000FFF7D4FF2A460FA84FF4E16106F034DEAA
:1039A0009DF83430394600930E9B42460193BDF892
:1039B00068300FA802931B9B0393BDF8603006F09C
:1039C000BFDE04F1140300930B23206601930290E1
:1039D000A1892046324604F10E030395FFF73AFE13
:1039E00012B0BDE8F081000030B5D0F8785785B04E
:1039F000B5F5806F04464FF0000205D8ADB2D0F89F
:103A00007C07134611460CE00D4B80F874271B8889
:103A100023B1C18B15465918104602E018461D46C1
:103A200019460093A37E0390019394F83820002355
:103A300020460295FFF79AFF0223636305B030BD6D
:103A4000D81404007FB50C2904461E46089D2BD8C7
:103A5000194B8B402ED44FF400138B4014D44FF0ED
:103A600080738B4020D5C36A1A68596890681FF02C
:103A70003FD9204631462A46FFF74AFC204604B08B
:103A8000BDE87040FFF7B0BF00213D23438790F8A9
:103A900038200091837E029101933D230391FFF72B
:103AA00065FF0823636305E0204604B0BDE870406D
:103AB000FFF7DABC04B070BD0000D87E2DE9F043FA
:103AC00095B004460F469046202106AA0EA89946B6
:103AD00004F1640606F098DD0EA87F219DF87020A1
:103AE000FFF72CFF324611A84FF4E16106F08CDDA0
:103AF0009DF83C3000250193109B39460293BDF898
:103B00007430424603931E9B11A804934B460095C4
:103B100006F0AEDD04F1140300930D23206601933B
:103B20000290A18920462A4604F10E030396FFF76E
:103B300091FD15B0BDE8F0837FB5436A04461A686D
:103B40000D46906859681FF0D3D894F83810AB78B8
:103B50008B4206D020463C2104B0BDE87040FFF700
:103B600076BC94F87437D4F878279D02521BB2F5CE
:103B7000806F02D892B2002002E04FF480620120F0
:103B8000D4F87C67751910B143F0800301E003F0AD
:103B90007F03A07E8DE8250020460022FFF78EFFE0
:103BA0000423636304B070BD4B1E10B504460B2B99
:103BB0002DD8DFE803F0313131310631310C3131AC
:103BC000122720461146BDE81040FFF7B5BF20463A
:103BD0003E21BDE81040FFF73ABC94F8743794F8E2
:103BE00075279A420AD1636A1A68596890681FF06B
:103BF0007FD82046BDE81040FFF74ABC013384F867
:103C0000743710BD2046BDE81040FFF7D7BC2046F2
:103C1000BDE81040FFF728BC10BD4B1E10B5044690
:103C20000B2B27D8DFE803F02B2B2B2B062B2B0C91
:103C30002B2B122120461146BDE81040FFF77CBF18
:103C400020463E21BDE81040FFF701BC94F87537CF
:103C5000002B14D1636A1A68596890681FF048D81D
:103C60002046BDE81040FFF713BC2046BDE81040D9
:103C7000FFF7A4BC2046BDE81040FFF7F5BB10BD20
:103C8000F0B51F4685B04B1E044615460A9E0B2B09
:103C900059D8DFE803F05D5D5D5D065D23315D377A
:103CA0004D53436A1A68596890681FF021D8D4F8B8
:103CB000783733B12046294605B0BDE8F040FFF71C
:103CC0003BBF3D226287A27E94F838108DE80C003D
:103CD00020463D220293FFF7F1FE39E0C36A1A68DD
:103CE000596890681FF004D820463946324605B01E
:103CF000BDE8F040FFF70CBB3E2105B0BDE8F04049
:103D0000FFF7A5BB436A1A68596890681EF0F0DF98
:103D10003D236387A37E94F8381000932046002348
:103D20003D2201930293FFF7C9FE082363630FE06E
:103D3000D0F8783763B10223436309E005B0BDE8EA
:103D4000F040FFF73BBC05B0BDE8F040FFF78CBB8F
:103D500005B0F0BDF0B593B004461D460E461746BB
:103D6000202104AA0CA806F04FDC0CA800212A464A
:103D700004F16405FFF7E2FD2A460FA84FF4E16164
:103D800006F042DCBDF860309DF834200093199BAA
:103D9000394601930FA80E9B06F0A6DC0A22206686
:103DA00004F1140301920290A18920463246009347
:103DB0000395FFF74FFC13B0F0BD000030B54B1E6C
:103DC00085B0044615460B2B63D8DFE803F0670681
:103DD0001B675267676767676767FFF721FA304BB2
:103DE000B4F86C071A78511C19700090D4F8700759
:103DF000A37E019084F83820E18B2046FFF7AAFFCC
:103E0000012344E0AB7880F83830281DFEF7E6FF48
:103E1000034650B93B2262872A7B94F838100092FF
:103E2000019002903B2220462EE0298A6A692046B2
:103E3000FFF79CF82068FEF7C5FF054628B120462D
:103E400005B0BDE83040FFF7CFBD2068FEF7C0FFEA
:103E5000034680B2E18B0090A07E591801902B465A
:103E600094F83820204602950395FFF77FFD05233F
:103E70000DE03C23A9784387837E80F838100093B7
:103E80000023019302933C22FFF718FE082363638B
:103E900004E005B0BDE83040FFF7E6BA05B030BD3C
:103EA0009439040010B50C461146FFF7B5F838B147
:103EB00090F83800C4EB000CDCF1000040EB0C0083
:103EC00010BD0000014B1860704700BFD4140400FF
:103ED000014B1868704700BFD414040010B50C4C97
:103EE00088B00194039000240491ADF81420194681
:103EF00006220DF11600029407F098DE20461821E4
:103F000001AA07ABFFF7D0FA079808B010BD00BFB1
:103F1000A93400007FB5064B06AA42F8183D1821C7
:103F20006A460023FFF7CEF8012007B000BD00BFAE
:103F3000C530000010B5044686B020B90848FCF72B
:103F4000B5FD204609E0074BADF804100093182199
:103F50006A460023FEF77EFF012006B010BD00BFB9
:103F600020A80300552E000010B5044686B020B9E5
:103F70000848FCF79BFD204609E0074BADF804100C
:103F8000009318216A460023FEF756FF012006B071
:103F900010BD00BF20A80300392E000010B5044654
:103FA00086B020B90848FCF781FD204609E0074BA0
:103FB00006AA42F8183D18216A460023FFF71AF9AD
:103FC000012006B010BD00BF20A80300F53100009D
:103FD000024B586019600120704700BF9C390400F3
:103FE00008B500210822024807F0A8DE012008BD1C
:103FF0009C39040030B5154687B0044620B90F48F7
:10400000FCF754FD204616E00D4B019108460021B7
:1040100000930CF0B7DD029068B12946019A07F0D1
:1040200005DE204618216A460023FFF7BBF90298F7
:104030000CF0E6DC012007B030BD00BF20A8030073
:10404000A533000030B5154687B0044608B101B16C
:1040500022B90D48FCF72AFD002013E00B4B01911B
:104060000846002100930CF08DDD029050B12946E6
:10407000019A07F0DBDD204618216A460023FFF78E
:1040800073F9012007B030BD20A803006933000098
:1040900010B5044688B020B90648FCF707FD204655
:1040A00005E0182101AA07ABFEF7B0FE079808B09B
:1040B00010BD00BF20A8030010B504468AB020B987
:1040C0000848FCF7F3FC20460AE0074C07910892E9
:1040D0000993182101AA07AB0194FFF7B3F8012057
:1040E0000AB010BD20A803004532000010B50446F8
:1040F00086B020B90748FCF7D9FC204608E0064BFB
:104100000191009318216A460023FEF773FE0120F7
:1041100006B010BD20A80300F52D00002DE9F043E6
:104120003C299BB0074615461C4603D04B2940F05E
:10413000928014E01E68936823B1052B40F08B80B9
:104140000C2400E00B243046FEF720FE002800F08F
:1041500082800022009230462146134679E05B8837
:104160001A0A42EA032398B208F090DE229E8046A3
:10417000103E16A8314604F1100206F039D8002886
:1041800069D016A802A906F0A5D8002863D09DF82A
:1041900009300A3B032B5ED8DFE803F0020B050869
:1041A0000121032407E00121052404E00021062465
:1041B00001E00021042405F11800FEF72DFF8146DF
:1041C00080B19DF80A2090F838309A4237D09DF897
:1041D00009300A2B33D100231AAA42F8403D182196
:1041E000FEF770FF9DF809300A2B01D00C2B32D15D
:1041F0001A4B1B680BB91A481EE00123119395F85E
:104200002F304FF0000905F1180106220DF1520080
:10421000CDF8409013931297ADF8508007F006DD6B
:104220004846182110AA19ABFFF73EF9DDF8649053
:10423000B9F1000F03D10B48FCF738FC0BE04846FE
:1042400002A93246FEF714FE002300934846214699
:1042500002AAFEF791FF1BB0BDE8F083D41404005E
:1042600053A903007AA9030038B50D4613460C681C
:104270002A460C21A047012038BD10B50A460C681B
:1042800000230C21A047012010BD0000C36910B518
:10429000052B044603D8054A52F823309847236A71
:1042A000E2699A4218BFE36110BD00BFFCA9030098
:1042B0000421FFF7EBBF028938B50D4642F43063A5
:1042C0000E2A8CBF4FF480524FF4005204461A431A
:1042D000006801212B461DF0EDF93DB163691A68B4
:1042E0005968906800232A461EF0DADC0423236212
:1042F00038BD38B50D46002104460A4600680B4615
:104300001DF0D8F93DB163691A68596890680023B7
:104310002A461EF0C5DC0523236238BD028938B564
:104320000D4642F430630E2A8CBF4FF480524FF496
:10433000005204461A4301212B4600681DF0BAF9C9
:1043400063691A685968906800232A461EF0A8DC41
:104350000223236238BD000010B10C2900D112B92C
:104360000448FCF7A3BB91884181D2880221828155
:10437000FFF78CBF20A8030010B10C2900D112B99F
:104380000248FCF793BB0121FFF780BF20A8030080
:1043900010B10C2900D112B90248FCF787BB0021EB
:1043A000FFF774BF20A80300002110B50A46044699
:1043B0000B4600681DF07EF963691A6859689068B9
:1043C0001EF096DC00236362236210BD11B1042944
:1043D00002D87047FFF7E8BF0148FCF767BB00BF92
:1043E000ADA80300034631B1032907D9042902D13E
:1043F0004189FFF760BF1846FFF7E8BF70470346E3
:1044000051B103290BD9042906D1818909B1FFF7DC
:1044100070BF4189FFF74FBF1846FFF7D7BF7047FE
:104420001FB5002104460A460B4600681DF042F9FC
:10443000218B0022013189B24FF0FF3302920392A7
:10444000206821830122009301931DF06DF901235F
:1044500023621FBD30B50022044685B013460221F9
:1044600000681DF027F9218B04F10E02013189B299
:104470004FF0FF330325039220682183012200932C
:10448000019302951DF050F9636A2562013363625E
:1044900005B030BD032908D0042902D0012902D17A
:1044A0007047FFF7D7BFFFF791BF70474B1E032B35
:1044B0000AD8DFE803F002020B0B012901D1FFF754
:1044C000C9BF4189FFF7F7BEFFF780BF704708B546
:1044D000FCF71CFB0323B0FBF3F303EB4303C01A0D
:1044E0000130642343434FF6FC70184008BD4B1E57
:1044F00010B50446032B12D8DFE803F0151502159A
:10450000436ADB0603D1BDE81040FFF789BFFFF720
:10451000DEFF01462046BDE81040FFF7FFBEBDE8C4
:104520001040FFF753BF10BD4B1E10B50446032BC0
:104530000BD8DFE803F00E0E020EFFF7C8FF0146AE
:104540002046BDE81040FFF7E9BEBDE81040FFF788
:104550003DBF10BD38B5044610B10C2900D122B9B9
:104560000F48BDE83840FCF7A1BA436900251A6836
:104570004560596890681EF0BBDB63691A6859682A
:1045800090681EF02FDC616908220B6858680CF0F7
:10459000D7DF204629462822BDE8384007F0CE9BC9
:1045A00020A803000C29F8B514461D4601D102B11C
:1045B00023B91C48BDE8F840FCF778BA1A4E002130
:1045C00019602822304607F0B9DB0123606824898E
:1045D000F38106233382311D0B23306034817382D3
:1045E0001DF042F8002802DA1048FCF75FFA0E4C82
:1045F00030680F4922460F4B81F05CDA0746706144
:1046000048B90D48FCF752FA204639462822BDE841
:10461000F84007F0939B20460021FFF737FE2C60FF
:10462000F8BD00BF20A80300A439040014AA0300A9
:10463000B142000030AA030001A903001FB5074BD7
:104640000190ADF808100020694603AA0093FFF717
:104650000BFE00B1039805B000BD00BFA5450000EA
:104660001FB5044620B90748FCF720FA204606E0AB
:10467000054B04A941F80C3D0022FFF7F5FD04B0FD
:1046800010BD00BF20A80300554500001FB504461B
:1046900020B90648FCF70AFA204605E0044B04A9B5
:1046A00041F80C3DFFF7E9FD04B010BD20A8030060
:1046B000914300001FB5044620B90648FCF7F6F9FF
:1046C000204605E0044B04A941F80C3DFFF7D5FD59
:1046D00004B010BD20A80300794300001FB50446B4
:1046E00020B90848FCF7E2F9204608E0064BADF88F
:1046F000081001A90193ADF80A20FFF7BEFD04B030
:1047000010BD00BF20A80300594300004068704757
:10471000452906D19368082B03D002480321FFF7EF
:10472000B5BD7047A439040000487047CC39040077
:10473000044B1B78012B02D100200070704744F01D
:104740009DBB00BFA4380400044B1B78012B02D191
:1047500000200070704744F079BC00BFA43804000A
:10476000044B1B78012B02D100200070704744F0ED
:1047700055BC00BFA4380400044B1B78012B02D1A8
:1047800000200070704744F032BC00BFA438040021
:1047900000F12F022F2A08B5034606D9054820212B
:1047A000054A07F035DB034808BD044A434252F886
:1047B000230008BD1A3A0400CC098900B0AA0300FE
:1047C0001FB50390029109E0032210238DE80C002D
:1047D00003A902AA074B08F041DC38B903980299F3
:1047E000DD2207F001DE04460028EDD1204604B0AA
:1047F00010BD00BF500689002DE9F8430446B0F80B
:1048000046008946002800F088800129B4F84880D5
:1048100006D10023B4F84A609C461A4619461BE0AC
:10482000626BA36E1169CE1AF604F60DB9F1030F8F
:104830000CD15269D31ADB04DB0C1B099E4209D050
:104840005F1E451E3D40B446AEB205E00023B446AF
:104850001A4601E03346B446B8F1000F03D1B4F86C
:104860004A50B54258D386422AD92D4D676BAB6169
:104870003B68D4F868E0AB627B68C5F804E0EB62A3
:10488000BB68B4F84AE02B63FB68C5F80CE06B63C7
:104890003B692861AB637B69C5F814C029626A6211
:1048A000EB636420C5F80090C5F80880EE610CF059
:1048B0007BDB3B692B647B696B640CF05BDAA8647F
:1048C0004346002015E0E26B180112189168516808
:1048D00014499160E26B1018E26CC160002152F83B
:1048E000230042F82310B4F846200133013A134064
:1048F0009BB2B34201D00028E5D0B4F84620B4F80A
:104900004A80511EA4F84830C3EB08030B40D21A6A
:10491000013A6260BDE8F8834046BDE8F88300BF15
:104920003C3A0400EFBEADDEF0B5B0F8464085B0CD
:104930001546002C35D0466B836E32697669D21AE3
:10494000F31AD204DB04D20DDB0D9A4202D05A1EB8
:10495000661E3240B0F8483021E0C66C06EB830793
:1049600056F823608E4217D1C26B013C4FF0404194
:10497000A34202EB031292683D60039104BF4FF023
:104980005041039103A90091A98A2A690191C16B41
:104990000AF09ADF002006E00133661E334093429E
:1049A000DBD14FF0FF3005B0F0BD000010B5436A19
:1049B0000B480C4C00782478012806BF0A48006890
:1049C0000320012C07D003F4F8531B0A012414FA26
:1049D00003F3013B01E0054B1B680860136010BD49
:1049E000943A0400883A04008C3A0400903A040097
:1049F00013B512200C4600901046022B94BF1A46A5
:104A00000022054B0BF038DCD4F8003643F4806309
:104A1000C4F800361CBD00BF188C8800F0B5002318
:104A200089B00E46174605930693079303AA04AB75
:104A30004FF40061044614F01DD806AB0546009300
:104A400007AB0193204631462A4605AB0BF0ACDBA1
:104A50002046294632463B46FFF7CAFF069B2046C2
:104A60000093079B314601932A46059B0BF0DEDB42
:104A700020460399049A13F0B7DE09B0F0BD000098
:104A8000044B1B78012B02D100200070704744F0CA
:104A900099BE00BFA438040070B5064610F0E4D9F2
:104AA000E0B1304613F03CDE00250D4AAB581BB197
:104AB00052195068984720B10835202DF5D10124AE
:104AC00000E00446304610F06BD9A04206D03046D4
:104AD00001212246BDE8704010F0EC9970BD00BF86
:104AE000BC3A0400034B187018B1034B1A6801322A
:104AF0001A60704789040000DC3A0400F8B50446E7
:104B000010F0B2D900283CD0204613F009DE204630
:104B100010F082D9A56E6DB1D4F8CC3004EB8303CC
:104B2000D3F8D420236E9A4203D1606EA84705467D
:104B300000E00025204613F007DC00210646204651
:104B400013F086DF10F042DA48B100270D4ABB5857
:104B500013B1D219506898470837202FF6D1204654
:104B6000314613F075DFE36E5BB1D4F8CC2004EB73
:104B70008202D2F8D410226E914202D1606E294690
:104B80009847F8BD9C3A040013B5144642690A2AB6
:104B90000FDD29B1012905D002290AD1842202E0C2
:104BA000782200E07C2200930021234613F0D2DB20
:104BB00001E04FF0FF301CBD2DE9F047044613F033
:104BC000C9DC00210A460B460746204613F0E6DC06
:104BD00000210A460B4606462046FFF7D5FF002275
:104BE0000546022120461346FFF7CEFFD4F8788011
:104BF000814616E0D8F808308BB198F80420002AD6
:104C0000D8F80C200CBF284638460CBF4946314620
:104C100010400A40904202D0D8F800109847D8F8C7
:104C20001080B8F1000FE5D1204641462A462B46B8
:104C3000BDE8F047FFF7A8BF43692DE9F743222BF2
:104C400005460E4640F3A48013F0F6DD002800F080
:104C50009D80072E00F29C80AB68B3F5026F0BD0ED
:104C600040F6040293420AD1EB680C2B94BF4FF03C
:104C700000084FF0010804E04FF0010801E04FF098
:104C800000085FFA88F8B8F1000F0AD128464FF4FF
:104C900000614246D5F8CC9013F0CADE044638B91C
:104CA00077E0D5F8884014F5405472D04FF00009F1
:104CB0000121284613F046DFD4F8303123F00403F5
:104CC000C4F8303101239E42C4F8303104D9042E97
:104CD0000CBF0D23092300E00D23C4F83031D4F8B4
:104CE0003031012E23F00103C4F8303101D9042EF4
:104CF00036D1FF2700214FF4E2723B462846009749
:104D000013F028DB2223009300214FF4EE723B4680
:104D1000284613F01FDB2823009300214FF4E6728E
:104D20003B46284613F016DB8123009300214FF405
:104D3000E8723B46284613F00DDB174B0021009329
:104D40004FF4A4724FF0FF33284613F003DB2846DC
:104D500000214FF4A6724FF6FF73009713F0FADAB2
:104D6000D4F8303123F0700343EA0616C4F83061FA
:104D7000D4F8303123F00803C4F83031B8F1000F13
:104D800007D12846494613F063DE02E0044600E0FE
:104D900000242046BDE8FE830100FF002DE9F0411C
:104DA0008F8A04460D2F154698460E694CDD327BDE
:104DB000737B43EA0223B3F5C06F03DB06F10C03F8
:104DC000002114E0152F0ADD234806F10E0106220A
:104DD00006F016DF18B906F11403012107E0236875
:104DE0001E4A1B681E485968FBF760FE2CE01878C5
:104DF0005A7842EA0022B2F5014F0CD1981DF219FF
:104E0000904203D9236817481B6811E018795A7932
:104E1000043342EA002240F60600824218D10233EF
:104E2000F61ABF191C2F09DC08D023680E481B682E
:104E300059680A4A3B46FBF739FE05E02B60002023
:104E400088F80010BDE8F0814FF0FF30BDE8F08138
:104E50004FF0FF30BDE8F081E4B888004E128900C1
:104E60007D1289009D128900E9128900F8B50B9B1B
:104E70001646089D23B1996811B101201DF0B8DFD5
:104E8000092E044602D00D2E27D11AE0079B2E7959
:104E9000042B25D900F12807384607F02DDC30B166
:104EA00023683846196806224F3106F0BFDE072E08
:104EB00019D8B01C04EB80002946042206F0B6DEA7
:104EC00009E02868072811D8023004EB800000218F
:104ED000042206F033DF0020F8BD6FF01600F8BDA5
:104EE0006FF00D00F8BD6FF01C00F8BD6FF01C00F6
:104EF000F8BD0000F7B50368048907461D684669D8
:104F0000B4B91CF0DFD8002846D01720224623462B
:104F1000224900940194FCF7C9FC4FF0FF33009341
:104F2000284606F1E4012246234608F05FFB33E001
:104F30009989686861180CF041DB3B68044660B9E8
:104F40009A68174801329A601B68164A1B685968AC
:104F500003B0BDE8F040FBF7A9BD9B89A28A0069B8
:104F6000F968C018D31AA3823A89206106F05EDE80
:104F7000E38C002243F48063E384172013460A493C
:104F800000920192FCF792FCB2682846214603B0D9
:104F9000BDE8F0400DF0DCBB03B0F0BDE403000061
:104FA00074158900D6158900E8030000436A10B51E
:104FB000998901F0C0018A09002957D0032A12D12A
:104FC0005A69002A52D090F88420997C91424DD998
:104FD0000132D2B280F88420997C914246D15B693B
:104FE000C0F81C3110BD012A07D190F8293123B136
:104FF000002380F8843080F8293190F82731002B85
:1050000034D0436A90F88420997CDC7C61438A42E6
:1050100002DC013280F8842090F80B2112B390F862
:1050200084109A7C91421DD25A689B68C0F81C215A
:10503000C0F82031002380F80B3110BD997C90F826
:10504000844051438C420BD1D0F81C1180F80B21C5
:105050004900C0F81C11D0F820114900C0F82011F7
:10506000013200E00122D97C8A42E7DD10BD000058
:1050700038B5C569044645B1C36833481B685968EB
:10508000FBF714FD6FF0190038BD1822406A06F0D6
:10509000CDDD626A1368022B09D0E2682B481268E2
:1050A00051680222FBF702FD6FF0240038BD5368FF
:1050B00015600BB93C23536053684FF47A714B432E
:1050C000536093680BB9782393609368591C03D09D
:1050D0004FF47A714B43936053694FF47A714B43A9
:1050E0005361537C0BB9537401E05A2B25D8626A83
:1050F000137C13B90223137401E0032B1DD8636AD8
:105100005A7C22B11A7C3021013A4A433432A4F845
:1051100008219A7C12B90A229A7401E0642A0CD8F8
:10512000626AD37C13B90223D37401E0052B07D83C
:10513000636A02221A60002038BD6FF01C0038BD7F
:105140006FF01C0038BD00BF87188900BF188900A8
:1051500010B50446FFF78CFF40B9636A9A89D106FF
:1051600004D522F010029A816FF0010010BD0000FA
:10517000F8B5C369044617460BB90E464DE0C3683F
:1051800028481B685968FBF791FC6FF01900F8BDBF
:10519000B4F91020E3680F2A09DD1B68224859681A
:1051A00001321023FBF782FC6FF01C00F8BD586839
:1051B0004C210CF0BBD9054648B9E3681B481B6875
:1051C0004C225968FBF772FC6FF01A00F8BD002101
:1051D0004C2206F0B3DD3146382205F1100006F00E
:1051E00025DD0123AB716B6B3836383F5B0704D587
:1051F00094F80A31013384F80A316B6BD80605D470
:1052000094F80F3143F0020384F80F31238A626966
:1052100019B2013342F821502382372FB8D8002029
:10522000F8BD00BFEE1889002619890057198900BA
:10523000C3692DE9F041044617460BB90D464EE00F
:10524000C36829481B685968FBF730FC6FF01900E8
:10525000BDE8F081B4F8422095F80580B32AE368F0
:105260000AD91B68214859680132B423FBF71EFC98
:105270006FF01C00BDE8F081586810210CF056D981
:10528000064650B9E3681A481B6810225968FBF7B4
:105290000DFC6FF01A00BDE8F0810021102206F02D
:1052A0004DDD301D0622294606F0C0DCEB88DA060B
:1052B000738105D494F80F3143F0010384F80F3162
:1052C00008F00F03103304EB83035A68083532608B
:1052D0005E60B4F84230083F0133A4F84230072F33
:1052E000B8D80020BDE8F0817B198900B919890080
:1052F000E419890038B504460220186094F80C318E
:10530000834208D094F82731DB0704D5A36A0B60E9
:1053100094F80A3107E094F80A31A06A242505FBC5
:1053200003030B60002394F80A01B4F910108842BB
:1053300007DA94F80C11022903D094F82711C80752
:105340000FD4B4F8421039B194F80C11012903D0EC
:1053500094F82711890704D4616A898911F0240F10
:1053600000D001331360636A5B7C53B1636B43B954
:10537000136833B1E368B4F8081158680CF0D6D854
:105380006063606B30B1B4F808210021BDE838409B
:1053900006F0D49C38BD000038B5C569044645B157
:1053A000C36820481B685968FBF780FB6FF0190041
:1053B00038BD01212A461DF063D801212A46204626
:1053C0001DF024D820461CF0E7DF20461CF0F6DF55
:1053D000606A2946182206F0B1DC6583E561A4F80D
:1053E000405084F8845084F8295184F8865084F819
:1053F0008550621902350023802DA2F88830F8D13B
:1054000084F88730A4F8083184F80A3184F80B3125
:1054100084F80C3184F80D3184F80E3184F80F31A2
:10542000002038BD041A8900F8B504460D4600294D
:1054300035D090F80A7124267B1C5E43C36806634E
:10544000314658680CF072D80546A06250B9E3683E
:105450001A481B6832465968FBF728FB25636FF032
:105460001A00F8BD0021226B002506F067DC2E46ED
:105470000EE0636953F826104B6B5B0707D5A06AF3
:10548000242202FB05001031013506F0CFDB013686
:10549000B4F910309E420CDABD42EADB09E0816AC1
:1054A00049B1C368226B58680CF04AD8A5622846F7
:1054B000F8BD0020F8BD0846F8BD00BF3E1A8900BF
:1054C0002DE9F84F044693460D460BF053DC626A13
:1054D00082461368022B5ED1E369012B09D0E36891
:1054E0002F481B685968FBF7E1FA6FF01900BDE817
:1054F000F88F2B600023AB60127C2C214A43ABF168
:105500000C0B05F10C07BBFBF2FB984633E00436AD
:105510004FF000091BE0F3791BB9304607F0ECD8D7
:1055200090B938462822314606F080DB338D4FF49F
:105530007A723B85F36AC3EB0A03B3FBF2F37B8514
:10554000AB682C370133AB60303609F10109636A6F
:105550001B7C9945DFDBA16BB4F808210B6808F1CF
:105560000108A363E36858680BF0EADFB4F8403041
:10557000013BA4F84030D845A66B01DA002EC6D115
:105580002EB901236B603046E663BDE8F88F00203A
:105590006860BDE8F88F6FF01900BDE8F88F00BFB4
:1055A0006B1A89002DE9F74F984690F80C310446A4
:1055B000012B0D4616469DF830704BD844E0B8F1EB
:1055C000000F02D1002F00F01681636953F82B9071
:1055D000B8F1000F0ED06DB199F80630022B09D149
:1055E000042308F1FF38AA4689F806305FFA88F8E4
:1055F0002C350CE02FB326B399F80630082B20D1B8
:105600000123013FB24689F80630FFB22C364946E5
:105610000622504606F00ADB99F8102009F1140121
:105620008AF807200AF1080006F000DBB9F8083014
:105630008AF80630B9F80A900023AAF82890AAF848
:105640002A300BF1010B01E04FF0000BB4F91030E0
:105650009B45B4DB94F80C31022B04D104F14003D8
:10566000A346019302E0002BF8D05CE0DBF8449005
:1056700051E0B8F1000F01D18FB9BCE075B1D9F894
:105680000C305BB11A78022A08D1042208F1FF38E5
:10569000AA461A705FFA88F82C350DE05FB356B34E
:1056A000D9F80C303BB31A78082A24D10122013FE3
:1056B000B2461A70FFB22C3609F104010622504698
:1056C00006F0B4DAD9F80C300AF108001A7B8AF82F
:1056D0000720D9F80C10103106F0A8DAD9F80C30F0
:1056E0005B888AF80630D9F80C309B88AAF82830F5
:1056F0000023AAF82A30D9F80C1051B10B78012BED
:1057000007D1E368302258680BF01ADF0023C9F88C
:105710000C30D9F80090B9F1000FAAD1019B0BF120
:10572000040B9B45A2D194F80C31002B63D1636A22
:105730009B895A075FD54BE0B8F1000F01D187B9BB
:1057400059E06DB199F80C30022B09D1042308F10E
:10575000FF38AA4689F80C305FFA88F82C350CE03F
:1057600037B32EB399F80C30082B21D10123013F18
:10577000B24689F80C30FFB22C3609F1040106223A
:10578000504606F053DA99F818200AF108008AF812
:10579000072009F11C0106F049DAB9F80E308AF841
:1057A0000630B9F81030AAF828300023AAF82A30B9
:1057B00099F80C30012BD9F8003017D16268914567
:1057C000E26809D15068636049463C220BF0B8DEBC
:1057D000D4F80490CB460BE050684946CBF8003033
:1057E0003C220BF0ADDEDBF8009001E0CB469946A1
:1057F000B9F1000FA0D1BDE8FE8F00002DE9F843FC
:10580000D0F8343104460E461BB11A680AB15D68FF
:1058100001E0D4F8205194F80C31012B58D894F8B9
:105820002731DB0754D5002D52D06F1C4BD14FE0F0
:10583000636953F827309A79042A2DD1DA68B21AAD
:10584000AA423ED35A6BD00623D408229A7194F808
:10585000863094F80D11013384F8863094F829319C
:10586000013943F00103C9B284F8293184F80D11DC
:1058700039BB20460A4653231CF0A0DE28B1E3685A
:105880006D481B685968FBF711F9FF2384F80E3146
:1058900017E001229A7114E0022A12D1DA68B21AD2
:1058A000AA420ED301229A7194F88520013A84F815
:1058B00085205B6BD90604D494F80D31013B84F844
:1058C0000D31013700E00027B4F910309F42AFDB03
:1058D000D4F838311BB11A680AB15F6801E0D4F816
:1058E000207194F80C31022B01D0002B5FD194F879
:1058F00027319A075BD5002F59D07B1C57D0A04683
:1059000004F14009D8F844504BE0E968002947D039
:105910000B78042B32D18B68F31ABB4240D36B89CE
:10592000D80623D408230B7094F8863094F80D1110
:10593000013384F8863094F82931013943F00203A9
:10594000C9B284F8293184F80D1149BB20460A46B2
:1059500053231CF033DE28B1E36837481B685968CD
:10596000FBF7A4F8FF2384F80E3119E0E368302236
:1059700058680BF0E5DD0023EB6011E0022B0FD13E
:105980008B68F31ABB420BD301230B7094F885305C
:10599000013B84F8853094F80D31013B84F80D31DA
:1059A0002D68002DB1D108F10408C845AAD194F89A
:1059B0000C31002B3DD1636A9B89590739D5656845
:1059C00035E0636A6A699B68B21A9A422ED32B7BD0
:1059D000042B1DD108232B7394F80D1194F88630F5
:1059E00001390133C9B284F8863084F80D11E9B960
:1059F00020460A4653231CF0E1DD28B1E3680F4836
:105A00001B685968FBF752F8FF2384F80E310DE04C
:105A1000022B0BD101232B7394F88530013B84F8C2
:105A2000853094F80D31013B84F80D312D68002D3F
:105A3000C7D1BDE8F88300BFD61A8900EA1A8900E9
:105A40004B682DE9F0473F2B04460E4600F3958046
:105A5000002501F108082F461DE0D6F88830DA0746
:105A600005D518F805002AF051D990B989E038F821
:105A70000510E26841F430630E298CBF4FF4805169
:105A80004FF40051D2F85001194364F0C3D80028F4
:105A90007BD00137023573689F42DEDB04F188005A
:105AA00000218022002706F049D984F887707368A6
:105AB000002B45D14DE038F8070093F88810884254
:105AC0001ED205F1440A05F14500521B520004EBB9
:105AD000400004EB4A0106F00BD938F8073043F4D4
