:1000000080F140B882F154BD82F160BD82F16CBDD7
:1000100082F17BBD82F18ABD82F199BD82F1A8BDDA
:1000200080F140B882F154BD82F160BD82F16CBDB7
:1000300082F17BBD82F18ABD82F199BD82F1A8BDBA
:10004000FAFAFAFAFAFAFAFAFAFAFAFAFAFAFAFA10
:10005000FAFAFAFAFAFAFAFAFAFAFAFAFAFAFAFA00
:10006000FAFAFAFAFAFAFAFAFAFAFAFAFAFAFAFAF0
:10007000FAFAFAFA4442505064221E0000001800B6
:1000800000000000DFF844804FF00009B8E8FF00EE
:10009000A9E8FF00EFF300804FF01F0120EA010004
:1000A0004FF0D10140EA010080F30089DFF820D051
:1000B000EFF300804FF01F0120EA01004FF0DF0155
:1000C00040EA010080F30089024800472000180040
:1000D000E0141E009D2C180000000000000000002D
:1000E0000000000000000000000000000000000010
:1000F0000000000000000000000000000000000000
:1001000000000000000000000000000000000000EF
:1001100000000000000000000000000000000000DF
:100980006137180073E61A00CFE61A0069E01A0012
:10099000E1DD1A002DDD1A0075DE1A00EBDB1A000E
:1009A000C7DC1A0049E71A004FE71A00ADDB1A004E
:1009B000C7DB1A0015E11A00D5DB1A0015E61A008C
:1009C000C1DB1A00ADE41A00092C1800052C180030
:1009D000012C1800F92B1800613718002D2C180075
:1009E00061371800F1A91800CFA81800F1A8180065
:1009F000D5A81800EDA81800F5A818006137180050
:100A00008DA9180051A91800A1A918000DA9180056
:100A1000C9A91800C9851800818818006137180015
:100A2000C3A31800FF9E18001BA4180081A0180083
:100A30002DA4180053A71800FDAC1E0055A51800E2
:100A4000D79F180043A01800BFA71800C1A718001F
:100A5000EFA31800FBAC1E006137180061371800C7
:100A6000DBCF180031CA1800CBCF1800C5981C0086
:100A7000613718006137180061371800778E1A0047
:100A8000613718007B8E1A00613718006137180033
:100A90006137180061371800613718006137180096
:100AA0006137180061371800613718006137180086
:100AB00061371800613718006137180037421B0092
:100AC0006137180061371800613718006137180066
:100AD000613718006137180061371800290A1B00B8
:100AE000370C1B00BFF51A00E7F31A00CFF31A000A
:100AF00071F51A0015F61A00C9F31A006DFE1A00F6
:100B0000C3FC1A000F0F1B00D70E1B006137180023
:100B10009D0E1B006137180061371800EF411B0064
:100B2000FB691B007F6A1B0045691B0065631B0096
:100B3000BF751B0091751B002F641B0049641B00CF
:100B4000316A1B00C16F1B0089681B002B691B00E9
:100B5000F9691B00956A1B0093631B00CD671B009E
:100B60009B641B0087681B003D6A1B006F641B00B1
:100B70004B681B0061371800613718006137180097
:100B80006137180011E61C0043DE1C0089D11C00EF
:100B9000E1F61C002FDD1C000FDC1C00F1D51C0051
:100BA00089E71C00CFE71C00C3E71C00C7D11C006D
:100BB000CBED1C00BDE41C00613718006137180044
:100BC00051D71C00F9D61C004FD61C0009D61C00BA
:100BD00003D61C008BF11C006137180081021D0038
:100BE000B3D51C00E3EB1C0019EB1C00ABD21C00BE
:100BF000B5EA1C006137180099021D0093021D0020
:100C00006137180053D51C00B3D11C00BDD11C00A6
:100C100057EC1C00B1D11C00BFDD1C00BDDD1C0069
:100C2000F1E41C0025E41C0061371800BDEA1C003B
:100C3000D1FD1C00B3FD1C00BFFD1C007DD51C00B8
:100C40008FE01C00BDE31C00F1E21C0009DC1C006D
:100C500061371800ABD11C0061371800E1E31C00BC
:100C60006137180071021D000FD61C009BEA1C00A2
:100C70008FEA1C00B5D51C00C1EA1C0061371800C2
:100C80006137180061371800613718007DF21C00C9
:100C900099D71C0089DC1C00ABDB1C0081DB1C002D
:100CA0006137180061371800DFDB1C000BDB1C000C
:100CB000C1D71C00D3DB1C0047EF1C0061371800B4
:100CC0006137180061371800CB0B1B00190C1B0093
:100CD000610B1B00AD0B1B009B501D0053511D00F1
:100CE00027511D0061521D006D551D0033551D001B
:100CF000E3501D0039501D0047511D00F7501D00E5
:100D000059501D005F501D006137180061371800F1
:100D1000A17B1D00E7821D0029791D0061371800A5
:100D200061371800037E1D00337E1D00597F1D00B2
:100D3000A77B1D0061371800DD7A1D0061371800A0
:100D400061371800C1831D003D8E1A00BB8D1D0048
:100D5000CF911D00A7901D0073911D0029911D00CA
:100D6000DB911D006D911D003F8E1D0097901D00B1
:100D700071611B00C7601B007D5C1B00190B1B0011
:100D800061371800A1401800498C1800558C1800D4
:100D9000818F1800E5DB1800011E1900A1F9180069
:100DA000F52F18003D311800753218006D3C180001
:100DB000C53C18006137180061371800613718000A
:100DC0006137180061371800613718006137180063
:100DD0006137180061371800538318002185180007
:100DE000DB581E00935A1E00818C180061371800D2
:100DF000978E18009B8F1800A18F18006190180023
:100E0000613718002DAA1800C9AC180019AE1800D7
:100E1000EDCF18009DD01800EDD7180065D8180048
:100E2000613718009DD81800A9D81800BBD8180041
:100E3000A5D8180031DB180061371800EBDB18006B
:100E400017DC1800A1DC1800FBDC180011DD18000D
:100E50002BDD180041DD180041DE1800C1DE18004E
:100E60002DDF18004BDD18006DE118005DDF180064
:100E7000F7DC1800C5F11800F9F11800E5F21800C8
:100E800051F71800BDF918001DFB180029FB1800C8
:100E900031FB180045FB180077FB180099FB180080
:100EA00075FC1800290E19008D0E1900091619007D
:100EB000091A190061371800B92D19003D2E1900C3
:100EC000C13919005F3B19003D3D190089481900DF
:100ED000A1481900134B1900314B19003F4B190061
:100EE000394C1900934C1900AF4C1900FD5C1900E6
:100EF000F56019006D7E19007B801900ED821900E4
:100F00003D871900898B1900018E1900619F190016
:100F1000C9A51900BDAD1900A5B419006DBD190012
:100F20006137180061371800613718006137180001
:100F300061371800A91E1A006D4D1A00454D1A00A0
:100F400039501A006137180089591A00095B1A00D4
:100F500045631A00717B1A0015751A0077751A001F
:100F6000818E1A0059951A0079951A0025961A0053
:100F7000613718006137180081A01A00CFBF1A002E
:100F8000FDE81A0063F01A007BF01A0081F01A00E5
:100F90008DF01A0095F01A0051F11A0065F11A004F
:100FA00095F11A00BDF11A00F7F11A0061111B004A
:100FB000470B1D004B0B1D00610B1D00A90B1D00F5
:100FC000CD0B1D000D0C1D00610C1D00410D1D0001
:100FD00005461D004F6F1D000101010000000008C3
:100FE000200000000002000004000000FF030000D9
:100FF0005000000001000000010000000A07080185
:1010000000000000080000000004000001040000CF
:1010100004000400080001000000000000000000BF
:1010200000000000000000000000000000000000C0
:1010300000000000000000000000000000000000B0
:1010400000000000000000000000000000000000A0
:101050000000000000000000000000000000000090
:1018000088F1F0B80000000088F189B800000000FD
:1018100087F1CCBF0000000087F115BF0000000079
:101820006FF1C2BB000000006DF1F6BF00000000C8
:1018300060F1CCBA0000000060F1EDB900000000DA
:1018400082F129BA0000000082F17CBA0000000099
:1018500081F198BE0000000081F1F2BD000000009F
:1018600081F16CBF0000000081F13BBB0000000073
:101870007BF18AB9000000007BF104BB000000008E
:1018800070F162BC0000000084F1A6BD0000000001
:101890006FF144BC000000007CF1B3BB000000000D
:1018A0007AF120BC000000007AF1DFBD00000000EA
:1018B0007AF1F5BD000000007AF14ABD0000000099
:1018C0007DF1B3BA000000007EF13EB800000000D8
:1018D0007CF1CCBB0000000075F14ABD00000000A7
:1018E00075F140BE0000000075F1ACBB00000000C7
:1018F0007FF10BBC0000000077F148BA0000000047
:101900007DF1FDBA000000007DF139B80000000053
:1019100071F128BB0000000071F161BC0000000003
:101920007CF198BD000000007AF17EBF000000004D
:1019300070F1CCBB000000006EF158BF0000000049
:101940006FF10CB8000000006EF19BBD00000000BC
:101950006EF19ABC000000006EF171BC0000000046
:101960006EF184BC0000000076F1BBB900000000FD
:1019700079F16CBF000000006DF1B4BC0000000004
:101980006DF132B9000000006CF134BF00000000BE
:101990006EF156BE000000006EF1D0BA00000000EB
:1019A0006EF146BA000000006EF1D6BA00000000E9
:1019B0006DF1A2BF000000006EF10EB90000000042
:1019C0006DF16ABE000000006DF1D5BB00000000A3
:1019D0006AF188BA000000006DF16CBE00000000E2
:1019E0006DF190BA000000006AF160B900000000DB
:1019F0006EF174B8000000006DF154B800000000F2
:101A00006DF1B8B8000000006CF149BD00000000A5
:101A10005AF10EBC000000006BF100BE0000000097
:101A20006BF112B9000000006AF124BF0000000051
:101A30006AF14ABE000000006AF1D0BB000000005D
:101A40006AF196BD000000006CF186BC0000000049
:101A50006CF13ABF000000006BF160BD00000000B7
:101A60006BF107BD000000006AF1C8BB0000000078
:101A70006AF16CBB000000006AF16DBA0000000062
:101A800069F162B80000000067F134BE0000000098
:101A900075F1D5BA0000000065F174BB00000000CC
:101AA00065F16CBD0000000065F126BC000000007F
:101AB00064F113BF0000000064F12FB900000000C2
:101AC00063F198BC0000000063F1D4BA000000008C
:101AD00062F1C7BF0000000062F1D2BD000000004B
:101AE00070F16EB90000000064F154B8000000000D
:101AF00063F1F8BF0000000063F1CEBC00000000FD
:101B000063F12CBD0000000063F14BBC000000003D
:101B100063F17AB80000000062F160BE00000000CE
:101B200063F16EB80000000062F192BE0000000098
:101B300062F190BE0000000062F1CCBC0000000029
:101B400062F1DCB80000000066F112BA000000008B
:101B500061F11CBB000000005DF124BE000000002C
:101B60005DF1D9BD000000005DF140B9000000004A
:101B70005EF1FEB8000000005CF1F6BD0000000060
:101B80005EF136B8000000005CF13BBC00000000D4
:101B90005DF1E4BE000000005DF18FBC00000000BC
:101BA00075F1CCBD0000000072F1F6B90000000034
:101BB0005DF16EBF0000000062F1B2BA00000000EB
:101BC0005CF163BD000000005CF109BD0000000095
:101BD0006EF1A4B8000000005CF1E0BD0000000060
:101BE0005CF1D2BD000000006BF1FFBB0000000003
:101BF0006BF103BC000000005AF152BE000000006F
:101C00006CF132BA0000000072F14CB80000000024
:101C10006CF1E8B9000000006BF172B9000000003F
:101C200069F1F8BF0000000067F1BABF00000000D2
:101C300068F15CBB000000006BF1AABA0000000074
:101C400059F12CBD000000005AF15FBB00000000FC
:101C50005BF150BA0000000059F1E8BF000000003D
:101C600058F17EBE0000000058F149BB00000000A2
:101C700057F1AEBF0000000057F16BBF000000003D
:101C800058F16DBC0000000058F1C0BB000000001E
:101C900058F10AB80000000058F118B80000000020
:101CA00057F178BE0000000057F19DBF0000000012
:101CB00057F18ABF0000000057F13DBD0000000051
:101CC00057F116BC0000000057F176BB0000000081
:101CD0005AF190B8000000005AF1A0B800000000CE
:101CE00067F132BD0000000071F141B80000000052
:101CF00070F1FABF0000000067F19EBA000000001A
:101D000066F1F7BA000000006BF1D2B900000000E4
:101D100069F15ABA0000000066F148B900000000FD
:101D20006EF13EBB000000006EF104B9000000003F
:101D30006FF138BB000000005BF17DBD00000000CA
:101D40005CF118BF000000006DF170B900000000E8
:101D50006DF13CBD000000006DF17EBC0000000094
:101D60005BF1F4BE000000005DF100BA000000006D
:101D70006AF1ACBE000000005CF1A1BE00000000F2
:101D800067F1DBBF0000000065F1BAB80000000099
:101D900065F1B7B80000000067F138BB0000000033
:101DA0006AF18EBA000000006AF1D4BF00000000A2
:101DB00069F1CBBC0000000069F135BD00000000F6
:101DC00069F158BB000000006DF12CBE000000005E
:101DD00069F126BB0000000069F160BA0000000054
:101DE00069F16EB80000000068F14ABD0000000013
:101DF00069F118B9000000006CF1E8BA00000000B9
:101E00006CF19FB8000000006BF1FABE000000000A
:101E100069F1B1B90000000067F1A2BF0000000045
:101E20006DF184B80000000066F1EBBF0000000017
:101E30006CF115BE0000000068F1EDBC0000000070
:101E400067F1C0BA000000005AF18CBB000000002E
:101E500064F161BB0000000062F129BE00000000D7
:101E600067F1E6BE0000000067F1FCBC0000000066
:101E700067F147B80000000066F16CBE000000008A
:101E800066F11DBF0000000066F1FBBD0000000010
:101E900066F121BD0000000067F1F9BF00000000FD
:101EA00067F1F5BF000000006BF1E2BF0000000029
:101EB00069F1FCB9000000005EF1CABD000000003D
:101EC0005EF120BD000000005EF128BD00000000B2
:101ED0005EF116BD000000005BF13EBD0000000099
:101EE0005BF1FDBC0000000064F1E8BA00000000F6
:101EF0005DF1E5BA000000005DF109B900000000E5
:101F00005DF17EBB000000006AF12CBF0000000004
:101F100068F1C0BC0000000068F186BB0000000052
:101F200000000000000000000000000000000000B1
:101F300000000000000000000000000000000000A1
:101F40000000000000000000000000000000000091
:101F50000000000000000000000000000000000081
:101F60000000000000000000000000000000000071
:101F70000000000000000000000000000000000061
:101F80000000000000000000000000000000000051
:101F90000000000000000000000000000000000041
:101FA0000000000000000000000000000000000031
:101FB0000000000000000000000000000000000021
:101FC0000000000000000000000000000000000011
:101FD0000000000000000000000000000000000001
:101FE00000000000000000000000000000000000F1
:101FF00000000000000000000000000000000000E1
:10200000F408000004000000001818005409000043
:102010000400000008181800040B00000400000071
:1020200010181800DC0B000004000000181818003D
:10203000D4FD02000400000020181800643F0300D3
:102040000400000028181800F0B10400040000008B
:1020500030181800B4B2040004000000381818004A
:10206000D86F00000400000040181800D87200006B
:1020700004000000481818007475000004000000F7
:1020800050181800007600000400000058181800CE
:10209000C87700000400000060181800B47C00003D
:1020A00004000000681818005081000004000000BF
:1020B000701818009C8700000400000078181800B1
:1020C000BC03060004000000801818004045000012
:1020D000040000008818180030FF0200040000000F
:1020E0009018180028E50000040000009818180057
:1020F000A407010004000000A0181800EC0801006B
:1021000004000000A8181800D82B010004000000EB
:10211000B01818004C2C010004000000B81818007A
:10212000A871010004000000C0181800707A0100B6
:1021300004000000C81818003C7F010004000000E3
:10214000D0181800A889010004000000D818180051
:10215000DC89010004000000E0181800988D0100DF
:1021600004000000E8181800288E01000400000098
:10217000F0181800809D010004000000F8181800F5
:10218000DCA901000400000000191800D4CD0100F2
:102190000400000008191800E8CE01000400000047
:1021A00010191800FCD101000400000018191800D3
:1021B000A4D301000400000020191800E0D701009A
:1021C0000400000028191800D8DC010004000000F9
:1021D00030191800BCD202000400000038191800A1
:1021E00088D40200040000004019180060D80200E2
:1021F000040000004819180038DE02000400000046
:10220000501918006CDF0200040000005819180073
:10221000C0DF02000400000060191800D0DE0100D9
:102220000400000068191800D0E301000400000059
:1022300070191800E8F60200040000007819180070
:1022400038F90200040000008019180080FB020029
:102250000400000088191800D423030004000000C3
:102260009019180094240300040000009819180025
:10227000BC24030004000000A0191800384103002A
:1022800004000000A8191800442503000400000001
:10229000B01918002027030004000000B819180026
:1022A000FC42030004000000C0191800B0500300F5
:1022B00004000000C8191800503303000400000097
:1022C000D01918005C33030004000000D81918006E
:1022D0007C34030004000000E01918009835030066
:1022E00004000000E819180018370300040000007B
:1022F000F0191800086A030004000000F81918001B
:102300000473030004000000001A1800587303004F
:1023100004000000081A1800204B0500040000000B
:10232000101A1800789A030004000000181A180008
:10233000B49C030004000000201A1800449F03000E
:1023400004000000281A180084A8030004000000FC
:10235000301A1800F8A9030004000000381A180009
:10236000A4AB030004000000401A1800E8B8030002
:1023700004000000481A180038BB030004000000E5
:10238000501A180038BC030004000000581A180046
:1023900020BD030004000000601A1800A4BD030063
:1023A00004000000681A180040C103000400000087
:1023B000701A180028D4030004000000781A1800CE
:1023C000F8E3030004000000801A1800E4F503009D
:1023D00004000000881A18005CEA010004000000F4
:1023E000901A1800D037040004000000981A180052
:1023F000EC37040004000000A01A18008C4204000E
:1024000004000000A81A1800804B0400040000001B
:10241000B01A1800AC4D040004000000B81A1800EF
:102420002457040004000000C01A1800A05C040037
:1024300004000000C81A18007062040004000000C4
:10244000D01A18002464040004000000D81A1800F0
:10245000B0EB010004000000E01A1800EC68040072
:1024600004000000E81A1800B86C04000400000022
:10247000F01A18000072040004000000F81A180096
:10248000F072040004000000001B180068760400CD
:1024900004000000081B1800D877040004000000A6
:1024A000101B1800447A040004000000181B1800D8
:1024B000E47D040004000000201B1800187E0400C6
:1024C00004000000281B18005C7F040004000000CA
:1024D000301B1800B87F040004000000381B1800EF
:1024E0008C83040004000000401B1800A8FB0300BC
:1024F00004000000481B1800249F04000400000092
:10250000501B180050DC040004000000581B180089
:10251000A0DC040004000000601B180044E6040076
:1025200004000000681B1800F4E904000400000027
:10253000701B1800CCEF040004000000781B18008A
:10254000F008050004000000801B1800B8F004002B
:1025500004000000881B18001C0F05000400000088
:10256000901B1800D811050004000000981B1800EB
:10257000A0FD010004000000A01B18000448020098
:1025800004000000A81B18007CF1040004000000F7
:10259000B01B1800908C040004000000B81B180049
:1025A0004C26050004000000C01B1800842605000E
:1025B00004000000C81B1800BC5902000400000001
:1025C000D01B180008F2040004000000D81B1800FB
:1025D000E4F2040004000000E01B18008C5F02001D
:1025E00004000000E81B1800106002000400000056
:1025F000F01B18009C45050004000000F81B1800A3
:10260000C464020004000000001C180028650200D9
:1026100004000000081C180094650200040000007B
:10262000101C18007869020004000000181C180033
:10263000ACAA060004000000201C1800D46C0200A4
:1026400004000000281C180094030400040000008B
:10265000301C18007470020004000000381C1800C0
:10266000907D050004000000401C18004880050013
:1026700004000000481C1800DC8105000400000074
:10268000501C18007482050004000000581C18003B
:102690001097050004000000601C180094980500C5
:1026A00004000000681C180060A60500040000007B
:1026B000701C18003CAA050004000000781C1800DB
:1026C000D4B2050004000000801C180048B50500C5
:1026D00004000000881C180038BA0500040000003F
:1026E000901C1800C4BD050004000000981C1800D0
:1026F00038BE050004000000A01C18000CC0050036
:1027000004000000A81C180094C00500040000008C
:10271000B01C1800FCC0050004000000B81C180024
:10272000F8C7050004000000C01C180020C90500FF
:1027300004000000C81C180008D6050004000000B2
:10274000D01C180050D6050004000000D81C18004A
:10275000EC77020004000000E01C1800B4F805004B
:1027600004000000E81C1800E0F905000400000067
:10277000F01C1800787B020004000000F81C180010
:102780002C86020004000000001D1800A086020034
:1027900004000000081D18008087020004000000EB
:1027A000101D18004089020004000000181D1800C8
:1027B0000828060004000000201D18009C2B0600BD
:1027C00004000000281D1800808A02000400000098
:1027D000301D180038FE040004000000381D1800E9
:1027E000ECFE040004000000401D1800D88D02001B
:1027F00004000000481D1800143906000400000001
:10280000501D1800CC39060004000000581D1800A7
:1028100080FF040004000000601D1800181B050064
:1028200004000000681D1800149603000400000056
:10283000701D1800A000050004000000781D18009D
:102840000C0E040004000000801D1800D0110400CC
:1028500004000000881D1800041304000400000098
:10286000901D18005015040004000000981D180069
:10287000349C060004000000A01D18006C8B0600AC
:1028800004000000A81D1800B8A6060004000000FF
:10289000B01D1800C8AB060004000000B81D1800E9
:1028A000C0AE060004000000C01D18006C3C030010
:1028B00004000000C81D1800D8B206000400000083
:1028C000D01D1800CCB4060004000000D81D18006C
:1028D000E8B7060004000000E01D18006CBC06000C
:1028E00004000000E81D18006CC30600040000008E
:1028F000F01D1800049B020004000000F81D1800E1
:10290000709F020004000000001E1800C0A1020019
:1029100004000000081E180048A80200040000007F
:10292000101E180034AD020004000000181E18002C
:1029300064AE020004000000201E1800A8FD06007E
:1029400004000000281E180094AF020004000000DC
:10295000301E1800B4B0020004000000381E180039
:1029600078B1020004000000401E1800A84B0500CA
:1029700004000000481E1800EC17040004000000CA
:10298000501E1800B0BE020004000000581E1800BF
:10299000A4E0060004000000601E1800A4E4060085
:1029A00004000000681E1800D4F3060004000000B4
:1029B000701E180098F6060004000000781E18002B
:1029C00074F7060004000000801E1800BCFA060020
:1029D00004000000881E180010FC0600040000001F
:1029E000901E1800BCC0020004000000981E1800D1
:1029F00094C1020004000000A01E18007CC2020066
:102A000004000000A81E18000CC30200040000000F
:102A1000B01E18009899070004000000B81E1800A6
:102A2000B49B070004000000C01E1800CC9B0700E8
:102A300004000000C81E1800E09B0700040000000E
:102A4000D01E1800C402050004000000D81E1800A3
:102A50002403050004000000E01E1800B8CB0200AB
:102A600004000000E81E1800A4B0070004000000E5
:102A7000F01E180028B5070004000000F81E18001A
:102A800020BB070004000000001F18007CCE0200DD
:102A900004000000081F18004CD2060004000000CB
:102AA000101F180090D4060004000000181F180022
:102AB0002DE81FC0AFF31F8101B400B586B0FFB48D
:102AC00080EA000000F1010000F063B82DE81FC0AB
:102AD000AFF31F8101B400B586B0FFB480EA0000F7
:102AE00000F1020000F055B8F54681B0EE462DE841
:102AF0001FC0AFF31F8101B400B586B0FFB480EAF8
:102B0000000000F1030000F044B8F54682B0EE4644
:102B10002DE81FC0AFF31F8101B400B586B0FFB42C
:102B200080EA000000F1040000F033B8F54681B0FF
:102B3000EE462DE81FC0AFF31F8101B400B586B08B
:102B4000FFB480EA000000F1050000F022B8F5466D
:102B500081B0EE462DE81FC0AFF37F8701B400B50A
:102B600086B0FFB480EA000000F1060000F011B862
:102B7000F54681B0EE462DE81FC0AFF37F8701B464
:102B800000B586B0FFB480EA000000F1070000F055
:102B900000B86C4604F140040ACCEFF300820FB495
:102BA000A4F10C04216003F040016F4607F15807BF
:102BB00066465D4654464B46424612B0FCB48CB065
:102BC000062802D1402900D061B60A4C2468002CA6
:102BD000FED06846A04773B60CB07FBC80468946DD
:102BE00092469B46A446B6468FB0FFBC08B0BDE9EE
:102BF00000C00000642C180062B6704764B67047CD
:102C000061B6704772B6704772B6704719EE1C1FF6
:102C1000044A41EA020109EE1C1F034909EE3C1F68
:102C200070470000010000000000008019EE1D0F39
:102C3000704715EE100F704716EE100F704715EE27
:102C4000300F704716EE500F7047000000EE000680
:102C500000BF00BF00BF00BF00BF7047DDBAADBB03
:102C60000000000000000000010000000000000063
:102C700000000000FFFFFFFFFFFFFFFF024A116897
:102C80001060084670470000642C1800024A116862
:102C90001060084670470000E4141E0000F0A0F821
:102CA0003A4801683A4A02EA01023A4941580A6838
:102CB000394B03EA02030F2B00F00580012B03D0F0
:102CC00001F10401F3E7FEE701F10801334B03EAE8
:102CD0000203334CA342EAD100F02EF9804600F003
:102CE0003BF9814649462F4BCB5800F0D1F8794645
:102CF000B14240F1028000F07BF940462A49086069
:102D000048462A49086000F0C3F829490C6029495F
:102D10000D6029490E6029490F603D462848294920
:102D20004FF0000204C08142FCD8A5F10405AD4675
:102D3000009D6FEA05044FF0100365FA03F5AC42FD
:102D400040F017804FEA14444FEA84041E4D2C6073
:102D50006B46A3EB04031D4E1D4D2E60002C00F0AE
:102D600008801A4D05EB040680CB80C5AE423FF7C4
:102D7000FBAF81B068464FEA10104FEA001085465D
:102D800014488646144C2047FEE700000000001857
:102D9000F8FF0000FC0000000F00000000FF0F0023
:102DA000003E0800080400006C2C1800702C18006D
:102DB00058141E0050141E0054141E005C141E00F3
:102DC000D0211E00482C1E0070141E00D8761F0053
:102DD00064141E00882D1800DF8918000000000010
:102DE00010EE900FC0F30721002900F02580264C3B
:102DF00080EA00000ECC002900F00B8006EE120FD6
:102E000006EE511F06EE112F06EE913F00F1010074
:102E1000F0E7002800F010801C4A11EE101F41EA74
:102E20000201BFF34F8FBFF36F8F01EE101FBFF38F
:102E30004F8FBFF36F8F00BF704700BFAFF30080AD
:102E400037000000000000000F0300003700000002
:102E50000000001005030000390000000000002001
:102E6000050300003B0000000000004005030000D7
:102E70003D0000000000008005030000000000008D
:102E80000000000000000000402E180001000000BB
:102E900041464A681346214C03EA04034FEA1313E0
:102EA0001F4C02EA040216461A441E484FF0000561
:102EB00008644B6C1C4C03EA040303F101031B4C34
:102EC0001B4603FB04F31D4400F101009042EFDBBD
:102ED000002D3FF4F8AE164D414632464FF0000645
:102EE000104808644B6C104C03EA040303F101031F
:102EF0000E4C1B4603FB04F31E4400F101009042FC
:102F0000EFDB19EE112F0B4902EA01021446A2EB86
:102F1000060205EB0207164670470000F0000000AD
:102F20000F000000000000003F0000000020000033
:102F300000000C0000F0FFFF0868054A01F10401E1
:102F400002EA0002052AF7D1024A00EA02007047AD
:102F50000F00000000F0FFFF0868074A01F10401BC
:102F600002EA0002052AF7D1044A1042F4D0044ACA
:102F700000EA0200704700000F000000800000001F
:102F800000F0FFFF0C490D4A0D4B0E4C0E4D0F4E3D
:102F90000F4F10488046104881461048824610481E
:102FA0008346104884461048104886464FF000007B
:102FB000B0FBF0F00560704701010101020202025E
:102FC00003030303040404040505050506060606B9
:102FD0000707070708080808090909090A0A0A0A69
:102FE0000B0B0B0B0C0C0C0C0D0D0D0D0E0E0E0E19
:102FF000FEE7000000487047D0211E0000487047DF
:1030000024221E00004870474C221E0000487047D2
:103010003C221E0000487047AC221E00004870474A
:103020000C221E00074B002282611B681A680AB935
:10303000586005E019B95A6890615860704782611C
:10304000186070472C221E0008B5827A084B42F0A7
:10305000010282721A6822B153682BB191689847B5
:1030600008BD4FF0FF3008BD4FF0FF3008BD00BF76
:10307000C4221E00074B1B68186850B15A68904262
:103080004FF0000202D11A605A60704781691960DE
:10309000826170472C221E00054B1B68186830B1F6
:1030A00082691A601A89013A1A8100238361704784
:1030B0001C221E00094B1B681A680AB9586005E0FB
:1030C00019B95A681061586001E0026118605A89A4
:1030D00001325A8100225B681A61704720221E006B
:1030E000094B1B68186868B15A6890425A8903D125
:1030F00000211960596001E001691960013A5A81A3
:1031000000230361704700BF20221E0038B5094B21
:103110001C22002105461C687FF624FF23892268B3
:1031200012B96560256002E06268956165600133EF
:10313000238138BD1C221E0007F01EBD01232DE98E
:10314000F04F8B40B3F5001F28BF4FF4001385B03C
:10315000042B38BF04230330039320F00304FFF74C
:103160004DFF3E4B00221646D3F800B094463C4B30
:1031700001921B680293134628E0D1F800A0A245F3
:1031800023D301F10807039A07EB0A08C4EB0805EB
:10319000C2F1000909EA0505BD4216D3C7EB0509CE
:1031A000B9F1070F01D8BD420FD1C4EB0A075F4543
:1031B00004D3029A934208D2954206D38FB12E4689
:1031C000BB4684460B46CDF804800846416800297A
:1031D000D3D1019A4BB9234A1846116801311160C5
:1031E00038E042462E4684460B46921B111B10299E
:1031F00009D918683219401A0839186031515968CC
:1032000051605A6022461968891A03D15A68CCF86D
:1032100004200CE0072905D8124B00201A6801325F
:103220001A6017E05A50A1F108021A605B180E48A4
:10323000002219685A6002688A1802600B48016807
:103240000831016089180A4A1068814203F10800B8
:1032500088BF116005B0BDE8F08F00BF2C101800CA
:1032600058141E00281018004C1018007410180074
:1032700038221E0038B5194B054650F8082CA0F12D
:10328000080419688A1A1A60154B1A68083A1A60F5
:10329000FFF7B4FE02E0A34203D218464368002BB6
:1032A000F9D155F8082CA9188B4205D119685B682B
:1032B0005218083245F8082C6360036803F10802CD
:1032C0008218A24207D155F8082C9B1808330360D6
:1032D0006368436000E04460002038BD4C10180073
:1032E0007410180010B50021044640227FF63AFE03
:1032F000104B2360104B6360104BA360104BE360D6
:10330000104B2361104B6361104BA361104BE361C1
:10331000104B2362104B6362104BA362104BE362AD
:10332000104B2363104B6363104BA363104BE36399
:1033300010BD00BF00001800C69B1D00C89B1D00EB
:1033400048141E0050141E00D0211E00D0211E0063
:10335000482C1E00482C1E00985A2000B49B2000C8
:1033600050822100D8001800000918000000180041
:103370000000180070B590B06846FFF7B3FF2A4D03
:103380002978002935D10898099C241A06D02246AC
:103390007FF6E8FD0898214684F696FE23492246EA
:1033A000234801247FF604FE0022224B1A702C7061
:1033B00084F6C4FD204B196831B10B7823B11F4B43
:1033C0002246186805F0AAFD1D4B196831B10B782B
:1033D00023B11A4B0122186805F0A0FD194B19689A
:1033E000F1B10B78E3B1154B0122186805F096FD99
:1033F00016E0154E317899B90A980B9C241A06D01C
:1034000022467FF6AFFD0A98214684F65DFE084805
:1034100022460E497FF6CCFD00232B70012333702A
:1034200084F68CFD10B070BDBC221E00584608000A
:10343000BBA61D0048221E007010180054221E005A
:10344000C0221E00B8221E0060221E000E9208003C
:10345000014B1868704700BF50141E00014B1868DC
:10346000704700BF54141E0008B5836A33B10023AF
:10347000836280F82030103084F652FE012008BDAF
:10348000024B1A6801321A60704700BF58221E00B2
:10349000014B1868704700BF58221E002DE9F04FFD
:1034A0009DB00AA8FFF71EFFFFF7D2FF924EDFF88C
:1034B000A882DFF8A8A2914F0446FFF7CFFF0A9B2E
:1034C0000B9A0F99D21A0E9B0D9DC3EB010911990E
:1034D000109BCB1A0C99C1EB050B93443268D8F8BA
:1034E000001002F50052521A4A44D2185A441419D4
:1034F000DAF80050241882480994824C2268AD18EA
:103500003A680893C5EB020CCDF81CC07FF650FD5D
:10351000089B09F57E710193073103F57E7307332C
:103520000BF57E729B0A890A073202930823920ADE
:103530000091594603934B4673487FF639FD336833
:103540002068DDF81CC03968019000F57E70039397
:1035500003F57E730CF57E760730073301F57E7236
:103560000736800A9B0A0732B60A920A0290049331
:103570006346664800967FF61BFD099905F57E7245
:10358000073201F57E730733920A9B0A294600939E
:103590004646099B5E487FF60BFD5E4B5E4F5F48DB
:1035A00019687FF605FD39685D4B0A689A4203D0B9
:1035B0005C487FF6FDFC25E01A910B4604E0156897
:1035C000131D5748854203D11A461BAB9A42F6D3C6
:1035D0001AAD336800932B4653481A927FF6E8FCE5
:1035E0003B681A9AE91AD31A50480A4600937FF6A4
:1035F000DFFC33681A9A591B9B1A4D480A46009300
:103600007FF6D6FC4B4B1B68C3B11D78CDB15989F1
:10361000DD8901FB05F61A8938354D4306F57E73C1
:10362000073345489B128DE8280005F57E73073364
:103630009B12029333467FF6BBFC03E01D461E46F9
:1036400000E02E463D4B1A68C2B11378B3B15189E0
:10365000D08901FB00F31289583048432D1801909E
:1036600000F57E7003F57E77073007378012BF12B2
:103670000290F618324800977FF69AFC314B1A6890
:1036800052B3137843B35189D08901FB00F31289F7
:10369000583048432D18019000F57E7003F57E7771
:1036A000073007378012BF120290F618264800979D
:1036B0007FF67EFC2368DAF80020991B9B185B1BC1
:1036C00003F57E70073001F57E72800A07320090A4
:1036D000920A1E487FF66CFC1D4B1D6884F62AFE7C
:1036E0000446FFF7D5FE29462246034619487FF6D1
:1036F0005FFC1DB0BDE8F08F38221E002C101800B2
:10370000EEA61D004C101800FDA61D003CA71D00D4
:1037100081A71D002810180018221E00BCA71D003C
:103720004B415453D7A71D00FBA71D0032A81D0015
:1037300057A81D00701018007DA81D00C0221E0093
:10374000AAA81D00B8221E00DCA81D0011A91D009A
:10375000381018003BA91D0044221E0074101800E8
:1037600008B5714603487FF623FC0120BDE80840F8
:1037700000F084BB63A91D00014B0360704700BFCC
:10378000CC221E0038B50D460446FFF73BFC01680D
:10379000034631B105485A687FF60AFC4FF0FF3006
:1037A00038BD80E83000084638BD00BF72A91D0052
:1037B00010B50C46FFF726FC036813B1406821469C
:1037C0009847002010BD38B504460D46FFF71EFC93
:1037D00003681BB980E83000184638BD4FF0FF3051
:1037E00038BD10B50446FFF711FC036813B14068FB
:1037F00021469847002010BD38B504460D46FFF716
:1038000009FC03681BB980E83000184638BD4FF04A
:10381000FF3038BD10B50446FFF7FCFB036813B159
:10382000406821469847002010BD38B504460D4633
:10383000FFF7F4FB03681BB980E83000184638BD79
:103840004FF0FF3038BD38B505460C46FFF7E6FBB4
:1038500003681BB14068294622469847002038BDBE
:10386000024B1B680BB1586099607047C4221E0060
:10387000034B1B681868D0F1010038BF0020704767
:103880002C221E0010B50446FFF7F2FF18B12046A7
:10389000FFF7DAFB28B120460021BDE81040FFF712
:1038A000C1BB10BDF8B506460768FFF7F5FB054636
:1038B000002853D02B4B1B68186805F0ECFA04461F
:1038C00088B984F611FDB0F5804F08D9264B224601
:1038D0004FF4F061186807F00DF8044618B928464F
:1038E000FFF714FC13E07B6C0820002123F0004359
:1038F0006B601E4B2B61FFF721FC58B92846FFF780
:1039000005FC194B21460122186807F021F86FF0D9
:103910001A00F8BDB368B7F85020A1680360F368D7
:103920004360B6F90630D21AB388CB18686100211B
:103930002A81A281FA7CA360E274B6F90620EB60CA
:103940003B6CD31822462B60094B186880F64CFC60
:103950002846A761FFF796FF0020F8BD6FF015001D
:10396000F8BD00BFC4221E0054221E00ED3918000D
:103970005C221E0010B50BE0FFF77CFB0446FFF74E
:1039800063FB28B120460121BDE81040FFF74ABB88
:10399000FFF76EFF0028EFD010BD0000034B1B683F
:1039A0001B680BB1FFF7E6BF704700BF2C221E005B
:1039B0000D4B70B51C6811E0FFF792FB0646FFF750
:1039C00071FF051E0ADA15F1160F14BF0125022535
:1039D00030460121FFF76EFB257270BD2368002B76
:1039E000EAD1237270BD00BF20221E002DE9F843EA
:1039F000064640690D4690E89000FFF73BFC0F4BF0
:103A00000021186880F67AFB8046A0B10023D0F828
:103A1000189083613046FFF779FB24B14046494650
:103A20003A462B46A047064B1B681B7A1BB1BDE8E4
:103A3000F843FFF7BDBFBDE8F88300BF5C221E005E
:103A400020221E0070B5164D04462E462B685B8959
:103A50007F2B05D9FFF7ACFF2B685B897F2B1CD828
:103A600033680F4D1B6893B92046FFF71BFF10F119
:103A7000160F05D098B11B3006D12B68012201E04A
:103A80002B6802221A7202E006487FF691FA20465D
:103A90000021FFF70FFB002070BD4FF0FF3070BD1D
:103AA00020221E00B3A91D00034B1B681B7A0BB11B
:103AB000FFF77EBF704700BF20221E00014B83E846
:103AC0000300704730221E00034A08B513680BB18B
:103AD0005068984708BD00BF30221E00004870475C
:103AE0001C231E0038B504460D46FFF7F7FF80E89B
:103AF000300038BD2DE9F34107460C4684F61AFC28
:103B000010B9FFF7BDFC3AE0002620460DF1060192
:103B10006A46ADF8066007F10308009684F6BAFF1E
:103B2000009D28F0030840F6380345449D4226D8FE
:103B30002DB328463146FFF701FB0446F8B1314664
:103B4000009A7FF60FFA009BA7812046ED1AE21833
:103B5000C8EB050802EB0803013DA360636862F34C
:103B6000140363601B0C65F34F13E38084F6CCFBF6
:103B70000123A3702080BDF80630E38104E0044BEC
:103B800000241A6801321A602046BDE8FC8100BF9B
:103B900018231E0038B5002105468089FFF7AAFFCB
:103BA000044620B18068AA89A9687FF657F92046A3
:103BB00038BD000038B5058A426801230446C2F3C7
:103BC00014028370C38802EB531283680132C81C4D
:103BD000A18100215B0D5B05D218074B0340D31A6E
:103BE00004F11000A360E38903F40C532822E3815D
:103BF0007FF6B8F9258238BDFCFF010038B50446D0
:103C0000E389590621D4A278013AD2B2A270002ADF
:103C100027D1E27862B1134B204653F82250E9894C
:103C2000FFF7C8FF21462846BDE8384005F066B9D1
:103C3000DA0516D40C4B2046A360218884F680FB5D
:103C40002046BDE83840FFF715BB074B2046A36070
:103C50002188A56B84F674FB2046FFF70BFB2C46EE
:103C6000CEE738BD04261E00EFBEADDE38B50446F3
:103C70001DE0104BA28A1B6853F822500E4A1368AD
:103C80002BB100215068A1822146984770B90B4B97
:103C90001B6843B10A4AE1781B6852F821209A4216
:103CA00001D1FFF701FF2046FFF7A8FF2C46002CAB
:103CB000DFD138BD201018001C231E00C4221E00B6
:103CC00004261E00374B70B51C68266876B1A31910
:103CD0000025A6611D776319187F013584F6AEFEB5
:103CE000B542F8D10A2084F6A9FE47E0D4F89C003A
:103CF000002856D0022184F6FFFD00F00F000128B5
:103D00004FD0022802D1204684F602FE0521D4F8C5
:103D10009C0084F6F1FDC20743D5D4F89C00002135
:103D200084F6EAFDD4F8AC3005461BB1D4F8A800FF
:103D3000E9B298470D2D10D0082D01D07F2D0DD15F
:103D4000A369002B2DD0013B0820A36184F676FEE9
:103D5000202084F673FE08201FE00A25284684F6FA
:103D60006DFEA6690A2D04EB060305D001367F2EF1
:103D70001D77A66102D870BD00221A777F2EA6613A
:103D800004D804F11C00314684F62CFE00233E20AA
:103D9000A361236084F652FE2020BDE8704084F6C3
:103DA0004DBE70BD781018002C4B70B51B68002BF1
:103DB00051D02B4A106800284ED05C69222C07DDB8
:103DC000DA69510604D5274A126802F5C26201E099
:103DD00000F5C2620432222C116807DDDA6952064E
:103DE00004D5204A126802F5C26201E000F5C26201
:103DF0000432126891420AD0222C04DDDB69590694
:103E000044BF184B186800F5C26004300168164BB7
:103E10001868081A20D019601449D1E90023121833
:103E200043F100030126C1E90023114B11491C682D
:103E3000D1E90023E4FB00230F480468203C33FA57
:103E400004F016FA04F4661E002403EA060514437F
:103E5000C1E9004570BD184670BD00BF34101800A0
:103E60004010180064101800AC101800A0101800C2
:103E7000DC0F1800B0101800E00F180010B5044651
:103E800084F682FD0CB100231B60064B00211868EC
:103E900082F66EFE044B1B6803B1984784F674FDEE
:103EA000FEE700BF34101800901018002DE9FF47FE
:103EB0004B4B0446D8620368042B03D1494B186866
:103EC00089F6C0FD2368062B04D104B0BDE8F04795
:103ED00084F6D2B9444B454E656C1B68F169326873
:103EE000C5EB030A42487FF663F8A36C00932246B1
:103EF000636C4FEA9A0A0193A3680293E368039301
:103F00003C48E36C21687FF653F82368042B07D103
:103F1000FEF78FFE0746FEF78FFE0246364808E0A2
:103F2000032B09D1FEF78BFE0746FEF78BFE0246F8
:103F3000324839467FF63CF8E36904F110010093FA
:103F40000027236AB9460193B846636A0293A36ABD
:103F500003932B480EC97FF62BF8A36B04F12C01B9
:103F60000093E36B0193236C029326480EC97FF6FE
:103F70001FF8EB680093244895E80E007FF618F8C8
:103F800005F11001EB69009320480EC97FF610F887
:103F900018E07A59D3070FD5FF2A0DD91C4B9A4246
:103FA00004D902F16243B3F5801F05D81948394698
:103FB0007EF6FEFF09F101090437B9F10F0F08F190
:103FC000010801D8D045E4D13368002043F4806370
:103FD00086E8180004B0BDE8F047FFF74FBF00BF08
:103FE00064221E00341018005C141E00CC221E0037
:103FF000ECA91D0002AA1D0037AA1D004BAA1D0036
:104000005FAA1D0092AA1D00C1AA1D00DFAA1D0003
:10401000C69B1D00FDAA1D002DE9F34198461B4BD0
:104020000D46064614461F681948BF1A7EF6C0FFA3
:1040300031462A46174800252346CDF80080BF08A0
:104040007EF6B6FFA8462E4617E02A59D1070FD5AF
:10405000FF2A0DD9104B9A4204D902F16243B3F5FD
:10406000801F05D80D4829467EF6A2FF08F10108F9
:1040700001360435B8F10F0F01D8BE42E5D100205A
:1040800002B0BDE8F041FFF7F9BE00BF5C141E00AE
:1040900009AB1D0021AB1D00C69B1D00FDAA1D0024
:1040A000014B1868704700BF60141E0041F2F843CE
:1040B000C0F21E031868421C1A607047006890F82E
:1040C00078214369C3F8A021704700BF49F6C8337F
:1040D000C0F21D0370B490F88D5185B0044604AE53
:1040E0000FCB06E90F00002D46D163694FF4137121
:1040F000C3F82011D3F8241101F0030006EB80026D
:1041000052F8102C501C37D0C90801FB02F0421D98
:1041100002EB820C0CEB8C02B2F5005F2CD2B2F5F4
:10412000806F02D3D2084FF4800541F61401900944
:10413000C3F8201102F03F0CD3F82411420142EAE7
:104140000C6C21F07C5020F4F072C3F8242141F66D
:104150001802D3F824114CEA0100C3F82401C3F873
:104160002021D3F8241121F48000C3F82401D3F8CE
:1041700024211543C3F8245105B070BC704700BF1B
:1041800070B50546486C0C4608B106F0AFFB206CD4
:1041900008B106F0ABFB606D08B106F0A7FBA06D9F
:1041A00040B106F0A3FB95F8C508461EF6B285F8A7
:1041B000C5682EB10023636563642364A36570BD85
:1041C000D5F8C008FFF750F9002385F8C468636587
:1041D00063642364A36570BD38B590F884318B4265
:1041E0000D46044606D002294369C3F8A01102D047
:1041F00084F8845138BDD3F8A001C0F30122022A0B
:1042000063D00A2084F684FA6369D3F8A021C2F34C
:104210000121022959D00A2084F67AFA6369D3F879
:10422000A011C1F3012002284FD00A2084F670FAB1
:104230006369D3F8A021C2F3012CBCF1020F44D072
:104240000A2084F665FA6369D3F8A011C1F301204E
:1042500002283AD00A2084F65BFA6369D3F8A021D9
:10426000C2F3012CBCF1020F2FD00A2084F650FAC1
:104270006369D3F8A011C1F30120022825D00A20D8
:1042800084F646FA6369D3F8A021C2F3012CBCF18D
:10429000020F1AD00A2084F63BFA6369D3F8A01102
:1042A000C1F30120022810D00A2084F631FA636994
:1042B000D3F8A021C2F3012CBCF1020F05D00A20D3
:1042C00084F626FA6369D3F8A021D3F8A0318FE7EA
:1042D0000239D0F808356422F0B58CB285B002FB03
:1042E0000434638C5A06054602D5002005B0F0BDA3
:1042F00043F040062146668404F1240704F12A06AF
:1043000002F0FAFA286994F83110228C03230097FE
:10431000019694F830E0CDF808E004F0E5F8608EFE
:104320000028E2D094F83110228C286995F8C93819
:1043300094F830400BB144F08004092300970196B3
:10434000029404F0D1F8D0E7006802F07FBE00BF0D
:1043500038B541690446D0F802385D1CCA6CC0F813
:104360008026C0F8025884F68BF8D4F81258C4F8A6
:10437000700884F685F8D4F88811D4F86C3821F0E8
:104380000802C3EB050C42F001030021C4F8883198
:104390000122C4F86C1884F894210CEB0003C4F8D3
:1043A000123838BDD1F1010338BF0023002A08BFFD
:1043B00043F0010370B5054603B170BD084604F033
:1043C00007FD42F27434C0F21E0401230146284660
:1043D0002568ED18D0F880222560BDE8704003F014
:1043E0008FB900BF38B542F27833C0F21E031C68A3
:1043F000002C4ED094F88D0100284BD1D4F8803198
:10440000002B46D01A68002A3CD00A2084F680F996
:10441000D4F880311968A9B30A2084F679F9D4F860
:104420008031196871B30A2084F672F9D4F88031AA
:104430001A683AB30A2084F66BF9D4F88031602503
:104440001A680A20F2B184F663F9D4F880310A20A0
:104450001A68BAB184F65CF9D4F880310A20196878
:1044600081B184F655F9D4F880310A201A684AB12E
:1044700084F64EF9D4F88031043D1A68E1D142F057
:10448000805201E04FF0805260691A604FF48073EF
:10449000836238BD94F88C11FF2905D0E0680122B1
:1044A000BDE8384006F01EBB0120BDE83840FFF7EC
:1044B000B1B900BFF8B54369D4210446C3F820114F
:1044C000D3F82421500500D4F8BD48F63C0666F325
:1044D0001F4640F6440748F66405C3F8207165F3AB
:1044E0001F45C3F8246140F6480649F20300C3F8AB
:1044F000206160F31F40C3F8245140F64C05C3F817
:104500002051C3F82401C3F82011C3F8242194F8E2
:104510008421022A71D00220C3F8A001D3F8A0217F
:10452000C2F30121022963D00A2084F6F1F86369FD
:10453000D3F8A021C2F30121022959D00A2084F620
:10454000E7F86369D3F8A011C1F3012002284FD026
:104550000A2084F6DDF86369D3F8A021C2F3012CA8
:10456000BCF1020F44D00A2084F6D2F86369D3F874
:10457000A011C1F3012002283AD00A2084F6C8F81D
:104580006369D3F8A021C2F3012CBCF1020F2FD034
:104590000A2084F6BDF86369D3F8A011C1F30120A5
:1045A000022825D00A2084F6B3F86369D3F8A02145
:1045B000C2F3012CBCF1020F1AD00A2084F6A8F82D
:1045C0006369D3F8A011C1F30120022810D00A209A
:1045D00084F69EF86369D3F8A021C2F3012CBCF1E4
:1045E000020F05D00A2084F693F86369D3F8A0215E
:1045F000D3F8A031022384F884314FF47A7084F622
:1046000087F894F8840128B100216269C2F8A011EA
:1046100084F884114FF47A70BDE8F84084F678B8D5
:1046200038B5436904210446C3F82011D3F8242186
:10463000520755D5D0F8B82894250020012AC3F890
:104640002051C3F8240145D018684FF400620025BA
:1046500040F0100101201960C3F82021D3F8241183
:1046600021F08072C3F8242184F89551FFF7B9F83E
:1046700094F88C11FF2984F88D51C4F8905111D011
:10468000E0682A4606F02EFA94F884368BB9204664
:1046900002F0FBFD204603F07BFA204602F0D6FC38
:1046A000002038BD2846FFF7B5F894F88436002B73
:1046B000EDD00022204684F88426FFF7FBFE94F814
:1046C0008431A3F102014A42204642EB0101FFF787
:1046D000FDFCDCE79821C3F82011C3F82421B3E7DF
:1046E0004FF0FF3038BD00BF436970B51A6804460B
:1046F000920740F196805968C90540F192800325E0
:104700004FF428610022C3F82011C3F8245190F817
:10471000845680F89421002D4ED041F6140248F6BC
:104720003C00C3F8202160F31F40D3F8245148F621
:10473000640149F2030245F01F0561F31F41C3F80C
:10474000245140F6440562F31F42C3F8205140F65D
:104750004805C3F8240140F64C00C3F820514FF43B
:104760000065C3F82411C3F82001C3F82421196897
:10477000E06841F01002A1681A60C3F82051D3F834
:10478000242122F08075C3F8245141F64C0505F030
:1047900018FE4FF47A7C48F28042C0F21E02636930
:1047A000C3F82051B0FBFCF0B2FBF0F16046C3F857
:1047B000241183F6ADFF1BE04FF480222B46062127
:1047C000C06805F09CFBD4F80608D4F81668411CB4
:1047D000C4F8061883F654FED4F87038C4F870583C
:1047E000F61A3618C4F8166883F64AFEC4F86C0840
:1047F000D4F88831204623F00102C4F88821FFF75D
:104800000FFF70B194F89C2142B9D4F8A011D4F8EC
:10481000980183F647FC012184F89C11012084F85B
:10482000950170BD10B504682046FFF7F9FE10B978
:1048300084F89C0110BDD4F898010022D4F8A0118E
:10484000BDE8104083F62EBC2DE9F04F054683B03D
:104850004FF47A60AB69D3F830B0DBF8006006F053
:1048600039F8C5F80805002861D00827002406F1AA
:104870005009A0462646019702E0D5F80805019F99
:10488000DBF8083000EB040EDBF804104AF68C323B
:10489000065503EB070A01984346D5F8D878C0F2CD
:1048A0001D020918D5F8080508F10108CEF808908E
:1048B00009F1100900EB040C0CF10100CEF80C100A
:1048C0000721CCF86070CEF810A07EF6B1FBD5F8C9
:1048D000082501991319081D1E77D5F808250190A0
:1048E00011195D6181F851606FF07F01D5F80805FD
:1048F00000EB040C8CF85060D5F808351A19517784
:10490000D5F8080500EB040C8CF83660D5F80835AE
:104910001A1982F83760D5F8081508196434B8F107
:10492000280FC677A9D10022012085F8C92803B035
:10493000BDE8F08F00697047436910B41C68D0F877
:10494000B82844F441711960002A30D14FF4407105
:104950004FF47072C0F20201C0F20312C0F8B41832
:104960008024426342F2CC2CC0F88841C0F21E0C75
:10497000C3F8A841426B0263D3F89411DCF80040FD
:1049800041F4EE3244F40034C3F89421D3F89C117E
:10499000CCF8004041F4EE32C3F89C21596A026B16
:1049A0000A435A62012380F80C3110BC7047022A76
:1049B00008D0012A0ED0D0F8B418C022C0F20112DB
:1049C0000A43CDE74FF40034C022C0F8B448C0F227
:1049D0000312C5E74FF440744FF47072C0F2011235
:1049E000C0F8B448BCE700BF4269436B10B4116A19
:1049F0000B40C3631BB3190613621FD5D2F8904155
:104A0000D2F8983104F4EE3403F4EE31C0F83841B2
:104A1000C0F83C111CB1C2F89041D0F83C1189B9E2
:104A2000C26B22F08003C363D0F83801194351EA06
:104A300000020CBF0020012010BC7047C36BD0F8EF
:104A40003C11F1E7C2F89811D0F83C11E8E700BF3B
:104A50004369D3F89C1121F4EE32C3F89C21D3F8BA
:104A6000941121F4EE32C3F894215A6A016B22EAC0
:104A700001025A6200230363704700BF4369426B1F
:104A80000263D3F8941141F4EE32C3F89421D3F8C1
:104A90009C1141F4EE32C3F89C21596A006B41EA43
:104AA00000025A62704700BFFFF79EBFD0F84E3831
:104AB0000133032AC0F84E3805D0042A04BF4369E5
:104AC000C3F84C1170474069C0F84811704700BFE7
:104AD0002DE9F0410021D0F8908298F80030012BA8
:104AE00006460F4629D0D8F808209068002800F024
:104AF0001C81D8F838502B789BB1002401E0D8F8FD
:104B00000820D788687807FB00F005F0E0FE04EB8A
:104B10004402013405EB8201E4B248622B789C42E6
:104B2000EDD345F6A1020021AB70C0F218020123BB
:104B30000F46C8F83C2088F80030D6F88C8298F8E8
:104B40000000012808BF0F4629D0D8F80820916836
:104B5000002900F0DC80D8F838502B78ABB1002465
:104B600001E0D8F80820B2F806E068780EFB00F003
:104B700005F0ADFE04EB4402013405EB820CE4B217
:104B8000CCF824002B789C42EBD347F6D352C0F2EA
:104B900018020121AB70C8F83C2088F80010D6F844
:104BA000848298F80030012B00F0BD80D8F80820EE
:104BB0009068002800F09C80D8F838502B78ABB172
:104BC000002401E0D8F80820B2F806E06B780EFB6C
:104BD00003F005F07CFE04EB4402013405EB820C8B
:104BE000E4B2CCF824002B789C42EBD30021AB70CC
:104BF00001200B46C8F83C1088F800003B43D6F86B
:104C00007C723A78012A5FFA83F87ED0BA6890689D
:104C1000002868D0BD6B2B78A3B1002400E0BA68EF
:104C2000B2F806E06B780EFB03F005F050FE04EBE3
:104C30004402013405EB820CE4B2CCF824002B785A
:104C40009C42ECD30021AB7001200B46F963387015
:104C5000D6F8807200203A78012A48EA030821D069
:104C6000BA689368002B39D0BD6B2B78A3B10024B0
:104C700000E0BA68B2F806E068780EFB00F005F0D4
:104C800026FE04EB4402013405EB820CE4B2CCF8BE
:104C900024002B789C42ECD30021AB700846012302
:104CA000F9633B7048EA000096F89522A2B9B26910
:104CB000536BC6F87832082B3ED90823C6F87832F1
:104CC0000021D36B926BC6F848110121C6F87432EB
:104CD000C6F8702286F89512BDE8F081D1680120EF
:104CE0000029C1D1DEE7D168002993D10123AFE7C4
:104CF000D16800297FF460AF01233B43D6F87C7272
:104D00003A78012A5FFA83F880D10023A0E7D368BC
:104D1000002B7FF420AF0127D6F8848298F800306A
:104D2000012B7FF443AF002368E7D36801210F46CE
:104D3000002B7FF4DEAE00E7002BC1D1012186F805
:104D40009512BDE8F08100BF2DE9F04FD0F88462E4
:104D50008DB0044630460F4602F01CF90546002887
:104D600000F09580D4F8F4144B68002B00F08F808D
:104D70001822B9687EF672F8BA68BB890C2018321E
:104D8000B5F80CA0183BBA60BB812870D4F8F48445
:104D9000D8F80490B9F1000F13D0D9F80020494693
:104DA000C8F8042004A818227EF658F8B8F80A308B
:104DB000591ED8F80000C9F80000C8F80090A8F8FB
:104DC0000A1008996960BAF1000F56D0BDF82400A6
:104DD000504538BF8246A989D4F848215145DDF8AD
:104DE0001C900AEB020388BFA5F80CA00020D4F8A1
:104DF000A8881FFA83FADDF818B00A900B90B8F172
:104E0000000F47D00AF1FF3E00271FFA8EFCBCF1CD
:104E1000060F98BF4FF0080A3B46204651464222F3
:104E2000009702F069FAD4F8787229F000493FB18E
:104E300004F51C72D4F83401082306CA04F018FDE6
:104E40000CAFCDF82C90534647F808BDD4F8340188
:104E500097E8060004F00CFD00234FF0010ED4F893
:104E600034010B937346CDF8288097E806008DE84F
:104E70000044CDF808E004F041FDB2682946204620
:104E8000D288334602F02BFB002184F87D160DB04A
:104E9000BDE8F08FD7F80880B4E700BF2DE9F043F4
:104EA000002583B09DF8287006460C46984601956B
:104EB000002A73D00B78002B73D0511E11F0030120
:104EC000234648D0234613F8010F012560B1A942BB
:104ED00041D0022903D0022513F8011F21B1013569
:104EE00013F8011F002936D1691C57B10B1D9A42D6
:104EF00038BF6FF00D003CD301A8611804227DF685
:104F0000ADFF251D4AF694312846C0F21D017EF6FC
:104F1000B5F88146002830D1002F2ED0019B662B9A
:104F20002AD0632B4FD06FF0160022E011F801CF8A
:104F3000BCF1000FD8D011F801CF0135BCF1000F42
:104F4000D2D0851C49780029CED0C51C99F8011013
:104F500004330029C8D0013595422846AC4619468D
:104F600003F10309E2D114F80C306FF00100002BBB
:104F7000BAD003B0BDE8F083FEE74AF6A031284678
:104F8000C0F21D017EF67AF80028CCD16FB10199EC
:104F9000D6F8102186F88E111160EAE7944615467E
:104FA000E1E70121002FACD0A0E7012396F88E2184
:104FB000204622700422C8F80030D6F810117DF681
:104FC0004DFF3846D5E7FDF7DDFF4846D1E700BF86
:104FD0002DE9F0478F8991F813A0D0F8F094083F9D
:104FE0008B688CB0BFB2D9F804600833D0F88482E3
:104FF0000C4605468B608F81002E55D032683146B5
:10500000C9F8042004A818227DF628FFB9F80A1070
:105010004B1EBDF82420D9F8000097423060C9F833
:105020000060A9F80A30069907980A910B90DDF8FC
:1050300020902FD8D5F848312146002607EB030CE5
:1050400041240AAA1FFA8CF328460294009601967E
:1050500002F062F9404601F09DFF0446002846D068
:1050600002230E2180F801A001702146D8F8082003
:10507000D28843812846C4F8049043462681A781FC
:1050800002F02DFAB0420CBF4FF0FF3030460CB0AA
:10509000BDE8F0874AF6AC303946C0F21D007DF617
:1050A00087FFBDF82470C5E7404601F073FF4FF05D
:1050B0000108314618224FF0FF3907467DF652FFAE
:1050C000072087F800803946D5F884221346926875
:1050D000D288388128467E81C7F8049002F0FFF913
:1050E000A8682146424605F033FC4846CFE74FF01A
:1050F000FF30CCE770B590F88D31044613B190F8CD
:10510000A41101B970BD4FF6B845C0F20705D0F83B
:1051100030012E6DB0470028F4D1D5F8A450D4F852
:105120003001A8470028EDD1D4F83401B047002859
:10513000E8D1D4F83401A8470028E3D1D4F880128C
:105140008A6B506900285CD1D4F87C12886B436963
:10515000002B52D1D4F88031002B45D0196800299A
:1051600049D00A2083F6D4FAD4F880311A68002A8C
:1051700041D00A2083F6CCFAD4F880311868002890
:1051800039D00A2083F6C4FAD4F880311A6892B371
:105190000A2083F6BDFAD4F8803160251A680A2007
:1051A0004AB383F6B5FAD4F880310A20196811B3EE
:1051B00083F6AEFAD4F880310A201968D9B183F6A3
:1051C000A7FAD4F880310A201A68A2B183F6A0FAAF
:1051D000D4F88031043D1A68E1D142F001026069DF
:1051E0001A604FF4807383620021012284F8A411B5
:1051F00084F8952186E70122F1E7204602F089FB39
:10520000A8E7204602F0B0F99EE700BFC36B2DE986
:10521000F0410446002B39D0D0F8B42813425ED1B7
:10522000DA030DD5D4F84A1894F895314A1CC4F81D
:105230004A28002B40F05081204601F007FFE36B25
:1052400058061FD594F8945125B994F88D0101287A
:1052500000F03E814FF0FF35636900211D620A4670
:10526000E068C3F89051C3F89851C3F8A45188F688
:1052700045FC0022E068E26388F680FE002840F0EA
:10528000AC80E36BDB0176D40022E263D4F83831E2
:105290002BB1DB0300F137810023C4F83831D4F897
:1052A0003C3143B1D80300D4FEE7204602F094FE1F
:1052B0000021C4F83C1194F88D3123B194F8A43145
:1052C000002B40F0E780E26BD4F8381141EA02008D
:1052D00050EA03020CBF00200120BDE8F081D0F8A5
:1052E0007C21002A9CD01668002E99D00025F30757
:1052F000156019D4002E01DA83F642FBD4F8B818F1
:10530000002940F0D780E36B990340F1C980C022A7
:1053100002214FF40030C0F20312C4F8B818C4F8E8
:10532000B408626322637BE72846FEF75AFA2046F8
:105330002946FEF7CBFE012394F8AC0684F88D31A4
:1053400084F8A43128B1D4F8A806FEF78DF884F8C3
:10535000AC56D4F88831616B43F0080020F00102AC
:10536000C801C4F88821204644BF6169C1F8A8215A
:10537000FFF7C0FEBEE76269D2F8A431D2F8A411EB
:1053800041EA0305C2F8A451D4F8880113EA0005E4
:105390003FF47AAF280702D52046FEF7D9FFE90788
:1053A00005D594F8843613B92046FFF79DF92A06EF
:1053B00041BFD4F8883123F0800343F01003C4F8D0
:1053C0008831EB0600F1A380606BC10142BF6069C8
:1053D000D4F88811C0F8A81156E767694FF6B845A8
:1053E000C0F2070520463B6843F004063E60FFF725
:1053F000A3FAD5F85C80D4F83001C047AF68D4F880
:105400003001B847AE6DD4F83001B0476D68D4F8BC
:105410003001A847D4F83401C047D4F83401B84764
:10542000D4F83401B047D4F83401A8476369112097
:10543000D3F8A41141F01002C3F8A421616BC4F8A1
:105440008801C90158BFD3F8A8010122C3F8A801F7
:1054500084F88426186840F004011960D4F80A28FA
:10546000D4F86C18501CC4F80A0869B1D4F8125862
:1054700083F606F8D4F86C1800226D1AC4F86C286C
:1054800005EB000CC4F812C882F6FAFFE36BC4F80F
:105490007408F7E62046FFF72DFED4F83C3112E7FA
:1054A00013F4407F08D1D4F8B408C022C0F201122E
:1054B000024336E7E36BB3E601204FF440714FF44B
:1054C0007072C0F20112C4F8B808C4F8B41828E722
:1054D0002046FEF73DFFBDE62046FFF7A1F8054652
:1054E00040B994F89C0128B1D4F89801FDF7BCFFAD
:1054F00084F89C51616BCB0142BF6369D4F8882169
:10550000C3F8A82198E6204602F090FDC4E6D4F83E
:105510008801636940F0800121F01002C4F88821FD
:10552000186880077FF550AF94F88426002A3FF46E
:105530004BAFD4F880261AB10026DA64C4F880662E
:10554000062100234FF48022E06804F0D8FC2046B6
:10555000FFF7CAF8636BD90142BF6369D4F8885179
:10556000C3F8A8510025D4F80E28D4F81A68501CA6
:10557000C4F80E0882F684FFD4F87418C4F874587E
:10558000761A06EB000CC4F81AC882F679FFD4F834
:105590000638D4F816685A1CC4F80628C4F86C08F3
:1055A00082F66EFFD4F87018C4F87058761A331863
:1055B000C4F8163882F664FFC4F86C0804E700BF2C
:1055C00090F88C31FF2B0A4603D0C068194605F0CD
:1055D00089BA0846FEF71EB9D0F8F414F8B54B683E
:1055E0000446D0F884022BB3836B9A78012A21D920
:1055F0000769028B8168D4F860513B688F88D4F8C2
:105600005C61934288BFD219D31A2D68791E9AB271
:10561000D6F800C08E1A052DB7B28CBF0025012523
:10562000012F8CBF2F4645F001073E4617B9BCF14C
:10563000080F00D8F8BD01F0ADFC0546002820D0C9
:10564000D4F85021204629469368AF706F700A271E
:10565000D3F804E02F70D4F884229F681346926830
:10566000D288C5F804E06E812E81EF6001F037FF2B
:105670002069D4F85011D4F8A828BDE8F84002F009
:105680004BBFD4F8B0381A88501C1880F0E700BF20
:1056900038B544690D461C220021D4F804057DF676
:1056A00061FCF5B1D4F8B008C1884A1CC28094F8F6
:1056B0007A3113B1002084F87A01D4F8501119B16D
:1056C000A068002205F044F900231946C4F85031BF
:1056D0001A4684F87D36D4F80005BDE8384082F6D5
:1056E000E1BCD4F850313BB10122204684F87D263C
:1056F000BDE83840FFF770BF38BD00BF10B590F867
:105700007A31044613B1002180F87A11D4F850118F
:1057100019B1A068002205F01BF900200146C4F869
:105720005001024684F87D06D4F80005BDE810401B
:1057300082F6B8BC2DE9F84F8F1E4FF06404B9B261
:10574000D0F80895002304FB01F8924609EB080401
:1057500009F808300646E36CD96858681D680A697C
:105760009A420A4608BF0861056052F8085F1F6840
:105770009542786051D00025D6F8780819469D608A
:10578000DD6003F01AFDD6F8840201F003FC074641
:1057900000284FD0182229467DF6E4FB06203870F9
:1057A00094F8311079703046A36CB4F820C02146CB
:1057B0007B60A7F80AC0A7F808A009F8085065831D
:1057C0002583FEF7DDFCE57784F852503046D6F8A5
:1057D0008422394623691D6013469268D28801F0FD
:1057E0007EFE18B3D6F8802806F5086EB4F822C0FD
:1057F0002CF010037245638418BF284601D0BDE821
:10580000F88FD6F87C12886B40690028F7D03046B4
:1058100002F07FF82846BDE8F88F91E80500106097
:1058200000200F687A600D614875A4E74FF0FF30E3
:10583000BDE8F88F6FF01A00BDE8F88F2DE9F04150
:105840000746D0F8840288461646D7F8085501F076
:10585000A1FB044610B3A8F1020164231FFA81F8EA
:105860001822002103FB08557DF67CFB08223846F0
:10587000227095F8311061702146D7F884222F8C60
:10588000AB6C6360134667819268D288268101F011
:1058900026FE18B16A8C22F020006884BDE8F081F1
:1058A0002DE9F04FD0F89072154695B00646BB68CA
:1058B0009F7992FBF7F30C4607FB13222AB14FF6B0
:1058C000FF75284615B0BDE8F08F90F87A010128E1
:1058D00000F0BD81D6F852081A18C6F85228002DDB
:1058E000EFD0ED1B4AF6FD3A4AF6054B06F5086384
:1058F000C0F21D0AADB2C0F21D0B07930597CDF89B
:1059000020A02778FB1E0A2B00F24381DFE813F06A
:1059100008014101D9004101B00041015A00410193
:10592000340041010B00D6F8F03422896168D3F8C5
:105930000080B8F1000F00F09D81D8F800001860D9
:10594000D4F810C06769C8F80C70C8F808C0588946
:10595000471CD3F804C0C8F800C0C8F81010A8F855
:105960001420C3F804805F81059FE91BE4198BB202
:10597000002DA6D01D46C4E7D6F8F434228961680C
:10598000D3F80080B8F1000FD7D1D6F8840201F027
:1059900001FB1822414681467DF6E4FA0A22A9F865
:1059A0000C80A9F808200221304689F800104946E9
:1059B000D6F88472A9F80A803B46BA68D28801F00A
:1059C0008EFDD1E796F87A110129CDD0D6F8F424CE
:1059D000B4F80E80B4F810A05368002B00F0988142
:1059E000D6F8FC07C289273A424540F3F78003F016
:1059F00052FA8146002800F09282D6F8FC27D78917
:105A0000D6F8A818283FBBB2002900F07281D6F85A
:105A1000F414D6F8AC284F68B88A904238BF0246D2
:105A20009245D6F8507188BF2282002F00F038814D
:105A3000D6F88402D4F8049001F0ACFA18220021C0
:105A400080467DF68FFA032001220023A8F8080083
:105A500088F80020A8F80A30D6F884223046C8F822
:105A60000490414613469768FA8801F038FD7BE7B9
:105A700021898B1E01298CBF0022012298B2272880
:105A800088BF42F00102002A40F0DC80D6F80835D9
:105A90004FF06407D4F804E007FB0033C3F848E094
:105AA000D3F80CC01F69DCF800E03868864500F0C8
:105AB000D8805F8C47F0200230465A84FEF708FCFD
:105AC00052E72189881E01298CBF0022012280B261
:105AD000272888BF42F00102002A40F0BD804FF025
:105AE0006407D6F8083507FB00FE13F80E70734400
:105AF000002F00F0BA80D3F80CE01F69D4F804C07E
:105B0000C3F848C03868DEF800C0844500F0C4809F
:105B10005F8C47F0100230465A84FEF7D9FB23E72A
:105B2000B4F81680A8F10200B8F1010F8CBF002371
:105B300001231FFA80FABAF1270F88BF43F001034F
:105B40004FF00509002B5ED0D6F8840201F022FA4E
:105B5000804600283FF408AF0427002118227DF674
:105B600001FA88F80070617888F80110D6F884226C
:105B7000B4F816C063683046A8F80AC04146C8F8B1
:105B800004301346A8F808909768FA8801F0A7FC3B
:105B9000EAE6D6F88402032701F0FCF90021182276
:105BA00080467DF6DFF90223002088F80030414668
:105BB000D6F88432A8F80C00A8F80A0030469A6893
:105BC000D288A8F8087001F08AFC4AF6D030C0F2FA
:105BD0001D002146059A03F05BFAC5E6D6F884025B
:105BE000D4F8049001F0D6F90021182280467DF601
:105BF000B9F9032101200023A8F8081088F8000053
:105C0000A8F80A3028E704F1080738460FA90A97D0
:105C10007DF694FC6422D6F8089502FB0AFA19F87E
:105C20000A30099309EB0A0C002B32D1E18B3029A1
:105C300018BF4FF0030900F08D8030466146FEF733
:105C40009FFA81E730460522FFF7F8FD8CE60978D8
:105C500009297FF43FAE32E630460522FFF76AFDA0
:105C600082E63046FFF7EAFD7EE630460122FFF786
:105C700061FD79E6D6F8840201F08CF941461822DC
:105C800081467DF66FF90B23A9F80C80A9F808303E
:105C900089E64FF00409D0E73046FFF74BFD63E695
:105CA0002833C6F850912146A9F80C302822D9F89B
:105CB00008007DF6D3F8012386F87A31B8F1000F99
:105CC00020D0D9F8081045F29167D6F80435C0F213
:105CD0001807E069283158601846D4F818E0C3F86E
:105CE00000E0A3F80880D9601F615E61FDF7CAFD7E
:105CF0003AE6D6F8F4149A4584BF9A462382486857
:105D0000828A8DE686F87D363046FFF765FC2BE605
:105D1000D6F88402D4F80490069301F03BF9069F6C
:105D20001822394680467DF61DF90120092188F8A0
:105D300000003046D6F88422069BA8F80810414699
:105D4000A8F80A3013469768FA88C8F8049001F05A
:105D5000C6FB09E604F10E076178306994F814E097
:105D60000C9701230097099A0A9FCDF818C0019754
:105D7000CDF808E002F0B8FBDDF818C00B90023057
:105D800000F0EC80A08BC00804F0A4FDDDF818C082
:105D9000CCF84400002800F0E480A38BD808CDF8AC
:105DA00018C004F097FDDDF818C0CCF840000028BA
:105DB00000F0D780A08BC008CDF818C004F08AFD91
:105DC000DDF818C0CCF85400002800F0D280099B00
:105DD000ACF85C30D6F8780803F0E0F9DDF818C0CC
:105DE000002800F0C680D6F87C18C0F808C0CCF8AF
:105DF0004C00237DC3EBC3070D9101EB870109978D
:105E0000C16096F8C928002A40F0B6801BF803E06C
:105E10000B6943601A6802601860076878604B7D00
:105E200008611BBBD6F88038079898420FD096F8C7
:105E3000C928059F002A6CD003E01B68079A9A4284
:105E400004D01A7D0898805C7045F6D20597012031
:105E5000302748755B68CF820D98099F1A6840F813
:105E60002720196050F827704B6079600127B4F83B
:105E700016E0DCF80830A08BACF82080E28BACF8A0
:105E8000227098800CF12400DA800622A3F800E04A
:105E9000D4F82080C3F80880D4F824E0C3F80CE0DC
:105EA0000C99CDF818C07CF6D9FFDDF818800622D1
:105EB0000A9908F12A007CF6D1FFDDF818C0217D8F
:105EC0008CF830100B9962780020302309F80A70A2
:105ED00011F40079ACF832008CF83120ACF8343091
:105EE0008CF81E103FF430AE0B9F022117F480791E
:105EF0008CF836103FF428AEBCF8222042F00403A0
:105F00004FF00009ACF822301EE61B680798984253
:105F10009CD01A7D1BF802007045F6D296E7D6F8A1
:105F20008402D4F804A001F035F8494618228046CE
:105F30007DF618F80123022088F800304146D6F893
:105F40008422A8F808003046A8F80A9013469768FB
:105F5000FA88C8F804A001F0C2FA05E54FF001097B
:105F60006BE6D6F8B0180F887A1C4FF002090A8049
:105F700063E64FF0020960E6089A12F803E047E78B
:105F8000704700BFF0B5023985B0002401290394A1
:105F900015461E460A9C87691CD84AF6F030C0F2A6
:105FA0001D007DF693F84AF6F031C0F21D0102465D
:105FB00028467DF693F868B9B868294632469DF8B8
:105FC000307003AB0097FEF769FF0CB1039B2360B1
:105FD00005B0F0BD4FF0FF30F7E700BF8B69014619
:105FE000986902F0E9B900BF8069134610B50C4604
:105FF00001398068142911D8DFE801F01D1D101047
:1060000010272710333310100B101010101010121F
:1060100012009978DA789B7902F0EEF8002010BD32
:10602000A4F1140ED978DEF1000C4CEB0E0202F054
:106030009CF8002010BD9978A4F101035A4242EB6C
:10604000030202F051F8002010BDA4F10602997875
:10605000D2F1000E4EEB0202073302F0A4F800204A
:1060600010BDA4F109021979534243EB020202F078
:106070005EF8002010BD00BF83690A46014698699A
:106080007FF624BE83690A460146986902F048BA41
:1060900010B58469A068FEF7A7FC00B910BDA06820
:1060A000FEF7D6FCA068FFF7B1F820B9A068BDE8FC
:1060B0001040FEF7E3BC002104F11C000A46BDE8D5
:1060C000104081F6EFBF00BF10B54468A068FEF72E
:1060D000EBFCA068FFF79AF820B9A068BDE8104073
:1060E000FEF7CCBC002104F11C000A46BDE81040BC
:1060F00081F6D8BF70B50C6EE278A3789A4202D9C7
:10610000013AD31A04E0247802B103B9013CE31A3E
:106110004A8C12F04005DBB20BD0CA68488B12687B
:1061200082423CBF8A689288101A984228BF18465B
:1061300070BDD0F814211289D2B1B0F80048A24243
:1061400018D9101B4C8BCA688E8E1568A5422FBFBC
:10615000C4EB05048A689288C4EB0204B04228BFED
:106160003046984228BF1846A04228BF204670BD3E
:10617000104670BD284670BDF0B54E8B541E3019C8
:106180008B689B8890FBF3F54F6D03FB150080B285
:10619000C5087F5D00F0070557FA05F515F0010FFA
:1061A00014D08D6D35F8101048040FD5012A0CD08D
:1061B000901E301890FBF3F603FB16039BB235F8E4
:1061C00013308B4202D0A2B200E000221046F0BD94
:1061D0000246002310B5194692F814453CB9242212
:1061E00002FB03030122084683F8142504E001336F
:1061F00024320A2BEFD1FF2040B210BD242300220D
:1062000003FB010383F8142570470369428B1B6865
:106210009A4205D3994208D3914206D241837047EE
:10622000914201D3994200D3418370472DE9F04157
:10623000438B466CDA08B15C03F0070251FA02F2B4
:10624000D2073AD5C26812689A4201D3D21A03E043
:1062500081688D88ED1AAA1895B200212AE082681B
:106260009488CA1892FBF4F7D0F8408004FB1722F8
:10627000002A9446B8BF02F1070C02F007074FEA64
:10628000EC0C18F80C8048FA07F818F0010F10D041
:1062900016F80CC04CFA07F717F0010F02D1428331
:1062A000BDE8F081428B013292FBF4F704FB172426
:1062B000448301318AB2AA42D1D3BDE8F08110B53E
:1062C000036E9A78DC78944201D9601E03E0187856
:1062D00004B102B90138801AC0B268B151181878F7
:1062E000814201D1002100E005DA587899705B689D
:1062F00000FB023010BD002010BD8168C988B2FBD0
:10630000F1F1036ED87809181A78C9B28A42D970A7
:1063100001D80022DA707047836BDA6858688242CD
:1063200008D00AB99A6800E052689160DA609A78F9
:1063300001329A707047D0F88C3230B59B6B9B69F4
:106340009D78587885421C788ABFC5EB0405C5EB5B
:1063500000052D18651B012D08DD03EBC00501307C
:10636000A042A8BF002069602A72587030BD90F822
:10637000BC28436922B1D3F8E02142F0020203E0D5
:10638000D3F8E02122F00202C3F8E021704730B5D3
:106390004589158042680A60C2695A6042F000422D
:1063A00081695A60049A19600389039C13801BB1A8
:1063B000436963600369236030BD838DC08D834270
:1063C00096BFC0F14000C0EB0300C0187047D0F882
:1063D000F8341A6812B95960196002E05A6891617C
:1063E00059609A6801329A6000238B617047D0F837
:1063F000F834186870B15A6890429A6802F1FF3216
:106400009A6003D100225A601A60704782691A604C
:106410000023836170470346F0B5C0680688588B37
:1064200086429C6828BFC0EB0600A58838BFC0EB39
:10643000050080B20880E0B19E6B3AB1E788B2FBFC
:10644000F7F27678B24228BF324600E07278904286
:1064500028BF104608805E8BE288A0680C8834193B
:10646000AC42A8BF002402FB06005C830B885A43A1
:106470000A80F0BD70B18268D388B1FBF3F149B1F5
:106480000369188841189288914202DB00221A6041
:1064900070471960704770B50B8B0D698C68E08888
:1064A000B2FBF0F22E689E4202D9DD43AD1904E042
:1064B000A58806B103B9013DED1AADB2954209D3E5
:1064C000A56800FB03509B18A2889342A8BF002335
:1064D0000B8370BD002070BDD0F87C3210B59A6B74
:1064E0009278D2B11A69198B4C1C1268A24212D050
:1064F00022B99B689B88013B99420ED0D0F860314D
:106500001B68042B0BD9D0F85C311868062894BF9F
:106510000020012010BD002010BD104610BD00203D
:1065200010BD30B5838D5C1C04F03F04856A848502
:10653000DC002D196D680D60816A0C19A17811704D
:10654000826A32F8330030BDF0B59589B2F85470E4
:10655000DDF818C0059E079CACF800701FB1D76C21
:106560007760976C3760D68916F4005F0CD0B2F86C
:1065700050604EB1C5F188062680166C546C751BB0
:10658000D1F87862A91B05E0B1F878122180116C6E
:10659000546C8839956B1D60D38923F4005380E8CF
:1065A0001200D381F0BD000010B50346A8B1826887
:1065B000D088B1FBF0F181B158699288DB681C8802
:1065C0006118914202DB00221A6000E01960034961
:1065D0000322BDE81040FEF769BA10BD78563412A8
:1065E000F8B517469A681278432A04460E46069D67
:1065F0001FD0462A17D00E2A31D1D0F884329B6B97
:10660000987800283ED0D4F8F034586818B901239F
:1066100084F8A038F8BD0023052084F8A0381A4B70
:106620002B60042324E0FFF757FF00282AD0174BE4
:1066300011E0D0F880321A6910681A8B511C884218
:106640001DD020B99968898801398A421AD09B6B7C
:106650009878B8B10E4B2B600720052308E08068BE
:106660001946012204F074F9002301202B60F8BDC3
:106670009E4206D3874234BF00200120F8BD00208F
:10668000F8BD0020F8BD00BFD14F18005D7A18009A
:106690007F77180070B590F88D310446002B4AD1F1
:1066A00090F81005002846D1D4F8803833E0002255
:1066B0001A769A6819E09168CD682E684D8BAE42C3
:1066C00003D314BF0025012507E08E68B688C5EB0B
:1066D000060CDCF1000545EB0C052DB94D8C45F0A1
:1066E00002054D8401211976126803F108018A42DE
:1066F000E1D158B9DA8A2F2A0AD8197E41B102327B
:1067000092B2312ADA8203D1302200E00422DA8206
:106710001A7E1B68104304F508629342C7D150B13A
:1067200094F8101539B9D4F80C050A4681F6BAFC6C
:10673000012384F8103570BD37B500208C68ADF8A2
:1067400006004D6824F07F4020F46000C5F3140576
:10675000401B072843DDA4F10800886088890830C1
:10676000888102208874052104F8081C062104F899
:10677000071C92F83600410718D5069919B1CD0EBD
:1067800005F00F0500E00D4645F0020521F0F0414F
:1067900041EAC561069192F837100139C9B282F811
:1067A000371019B920F0040082F83600D908506D6E
:1067B000405C03F0070150FA01F1C90704D5926D5E
:1067C00032F81320ADF8062006A90422A01F7CF69B
:1067D00045FBA01E0DF1060102227CF63FFB3EBDEB
:1067E0002DE9F04188B01E4604AD0023044606930F
:1067F000072E8CBF37460827079390F88D3185E820
:106800000600DDF83880002B3AD190F8BC3823B967
:10681000012380F8BC38FFF7AAFD08ADD4F84C314D
:1068200045F8088D53B10F9B06930823D4F8300127
:1068300095E8060003F01CF8CDF8188095E80600EE
:106840003B46D4F8300103F013F804AA0123009763
:1068500001930293D4F8300106CA03F04FF8E38D98
:106860005A1C02F03F02A16AE285DA00881821F87A
:1068700033609DF844308370A36A9A18109B53606C
:1068800008B0BDE8F0812DE9F0410468D4F88068D3
:1068900023E0B5681CE0AF68B86DC0B1B7F85C80A4
:1068A000B8F1000F10D104F021F8C7F8588094F81F
:1068B000C538013B414684F8C538BB689A88786D75
:1068C000D2087CF64FFB02E00023A7F85C302D686D
:1068D00006F108039D42DED1366804F508639E4246
:1068E000D7D194F8C5582DB9D4F8C008FCF7BCFD31
:1068F00084F8C458BDE8F0812DE9F3470C46096ED1
:10690000CA788B789A42054601D9571E03E00F7862
:1069100002B103B9013F2846FF1AFFF759FCFFB245
:10692000061EC0F2A180002F00F097802423628B06
:10693000214603FB06532846A3F81625FFF7DAFB8A
:10694000002182B21DE0608B4018A3689B8890FBF9
:10695000F3F703FB1700676C00280346B8BFC31D9D
:10696000DB10FF5C424B0340002B03DA013B63F07A
:106970000703013357FA03F3D80701D58AB202E0BF
:1069800001319142DFDB002A67D028462146FFF71C
:10699000F3FB002861D0A3680DF10601DA884243B9
:1069A000204692B2FFF737FD8246002855D0A368F3
:1069B000BDF80670DB88B7FBF3F739462046FFF7D2
:1069C0007EFC4FF02408A3689B8808FB06F805EBC3
:1069D0000806B6F81615CA19013A92FBF3FE03FB36
:1069E0001E22013B8146206C02F094FBB9F1000F9E
:1069F0002DD0BDF80630A6F82435A36806F5A260B0
:106A0000C6F828950C30DB68C6F82035194BC6F857
:106A10002C3506F5A2630433C6F81CA5C6F830353C
:106A20000023C6F8184586F82635C6F83435FCF735
:106A300029FF94F82030023B85F87C36E37FFB1871
:106A4000E377B5F80038FB18A5F8003801E0ADF899
:106A500006902046FFF7EAFB07E02046FFF7E6FB3B
:106A60002846F1B2FFF7CAFB00273846BDE8FC878D
:106A700007000080DF7E1800CB680A691B68126877
:106A8000934208D04A8B934217D14B8E002B14D1DE
:106A9000CB7F002B11D14B8C23F040031B041B0C2C
:106AA00013F020024B8403D0098C0022FEF7C6BEEF
:106AB000DB0604D5098CFEF73DBEFFF71DBF70470E
:106AC0002DE9F843BDF820609F1E1546D0F8082533
:106AD0006423BFB2044603FB07277A8ED0F89436AE
