:1000000080F140B882F1DCBA82F1E8BA82F1F4BA48
:1000100082F103BB82F112BB82F121BB82F130BBC2
:1000200080F140B882F1DCBA82F1E8BA82F1F4BA28
:1000300082F103BB82F112BB82F121BB82F130BBA2
:10004000FAFAFAFAFAFAFAFAFAFAFAFAFAFAFAFA10
:10005000FAFAFAFAFAFAFAFAFAFAFAFAFAFAFAFA00
:10006000FAFAFAFAFAFAFAFAFAFAFAFAFAFAFAFAF0
:10007000FAFAFAFA4442505094781D000000180031
:1000800000000000DFF844804FF00009B8E8FF00EE
:10009000A9E8FF00EFF300804FF01F0120EA010004
:1000A0004FF0D10140EA010080F30089DFF820D051
:1000B000EFF300804FF01F0120EA01004FF0DF0155
:1000C00040EA010080F30089024800472000180040
:1000D00000671D00AD2718000000000000000000B0
:1000E0000000000000000000000000000000000010
:1000F0000000000000000000000000000000000000
:1001000000000000000000000000000000000000EF
:1001100000000000000000000000000000000000DF
:1009000005331800C198190069AF190005331800A4
:100910000533180005331800053318000533180097
:100920000533180005331800053318000533180087
:100930000533180005331800053318000533180077
:100940000533180005331800053318000533180067
:100950000533180005331800053318000533180057
:100960000533180005331800053318000533180047
:100970000533180005331800053318000533180037
:100980000533180005331800053318000533180027
:100990000533180005331800053318000533180017
:1009A0000533180005331800053318000533180007
:1009B00005331800053318000533180005331800F7
:1009C00005331800053318000533180005331800E7
:1009D00005331800053318000533180005331800D7
:1009E000053318000533180033551A008F551A00C7
:1009F000294F1A00A14C1A00ED4B1A00354D1A0070
:100A0000AB4A1A00874B1A0009561A0015561A00ED
:100A10006D4A1A00874A1A00D54F1A00954A1A00E3
:100A2000D5541A00814A1A006D531A00192718006C
:100A3000152718001127180009271800053318007A
:100A40000533180005331800053318003D2718003A
:100A500099A3180077A2180099A218007DA2180087
:100A600095A218009DA2180035A31800F9A218003D
:100A700049A31800B5A21800F97D1800C97F180015
:100A8000E9AF1900DB991900053318006D9D1800B6
:100A900037981800C59D1800B5991800D59D180005
:100AA000FBA01800BBEF1D00FD9E18000F99180059
:100AB0007B99180067A1180069A11800999D18007A
:100AC000B9EF1D004FA51800D1A418003FA51800CC
:100AD00005331800053318000533180005331800D6
:100AE00005331800A1EF1B006FB51900ADB5190053
:100AF0005DAE19000533180005331800AD971900D5
:100B00004DA61900A5A41900459D1900499C19007E
:100B1000B7BA1900759A19003D9C190079B01900EF
:100B20000533180047BC19003BBC190059B0190027
:100B3000ABB7190043BC19003FBC190051A61900FE
:100B40000533180045861900418619004B861900A7
:100B500061A419009B9C19003D861900E99E1900AB
:100B6000378619008FA41900FDB719004BB819007A
:100B7000BDAE190071C619008BC319000DC919004B
:100B8000ADCB190075C319004DF51900A1F6190078
:100B9000B1F2190001F319000533180005331800EC
:100BA000E1EF190071F419002DEC190059EA190050
:100BB0003FF5190035E6190061E81900CDF019007C
:100BC00011F5190011EB190045F11900ADEA1900F2
:100BD00005331800118D1A0005331800053318006D
:100BE000053318000533180005331800E5751A00A1
:100BF000F3771A00AF601A00D75E1A0005331800A9
:100C000005331800BF5E1A000533180005331800BD
:100C100061601A0005611A00B95E1A0005331800F8
:100C200005331800C1681A0061671A006F791A004D
:100C300037791A00AF791A00FD781A00C98C1A00AA
:100C4000FBB81A007FB91A0045B81A004BB21A0057
:100C50008FC41A0061C41A0009B31A0023B31A0022
:100C600031B91A0081BE1A0089B71A002BB81A00D0
:100C7000F9B81A0095B91A006DB21A00CDB61A006B
:100C800075B31A0087B71A003DB91A0049B31A00A4
:100C90004BB71A000533180005331800F53C1C004B
:100CA0000B351C00F5271C00BB4C1C0057331C00E7
:100CB00037321C006F581C005D2C1C0033281C00B0
:100CC00097431C00A13B1C00B12D1C00652D1C008E
:100CD000BB2C1C00752C1C006F2C1C0065471C00D5
:100CE000053318004D581C001F2C1C00B3421C007B
:100CF000E9411C0017291C009D411C000533180008
:100D000065581C005F581C00BF2B1C001F281C00CE
:100D100029281C0035371C00E5331C001D281C0049
:100D2000F3341C00F1341C00D53B1C00093B1C00B3
:100D300005331800A5411C0099531C007B531C006F
:100D400087531C00B9401C00E92B1C004F371C00C6
:100D5000A13A1C00B1391C0031321C0005331800C7
:100D600017281C00053318006B581C00C53A1C00DE
:100D7000053318003D581C007B2C1C0093581C00A8
:100D800081411C005D411C00212C1C00A9411C005C
:100D900057481C00F92D1C00B1321C00D3311C0037
:100DA000A9311C00053318000533180007321C0058
:100DB0002B311C00272E1C00FB311C0021451C0080
:100DC0000F781A000533180087771A00D5771A00B4
:100DD0001D771A0069771A0017C919000533180022
:100DE000053318000533180005331800279A1C0036
:100DF000DF9A1C00B39A1C00ED9B1C00F99E1C009E
:100E0000BF9E1C006F9A1C00D39A1C00839A1C0082
:100E1000E5991C00EB991C00053318006D9D190025
:100E2000053318002DEA1C0067F11C00B5E71C0013
:100E300005331800053318008FEC1C00B5E91C00C1
:100E4000BFEC1C00E5ED1C0033EA1C0069E91C0046
:100E500027F31C0041F21C00EFF91C0003FE1C00EC
:100E6000DBFC1C00A7FD1C005DFD1C000FFE1C0030
:100E7000A1FD1C0073FA1C00CBFC1C0057B01A002B
:100E80004DAB1A0027071D00D5761A000533180050
:100E90000533180005331800053318000533180012
:100EA000192B1800513B18000981180011811800F6
:100EB000458118005181180061841800053318001D
:100EC0003FC118009DD01800012B1800492C1800B4
:100ED0005D2D180005331800053318000533180080
:100EE00005331800053318000533180005331800C2
:100EF000437B180005331800997B1800F57B180018
:100F0000F97C18007D8118000533180071831800E2
:100F10007B841800BD881800ED881800058918002A
:100F2000318A180005331800D5A31800DDA6180073
:100F30002DA8180079AA180055AB180049B118005F
:100F4000C1B11800F9B1180001B21800B1B318000E
:100F50000533180005B218006BB4180097B41800D8
:100F60009DB41800F7B418000DB5180027B5180087
:100F70003DB5180049B51800C9B5180035B61800B8
:100F800047B51800C5B8180065B618000533180035
:100F9000F3B41800ADC71800F1C7180089C91800CC
:100FA00071CE1800B9D01800E5D11800F1D11800A1
:100FB0000DD218003FD2180061D218003DD318009E
:100FC00069E41800CDE41800B1EC180065F01800D1
:100FD00059F9180081031900B9041900090519000D
:100FE000650719007D071900DF091900FD091900BF
:100FF0000B0A1900050B19005F0B19007B0B190078
:101000003B1319007116190063331900913519004B
:101010004D381900753C1900E53E1900B14F190013
:10102000315619000D701900B9F71900BFFA1900EF
:10103000E5FD190047FE19007D031A00F9101A009A
:1010400071161A00DD161A000D171A000533180064
:101050000D201A004F331A00BD571A00695C1A00A0
:10106000815C1A00875C1A00935C1A009B5C1A0072
:10107000A15C1A00B55C1A00BF5C1A003D5E1A0044
:10108000775E1A00897C1A00DF5F1C00E35F1C009A
:10109000F95F1C0041601C0065601C00A5601C001D
:1010A000F9601C00B1611C00AF931C009FDD1C00A7
:1010B0000100000000000008200000000002000005
:1010C00004000000FF0300005000000000000000CA
:1010D000000000000100000001000000000000000E
:1010E0000A070800000000000004000001040000DE
:1010F00004000400080001000000000000000000DF
:1011000000000000000000000000000000000000DF
:1011100000000000000000000000000000000000CF
:1011200000000000000000000000000000000000BF
:1011300000000000000000000000000000000000AF
:10180000C8F1E2BF000000004CF1F4BE000000008F
:101810004CF1F4BE0000000072F164BA0000000058
:1018200072F180BB0000000071F106BF00000000F3
:101830006BF1E8BB000000006BF10EBB0000000084
:101840006BF16CBE0000000074F1BDBA0000000036
:1018500074F1F4BB0000000074F1FABB000000005A
:1018600074F16EBA0000000074F1D4B900000000F9
:1018700074F136BA0000000074F142B900000000B3
:1018800074F16CB80000000060F108BA00000000BC
:1018900074F106BB0000000067F118BF00000000F3
:1018A00067F1BCBC000000006BF165BF00000000E8
:1018B00067F1CEBB0000000065F16DBF00000000C5
:1018C00062F152BD0000000065F12DBE0000000075
:1018D00063F1BEBE0000000059F16CBC00000000C6
:1018E00059F11ABA0000000058F1AABB000000002C
:1018F0005BF12CBD000000005BF1F0BB00000000BC
:101900005AF1A4BF000000005AF1B2B80000000074
:101910005BF1D2B8000000005AF165BF0000000082
:101920005AF1FBB90000000055F172BD0000000043
:1019300055F126B90000000055F11EB90000000065
:1019400054F1BEBD0000000054F186BA0000000052
:1019500052F126BD0000000052F140BD0000000021
:1019600052F112BE0000000052F1BABE00000000A9
:1019700060F1D0BE0000000052F179BE000000000E
:1019800052F15ABC0000000052F1C6BB000000003A
:1019900051F1EABC0000000050F110B90000000055
:1019A00050F1B5B8000000004CF1EABD00000000A5
:1019B0004CF160BA000000004BF17ABC000000005E
:1019C0004CF198B9000000004BF142BF000000004C
:1019D00067F1DEBA0000000060F1BABE000000004E
:1019E0005DF1BABB000000004BF18AB900000000B5
:1019F0004CF1BCBA0000000051F102BA0000000036
:101A000059F1ECB8000000004BF174BB000000007D
:101A100058F158BF0000000059F100B80000000064
:101A200058F1E2BB000000004AF1E7BF00000000EF
:101A300055F1E6BA000000005AF1CCB800000000F1
:101A400056F192BA0000000048F16FBC000000009F
:101A500048F1C1B90000000048F1BEBA0000000022
:101A600047F138B80000000046F130BE0000000029
:101A700046F10ABC0000000046F113BB0000000064
:101A800055F150B80000000054F112BF00000000F2
:101A900060F16EBE0000000054F16CBD000000005B
:101AA00053F18CBE000000005AF1FCBC00000000A5
:101AB0005DF1D6BF000000005DF1FFBE0000000038
:101AC0005DF17DBE0000000059F1B4BD00000000D2
:101AD00056F167BB0000000055F1FBBD000000009F
:101AE0005BF163BC000000005BF1C4BA00000000C1
:101AF0005AF1BABE000000005AF19EB90000000081
:101B000057F172BC0000000058F132BB0000000029
:101B100058F1FDB80000000058F1A6B80000000020
:101B200054F114BA0000000059F1B7BE00000000E3
:101B300059F1E2BA0000000057F146BA0000000077
:101B400056F118BD0000000056F173BF0000000000
:101B500057F11EB90000000055F14BBD0000000018
:101B600055F14BBD0000000055F1CABA000000005D
:101B700055F1C6BE0000000053F121BE0000000078
:101B800053F1DEBD0000000054F1A2BF00000000D0
:101B900052F177B80000000051F1D6BF00000000FC
:101BA00051F13DBB0000000050F178BA0000000088
:101BB00051F135BE0000000057F116BA00000000D8
:101BC0004FF1F5BB0000000056F1A7B9000000007E
:101BD0000000000000000000000000000000000005
:101BE00000000000000000000000000000000000F5
:101BF00000000000000000000000000000000000E5
:101C000000000000000000000000000000000000D4
:10200000681901000400000000181800146405009D
:1020100004000000081818001864050004000000FF
:1020200010181800C46701000400000018181800F8
:10203000346901000400000020181800F870010045
:1020400004000000281818005C8001000400000053
:102050003018180028790100040000003818180012
:10206000787901000400000040181800203F0100AA
:1020700004000000481818007C3F01000400000024
:1020800050181800C83F010004000000581818003C
:10209000204101000400000060181800E041010028
:1020A00004000000681818004C4201000400000001
:1020B00070181800DC4201000400000078181800B5
:1020C000404401000400000080181800085D06006C
:1020D00004000000881818005044010004000000AB
:1020E00090181800303602000400000098181800FC
:1020F0003C37020004000000A01818009C470200B2
:1021000004000000A81818008476020004000000F3
:10211000B01818006C8E020004000000B8181800F7
:10212000AC91020004000000C0181800B4A902001D
:1021300004000000C818180050AA020004000000A3
:10214000D01818002CE3030004000000D818180071
:102150000CE6030004000000E0181800ACF00300D7
:1021600004000000E8181800E01604000400000055
:10217000F0181800CC18040004000000F81818002B
:10218000DC1F040004000000001918002C330400B8
:102190000400000008191800A4490400040000000D
:1021A00010191800745304000400000018191800D6
:1021B000185D0400040000002019180074B1040028
:1021C000040000002819180058C204000400000090
:1021D0003019180050C40400040000003819180019
:1021E000A8C504000400000040191800DCD5040054
:1021F0000400000048191800ACE7040004000000C7
:1022000050191800ECE704000400000058191800E9
:1022100028E804000400000060191800C0E8040069
:10222000040000006819180064F6020004000000B1
:1022300070191800E0F70400040000007819180075
:10224000E4FA0400040000008019180004FE0400F1
:102250000400000088191800BC0A050004000000F2
:1022600090191800C42D05000400000098191800EA
:10227000442F050004000000A01918002C7205006E
:1022800004000000A81918009C7605000400000056
:10229000B01918001079050004000000B8191800E2
:1022A000DC96050004000000C0191800989905008C
:1022B00004000000C81918006C00030004000000AE
:1022C000D0191800A800030004000000D819180055
:1022D000F848030004000000E0191800C4C7050016
:1022E00004000000E8191800D4790500040000007B
:1022F000F0191800F017050004000000F819180084
:10230000B05B030004000000001A1800207B0500E9
:1023100004000000081A1800AC600300040000006C
:10232000101A18003C66030004000000181A180078
:10233000CC6A030004000000201A180030CA05000F
:1023400004000000281A1800186E030004000000A2
:10235000301A1800E470030004000000381A180056
:10236000F495040004000000401A18008CF90500E0
:1023700004000000481A1800B8FB05000400000023
:10238000501A18008CFE050004000000581A1800AE
:102390007010060004000000601A1800F411060016
:1023A00004000000681A1800C01F060004000000A6
:1023B000701A18006421060004000000781A180042
:1023C0005478030004000000801A18002C7A0300DF
:1023D00004000000881A1800605206000400000083
:1023E000901A1800C47B030004000000981A18001B
:1023F0008086030004000000A01A1800E089030092
:1024000004000000A81A1800D4830600040000008D
:10241000B01A18002485060004000000B81A18003D
:10242000D085060004000000C01A1800583A0400C5
:1024300004000000C81A1800A4980400040000005A
:10244000D01A1800C89E040004000000D81A180012
:10245000D0D6060004000000E01A1800D8D206000A
:1024600004000000E81A180020E106000400000043
:10247000F01A18004CFD060004000000F81A1800BD
:102480002C9C030004000000001B180090AC03000B
:1024900004000000081B1800A43607000400000018
:1024A000101B1800C0AD030004000000181B18002A
:1024B000E4AF030004000000201B1800E410070034
:1024C00004000000281B1800F0180700040000009A
:1024D000301B1800D03C070004000000381B180017
:1024E0006445070004000000401B18005449070021
:1024F00004000000481B1800546807000400000096
:10250000501B1800A869070004000000581B1800A1
:10251000486A070004000000601B1800A47507004B
:1025200004000000681B1800A879070004000000E0
:10253000701B1800B47D070004000000781B180011
:10254000FC83070004000000801B180004860700BD
:1025500004000000881B1800B49D07000400000060
:10256000901B18004CA0070004000000981B1800E6
:1025700024AD070004000000A01B180034B50700BC
:1025800004000000A81B180034C00700040000006D
:10259000B01B1800F4C0030004000000B81B1800B2
:1025A00020CB030004000000C01B1800BCCC0300BB
:1025B00004000000C81B180000000000000000001C
:1025C0002DE81FC0AFF31F8101B400B586B0FFB482
:1025D00080EA000000F1010000F063B82DE81FC0A0
:1025E000AFF31F8101B400B586B0FFB480EA0000EC
:1025F00000F1020000F055B8F54681B0EE462DE836
:102600001FC0AFF31F8101B400B586B0FFB480EAEC
:10261000000000F1030000F044B8F54682B0EE4639
:102620002DE81FC0AFF31F8101B400B586B0FFB421
:1026300080EA000000F1040000F033B8F54681B0F4
:10264000EE462DE81FC0AFF31F8101B400B586B080
:10265000FFB480EA000000F1050000F022B8F54662
:1026600081B0EE462DE81FC0AFF37F8701B400B5FF
:1026700086B0FFB480EA000000F1060000F011B857
:10268000F54681B0EE462DE81FC0AFF37F8701B459
:1026900000B586B0FFB480EA000000F1070000F04A
:1026A00000B86C4604F140040ACCEFF300820FB48A
:1026B000A4F10C04216003F040016F4607F15807B4
:1026C00066465D4654464B46424612B0FCB48CB05A
:1026D000062802D1402900D061B60A4C2468002C9B
:1026E000FED06846A04773B60CB07FBC80468946D2
:1026F00092469B46A446B6468FB0FFBC08B0BDE9E3
:1027000000C000007427180062B6704764B67047B6
:1027100061B6704772B6704772B6704719EE1C1FEB
:10272000044A41EA020109EE1C1F034909EE3C1F5D
:1027300070470000010000000000008019EE1D0F2E
:10274000704715EE100F704716EE100F704715EE1C
:10275000300F704716EE500F7047000000EE000675
:1027600000BF00BF00BF00BF00BF7047DDBAADBBF8
:102770000000000000000000010000000000000058
:1027800000000000FFFFFFFFFFFFFFFF024A11688C
:10279000106008467047000074271800024A11684C
:1027A000106008467047000004671D0000F0A0F8A4
:1027B00039480168394A02EA0102394941580A6830
:1027C000384B03EA02030F2B00F00580012B03D0E6
:1027D00001F10401F3E7FEE701F10801324B03EADE
:1027E0000203324CA342EAD100F02CF9804600F0FB
:1027F00039F9814649462E4BCB5800F0D1F879463D
:10280000B14240F1028000F079F940462949086060
:1028100048462949086000F0C3F828490D60284956
:102820000E6028490F603D46274828494FF00002B6
:1028300004C08142FCD8A5F10405AD46009D6FEAB5
:1028400005044FF0100365FA03F5AC4240F0178021
:102850004FEA14444FEA84041D4D2C606B46A3EBF1
:1028600004031C4E1C4D2E60002C00F00880194DF6
:1028700005EB040680CB80C5AE423FF7FBAF81B0CD
:1028800068464FEA10104FEA001085461348864606
:10289000134C2047FEE7000000000018F8FF00007E
:1028A000FC0000000F00000000FF0F00003E0800C9
:1028B000080400007C2718008027180070661D009F
:1028C00074661D0078661D00F4771D004C801D00A5
:1028D00090661D0014BB1E0080661D009428180021
:1028E000DB80180000000000000000000000000075
:1028F00010EE900FC0F30721002900F02580264C30
:1029000080EA00000ECC002900F00B8006EE120FCA
:1029100006EE511F06EE112F06EE913F00F1010069
:10292000F0E7002800F010801C4A11EE101F41EA69
:102930000201BFF34F8FBFF36F8F01EE101FBFF384
:102940004F8FBFF36F8F00BF704700BFAFF30080A2
:1029500037000000000000000F03000037000000F7
:1029600000000010050300003900000000000020F6
:10297000050300003B0000000000004005030000CC
:102980003D00000000000080050300000000000082
:1029900000000000000000005029180001000000A5
:1029A00041464A681346204C03EA04034FEA1313D6
:1029B0001E4C02EA040216461A441D484FF0000558
:1029C00008644B6C1B4C03EA040303F101031A4C2B
:1029D0001B4603FB04F31D4400F101009042EFDBB2
:1029E000002D3FF4F8AE154D414632464FF000063B
:1029F0000F4808644B6C0F4C03EA040303F1010316
:102A00000D4C1B4603FB04F31E4400F101009042F1
:102A1000EFDB19EE112F0A4902EA0102A2EB0602CE
:102A200005EB020716467047F00000000F0000009B
:102A3000000000003F0000000020000000000C002B
:102A400000F0FFFF0868054A01F1040102EA0002F4
:102A5000052AF7D1024A00EA020070470F00000081
:102A600000F0FFFF0868074A01F1040102EA0002D2
:102A7000052AF7D1044A1042F4D0044A00EA0200C1
:102A8000704700000F0000008000000000F0FFFF12
:102A90000C490D4A0D4B0E4C0E4D0F4E0F4F10486A
:102AA00080461048814610488246104883461048A8
:102AB00084461048104886464FF00000B0FBF0F006
:102AC00005607047010101010202020203030303D2
:102AD000040404040505050506060606070707079E
:102AE00008080808090909090A0A0A0A0B0B0B0B4E
:102AF0000C0C0C0C0D0D0D0D0E0E0E0EFEE7000055
:102B000000487047F4771D00004870474C781D005E
:102B1000004870477C781D00004870476C781D00A5
:102B200000487047DC781D000048704730781D0071
:102B3000074B002282611B681A680AB9586005E0D9
:102B400019B95A689061586070478261186070477F
:102B500054781D0008B5827A084B42F00102827257
:102B60001A6822B153682BB19168984708BD4FF09D
:102B7000FF3008BD4FF0FF3008BD00BFF4781D00E6
:102B8000074B1B68186850B15A6890424FF000021A
:102B900002D11A605A60704781691960826170477A
:102BA00054781D00054B1B68186830B182691A60A3
:102BB0001A89013A1A8100238361704740781D0009
:102BC000094B1B681A680AB9586005E019B95A68B8
:102BD0001061586001E0026118605A8901325A811F
:102BE00000225B681A61704744781D00094B1B681E
:102BF000186868B15A6890425A8903D10021196057
:102C0000596001E001691960013A5A8100230361AA
:102C1000704700BF44781D0038B5094B1C220021C5
:102C200005461C6890F660FA2389226812B965602F
:102C3000256002E06268956165600133238138BDDB
:102C400040781D0007F0BABC01232DE9F74F8B40F7
:102C5000B3F5804F28BF4FF48043042B38BF0423C3
:102C60000330019320F00304FFF74EFF364B0022A0
:102C70001546D3F800B09446134622E0D1F800A0E0
:102C8000A2451DD301F10807019E07EB0A08C6F112
:102C90000009C4EB080609EA0606BE4210D3C7EBDA
:102CA0000609B9F1070F01D8BE4209D1C4EB0A07E2
:102CB0005F4505D2424635466FB1BB4684460B465A
:102CC000084641680029D9D13BB9204A1846116805
:102CD0000131116036E084460B46521B111B10294E
:102CE00009D918682A19401A0839186029515968F1
:102CF00051605A6022461968891A03D15A68CCF883
:102D000004200CE0072905D8104B00201A68013276
:102D10001A6017E05A50A1F108021A605B180C48BB
:102D2000002219685A6002688A180260094801681E
:102D3000083101608918084A1068814203F10800CF
:102D400088BF1160BDE8FE8F08111800041118003B
:102D50001C1118004811180060781D0038B5194B77
:102D6000054650F8082CA0F1080419688A1A1A6060
:102D7000154B1A68083A1A60FFF7C6FE02E0A34234
:102D800003D218464368002BF9D155F8082CA9182E
:102D90008B4205D119685B685218083245F8082C37
:102DA0006360036803F108028218A24207D155F854
:102DB000082C9B18083303606368436000E044609C
:102DC000002038BD1C1118004811180010B5002152
:102DD0000446402290F688F9104B2360104B636044
:102DE000104BA360104BE360104B2361104B6361E9
:102DF000104BA361104BE361104B2362104B6362D5
:102E0000104BA362104BE362104B2363104B6363C0
:102E1000104BA363104BE36310BD00BF000018000C
:102E20003A081D003C081D006C661D0070661D0000
:102E3000F4771D00F4771D004C801D004C801D00B0
:102E4000E46B1F002C801F0098642000D80018003D
:102E500000091800000018000000180070B590B0BC
:102E60006846FFF7B3FF284D2978002932D108982A
:102E7000099C241A06D0224690F636F90898214675
:102E800094F60EFD21492246214890F653F900227E
:102E9000204B1A700122204B2A70196829B10B7837
:102EA0001BB11E4B186805F0A9FA1D4B196831B10A
:102EB0000B7823B1194B0122186805F09FFA194BC2
:102EC0001968F1B10B78E3B1144B0122186805F0D1
:102ED00095FA16E0144E317899B90A980B9C241A89
:102EE00006D0224690F600F90A98214694F6D8FCBE
:102EF000074822460D4990F61DF900232B70012347
:102F0000337010B070BD00BFEC781D00989A0800B7
:102F10002A131D0078781D004411180084781D00C4
:102F2000F0781D00E8781D0090781D0062FA080016
:102F3000014B1868704700BF70661D00014B186890
:102F4000704700BF74661D0008B5836A33B1002363
:102F5000836280F82030103094F6CEFC012008BD4A
:102F600038B5012412E0164B1C6809E0E3681D42E5
:102F700005D025EA030563680BB1A068984724686B
:102F80000DB1002CF2D194F631FC04460D4B1868BB
:102F900099F634FB0C4B1D680540E4D1002CE2D1BE
:102FA0000A4D2B6823B11B6813B1586894F6D8FFFB
:102FB0002B6823B11B6813B15B68002BE6D038BDCA
:102FC000401118000C1118001811180034111800C5
:102FD000024B1A6801321A60704700BF88781D00E2
:102FE000014B1868704700BF88781D00014B1868B6
:102FF00005F032BE64781D002DE9F04F9DB00AA89F
:10300000FFF7E4FEFFF794FF924EDFF8A882DFF8A7
:10301000A8A2914F0446FFF791FF0A9B0B9A0F99C4
:10302000D21A0E9B0D9DC3EB01091199109BCB1A6F
:103030000C99C1EB050B93443268D8F8001002F5E7
:103040008052521A4A44D2185A441419DAF80050DD
:10305000241882480994824C2268AD183A68089373
:10306000C5EB020CCDF81CC090F664F8089B09F57E
:103070007E710193073103F57E7307330BF57E7282
:103080009B0A890A073202930423920A0091594647
:1030900003934B46734890F64DF833682068DDF88B
:1030A0001CC03968019000F57E70039303F57E73B0
:1030B0000CF57E760730073301F57E720736800AFD
:1030C0009B0A0732B60A920A029004936346664846
:1030D000009690F62FF8099905F57E72073201F5F2
:1030E0007E730733920A9B0A294600934646099B42
:1030F0005E4890F61FF85E4B5E4F5F48196890F689
:1031000019F839685D4B0A689A4203D05C4890F61A
:1031100011F825E01A910B4604E01568131D574875
:10312000854203D11A461BAB9A42F6D31AAD3368D7
:1031300000932B4653481A928FF6FCFF3B681A9A6D
:10314000E91AD31A50480A4600938FF6F3FF336802
:103150001A9A591B9B1A4D480A4600938FF6EAFFAC
:103160004B4B1B68C3B11D78CDB15989DD8901FB7B
:1031700005F61A893C354D4306F57E7307334548FD
:103180009B128DE8280005F57E7307339B1202938E
:1031900033468FF6CFFF03E01D461E4600E02E4665
:1031A0003D4B1A68C2B11378B3B15189D08901FB84
:1031B00000F312895C3048432D18019000F57E70B1
:1031C00003F57E77073007378012BF120290F6189A
:1031D000324800978FF6AEFF314B1A6852B313781E
:1031E00043B35189D08901FB00F312895C30484315
:1031F0002D18019000F57E7003F57E7707300737B4
:103200008012BF120290F618264800978FF692FFA0
:103210002368DAF80020991B9B185B1B03F57E706E
:10322000073001F57E72800A07320090920A1E482C
:103230008FF680FF1D4B1D68FFF7D8FE0446FFF791
:10324000CFFE29462246034619488FF673FF1DB06C
:10325000BDE8F08F60781D00081118005D131D0097
:103260001C1118006C131D00AB131D00F0131D0082
:10327000041118003C781D002B141D004B415453C1
:1032800046141D006A141D00A1141D00C6141D0063
:1032900044111800EC141D00F0781D0019151D00D4
:1032A000E8781D004B151D0080151D0068781D0075
:1032B000AA151D0074781D0048111800074B10B5A1
:1032C0000446186805F04BFC054B1B68984203D276
:1032D000044B1B6843F8204080B210BD64781D0089
:1032E00068781D0048781D00044B00201B6843F8D7
:1032F0002100034B186805F094BC00BF48781D00FE
:1033000064781D0008B5714603488FF613FF01204D
:10331000BDE8084000F00ABBD2151D00014B036058
:10332000704700BFFC781D0038B50D460446FFF716
:10333000EFFB0168034631B105485A688FF6FAFE83
:103340004FF0FF3038BD80E83000084638BD00BF80
:10335000E1151D0010B50C46FFF7DAFB036813B149
:10336000406821469847002010BD10B50446FFF77D
:10337000D3FB036813B1406821469847002010BD75
:1033800038B504460D46FFF7CBFB03681BB980E850
:103390003000184638BD4FF0FF3038BD10B5044638
:1033A000FFF7BEFB036813B1406821469847002031
:1033B00010BD38B504460D46FFF7B6FB03681BB9D0
:1033C00080E83000184638BD4FF0FF3038BD38B5C2
:1033D00005460C46FFF7A8FB03681BB14068294669
:1033E00022469847002038BD00F0B8BB024B1B684E
:1033F0000BB1586099607047F4781D00034B1B684F
:103400001868D0F1010038BF0020704754781D00C3
:1034100010B50446FFF7F2FF18B12046FFF79AFBFC
:1034200028B120460021BDE81040FFF781BB10BD48
:10343000F8B506460768FFF7B5FB0546002853D0E8
:103440002B4B1B68186804F093FF044688B994F668
:103450003BFBB0F5804F08D9264B22464FF4F06174
:10346000186806F01BFF044618B92846FFF7D4FB7E
:1034700013E0BB6C0820002123F000436B601E4B5F
:103480002B61FFF7E1FB58B92846FFF7C5FB194B45
:1034900021460122186806F02FFF6FF01A00F8BDD0
:1034A000B368B7F85420E1680360F3684360B6F985
:1034B0000630D21AB388CB18686100212A81228293
:1034C000FA7DE360E275B6F90620EB607B6CD318F9
:1034D00022462B60094B186805F058F82846E7612A
:1034E000FFF796FF0020F8BD6FF01500F8BD00BF94
:1034F000F4781D0084781D00793518008C781D0043
:1035000010B50BE0FFF73CFB0446FFF723FB28B1A7
:1035100020460121BDE81040FFF70ABBFFF76EFF10
:103520000028EFD010BD0000034B1B681B680BB1D7
:10353000FFF7E6BF704700BF54781D000D4B70B514
:103540001C6811E0FFF752FB0646FFF771FF051EEE
:103550000ADA15F1160F14BF0125022530460121A4
:10356000FFF72EFB257270BD2368002BEAD1237272
:1035700070BD00BF44781D002DE9F8430646406940
:103580000D4690E89000FFF7E9FB0F4B002118680B
:1035900005F036F88046A0B10023D0F81C90C36136
:1035A0003046FFF739FB24B1404649463A462B46A0
:1035B000A047064B1B681B7A1BB1BDE8F843FFF719
:1035C000BDBFBDE8F88300BF8C781D0044781D00A6
:1035D00070B5164D04462E462B685B897F2B05D9A6
:1035E000FFF7ACFF2B685B897F2B1CD833680F4D2E
:1035F0001B6893B92046FFF71BFF10F1160F05D08B
:1036000098B11B3006D12B68012201E02B68022201
:103610001A7202E006488FF68DFD20460021FFF762
:10362000CFFA002070BD4FF0FF3070BD44781D0010
:1036300028161D00034B1B681B7A0BB1FFF77EBFDA
:10364000704700BF44781D00014B83E803007047BA
:1036500058781D00034A08B513680BB150689847A5
:1036600008BD00BF58781D00004870474C791D0008
:1036700038B504460D46FFF7F7FF80E8300038BD47
:103680002DE9F34107460C46FFF7B0FC10B9FFF7F0
:103690009FFC34E0002620460DF106016A46ADF895
:1036A000066007F10308009694F67AFE009D28F064
:1036B000030841F23C0345449D4220D8FDB1284611
:1036C0003146FFF7C1FA0446C8B13146009A8FF679
:1036D0000BFD009A27822046AD1AA318C8EB0508F7
:1036E00003EB08025D196360E260A560FFF7E6FD89
:1036F0000123A3702080BDF80630638204E0044BF0
:1037000000241A6801321A602046BDE8FC8100BF1F
:1037100048791D0038B500210546008AFFF7B0FF43
:10372000044620B1C0682A8AE9688FF659FC204611
:1037300038BD000038B5858A0123CA1C8370044651
:10374000084B0182002113408268D31A2822C360EB
:10375000438A03F40C53438214308FF6C5FCA582D0
:1037600038BD00BFFCFF010038B50446638A590626
:1037700021D4A278013AD2B2A270002A27D1E278ED
:1037800062B1134B204653F82250E989FFF7D2FF6C
:1037900021462846BDE8384004F01DBEDA0516D49F
:1037A0000C4B2046E3602188FFF79EFD2046BDE8D4
:1037B0003840FFF7D3BA074B2046E3602188E56B1A
:1037C000FFF792FD2046FFF7C9FA2C46CEE738BD39
:1037D000287A1D00EFBEADDE38B504461DE0104B63
:1037E000228B1B6853F822500E4A13682BB100211C
:1037F000506821832146984770B90B4B1B6843B131
:103800000A4AE1781B6852F821209A4201D1FFF759
:1038100011FF2046FFF7A8FF2C46002CDFD138BD52
:1038200048781D004C791D00F4781D00287A1D0091
:10383000374B70B51C68266876B1A3190025A661C0
:103840001D776319187F013594F67EFDB542F8D1D6
:103850000A2094F679FD47E0D4F89C00002856D061
:10386000022194F6D3FC00F00F0001284FD002286B
:1038700002D1204694F6D6FC0521D4F89C0094F69B
:10388000C5FCC20743D5D4F89C00002194F6BEFCC9
:10389000D4F8AC3005461BB1D4F8A800E9B298477B
:1038A0000D2D10D0082D01D07F2D0DD1A369002B37
:1038B0002DD0013B0820A36194F646FD202094F60C
:1038C00043FD08201FE00A25284694F63DFDA66921
:1038D0000A2D04EB060305D001367F2E1D77A66165
:1038E00002D870BD00221A777F2EA66104D804F199
:1038F0001C00314694F6FCFC00233E20A3612360AB
:1039000094F622FD2020BDE8704094F61DBD70BDE8
:103910004C1118000020FFF78BBF0000024B4068DD
:10392000196892F6FFBA00BF8411180010B504465A
:1039300094F6B0FC0CB100231B60064B0021186804
:1039400092F6F0FA044B1B6803B1984794F6A2FC78
:10395000FEE700BF0C111800501118002DE9FF47B9
:103960004B4B0446D8620368042B03D1494B1868BB
:1039700098F6C8FB2368062B04D104B0BDE8F047D5
:10398000FFF7EEBA444B454E656C1B68F16932682F
:10399000C5EB030A42488FF6CDFBA36C0093224689
:1039A000636C4FEA9A0A0193A3680293E368039356
:1039B0003C48E36C21688FF6BDFB2368042B07D1DC
:1039C000FEF7BFFE0746FEF7BFFE0246364808E098
:1039D000032B09D1FEF7BBFE0746FEF7BBFE0246EE
:1039E000324839468FF6A6FBE36904F110010093D3
:1039F0000027236AB9460193B846636A0293A36A13
:103A000003932B480EC98FF695FBA36B04F12C0191
:103A10000093E36B0193236C029326480EC98FF643
:103A200089FBEB680093244895E80E008FF682FB33
:103A300005F11001EB69009320480EC98FF67AFB5F
:103A400018E07A59D3070FD5FF2A0DD91C4B9A429B
:103A500004D902F16243B3F5801F05D819483946ED
:103A60008FF668FB09F101090437B9F10F0F08F16E
:103A7000010801D8D045E4D13368002043F48063C5
:103A800086E8180004B0BDE8F047FFF74FBF00BF5D
:103A900094781D000C11180078661D00FC781D003C
:103AA00061161D0077161D00AC161D00C0161D0006
:103AB000D4161D0007171D0036171D0054171D00D2
:103AC0003A081D0072171D002DE9F34198461B4B63
:103AD0000D46064614461F681948BF1A8FF62AFB82
:103AE00031462A46174800252346CDF80080BF08F6
:103AF0008FF620FBA8462E4617E02A59D1070FD58E
:103B0000FF2A0DD9104B9A4204D902F16243B3F552
:103B1000801F05D80D4829468FF60CFB08F10108D7
:103B200001360435B8F10F0F01D8BE42E5D10020AF
:103B300002B0BDE8F041FFF7F9BE00BF78661D0096
:103B40007E171D0096171D003A081D0072171D00F4
:103B5000014B1868704700BF7C661D00074B1A6850
:103B6000D2F8E01110B141F0100101E021F0100194
:103B70001B68C2F8E011D3F8E00170479C791D0082
:103B800040F644024369C3F82021094AC3F82421BE
:103B900040F64802C3F82021064AC3F8242140F623
:103BA0004C02C3F82021044AC3F82421704700BF07
:103BB0003C883C88648864880390039030B504682E
:103BC0007CB1256805600D684968A560E160A38245
:103BD00043682360438901332261446043810120AB
:103BE00030BD204630BD0B46104601F110015A6829
:103BF0001B89FFF7E3BF00F58053DB6ADA0105D5C7
:103C0000436900F58C50826AC3F8A82170474FF0D1
:103C1000FF3243691A62C3F89021C3F89821C3F8B0
:103C2000A42170474FF4807243699A627047000084
:103C3000024B1A6801321A60704700BF58681D00B5
:103C400003685A6903F58C531B7EC2F8A031704794
:103C500000F58D5003680BB100221A60704743696C
:103C60001A6842F010021A604FF40062C3F8202173
:103C7000D3F8242122F08072C3F824217047000079
:103C80007FB52B4B04460D4604AE0FCB06E90F0063
:103C900004F58C5393F82D30002B47D1E5B96369B7
:103CA0004FF41372C3F82021D3F8242102F0030348
:103CB00006EB830353F8103C591C37D0D20853430A
:103CC000192205335A43B2F5005F2FD2B2F5806F47
:103CD00004D3D208012501E01D469622636941F60E
:103CE000140102F03F00C3F820119209D3F8241107
:103CF000520121F07C5121F4F07142EA0062C3F8D4
:103D00002411D3F824110A43C3F8242141F61802E0
:103D1000C3F82021D3F8242122F48002C3F82421FF
:103D2000D3F8242142EA8555C3F824517FBD00BF52
:103D30003C081D00436941F61402C3F82021D3F862
:103D4000242142F01F02C3F82421704700F5C45318
:103D5000F0B59D681C24544300F5C6562B19CB6062
:103D6000767D0EB9174E00E0174EB65C1A694A60B0
:103D700017680F6011600A6851605A7D1961FAB9BD
:103D800000F5C452D2680BE000F5C6514F7D117D9D
:103D90000FB90C4F00E00C4F795CB14205D31268AB
:103DA00000F5C4510C318A42EED101215975302100
:103DB0005268D9825A601168295113602A59536098
:103DC000F0BD00BFC8181D00C0181D002DE9F0414E
:103DD00000F58C5393F8245025BB00F595531B68D0
:103DE0009B6B5B691BBB00F59452D269926B556962
:103DF000D5B9104F00F58A54D7F850802069C047D4
:103E00000646A0B9D7F8A4702069B847054668B936
:103E10006069C04758B96069B847D0F1010538BF3B
:103E2000002504E0002502E01D4600E03546284656
:103E3000BDE8F081985F08004369B422C3F82021EF
:103E4000D3F8243103F4E0431B0B032B9ABF024A3F
:103E5000D05C0620704700BFE8171D0000F5C65370
:103E60005A68012A05D198214369C3F82011C3F883
:103E70002421704770B500F5945504460E46686AD3
:103E800002F051F9014630B904F5C454E36B1A88C5
:103E900001321A8070BD04F58A531B6BDA68002367
:103EA000837043700A20087050684B819368CB6020
:103EB0006B6A486020460E819A68D288BDE87040DF
:103EC00002F0F5BE2DE9F041069D04460E46284657
:103ED0001746984602F027F90146B0B10E2380F844
:103EE00001800370002346600381022387814381A0
:103EF0002046AB68DA882B4602F0D9FE00280CBFBA
:103F00004FF0FF300020BDE8F0814FF0FF30BDE8FA
:103F1000F0812DE9F04700F5945804469946D8F809
:103F200024000D46164602F0FEF80021182207462E
:103F30008FF6DAF801233E8120463B703946D8F8E7
:103F400024307D81C7F804909A68D288BDE8F04794
:103F500002F0ADBE2DE9F04700F5945804469946AD
:103F6000D8F824000E46154602F0DDF8002118228C
:103F700007468FF6B9F80223BE8120463B703946CA
:103F8000D8F824303D81A7F80A909A68D288BDE815
:103F9000F04702F08CBECB6830B51A690C688A42D3
:103FA0004A6808BF1A6114600C6862601A4652F8C9
:103FB000084F944207D15A681D6815601D686A60F1
:103FC00000221C615A7500F5C450002340688B60C4
:103FD000CB60BDE8304004F051BE38B50C4649B95D
:103FE00038BD0C2303FB05430135EDB2586A06F0DA
:103FF00051F900E000252378AB42F2D82046BDE815
:10400000384006F047B970B50446486C0D4608B113
:1040100006F040F9286C08B106F03CF9686D08B16B
:1040200006F038F9A86D60B106F034F904F5C6540D
:10403000667C013EF6B266741EB9E068FEF784FF46
:10404000267400236B656B642B64AB6570BD70B523
:104050000C4651B100250D704D830D83FFF7D3FF42
:104060002369E57784F852501D6070BD00F58C53CC
:1040700093F82D306BB900F5B45191F8382042B95E
:10408000012381F8383000F5B653486B196893F670
:10409000F5BB704700F58D5370B51B6804460E469E
:1040A000CBB11B6843B90CE00A2093F623FF04F55B
:1040B0008D531B681B6800E06525013D01D0002B76
:1040C000F2D104F58D521E43204612681660BDE8F9
:1040D0007040FFF7A7BD70BD0221FFF7DBBF10B531
:1040E00000F58C5393F82D30044663B9FFF76EFE4C
:1040F00020B12046BDE81040FFF7EEBF2046BDE8E6
:104100001040FFF7B3BF10BD70B5056805F5B45496
:10411000E36B5A1CE26342F21072934204D805F535
:104120008C5393F82D6026B1002384F83830E36374
:1041300070BD2846FFF74AFE024638B184F8386061
:104140002846E663BDE87040FFF7C6BF05F5B655E3
:10415000606B2968BDE8704093F690BB70B500F5C0
:104160008C5393F824308B4205460C4626D009B96F
:10417000FFF786FD022C6B69C3F8A0411AD103E05A
:104180000A2093F6B7FE00E00B266B69D3F8A02156
:1041900002F44072B2F5007F01D0013EF0D1D3F8B5
:1041A000A03103F44073B3F5007F03D12846012109
:1041B000FFF766FD05F58C5585F8244070BD436911
:1041C00070B5D4260446C3F82061D3F824516B059A
:1041D00018D5FFF7D5FC6369C3F820610221C3F845
:1041E00024512046FFF7BAFF4FF47A7093F682FE0F
:1041F00020460021FFF7B2FF4FF47A70BDE870400F
:1042000093F678BE70BD38B54468054674B123682E
:1042100018224360084621468EF6E2FE2B68236092
:104220006B89013B2C6001206B8138BD204638BD75
:1042300010B5044604F5C4540C488EF67BFF0C48B8
:10424000E36B19888EF676FFE36B0A4859888EF681
:1042500071FFE36B084899888EF66CFFE36B0748A3
:10426000D988BDE810408EF665BF00BFEC171D0071
:1042700014181D002B181D003E181D004F181D009E
:104280002DE9F04100F5C0569CB00D460446D6F825
:104290001E8093F6C9FC04F5C257BB6BC3EB08083C
:1042A0008044C6F81E8093F6BFFC40F6842206F1D7
:1042B0000E01C7F8120063696C24B86302A8C3F842
:1042C0002021D3F82421C6F82A2040F68822C3F8FA
:1042D0002021D3F82421C6F82E2040F68C22C3F8E2
:1042E0002021D3F82421C6F832204FF42962C3F8E4
:1042F0002021D3F82421C6F8362040F69422C3F8B2
:104300002021D3F82421C6F83A2040F69822C3F899
:104310002021D3F82421C6F83E2040F69C22C3F881
:104320002021D3F82421C7F802204FF42A62C3F8D1
:104330002021D3F82421C7F8062040F6A422C3F890
:104340002021D3F82421C7F80A2040F6A822C3F878
:1043500020216822D3F82431C7F80E300623ADF8A7
:104360000430ADF806408EF63BFE284601A92246F1
:104370008EF636FE20461CB0BDE8F08100F5B45341
:104380002DE9F0411A6B04468846931C012B29D96C
:10439000154B01EBC20203EBC20153F832304E68F9
:1043A00003B19847B21C1DD004F5C0556B68142B9F
:1043B00001D100236B606B6804F5B45703F5B67246
:1043C000396B04EB021204EB031404F5B65451608C
:1043D000C2F80880E66093F627FC6B680133206121
:1043E0006B603E63BDE8F08118671D0010B50221C7
:1043F0000446FFF72DFC20460521BDE81040FFF7DD
:10440000BDBF10B502210446FFF722FC204606215D
:10441000BDE81040FFF7B2BF10F0010F084601D011
:10442000002100E00121FFF7A9BFF0B51D4687B0CC
:104430000023064604931446059300F5C4535F6BAE
:1044400007B9CF686B1E9DF8302030469BB2062B13
:1044500098BF082500232946009302F032FB6368C9
:1044600023F00043636006F594539A6942B106F560
:104470008A521033506993E80600082304F0B2FE14
:10448000636806F58A560593236806AC706944F89C
:10449000083D2B4694E8060004F0A4FE0095002396
:1044A000012505932B46019502950497706994E8C0
:1044B000060004F0DDFE284607B0F0BD00F5945379
:1044C0002DE9F0435E6A8BB0044630460F4601F09A
:1044D0002AFE0546002843D004F5A658D8F83C30FB
:1044E0005B68002B3CD0F96818228EF679FDFB68DA
:1044F00002A9B5F80C901833FB603B8A183B3B824D
:104500000C232B70D8F83C00FFF77DFE069B6B60F8
:10451000B9F1000F19D0049B204608933946059B3A
:104520000993BDF81C304B4538BF9946AB894B45C4
:1045300004F58A5388BFA5F80C9042229B6A00922A
:1045400008AA4B449BB2FFF770FFB3682046DA8895
:104550002946334602F0ABFB04F5B45400236371E3
:104560000BB0BDE8F08308780128F8B50C46174673
:1045700018D08B689868A8B18D6B00260BE06B781B
:10458000A268D088584305F076FE0C2303FB06533F
:104590000136F6B258622B789E42F0D30120AB7000
:1045A000E7632070F8BD2DE9F04F0D46C98AA1F1EF
:1045B000020B8FB01FFA8BFBBBF1270F064605914C
:1045C00000F28E8005F10808404609A98FF678F8B8
:1045D00006F5A853602202FB0BFBD3F810A01AF8D3
:1045E0000B700AEB0B04002F40F0A380EB8B302BF9
:1045F000079340F0A08005F10E0130693A4606911C
:104600006978069B8DE808012B7D0293012303F056
:104610005BFB8146023000F09080A88BC00805F05B
:104620002DFE606428B1A88BC00805F027FE206429
:1046300030B906F5C453DB6B1A8801321A807EE06C
:10464000A88BC00805F01AFE6065002877D006F533
:10465000C453A4F85C70586804F001FB01460028BC
:104660006DD08460E06430462A7DFFF76FFB012344
:10467000A26804F12400059963842184E98A1180E9
:10468000A98B9180E98BD180296A9160696AD16098
:104690000622069904938EF6A3FC062204F12A0052
:1046A00041468EF69DFC2A7D84F830206A7884F895
:1046B000312019F4007F049B0AF80B30079B6786B2
:1046C000A38684F81E9009D0022319F4807F84F811
:1046D000363003D0638C43F004036384002700E08A
:1046E000052706F59458D8F8240001F01CFD04466F
:1046F000D0B1002118228EF6F7FC04233046237037
:104700006B78637021466B68ED8A6360D8F824305B
:10471000658127819A68D28802F0C9FA00280CBF07
:104720004FF0FF30002001E06FF01A000FB0BDE83D
:10473000F08F042704E0032702E0012700E00227AE
:1047400030462146FFF75FFCCBE700F5A853F0B5F4
:104750008C1E1B696022A4B285B002FB0434638CFA
:104760005906054629D443F0400304F1240704F117
:104770002A066384214601F0E5FC94F83110228C6E
:104780000097019694F8303002930323286903F0D0
:104790009BFA638E8BB1286994F8311005F5C655E4
:1047A000228C6D7D94F830300DB143F0800302937C
:1047B00009230097019603F087FA002005B0F0BDA9
:1047C000002110B50A460446C06804F5805497F6E7
:1047D000F5FC0023636310BD006802F012B8F8B561
:1047E000436900F5C055044604F5C256DA6C00F57D
:1047F000B453DA60D5F80E300133C5F80E3093F6B5
:1048000013FAF063D5F81E7093F60EFAB36B4FF4FB
:1048100080220621FF1A00233F18C5F81E70E068A9
:1048200004F58C54B363134605F005F8A36A23F02E
:10483000080343F00103A362012384F83430F8BD78
:1048400000F58C5080F825100846FEF7CDBD0121FB
:10485000FFF7F6BF0121FFF7F3BF0121FFF7F0BF1C
:104860000121FFF7EDBF0121FFF7EABF10B50121DC
:104870000446FFF7E5FF20460421BDE81040FFF79E
:1048800009BC38B500F5B45595F8383004462BB15D
:10489000686BFEF759FB002385F8383004F58C531C
:1048A00093F82D3023B92046BDE83840FFF7DEBF2E
:1048B00038BD10B501210446FFF7C2FF2046FFF7BF
:1048C000D5FF2046BDE81040FFF7D0BB10B5012151
:1048D0000446FFF7B5FF04F58C5393F82D3023B948
:1048E0002046BDE81040FFF7C1BF10BD0021FFF713
:1048F000A7BF38B500F5B45494F8383005462BB14D
:10490000606BFEF721FB002384F838302846002135
:10491000BDE83840FFF794BF0121FFF791BF0000C9
:1049200010B50446C068A16805F020FA074A4FF4A4
:104930007A7341F64C01B0FBF3F3B2FBF3F3626917
:10494000C2F82011C2F8243110BD00BF80841E00BF
:1049500010B50421044600234FF0FF32C06898F6DA
:104960005DF90021E0684FF0FF320B46BDE81040D2
:1049700098F654B910B5044689B182B1084603F0DF
:10498000A5FC074B1A6801321A6004F595531A68A2
:10499000012301462046BDE8104002F08BBA10BD4D
:1049A000A8791D002DE9F84F836907464FF4706020
:1049B000D3F83080D8F8004005F060FC07F5A85324
:1049C000186100284CD004F1500B4FF0080A4FF04A
:1049D000000907F5A8556024D8F80410002604FB48
:1049E00009F42A6951441319D960D8F80810C3F89A
:1049F00008B00BF1100B514416550AF1040A196165
:104A000007F5B45328690721164A00199B68836388
:104A10004B4601308EF6CEFB2B6980221B1909F123
:104A200001091E77B9F1280F5F612B69234483F8D0
:104A300051602B69234483F850602B6923445A77D3
:104A40002B69234483F836602B69234483F837604D
:104A50002B691C44E677BCD107F5C65701207E754B
:104A6000BDE8F88F68181D000069704700F5805197
:104A7000436910B5CA6A1C6A22404A6302B11A62CD
:104A8000120618D5D3F8901100F58A52D3F8984140
:104A900001F4EE3104F4EE349161D46109B1C3F84C
:104AA0009011D2690AB1C3F8982100F580535A6B6E
:104AB00022F080025A6300F58A5300F5805099690C
:104AC000426BDB690A4313430CBF0020012010BD79
:104AD000436900F58050D3F89C2122F4EE32C3F8EC
:104AE0009C21D3F8942122F4EE32C3F894215A6A1F
:104AF000816A22EA01025A6200238362704700F54C
:104B00008052D36A93624369D3F8941141F4EE3131
:104B1000C3F89411D3F89C1141F4EE31C3F89C1101
:104B2000596A926A0A435A6270470000436910B595
:104B30001A68044642F441721A6000F5C6535A6876
:104B40000AB9114A08E0022A02D14FF4003203E008
:104B5000012A02D14FF440721A601A6820460B4BAA
:104B6000134304F58052D362936204F58C53802280
:104B70009A62FFF740F82046FFF7C1FF04F588541A
:104B80000123237110BD00BF00030200C00001011A
:104B90002DE9F8430446FFF73AF82046FFF710FEE8
:104BA000E06897F665FD002852D0636904F58A55E0
:104BB000284E20461A6842F004021A60FFF7B6FF3A
:104BC000D6F85C902869C847D6F808802869C0479D
:104BD000B76D2869B84776682869B0476869C847DB
:104BE0006869C0476869B8476869B0476369204623
:104BF00004F5C055D3F8A42104F5C25642F01002C2
:104C0000C3F8A42104F58C5311229A62FEF7F3FF36
:104C100004F5B45301221A7463691A6842F004025D
:104C20001A60D5F816300133C5F81630B36B53B19E
:104C3000D5F81E7092F6F8FFB36BFF1A00233F18E9
:104C4000C5F81E70B36392F6EFFF04F5C4542060FC
:104C5000BDE8F883985F0800FFF708BF00F5C2536E
:104C600010B5D3F81A400134032AC3F81A4003D10F
:104C70004369C3F8481104E0042A04BF4369C3F838
:104C80004C110421BDE81040FFF778BB70B500F56A
:104C90009454254A0546216BFFF765FCE16A234AD7
:104CA00006462846FFF75FFCD6F1010638BF00260E
:104CB000616A0022002808BF46F001062846FFF777
:104CC00052FCE1690022002808BF46F00106284690
:104CD000FFF749FC05F5955300221968002808BF25
:104CE00046F001062846FFF73EFC94F835300028D0
:104CF00014BF304646F00100ABB9AB695A6BA261F4
:104D0000082A01D90822A261A2693AB1DA6B9B6B29
:104D100062610022236105F58A539A6205F5945574
:104D2000012385F8353070BD2557180089751800A6
:104D3000FFF7C4BB2DE9F7439DF828601F46002309
:104D400005460C46019302E0E15C11B10133934248
:104D5000FAD1E15C002946D146B1591C0533934292
:104D600044D801A8611804228EF63AF904F1040827
:104D7000404622498EF644FA814648B946B1019B25
:104D8000662B00D1FEE7632B33D1FDF781FE0DE0EA
:104D900040461B498EF634FA814648B92846FFF74B
:104DA00047FA28462146FFF76BFA3860484622E06A
:104DB000404614498EF624FAD8B905F58C5305F50A
:104DC000885126B1019A83F82E208A6013E093F867
:104DD0002E302370012320463B60083104228EF6DA
:104DE000FFF8304607E06FF0010004E06FF00D00BF
:104DF00001E06FF01600BDE8FE8300BFF02109005E
:104E00006F181D0079181D0000F594532DE9F0432B
:104E10000E8A91F817905F6A083ECB688DB0B6B2E3
:104E200008330E820546CB6000F5A6530C4604A954
:104E3000986BFFF7E8F90146E0B1069B00220A9360
:104E40002146079B28460B9305F58A53DDF8208001
:104E50009B6A00920192F31841229BB202920AAA25
:104E600001F040FE2846414632464B460097FFF788
:104E700029F80CE0284607224FF0FF33FFF749F8E6
:104E8000A8682146012205F037FA4FF0FF300DB037
:104E9000BDE8F083F8B500F58C5393F82D30044647
:104EA000002B35D000F58E531B79002B30D0194ED6
:104EB00000F58A55376D2869B84748BBD6F8A46015
:104EC0002869B04720BB6869B84708BB6869B04724
:104ED000F0B904F5955319688B6B5B6913B12046E3
:104EE00001F01BFF04F59453D9698B6B5B6913B117
:104EF000204602F02CF920460121FFF7CBF804F5FB
:104F00008E53002204F58C541A71012384F8353035
:104F1000F8BD00BF985F080070B504460020FEF79A
:104F200024FA20460021FEF7ABFE04F58C55012340
:104F300004F58E5285F82D3004F5B456137196F8A9
:104F400038302BB1706BFDF7FFFF002386F8383047
:104F5000AB6A204643F0080323F00103AB62FEF77F
:104F60004AFE2046BDE87040FFF794BF38B500F513
:104F70008C530446DB69002B35D01D68002D32D0E0
:104F800000221A60EA0701D5FFF7C6FFAB0702D57A
:104F90002046FFF72BFA680702D52046FFF731FAC3
:104FA000002D01DAFEF7B6FC04F5C6535A68D2B9F3
:104FB00004F58052526B910304D502225A604FF4DB
:104FC000003206E012F4407F04D001225A604FF410
:104FD00040721A6004F5C65304F580541A68024BF7
:104FE0001343E362A36238BDC00001010A4600F525
:104FF0008C5393F82C10FF2902D0C06805F0A9BA91
:105000001046FEF7CBB94369042270B5C3F82021DE
:105010000446D3F82421520736D594220025C3F83C
:10502000202104F58C56C3F82451FEF717FF2046C3
:10503000FEF715FE86F835500120FEF796F986F842
:105040002D50356320462946FFF7D0FF04F5B453B1
:105050001A7C72B120461D74FFF7B1F896F824103F
:10506000A1F1020EDEF10001204641EB0E01FEF738
:1050700007FE204601F0ECFC204602F09DF9204698
:1050800001F0BFFB002070BD4FF0FF3070BD4369E1
:105090002DE9F0411A68044692075BD55A68D1059C
:1050A00058D54FF42862C3F820210322C3F82421E5
:1050B00000F58C53002283F8342000F5B4531D7C96
:1050C0007DB1FEF737FE2046FEF75AFD2046FEF77B
:1050D000C6FD2046FFF724FC4FF47A7092F60AFFD3
:1050E0001DE004F5C05606214FF480222B46C0680F
:1050F00004F5C25704F09FFBD6F81230D6F8228090
:105100000133C6F8123092F68FFDFB6BC3EB080833
:105110008044C6F82280FD6392F686FDB86304F5EC
:105120008C552046AB6A23F00103AB62FFF76BFF9F
:1051300080B195F83C2042B904F58E53A86B1968EC
:1051400092F69CFB012385F83C3004F58C54012336
:1051500084F83530BDE8F0814269F8B5136804463B
:10516000990745D500F5B453197C002940D0D9687A
:1051700011B1D1640022DA604FF480220023E0688C
:10518000062104F5C05504F056FB03212046FFF725
:10519000F5F82046FFF77BFF2046FEF72CFDD5F8FB
:1051A0001A30D5F826600133C5F81A3092F63CFD66
:1051B00004F5C45304F5C2541A68B61A3618C5F873
:1051C000266000261E6092F62FFDA063D5F81230EF
:1051D000D5F822700133C5F8123092F625FDE36B45
:1051E000FF1A3F18C5F82270E66392F61DFDA06312
:1051F000F8BD426938B5D2F8A4310446D2F8A411FA
:105200001943C2F8A41100F58C52956A1D4028D0AC
:10521000290701D5FFF7E3FAEA0706D504F5B453E9
:105220001B7C13B92046FFF732FF2B0607D504F588
:105230008C539A6A22F0800242F010029A62E806C9
:105240000AD504F58C5320469A6A42F0800222F077
:1052500010029A62FFF780FF2046BDE83840FEF753
:10526000CABC38BD70B500F5805504466B6B002B89
:105270004AD000F5C6521268134201D0FFF776FEFD
:105280006B6BD8031ED504F5C25304F58C55D3F8C7
:1052900016200132C3F8162095F835307BB1204630
:1052A000FFF7B1FE064638B995F83C3023B1A86B3C
:1052B000FDF74AFE85F83C602046FEF79CFC204640
:1052C00001F09FFA04F580535B6B590612D504F583
:1052D0008C5393F8342032B993F82D30012B02D13E
:1052E0002046FFF77CFA20460221FFF747F82046C8
:1052F000FFF74EFC04F580556B6BDA0102D52046B2
:10530000FFF777FF00236B6304F58A55EB6943B120
:10531000DB0305D5204602F03FFA0023EB6100E0F5
:10532000FEE704F58A55A96951B1C80303D52046A3
:1053300002F060FA02E00F488DF6FCFE0023AB613C
:1053400004F58C5393F82D3033B104F58E531B794B
:1053500013B12046FFF79EFD04F58A5304F58054EF
:105360009969626BDB690A4313430CBF002001207B
:1053700070BD00BF84181D0010B504682046FFF7FB
:1053800042FE04F58C5340B104F58E54986B002214
:105390002168BDE8104092F671BA83F83C0010BD58
:1053A000074B186858B100F58C5393F82D3013B1A2
:1053B0000121FFF71BBE4FF08051FEF76BBE704717
:1053C000A4791D0000F5A65238B5D26B00F59453B0
:1053D000044652685B6A002A2DD09A6B9278012AA3
:1053E00029D900F58C521268156800F58A52D26BE3
:1053F00010689A6891881A691B8B12689A4288BF54
:105400005B189A1A013992B28A1A92B2012A12D9F9
:10541000052D10D908280ED920460021FEF72AFDB7
:1054200004F58A5204F5C4532069116B5A6BBDE828
:10543000384090F65BBB38BD00F5A6532DE9F04728
:10544000CF89B1F81090DB6B0D460446596809B955
:10545000092209E000F5C058D8F80830DA89273A5F
:10546000BA4206DC002103226B68BDE8F047FEF774
:1054700050BD184602F07CFF064618B9204631465A
:105480000222F1E704F5C452D8F80830DB89283B42
:10549000516B9BB219B9994584BF99462B8204F58B
:1054A000A652D26B5268928A29B104F5C451896B15
:1054B0008A4228BF0A46914588BF2A8204F58A524B
:1054C000116B09B12046CDE7283316632946338294
:1054D0002822F0688DF684FD04F58C520123937622
:1054E0003FB904F5B45220465371BDE8F047FFF7C9
:1054F00069BFF36804F5A8522833D068EA694260AE
:10550000AA69C360044B0260078103614461BDE87E
:10551000F047FDF77DBF00BF5755180038B500F5BF
:105520008C539A7E04460AB100229A7604F58A5575
:10553000296B19B1A068002204F0DEFE04F5B45313
:1055400004F5A85400210A4629635971A068BDE8F2
:10555000384092F693B938B544690D461C2204F5DB
:10556000A8530021D8688DF6BFFD55B104F5C4538A
:105570002046DB6BDA880132DA80BDE83840FFF77D
:10558000CDBF04F58A531B6B43B104F5B45301221C
:1055900020465A71BDE83840FFF714BF38BD2DE9E9
:1055A000F84300F5A85391468A1E1B6907466021FF
:1055B00092B24A439C18002507F594589D54E16C1B
:1055C000FEF7E9FCD8F8240000F0ADFD064610B364
:1055D000182229468DF688FD06233846337094F844
:1055E000313073702146A36C7360238CA6F8089049
:1055F0007381FEF72CFDD8F82430384631469A687E
:10560000D28801F054FB50B1638C23F0100328467C
:105610006384BDE8F8836FF01A00BDE8F8834FF0AB
:10562000FF30BDE8F88330B50A4609898C1EA4B264
:10563000272C01D9052208E000F5A85360256C430A
:105640001D692B192C5D24B90122BDE83040FFF7FC
:10565000A6BF52689A64DC681A692468126894428A
:1056600001D10022F1E75A8C42F010025A84BDE8C1
:105670003040FFF76AB82DE9F84300F5945700F57C
:10568000A8530646786A894690461C6900F04BFD8F
:10569000054608B3A9F1020960231FFA89F9002120
:1056A00003FB094418228DF61FFD082330462B709A
:1056B00094F831306B702946A36C6B60238C6B813E
:1056C0007B6AA5F808809A68D28801F0F0FA18B1D0
:1056D000638C23F020036384BDE8F88330B50A4669
:1056E00009898C1EA4B2272C01D905220EE000F5F1
:1056F000A853602552681B6905FB04339A64DC6873
:105700001A6924681268944204D10022BDE830402E
:10571000FFF7B1BF5A8C42F020025A84BDE83040F6
:10572000FFF713B8F8B500F59453164604461B6B03
:105730000D469B689F7992FBF7F207FB1263002BE3
:1057400061D100F58C539B7E012B02D10B78092B84
:1057500059D004F5C253D3F81E105218C3F81E20B6
:105760004EE02B78033B0A2B3CD8DFE803F02C3BC0
:10577000313B363B063B103B1D0004F58C539B7EB2
:10578000012B3AD020462946FFF756FE35E004F5B6
:10579000A65329462046DA6BFEF725FA0146002873
:1057A0002BD120460A220AE004F5A65329462046BA
:1057B0009A6BFEF718FA0146F8B920460B220B4601
:1057C000FEF7C8FB19E020462946FEF7ECFE14E080
:1057D00020462946FFF727FF0FE020462946FFF71E
:1057E0007DFF0AE00021204603220B46FEF7B2FBB4
:1057F0000748294608228EF663F8F61BED19B6B263
:10580000002EAED101E04FF6FF763046F8BD00BF66
:10581000A3181D00704710B504468068FFF722FDED
:1058200038B1002104F11C000A46BDE8104092F690
:1058300025B8A068BDE81040FFF761B910B58469CC
:10584000A068FFF713F938B1A068FFF741F92046C7
:10585000BDE81040FFF7DFBF10BD0000F0B5023912
:1058600085B01E460023012915460A9C87690393CB
:1058700012D80D488DF6ECFC0B49024628468DF6F1
:10588000EFFC48B99DF830300093B868294632469D
:1058900003ABFFF74FFA01E04FF0FF300CB1039B71
:1058A000236005B0F0BD00BFB3181D008969034631
:1058B0008869194602F070B910B54468A068FFF70E
:1058C000CBF92046BDE81040FFF7A5BF134682691B
:1058D00010B590684A1E0C46142A38D8DFE802F04A
:1058E0000B0B3737371414371F1F3737323737371B
:1058F0003737372929009978A4F101035A4242EB3E
:10590000030201F0D7FF22E0A4F1060C9978DCF144
:10591000000242EB0C02073302F031F817E0A4F169
:10592000090E1979DEF1000242EB0E0201F0E7FFE9
:105930000DE0D978A4F114035A4242EB030201F0BE
:10594000FEFF04E09978DA789B7902F043F80020B2
:1059500010BD0A46816903468869194690F648B920
:105960000A46816903468869194602F0C5B910B52F
:105970004B8C13F040040DD08B6B5878CB681A68B1
:105980004B8B9A423CBF8A689288D31A834238BFB5
:10599000184610BD00F588535B6B1B89C3B100F539
:1059A000C0508289934215D9981A8C8ECB68A04238
:1059B00028BF20464A8B1C6894422FBFC2EB0402CA
:1059C0008B689B88C2EB0302904228BF104610BD33
:1059D000184610BD204610BD0022134610B584188D
:1059E00004F5A854247F194644B9242202FB03037A
:1059F000012203F5A85308461A7704E00133243244
:105A00000A2BECD1FF2040B210BD2423002203FB5F
:105A1000010303F5A8531A7770470369428B1B688B
:105A20009A4205D3994208D3914206D241837047E6
:105A3000914201D3994200D341837047836BDA6866
:105A40005868824208D00AB99A6800E052689160AA
:105A5000DA609A7801329A70704700F5945030B548
:105A6000C36A9B6B9B699D78587885421C788ABF76
:105A7000C5EB0405C5EB00052D18651B012D08DDE0
:105A800003EBC0050130A042A8BF002069602A7264
:105A9000587030BD00F5C6531A7A436922B1D3F865
:105AA000E02142F0020203E0D3F8E02122F00202FA
:105AB000C3F8E021704730B54589158042680A6017
:105AC000C2695A6042F0004281695A60049A1960C2
:105AD0000389039C13801BB14369636003692360DE
:105AE00030BD00F58050838CC08C834296BFC0F5DA
:105AF0008070C0EB0300C018704700F5A850036821
:105B00001A6812B95960196002E05A6891615960C7
:105B10009A6801329A6000238B61704700F5A850A3
:105B20000368186870B15A6890429A6802F1FF32AF
:105B30009A6003D100225A601A60704782691A6025
:105B40000023836170470346F0B5C0680688588B10
:105B500086429C6828BFC0EB0600A58838BFC0EB12
:105B6000050080B20880E0B19E6B3AB1E788B2FBD5
:105B7000F7F27678B24228BF324600E0727890425F
:105B800028BF104608805E8BE288A0680C88341914
:105B9000AC42A8BF002402FB06005C830B885A437A
:105BA0000A80F0BD70B18268D388B1FBF3F149B1CE
:105BB0000369188841189288914202DB00221A601A
:105BC000704719607047F0B50B8B0D698C68A6881B
:105BD000E088B2FBF0F22D68AB4234BFC3EB05079F
:105BE000C3EB06079D4286BF06EB030CC5EB0C0515
:105BF000C5EB030506F1FF3CC5EB0C05BD4238BF04
:105C00002F46BFB2974208D3A46800FB03409B18FD
:105C1000B342A8BF00230B83F0BD0020F0BD00F508
:105C2000945330B5D96904468B6B9878002825D0F9
:105C30000A690B8B8D68A888126893422ABFA988CD
:105C4000C3EB0201C3EB01019A4288BFC3189A1A41
:105C50000138801A884228BF084678B104F58C5371
:105C60001B681B68042B08D904F58A54E36B186879
:105C7000062894BF0020012030BD002030BD30B583
:105C800000F58054A38C5D1C03F58273EDB200EB2C
:105C9000C300A58483680B6083791370808830BD4E
:105CA000F0B5158AB2F85870DDF818C0059E079C4B
:105CB000ACF800701FB1176D7760D76C3760568AEB
:105CC00016F4005F0DD0B2F8546056B1C5F18406E9
:105CD00001F594512680566C946C751B8E69A91B36
:105CE00006E001F59451098B2180516C946C843944
:105CF000D56B1D60538A23F4005380E81200538251
:105D0000F0BD000010B50346A8B18268D088B1FB91
:105D1000F0F181B158699288DB681C886118914262
:105D200002DB00221A6000E0196003490322BDE88B
:105D30001040FEF793BF10BD78563412F8B51746E1
:105D4000DA681278432A04460E46069D23D0462A76
:105D50001BD00E2A41D100F594535B6A9B6B987857
:105D600000284BD004F5A65304F5C4549B6B586827
:105D700018B9012384F82C30F8BD0023052084F8DD
:105D80002C301F4B2B60042330E0FFF748FF002826
:105D900034D01C4B1DE000F5955421680B8B0A692B
:105DA0008868126893422CBF8488C3EB0204808801
:105DB00028BFC3EB04049A4288BFC3189A1A01385B
:105DC000801AA04228BF2046C0B18B6B9878A8B13A
:105DD0000D4B2B600720052308E08068194601223F
:105DE00004F08AFA002301202B60F8BD9E4204D300
:105DF000874234BF00200120F8BD0020F8BD00BF5D
:105E0000094E180081721800396F180070B500F53E
:105E10008C5393F82D30002B4CD100F5A8531C7EE9
:105E2000002C47D100F5C453DB6833E000221A761A
:105E30009A6819E09168CD682E684D8BAE4203D305
:105E400014BF0025012507E08E68B688C5EB060C57
:105E5000DCF1000545EB0C052DB94D8C45F0020534
:105E60004D8401211976126803F108018A42E1D1BB
:105E70005CB9DA8A2F2A0AD8197E41B1023292B26D
:105E8000312ADA8203D1302200E00422DA821A7E3B
:105E90001B68144300F5C4520C329342C6D14CB176
:105EA00000F5A854217E29B960690A4691F6E6FCFE
:105EB0000123237670BD2DE9F0410446618B406CCF
:105EC0008DF656FF002850D0E368678B1B68BB42F5
:105ED00002D3C7EB030805E0A268B2F80480C7EB61
:105EE000080898441FFA88F800263BE0F519A368D3
:105EF0009B8895FBF3F1206C03FB11518DF638FF65
:105F000090B1A3689B8895FBF3F1606C03FB115182
:105F10008DF62EFF40B9A3689B8895FBF3F203FB37
:105F200012556583BDE8F081A3689B8895FBF3F16A
:105F3000206C03FB11518DF61BFF90B1A3689B8869
:105F400095FBF3F1606C03FB11518DF611FF40B12D
:105F5000628B0132A3689B8892FBF3F103FB112350
:105F600063830136B3B24345C0D3BDE8F08173B556
:105F70001E460023CC681546ADF806304B68E31A80
:105F8000072B3FDDA4F10803CB600B8A08330B829B
:105F900002238B75052304F8083C062304F8073C0C
:105FA00092F83620530718D5069B1BB1D90E01F085
:105FB0000F0100E0194641F0020123F0F04343EAEB
:105FC000C163069395F83730013BDBB285F8373073
:105FD0001BB922F0040285F83620686D31468DF633
:105FE000C7FE20B1AB6D33F81630ADF8063006A908
:105FF0000422A01F8CF6F4FFA01E0DF10601022260
:106000008CF6EEFF7CBD2DE9F04389B0984604ACD8
:10601000002305460693B8F1070F8CBF47460827B3
:10602000079300F58C5384E8060093F82D30DDF8D3
:106030004090002B3AD100F5C6531A7A1AB90122C2
:106040001A72FFF727FD05F58A5608ACF36A44F883
:10605000089D4BB1119B06930823306994E8060014
:1060600003F0C0F8CDF8189094E806003B4630697C
:1060700003F0B8F805F58A520123009701930293C3
:10608000106904AA06CA03F0F3F805F58052D38C10
:10609000591C03F58273C9B205EBC3059DF84C305A
:1060A000D184AB71129BA5F80480AB6009B0BDE848
:1060B000F0832DE9F041066806F5C453DD6823E05E
:1060C000AC681CE0A768B86DC0B1B7F85C80B8F1E7
:1060D000000F10D104F0DEF806F5C653C7F858805B
:1060E0005A7C013A41465A74BB689A88786DD20846
:1060F0008CF6FAFF02E00023A7F85C30246805F173
:1061000008039C42DED12D6806F5C4530C339D4232
:10611000D6D106F5C656747C1CB9F068FCF714FF9E
:106120003474BDE8F081826BD36843B10021986874
:1061300099601B68D3609378013B93707047184651
:10614000704700002DE9F74F05460C46FFF744FC69
:10615000061EC0F29180A36B9B78002B00F0858017
:106160002423628B284603FB0653214603F5A853DC
:106170000027DA83FFF7FBFB1FFA80F80FE0628B42
:10618000D219A3689B8892FBF3F1606C03FB112189
:106190008DF6EEFD10B11FFA87F802E00137474592
:1061A000EDDBB8F1000F60D0A368DB8803FB08F8D3
:1061B00020460DF106011FFA88F2FFF7C4FC824663
:1061C000002852D02046BDF80670A368DB88B7FBD4
:1061D000F3F7FFF7A8FF4FF02408A3689B8808FB9C
:1061E00006F805EB080B0BF5A856F18BCA19013A16
:1061F00092FBF3FE03FB1E22013B8146206C02F062
:1062000071FCB9F1000F2AD0BDF80630B385A36840
:106210000BF5A850C6F830902430DB68B362184BF9
:1062200073630BF5A8531C33C6F824A0B363002393
:1062300086F82E30F3630BF5A9531C60FDF7E8F8E0
:1062400005F5B45394F82020023A05F5C0551A71AB
:10625000E37FFB18E377AB89FB18AB8101E0ADF876
:1062600006902046FFF727FE07E02046FFF723FEB3
:106270002846F1B2FFF7C9FB00273846BDE8FE8F7C
:106280009F761800CB680A691B681268934208D091
:106290004A8B934217D14B8E002B14D1CB7F002B0E
:1062A00011D14B8C23F040031B041B0C13F0200274
:1062B0004B8403D0098C0022FFF7DDB9DB0604D53F
:1062C000098CFFF76CB9FFF73DBF70472DE9F84324
:1062D000BDF82060144600F5A8529F1E6023126985
:1062E000BFB2054603FB07277B8E00F5B552013B85
:1062F00010689BB201387B8610603A69B2F8008062
:1063000019BB97F85290B9F1000F1ED1A0451CD1CE
:10631000386C41468DF6DAFC786C41468DF6D6FC39
:10632000786D41468DF6D2FCBB6D0BB123F8189009
:1063300008F10108BB689B8898FBF3F2002403FB7B
:1063400012833A699BB2136091E07A8C50063AD47A
:106350000139012937D80BB9FB7F13B142F0800214
:106360007A8438462146FFF758FBF2047DD5BB6D91
:10637000CBB9BB689888400003F080FF05F5C6588C
:10638000B86598F81130013388F8113098F810305A
:106390004BB9D8F80C00B8F81210012291F66EFA39
:1063A000012388F81030BB6D002B5ED0786D21463C
:1063B0008EF690F8B7F85C300133A7F85C30BB6D0F
:1063C00023F8146051E0786C21468DF6D1FC00284A
:1063D0004BD1386C21468DF6C1FC0646002844D1CD
:1063E000786C21468EF676F8786D21468DF66EFC37
:1063F000BB6D0BB123F814604FF000091DE009EBF1
:10640000080696FBF3F1786C03FB11618DF6B0FC86
:10641000B8B1BB689B8896FBF3F1786C09F1010970
:1064200003FB11618DF652FCBB689B8896FBF3F170
:10643000386C03FB11618DF649FCBB689B8899455C
:10644000DDDBC844BB689A8898FBF2F302FB138338
:106450003A69A34213604FF0000403D0012387F888
:10646000523004E087F8524001E06FF018047B8E50
:106470002BB9FB7F1BB97B8C23F080037B847B8C47
:1064800003F4A073402B03D128463946FFF7FAFEE8
:106490002846FFF7BBFC2046BDE8F8832DE9F04F06
:1064A0008E8A91F816B098464FF0600900F5A8530F
:1064B00009FB08F900F588521B6985B0A9F1C009EC
:1064C000BDF8387005469944506B4B6803930291B0
:1064D00001F04EFF0299039B0446B0B9B9F832307F
:1064E00001330221A9F8323005F5B5531A6801329B
:1064F0001A6043460090284605F58C553A46FFF74A
:10650000E5FE2B6901332B6198E0C26802F1E000DF
:10651000E060208AE03820828868C2F8E000C8681D
:10652000C2F8E4000869C2F8E800888AA2F8EC0022
:10653000CA6AE36312F0010A18BF4FF0005A012340
:106540004FEA8B32A4F84030638A23F0070302F449
:10655000403243EA5B1BE2610E221FFA8BFB228270
:10656000A4F812B04B78E3754B6A43F00043A36480
:106570000B6A63644B8DA4F84280A4F85630A4F8EB
:106580005430B9F832300133A9F8323005F5B5533B
:10659000A4F85A701A6801321A600B8D33B1CB69B6
:1065A00023658B69E364098DA4F858104BF4804B84
:1065B00005F5C453A4F812B093F82D2052B11A6B0C
:1065C0002146A86801321A63012205B0BDE8F04FE8
:1065D00003F092BE99F836305B0708D4D9F854001E
:1065E00039468DF6C5FB10B9BAF1000F07D0284621
:1065F00021464A463B46CDF800A0FFF7B8FC330AD7
:1066000043EA06260F4B36B29E4208D100202146AF
:106610006083286905B0BDE8F04F01F0EBBA05F5DD
:106620008C55AB681BB122885A83AC6001E0AC602A
:106630006C60002363832B7B01332B7305B0BDE8B3
:10664000F08F00BF8E88FFFF2DE9FF410668002212
:1066500006F5A8531A7606F58C5393F82D30002BC7
:1066600078D106F5C4534FF00108DD6864E02B7E55
:10667000002B60D02B691F6805F108039F4253D09F
:10668000BC68638E2BB9E37F1BB9638C23F0800356
:106690006384638C1A0647D45807EA8AA28635D5E4
:1066A000990741D594F8363003F00303022B3BD110
:1066B00006F5C652527D012A94F8303004F12400C8
:1066C00094F8311004BF254AD35CA27F009004F1F6
:1066D0002A00029307230190306901F0F5FA10F0C7
:1066E000FF0F06D094F8363043F0010384F83630BB
:1066F0001AE00123A38694F83730013384F8373049
:1067000094F8363043F0040384F83630638C9A07EB
:106710000AD530462146FFF715FD804600B12F61AE
:10672000638C23F0020363842B699F4203D03F688C
:10673000B8F1000FA0D12D6806F5C4530C339D426B
:1067400002D0B8F1000F92D1304604B0BDE8F0415C
:10675000FFF75CBB04B0BDE8F08100BFB8181D00B6
:106760002DE9F04100F58C5393F82D3088B00546A3
:106770000C46002B3DD1E3681A68638B9A4203D321
:1067800014BF0026012605E0A2689688F11A4E4241
:1067900046EB0106002E2CD105F58A577B6B1B6852
:1067A000032B2AD9A36B9B783BB320460DF11E0126
:1067B0003246FFF7C8F98046E8B12046FFF7B3FC40
:1067C000D8B105F5A8539A880132CDF814809A8083
:1067D000A368DB6800902846FA6801923F2206937E
:1067E000BDF81E30039205AA029406CAFFF70BFCFF
:1067F000C1E7002002E0304600E0012008B0BDE81B
:10680000F08138B500F5945595F8343004464BB90D
:10681000FEF73CFAD8B92046FEF7C4F8B8B1012318
:1068200085F8343004F58C55AB7E2BB904F59453C0
:106830002046196BFFF794FFAB7E43B904F59453E0
:106840002046D96AFFF78CFF2046FFF7DFFA0020C9
:1068500038BD2DE9F347824600F59450C76AB86BFE
:106860008469002058601860A6786578AE4294F874
:10687000009004D8A81B454245EB000506E0C6EB96
:1068800009004519D5F1010538BF00256DBB04EBA2
:10689000C606307AD6F8048038B3B8F1000F24D099
:1068A0000138DDF828C0D7F808E0BEF806E0CDF8DA
:1068B00000C000FB0E80DDF82CC0CDF804C0FFF74F
:1068C000FAF8337A013BDBB233728BB93846414672
:1068D000FFF7B4F85046FFF794FFA37801334B4518
:1068E000B8BF1D460020A57003E04FF0FF3000E068
:1068F0002846BDE8FC8770B5958A0C4616468DB9CA
:1069000001F07AFC40B904F5C4544FF0FF30E36B5A
:106910005A8801325A8070BD0388C3F30B0328469E
:10692000B38270BD002070BDF0B51D46938A89B05A
:106930000F4614462BB92DB101F05EFC064610B986
:106940003EE000252E46638A9B0406D5002D35D0F7
:106950003388C3F30B03A3822EE004AB38460093C5
:106960000DF11E0306A9019307AA02ABFFF771FF01
:1069700020B12EB3304601F079FC21E01DB13388FF
:10698000C3F30B03A382039BA364029B843363645E
:10699000BDF81C30843BA4F85630069BE363BDF879
:1069A0001E30A4F858301BB1059B2365049BE3649B
:1069B000638A43F400536382002003E0284601E029
:1069C0004FF0FF3009B0F0BD2DE9F04301F58C53D5
:1069D00093F82D3087B004460E46002B33D101F5D5
:1069E0008A570589436815F0030F059325F00305C1
:1069F00003680846049318BF0435BB6BADB2D3F8E7
:106A000000907B6BD3F80080FFF76BF8B9F1020FB1
:106A100019D9B8F1030F16D9012814DD21463046E3
:106A2000FFF76BF8E36800930024FB68304601939E
:106A300044230294039306AB13E906002B46FFF7A9
:106A4000E2FA204601E04FF0FF3007B0BDE8F083E6
:106A500008B500F58C5393F82D308BB9FFF75EF82D
:106A600070B1837A13F0020103D023F002030121F5
:106A70008372837A23F001038372036903B1984719
:106A800008BD442908B501D1FFF7E2FF002008BD89
:106A900030B500F58E53DD899C89A5420A4609D39D
:106AA0004B8A23F48043806800224B82BDE830404B
:106AB00003F022BC03F108000021BDE8304001F0E2
:106AC00065BD30B5B0F82058EC1C013500EBC404AE
:106AD000EDB2E371039BA180A271A360C0F82058BE
:106AE00030BD00002DE9F04F174685B0BDF83C6081
:106AF000721E9DF840B01D4692B2062A98BF082625
:106B00006A1E002392B2062A98BF082505EB0608E4
:106B100004461FFA88F85A46894641460293039371
:106B20000093DDF838A0FFF7CCFF04F594539A6981
:106B30005AB1BBF1430F08D004F58A5210335069A3
:106B400093E80600082302F04DFB9EB1DAF804300A
:106B5000DAF8002023F000430393CAF8043004ABB2
:106B600043F8082D04F58A52506993E8060033462D
:106B700002F038FB85B17B683A6823F00043039349
:106B80007B6004AB43F8082D04F58A52506993E802
:106B900006002B4602F026FBB9F81030434508D218
:106BA000B8F1080F05D1A068494601F0B7FCA9F873
:106BB000108004F58A54054B4946012260699B6A9E
:106BC0009847012005B0BDE8F08F00BF985F08002E
:106BD0002DE9F04786B0994600238846049306467F
:106BE0000E99174605930B7F0BB91D4601E0012353
:106BF000082598F80020009130464946FFF761FFCC
:106C00007B6823F000437B6006F594539A6942B198
:106C100006F58A521033506993E80600082302F003
:106C2000E1FA7B6806AC059306F58A563B68C5EB2E
:106C3000090AEB18706944F8083D534694E80600C9
:106C400002F0D0FAC5B13B68012704932B4694E8C3
:106C50000600706902F0C6FA002305EB0802CDF8C1
:106C600000A00197029305930492706994E80600CE
:106C700002F0FEFAB8B90BE00123CDF800900193C1
:106C800002930595CDF81080706994E8060008E03D
:106C900000953B4601900297CDF81080706994E80A
:106CA000060002F0E5FA012006B0BDE8F0872DE904
:106CB000FF411C46667F00230D462146074690464D
:106CC00002930393FEF77FFF029018B3A36826F0A8
:106CD0007F0238462946DB680393AB7803F07F03D5
:106CE000134302AAAB7043460094FFF771FF2B7861
:106CF000102B08D0122B06D007F5C257D7F8223038
:106D00000133C7F82230238B1BB9F64326F07F06E8
:106D10006677012004B0BDE8F08170B58D6B064642
:106D20000B466A69002A33D000F5B4546179012911
:106D300001D1A17470BD00F58A51C96B096803299E
:106D40000DD900F58C5109680968022907D999689D
:106D5000C9884A43296992B2FFF7A9FF10B90123F4
:106D6000A37470BD06F5C256D6F82A30D6F8262090
