:1000000080F140B882F1A4B982F1B0B982F1BCB9F3
:1000100082F1CBB982F1DAB982F1E9B982F1F8B9AA
:1000200080F140B882F1A4B982F1B0B982F1BCB9D3
:1000300082F1CBB982F1DAB982F1E9B982F1F8B98A
:10004000FAFAFAFAFAFAFAFAFAFAFAFAFAFAFAFA10
:10005000FAFAFAFAFAFAFAFAFAFAFAFAFAFAFAFA00
:10006000FAFAFAFAFAFAFAFAFAFAFAFAFAFAFAFAF0
:10007000FAFAFAFA44425050ACE21D0000001800AF
:1000800000000000DFF844804FF00009B8E8FF00EE
:10009000A9E8FF00EFF300804FF01F0120EA010004
:1000A0004FF0D10140EA010080F30089DFF820D051
:1000B000EFF300804FF01F0120EA01004FF0DF0155
:1000C00040EA010080F30089024800472000180040
:1000D00060951D003D251800000000000000000094
:1000E0000000000000000000000000000000000010
:1000F0000000000000000000000000000000000000
:1001000000000000000000000000000000000000EF
:1001100000000000000000000000000000000000DF
:1001200000000000000000000000000000000000CF
:1001300000000000000000000000000000000000BF
:1001400000000000000000000000000000000000AF
:10015000000000000000000000000000000000009F
:10016000000000000000000000000000000000008F
:10017000000000000000000000000000000000007F
:10018000000000000000000000000000000000006F
:10019000000000000000000000000000000000005F
:1001A000000000000000000000000000000000004F
:1001B000000000000000000000000000000000003F
:1001C000000000000000000000000000000000002F
:1001D000000000000000000000000000000000001F
:1001E000000000000000000000000000000000000F
:1001F00000000000000000000000000000000000FF
:1002000035301800353018003530180035301800FA
:10021000353018003530180035301800A524180086
:1002200099241800CD2418008D331800353018009B
:100230002D34180005351800C9811800F9811800FF
:100240003530180035301800353018005DEE1900D3
:1002500089EE1900B7C21900EDAC180089A8180082
:1002600023AE180009AA180087AC180069AE180060
:1002700003B018004F751E0091AF180061A9180057
:10028000CDA918002DB01800F5A818002FB018003F
:1002900011AD18004D751E0075E21B00D5FA19004E
:1002A000353018002BE019009FE7190003E0190012
:1002B000F7EA190041FF19002DDC1900A1E9190026
:1002C00089E71900B1FD1900D9FF1A00BDDA19003C
:1002D000FBED1900353018006D331C00A32B1C00FA
:1002E000051E1C0069471C0081291C005D281C009C
:1002F0006D221C00F3391C00B53E1C00431E1C007F
:10030000FB391C0019321C0035301800353018003C
:10031000D1231C0085231C00CB221C0085221C003D
:100320007F221C00C33D1C002F221C0013391C001F
:1003300049381C00271F1C0023531C0047531C0076
:1003400041531C0035301800CF211C002F1E1C000B
:10035000391E1C000F2A1C002D1E1C00232B1C0004
:100360001F2B1C001D2B1C004D321C0081311C005A
:100370008D221C00EF211C0005381C00654E1C005E
:10038000474E1C00534E1C00F9211C00F52D1C008B
:1003900059301C0057281C00271E1C003B311C0034
:1003A00017531C008B221C00BD371C0031221C007F
:1003B00009381C003530180027531C0019241C0074
:1003C000D5281C00F5271C003530180035301800E2
:1003D0002D281C004B271C0047241C0021281C0032
:1003E000BFDB1B0035301800353018000B821C00B5
:1003F000353018003530180007821C0035301800E1
:1004000035301800DDEA1900B1EA190069CA1C008C
:1004100083E019001FB41C0021C51C0025B51C0079
:1004200017B51C0025C51C001DC51C008FB51C0080
:10043000F1CC1C0095B91C002BB41C00A7B61C0005
:1004400019B51C0041B81C0083CC1C002FB51C0042
:10045000A5CC1C0059B81C003530180035301800E8
:100460003530180035301800353018003530180098
:100470003530180035301800353018003530180088
:10048000353018003530180035301800A128180014
:10049000A9281800353018001D3A1800353018000A
:1004A0000D87180019871800B78918003530180013
:1004B000353018003530180035301800A9C3180041
:1004C00095E71800B90B190035301800912818006D
:1004D000F5291800092B1800152D1800F130180007
:1004E0001D3218005D35180029361800CD7F180020
:1004F000498018003530180035301800ED88180094
:10050000D1891800FD891800258A1800638A18000F
:10051000998A1800D18A1800158B18006D8B180065
:10052000DD8B1800DD8D180049B6180039B71800AA
:10053000E3BE1800E9BE1800F1BE180069BF18003C
:10054000353018000FC01800AFC31800F3C31800EF
:1005500049C418004DC4180001C618005DCD18002C
:10056000BDD518005DDB1800C9DB1800A1DD18003F
:1005700079E31800B9E3180009E4180099E41800B9
:100580001DE9180039E9180015EA180049EA1800B1
:10059000BDED1800EDEE18008DFD18003530180087
:1005A0000D2C1900792E1900773319000D551900FB
:1005B000D9671900256E1900F981190061891900A0
:1005C000C5011A00E10A1A004D0B1A003530180057
:1005D00013141A0075161A00B51D1A00D91D1A0039
:1005E0002D211A00D52D1A00292F1A00A1681A00F2
:1005F000096B1A005D6A1A0035301800C16A1A00CA
:10060000D56B1A00056C1A00296C1A00656D1A006A
:10061000716F1A0095711A0035731A007D791A00EE
:1006200089821A008B8B1A00DF8B1A0069911A00DD
:10063000979A1A00119B1A00A99D1A0055A01A003A
:1006400065A01A007DA91A00353018003530180051
:100650002BB71A00C5C11A00B9C71A0017C81A006B
:100660001DCA1A00BDCB1A00B3CC1A00E3CC1A0085
:10067000F7CD1A0081CE1A00E9CE1A0081FC1A00CB
:10068000D5FC1A0031FE1A0083111B0099111B00C2
:10069000ED5A1C00F15A1C00B95B1C008B5E1C005B
:1006A000A55E1C00C95E1C00FF5E1C00136A1C00D6
:1006B0009D6B1C00796C1C004D711C00A5771C0003
:1006C0001B891C00338A1C00058F1C00578F1C00DF
:1006D0001F931C0023931C009D951C001D061D00EC
:1006E000CB121D00C9131D000D181D0001000000D4
:1006F00000020000040000008038010050000000EB
:1007000001000000010000000400000001000000E2
:100710000100000001000000E803000004000000E8
:100720000A0708006E190000000000000004000025
:1007300001040000040004000800010000000000A3
:1007400000000000000000000000000000000000A9
:100750000000000000000000000000000000000099
:100760000000000000000000000000000000000089
:100770000000000000000000000000000000000079
:1010000087F17CBE0000000087F115BE00000000E3
:1010100087F158BD0000000087F1A1BC000000006E
:1010200084F17CB90000000084F18EB8000000005B
:101030005BF1BABD000000005BF112BC00000000D3
:101040005BF102BA0000000082F168BB0000000002
:101050007BF1F0BD000000007CF11EB90000000033
:1010600083F19EBB0000000084F136BA000000004E
:101070007FF1C4BF000000007CF160BF00000000F1
:101080007EF1AEBA000000007EF125BA000000003B
:101090007DF106BE0000000084F13ABA00000000B5
:1010A00084F1B2B90000000084F118BA0000000019
:1010B00075F14DBA0000000075F17DB80000000028
:1010C00074F1F2BF0000000072F1E6BB0000000006
:1010D00070F194B90000000073F152B900000000F3
:1010E00077F1F6BB000000006FF146BD0000000084
:1010F00074F1EABE000000006BF170BF0000000058
:101100006BF1FEBC000000006BF110BC00000000A1
:101110006BF1AEBC000000006BF12DBC00000000C4
:1011200073F1D4BE000000006BF156BF0000000058
:101130006BF182BC000000006BF156B900000000AA
:101140006BF10CB9000000006AF1ECBC000000007B
:101150006AF1F2BA000000006EF116B9000000005A
:101160006DF1E5BD000000006EF14FB80000000019
:101170006BF197BE000000006AF145BE0000000060
:101180006BF15ABB000000006AF142BE0000000093
:101190006AF1F0BA000000006AF159BE00000000D8
:1011A0006AF1BEBE0000000071F16EB900000000DF
:1011B0006CF102BE000000006BF1CEBE000000002A
:1011C0006AF184BD000000006AF1D2BC000000009A
:1011D0006AF17AB80000000068F10ABE0000000061
:1011E00066F16BBA0000000067F1F8BF0000000074
:1011F0006EF146B8000000006FF139BD000000003C
:1012000067F1C3BA0000000066F11ABB00000000DD
:1012100066F11ABB0000000066F1D8B800000000BB
:1012200066F169B90000000066F1D0BA0000000064
:1012300066F160BA0000000064F199BD0000000092
:1012400065F13EB80000000064F177BC00000000CA
:1012500064F17CBB0000000063F18DB90000000068
:1012600065F1E8B80000000064F100BD0000000076
:1012700064F1C2B90000000064F1C1B900000000CF
:1012800064F112BA0000000064F167BA00000000C7
:1012900063F106BD0000000063F10EBC0000000019
:1012A00063F1D8BD0000000063F1DABA000000006D
:1012B00063F1A5BC0000000062F104BF0000000063
:1012C00062F122B90000000061F150BB0000000093
:1012D0005DF11EBE000000005AF1C4BC0000000019
:1012E0005AF1CCBB000000005CF148BB00000000DC
:1012F0005AF1B3B80000000059F130BF00000000FF
:1013000059F12CBF0000000066F10CBA000000008B
:101310005CF1ECBD000000004CF13BBE00000000A1
:1013200063F1D6B80000000059F1FFBC00000000D6
:1013300059F1A6BB0000000059F138BB00000000C5
:101340005CF134BA0000000067F1D6BE0000000076
:1013500067F1DABE0000000057F1A2BA00000000F9
:1013600056F130BD0000000068F1C6BA0000000070
:1013700068F17CBA0000000056F190BF0000000048
:1013800056F10CBC0000000056F10DBE000000003C
:1013900056F1BCBC0000000067F110BC000000006A
:1013A0006CF1EABF0000000057F16ABF00000000C6
:1013B00063F198BC0000000069F1DEBA0000000093
:1013C00067F154BE0000000068F148B90000000059
:1013D00066F12EBE0000000055F15EB8000000006E
:1013E00055F1CFB80000000054F11BBF0000000011
:1013F00054F1B4BC0000000067F17FB800000000A9
:1014000052F1A4BE0000000052F194BC00000000A4
:1014100068F180B80000000053F17FBE00000000BA
:1014200054F1ABBF0000000053F1FCBA0000000013
:1014300052F1ACBB0000000052F1F4BE000000000D
:1014400051F1E1BC0000000052F106BD00000000B7
:1014500050F1F0BC0000000050F112BD000000008F
:1014600052F153BB0000000051F1ABBF000000007F
:1014700051F128BF0000000051F115BF000000002D
:1014800051F13FBD0000000051F19ABB0000000087
:1014900050F13EBE0000000050F179BC0000000099
:1014A00050F1C7BD0000000050F1B3B900000000CA
:1014B0004FF1BBBB000000004EF1F9BE0000000080
:1014C0004EF1ECBF000000004EF185B900000000B5
:1014D0004DF1BEBB000000004DF1B7BA00000000A6
:1014E0004DF1FEBB000000005FF114B900000000E8
:1014F00063F17ABB0000000063F1F6BA000000005F
:101500005EF103BC000000005EF1BCB90000000009
:101510005DF105BB0000000065F160BE0000000049
:1015200062F139BC0000000067F160BB0000000000
:101530005DF1BCBB0000000065F1B6BA0000000020
:1015400065F132BF0000000062F127BB000000001F
:101550005BF1B0BE000000005BF13ABE000000008D
:101560006AF1B4BC000000005AF154B90000000058
:101570005AF152B8000000005AF16AB900000000A8
:101580005AF124B80000000059F1D2BB000000005D
:101590005AF172BD0000000059F1E2BD00000000E8
:1015A0005BF172BE0000000067F105BE00000000A4
:1015B00066F1FDBA0000000064F1CFBF000000003A
:1015C00067F18CB90000000057F13CB80000000042
:1015D00057F123BC0000000056F105BF00000000D9
:1015E00056F1A6BD0000000057F1D7BA0000000078
:1015F00057F1DCB80000000056F1B0BB000000005D
:1016000056F120BA0000000066F1CEBF00000000D5
:1016100065F1D7BD0000000064F126BD00000000A8
:1016200068F146BC0000000058F137BB0000000024
:1016300068F1BAB90000000065F182B9000000004D
:1016400064F18BBA0000000063F1BCBD0000000033
:101650005FF1FCBC0000000057F1F1B80000000091
:1016600058F117B80000000056F14ABC0000000015
:1016700056F156BC0000000055F1FEB90000000014
:1016800056F14CBA0000000056F1FABD000000000F
:1016900055F1F0B90000000054F105BA0000000057
:1016A00055F1E2BE0000000054F154BE00000000FD
:1016B00054F124BE0000000054F16EBB0000000095
:1016C00054F199BC0000000055F138B8000000004A
:1016D00054F162BC0000000054F15EBC0000000048
:1016E00054F168BD0000000051F189BF0000000006
:1016F00051F1E2BD0000000052F1D4BA0000000038
:1017000050F1F1BE0000000052F125BB00000000C6
:1017100052F178BD0000000052F13BB8000000001B
:1017200051F12FBE0000000051F1E0BC00000000AC
:1017300064F15FBE0000000064F15BBE00000000C9
:1017400067F16ABE000000004FF15FBF00000000BB
:101750004FF140BD000000004FF18ABA00000000C8
:101760004EF1AFB8000000004DF16DBF0000000069
:1017700066F1C5BE0000000055F187BE0000000004
:1017800055F146BD00000000000000000000000010
:101790000000000000000000000000000000000049
:1017A0000000000000000000000000000000000039
:1017B0000000000000000000000000000000000029
:1017C0000000000000000000000000000000000019
:1017D0000000000000000000000000000000000009
:1017E00000000000000000000000000000000000F9
:1017F00000000000000000000000000000000000E9
:10180000F408000004000000001018005409000053
:101810000400000008101800040B00000400000081
:1018200010101800DC0B0000040000001810180055
:10183000304400000400000020101800FC4F00009D
:1018400004000000281018009CE7040004000000B9
:1018500030101800D0EA040004000000381018000E
:1018600004EF04000400000040101800886A000023
:101870000400000048101800187100000400000067
:10188000501018008C75000004000000581018005B
:10189000147A000004000000601018009C49000049
:1018A00004000000681018000CB2000004000000E2
:1018B00070101800646B000004000000781018001D
:1018C00038D0000004000000801018009CD00000F8
:1018D0000400000088101800A8D6000004000000D2
:1018E00090101800704B00000400000098101800C1
:1018F000E44B000004000000A0101800844C00001D
:1019000004000000A8101800646C0100040000002E
:10191000B0101800C06D010004000000B8101800DD
:10192000046E010004000000C0101800CCA30100E8
:1019300004000000C8101800A8C90100040000003D
:10194000D01018002CCF010004000000D81018009F
:101950003009020004000000E0101800380D0200F9
:1019600004000000E81018007015020004000000D8
:10197000F010180004EB020004000000F81018003A
:10198000DCEE02000400000000111800C8F502009F
:101990000400000008111800ECF50200040000002B
:1019A0001011180008F602000400000018111800B9
:1019B0006C2202000400000020111800C0F902008F
:1019C000040000002811180080FC02000400000040
:1019D00030111800E4000300040000003811180062
:1019E00030050300040000004011180078070300D0
:1019F0000400000048111800B809030004000000AA
:101A0000501118005029030004000000581118005C
:101A1000203303000400000060111800A03403000C
:101A20000400000068111800246D03000400000089
:101A300070111800C871030004000000781118002C
:101A4000A87803000400000080111800F07B030058
:101A50000400000088111800207D0300040000002D
:101A6000901118005C7E030004000000981118001B
:101A70002480030004000000A011180018230200B5
:101A800004000000A8111800D48A0300040000001C
:101A9000B0111800408E030004000000B8111800B7
:101AA000B08F030004000000C0111800C0930300B1
:101AB00004000000C811180014BA0300040000005C
:101AC000D0111800A0BE030004000000D8111800B7
:101AD00010FF030004000000E011180024C80300F8
:101AE00004000000E8111800F027020004000000C4
:101AF000F0111800582B020004000000F811180023
:101B00002C0804000400000000121800A40D0400BA
:101B10000400000008121800D40D040004000000A6
:101B200010121800A0110400040000001812180080
:101B3000F81804000400000020121800A01A040085
:101B400004000000281218001C1B04000400000000
:101B500030121800F02304000400000038121800AE
:101B6000E02404000400000040121800DC2A0400F5
:101B70000400000048121800A42C04000400000017
:101B800050121800383804000400000058121800E1
:101B9000DC3D04000400000060121800184304003B
:101BA0000400000068121800EC4304000400000068
:101BB00070121800C04804000400000078121800D9
:101BC000B449040004000000801218004C4D0400C9
:101BD0000400000088121800884F04000400000070
:101BE00090121800545104000400000098121800CC
:101BF000BC53040004000000A0121800905504001B
:101C000004000000A8121800085804000400000096
:101C1000B01218009859040004000000B81218000F
:101C2000AC75040004000000C012180060820400BB
:101C300004000000C812180008BD040004000000E1
:101C4000D012180048F8040004000000D812180050
:101C5000E4F8040004000000E0121800FCD20400C4
:101C600004000000E812180014060500040000003B
:101C7000F0121800A80E050004000000F812180069
:101C80000C0F05000400000000131800FCD1030035
:101C90000400000008131800C0D304000400000072
:101CA00010131800C0560800040000001813180094
:101CB000186304000400000020131800C813050076
:101CC000040000002813180000170500040000009D
:101CD00030131800601705000400000038131800C6
:101CE00028D5040004000000401318008888020072
:101CF00004000000481318000C89020004000000D2
:101D0000501318007C390500040000005813180017
:101D1000CC4B05000400000060131800C08D0200C9
:101D20000400000068131800908E020004000000F8
:101D30007013180014400500040000007813180008
:101D4000504B05000400000080131800B846050041
:101D50000400000088131800DC480500040000009F
:101D600090131800B49202000400000098131800A9
:101D7000CC93020004000000A0131800381A0700DA
:101D800004000000A8131800449A02000400000098
:101D9000B0131800FC9C020004000000B8131800E7
:101DA000B4D3030004000000C013180044DC030097
:101DB00004000000C813180028E30300040000001A
:101DC000D01318002469050004000000D81318007F
:101DD000B46A050004000000E0131800DC6C050084
:101DE00004000000E81318002C7305000400000034
:101DF000F0131800DC9D020004000000F813180026
:101E0000709C050004000000001418009C9F050051
:101E1000040000000814180018A1020004000000CB
:101E200010141800F8A10500040000001814180090
:101E300060A305000400000020141800F8A30500AA
:101E4000040000002814180060B40500040000001D
:101E5000301418000CC605000400000038141800E7
:101E600040C70500040000004014180020CB050006
:101E700004000000481418006CCC050004000000A9
:101E800050141800DCCC05000400000058141800A1
:101E9000CCD00500040000006014180048D90500EB
:101EA0000400000068141800A0DB05000400000016
:101EB0007014180028DC05000400000078141800D5
:101EC000BCDC05000400000080141800B8E3050025
:101ED00004000000881418003CF105000400000014
:101EE0009014180060FF050004000000981418000A
:101EF0009400060004000000A014180090050600DD
:101F000004000000A81418000C10060004000000D3
:101F1000B0141800C414060004000000B81418001F
:101F20008C19060004000000C01418006827060081
:101F300004000000C814180048290600040000002E
:101F4000D0141800DC2A060004000000D814180081
:101F5000C439060004000000E0141800B463060051
:101F600004000000E814180010A70200040000009C
:101F7000F0141800BCA7020004000000F8141800B8
:101F8000446F06000400000000151800707406007D
:101F90000400000008151800348606000400000044
:101FA0001015180004A902000400000018151800FC
:101FB000C0AA0200040000002015180034AB020083
:101FC00004000000281518003888060004000000EE
:101FD0003015180080AB020004000000381518000E
:101FE00048AC0200040000004015180068AC020074
:101FF000040000004815180060A30600040000005B
:102000005015180010A6060004000000581518000E
:1020100098AD02000400000060151800F8CF06001B
:10202000040000006815180078D9060004000000BC
:102030007015180070DD0600040000007815180007
:10204000A0DE0600040000008015180098E00600DD
:102050000400000088151800A4BF0600040000005A
:1020600090151800181005000400000098151800BD
:102070000CE2040004000000A015180028E603008C
:1020800004000000A815180084E603000400000006
:10209000B0151800ECE9030004000000B8151800A2
:1020A00030ED030004000000C0151800F81D070003
:1020B00004000000C81518001420070004000000E8
:1020C000D0151800282C070004000000D8151800AF
:1020D000AC2F070004000000E0151800B42307002F
:1020E00004000000E8151800402407000400000068
:1020F000F0151800442A070004000000F815180025
:10210000883B07000400000000161800C4C5020048
:1021100004000000081618009CC70200040000001C
:102120001016180050CC0200040000001816180009
:1021300080CD02000400000020161800B8500700EF
:102140000400000028161800B0CE020004000000B1
:1021500030161800D0CF0200040000003816180016
:10216000E0EF0300040000004016180090D40200C5
:102170000400000048161800C8D702000400000040
:102180005016180054630700040000005816180089
:102190002082070004000000601618007483070006
:1021A0000400000068161800FC830700040000000B
:1021B000701618001C8C0700040000007816180028
:1021C000FC8E070004000000801618000093070032
:1021D0000400000088161800D096070004000000D4
:1021E000901618003C9D0700040000009816180087
:1021F000449F070004000000A016180064A1070017
:1022000004000000A816180058A3070004000000EE
:10221000B01618008CA6070004000000B8161800BD
:1022200098A7070004000000C0161800F4A80700D3
:1022300004000000C816180090AB0700040000005E
:10224000D016180054AE070004000000D81618007D
:10225000F4B0070004000000E016180074C2070084
:1022600004000000E816180004C507000400000080
:10227000F0161800C0C5070004000000F81618008A
:10228000B8CD070004000000001718005CD6070056
:102290000400000008171800B0D807000400000070
:1022A00010171800C0E407000400000018171800F9
:1022B00078E90700040000002017180008EB070069
:1022C0000400000028171800B4D902000400000020
:1022D000301718008CDA02000400000038171800CC
:1022E00074DB020004000000401718001C080800FE
:1022F0000400000048171800780F080004000000D0
:1023000050171800D41508000400000058171800D2
:10231000602D08000400000060171800203208003B
:10232000040000006817180098E50200040000008F
:1023300070171800E848070004000000781718001C
:10234000344B070004000000801718000000000054
:102350002DE81FC0AFF31F8101B400B586B0FFB4F4
:1023600080EA000000F1010000F063B82DE81FC012
:10237000AFF31F8101B400B586B0FFB480EA00005E
:1023800000F1020000F055B8F54681B0EE462DE8A8
:102390001FC0AFF31F8101B400B586B0FFB480EA5F
:1023A000000000F1030000F044B8F54682B0EE46AC
:1023B0002DE81FC0AFF31F8101B400B586B0FFB494
:1023C00080EA000000F1040000F033B8F54681B067
:1023D000EE462DE81FC0AFF31F8101B400B586B0F3
:1023E000FFB480EA000000F1050000F022B8F546D5
:1023F00081B0EE462DE81FC0AFF37F8701B400B572
:1024000086B0FFB480EA000000F1060000F011B8C9
:10241000F54681B0EE462DE81FC0AFF37F8701B4CB
:1024200000B586B0FFB480EA000000F1070000F0BC
:1024300000B86C4604F140040ACCEFF300820FB4FC
:10244000A4F10C04216003F040016F4607F1580726
:1024500066465D4654464B46424612B0FCB48CB0CC
:10246000062802D1402900D061B60A4C2468002C0D
:10247000FED06846A04773B60CB07FBC8046894644
:1024800092469B46A446B6468FB0FFBC08B0BDE955
:1024900000C000000425180062B6704764B670479B
:1024A00061B6704772B6704772B6704719EE1C1F5E
:1024B000044A41EA020109EE1C1F034909EE3C1FD0
:1024C00070470000010000000000008019EE1D0FA1
:1024D000704715EE100F704716EE100F704715EE8F
:1024E000300F704716EE500F7047000000EE0006E8
:1024F00000BF00BF00BF00BF00BF7047DDBAADBB6B
:1025000000000000000000000100000000000000CA
:1025100000000000FFFFFFFFFFFFFFFF024A1168FE
:10252000106008467047000004251800024A116830
:10253000106008467047000064951D0000F0A0F888
:1025400039480168394A02EA0102394941580A68A2
:10255000384B03EA02030F2B00F00580012B03D058
:1025600001F10401F3E7FEE701F10801324B03EA50
:102570000203324CA342EAD100F02CF9804600F06D
:1025800039F9814649462E4BCB5800F0D1F87946AF
:10259000B14240F1028000F079F9404629490860D3
:1025A00048462949086000F0C3F828490D602849C9
:1025B0000E6028490F603D46274828494FF0000229
:1025C00004C08142FCD8A5F10405AD46009D6FEA28
:1025D00005044FF0100365FA03F5AC4240F0178094
:1025E0004FEA14444FEA84041D4D2C606B46A3EB64
:1025F00004031C4E1C4D2E60002C00F00880194D69
:1026000005EB040680CB80C5AE423FF7FBAF81B03F
:1026100068464FEA10104FEA001085461348864678
:10262000134C2047FEE7000000000018F8FF0000F0
:10263000FC0000000F00000000FF0F00003E08003B
:10264000080400000C25180010251800D0941D0067
:10265000D4941D00D8941D0028E21D00E0EC1D005C
:10266000F0941D0038671F00E0941D002426180018
:10267000F7841800000000000000000000000000C7
:1026800010EE900FC0F30721002900F02580264CA2
:1026900080EA00000ECC002900F00B8006EE120F3D
:1026A00006EE511F06EE112F06EE913F00F10100DC
:1026B000F0E7002800F010801C4A11EE101F41EADC
:1026C0000201BFF34F8FBFF36F8F01EE101FBFF3F7
:1026D0004F8FBFF36F8F00BF704700BFAFF3008015
:1026E00037000000000000000F030000370000006A
:1026F0000000001005030000390000000000002069
:10270000050300003B00000000000040050300003E
:102710003D000000000000800503000000000000F4
:102720000000000000000000E0261800010000008A
:1027300041464A681346204C03EA04034FEA131348
:102740001E4C02EA040216461A441D484FF00005CA
:1027500008644B6C1B4C03EA040303F101031A4C9D
:102760001B4603FB04F31D4400F101009042EFDB24
:10277000002D3FF4F8AE154D414632464FF00006AD
:102780000F4808644B6C0F4C03EA040303F1010388
:102790000D4C1B4603FB04F31E4400F10100904264
:1027A000EFDB19EE112F0A4902EA0102A2EB060241
:1027B00005EB020716467047F00000000F0000000E
:1027C000000000003F0000000020000000000F009B
:1027D00000F0FFFF0868054A01F1040102EA000267
:1027E000052AF7D1024A00EA020070470F000000F4
:1027F00000F0FFFF0868074A01F1040102EA000245
:10280000052AF7D1044A1042F4D0044A00EA020033
:10281000704700000F0000008000000000F0FFFF84
:102820000C490D4A0D4B0E4C0E4D0F4E0F4F1048DC
:10283000804610488146104882461048834610481A
:1028400084461048104886464FF00000B0FBF0F078
:102850000560704701010101020202020303030344
:102860000404040405050505060606060707070710
:1028700008080808090909090A0A0A0A0B0B0B0BC0
:102880000C0C0C0C0D0D0D0D0E0E0E0EFEE70000C7
:102890000048704728E21D000048704774E21D00A0
:1028A000004870479CE21D00004870478CE21D0004
:1028B00000487047F4E21D000048704764E21D00C4
:1028C000074B002282611B681A680AB9586005E04C
:1028D00019B95A68906158607047826118607047F2
:1028E0007CE21D0008B5827A084B42F00102827238
:1028F0001A6822B153682BB19168984708BD4FF010
:10290000FF3008BD4FF0FF3008BD00BFB007180012
:10291000074B1B68186850B15A6890424FF000028C
:1029200002D11A605A6070478169196082617047EC
:102930007CE21D00094B1B681A680AB9586005E063
:1029400019B95A681061586001E0026118605A892B
:1029500001325A8100225B681A61704744071800EF
:10296000094B1B68186868B15A6890425A8903D1AC
:1029700000211960596001E001691960013A5A812A
:1029800000230361704700BF4407180038B5094BA6
:102990001C22002105461C6880F6D8FE2389226887
:1029A00012B96560256002E0626895616560013377
:1029B000238138BD78071800022970B506D1506808
:1029C00000210A2280F6C4FF064600E00826002502
:1029D000612408E0204684F64FFF01340135E4B25B
:1029E0007B2C08BF6124B542F4D10A20BDE87040B9
:1029F00084F642BF01232DE9F74F8B40B3F5001F4A
:102A000028BF4FF40013042B38BF04230330019375
:102A100020F00304FFF740FF364B00221546D3F8A1
:102A200000B09446134622E0D1F800A0A2451DD381
:102A300001F10807019E07EB0A08C6F10009C4EB83
:102A4000080609EA0606BE4210D3C7EB0609B9F12B
:102A5000070F01D8BE4209D1C4EB0A075F4505D272
:102A6000424635466FB1BB4684460B460846416830
:102A70000029D9D13BB9204A1846116801311160AB
:102A800036E084460B46521B111B102909D91868E1
:102A90002A19401A083918602951596851605A603A
:102AA00022461968891A03D15A68CCF804200CE030
:102AB000072905D8104B00201A6801321A6017E068
:102AC0005A50A1F108021A605B180C4800221968DC
:102AD0005A6002688A18026009480168083101607A
:102AE0008918084A1068814203F1080088BF116004
:102AF000BDE8FE8F50071800940718004C07180017
:102B00008807180088E21D0038B5194B054650F8B3
:102B1000082CA0F1080419688A1A1A60154B1A6863
:102B2000083A1A60FFF7B8FE02E0A34203D2184643
:102B30004368002BF9D155F8082CA9188B4205D110
:102B400019685B685218083245F8082C63600368FE
:102B500003F108028218A24207D155F8082C9B18ED
:102B6000083303606368436000E04460002038BDC0
:102B70004C0718008807180010B5002104464022B1
:102B800080F6E4FD104B2360104B6360104BA36094
:102B9000104BE360104B2361104B6361104BA3613A
:102BA000104BE361104B2362104B6362104BA36226
:102BB000104BE362104B2363104B6363104BA36312
:102BC000104BE36310BD00BF00001800BA231D00C6
:102BD000BC231D00CC941D00D0941D0028E21D00D4
:102BE00028E21D00E0EC1D00E0EC1D00E04F20009D
:102BF000BCE2200008B12100D80018000002180033
:102C0000000018000000180070B590B06846FFF78B
:102C1000B3FF2A4D2978002935D10898099C241A38
:102C200006D0224680F692FD0898214684F630FAB6
:102C3000234922462348012480F6AEFD0022224B80
:102C40001A702C7084F6B2F8204B196831B10B78E9
:102C500023B11F4B2246186805F07BFE1D4B1968F7
:102C600031B10B7823B11A4B0122186805F071FEBF
:102C7000194B1968F1B10B78E3B1154B01221868B3
:102C800005F067FE16E0154E317899B90A980B9C4D
:102C9000241A06D0224680F659FD0A98214684F669
:102CA000F7F9084822460E4980F676FD00232B707E
:102CB0000123337084F67AF810B070BDAC071800A9
:102CC000F4F80800542E1D0098E21D005407180067
:102CD0008007180004E31D0000E31D00A8E21D00AA
:102CE000A6FE0800014B1868704700BFD0941D0075
:102CF000014B1868704700BFD4941D0008B5836A63
:102D000033B10023836280F82030103084F6ECF970
:102D1000012008BDF8B50C4615461E460746A8B169
:102D2000836893B984F67CF9094B1A6801E0641A48
:102D30001A46136823B15968A142F8D9091B596092
:102D400087E8780001201760F8BD0020F8BD00BFBB
:102D5000A4071800024B1A6801321A60704700BFBE
:102D6000A4E21D00014B1868704700BFA4E21D00DB
:102D70002DE9F04F9DB00AA8FFF7FEFEFFF7B2FF66
:102D8000924EDFF8A882DFF8A8A2914F0446FFF721
:102D9000AFFF0A9B0B9A0F99D21A0E9B0D9DC3EBA6
:102DA00001091199109BCB1A0C99C1EB050B9344A7
:102DB0003268D8F8001002F59052521A4A44D218DC
:102DC0005A441419DAF80050241882480994824CA5
:102DD0002268AD183A680893C5EB020CCDF81CC008
:102DE00080F6DAFC089B09F57E710193073103F543
:102DF0007E7307330BF57E729B0A890A07320293B2
:102E00000523920A0091594603934B46734880F676
:102E1000C3FC33682068DDF81CC03968019000F5F8
:102E20007E70039303F57E730CF57E7607300733CF
:102E300001F57E720736800A9B0A0732B60A920AAB
:102E40000290049363466648009680F6A5FC0999B3
:102E500005F57E72073201F57E730733920A9B0AED
:102E6000294600934646099B5E4880F695FC5E4BDA
:102E70005E4F5F48196880F68FFC39685D4B0A68C1
:102E80009A4203D05C4880F687FC25E01A910B46F5
:102E900004E01568131D5748854203D11A461BAB41
:102EA0009A42F6D31AAD336800932B4653481A92D0
:102EB00080F672FC3B681A9AE91AD31A50480A46FF
:102EC000009380F669FC33681A9A591B9B1A4D4887
:102ED0000A46009380F660FC4B4B1B68C3B11D781B
:102EE000CDB15989DD8901FB05F61A8938354D4385
:102EF00006F57E73073345489B128DE8280005F5DB
:102F00007E7307339B120293334680F645FC03E041
:102F10001D461E4600E02E463D4B1A68C2B113788E
:102F2000B3B15189D08901FB00F31289583048436D
:102F30002D18019000F57E7003F57E770730073776
:102F40008012BF120290F6183248009780F624FCD7
:102F5000314B1A6852B3137843B35189D08901FBBE
:102F600000F31289583048432D18019000F57E7007
:102F700003F57E77073007378012BF120290F618EC
:102F80002648009780F608FC2368DAF80020991B91
:102F90009B185B1B03F57E70073001F57E72800A7B
:102FA00007320090920A1E4880F6F6FB1D4B1D6802
:102FB00084F69CF90446FFF7D5FE294622460346CF
:102FC000194880F6E9FB1DB0BDE8F08F88E21D00CE
:102FD00050071800872E1D004C071800962E1D0064
:102FE000D52E1D001A2F1D009407180070E21D0039
:102FF000552F1D004B415453702F1D00942F1D0061
:10300000CB2F1D00F02F1D005407180016301D0097
:1030100004E31D0043301D0000E31D0075301D005A
:10302000AA301D006C071800D4301D0094E21D006A
:103030008807180008B57146034880F6ADFB0120EB
:10304000BDE8084000F0D0BBFC301D00014B036020
:10305000704700BF0CE31D0038B504460D46FFF76E
:1030600023FC03681BB980E83000184638BD4FF0D8
:10307000FF3038BD38B504460D46FFF719FC03682C
:103080001BB980E83000184638BD4FF0FF3038BD1E
:1030900010B50446FFF70CFC036813B140682146E5
:1030A0009847002010BD38B504460D46FFF704FCD4
:1030B00003681BB980E83000184638BD4FF0FF3078
:1030C00038BD38B505460C46FFF7F6FB03681BB163
:1030D0004068294622469847002038BD034B1B68AC
:1030E0001868D0F1010038BF002070477CE21D0055
:1030F00010B50446FFF7F2FF18B12046FFF7F2FBC8
:1031000028B120460021BDE81040FFF7D9BB10BD13
:10311000F8B50646076883F611FF0546002853D028
:103120002B4B1B68186805F0E1FB044688B984F650
:10313000ABF8B0F5804F08D9264B22464FF4F0612A
:10314000186807F0FBFF044618B92846FFF71EFC75
:1031500013E07B6C0820002123F000436B601E4BC2
:103160002B61FFF747FC58B92846FFF70FFC194BB6
:1031700021460122186884F61BFC6FF01A00F8BD86
:10318000B368B7F85020A1680360F3684360B6F9EC
:103190000630D21AB388CB18686100212A81A28137
:1031A000FA7CA360E274B6F90620EB603B6CD3189E
:1031B00022462B60094B186805F034FC2846A761AD
:1031C000FFF796FF0020F8BD6FF01500F8BD00BFB7
:1031D000B00718008007180059321800840718003B
:1031E00010B50BE0FFF794FB0446FFF77BFB28B11B
:1031F00020460121BDE81040FFF762BBFFF76EFFDC
:103200000028EFD010BD0000034B1B681B680BB1FA
:10321000FFF7E6BF704700BF7CE21D000D4B70B5A5
:103220001C6811E0FFF79CFB0646FFF771FF051EC7
:103230000ADA15F1160F14BF0125022530460121C7
:10324000FFF778FB257270BD2368002BEAD123724B
:1032500070BD00BF440718002DE9F84306464069D9
:103260000D4690E89000FFF74FFC0F4B00211868C7
:1032700005F012FC8046A0B10023D0F818908361BD
:103280003046FFF783FB24B1404649463A462B4679
:10329000A047064B1B681B7A1BB1BDE8F843FFF73C
:1032A000BDBFBDE8F88300BF8407180044071800BD
:1032B00070B5164D04462E462B685B897F2B05D9C9
:1032C000FFF7ACFF2B685B897F2B1CD833680F4D51
:1032D0001B6893B92046FFF71BFF10F1160F05D0AE
:1032E00098B11B3006D12B68012201E02B68022225
:1032F0001A7202E0064880F64FFA20460021FFF7D6
:1033000019FB002070BD4FF0FF3070BD440718005E
:1033100011311D00034B1B681B7A0BB1FFF77EBFF9
:10332000704700BF44071800014B83E80300704753
:1033300080E21D00034A08B513680BB15068984736
:1033400008BD00BF80E21D00004870475CE31D001F
:10335000012807D002D302280ED109E000230B80F8
:10336000382303E04FF400730B8058231360704739
:1033700000230B8058231360704738B504460D4670
:10338000FFF7E2FF80E8300038BD00002DE9F3418F
:1033900007460C4683F6AAFF10B9FFF7DBFC3AE0BC
:1033A000002620460DF106016A46ADF8066007F1D9
:1033B00003080096FFF7CCFF009D28F0030840F6B5
:1033C000380345449D4226D82DB328463146FFF7A1
:1033D00011FB0446F8B13146009A80F6B7F9009B1C
:1033E000A7812046ED1AE218C8EB050802EB080396
:1033F000013DA360636862F3140363601B0C65F313
:103400004F13E38083F65CFF0123A3702080BDF897
:103410000630E38104E0044B00241A6801321A608C
:103420002046BDE8FC8100BF58E31D0038B50021EF
:1034300005468089FFF7AAFF044620B18068AA8963
:10344000A96880F6FFF8204638BD000038B5058A27
:10345000426801230446C2F314028370C38802EB5E
:10346000531283680132C81CA18100215B0D5B05EA
:10347000D218074B0340D31A04F11000A360E3896C
:1034800003F40C532822E38180F660F9258238BDCD
:10349000FCFF010038B50446E389590621D4A2781F
:1034A000013AD2B2A270002A27D1E27862B1134B5E
:1034B000204653F82250E989FFF7C8FF21462846E5
:1034C000BDE8384081F698B9DA0516D40C4B204691
:1034D000A360218883F610FF2046BDE83840FFF73F
:1034E00013BB074B2046A3602188A56B83F604FF1E
:1034F0002046FFF709FB2C46CEE738BD60E61D00ED
:10350000EFBEADDE38B504461DE0104BA28A1B6845
:1035100053F822500E4A13682BB100215068A18243
:103520002146984770B90B4B1B6843B10A4AE178B2
:103530001B6852F821209A4201D1FFF7EBFE20468A
:10354000FFF7A8FF2C46002CDFD138BD4807180034
:103550005CE31D00B007180060E61D002B4B70B542
:1035600019682B4C88422B4B0ED9421A1A602A4BF1
:10357000D3E90023121843F100032848C0E90023CF
:1035800008464FF0A06109E000221A602368196A1A
:103590000E29CCBF4FF0C8514FF0106123680028AE
:1035A00008BF0220A3B11A6A152A11DD1C4A5E6900
:1035B00015681C4A1468222E05DDDA69520602D508
:1035C00005F5C16201E004F5C16212685205F2D44A
:1035D0005A69222A04DDDA69520601D5104A00E050
:1035E000104A1268084302F5C862043210605A6932
:1035F000222A04DDDB695B0601D5094B00E0094B9B
:103600001B6803F5C86304331B6870BD7C951D00FF
:103610009C07180088E31D0080E31D0078E31D006F
:1036200090071800580718002C4B70B51B68002B2A
:1036300051D02B4A106800284ED05C69222C07DD3F
:10364000DA69510604D5274A126802F5C26201E020
:1036500000F5C2620432222C116807DDDA695206D5
:1036600004D5204A126802F5C26201E000F5C26288
:103670000432126891420AD0222C04DDDB6959061B
:1036800044BF184B186800F5C26004300168164B3F
:103690001868081A20D019601449D1E900231218BB
:1036A00043F100030126C1E90023114B11491C68B5
:1036B000D1E90023E4FB00230F480468203C33FADF
:1036C00004F016FA04F4661E002403EA0605144307
:1036D000C1E9004570BD184670BD00BF9C071800C9
:1036E00058071800900718008CE31D0080E31D00A8
:1036F00074951D0090E31D0078951D002D4B10B5AD
:103700001B685A69222A04DDDA69500601D52A4A63
:1037100000E02A4A1268402102F5C16211605A692C
:10372000222A04DDD969490601D5234900E023494D
:103730000968222A01F5C161096812DDDA695006BB
:103740000FD51D4A01211268C2F840175969222974
:1037500002DDD969490601D4184A126802F5E86207
:1037600012685A69222A04DDDB69580601D5124B1A
:1037700000E0124B1B6803F5C86304331B68990112
:1037800017D583F67FFE0E4B1B6893B1FFF74CFFF6
:103790000C4B0D49D3E90023D1E90001904271EBB4
:1037A000030434BFC0EB02000020BDE81040FFF767
:1037B000D5BE10BD9C0718009007180058071800C8
:1037C00088E31D0078E31D0080E31D0008B5FEF7C7
:1037D00063FEBDE80840FEF763BE08B5FEF762FE73
:1037E000BDE80840FEF760BE10B5044683F6EAFF68
:1037F0000CB100231B60064B0021186883F696F974
:10380000044B1B6803B1984783F6DCFFFEE700BF5B
:103810009C071800B80718002DE9F34198461B4B88
:103820000D46064614461F681948BF1A7FF6B4FFB6
:1038300031462A46174800252346CDF80080BF08A8
:103840007FF6AAFFA8462E4617E02A59D3070FD5C0
:10385000FF2A0DD9104B9A4204D902F16243B3F505
:10386000801F05D80D4829467FF696FF08F101080C
:1038700001360435B8F10F0F01D8BE42E5D1002062
:1038800002B0BDE8F041FFF7AFBF00BFD8941D0004
:103890004A311D0062311D00BA231D008F311D0009
:1038A0002DE9FF474F4B0446D8620368042B03D130
:1038B0004D4B186889F650FA2368062B0DD14A4CF7
:1038C0000221206883F624FE83F6A6FC20680121ED
:1038D00004B0BDE8F04783F61BBE444B444E656C14
:1038E0001B68F1693268C5EB030A42487FF654FF52
:1038F000A36C00932246636C4FEA9A0A0193A36873
:103900000293E36803933C48E36C21687FF644FF2D
:103910002368042B07D1FEF7DCFD0746FEF7DCFD2C
:103920000246364808E0032B09D1FEF7D8FD0746CA
:10393000FEF7D8FD0246324839467FF62DFFE3698F
:1039400004F1100100930027236AB9460193B84699
:10395000636A0293A36A03932A480EC97FF61CFF89
:10396000A36B04F12C010093E36B0193236C02938E
:1039700025480EC97FF610FFEB680093234895E8B1
:103980000E007FF609FF05F11001EB690093204856
:103990000EC97FF601FF18E07A59D1070FD5FF2A2B
:1039A0000DD91C4B9A4204D902F16243B3F5801F32
:1039B00005D8194839467FF6EFFE09F101090437A9
:1039C000B9F10F0F08F1010801D8D045E4D13368EF
:1039D000002043F4806386E8180004B0BDE8F04797
:1039E000FFF702BFACE21D009C071800D8941D0031
:1039F0000CE31D009B311D00B1311D00E6311D009F
:103A0000FA311D000E321D0041321D0070321D00C2
:103A10008E321D00BA231D008F311D00014B186826
:103A2000704700BFDC941D002DE9F84305460C46A5
:103A300089F6FAF90646284689F6A4FCFFF7EEFF58
:103A400040F63E010246284689F6B6FD80462846E5
:103A500089F6F2F9062869D9D8F8043003F4E0436E
:103A6000B3F5005F62D1D8F8007007F47067B7F55E
:103A7000806F14BF01270227002C5BD0BC4253D0BB
:103A8000022C53D8D8F8E07107F08473B3F1847F27
:103A900018D0D8F8E031412040F2DD5943F4817369
:103AA000C8F8E03183F654FD02E00A2083F650FDA9
:103AB000D8F8E03103F08473B3F1847F02D0B9F118
:103AC0000109F2D1D8F8E03103F08473B3F1847FB7
:103AD0004FF0FF332DD10021D8F81820022CC8F860
:103AE0001810C8F810304FF00053C8F81830D8F844
:103AF000003023F4706308BF43F48063C8F80030DB
:103B000030BF012C0CBF27F4807747F48077D8F8BA
:103B100010304FF00053BFB2C8F81030C8F818206A
:103B2000C8F8E071274605E0002703E04FF0FF37B3
:103B300000E01F462846314689F64CFD3846BDE870
:103B4000F883000040F644024369C3F82021094A83
:103B5000C3F8242140F64802C3F82021064AC3F8DE
:103B6000242140F64C02C3F82021044AC3F8242142
:103B7000704700BF3C883C88648864880390039049
:103B800070B504689CB146890589AE4211D225689A
:103B900005600D684968A560E160A3824368236001
:103BA00043890133226144604381002070BD0720B6
:103BB00070BD072070BD08B50B46104610315A681D
:103BC0001B89FFF7DDFFC0B208BD00F58053DB6A3B
:103BD000DA0105D5436900F58C50C26AC3F8A82103
:103BE00070474FF0FF3243691A62C3F89021C3F85F
:103BF0009821C3F8A42170474FF4807243699A62F8
:103C000070470000024B1A6801321A60704700BF0B
:103C100080951D0003685A6903F58C531B7FC2F819
:103C2000A03170470020704743691A6842F01002C3
:103C30001A604FF40062C3F82021D3F8242122F047
:103C40008072C3F8242170477FB52B4B04460D4684
:103C500004AE0FCB06E90F0004F58C5393F8313016
:103C6000002B47D1E5B963694FF41372C3F82021E3
:103C7000D3F8242102F0030306EB830353F8103C2E
:103C8000591C37D0D2085343192205335A43B2F591
:103C9000005F2FD2B2F5806F04D3D208012501E076
:103CA0001D469622636941F6140102F03F00C3F8F5
:103CB00020119209D3F82411520121F07C5121F4F2
:103CC000F07142EA0062C3F82411D3F824110A43C8
:103CD000C3F8242141F61802C3F82021D3F8242187
:103CE00022F48002C3F82421D3F8242142EA855526
:103CF000C3F824517FBD00BFBC231D00436941F6BA
:103D00001402C3F82021D3F8242142F01F02C3F883
:103D10002421704700F5C653F0B59D691C24544317
:103D200000F5C8562B19CB6096F825600EB9184ED1
:103D300000E0184EB65C1A694A6017680F6011609F
:103D40000A6851605A7D196102BB00F5C652D269FA
:103D50000CE000F5C85191F82570117D0FB90C4F9A
:103D600000E00C4F795CB14205D3126800F5C651F2
:103D70001C318A42EDD10121597540215268D98206
:103D80005A601168295113602A595360F0BD00BF71
:103D9000B9351D00B1351D000020704700F5C65330
:103DA000DB6907E09A6800E0126803F108018A42C3
:103DB000FAD11B6800F5C6521C329342F2D10020A2
:103DC000704700004369B422C3F82021D3F824319E
:103DD00003F4E0431B0B032B9ABF024AD05C06207E
:103DE000704700BFD1321D0000F5C8535A69012A3F
:103DF00005D198214369C3F82011C3F824217047E5
:103E000070B500F5945504460E46E86A02F0AAFB28
:103E1000014630B904F5C854E3681A8801321A80A3
:103E200070BD04F58A535B6B9A68002383704370FE
:103E30000A20087050684B819368CB60EB6A486039
:103E400020460E819A68D288BDE8704003F031B9EF
:103E50002DE9F04700F5945804469946D8F82C000F
:103E60000D46164602F07EFB0021182207467FF61B
:103E70006DFC01233E8120463B703946D8F82C303A
:103E80007D81C7F804909A68D288BDE8F04703F0B6
:103E900010B92DE9F041069D04460E462846174606
:103EA000984602F05FFB0146B0B10E2380F8018016
:103EB00003700023466003810223878143812046EB
:103EC000AB68DA882B4603F0F4F800280CBF4FF0FB
:103ED000FF300020BDE8F0814FF0FF30BDE8F081F9
:103EE0002DE9F04700F5945804469946D8F82C007F
:103EF0000E46154602F036FB0021182207467FF6D3
:103F000025FC0223BE8120463B703946D8F82C3070
:103F10003D81A7F80A909A68D288BDE8F04703F07F
:103F2000C8B8CB6830B51A690C688A424A6808BFBD
:103F30001A6114600C6862601A4652F8084F944285
:103F400007D15A681D6815601D686A6000221C61EF
:103F50005A7500F5C650002340698B60CB60BDE800
:103F6000304004F0E1BF38B50C4649B938BD0C23E8
:103F700003FB05430135EDB2586A83F6D9FC00E036
:103F800000252378AB42F2D82046BDE8384083F6BE
:103F9000CFBC70B50446486C0D4608B183F6C8FC2A
:103FA000286C08B183F6C4FC686D08B183F6C0FCC8
:103FB000A86D80B183F6BCFC04F5C85393F821606A
:103FC000013EF6B283F821602EB904F5C954D869D0
:103FD000FEF794FE267000236B656B642B64AB6563
:103FE00070BD70B50D4641B100240C704C830C833C
:103FF000FFF7CFFF2B69EC771C6070BD0F4B70B5DE
:1040000099420C46164612D8022A13D800F58C5550
:104010006B7F13B1A869FEF771FE01232E7721464D
:104020006B770022A86983F621F8002070BD6FF03D
:104030001C0070BD6FF01C0070BD00BF8096980022
:1040400000F58C5370B55B6A04460E46CBB11B6815
:1040500043B90CE00A2083F67BFA04F58C535B6AC3
:104060001B6800E06525013D01D0002BF2D104F56D
:104070008C521E432046526A1660BDE87040FFF71E
:10408000BBBD70BD70B500F58C5393F828308B42E2
:1040900005460C4626D009B9FFF7D6FD022C6B6900
:1040A000C3F8A0411AD103E00A2083F651FA00E0D8
:1040B0000B266B69D3F8A02102F44072B2F5007FA1
:1040C00001D0013EF0D1D3F8A03103F44073B3F531
:1040D000007F03D128460121FFF7B6FD05F58C5579
:1040E00085F8284070BD000010B5044604F5C8549A
:1040F0000C487FF651FB0C48E36819887FF64CFBAF
:10410000E3680A4859887FF647FBE36808489988BE
:104110007FF642FBE3680748D988BDE810407FF688
:104120003BBB00BFD5321D00FD321D0014331D0006
:1041300027331D0038331D0038B54468054674B177
:10414000236818224360084621467FF67BFA2B68D5
:1041500023606B89013B2C6001206B8138BD2046B8
:1041600038BD2DE9F04100F5C2569CB005460C461D
:10417000D6F82E8083F66AF905F5C657BB68C3EBFF
:1041800008088044C6F82E8083F660F905F5C4520D
:10419000B860C2F822006B68062B50D96B6940F6F4
:1041A0008421C3F82011D3F82411C6F83A1040F640
:1041B0008821C3F82011D3F82411C6F83E1040F628
:1041C0008C21C3F82011D3F82411C2F802104FF447
:1041D0002961C3F82011D3F82411C2F8061040F663
:1041E0009421C3F82011D3F82411C2F80A1040F624
:1041F0009821C3F82011D3F82411C2F80E1040F60C
:104200009C21C3F82011D3F82411C2F812104FF4E6
:104210002A61C3F82011D3F82411C2F8161040F611
:10422000A421C3F82011D3F82411C2F81A1040F6C3
:10423000A821C3F82011D3F82431C2F81E30062378
:1042400005F5C251ADF804306C231E31682202A876
:10425000ADF806307FF6F6F9204601A96C227FF60C
:10426000F1F96C201CB0BDE8F0817FB52A3001A9BE
:104270007FF662FD002007B000BD00F5C65370B5A3
:10428000064686B0DC690CE0A56805E0A86801A9CF
:104290002A307FF651FD2D6804F108039D42F5D1C7
:1042A000246806F5C6531C339C42EDD1002006B0AD
:1042B00070BDF0B51D4687B0002306460493144632
:1042C000059300F5C8535F6807B98F686B1E9DF8AA
:1042D000302030469BB2062B98BF08250023294684
:1042E000009302F0EDFD636823F00043636006F580
:1042F00095531B6853B106F5945306F58A5218334B
:10430000906993E80600082306F088F8636806F5CC
:104310008A560593236806ACB06944F8083D2B46DD
:1043200094E8060006F07AF800950023012505932D
:104330002B46019502950497B06994E8060006F0B3
:10434000B3F8284607B0F0BD00F594532DE9F043CB
:10435000DE6A8BB0044630460F4602F003F905468C
:10436000002843D004F5AA58D8F80C305B68002B1D
:104370003CD0B96818227FF665F9BB6802A9B5F888
:104380000C901833BB60BB89183BBB810C232B708E
:10439000D8F80C00FFF7D0FE069B6B60B9F1000F58
:1043A00019D0049B204608933946059B0993BDF814
:1043B0001C304B4538BF9946AB894B4504F58A53B1
:1043C00088BFA5F80C904222DB6A009208AA4B44F1
:1043D0009BB2FFF76EFFB3682046DA882946334662
:1043E00002F067FE04F5B654002363750BB0BDE818
:1043F000F08308780128F8B50C46174618D08B686A
:104400009868A8B18D6B00260BE06B78A268D08805
:10441000584383F67BFA0C2303FB06530136F6B2AE
:1044200058622B789E42F0D30120AB70E763207076
:10443000F8BD2DE9F04FCA8A951E8FB0ADB2272D79
:1044400006460C46069200F2AB8001F10809484688
:1044500009A97FF671FC06F5AB536C226A430592FD
:10446000D3F800B01BF802700BEB0205002F40F0F0
:10447000C080E38B302B40F0BE8004F10E036178E6
:1044800030693A4607938DE80802237D02930123A1
:1044900003F044FE8246023000F0AF80A08BC008DB
:1044A00083F63AFA686428B1A08BC00883F634FA20
:1044B000286430B906F5C853DB681A8801321A80BF
:1044C0009DE0A08BC00883F627FA6865002800F0FD
:1044D000968006F5C653A5F85C70586904F015FD82
:1044E0008046002800F08B8085603A46E86406F537
:1044F000C853617830690097019793F8253002938B
:104500000B2303F00BFE61783A468DE88002237D91
:10451000306902930A2303F001FE4146002808BFD8
:10452000012028663046227DFFF7F4FB40F201238C
:10453000069A05F124006B84AB682A84E28A1A800B
:10454000A28B9A80E28BDA80226A9A60626ADA60D1
:10455000062207997FF676F8062205F12A004946D9
:104560007FF670F8237D85F83030637885F8313038
:104570000123059A0BF8023040231AF4007F6F865E
:10458000AB8685F81EA009D002231AF4807F85F837
:10459000363003D06B8C43F004036B84002700E0BB
:1045A000052706F59458D8F82C0001F0DBFF0546E6
:1045B000D0B1002118227FF6C9F8042330462B70B1
:1045C00063786B7029466368E48A6B60D8F82C3096
:1045D0006C812F819A68D28802F06BFD00280CBF95
:1045E0004FF0FF30002001E06FF01A000FB0BDE87F
:1045F000F08F042704E0032702E0012700E00227F0
:1046000030462946FFF7C5FCCBE700F5AB53F0B5C4
:104610008C1E1B686C22A4B285B002FB0434638C30
:104620005A0605462AD443F0400304F1240704F156
:104630002A066384214601F0A3FF94F83110228CEE
:104640000097019694F8303002930323286903F011
:1046500065FD638E93B1286994F8311005F5C8554E
:10466000228C95F8255094F830300DB143F080033A
:10467000029309230097019603F050FD002005B036
:10468000F0BD002110B50A460446C06804F5805408
:1046900088F6BEFB0023636310BD006802F0AFBA6A
:1046A0004369F7B5D4270446C3F82071D3F82461D1
:1046B000710522D50025FFF745FA60220321E06845
:1046C00048F28003009506F086FF63690221C3F873
:1046D00020712046C3F82461FFF7D4FC4FF47A70B0
:1046E00082F636FF20462946FFF7CCFC4FF47A705D
:1046F00003B0BDE8F04082F62BBF03B0F0BD10B5AB
:104700000446C06888F63EFE62686369092A01D0E3
:104710000D2A03D11A6842F480321A6010BDF8B530
:10472000436900F5C255044604F5C656DA6C00F537
:10473000B653DA61D5F81E300133C5F81E3082F663
:1047400085FEF060D5F82E7082F680FEB368FB1A05
:104750001B18C5F82E3000236168B360072905D106
:104760004FF08062E068134606F08EF863680B2B0A
:1047700007D14FF48022E0680621134606F084F842
:104780000CE0092B0AD104221346E068022106F04E
:104790007BF863691A6842F480521A60636904F511
:1047A0008C541A6842F004021A60E36A23F008038A
:1047B00043F00103E362012384F83830F8BD0000C0
:1047C000436810B50D2B044611D8A168C06806F0E7
:1047D0008DFA074A4FF47A7341F64C01B0FBF3F3BC
:1047E000B2FBF3F36269C2F82011C2F8243110BDA4
:1047F00080841E0010B50421044600234FF0FF32D0
:10480000C06888F64FFF0021E0684FF0FF320B468A
:10481000BDE8104088F646BF10B5044689B182B1A4
:10482000084604F011F8074B1A6801321A6004F5C3
:1048300094539A6A012301462046BDE8104002F0D5
:1048400054BD10BDD4E31D002DE9F84F8369074620
:104850004FF48750D3F83080D8F8004083F65CF8E6
:1048600007F5AB53186000284DD004F1500B4FF002
:10487000080A4FF0000907F5AB556C24D8F804106E
:10488000002604FB09F42A6851441319D960D8F8AA
:104890000810C3F808B00BF1100B514416550AF17B
:1048A000040A196107F5B65328680721174A001949
:1048B0009B6983634B4601307EF6AEFF2B688022F6
:1048C0001B1909F101091E77B9F1280F5F612B68E7
:1048D000234483F851602B68234483F850602B688D
:1048E00023445A772B68234483F836602B6823448B
:1048F00083F837602B681C44E677BCD107F5C857AE
:10490000012087F82560BDE8F88F00BF63331D00E4
:104910000069704700F58051436910B5CA6A1C6A86
:1049200022404A6302B11A6212061AD5D3F89021C6
:1049300000F58A51D3F8984102F4EE3204F4EE34D3
:10494000CA6100F58B510C600AB1C3F890210A6866
:104950000AB1C3F8982100F580535A6B22F0800207
:104960005A6300F58A5200F5805300F58B50D269E6
:104970005B6B1A43036813430CBF0020012010BD7A
:10498000436900F58050D3F89C2122F4EE32C3F83D
:104990009C21D3F8942122F4EE32C3F894215A6A70
:1049A000816A22EA01025A6200238362704700F59D
:1049B0008052D36A93624369D3F8941141F4EE3183
:1049C000C3F89411D3F89C1141F4EE31C3F89C1153
:1049D000596A926A0A435A6270470000436910B5E7
:1049E0001A68044642F440721A601A6822F00402FF
:1049F0001A6000F5C8535A690AB9134A08E0022A36
:104A000002D14FF4003203E0012A02D14FF4407288
:104A10001A611A6920460D4B134304F58052D36284
:104A2000936204F58C538022DA62FFF7CEF8084BCC
:104A3000204604F588541A6842F400321A60FFF7E1
:104A4000B6FF0123237210BD00030200C000010164
:104A50000CE31D002DE9F8430446FFF7C2F8204699
:104A6000FFF70FFEE06888F655FC002852D0636916
:104A700004F58A55284E20461A6842F004021A604E
:104A8000FFF7ACFFD6F85C906869C847D6F8088095
:104A90006869C047B76D6869B84776686869B047A4
:104AA000A869C847A869C047A869B847A869B047B6
:104AB0006369204604F5C255D3F8A42104F5C6560F
:104AC00042F01002C3F8A42104F58C531122DA62DB
:104AD000FFF77BF804F5B75301221A7063691A686F
:104AE00042F004021A60D5F826300133C5F82630AA
:104AF000B36853B1D5F82E7082F6A8FCB368FF1ADC
:104B000000233F18C5F82E70B36082F69FFC04F5B1
:104B1000C6542061BDE8F8834C6A1D00FFF7FABE59
:104B200000F5C45310B5D3F82A400134032AC3F862
:104B30002A4003D14369C3F8481110BD042A04BFB9
:104B40004369C3F84C1110BD70B500F59455244A63
:104B50000446A96BFFF74DFC696B224A06462046C6
:104B6000FFF747FCD6F1010638BF0026E96A0022AC
:104B7000002808BF46F001062046FFF73AFC696AA4
:104B80000022002808BF46F001062046FFF731FC4E
:104B9000A96A0022002808BF46F001062046FFF758
:104BA00028FC95F83D30002814BF304646F001003F
:104BB000ABB9A26904F59556516B002914BF19468B
:104BC0000021316031B1D16B926BAA6104F58A5238
:104BD000E961D36204F59454012384F83D3070BD3B
:104BE000355A1800D3791800FFF7AEBB2DE9F04F06
:104BF0009A468DB09DF85870002304460D4616461F
:104C00000A9302E0EA5C12B10133B342FAD1EA5CE2
:104C1000002A40F0408203F101084FB10533B3424E
:104C200000F236820AA805EB080104227EF60AFD8E
:104C300005F1040B58468F497EF614FE814650B9A3
:104C40004FB10A9B662B00D1FEE7632B40F0268212
:104C5000FDF7E6FDBBE0584687497EF603FE0028D7
:104C600000F0F681584685497EF6FCFD002800F0EC
:104C7000F281584682497EF6F5FD002800F0EE816B
:104C8000584680497EF6EEFD40B904F58C5117B1C7
:104C90000A9B4B6134E02846143120E058467A499B
:104CA0007EF6E0FD814618B92046FFF71DFAD7E1F0
:104CB000584676497EF6D6FDA8B94FB10A9B022B1D
:104CC00001D902230A9363690A9AC3F8A021DAE1A1
:104CD0006369D3F8A0310CA9284641F8083D0422A5
:104CE0007EF6B0FCDFE1584669497EF6BBFD48B967
:104CF000002F00F0D3810A9920460222FFF77EF9A7
:104D00000746D0E1584663497EF6ACFD30B9002F26
:104D100000F0C48120460A990122EFE758465E4917
:104D20007EF6A0FD30B9002F00F0B88120460A9928
:104D30000022E3E7584659497EF694FD60B9002603
:104D40006C2000FB0640013600F59650FFF724F872
:104D5000052E0A90F4D156E0584651497EF682FD60
:104D6000814618B92046FEF75DFF62E058464D497E
:104D70007EF678FD60B904F5B65437B10A9B00336E
:104D800018BF012384F82430BAE794F82430A2E74E
:104D9000584645497EF666FD60B904F5B65437B10C
:104DA0000A9B003318BF012384F82330A8E794F846
:104DB000233090E758463D497EF654FD814640B980
:104DC0000A98D0F1010038BF002082F66DFA4F46F4
:104DD00069E1584636497EF645FD002890D0584690
:104DE00034497EF63FFD88B906460A9004F5AB5378
:104DF0001B6898199B5D13B1FFF737FA0A906C3660
:104E0000B6F5875FF2D128460AA939E158462A4902
:104E10007EF628FD814618B92046FFF72EFA08E0F5
:104E2000584626497EF61EFD814650B92046FEF7BB
:104E3000B5FF0CA9042241F8080D28467EF602FCB5
:104E4000C5E758461E497EF60DFD00283AD1002FD1
:104E500000F0248104F5B65494F82C70002F40F033
:104E600012810122A06A84F82C200A9982F6FEF8A9
:104E700019E100BF6A331D0075331D0083331D0027
:104E80008F331D009A331D00A9331D00B3331D005D
:104E9000BD331D00CC331D00D9331D00E7331D0089
:104EA000F0331D00FF331D0014341D0029341D0094
:104EB0003B341D004C341D0058341D0066341D0069
:104EC00071341D0058467A497EF6CCFC70B904F561
:104ED000B65494F82C30012B4FF000097FF477AFD3
:104EE00084F82C90A06AFDF709FF70E758467149D5
:104EF0007EF6B8FC8146002859D1002F3DD004F53C
:104F0000C25505F11E064946304668227EF61EFC53
:104F100004F5C650494608300C227EF617FCD5F839
:104F20002E00D5F81E80D5F82270D5F82660D5F869
:104F30002A9008B982F68AFA04F5C45401904146D1
:104F4000CDF800903A46D5F832300293D5F8363095
:104F50000393D4F826300493D4F82A300593D4F878
:104F60002E300693D4F832300793D4F822300893C9
:104F7000334651487EF610FC85E008F102039E425C
:104F8000C0F083806B2E40F2838002220DF12E0050
:104F900005EB08017EF656FBBDF82E30062B7AD1C4
:104FA00020462946FFF7DDF8CAF800007BE05846A6
:104FB00042497EF657FC78B904F58C5327B10A9A1A
:104FC000814683F832204CE093F832302B70012375
:104FD000B946CAF800304DE0584639497EF642FCE1
:104FE00078B904F5C6511FB10A9B81F83D3087E6B8
:104FF00028463D3101227EF625FB0123CAF8003008
:1050000051E058462F497EF62DFC40B904F5C854AE
:105010001FB1BDF82830638472E6638C5BE65846A6
:1050200029497EF61FFC002838D167B104F5C65324
:1050300003F11C02DB69934233D104F5C8540A9B87
:1050400084F825305CE604F5C85494F8253042E62F
:105050004FF0050904E04FF0060901E04FF00709A1
:1050600047B109F5886909F102090A9B04EB890433
:10507000636008E004EB890909F5885128460C3182
:1050800004227EF6DFFA00270DE04FF0FF370AE03A
:105090006FF00D0707E06FF0010704E06FF01607EF
:1050A00001E06FF00F0738460DB0BDE8F08F00BF8C
:1050B0007D341D0088341D0091341D0049351D00CC
:1050C00054351D005B351D0065351D0000F59453FA
:1050D0002DE9F0438E8991F81390DF6A083E8B68C2
:1050E0008DB0B6B208338E8104468B6000F5AA53AA
:1050F0000D4604A99868FFF71FF8014680B1069B8A
:10510000BDF8242096420A93079B0B93DDF820807C
:1051100014D9314616487EF63FFBBDF824600DE0F9
:10512000204607224FF0FF33FEF792FEA068294683
:10513000012282F63DFC4FF0FF3015E004F58A5362
:1051400000222946DB6A204600920192F318412290
:105150009BB202920AAA01F0C3FE204641463246A3
:105160004B460097FEF795FE0DB0BDE8F08300BFFB
:1051700071351D00F8B500F58C5393F831300446B5
:10518000002B33D000F58E531B7A002B2ED0184EF7
:1051900000F58A55376D6869B84738BBD6F8A46002
:1051A0006869B04710BBA869B847F8B9A869B047A3
:1051B000E0B904F59455A96A8B6B5B6913B120467D
:1051C00001F0BEFF696A8B6B5B6913B1204602F088
:1051D000DAF920460121FEF733FF04F58E53002251
:1051E00004F58C541A72012384F83930F8BD00BFDD
:1051F0004C6A1D0070B50446002082F655F8204622
:105200000021FEF721FD04F58C55012304F58E5293
:1052100085F8313004F5B8561372337A23B17068CB
:10522000FDF76CFD00233372EB6A204643F0080360
:1052300023F00103EB62FEF7C8FC2046BDE8704096
:10524000FFF798BF38B500F58D5304461B6853B37C
:105250001D6845B300221A60EB0701D5FFF7CAFFAE
:10526000002D01DA82F6AAFA04F5C8535A69D2B9B8
:1052700004F58052526B910304D502225A614FF417
:10528000003206E012F4407F04D001225A614FF44C
:1052900040721A6104F5C85304F580541A69024B30
:1052A0001343E362A36238BDC00001010A4600F562
:1052B0008C5393F83010FF2902D0C06887F69EBE49
:1052C0001046FDF7E5BE4369042270B5C3F82021FE
:1052D0000446D3F82421510738D594220025C3F879
:1052E000202104F58C56C3F82451FEF77DFD20469D
:1052F000FEF79AFC86F83950012081F6D5FF86F832
:105300003150756320462946FFF7D0FF04F5B753A7
:105310001A7882B11D702046FFF7C2F92046FFF7C8
:10532000EEF996F82810A1F102025142204641EB15
:105330000201FEF789FC204601F089FD204602F0BB
:1053400060FA204601F05BFC002070BD4FF0FF309A
:1053500070BDF8B5436904461A6891077DD55A684F
:10536000D2057AD54268062A06D94FF42862C3F8D6
:1053700020210322C3F8242104F58C53002283F852
:10538000382004F5B7531B789BB12046FEF7B6FCD6
:105390002046FFF7B4F92046FEF7D4FB2046FEF77F
:1053A00043FC2046FFF70CFA4FF47A7082F6D0F8EF
:1053B0002CE062680B2A06D1E06806214FF48022B7
:1053C00005F062FA0BE0092A09D10422E068022103
:1053D00005F05AFA63691A6822F480521A6004F5DB
:1053E000C25504F5C656D5F82230D5F832700133CF
:1053F000C5F8223082F62AF8F368FF1A00233F1816
:10540000C5F83270F36082F621F8B0606168072950
:1054100005D1E0684FF08062002305F035FA04F50D
:105420008C562046F36A23F00103F362FFF74BFF2B
:1054300070B104F58E552A782AB9F06B696881F647
:1054400015FE01232B7004F58C53012283F83920BB
:1054500063691A6822F004021A60F8BDF8B543695E
:1054600004461A68920757D500F5B7521278002AF9
:1054700052D000F5B652D16911B1D9640023D3617D
:1054800063680B2B07D1E06806214FF480220023CC
:1054900005F0FAF90CE0092B0AD104220023E06898
:1054A000022105F0F1F963691A6822F480521A604A
:1054B000636904F5C25520461A6822F004021A6096
:1054C000FFF747FF2046FEF780FBD5F82A30D5F8D6
:1054D000366004F5C6540133C5F82A3081F6B6FFAC
:1054E0002369F61A3618C5F836600026266181F65B
:1054F000ADFFA060D5F82230D5F832700133C5F881
:10550000223081F6A3FFE368FF1A3F18C5F8327016
:10551000E66081F69BFFA060F8BD426938B5D2F81D
:10552000A4310446D2F8A4111943C2F8A41100F51D
:105530008C52D56A1D4028D02A0701D5FFF7EFF815
:10554000EB0706D504F5B7531B7813B92046FFF7D0
:1055500000FF280607D504F58C53DA6A22F0800292
:1055600042F01002DA62E9060AD504F58C532046AF
:10557000DA6A42F0800222F01002DA62FFF76EFF70
:105580002046BDE83840FEF720BB38BDF8B500F531
:10559000805504466B6B002B46D000F5C85212694B
:1055A000134201D0FFF74EFE6B6BD9031ED504F5F5
:1055B000C45304F58C57D3F826200132C3F82620B3
:1055C00097F839307BB12046FFF77DFE064638B9A3
:1055D00004F58E552B781BB1F86BFDF78FFB2E7001
:1055E0002046FEF7F2FA204601F009FB04F580534D
:1055F0005B6B5A060ED504F58C5393F8382032B9FC
:1056000093F83130012B02D12046FFF788F820466D
:10561000FFF720FA04F580556B6BDB0102D52046BD
:10562000FFF77BFF00236B6304F58A55EB6933B109
:10563000D80302D5204602F003FB0023EB6104F5FA
:105640008B552B6843B1D90305D5204602F0CAFA21
:1056500000232B6000E0FEE704F58C5393F8313013
:1056600033B104F58E531B7A13B12046FFF782FD48
:1056700004F58A5204F5805304F58B54D2695B6BB0
:105680001A43236813430CBF00200120F8BD10B556
:1056900004682046FFF717FE04F58E5340B104F569
:1056A0008C5459680022E06BBDE8104081F6DEBCE6
:1056B000187010BD074B186858B100F58C5393F85B
:1056C000313013B10121FFF7F1BD4FF08051FEF7EA
:1056D000B7BC7047D0E31D0000F5AA5238B5D268B8
:1056E00000F5945304465268DB6A002A2BD09A6B6B
:1056F0009278012A27D900F58C52516812680D68FA
:1057000010689A6891881A691B8B12689A4288BF40
:105710005B189A1A013992B28A1A92B2012A12D9E6
:10572000052D10D908280ED920460021FEF768FB68
:1057300004F58A5204F5C8532069516B5A68BDE8D4
:10574000384002F003BD38BD00F5AA532DE9F047FB
:10575000CF89B1F81090DB680D460446596809B945
:10576000092209E000F5C258D8F81830DA89273A3A
:10577000BA4206DC002103226B68BDE8F047FEF761
:1057800067BB184603F0B2F8064618B92046314602
:105790000222F1E704F5C852D8F81830DB89283B1B
:1057A00051689BB219B9994584BF99462B8204F57B
:1057B000AA52D2685268928A29B104F5C851896800
:1057C0008A4228BF0A46914588BF2A8204F58A5238
:1057D000516B09B12046CDE7283356632946B38182
:1057E0002822B0687DF62EFF04F58C5201239377B2
:1057F0003FB904F5B65220465375BDE8F047FFF7B0
:105800006BBFB36804F5AA522833D069EA694260D5
:10581000AA69C360044B0260078103614461BDE86B
:10582000F047FDF765BC00BF6758180038B500F5B4
:105830008C539A7F04460AB100229A7704F58A5560
:10584000696B19B1A068002282F6B2F804F5B6536C
:1058500004F5AA5400210A4669635975A069BDE898
:10586000384081F603BC38B544690D461C2204F566
:10587000AA530021D8697DF669FF55B104F5C853D4
:105880002046DB68DA880132DA80BDE83840FFF76D
:10589000CDBF04F58A535B6B43B104F5B6530122C7
:1058A00020465A75BDE83840FFF716BF38BD2DE9D0
:1058B000F84300F5AB5391468A1E1B6807466C21DE
:1058C00092B24A439C18002507F594589D54E16C08
:1058D000FEF727FBD8F82C0000F044FE064610B374
:1058E000182229467DF632FF06233846337094F895
:1058F000313073702146A36C7360238CA6F8089036
:105900007381FEF76EFBD8F82C30384631469A6822
:10591000D28801F0CEFB50B1638C23F010032846EF
:105920006384BDE8F8836FF01A00BDE8F8834FF098
:10593000FF30BDE8F88330B50A4609898C1EA4B251
:10594000272C01D9052208E000F5AB536C256C43E8
:105950001D682B192C5D24B90122BDE83040FFF7EA
:10596000A6BF52689A64DC681A6924681268944277
:1059700001D10022F1E75A8C42F010025A84BDE8AE
:105980003040FEF742BE2DE9F84300F5945700F58C
:10599000AB530646F86A894690461C6800F0E2FD63
:1059A000054608B3A9F102096C231FFA89F9002101
:1059B00003FB094418227DF6C9FE082330462B70EC
:1059C00094F831306B702946A36C6B60238C6B812B
:1059D000FB6AA5F808809A68D28801F06AFB18B1C2
:1059E000638C23F020036384BDE8F88330B50A4656
:1059F00009898C1EA4B2272C01D905220EE000F5DE
:105A0000AB536C2552681B6805FB04339A64DC6851
:105A10001A6924681268944204D10022BDE830401B
:105A2000FFF7B1BF5A8C42F020025A84BDE83040E3
:105A3000FEF7EBBDF8B500F59453164604469B6B94
:105A40000D469B689F7992FBF7F207FB1263002BD0
:105A500061D100F58C539B7F012B02D10B78092B70
:105A600059D004F5C453D3F82E105218C3F82E2081
:105A70004EE02B78033B0A2B3CD8DFE803F02C3BAD
:105A8000313B363B063B103B1D0004F58C539B7F9E
:105A9000012B3AD020462946FFF756FE35E004F5A3
:105AA000AA5320462946DA68FEF785F800282CD04C
:105AB000204600210A220AE004F5AA53204629467E
:105AC0009A68FEF778F800B3204600210B220B46B7
:105AD000FEF706FA19E020462946FEF7AAFC14E074
:105AE00020462946FFF727FF0FE020462946FFF70B
:105AF0007DFF0AE00021204603220B46FEF7F0F965
:105B00000748294608227EF6ADFAF61BED19B6B213
:105B1000002EAED101E04FF6FF763046F8BD00BF53
:105B200094351D00704710B504468068FFF72EFDC0
:105B300038B1002104F11C000A46BDE8104081F68E
:105B400095BAA068BDE81040FEF731BF10B5846972
:105B5000A068FEF7DFFE38B1A068FEF711FF20460F
:105B6000BDE81040FFF7DFBF10BD0000F0B50239FF
:105B700085B01E460023012915460A9C87690393B8
:105B800012D80D487DF696FE0B49024628467DF652
:105B900099FE48B99DF830300093B86829463246DE
:105BA00003ABFFF723F801E04FF0FF300CB1039B8C
:105BB000236005B0F0BD00BFA4351D008969034610
:105BC0008869194602F012BA10B54468A068FEF759
:105BD000A5FF2046BDE81040FFF7A5BF1346826928
:105BE00010B590684A1E0C46152A3ED8DFE802F030
:105BF0000B0B3D3D3D14143D1F1F3D3D323D3D3DD2
:105C00003D3D3D2929389978A4F101035A4242EBE0
:105C1000030202F075F828E0A4F1060C9978DCF193
:105C2000000242EB0C02073302F0CFF81DE0A4F1B2
:105C3000090E1979DEF1000242EB0E0202F085F83E
:105C400013E0D978A4F114035A4242EB030202F0A4
:105C50009CF80AE09978DA789B7902F0E1F804E0A0
:105C60009978DA781B6902F07DF9002010BD0A46A8
:105C7000816903468869194680F6B2BA0A46816985
:105C800003468869194680F6FBB900F5885300F58C
:105C9000C8509B6B9A89436B486E8A66834207D9CA
:105CA000181A4243B2FBF3F38B660BB901238B66E0
:105CB000704700F5C8504A6E436B934209D99A1A4F
:105CC000888E4243B2FBF3F39BB28B860BB904235D
:105CD0008B86704730B54B8C13F040050DD08B6B25
:105CE0005878CB681A684B8B9A423CBF8A68928876
:105CF000D31A834238BF184630BD00F588539B6BDA
:105D00001B89002B2FD08C6E4A8EA2422DD2A21A54
:105D10004C6E95B200F5C852526BA24206D9141BC4
:105D20006343B3FBF2F3002B08BF0123AB4228BF50
:105D30002B4600F5C250828B934218D99B1A8C8E49
:105D4000A34234BF184620464A8BCB681C68944255
:105D50002FBFC2EB04028B689B88C2EB0302904208
:105D600028BF104630BD184630BD284630BD002043
:105D700030BD0022134610B5841804F5AA5494F8D7
:105D80002C4019464CB9242202FB0303012203F5DF
:105D9000AA53084683F82C2004E0013324320A2B4E
:105DA000EAD1FF2040B210BD2423002203FB0103EF
:105DB00003F5AA5383F82C2070470369428B1B68B4
:105DC0009A4205D3994208D3914206D24183704743
:105DD000914201D3994200D341837047836BDA68C3
:105DE0005868824208D00AB99A6800E05268916007
:105DF000DA609A7801329A70704700F5945030B5A5
:105E0000436B9B6B9B699D78587885421C788ABF51
:105E1000C5EB0405C5EB00052D18651B012D08DD3C
:105E200003EBC0050130A042A8BF002069602A72C0
:105E3000587030BD00F5C8531A7E436922B1D3F8BB
:105E4000E02142F0020203E0D3F8E02122F0020256
:105E5000C3F8E021704730B54589158042680A6073
:105E6000C2695A6042F0004281695A60049A19601E
:105E70000389039C13801BB143696360036923603A
:105E800030BD00F58050838CC08C834296BFC0F536
:105E90008070C0EB0300C018704700F5AA5003697A
:105EA0001A6812B95960196002E05A689161596024
:105EB0009A6801329A6000238B61704700F5AA50FE
:105EC0000369186870B15A6890429A6802F1FF320B
:105ED0009A6003D100225A601A60704782691A6082
:105EE0000023836170470346F0B5C0680688588B6D
:105EF00086429C6828BFC0EB0600A58838BFC0EB6F
:105F0000050080B20880E0B19E6B3AB1E788B2FB31
:105F1000F7F27678B24228BF324600E072789042BB
:105F200028BF104608805E8BE288A0680C88341970
:105F3000AC42A8BF002402FB06005C830B885A43D6
:105F40000A80F0BD70B18268D388B1FBF3F149B12A
:105F50000369188841189288914202DB00221A6076
:105F600070471960704770B50B8B0D698C68E088BD
:105F7000B2FBF0F22E689E4202D9DD43AD1904E077
:105F8000A58806B103B9013DED1AADB2954209D31A
:105F9000A56800FB03509B18A2889342A8BF00236A
:105FA0000B8370BD002070BD00F5945310B55B6A83
:105FB0009A6B9278D2B11A69198B4C1C1268A24262
:105FC00012D022B99B689B88013B99420ED000F504
:105FD0008C5043681B68042B0AD90368186806288C
:105FE00094BF0020012010BD002010BD104610BD40
:105FF000002010BD30B500F58054A38C5D1C03F566
:106000008273EDB200EBC300A58483680B608379D3
:106010001370808830BDF0B59589B2F85470DDF802
:1060200018C0059E079CACF800701FB1D76C776054
:10603000976C3760D68916F4005F0DD0B2F85060C7
:1060400056B1C5F1880601F595512680166C546C41
:10605000751B0E68A91B06E001F595510988218082
:10606000116C546C8839956B1D60D38923F40053EF
:1060700080E81200D381F0BD10B50346A8B1826854
:10608000D088B1FBF0F181B158699288DB681C8837
:106090006118914202DB00221A6000E01960034996
:1060A0000322BDE81040FEF73BBD10BD7856341208
:1060B000F8B517469A681278432A04460E46069D9C
:1060C00023D0462A1BD00E2A36D100F59453DB6A22
:1060D0009B6B9878002842D004F5AA5304F5C65467
:1060E0009B68586818B9012384F83C30F8BD002338
:1060F000052084F83C301A4B2B60042325E0FFF781
:1061000053FF00282BD0174B12E000F59454A36ADC
:106110001A6910681A8B511C88421DD020B99968E1
:10612000898801398A421AD09B6B9878B8B10E4B96
:106130002B600720052308E080681946012281F6BC
:1061400037FC002301202B60F8BD9E4206D3874216
:1061500034BF00200120F8BD0020F8BD0020F8BDAC
:10616000CD501800CB7618006F7318002DE9FF4151
:1061700000F58C5393F831300646002B7ED100F5A4
:10618000AA5393F82830002B78D100F5C6529846D0
:10619000D56900F5C85253635CE00023AF682B76E5
:1061A0003FE0BC6800236366E3681A68638B9A4229
:1061B00003D314BF0022012205E0A2689288D31AFB
:1061C0005A4242EB0302638CE2B123F002031B0448
:1061D0001B0C13F40072638422D143F4007394F80F
:1061E0003110638404F12A030092019394F8303053
:1061F00002930A23306901F091FF002808BF0120B3
:1062000020660DE023F4007343F0020306F5C85244
:10621000638401232B76236E516B59185163636697
:106220003F6805F108039F42BBD1B8F1000F0BD1C5
:10623000EB8A3F2B0AD82A7E42B102339BB2412B14
:10624000EB8203D1402300E00423EB822B7E2D68F8
:1062500048EA030806F5C6531C339D429DD1B8F1A8
:10626000000F0BD006F5AA5696F8281031B9706ABF
:106270000A4680F6FBFE012386F82830BDE8FF8140
:106280002DE9F843B1F81A80571E8B689E8808EBF9
:10629000070393FBF6F90C4606FB1939486D1546C2
:1062A0001FFA89F949467EF6BBF9A8B1A26D32F80A
:1062B0001930590410D5012D0DD0A91E884498FB22
:1062C000F6F106FB11881FFA88F832F818209A4276
:1062D00002D0BDB200E000252846BDE8F8832DE9D4
:1062E000F0410446618B406C7EF69AF9002850D04C
:1062F000E368678B1B68BB4202D3C7EB030805E06A
:10630000A268B2F80480C7EB080898441FFA88F81E
:1063100000263BE0F519A3689B8895FBF3F1206C00
:1063200003FB11517EF67CF990B1A3689B8895FB25
:10633000F3F1606C03FB11517EF672F940B9A3686A
:106340009B8895FBF3F203FB12556583BDE8F08152
:10635000A3689B8895FBF3F1206C03FB11517EF63B
