:1000000080F140B882F14CBD82F158BD82F164BDEF
:1000100082F173BD82F182BD82F191BD82F1A0BDFA
:1000200080F140B882F14CBD82F158BD82F164BDCF
:1000300082F173BD82F182BD82F191BD82F1A0BDDA
:10004000FAFAFAFAFAFAFAFAFAFAFAFAFAFAFAFA10
:10005000FAFAFAFAFAFAFAFAFAFAFAFAFAFAFAFA00
:10006000FAFAFAFAFAFAFAFAFAFAFAFAFAFAFAFAF0
:10007000FAFAFAFA4442505014201E000000180008
:1000800000000000DFF844804FF00009B8E8FF00EE
:10009000A9E8FF00EFF300804FF01F0120EA010004
:1000A0004FF0D10140EA010080F30089DFF820D051
:1000B000EFF300804FF01F0120EA01004FF0DF0155
:1000C00040EA010080F30089024800472000180040
:1000D00090121E008D2C180000000000000000008F
:1000E0000000000000000000000000000000000010
:1000F0000000000000000000000000000000000000
:1001000000000000000000000000000000000000EF
:1001100000000000000000000000000000000000DF
:100980005137180057E51A00B3E51A004DDF1A0079
:10099000C5DC1A0011DC1A0059DD1A00CFDA1A0082
:1009A000ABDB1A002DE61A0033E61A0091DA1A00C2
:1009B000ABDA1A00F9DF1A00B9DA1A00F9E41A0002
:1009C000A5DA1A0091E31A00F92B1800F52B18008C
:1009D000F12B1800E92B1800513718001D2C1800B6
:1009E0005137180015AA1800F3A8180015A9180007
:1009F000F9A8180011A9180019A9180051371800F2
:100A0000B1A9180075A91800C5A9180031A91800C6
:100A1000EDA91800ED851800A588180051371800B9
:100A2000E7A31800239F18003FA41800A5A01800F2
:100A300051A4180077A7180015AC1E0079A518005E
:100A4000FB9F180067A01800E3A71800E5A718008F
:100A500013A4180013AC1E005137180051371800AA
:100A6000FFCF180055CA1800EFCF180079961C0068
:100A70005137180051371800513718006F8D1A0080
:100A800051371800738D1A0051371800513718006C
:100A900051371800513718005137180051371800D6
:100AA00051371800513718005137180051371800C6
:100AB000513718005137180051371800FF3F1B00FD
:100AC00051371800513718005137180051371800A6
:100AD0005137180051371800513718000D091B0005
:100AE0001B0B1B00A3F41A00CBF21A00B3F21A007E
:100AF00055F41A00F9F41A00ADF21A0051FD1A006B
:100B0000A7FB1A00F30D1B00BB0D1B00513718008B
:100B1000810D1B005137180051371800B73F1B00DB
:100B2000D9671B005D681B0023671B0043611B0026
:100B300073731B0045731B000D621B0027621B00B3
:100B40000F681B00736D1B0067661B0009671B00A5
:100B5000D7671B0073681B0071611B00AB651B002E
:100B600079621B0065661B001B681B004D621B0041
:100B700029661B00513718005137180051371800EB
:100B800051371800CDE31C00F7DB1C003DCF1C00E3
:100B90009DF41C00E3DA1C00C3D91C00A5D31C0083
:100BA00045E51C008BE51C007FE51C007BCF1C008D
:100BB00087EB1C0079E21C005137180051371800F0
:100BC00005D51C00ADD41C0003D41C00BDD31C00F3
:100BD000B7D31C0047EF1C00513718003D001D0023
:100BE00067D31C009FE91C00D5E81C005FD01C00E7
:100BF00071E81C005137180055001D004F001D0002
:100C00005137180007D31C0067CF1C0071CF1C00A0
:100C100013EA1C0065CF1C0073DB1C0071DB1C0099
:100C2000ADE21C00E1E11C005137180079E81C001E
:100C30008DFB1C006FFB1C007BFB1C0031D31C00D8
:100C400043DE1C0071E11C00A5E01C00BDD91C00A6
:100C5000513718005FCF1C005137180095E11C0078
:100C6000513718002D001D00C3D31C0057E81C008D
:100C70004BE81C0069D31C007DE81C0051371800AC
:100C800051371800513718005137180039F01C003F
:100C90004DD51C003DDA1C005FD91C0035D91C0065
:100CA000513718005137180093D91C00BFD81C00C9
:100CB00075D51C0087D91C0003ED1C0051371800A6
:100CC0005137180051371800AF0A1B00FD0A1B00EE
:100CD000450A1B00910A1B00574E1D000F4F1D00B7
:100CE000E34E1D001D501D0029531D00EF521D0035
:100CF0009F4E1D00F54D1D00034F1D00B34E1D00FE
:100D0000154E1D001B4E1D0051371800513718009D
:100D10005D791D00A3801D00E5761D005137180088
:100D200051371800BF7B1D00EF7B1D00157D1D0096
:100D300063791D005137180099781D00513718004C
:100D4000513718007D811D00358D1A00778B1D00ED
:100D50008B8F1D00638E1D002F8F1D00E58E1D00E3
:100D6000978F1D00298F1D00FB8B1D00538E1D00CA
:100D70004F5F1B00A55E1B00455A1B00FD091B00B1
:100D800051371800914018006D8C1800798C1800AC
:100D9000A58F180009DC1800A51D190045F91800D9
:100DA000E52F18002D311800653218005D3C180041
:100DB000B53C18005137180051371800513718004A
:100DC00051371800513718005137180051371800A3
:100DD00051371800513718007783180045851800DF
:100DE000FB571E00B3591E00A58C18005137180080
:100DF000BB8E1800BF8F1800C58F18008590180093
:100E00005137180051AA1800EDAC18003DAE18007B
:100E100011D01800C1D0180011D8180089D81800B6
:100E200051371800C1D81800CDD81800DFD81800E5
:100E3000C9D8180055DB1800513718000FDC18000E
:100E40003BDC1800C5DC18001FDD180035DD18007C
:100E50004FDD180065DD180049DE1800C9DE1800F6
:100E600035DF18006FDD180075E1180065DF180028
:100E70001BDD180069F118009DF1180089F21800B7
:100E8000F5F6180061F91800C1FA1800CDFA18003B
:100E9000D5FA1800E9FA18001BFB18003DFB1800F2
:100EA00019FC1800CD0D1900310E1900AD151900EF
:100EB000AD191900513718005D2D1900E12D1900E9
:100EC00051391900EF3A1900CD3C190019481900A1
:100ED00031481900A34A1900C14A1900CF4A190024
:100EE000C94B1900234C19003F4C19008D5C1900A7
:100EF00085601900757D1900837F1900F58119003F
:100F000045861900918A1900098D1900699E1900FA
:100F1000D1A41900C5AC1900ADB3190075BC1900F6
:100F20005137180051371800513718005137180041
:100F300051371800B11D1A00754C1A004D4C1A009B
:100F4000414F1A005137180091581A00115A1A00CF
:100F50004D621A00797A1A001D741A007F741A0003
:100F6000798D1A0051941A0071941A001D951A0077
:100F70005137180051371800759F1A00B3BE1A0078
:100F8000E1E71A0047EF1A005FEF1A0065EF1A0059
:100F900071EF1A0079EF1A0035F01A0049F01A00C3
:100FA00079F01A00A1F01A00DBF01A0045101B00BE
:100FB00003091D0007091D001D091D0065091D000D
:100FC00089091D00C9091D001D0A1D00FD0A1D001B
:100FD000C1431D000B6D1D00010101000000000850
:100FE000200000000002000004000000FF030000D9
:100FF0005000000001000000010000000A07080185
:1010000000000000080000000004000001040000CF
:1010100004000400080001000000000000000000BF
:1010200000000000000000000000000000000000C0
:1010300000000000000000000000000000000000B0
:1010400000000000000000000000000000000000A0
:101050000000000000000000000000000000000090
:1018000088F102B90000000088F19BB800000000D8
:1018100087F1DEBF0000000087F127BF0000000055
:101820006FF146BB000000006DF17ABF00000000C0
:1018300060F13EBA0000000060F15FB900000000F6
:1018400082F13BBA0000000082F18EBA0000000075
:1018500081F1AABE0000000081F104BE000000007A
:1018600081F17EBF0000000081F14DBB000000004F
:101870007BF182B9000000007BF1FCBA000000009F
:1018800070F140BB0000000084F1B8BD0000000012
:101890006FF1C8BB000000007CF1C5BB0000000078
:1018A0007AF132BC000000007AF1F1BD00000000C6
:1018B0007AF107BE000000007AF15CBD0000000074
:1018C0007DF17BBA000000007EF106B80000000048
:1018D0007CF194BB0000000075F14EBD00000000DB
:1018E00075F112BE0000000075F1B0BB00000000F1
:1018F0007FF18FBB0000000077F11ABA00000000F2
:101900007DF181BA000000007CF1BDBF0000000045
:1019100071F133BC000000007CF11CBD0000000030
:101920007AF102BF0000000070F1D0BB000000009F
:101930006EF1DCBE000000006EF190BF0000000000
:101940006EF11FBD000000006EF11EBC0000000023
:101950006EF1F5BB000000006EF108BC0000000055
:1019600076F183B90000000079F1F0BE00000000BC
:101970006DF138BC000000006DF1B6B80000000049
:101980006CF1B8BE000000006EF1DABD000000008E
:101990006EF154BA000000006EF1CAB900000000F8
:1019A0006EF15ABA000000006DF126BF0000000081
:1019B0006EF192B8000000006DF1EEBD0000000075
:1019C0006DF159BB000000006AF10CBA0000000084
:1019D0006DF1F0BD000000006DF114BA00000000D0
:1019E0006AF1E4B8000000006DF1F8BF00000000EB
:1019F0006CF1D8BF000000006DF13CB800000000A1
:101A00006CF1CDBC000000005AF180BB000000006A
:101A10006BF184BD000000006BF196B8000000007F
:101A20006AF1A8BE000000006AF1CEBD000000000F
:101A30006AF154BB000000006AF11ABD000000000A
:101A40006CF102BC000000006CF1B6BE00000000AA
:101A50006BF1E4BC000000006BF18BBC00000000E7
:101A60006AF14CBB000000006AF1F0BA000000000F
:101A70006AF1F1B90000000068F1E6BF0000000063
:101A800067F1B8BD0000000075F19DBA00000000CC
:101A900065F1F0BA0000000065F1E8BC000000004C
:101AA00065F1A2BB0000000064F18FBE00000000E1
:101AB00064F1ABB80000000063F114BC000000004A
:101AC00063F150BA0000000062F143BF0000000063
:101AD00062F14EBD0000000070F140B9000000004E
:101AE00063F1CEBF0000000063F172BF0000000090
:101AF00063F148BC0000000063F1A6BC00000000D8
:101B000063F1C5BB0000000062F1F4BF00000000FB
:101B100062F1DABD0000000062F1E8BF00000000E1
:101B200062F10CBE0000000062F10ABE000000007D
:101B300062F146BC0000000062F156B800000000EF
:101B400066F196B90000000061F18EBA0000000055
:101B50005DF196BD000000005DF14BBD000000008E
:101B60005DF1B2B8000000005EF170B80000000046
:101B70005CF168BD000000005DF1A8BF000000003E
:101B80005CF1ADBB000000005DF156BE000000003E
:101B90005DF101BC0000000075F194BD0000000083
:101BA00072F1BEB9000000005DF1E0BE000000006F
:101BB00062F124BA000000005CF1D5BC0000000016
:101BC0005CF17BBC000000006EF16CB8000000000E
:101BD0005CF152BD000000005CF144BD000000005B
:101BE0006BF1D1BB000000006BF1D5BB0000000021
:101BF0005AF1C4BD000000006CF104BA00000000FE
:101C000071F1D0BF000000006CF1BAB90000000013
:101C10006BF144B90000000069F1D6BE000000007D
:101C200067F18CBF0000000068F1D8BA0000000026
:101C30006BF17CBA0000000059F19EBC000000006E
:101C40005AF1D1BA000000005BF1C2B900000000F7
:101C500059F15ABF0000000058F1F0BD000000002B
:101C600058F1BBBA0000000057F120BF000000008F
:101C700057F1DDBE0000000058F1A5BA00000000D9
:101C800057F17CBF0000000057F1FDBE00000000CE
:101C900057F1EABD0000000057F182BE00000000CD
:101CA00057F16FBE0000000057F1AFBC000000000C
:101CB00057F1FABA0000000057F15ABA00000000CC
:101CC00059F16ABF0000000059F17ABF000000001E
:101CD00067F104BD0000000070F11FBF00000000AC
:101CE00070F1D8BE0000000067F170BA000000007B
:101CF00066F1C9BA000000006BF19AB9000000005B
:101D000069F12CBA0000000066F11AB90000000069
:101D10006EF11CBA000000006DF1E2BF000000008F
:101D20006FF1BCBA000000005BF1EFBC00000000E6
:101D30005CF18ABE000000006DF138B900000000BF
:101D40006DF11ABC000000006DF15CBB00000000EA
:101D50005BF166BE000000005DF172B9000000009A
:101D60006AF130BE000000005CF113BE000000000C
:101D700067F157BF0000000065F13EB800000000A9
:101D800065F13BB80000000067F1B4BA0000000044
:101D90006AF16CB9000000006AF1B2BE00000000F8
:101DA00069F1A9BB0000000069F113BC000000004C
:101DB00069F136BA000000006DF1B0BD000000000E
:101DC00069F104BA0000000069F13EB900000000AA
:101DD00068F14CBF0000000068F128BC0000000062
:101DE00068F1F6BF000000006CF1B0BA000000001E
:101DF0006CF167B8000000006BF1C2BE000000008B
:101E000069F179B90000000067F174BF00000000BB
:101E10006DF108B80000000066F1C9BE00000000C6
:101E20006CF199BD0000000068F1B5BC0000000035
:101E300067F192BA000000005AF1FEBA00000000FB
:101E400064F1E5BA0000000062F1FBBD0000000093
:101E500067F1C4BD0000000067F1DABB00000000BC
:101E600066F125BF0000000066F14ABD00000000D9
:101E700066F1FBBD0000000066F1D9BC0000000067
:101E800066F1FFBB0000000067F1C1BF0000000069
:101E900067F1BDBF000000006BF166BF00000000ED
:101EA00069F1C4B9000000005EF1A8BC00000000A8
:101EB0005EF1FEBB000000005EF106BC0000000009
:101EC0005EF1F4BB000000005BF1B0BC000000005C
:101ED0005BF16FBC0000000064F1BABA00000000C2
:101EE0005DF1C3B9000000005CF1E7BF0000000035
:101EF0005DF15CBA000000006AF1B0BE00000000B5
:101F000068F19EBB0000000068F164BA00000000A8
:101F100000000000000000000000000000000000C1
:101F200000000000000000000000000000000000B1
:101F300000000000000000000000000000000000A1
:101F40000000000000000000000000000000000091
:101F50000000000000000000000000000000000081
:101F60000000000000000000000000000000000071
:101F70000000000000000000000000000000000061
:101F80000000000000000000000000000000000051
:101F90000000000000000000000000000000000041
:101FA0000000000000000000000000000000000031
:101FB0000000000000000000000000000000000021
:101FC0000000000000000000000000000000000011
:101FD0000000000000000000000000000000000001
:101FE00000000000000000000000000000000000F1
:101FF00000000000000000000000000000000000E1
:10200000F408000004000000001818005409000043
:102010000400000008181800040B00000400000071
:1020200010181800DC0B000004000000181818003D
:10203000D4FD02000400000020181800643F0300D3
:102040000400000028181800F0B10400040000008B
:1020500030181800B4B2040004000000381818004A
:10206000D86F00000400000040181800D87200006B
:1020700004000000481818007475000004000000F7
:1020800050181800007600000400000058181800CE
:10209000C87700000400000060181800B47C00003D
:1020A00004000000681818005081000004000000BF
:1020B000701818009C8700000400000078181800B1
:1020C000BC03060004000000801818004045000012
:1020D000040000008818180030FF0200040000000F
:1020E0009018180028E50000040000009818180057
:1020F000A407010004000000A0181800EC0801006B
:1021000004000000A8181800D82B010004000000EB
:10211000B01818004C2C010004000000B81818007A
:10212000A871010004000000C0181800707A0100B6
:1021300004000000C81818003C7F010004000000E3
:10214000D0181800A889010004000000D818180051
:10215000DC89010004000000E0181800988D0100DF
:1021600004000000E8181800288E01000400000098
:10217000F0181800809D010004000000F8181800F5
:10218000DCA901000400000000191800D4CD0100F2
:102190000400000008191800FCD101000400000030
:1021A00010191800A4D30100040000001819180029
:1021B000E0D701000400000020191800D8DC01005D
:1021C0000400000028191800BCD20200040000001E
:1021D0003019180088D402000400000038191800D3
:1021E00060D80200040000004019180038DE020028
:1021F00004000000481918006CDF02000400000011
:1022000050191800C0DF020004000000581918001F
:10221000D0DE01000400000060191800D0E30100C6
:102220000400000068191800E8F60200040000002D
:102230007019180038F9020004000000781918001D
:1022400080FB02000400000080191800D423030062
:102250000400000088191800942403000400000002
:1022600090191800BC2403000400000098191800FD
:102270003841030004000000A019180044250300A1
:1022800004000000A8191800202703000400000023
:10229000B0191800FC42030004000000B81918002F
:1022A000B050030004000000C019180050330300B0
:1022B00004000000C81918005C330300040000008B
:1022C000D01918007C34030004000000D81918004D
:1022D0009835030004000000E019180018370300C7
:1022E00004000000E8191800086A03000400000058
:1022F000F01918000473030004000000F819180016
:102300005873030004000000001A1800204B050059
:1023100004000000081A1800789A03000400000066
:10232000101A1800B49C030004000000181A1800CA
:10233000449F030004000000201A180084A8030032
:1023400004000000281A1800F8A903000400000087
:10235000301A1800A4AB030004000000381A18005B
:10236000E8B8030004000000401A180038BB03005E
:1023700004000000481A180038BC030004000000E4
:10238000501A180020BD030004000000581A18005D
:10239000A4BD030004000000601A180040C103003F
:1023A00004000000681A180028D40300040000008C
:1023B000701A1800F8E3030004000000781A1800EF
:1023C000E4F5030004000000801A18005CEA010034
:1023D00004000000881A1800D03704000400000030
:1023E000901A1800EC37040004000000981A180036
:1023F0008C42040004000000A01A1800804B040066
:1024000004000000A81A1800AC4D040004000000ED
:10241000B01A18002457040004000000B81A18006D
:10242000A05C040004000000C01A180070620400E0
:1024300004000000C81A180024640400040000000E
:10244000D01A1800B0EB010004000000D81A1800E0
:10245000EC68040004000000E01A1800B86C0400E6
:1024600004000000E81A18000072040004000000D4
:10247000F01A1800F072040004000000F81A1800A6
:102480006876040004000000001B1800D8770400E0
:1024900004000000081B1800447A04000400000037
:1024A000101B1800E47D040004000000181B180035
:1024B000187E040004000000201B18005C7F04004C
:1024C00004000000281B1800B87F0400040000006E
:1024D000301B18008C83040004000000381B180017
:1024E000A8FB030004000000401B1800249F040008
:1024F00004000000481B180050DC04000400000029
:10250000501B1800A0DC040004000000581B180039
:1025100044E6040004000000601B1800F4E9040015
:1025200004000000681B1800CCEF04000400000049
:10253000701B1800F008050004000000781B18004C
:10254000B8F0040004000000801B18001C0F0500F8
:1025500004000000881B1800D811050004000000CA
:10256000901B1800A0FD010004000000981B18003B
:102570000448020004000000A01B18007CF10400C5
:1025800004000000A81B1800908C04000400000048
:10259000B01B18004C26050004000000B81B1800F2
:1025A0008426050004000000C01B1800BC5902006E
:1025B00004000000C81B180008F20400040000001A
:1025C000D01B1800E4F2040004000000D81B18001F
:1025D0008C5F020004000000E01B18001060020085
:1025E00004000000E81B18009C45050004000000E2
:1025F000F01B1800C464020004000000F81B18005F
:102600002865020004000000001C18009465020008
:1026100004000000081C1800786902000400000093
:10262000101C1800ACAA060004000000181C1800BA
:10263000D46C020004000000201C18009403040065
:1026400004000000281C1800747002000400000040
:10265000301C1800907D050004000000381C180094
:102660004880050004000000401C1800DC810500C3
:1026700004000000481C18007482050004000000DB
:10268000501C18001097050004000000581C18008A
:102690009498050004000000601C180060A6050066
:1026A00004000000681C18003CAA0500040000009B
:1026B000701C180048B5050004000000781C1800C4
:1026C00038BA050004000000801C1800C4BD0500D5
:1026D00004000000881C180038BE0500040000003B
:1026E000901C18000CC0050004000000981C180085
:1026F00094C0050004000000A01C1800FCC00500E8
:1027000004000000A81C1800F8C705000400000021
:10271000B01C180020C9050004000000B81C1800F7
:1027200008D6050004000000C01C180050D60500A3
:1027300004000000C81C1800EC7702000400000030
:10274000D01C1800B4F8050004000000D81C1800C4
:10275000E0F9050004000000E01C1800787B02008E
:1027600004000000E81C18002C8602000400000091
:10277000F01C1800A086020004000000F81C1800DD
:102780008087020004000000001D1800408902003C
:1027900004000000081D18000828060004000000BE
:1027A000101D18009C2B060004000000181D1800C6
:1027B000808A020004000000201D180038FE04007A
:1027C00004000000281D1800ECFE040004000000B6
:1027D000301D1800D88D020004000000381D1800BC
:1027E0001439060004000000401D1800CC39060012
:1027F00004000000481D180080FF040004000000D1
:10280000501D1800181B050004000000581D18007A
:102810001496030004000000601D1800A0000500CD
:1028200004000000681D18000C0E040004000000E5
:10283000701D1800D011040004000000781D18005D
:102840000413040004000000801D1800501504004B
:1028500004000000881D1800349C060004000000DD
:10286000901D18006C8B060004000000981D1800D5
:10287000B8A6060004000000A01D1800C8AB0600A2
:1028800004000000A81D1800C0AE060004000000EF
:10289000B01D18006C3C030004000000B81D1800B7
:1028A000D8B2060004000000C01D1800CCB4060019
:1028B00004000000C81D1800E8B70600040000006E
:1028C000D01D18006CBC060004000000D81D1800C4
:1028D0006CC3060004000000E01D1800049B020009
:1028E00004000000E81D1800709F020004000000B2
:1028F000F01D1800C0A1020004000000F81D18001F
:1029000048A8020004000000001E180034AD0200B8
:1029100004000000081E180064AE0200040000005D
:10292000101E1800A8FD060004000000181E180064
:1029300094AF020004000000201E1800B4B0020092
:1029400004000000281E180078B1020004000000F6
:10295000301E1800A84B050004000000381E1800A7
:10296000EC17040004000000401E1800B0BE020076
:1029700004000000481E1800A4E006000400000047
:10298000501E1800A4E4060004000000581E1800A1
:10299000D4F3060004000000601E180098F606003C
:1029A00004000000681E180074F706000400000010
:1029B000701E1800BCFA060004000000781E180003
:1029C00010FC060004000000801E1800BCC00200BD
:1029D00004000000881E180094C1020004000000DA
:1029E000901E18007CC2020004000000981E18000F
:1029F0000CC3020004000000A01E180098990700F4
:102A000004000000A81E1800B49B0700040000008A
:102A1000B01E1800CC9B070004000000B81E180070
:102A2000E09B070004000000C01E1800C40205005F
:102A300004000000C81E1800240305000400000064
:102A4000D01E1800B8CB020004000000D81E1800E9
:102A5000A4B0070004000000E01E180028B507001D
:102A600004000000E81E180020BB0700040000005E
:102A7000F01E18007CCE020004000000F81E1800B2
:102A80004CD2060004000000001F180090D406007D
:102A900004000000081F18000000000000000000F3
:102AA0002DE81FC0AFF31F8101B400B586B0FFB49D
:102AB00080EA000000F1010000F063B82DE81FC0BB
:102AC000AFF31F8101B400B586B0FFB480EA000007
:102AD00000F1020000F055B8F54681B0EE462DE851
:102AE0001FC0AFF31F8101B400B586B0FFB480EA08
:102AF000000000F1030000F044B8F54682B0EE4655
:102B00002DE81FC0AFF31F8101B400B586B0FFB43C
:102B100080EA000000F1040000F033B8F54681B00F
:102B2000EE462DE81FC0AFF31F8101B400B586B09B
:102B3000FFB480EA000000F1050000F022B8F5467D
:102B400081B0EE462DE81FC0AFF37F8701B400B51A
:102B500086B0FFB480EA000000F1060000F011B872
:102B6000F54681B0EE462DE81FC0AFF37F8701B474
:102B700000B586B0FFB480EA000000F1070000F065
:102B800000B86C4604F140040ACCEFF300820FB4A5
:102B9000A4F10C04216003F040016F4607F15807CF
:102BA00066465D4654464B46424612B0FCB48CB075
:102BB000062802D1402900D061B60A4C2468002CB6
:102BC000FED06846A04773B60CB07FBC80468946ED
:102BD00092469B46A446B6468FB0FFBC08B0BDE9FE
:102BE00000C00000542C180062B6704764B67047ED
:102BF00061B6704772B6704772B6704719EE1C1F07
:102C0000044A41EA020109EE1C1F034909EE3C1F78
:102C100070470000010000000000008019EE1D0F49
:102C2000704715EE100F704716EE100F704715EE37
:102C3000300F704716EE500F7047000000EE000690
:102C400000BF00BF00BF00BF00BF7047DDBAADBB13
:102C50000000000000000000010000000000000073
:102C600000000000FFFFFFFFFFFFFFFF024A1168A7
:102C70001060084670470000542C1800024A116882
:102C8000106008467047000094121E0000F0A0F883
:102C90003A4801683A4A02EA01023A4941580A6848
:102CA000394B03EA02030F2B00F00580012B03D000
:102CB00001F10401F3E7FEE701F10801334B03EAF8
:102CC0000203334CA342EAD100F02EF9804600F013
:102CD0003BF9814649462F4BCB5800F0D1F8794655
:102CE000B14240F1028000F07BF940462A49086079
:102CF00048462A49086000F0C3F829490C60294970
:102D00000D6029490E6029490F603D462848294930
:102D10004FF0000204C08142FCD8A5F10405AD4685
:102D2000009D6FEA05044FF0100365FA03F5AC420D
:102D300040F017804FEA14444FEA84041E4D2C6083
:102D40006B46A3EB04031D4E1D4D2E60002C00F0BE
:102D500008801A4D05EB040680CB80C5AE423FF7D4
:102D6000FBAF81B068464FEA10104FEA001085466D
:102D700014488646144C2047FEE700000000001867
:102D8000F8FF0000FC0000000F00000000FF0F0033
:102D9000003E0800080400005C2C1800602C18009D
:102DA00008121E0000121E0004121E000C121E004B
:102DB000801F1E00F8291E0020121E00C8751F006B
:102DC00014121E00782D1800038A1800000000005D
:102DD00010EE900FC0F30721002900F02580264C4B
:102DE00080EA00000ECC002900F00B8006EE120FE6
:102DF00006EE511F06EE112F06EE913F00F1010085
:102E0000F0E7002800F010801C4A11EE101F41EA84
:102E10000201BFF34F8FBFF36F8F01EE101FBFF39F
:102E20004F8FBFF36F8F00BF704700BFAFF30080BD
:102E300037000000000000000F0300003700000012
:102E40000000001005030000390000000000002011
:102E5000050300003B0000000000004005030000E7
:102E60003D0000000000008005030000000000009D
:102E70000000000000000000302E180001000000DB
:102E800041464A681346214C03EA04034FEA1313F0
:102E90001F4C02EA040216461A441E484FF0000571
:102EA00008644B6C1C4C03EA040303F101031B4C44
:102EB0001B4603FB04F31D4400F101009042EFDBCD
:102EC000002D3FF4F8AE164D414632464FF0000655
:102ED000104808644B6C104C03EA040303F101032F
:102EE0000E4C1B4603FB04F31E4400F1010090420C
:102EF000EFDB19EE112F0B4902EA01021446A2EB97
:102F0000060205EB0207164670470000F0000000BD
:102F10000F000000000000003F0000000020000043
:102F200000000C0000F0FFFF0868054A01F10401F1
:102F300002EA0002052AF7D1024A00EA02007047BD
:102F40000F00000000F0FFFF0868074A01F10401CC
:102F500002EA0002052AF7D1044A1042F4D0044ADA
:102F600000EA0200704700000F000000800000002F
:102F700000F0FFFF0C490D4A0D4B0E4C0E4D0F4E4D
:102F80000F4F10488046104881461048824610482E
:102F90008346104884461048104886464FF000008B
:102FA000B0FBF0F00560704701010101020202026E
:102FB00003030303040404040505050506060606C9
:102FC0000707070708080808090909090A0A0A0A79
:102FD0000B0B0B0B0C0C0C0C0D0D0D0D0E0E0E0E29
:102FE000FEE7000000487047801F1E000048704741
:102FF000D41F1E0000487047FC1F1E000048704789
:10300000EC1F1E00004870475C201E0000487047FF
:10301000BC1F1E00074B002282611B681A680AB998
:10302000586005E019B95A6890615860704782612C
:1030300018607047DC1F1E0008B5827A084B42F00A
:10304000010282721A6822B153682BB191689847C5
:1030500008BD4FF0FF3008BD4FF0FF3008BD00BF86
:1030600074201E00074B1B68186850B15A689042C4
:103070004FF0000202D11A605A60704781691960EE
:1030800082617047DC1F1E00054B1B68186830B159
:1030900082691A601A89013A1A8100238361704794
:1030A000CC1F1E00094B1B681A680AB9586005E05E
:1030B00019B95A681061586001E0026118605A89B4
:1030C00001325A8100225B681A617047D01F1E00CE
:1030D000094B1B68186868B15A6890425A8903D135
:1030E00000211960596001E001691960013A5A81B3
:1030F00000230361704700BFD01F1E0038B5094B85
:103100001C22002105461C687FF62CFF23892268BB
:1031100012B96560256002E06268956165600133FF
:10312000238138BDCC1F1E0007F038BD01232DE9D7
:10313000F04F8B40B3F5001F28BF4FF4001385B04C
:10314000042B38BF04230330039320F00304FFF75C
:103150004DFF3E4B00221646D3F800B094463C4B40
:1031600001921B680293134628E0D1F800A0A24503
:1031700023D301F10807039A07EB0A08C4EB0805FB
:10318000C2F1000909EA0505BD4216D3C7EB0509DE
:10319000B9F1070F01D8BD420FD1C4EB0A075F4553
:1031A00004D3029A934208D2954206D38FB12E4699
:1031B000BB4684460B46CDF804800846416800298A
:1031C000D3D1019A4BB9234A1846116801311160D5
:1031D00038E042462E4684460B46921B111B1029AE
:1031E00009D918683219401A0839186031515968DC
:1031F00051605A6022461968891A03D15A68CCF87E
:1032000004200CE0072905D8124B00201A6801326F
:103210001A6017E05A50A1F108021A605B180E48B4
:10322000002219685A6002688A1802600B48016817
:103230000831016089180A4A1068814203F10800C8
:1032400088BF116005B0BDE8F08F00BF2C101800DA
:1032500008121E00281018004C10180074101800D6
:10326000E81F1E0038B5194B054650F8082CA0F190
:10327000080419688A1A1A60154B1A68083A1A6005
:10328000FFF7B4FE02E0A34203D218464368002BC6
:10329000F9D155F8082CA9188B4205D119685B683B
:1032A0005218083245F8082C6360036803F10802DD
:1032B0008218A24207D155F8082C9B1808330360E6
:1032C0006368436000E04460002038BD4C10180083
:1032D0007410180010B50021044640227FF642FE0B
:1032E000104B2360104B6360104BA360104BE360E6
:1032F000104B2361104B6361104BA361104BE361D2
:10330000104B2362104B6362104BA362104BE362BD
:10331000104B2363104B6363104BA363104BE363A9
:1033200010BD00BF0000180082991D0084991D0087
:1033300000121E0000121E00801F1E00801F1E00B3
:10334000F8291E00F8291E0094592000009A200038
:103350009C802100D8001800000918000000180007
:103360000000180070B590B06846FFF7B3FF2A4D13
:103370002978002935D10898099C241A06D02246BC
:103380007FF6F0FD0898214684F69EFE23492246EA
:10339000234801247FF60CFE0022224B1A702C7069
:1033A00084F6CCFD204B196831B10B7823B11F4B4B
:1033B0002246186805F0C4FD1D4B196831B10B7821
:1033C00023B11A4B0122186805F0BAFD194B196890
:1033D000F1B10B78E3B1154B0122186805F0B0FD8F
:1033E00016E0154E317899B90A980B9C241A06D02C
:1033F00022467FF6B7FD0A98214684F665FE084806
:1034000022460E497FF6D4FD00232B700123337032
:1034100084F694FD10B070BD6C201E005846080064
:1034200073A41D00F81F1E007010180004201E0059
:1034300070201E0068201E0010201E000E92080042
:10344000014B1868704700BF00121E00014B18683E
:10345000704700BF04121E0008B5836A33B1002311
:10346000836280F82030103084F65AFE012008BDB7
:10347000024B1A6801321A60704700BF08201E0014
:10348000014B1868704700BF08201E002DE9F04F5F
:103490009DB00AA8FFF71EFFFFF7D2FF924EDFF89C
:1034A000A882DFF8A8A2914F0446FFF7CFFF0A9B3E
:1034B0000B9A0F99D21A0E9B0D9DC3EB010911991E
:1034C000109BCB1A0C99C1EB050B93443268D8F8CA
:1034D000001002F50052521A4A44D2185A441419E4
:1034E000DAF80050241882480994824C2268AD18FA
:1034F0003A680893C5EB020CCDF81CC07FF658FD66
:10350000089B09F57E710193073103F57E7307333C
:103510000BF57E729B0A890A073202930823920AEE
:103520000091594603934B4673487FF641FD33683B
:103530002068DDF81CC03968019000F57E700393A7
:1035400003F57E730CF57E760730073301F57E7246
:103550000736800A9B0A0732B60A920A0290049341
:103560006346664800967FF623FD099905F57E724D
:10357000073201F57E730733920A9B0A29460093AE
:103580004646099B5E487FF613FD5E4B5E4F5F48E3
:1035900019687FF60DFD39685D4B0A689A4203D0C1
:1035A0005C487FF605FD25E01A910B4604E015689E
:1035B000131D5748854203D11A461BAB9A42F6D3D6
:1035C0001AAD336800932B4653481A927FF6F0FCED
:1035D0003B681A9AE91AD31A50480A4600937FF6B4
:1035E000E7FC33681A9A591B9B1A4D480A46009308
:1035F0007FF6DEFC4B4B1B68C3B11D78CDB15989FA
:10360000DD8901FB05F61A8938354D4306F57E73D1
:10361000073345489B128DE8280005F57E73073374
:103620009B12029333467FF6C3FC03E01D461E4601
:1036300000E02E463D4B1A68C2B11378B3B15189F0
:10364000D08901FB00F31289583048432D180190AE
:1036500000F57E7003F57E77073007378012BF12C2
:103660000290F618324800977FF6A2FC314B1A6898
:1036700052B3137843B35189D08901FB00F3128907
:10368000583048432D18019000F57E7003F57E7781
:10369000073007378012BF120290F61826480097AD
:1036A0007FF686FC2368DAF80020991B9B185B1BC9
:1036B00003F57E70073001F57E72800A07320090B4
:1036C000920A1E487FF674FC1D4B1D6884F632FE7C
:1036D0000446FFF7D5FE29462246034619487FF6E1
:1036E00067FC1DB0BDE8F08FE81F1E002C1018000D
:1036F000A6A41D004C101800B5A41D00F4A41D00C4
:1037000039A51D0028101800C81F1E0074A51D0033
:103710004B4154538FA51D00B3A51D00EAA51D0004
:103720000FA61D007010180035A61D0070201E0089
:1037300062A61D0068201E0094A61D00C9A61D00DB
:1037400038101800F3A61D00F41F1E007410180096
:1037500008B5714603487FF62BFC0120BDE8084000
:1037600000F084BB1BA71D00014B0360704700BF26
:103770007C201E0038B50D460446FFF73BFC01686F
:10378000034631B105485A687FF612FC4FF0FF300E
:1037900038BD80E83000084638BD00BF2AA71D00AC
:1037A00010B50C46FFF726FC036813B140682146AC
:1037B0009847002010BD38B504460D46FFF71EFCA3
:1037C00003681BB980E83000184638BD4FF0FF3061
:1037D00038BD10B50446FFF711FC036813B140680B
:1037E00021469847002010BD38B504460D46FFF726
:1037F00009FC03681BB980E83000184638BD4FF05B
:10380000FF3038BD10B50446FFF7FCFB036813B169
:10381000406821469847002010BD38B504460D4643
:10382000FFF7F4FB03681BB980E83000184638BD89
:103830004FF0FF3038BD38B505460C46FFF7E6FBC4
:1038400003681BB14068294622469847002038BDCE
:10385000024B1B680BB158609960704774201E00C2
:10386000034B1B681868D0F1010038BF0020704777
:10387000DC1F1E0010B50446FFF7F2FF18B120460A
:10388000FFF7DAFB28B120460021BDE81040FFF722
:10389000C1BB10BDF8B506460768FFF7F5FB054646
:1038A000002853D02B4B1B68186805F006FB044614
:1038B00088B984F619FDB0F5804F08D9264B224609
:1038C0004FF4F061186807F027F8044618B9284645
:1038D000FFF714FC13E07B6C0820002123F0004369
:1038E0006B601E4B2B61FFF721FC58B92846FFF790
:1038F00005FC194B21460122186807F03BF86FF0D0
:103900001A00F8BDB368B7F85020A1680360F368E7
:103910004360B6F90630D21AB388CB18686100212B
:103920002A81A281FA7CA360E274B6F90620EB60DA
:103930003B6CD31822462B60094B186880F654FC68
:103940002846A761FFF796FF0020F8BD6FF015002D
:10395000F8BD00BF74201E0004201E00DD391800D1
:103960000C201E0010B50BE0FFF77CFB0446FFF7B0
:1039700063FB28B120460121BDE81040FFF74ABB98
:10398000FFF76EFF0028EFD010BD0000034B1B684F
:103990001B680BB1FFF7E6BF704700BFDC1F1E00BE
:1039A0000D4B70B51C6811E0FFF792FB0646FFF760
:1039B00071FF051E0ADA15F1160F14BF0125022545
:1039C00030460121FFF76EFB257270BD2368002B86
:1039D000EAD1237270BD00BFD01F1E002DE9F8434D
:1039E000064640690D4690E89000FFF73BFC0F4B00
:1039F0000021186880F682FB8046A0B10023D0F831
:103A0000189083613046FFF779FB24B14046494660
:103A10003A462B46A047064B1B681B7A1BB1BDE8F4
:103A2000F843FFF7BDBFBDE8F88300BF0C201E00C0
:103A3000D01F1E0070B5164D04462E462B685B89BC
:103A40007F2B05D9FFF7ACFF2B685B897F2B1CD838
:103A500033680F4D1B6893B92046FFF71BFF10F129
:103A6000160F05D098B11B3006D12B68012201E05A
:103A70002B6802221A7202E006487FF699FA204665
:103A80000021FFF70FFB002070BD4FF0FF3070BD2D
:103A9000D01F1E006BA71D00034B1B681B7A0BB1C8
:103AA000FFF77EBF704700BFD01F1E00014B83E8A9
:103AB00003007047E01F1E00034A08B513680BB1EE
:103AC0005068984708BD00BFE01F1E0000487047BF
:103AD000CC201E0038B504460D46FFF7F7FF80E8FE
:103AE000300038BD2DE9F34107460C4684F622FC30
:103AF00010B9FFF7BDFC3AE0002620460DF10601A3
:103B00006A46ADF8066007F10308009684F6C2FF26
:103B1000009D28F0030840F6380345449D4226D80E
:103B20002DB328463146FFF701FB0446F8B1314674
:103B3000009A7FF617FA009BA7812046ED1AE2183B
:103B4000C8EB050802EB0803013DA360636862F35C
:103B5000140363601B0C65F34F13E38084F6D4FBFE
:103B60000123A3702080BDF80630E38104E0044BFC
:103B700000241A6801321A602046BDE8FC8100BFAB
:103B8000C8201E0038B5002105468089FFF7AAFF2E
:103B9000044620B18068AA89A9687FF65FF92046AB
:103BA00038BD000038B5058A426801230446C2F3D7
:103BB00014028370C38802EB531283680132C81C5D
:103BC000A18100215B0D5B05D218074B0340D31A7E
:103BD00004F11000A360E38903F40C532822E3816D
:103BE0007FF6C0F9258238BDFCFF010038B50446D8
:103BF000E389590621D4A278013AD2B2A270002AF0
:103C000027D1E27862B1134B204653F82250E9895C
:103C1000FFF7C8FF21462846BDE8384005F080B9C7
:103C2000DA0516D40C4B2046A360218884F688FB65
:103C30002046BDE83840FFF715BB074B2046A36080
:103C40002188A56B84F67CFB2046FFF70BFB2C46F6
:103C5000CEE738BDB4231E00EFBEADDE38B5044656
:103C60001DE0104BA28A1B6853F822500E4A1368BD
:103C70002BB100215068A1822146984770B90B4BA7
:103C80001B6843B10A4AE1781B6852F821209A4226
:103C900001D1FFF701FF2046FFF7A8FF2C46002CBB
:103CA000DFD138BD20101800CC201E0074201E006B
:103CB000B4231E00374B70B51C68266876B1A31973
:103CC0000025A6611D776319187F013584F6B6FEBD
:103CD000B542F8D10A2084F6B1FE47E0D4F89C0042
:103CE000002856D0022184F607FE00F00F000128BC
:103CF0004FD0022802D1204684F60AFE0521D4F8CE
:103D00009C0084F6F9FDC20743D5D4F89C0000213D
:103D100084F6F2FDD4F8AC3005461BB1D4F8A80007
:103D2000E9B298470D2D10D0082D01D07F2D0DD16F
:103D3000A369002B2DD0013B0820A36184F67EFEF1
:103D4000202084F67BFE08201FE00A25284684F602
:103D500075FEA6690A2D04EB060305D001367F2EF9
:103D60001D77A66102D870BD00221A777F2EA6614A
:103D700004D804F11C00314684F634FE00233E20B2
:103D8000A361236084F65AFE2020BDE8704084F6CB
:103D900055BE70BD781018002C4B70B51B68002BF9
:103DA00051D02B4A106800284ED05C69222C07DDC8
:103DB000DA69510604D5274A126802F5C26201E0A9
:103DC00000F5C2620432222C116807DDDA6952065E
:103DD00004D5204A126802F5C26201E000F5C26211
:103DE0000432126891420AD0222C04DDDB695906A4
:103DF00044BF184B186800F5C26004300168164BC8
:103E00001868081A20D019601449D1E90023121843
:103E100043F100030126C1E90023114B11491C683D
:103E2000D1E90023E4FB00230F480468203C33FA67
:103E300004F016FA04F4661E002403EA060514438F
:103E4000C1E9004570BD184670BD00BF34101800B0
:103E50004010180064101800AC101800A0101800D2
:103E6000DC0F1800B0101800E00F180010B5044661
:103E700084F68AFD0CB100231B60064B00211868F4
:103E800082F676FE044B1B6803B1984784F67CFDEE
:103E9000FEE700BF34101800901018002DE9FF470E
:103EA0004B4B0446D8620368042B03D1494B186876
:103EB00089F6C8FD2368062B04D104B0BDE8F0479D
:103EC00084F6DAB9444B454E656C1B68F16932687B
:103ED000C5EB030A42487FF66BF8A36C00932246B9
:103EE000636C4FEA9A0A0193A3680293E368039311
:103EF0003C48E36C21687FF65BF82368042B07D10C
:103F0000FEF78FFE0746FEF78FFE0246364808E0B2
:103F1000032B09D1FEF78BFE0746FEF78BFE024608
:103F2000324839467FF644F8E36904F11001009302
:103F30000027236AB9460193B846636A0293A36ACD
:103F400003932B480EC97FF633F8A36B04F12C01C1
:103F50000093E36B0193236C029326480EC97FF60E
:103F600027F8EB680093244895E80E007FF620F8C8
:103F700005F11001EB69009320480EC97FF618F88F
:103F800018E07A59D3070FD5FF2A0DD91C4B9A4256
:103F900004D902F16243B3F5801F05D819483946A8
:103FA0007FF606F809F101090437B9F10F0F08F19E
:103FB000010801D8D045E4D13368002043F4806380
:103FC00086E8180004B0BDE8F047FFF74FBF00BF18
:103FD00014201E00341018000C121E007C201E003D
:103FE000A4A71D00BAA71D00EFA71D0003A81D0070
:103FF00017A81D004AA81D0079A81D0097A81D003C
:1040000082991D00B5A81D002DE9F34198461B4B70
:104010000D46064614461F681948BF1A7EF6C8FFAB
:1040200031462A46174800252346CDF80080BF08B0
:104030007EF6BEFFA8462E4617E02A59D1070FD5B7
:10404000FF2A0DD9104B9A4204D902F16243B3F50D
:10405000801F05D80D4829467EF6AAFF08F1010801
:1040600001360435B8F10F0F01D8BE42E5D100206A
:1040700002B0BDE8F041FFF7F9BE00BF0C121E0010
:10408000C1A81D00D9A81D0082991D00B5A81D005A
:10409000014B1868704700BF10121E0041F2A823A0
:1040A000C0F21E031868421C1A607047006890F83E
:1040B00078214369C3F8A021704700BF49F68413F3
:1040C000C0F21D03F0B490F88D5184B004460E4642
:1040D00004AF0FCB07E90F002DBB3EB3402263694D
:1040E000C1F2006241F61406C3F82061D3F824112E
:1040F00021F07C5020F4F076C3F8246141F61806D4
:10410000D3F8241141EA0200C3F82401C3F8206166
:10411000D3F8241121F48002C3F82421D3F82461B8
:104120003543C3F8245104B0F0BC704763694FF4C1
:10413000137104A8C3F82011D3F8241101F0030C63
:1041400000EB8C0252F8102C501CECD0C80800FB7D
:1041500002F1481D00EB800202EB8202B2F5005F23
:10416000E1D2B2F5806F08D3C2F3C505560A28061E
:1041700040EA46124FF48005B4E702F03F0195098A
:104180000A0642EA45123546ACE700BF70B505465F
:10419000486C0C4608B106F0BBFB206C08B106F079
:1041A000B7FB606D08B106F0B3FBA06D40B106F03F
:1041B000AFFB95F8C508461EF6B285F8C5682EB166
:1041C0000023636563642364A36570BDD5F8C008EC
:1041D000FFF742F9002385F8C468636563642364CC
:1041E000A36570BD38B590F884318B420D46044606
:1041F00008D000297CD002294369C3F8A01102D05D
:1042000084F8845138BDD3F8A011C1F30122022AE9
:1042100063D00A2084F67CFA6369D3F8A021C2F344
:104220000120022859D00A2084F672FA6369D3F873
:10423000A001C0F3012102294FD00A2084F668FAB8
:104240006369D3F8A021C2F3012CBCF1020F44D062
:104250000A2084F65DFA6369D3F8A001C0F3012156
:1042600002293AD00A2084F653FA6369D3F8A021D0
:10427000C2F3012CBCF1020F2FD00A2084F648FAB9
:104280006369D3F8A001C0F30121022925D00A20D7
:1042900084F63EFA6369D3F8A021C2F3012CBCF185
:1042A000020F1AD00A2084F633FA6369D3F8A0010A
:1042B000C0F30121022910D00A2084F629FA63698B
:1042C000D3F8A021C2F3012CBCF1020F05D00A20C3
:1042D00084F61EFA6369D3F8A021D3F8A011C1F3C4
:1042E0000123022B8CD120460121FFF7E7FE87E74F
:1042F000FFF7E4FE6069C0F8A05181E70239D0F809
:1043000008356422F0B58CB285B002FB0434638CAE
:104310005A06054602D5002005B0F0BD43F0400620
:104320002146668404F1240704F12A0602F0F6FA15
:10433000286994F83110228C03230097019694F891
:1043400030E0CDF808E004F0E1F8608E0028E2D01B
:1043500094F83110228C286995F8C93894F83040C7
:104360000BB144F08004092300970196029404F0F5
:10437000CDF8D0E7006802F07BBE00BF38B54169D8
:104380000446D0F802385D1CCA6CC0F88026C0F81C
:10439000025884F675F8D4F81258C4F8700884F6F8
:1043A0006FF8D4F88811D4F86C3821F00802C3EB08
:1043B000050C42F001030021C4F888310122C4F841
:1043C0006C1884F894210CEB0003C4F8123838BD43
:1043D000D1F1010338BF0023002A08BF43F00103D5
:1043E00070B5054603B170BD084604F003FD42F206
:1043F0002414C0F21E040123014628462568ED1846
:10440000D0F880222560BDE8704003F08BB900BF72
:1044100038B542F22813C0F21E031C68002C4ED09F
:1044200094F88D0100284BD1D4F88031002B46D070
:104430001A68002A3CD00A2084F66AF9D4F8803140
:104440001968A9B30A2084F663F9D4F88031196891
:1044500071B30A2084F65CF9D4F880311A683AB353
:104460000A2084F655F9D4F8803160251A680A20AC
:10447000F2B184F64DF9D4F880310A201A68BAB145
:1044800084F646F9D4F880310A20196881B184F69F
:104490003FF9D4F880310A201A684AB184F638F915
:1044A000D4F88031043D1A68E1D142F0805201E035
:1044B0004FF0805260691A604FF48073836238BD98
:1044C00094F88C11FF2905D0E0680122BDE838403E
:1044D00006F01ABB0120BDE83840FFF793B900BFD2
:1044E000F8B5436904210446C3F82011D3F8242108
:1044F000520740F11B81D0F8B82894250020012AEA
:10450000C3F82051C3F824014BD018684FF400625F
:10451000002540F0100101201960C3F82021D3F8D4
:10452000241121F08072C3F8242184F89551FFF7FB
:1045300050F994F88C11FF2984F88D51C4F89051EA
:1045400011D0E0682A4606F0DFFA94F884368BB979
:10455000204602F0ACFE204603F02CFB204602F081
:1045600087FD0020F8BD2846FFF74CF994F8843603
:10457000002BEDD063690022D42184F88426C3F88F
:104580002011D3F82421500511D494F88431A3F1DB
:104590000201D1F1000C20464CEB0101FFF78EFD2A
:1045A000D6E79821C3F82011C3F82421ADE748F6D7
:1045B0003C0666F31F4640F6440748F66405C3F818
:1045C000207165F31F45C3F8246140F6480649F29F
:1045D0000300C3F8206160F31F40C3F8245140F684
:1045E0004C05C3F82051C3F82401C3F82011C3F8C7
:1045F000242194F88411022977D00221C3F8A01154
:10460000D3F8A021C2F3012CBCF1020F63D00A2021
:1046100084F67EF86369D3F8A021C2F30120022852
:1046200059D00A2084F674F86369D3F8A001C0F366
:10463000012102294FD00A2084F66AF86369D3F871
:10464000A021C2F3012CBCF1020F44D00A2084F651
:104650005FF86369D3F8A001C0F3012102293AD0C1
:104660000A2084F655F86369D3F8A021C2F3012C1F
:10467000BCF1020F2FD00A2084F64AF86369D3F800
:10468000A001C0F30121022925D00A2084F640F8B8
:104690006369D3F8A021C2F3012CBCF1020F1AD038
:1046A0000A2084F635F86369D3F8A001C0F301212C
:1046B000022910D00A2084F62BF86369D3F8A021D0
:1046C000C2F3012CBCF1020F05D00A2084F620F8B9
:1046D0006369D3F8A021D3F8A031C3F3012EBEF152
:1046E000020F26D0022184F884114FF47A7084F6E8
:1046F0000FF894F8840148B120460021FFF7DEFC52
:1047000000236269C2F8A03184F884314FF47A70D2
:1047100083F6FEFF94F88431A3F10201D1F1000C7D
:1047200020464CEB0101FFF7C9FC11E74FF0FF30C9
:10473000F8BD20460121FFF7C1FCD3E7436970B5FE
:104740001A680446920740F196805968C90540F1FD
:10475000928003254FF428610022C3F82011C3F88A
:10476000245190F8845680F89421002D4ED041F6C3
:10477000140248F63C00C3F8202160F31F40D3F830
:10478000245148F6640149F2030245F01F0561F324
:104790001F41C3F8245140F6440562F31F42C3F899
:1047A000205140F64805C3F8240140F64C00C3F8F8
:1047B00020514FF40065C3F82411C3F82001C3F859
:1047C00024211968E06841F01002A1681A60C3F85A
:1047D0002051D3F8242122F08075C3F8245141F6EA
:1047E0004C0505F000FE4FF47A7C48F28042C0F29E
:1047F0001E026369C3F82051B0FBFCF0B2FBF0F17C
:104800006046C3F8241183F683FF1BE04FF4802237
:104810002B460621C06805F084FBD4F80608D4F8BE
:104820001668411CC4F8061883F62AFED4F87038BE
:10483000C4F87058F61A3618C4F8166883F620FEC5
:10484000C4F86C08D4F88831204623F00102C4F87B
:104850008821FFF745FE70B194F89C2142B9D4F845
:10486000A011D4F8980183F61DFC012184F89C1155
:10487000012084F8950170BD10B504682046FFF74B
:104880002FFE10B984F89C0110BDD4F898010022C5
:10489000D4F8A011BDE8104083F604BC2DE9F04F18
:1048A000054683B04FF47A60AB69D3F830B0DBF8DB
:1048B000006006F021F8C5F80805002861D0082737
:1048C000002406F15009A0462646019702E0D5F8DB
:1048D0000805019FDBF8083000EB040EDBF804103C
:1048E0004AF64412065503EB070A01984346D5F8E9
:1048F000D878C0F21D020918D5F8080508F101089A
:10490000CEF8089009F1100900EB040C0CF101003D
:10491000CEF80C100721CCF86070CEF810A07EF60F
:1049200087FBD5F8082501991319081D1E77D5F8BE
:104930000825019011195D6181F851606FF07F01C8
:10494000D5F8080500EB040C8CF85060D5F8083554
:104950001A195177D5F8080500EB040C8CF836606D
:10496000D5F808351A1982F83760D5F808150819EE
:104970006434B8F1280FC677A9D10022012085F848
:10498000C92803B0BDE8F08F00697047436910B4CF
:104990001C68D0F8B82844F441711960002A30D15D
:1049A0004FF440714FF47072C0F20201C0F2031272
:1049B000C0F8B4188024426342F27C0CC0F88841ED
:1049C000C0F21E0CC3F8A841426B0263D3F89411E5
:1049D000DCF8004041F4EE3244F40034C3F8942192
:1049E000D3F89C11CCF8004041F4EE32C3F89C217E
:1049F000596A026B0A435A62012380F80C3110BCD9
:104A00007047022A08D0012A0ED0D0F8B418C0226C
:104A1000C0F201120A43CDE74FF40034C022C0F8BF
:104A2000B448C0F20312C5E74FF440744FF47072FB
:104A3000C0F20112C0F8B448BCE700BF4269436B42
:104A400010B4116A0B40C3631BB313621B061FD55E
:104A5000D2F89041D2F8983104F4EE3403F4EE31F8
:104A6000C0F83841C0F83C111CB1C2F89041D0F8F0
:104A70003C1189B9C26B22F08003C363D0F83801BE
:104A8000194351EA00020CBF0020012010BC7047FE
:104A9000C36BD0F83C11F1E7C2F89811D0F83C1183
:104AA000E8E700BF4369D3F89C1121F4EE32C3F864
:104AB0009C21D3F8941121F4EE32C3F894215A6A60
:104AC000016B22EA01025A6200230363704700BFB0
:104AD0004369426B0263D3F8941141F4EE32C3F898
:104AE0009421D3F89C1141F4EE32C3F89C21596A09
:104AF000006B41EA00025A62704700BFFFF79EBF99
:104B0000D0F84E380133032AC0F84E3805D0042AB5
:104B100004BF4369C3F84C1170474069C0F848119D
:104B2000704700BF2DE9F0410022D0F8908298F83C
:104B30000030012B064617462AD0D8F80820906886
:104B4000002800F00A81D8F838502B78A3B100244F
:104B500001E0D8F80820D78895F801C007FB0CF0D1
:104B600005F0C7FE04EB4402013405EB8201E4B218
:104B700048622B789C42ECD345F6C5000022AB700E
:104B8000C0F2180001231746C8F83C0088F800302E
:104B9000D6F88C8298F80010012908BF174628D053
:104BA000D8F808209368002B00F0C280D8F838505D
:104BB0002B78A3B1002401E0D8F80820B2F806E071
:104BC00068780EFB00F005F094FE04EB440101341C
:104BD00005EB8102E4B250622B789C42ECD347F69D
:104BE000F752AB70C0F218020123C8F83C2088F8D5
:104BF0000030D6F8848298F80010012900F0A080D7
:104C0000D8F808209068002800F0AA80D8F838501A
:104C10002B78A3B1002401E0D8F80820D288697865
:104C200002FB01F005F065FE04EB4403013405EBE3
:104C3000830CE4B2CCF824002B789C42ECD3002205
:104C4000AB7001201346C8F83C2088F800003B43B5
:104C5000D6F87C7297F800C0BCF1010F5FFA83F8B8
:104C600079D0BA68916800297CD0BD6B2B789BB154
:104C7000002400E0BA68B2F806E068780EFB00F0A5
:104C800005F037FE04EB440C013405EB8C02E4B272
:104C900050622B789C42EDD30022AB700121134669
:104CA000FA633970D6F8807248EA030800203B782E
:104CB000012B21D0BA6801209168E9B1BD6B2B7836
:104CC000A3B1002400E0BA68B2F806E068780EFBF1
:104CD00000F005F00EFE04EB4402013405EB820CFB
:104CE000E4B2CCF824002B789C42ECD30021AB70CA
:104CF00008460123F9633B7048EA000096F89522C4
:104D0000A2B9B269536BC6F87832082B2CD90823A4
:104D1000C6F878320021D36B926BC6F87022C6F8C1
:104D20007432C6F84811012186F89512BDE8F08169
:104D30000127D6F8848298F8001001297FF460AF2B
:104D400000233B43D6F87C7297F800C0BCF1010FFA
:104D50005FFA83F885D10023A4E70122174617E7FD
:104D6000012374E701239DE7002BDCD0D2E700BFCD
:104D70002DE9F04FD0F884628DB0044630460F46DE
:104D800002F01AF90546002800F09580D4F8F414D2
:104D90004B68002B00F08F801822B9687EF65EF811
:104DA000BA68BB890C201832B5F80CA0183BBA6061
:104DB000BB812870D4F8F484D8F80490B9F1000FBE
:104DC00013D0D9F800204946C8F8042004A81822B6
:104DD0007EF644F8B8F80A30591ED8F80000C9F831
:104DE0000000C8F80090A8F80A1008996960BAF1A4
:104DF000000F56D0BDF82400504538BF8246A9891F
:104E0000D4F848215145DDF81C900AEB020388BF15
:104E1000A5F80CA00020D4F8A8881FFA83FADDF8C2
:104E200018B00A900B90B8F1000F47D00AF1FF3E7E
:104E300000271FFA8EFCBCF1060F98BF4FF0080A3E
:104E40003B46204651464222009702F067FAD4F8CA
:104E5000787229F000493FB104F51C72D4F834018E
:104E6000082306CA04F016FD0CAFCDF82C9053466B
:104E700047F808BDD4F8340197E8060004F00AFDAD
:104E800000234FF0010ED4F834010B937346CDF894
:104E9000288097E806008DE80044CDF808E004F08B
:104EA0003FFDB26829462046D288334602F029FBEE
:104EB000002184F87D160DB0BDE8F08FD7F808808A
:104EC000B4E700BF2DE9F043002583B09DF82870BA
:104ED00006460C4698460195002A73D00B78002BA5
:104EE00073D0511E11F00301234648D0234613F816
:104EF000010F012560B1A94241D0022903D002254A
:104F000013F8011F21B1013513F8011F002936D113
:104F1000691C57B10B1D9A4238BF6FF00D003CD38E
:104F200001A8611804227DF699FF251D4AF64C114F
:104F30002846C0F21D017EF6A1F88146002830D136
:104F4000002F2ED0019B662B2AD0632B4FD06FF001
:104F5000160022E011F801CFBCF1000FD8D011F8F3
:104F600001CF0135BCF1000FD2D0851C4978002952
:104F7000CED0C51C99F8011004330029C8D00135E2
:104F800095422846AC46194603F10309E2D114F8CC
:104F90000C306FF00100002BBAD003B0BDE8F083F5
:104FA000FEE74AF658112846C0F21D017EF666F863
:104FB0000028CCD16FB10199D6F8102186F88E1156
:104FC0001160EAE794461546E1E70121002FACD0D5
:104FD000A0E7012396F88E21204622700422C8F80B
:104FE0000030D6F810117DF639FF3846D5E7FDF7C9
:104FF000C1FF4846D1E700BF2DE9F0478F8991F8FE
:1050000013A0D0F8F094083F8B688CB0BFB2D9F8E9
:1050100004600833D0F884820C4605468B608F818B
:10502000002E55D032683146C9F8042004A8182251
:105030007DF614FFB9F80A104B1EBDF82420D9F8EC
:10504000000097423060C9F80060A9F80A3006995C
:1050500007980A910B90DDF820902FD8D5F84831A9
:105060002146002607EB030C41240AAA1FFA8CF301
:10507000284602940096019602F060F9404601F03D
:105080009BFF0446002846D002230E2180F801A091
:1050900001702146D8F80820D28843812846C4F8F8
:1050A000049043462681A78102F02BFAB0420CBF40
:1050B0004FF0FF3030460CB0BDE8F0874AF6641080
:1050C0003946C0F21D007DF673FFBDF82470C5E7B8
:1050D000404601F071FF4FF00108314618224FF0B1
:1050E000FF3907467DF63EFF072087F800803946E6
:1050F000D5F8842213469268D288388128467E816A
:10510000C7F8049002F0FDF9A8682146424605F070
:1051100031FC4846CFE74FF0FF30CCE770B590F850
:105120008D31044613B190F8A41101B970BD4FF64A
:10513000B845C0F20705D0F830012E6DB047002801
:10514000F4D1D5F8A450D4F83001A8470028EDD107
:10515000D4F83401B0470028E8D1D4F83401A84786
:105160000028E3D1D4F880128A6B506900285CD102
:10517000D4F87C12886B4369002B52D1D4F880316B
:10518000002B45D01968002949D00A2083F6C0FABF
:10519000D4F880311A68002A41D00A2083F6B8FA80
:1051A000D4F880311868002839D00A2083F6B0FA84
:1051B000D4F880311A6892B30A2083F6A9FAD4F899
:1051C000803160251A680A204AB383F6A1FAD4F820
:1051D00080310A20196811B383F69AFAD4F8803125
:1051E0000A201968D9B183F693FAD4F880310A20DD
:1051F0001A68A2B183F68CFAD4F88031043D1A689B
:10520000E1D142F0010260691A604FF48073836259
:105210000021012284F8A41184F8952186E7012257
:10522000F1E7204602F087FBA8E7204602F0AEF93E
:105230009EE700BFC36B2DE9F0410446002B39D037
:10524000D0F8B42813425ED1D8030DD5D4F84A184B
:1052500094F895314A1CC4F84A28002B40F04E813E
:10526000204601F005FFE36B5A061FD594F89451D0
:1052700025B994F88D11012900F03C814FF0FF35DC
:10528000636900211D620A46E068C3F89051C3F8C3
:105290009851C3F8A45188F631FC0022E068E2631B
:1052A00088F66CFE002840F0AB80E36BD90176D421
:1052B0000022E263D4F838312BB1D90300F13581F3
:1052C0000023C4F83831D4F83C3143B1DA0300D4B8
:1052D000FEE7204602F092FE0020C4F83C0194F85C
:1052E0008D3123B194F8A431002B40F0E580D4F83F
:1052F0003801E26B40EA020151EA03020CBF0020D0
:105300000120BDE8F081D0F87C21002A9CD01668ED
:10531000002E99D00025F007156019D4002E01DA6F
:1053200083F62EFBD4F8B828002A40F0D580E36B32
:105330009A0340F1C780C02202214FF40030C0F22E
:105340000312C4F8B818C4F8B408626322637BE798
:105350002846FEF73EFA20462946FEF7AFFE012317
:1053600094F8AC0684F88D3184F8A43128B1D4F8CF
:10537000A806FEF771F884F8AC56D4F88831626B51
:1053800043F0080121F00100D101C4F8880144BFB5
:105390006269C2F8A8012046FFF7C0FEBEE7626955
:1053A000D2F8A451D2F8A43143EA0501C2F8A411FD
:1053B000D4F8880105403FF47BAF2A0702D5204688
:1053C000FEF7DCFFEB0705D594F8843613B92046C9
:1053D000FFF7B4F9280641BFD4F8883123F08003E1
:1053E00043F01003C4F88831E90600F1A280616B34
:1053F000C80142BF6169D4F88821C1F8A82157E7E4
:1054000067694FF6B845C0F2070520463B6843F090
:1054100004063E60FFF7BAFAD5F85C80D4F8300194
:10542000C047AF68D4F83001B847AE6DD4F830014A
:10543000B0476D68D4F83001A847D4F83401C047AC
:10544000D4F83401B847D4F83401B047D4F8340163
:10545000A84763691122D3F8A40140F01001C3F8F2
:10546000A411606BC4F88821C00158BFD3F8A821EB
:10547000C3F8A821012284F88426196841F00400A9
:105480001860D4F80A28D4F86C08511CC4F80A181B
:1054900060B1D4F8125882F6F3FFD4F86C380021CA
:1054A000ED1AC4F86C182A18C4F8122882F6E8FF1E
:1054B000E36BC4F87408F9E62046FFF72FFED4F832
:1054C0003C3114E713F4407F08D1D4F8B408C0226B
:1054D000C0F20112024338E7E36BB5E601204FF456
:1054E00040714FF47072C0F20112C4F8B808C4F8E9
:1054F000B4182AE72046FEF741FFBFE62046FEF734
:10550000EFFF054640B994F89C0128B1D4F8980102
:10551000FDF7A2FF84F89C51636BD90142BF636918
:10552000D4F88821C3F8A8219AE6204602F090FD1D
:10553000C6E6D4F88821636942F0800C2CF0100193
:10554000C4F88811186882077FF551AF94F8842653
:10555000002A3FF44CAFD4F880261AB10026DA6452
:10556000C4F88066062100234FF48022E06804F02E
:10557000D8FC2046FFF7E2F8606BC50142BF6069C6
:10558000D4F88851C0F8A8510025D4F80E38D4F8C2
:105590001A685A1CC4F80E2882F672FFD4F87418E0
:1055A000C4F87458C1EB060C6044C4F81A0882F6BB
:1055B00067FFD4F80638D4F816685A1CC4F80628D1
:1055C000C4F86C0882F65CFFD4F87018C4F8705800
:1055D000761A3318C4F8163882F652FFC4F86C08ED
:1055E00005E700BF90F88C31FF2B0A4603D0C06856
:1055F000194605F089BA0846FEF704B9D0F8F41444
:10560000F8B54B680446D0F884022BB3836B9A78C4
:10561000012A21D90769028B8168D4F860513B685F
:105620008F88D4F85C61934288BFD219D31A2D6851
:10563000791E9AB2D6F800C08E1A052DB7B28CBF6B
:1056400000250125012F8CBF2F4645F001073E465E
:1056500017B9BCF1080F00D8F8BD01F0ADFC054644
:10566000002820D0D4F85021204629469368AF70F6
:105670006F700A27D3F804E02F70D4F884229F6853
:1056800013469268D288C5F804E06E812E81EF60DF
:1056900001F037FF2069D4F85011D4F8A828BDE8EC
:1056A000F84002F04BBFD4F8B0381A88501C18806C
:1056B000F0E700BF38B544690D461C220021D4F83C
:1056C00004057DF64FFCF5B1D4F8B008C1884A1C3A
:1056D000C28094F87A3113B1002084F87A01D4F8AA
:1056E000501119B1A068002205F044F900231946B1
:1056F000C4F850311A4684F87D36D4F80005BDE868
:10570000384082F6CFBCD4F850313BB1012220465C
:1057100084F87D26BDE83840FFF770BF38BD00BF74
:1057200010B590F87A31044613B1002180F87A114F
:10573000D4F8501119B1A068002205F01BF900201F
:105740000146C4F85001024684F87D06D4F80005ED
:10575000BDE8104082F6A6BC2DE9F84F8F1E4FF031
:105760006404B9B2D0F80895002304FB01F892460E
:1057700009EB080409F808300646E36CD968586854
:105780001D680A699A420A4608BF0861056052F816
:10579000085F1F689542786051D00025D6F87808D8
:1057A00019469D60DD6003F01AFDD6F8840201F011
:1057B00003FC074600284FD0182229467DF6D2FB6D
:1057C0000620387094F8311079703046A36CB4F824
:1057D00020C021467B60A7F80AC0A7F808A009F8F6
:1057E000085065832583FEF7D1FCE57784F8525095
:1057F0003046D6F88422394623691D6013469268E4
:10580000D28801F07EFE18B3D6F8802806F5086E1F
:10581000B4F822C02CF010037245638418BF2846E8
:1058200001D0BDE8F88FD6F87C12886B406900285B
:10583000F7D0304602F07FF82846BDE8F88F91E8AF
:105840000500106000200F687A600D614875A4E7BC
:105850004FF0FF30BDE8F88F6FF01A00BDE8F88F09
:105860002DE9F0410746D0F8840288461646D7F85D
:10587000085501F0A1FB044610B3A8F1020164230E
:105880001FFA81F81822002103FB08557DF66AFBF8
:1058900008223846227095F8311061702146D7F8F9
:1058A00084222F8CAB6C6360134667819268D28828
:1058B000268101F026FE18B16A8C22F0200068844F
:1058C000BDE8F0812DE9F04FD0F89072154695B003
:1058D0000646BB689F7992FBF7F30C4607FB132241
:1058E0002AB14FF6FF75284615B0BDE8F08F90F845
:1058F0007A01012800F0BD81D6F852081A18C6F8BE
:105900005228002DEFD0ED1B4AF6B51A4AF6BD1B02
:1059100006F50863C0F21D0AADB2C0F21D0B079375
:105920000597CDF820A02778FB1E0A2B00F24381B3
:10593000DFE813F008014101D9004101B000410145
:105940005A004101340041010B00D6F8F03422899D
:105950006168D3F80080B8F1000F00F09D81D8F89D
:1059600000001860D4F810C06769C8F80C70C8F857
:1059700008C05889471CD3F804C0C8F800C0C8F84C
:105980001010A8F81420C3F804805F81059FE91B5C
:10599000E4198BB2002DA6D01D46C4E7D6F8F43426
:1059A00022896168D3F80080B8F1000FD7D1D6F80A
:1059B000840201F001FB1822414681467DF6D2FAAD
:1059C0000A22A9F80C80A9F808200221304689F89B
:1059D00000104946D6F88472A9F80A803B46BA6896
:1059E000D28801F08EFDD1E796F87A110129CDD049
:1059F000D6F8F424B4F80E80B4F810A05368002B45
:105A000000F09881D6F8FC07C289273A424540F356
:105A1000F78003F052FA8146002800F09282D6F80F
:105A2000FC27D789D6F8A818283FBBB2002900F078
:105A30007281D6F8F414D6F8AC284F68B88A904230
:105A400038BF02469245D6F8507188BF2282002F97
:105A500000F03881D6F88402D4F8049001F0ACFA52
:105A60001822002180467DF67DFA032001220023C2
:105A7000A8F8080088F80020A8F80A30D6F8842290
:105A80003046C8F80490414613469768FA8801F0FA
:105A900038FD7BE721898B1E01298CBF0022012262
:105AA00098B2272888BF42F00102002A40F0DC802B
:105AB000D6F808354FF06407D4F804E007FB00334C
:105AC000C3F848E0D3F80CC01F69DCF800E0386880
:105AD000864500F0D8805F8C47F0200230465A841B
:105AE000FEF70CFC52E72189881E01298CBF002299
:105AF000012280B2272888BF42F00102002A40F02C
:105B0000BD804FF06407D6F8083507FB00FE13F898
:105B10000E707344002F00F0BA80D3F80CE01F69B8
:105B2000D4F804C0C3F848C03868DEF800C0844523
:105B300000F0C4805F8C47F0100230465A84FEF7B4
:105B4000DDFB23E7B4F81680A8F10200B8F1010FDD
:105B50008CBF002301231FFA80FABAF1270F88BFF8
:105B600043F001034FF00509002B5ED0D6F8840204
:105B700001F022FA804600283FF408AF04270021F4
:105B800018227DF6EFF988F80070617888F8011026
:105B9000D6F88422B4F816C063683046A8F80AC064
:105BA0004146C8F804301346A8F808909768FA8868
:105BB00001F0A7FCEAE6D6F88402032701F0FCF91D
:105BC0000021182280467DF6CDF90223002088F8B6
:105BD00000304146D6F88432A8F80C00A8F80A0034
:105BE00030469A68D288A8F8087001F08AFC4AF614
:105BF0008810C0F21D002146059A03F05BFAC5E645
:105C0000D6F88402D4F8049001F0D6F900211822C5
:105C100080467DF6A7F9032101200023A8F808108B
:105C200088F80000A8F80A3028E704F10807384689
:105C30000FA90A977DF682FC6422D6F8089502FB2C
:105C40000AFA19F80A30099309EB0A0C002B32D131
:105C5000E18B302918BF4FF0030900F08D803046EA
:105C60006146FEF793FA81E730460522FFF7F8FD1B
:105C70008CE6097809297FF43FAE32E630460522EA
:105C8000FFF76AFD82E63046FFF7EAFD7EE6304622
:105C90000122FFF761FD79E6D6F8840201F08CF964
:105CA0004146182281467DF65DF90B23A9F80C8048
:105CB000A9F8083089E64FF00409D0E73046FFF72D
:105CC0004BFD63E62833C6F850912146A9F80C3005
:105CD0002822D9F808007DF6C1F8012386F87A3128
:105CE000B8F1000F20D0D9F8081045F2B567D6F802
:105CF0000435C0F21807E069283158601846D4F816
:105D000018E0C3F800E0A3F80880D9601F615E6165
:105D1000FDF7B0FD3AE6D6F8F4149A4584BF9A46EA
:105D200023824868828A8DE686F87D363046FFF702
:105D300065FC2BE6D6F88402D4F80490069301F0B3
:105D40003BF9069F1822394680467DF60BF9012063
:105D5000092188F800003046D6F88422069BA8F86E
:105D600008104146A8F80A3013469768FA88C8F820
:105D7000049001F0C6FB09E604F10E076178306972
:105D800094F814E00C9701230097099A0A9FCDF824
:105D900018C00197CDF808E002F0B8FBDDF818C094
:105DA0000B90023000F0EC80A08BC00804F0A4FD42
:105DB000DDF818C0CCF84400002800F0E480A38B84
:105DC000D808CDF818C004F097FDDDF818C0CCF85D
:105DD0004000002800F0D780A08BC008CDF818C084
:105DE00004F08AFDDDF818C0CCF85400002800F05B
:105DF000D280099BACF85C30D6F8780803F0E0F963
:105E0000DDF818C0002800F0C680D6F87C18C0F86D
:105E100008C0CCF84C00237DC3EBC3070D9101EB08
:105E200087010997C16096F8C928002A40F0B6801A
:105E30001BF803E00B6943601A680260186007688A
:105E400078604B7D08611BBBD6F880380798984274
:105E50000FD096F8C928059F002A6CD003E01B6874
:105E6000079A9A4204D01A7D0898805C7045F6D251
:105E700005970120302748755B68CF820D98099FF0
:105E80001A6840F82720196050F827704B60796035
:105E90000127B4F816E0DCF80830A08BACF82080BD
:105EA000E28BACF8227098800CF12400DA80062294
:105EB000A3F800E0D4F82080C3F80880D4F824E0E8
:105EC000C3F80CE00C99CDF818C07CF6C7FFDDF8DC
:105ED000188006220A9908F12A007CF6BFFFDDF837
:105EE00018C0217D8CF830100B9962780020302387
:105EF00009F80A7011F40079ACF832008CF83120FE
:105F0000ACF834308CF81E103FF430AE0B9F0221F9
:105F100017F480798CF836103FF428AEBCF82220B4
:105F200042F004034FF00009ACF822301EE61B6873
:105F3000079898429CD01A7D1BF802007045F6D253
:105F400096E7D6F88402D4F804A001F035F8494663
:105F5000182280467DF606F80123022088F80030DA
:105F60004146D6F88422A8F808003046A8F80A90DE
:105F700013469768FA88C8F804A001F0C2FA05E54C
:105F80004FF001096BE6D6F8B0180F887A1C4FF075
:105F900002090A8063E64FF0020960E6089A12F8E7
:105FA00003E047E7704700BFF0B5023985B0002431
:105FB0000129039415461E460A9C87691CD84AF697
:105FC000A810C0F21D007DF681F84AF6A811C0F2B3
:105FD0001D01024628467DF681F868B9B868294651
:105FE00032469DF8307003AB0097FEF76BFF0CB1A3
:105FF000039B236005B0F0BD4FF0FF30F7E700BF13
:106000008B690146986902F0E9B900BF80691346BF
:1060100010B50C4601398068142911D8DFE801F069
:106020001D1D101010272710333310100B101010E7
:106030001010101212009978DA789B7902F0EEF8BD
:10604000002010BDA4F1140ED978DEF1000C4CEB49
:106050000E0202F09CF8002010BD9978A4F1010313
:106060005A4242EB030202F051F8002010BDA4F1A5
:1060700006029978D2F1000E4EEB0202073302F0CD
:10608000A4F8002010BDA4F109021979534243EB92
:10609000020202F05EF8002010BD00BF83690A46CC
:1060A000014698697FF612BE83690A4601469869DF
:1060B00002F048BA10B58469A068FEF7BFFC00B9C9
:1060C00010BDA068FEF7EEFCA068FFF7B3F820B99A
:1060D000A068BDE81040FEF7FBBC002104F11C00E5
:1060E0000A46BDE8104081F6DDBF00BF10B5446828
:1060F000A068FEF703FDA068FFF79CF820B9A06830
:10610000BDE81040FEF7E4BC002104F11C000A4683
:10611000BDE8104081F6C6BF70B50C6EE278A3787A
:106120009A4202D9013AD31A04E0247802B103B9A1
:10613000013CE31A4A8C12F04005DBB20BD0CA686E
:10614000488B126882423CBF8A689288101A984233
:1061500028BF184670BDD0F814211289D2B1B0F80A
:106160000048A24218D9101B4C8BCA688E8E156845
:10617000A5422FBFC4EB05048A689288C4EB0204D1
:10618000B04228BF3046984228BF1846A04228BFD8
:10619000204670BD104670BD284670BDF0B54E8BD0
:1061A000541E30198B689B8890FBF3F54F6D03FBF1
:1061B000150080B2C5087F5D00F0070557FA05F5A8
:1061C00015F0010F14D08D6D35F8101048040FD55F
:1061D000012A0CD0901E301890FBF3F603FB160337
:1061E0009BB235F813308B4202D0A2B200E00022FD
:1061F0001046F0BD0246002310B5194692F814452A
:106200003CB9242202FB03030122084683F814252B
:1062100004E0013324320A2BEFD1FF2040B210BD3D
:106220002423002203FB010383F81425704703692C
:10623000428B1B689A4205D3994208D3914206D2F9
:1062400041837047914201D3994200D34183704703
:106250002DE9F041438B466CDA08B15C03F007028C
:1062600051FA02F2D2073AD5C26812689A4201D3B3
:10627000D21A03E081688D88ED1AAA1895B2002120
:106280002AE082689488CA1892FBF4F7D0F840801C
:1062900004FB1722002A9446B8BF02F1070C02F053
:1062A00007074FEAEC0C18F80C8048FA07F818F0CA
:1062B000010F10D016F80CC04CFA07F717F0010FB9
:1062C00002D14283BDE8F081428B013292FBF4F7A8
:1062D00004FB1724448301318AB2AA42D1D3BDE81A
:1062E000F08110B5036E9A78DC78944201D9601E73
:1062F00003E0187804B102B90138801AC0B268B15D
:1063000051181878814201D1002100E005DA58784F
:1063100099705B6800FB023010BD002010BD8168E1
:10632000C988B2FBF1F1036ED87809181A78C9B29E
:106330008A42D97001D80022DA707047836BDA681C
:106340005868824208D00AB99A6800E052689160A1
:10635000DA609A7801329A707047D0F88C3230B592
:106360009B6B9B699D78587885421C788ABFC5EBEA
:106370000405C5EB00052D18651B012D08DD03EB99
:10638000C0050130A042A8BF002069602A72587081
:1063900030BD90F8BC28436922B1D3F8E02142F027
:1063A000020203E0D3F8E02122F00202C3F8E02168
:1063B000704730B54589158042680A60C2695A60E5
:1063C00042F0004281695A60049A19600389039C73
:1063D00013801BB1436963600369236030BD838D03
:1063E000C08D834296BFC0F14000C0EB0300C018CF
:1063F0007047D0F8F8341A6812B95960196002E091
:106400005A68916159609A6801329A6000238B61E1
:106410007047D0F8F834186870B15A6890429A689A
:1064200002F1FF329A6003D100225A601A6070476D
:1064300082691A600023836170470346F0B5C06823
:106440000688588B86429C6828BFC0EB0600A5884A
:1064500038BFC0EB050080B20880E0B19E6B3AB156
:10646000E788B2FBF7F27678B24228BF324600E006
:106470007278904228BF104608805E8BE288A06840
:106480000C883419AC42A8BF002402FB06005C83D0
:106490000B885A430A80F0BD70B18268D388B1FB83
:1064A000F3F149B10369188841189288914202DBDF
:1064B00000221A6070471960704770B50B8B0D6928
:1064C0008C68E088B2FBF0F22E689E4202D9DD4370
:1064D000AD1904E0A58806B103B9013DED1AADB2CE
:1064E000954209D3A56800FB03509B18A2889342EC
:1064F000A8BF00230B8370BD002070BDD0F87C3294
:1065000010B59A6B9278D2B11A69198B4C1C12682B
:10651000A24212D022B99B689B88013B99420ED0BF
:10652000D0F860311B68042B0BD9D0F85C311868A7
:10653000062894BF0020012010BD002010BD104689
:1065400010BD002010BD30B5838D5C1C04F03F04ED
:10655000856A8485DC002D196D680D60816A0C19CF
:10656000A1781170826A32F8330030BDF0B5958998
:10657000B2F85470DDF818C0059E079CACF80070A6
:106580001FB1D76C7760976C3760D68916F4005FBF
:106590000CD0B2F850604EB1C5F188062680166C5A
:1065A000546C751BD1F87862A91B05E0B1F878121C
:1065B0002180116C546C8839956B1D60D38923F44C
:1065C000005380E81200D381F0BD000010B50346EF
:1065D000A8B18268D088B1FBF0F181B15869928886
:1065E000DB681C886118914202DB00221A6000E01F
:1065F000196003490322BDE81040FEF781BA10BDBF
:1066000078563412F8B517469A681278432A044629
:106610000E46069D1FD0462A17D00E2A31D1D0F83B
:1066200084329B6B987800283ED0D4F8F0345868B8
:1066300018B9012384F8A038F8BD0023052084F898
:10664000A0381A4B2B60042324E0FFF757FF0028E3
:106650002AD0174B11E0D0F880321A6910681A8BD3
:10666000511C88421DD020B99968898801398A4215
:106670001AD09B6B9878B8B10E4B2B60072005237E
:1066800008E080681946012204F074F90023012013
:106690002B60F8BD9E4206D3874234BF0020012004
:1066A000F8BD0020F8BD0020F8BD00BFF94F18006C
:1066B000817A1800A377180070B590F88D310446E0
:1066C000002B4AD190F81005002846D1D4F8803824
:1066D00033E000221A769A6819E09168CD682E6836
:1066E0004D8BAE4203D314BF0025012507E08E6811
:1066F000B688C5EB060CDCF1000545EB0C052DB9A1
:106700004D8C45F002054D8401211976126803F184
:1067100008018A42E1D158B9DA8A2F2A0AD8197EAB
:1067200041B1023292B2312ADA8203D1302200E042
:106730000422DA821A7E1B68104304F50862934231
:10674000C7D150B194F8101539B9D4F80C050A46E0
:1067500081F6A8FC012384F8103570BD37B5002000
:106760008C68ADF806004D6824F07F4020F460008E
:10677000C5F31405401B072843DDA4F10800886019
:1067800088890830888102208874052104F8081C53
:10679000062104F8071C92F83600410718D506991F
:1067A00019B1CD0E05F00F0500E00D4645F00205CC
:1067B00021F0F04141EAC561069192F837100139A4
:1067C000C9B282F8371019B920F0040082F83600F7
:1067D000D908506D405C03F0070150FA01F1C90778
:1067E00004D5926D32F81320ADF8062006A90422D4
:1067F000A01F7CF633FBA01E0DF1060102227CF6E1
:106800002DFB3EBD2DE9F04188B01E4604AD0023AE
:1068100004460693072E8CBF37460827079390F847
:106820008D3185E80600DDF83880002B3AD190F8EC
:10683000BC3823B9012380F8BC38FFF7AAFD08ADA6
:10684000D4F84C3145F8088D53B10F9B06930823BB
:10685000D4F8300195E8060003F01CF8CDF8188054
:1068600095E806003B46D4F8300103F013F804AA7B
:106870000123009701930293D4F8300106CA03F074
:106880004FF8E38D5A1C02F03F02A16AE285DA005C
:10689000881821F833609DF844308370A36A9A18F1
:1068A000109B536008B0BDE8F0812DE9F041046809
:1068B000D4F8806823E0B5681CE0AF68B86DC0B15B
:1068C000B7F85C80B8F1000F10D104F021F8C7F8D8
:1068D000588094F8C538013B414684F8C538BB68F8
:1068E0009A88786DD2087CF63DFB02E00023A7F879
:1068F0005C302D6806F108039D42DED1366804F550
:1069000008639E42D7D194F8C5582DB9D4F8C00871
:10691000FCF7A2FD84F8C458BDE8F0812DE9F347E7
:106920000C46096ECA788B789A42054601D9571EE3
:1069300003E00F7802B103B9013F2846FF1AFFF7C1
:1069400059FCFFB2061EC0F2A180002F00F0978014
:106950002423628B214603FB06532846A3F8162501
:10696000FFF7DAFB002182B21DE0608B4018A368BC
:106970009B8890FBF3F703FB1700676C0028034626
:10698000B8BFC31DDB10FF5C424B0340002B03DA92
:10699000013B63F00703013357FA03F3D80701D52E
:1069A0008AB202E001319142DFDB002A67D028463B
:1069B0002146FFF7F3FB002861D0A3680DF1060123
:1069C000DA884243204692B2FFF737FD824600281C
:1069D00055D0A368BDF80670DB88B7FBF3F73946DE
:1069E0002046FFF77EFC4FF02408A3689B8808FB35
:1069F00006F805EB0806B6F81615CA19013A92FB17
:106A0000F3FE03FB1E22013B8146206C02F094FB47
:106A1000B9F1000F2DD0BDF80630A6F82435A368D3
:106A200006F5A260C6F828950C30DB68C6F820355C
:106A3000194BC6F82C3506F5A2630433C6F81CA51D
:106A4000C6F830350023C6F8184586F82635C6F84E
:106A50003435FCF70FFF94F82030023B85F87C3684
:106A6000E37FFB18E377B5F80038FB18A5F800388A
:106A700001E0ADF806902046FFF7EAFB07E020466C
:106A8000FFF7E6FB2846F1B2FFF7CAFB00273846BE
:106A9000BDE8FC8707000080037F1800CB680A6907
:106AA0001B681268934208D04A8B934217D14B8ED1
:106AB000002B14D1CB7F002B11D14B8C23F0400342
:106AC0001B041B0C13F020024B8403D0098C002202
:106AD000FEF7C6BEDB0604D5098CFEF73DBEFFF708
