:1000000098F13EB899F1E4BA99F1F0BA99F1FCBAD5
:1000100099F10BBB99F11ABB99F129BB99F138BB46
:1000200098F13EB899F1E4BA99F1F0BA99F1FCBAB5
:1000300099F10BBB99F11ABB99F129BB99F138BB26
:10004000FAFAFAFAFAFAFAFAFAFAFAFAFAFAFAFA10
:10005000FAFAFAFAFAFAFAFAFAFAFAFAFAFAFAFA00
:10006000FAFAFAFAFAFAFAFAFAFAFAFAFAFAFAFAF0
:10007000FAFAFAFA44425050583C1E000080190027
:10008000DFF844804FF00009B8E8FF00A9E8FF005E
:10009000EFF300804FF01F0120EA01004FF0D10183
:1000A00040EA010080F30089DFF820D0EFF3008000
:1000B0004FF01F0120EA01004FF0DF0140EA01008C
:1000C00080F300890248004720801900602A1E0042
:1000D0008D971900000000000000000000000000E3
:1000E0000000000000000000000000000000000010
:1000F0000000000000000000000000000000000000
:1001000077881B00D3881B006D821B00E57F1B00D6
:10011000317F1B0079801B00EF7D1B00CB7E1B0015
:10012000B17D1B00CB7D1B0019831B00D97D1B00FB
:1001300019881B00C57D1B00B1861B00299719007B
:100140002597190021971900199719004D97190043
:10015000C5A11900C5A11900C5A11900C5A11900A3
:10016000C5A11900C5A11900C5A11900C5A1190093
:10017000C5A11900C5A11900C5A11900C5A1190083
:10018000C5A11900C5A11900C5A11900C5A1190073
:10019000C5A11900C5A11900C5A11900EFCF19000B
:1001A0000DCA1900FBD0190021CB1900ABCF1900E3
:1001B0000DD11900BBD4190029D5190035D2190069
:1001C00079CA1900E5CA19002DD519002FD51900D3
:1001D000CFD0190027D51900C5A11900C5A1190054
:1001E00035A91C0013D81C0031CA1C00E1F21C0008
:1001F000B9D51C0067D41C00EBFC1C00F9CD1C0019
:100200006FCA1C0081E91C0005DB1C00C5A1190098
:10021000C5A1190079CF1C002DCF1C0081CE1C0078
:1002200011CE1C000BCE1C008DED1C00C9FC1C0067
:10023000A1E01C00D7DF1C0087CA1C0085DF1C0062
:10024000DBFC1C0031CD1C005BCA1C0065CA1C0015
:1002500071D61C0059CA1C00BBD71C00B7D71C00A4
:10026000B5D71C0001E31C006DDA1C0019CE1C0080
:1002700051CD1C008DDF1C00CFF81C00B1F81C0014
:10028000BDF81C005BCD1C00D5E21C0061E81C0021
:1002900061D41C0053CA1C00C5A11900E7FC1C0056
:1002A000C5A1190027DA1C00C5A11900B9FC1C0062
:1002B00017CE1C0069DF1C005DDF1C0095CD1C0003
:1002C00091DF1C00C5A11900C5A11900C5A1190025
:1002D000C5A119007DEE1C00C1CF1C0019D51C0062
:1002E00025D41C0019D41C0069D41C0071D41C0036
:1002F00037D41C009DD31C00E9CF1C0031D41C0056
:10030000FDEA1C00999B1900C5A11900A19B1900C9
:10031000C5A11900C5A11900C5A11900C5A11900E1
:10032000C5A1190099A51900C5A11900C5A11900F9
:10033000C5A11900C5A11900C5A11900C5A11900C1
:1003400065BB190071BB1900E1BC1900C5A11900FA
:10035000C5A1190045181A0009011B0025021D003E
:10036000A39A1900C99A1900899B1900AD9B19001D
:10037000BD9C1900DDA11900C5A1190025A6190011
:10038000C5A1190027A619002DA61900B5A61900A8
:10039000ADA91900DDA919000DAB1900C5AC1900F4
:1003A00043AF190091AF19006DB21900C5B619001D
:1003B00045B81900F5B819004DBA19009DBB1900D0
:1003C00019BC1900F7BC190065BD190081BD1900E1
:1003D0009DBD1900B5BD1900CDBD1900E1BE1900C4
:1003E00051C119003DD6190043D6190047D619004E
:1003F0004DD6190091D61900CDD61900E1D61900B5
:10040000A5EE190061EF1900B1F01900CDF0190047
:1004100019F2190065F21900C1F7190065F6190003
:1004200079F6190031F81900C5A1190065F919000C
:1004300067F9190093F91900B1F9190007FA1900C1
:100440000BFA190021FA19003BFA19006DFB19008B
:1004500089FC1900A5FF190097021A009F031A00D2
:100460000F041A002B041A007D061A00BD061A009C
:1004700069091A00090F1A00B1101A00F5101A00C4
:10048000F5131A00F5151A0061181A00811A1A00DE
:100490008D1A1A00951A1A00C51A1A004D2D1A0045
:1004A000B5301A00A9341A0013351A0059361A004B
:1004B0009D361A00C5A11900153D1A007D401A008D
:1004C00009411A00F1421A004D4E1A00C14F1A009C
:1004D000FD4F1A00ED511A0059641A00D9531A0041
:1004E000F5641A00E9541A00C1571A00DF571A00C0
:1004F000ED571A0001591A005B591A0077591A0072
:100500002D611A004B6A1A00256C1A0081761A00B8
:1005100029861A003D881A00C18A1A00C98D1A005E
:100520007D921A0005961A006D991A00C99A1A0050
:10053000ADAC1A0069B21A0051B51A0055BA1A00CA
:10054000A5C31A0039CE1A00D1D01A0085D41A00DA
:10055000C5A11900C5A11900BDD61A00C5A1190071
:10056000C5A1190031E41A0009E61A0003EA1A00CD
:10057000C5A11900C9F51A000DF71A0045F81A00AF
:1005800053021B0067071B0001101B0015131B0003
:1005900049181B00351E1B0029211B0059241B0074
:1005A00045291B0099351B00F1371B008D391B00B5
:1005B000C5A11900C5A11900473A1B00C53D1B0084
:1005C000933F1B00C13F1B0021491B00934D1B00A3
:1005D000B74D1B00BD4D1B00F54D1B00494E1B00C8
:1005E000954E1B00E34E1B001D4F1B0035691B0081
:1005F000556F1B0095721B00898C1B00BD901B0062
:10060000B9981B00819B1B001DB41B009D031D009E
:1006100025121D004D131D0001181D000D181D0091
:100620002B181D007D181D00AF181D00F3181D00AC
:1006300097191D003F1B1D00431B1D00551D1D006C
:10064000591D1D00C5A11900611D1D0035241D0087
:10065000C5A11900C5A1190047421D002F4F1D005B
:10066000000100000000000820000000000200005F
:1006700004000000FF030000500000000100000023
:100680000400000001000000010000000100000063
:1006900001000000E8030000040000000A07080051
:1006A0000100000001040000040004000800010033
:1006B000000000000000000000000000000000003A
:1006C000000000000000000000000000000000002A
:1006D000000000000000000000000000000000001A
:1006E000000000000000000000000000000000000A
:1006F00000000000000000000000000000000000FA
:1007000000000000000000000000000000000000E9
:1007100000000000000000000000000000000000D9
:1007200000000000000000000000000000000000C9
:1007300000000000000000000000000000000000B9
:1007400000000000000000000000000000000000A9
:100750000000000000000000000000000000000099
:100760000000000000000000000000000000000089
:100770000000000000000000000000000000000079
:100780000000000000000000000000000000000069
:100790000000000000000000000000000000000059
:1007A0000000000000000000000000000000000049
:1007B0000000000000000000000000000000000039
:1007C0000000000000000000000000000000000029
:1007D0000000000000000000000000000000000019
:1007E0000000000000000000000000000000000009
:1007F00000000000000000000000000000000000F9
:1008000076F13ABD000000005FF1E0BD000000009D
:100810005FF1E0BD0000000095F150B9000000005C
:1008200095F104BB0000000095F168B900000000DC
:1008300094F17EBF0000000095F1CCB800000000EC
:1008400094F14ABD0000000091F110BF00000000CB
:1008500074F156B90000000086F106BE00000000E9
:1008600084F1C4BB0000000081F12EBA000000003A
:1008700081F124BB0000000080F1ACBE000000004C
:1008800080F1BEBD0000000080F146BE0000000007
:1008900080F11DBC0000000080F1A0BE000000003F
:1008A00080F1E0B80000000080F13EBA00000000D6
:1008B00084F12ABF0000000084F1C2BB00000000E8
:1008C00082F12ABB000000007BF1D2BB00000000D7
:1008D0007AF116BD000000007FF18AB90000000027
:1008E00078F196BD0000000078F194BD0000000092
:1008F00076F12AB90000000074F1FCBC0000000091
:1009000074F1CEBB0000000074F136BB00000000A3
:100910006FF1D6BD000000006FF1BCBA000000000E
:100920006EF1FCBE0000000071F1D0B900000000C3
:100930006CF104BD000000006BF1EEBC0000000093
:100940006BF18CB9000000006AF1E1BA0000000010
:1009500069F162BE0000000069F100BE0000000005
:1009600069F182BA000000006BF19DBE000000003A
:1009700069F197BF0000000069F1CDBB00000000E5
:1009800069F106BC0000000068F1E6BE000000004E
:1009900069F144B80000000065F1C5B8000000002E
:1009A00064F14FB80000000060F134BD00000000A9
:1009B0005FF18ABD000000005FF18EBB0000000007
:1009C0005EF1BCBD000000005EF168BE00000000EA
:1009D0005EF166BE0000000064F166B80000000031
:1009E0005DF1B6BB000000005DF122BA000000001E
:1009F0005DF1B2B8000000005CF19DBC0000000099
:100A00005EF1EEBC000000005BF1B0B80000000039
:100A10005AF1AEBA0000000058F17CBE00000000A0
:100A200077F118B90000000074F1B4B900000000BB
:100A30007DF1C8BA0000000063F1B6BF00000000FD
:100A400056F1DEBF0000000057F182BB000000003D
:100A500055F158B90000000055F194BA00000000AB
:100A600054F1B3BA0000000053F1BEBC0000000016
:100A700053F186BC0000000053F17ABC0000000076
:100A800053F13DBD0000000052F17ABD00000000AE
:100A900052F106BB0000000071F11CBD0000000017
:100AA0005FF18AB8000000005FF13AB80000000072
:100AB0005EF17ABF0000000074F191BD00000000FB
:100AC0005EF16DBE0000000070F14ABD0000000044
:100AD00072F188BF000000006FF17ABF00000000D3
:100AE00074F136BB000000005CF1A9B90000000001
:100AF00077F1FCBF000000005EF124BD00000000A3
:100B00006CF15CBC000000006AF112BF0000000044
:100B10006AF10BBF0000000055F1E2BC00000000CC
:100B200055F1A4BC0000000053F1E8BD0000000036
:100B300075F126BF0000000051F1C2BD00000000A9
:100B400050F1C2BF0000000050F1EEBD00000000F7
:100B50004CF1E4BB000000004CF17CBB0000000045
:100B60004BF13EBF000000004CF1EAB8000000006D
:100B70004BF1ACBB0000000072F1DFB800000000D8
:100B800048F126B80000000047F1D8BB0000000083
:100B900047F12EBB0000000047F136BB000000000B
:100BA00047F124BB000000005EF1FFBF0000000021
:100BB00046F140BE0000000053F175BC000000008B
:100BC00043F152B80000000043F18CBA000000006D
:100BD00042F18FBF0000000042F194BF000000000E
:100BE0000000000000000000000000000000000005
:100BF00000000000000000000000000000000000F5
:100C000000000000000000000000000000000000E4
:100C100000000000000000000000000000000000D4
:101000005074030004000000008819000C6C0500F7
:101010000400000008881900106C0500040000009E
:1010200010881900E065000004000000188819000D
:10103000306900000400000020881900FC6D0000E9
:101040000400000028881900B870000004000000A7
:10105000308819001471000004000000388819005D
:10106000887500000400000040881900A880000076
:10107000040000004888190068A203000400000072
:10108000508819005C6F01000400000058881900A6
:1010900098940100040000006088190004CD01004C
:1010A000040000006888190028D101000400000035
:1010B0007088190008D50100040000007888190024
:1010C000A8D601000400000080881900D8D60100CD
:1010D0000400000088881900D8D70100040000002F
:1010E00090881900B4D90100040000009888190004
:1010F000E4DE010004000000A088190020E00100E7
:1011000004000000A8881900880002000400000004
:10111000B08819006803020004000000B8881900B4
:10112000E03C020004000000C0881900984802005A
:1011300004000000C8881900645302000400000085
:10114000D0881900D870020004000000D888190067
:101150001074020004000000E088190030760200DC
:1011600004000000E8881900BC6F030004000000C0
:10117000F0881900908A030004000000F888190024
:10118000E88D030004000000008919002C99030079
:10119000040000000889190068050400040000002C
:1011A00010891900240E0400040000001889190099
:1011B000941604000400000020891900581D040042
:1011C0000400000028891900043C04000400000009
:1011D0003089190050890400040000003889190082
:1011E000DC93040004000000408919002C940400E2
:1011F000040000004889190088A1040004000000D0
:10120000508919004CA304000400000058891900FB
:10121000F4A60400040000006089190004490400D9
:10122000040000006889190008B0040004000000F0
:101230007089190068B4040004000000788919005E
:10124000CCB7040004000000808919003CBF0400F2
:10125000040000008889190034C104000400000063
:1012600090891900E8000500040000009889190021
:10127000D011050004000000A08919007855050070
:1012800004000000A8891900086805000400000097
:10129000B0891900106B050004000000B88919001E
:1012A0005C7C050004000000C089190028A305002B
:1012B00004000000C889190078A30500040000009C
:1012C000D08919002812050004000000D8891900EF
:1012D00038B9050004000000E089190008BD0500C8
:1012E00004000000E88919000CC10500040000009A
:1012F000F0891900E0C7050004000000F889190012
:10130000FC7D050004000000008A190084E105004E
:1013100004000000088A1900A8EF0500040000007E
:10132000108A1900700B060004000000188A1900CA
:1013300060F7020004000000208A19002CF8020067
:1013400004000000288A19007CFA02000400000052
:10135000308A1900E414050004000000388A1900DE
:10136000E438060004000000408A1900B83A06007C
:1013700004000000488A1900E45006000400000040
:10138000508A19005451060004000000588A1900C0
:101390004865060004000000608A1900E86A06003B
:1013A00004000000688A1900706B06000400000049
:1013B000708A1900206C060004000000788A190069
:1013C0000C78060004000000808A1900E4880600FA
:1013D00004000000888A19000C9406000400000034
:1013E000908A19006C00030004000000988A19001C
:1013F000A80D070004000000A08A1900EC0E0700E9
:1014000004000000A88A19008C0F070004000000E7
:10141000B08A1900EC03030004000000B88A190028
:101420006014070004000000C08A1900F0040300E3
:1014300004000000C88A1900180603000400000018
:10144000D08A19004407030004000000D88A19005C
:10145000B807030004000000E08A1900283F0700D5
:1014600004000000E88A1900780903000400000065
:10147000F08A190084A4050004000000F88A19000D
:10148000B45C040004000000008B19001C60040020
:1014900004000000088B19005061040004000000E3
:1014A000108B1900DCAD070004000000188B190038
:1014B0004CAF070004000000208B1900A8CF0700E4
:1014C00004000000288B19007C26030004000000A3
:1014D000308B19002C0D080004000000388B190017
:1014E000CC1E080004000000408B190050230800A7
:1014F00004000000488B1900C870080004000000B8
:10150000508B19006476080004000000588B190005
:10151000D07B080004000000608B1900707E08007A
:1015200004000000688B19009C7F08000400000084
:10153000708B19001C32030004000000788B190026
:1015400064C2080004000000808B1900C8CC0800A9
:1015500004000000888B1900E4CE0800040000009D
:10156000908B1900FCCE080004000000988B190035
:1015700010CF080004000000A08B1900EC0F07003A
:1015800004000000A88B1900C0DA08000400000065
:10159000B08B1900946C060004000000B88B190091
:1015A0006C1B090004000000C08B1900701B0900AF
:1015B00004000000C88B1900F41C0900040000009E
:1015C000D08B1900381D090004000000D88B1900C9
:1015D0002DE81FC0AFF31F8101B400B586B0FFB482
:1015E00080EA000000F1010000F063B82DE81FC0A0
:1015F000AFF31F8101B400B586B0FFB480EA0000EC
:1016000000F1020000F055B8F54681B0EE462DE835
:101610001FC0AFF31F8101B400B586B0FFB480EAEC
:10162000000000F1030000F044B8F54682B0EE4639
:101630002DE81FC0AFF31F8101B400B586B0FFB421
:1016400080EA000000F1040000F033B8F54681B0F4
:10165000EE462DE81FC0AFF31F8101B400B586B080
:10166000FFB480EA000000F1050000F022B8F54662
:1016700081B0EE462DE81FC0AFF37F8701B400B5FF
:1016800086B0FFB480EA000000F1060000F011B857
:10169000F54681B0EE462DE81FC0AFF37F8701B459
:1016A00000B586B0FFB480EA000000F1070000F04A
:1016B00000B86C4604F140040ACCEFF300820FB48A
:1016C000A4F10C04216003F040016F4607F15807B4
:1016D00066465D4654464B46424612B0FCB48CB05A
:1016E000062802D1402900D061B60A4C2468002C9B
:1016F000FED06846A04773B60CB07FBC80468946D2
:1017000092469B46A446B6468FB0FFBC08B0BDE9E2
:1017100000C00000BC291E0062B6704764B6704766
:1017200061B6704772B6704772B6704719EE1C1FEB
:10173000044A41EA020109EE1C1F034909EE3C1F5D
:1017400070470000010000000000008019EE1D0F2E
:10175000704715EE100F704716EE100F704715EE1C
:10176000300F704716EE500F70470000024A1168A4
:101770001060084670470000BC291E00024A11682C
:101780001060084670470000642A1E0000F0D0F880
:1017900039480168394A02EA0102394941580A6860
:1017A000384B03EA02030F2B00F00580012B03D016
:1017B00001F10401F3E7FEE701F10801324B03EA0E
:1017C0000203324CA342EAD100F044F9804600F013
:1017D00051F9814649462E4BCB5800F0E9F879463D
:1017E000B14240F1028000F05BF9404629490860AF
:1017F00048462949086000F0DBF828490D6028496F
:101800000E6028490F603D46274828494FF00002E6
:1018100004C08142FCD8A5F10405AD46009D6FEAE5
:1018200005044FF0100365FA03F5AC4240F0178051
:101830004FEA14444FEA84041D4D2C606B46A3EB21
:1018400004031C4E1C4D2E60002C00F00880194D26
:1018500005EB040680CB80C5AE423FF7FBAF81B0FD
:1018600068464FEA10104FEA001085461348864636
:10187000134C2047FEE7000000000018F8FF0000AE
:10188000FC0000000F00000000FF0F00003E0800F9
:1018900008040000C4291E00C8291E00D4291E0007
:1018A000D8291E00DC291E00CC3B1E00A4431E00CC
:1018B000F0291E0014B61F00E4291E0074981900B8
:1018C00023BB190011EE100F20F00100BFF34F8F62
:1018D000BFF36F8F01EE100FBFF34F8FBFF36F8F0A
:1018E000704700BF11EE100F40F00100BFF34F8FA3
:1018F000BFF36F8F01EE100FBFF34F8FBFF36F8FEA
:1019000000BF704700BF2DE90140FFF7DBFF01BCBE
:1019100006EE120F06EE111F42F0010206EE512FE5
:1019200006EE913FFFF7DEFF5DF804FB00BF00000D
:1019300010EE900FC0F30721002900F01D807246C1
:10194000FFF7C0FF9646174C80EA00000ECC002936
:1019500000F00B8006EE120F06EE511F06EE112F5F
:1019600006EE913F00F10100F0E7002800F004804E
:101970007246FFF7B7FF9646704700BFAFF300808F
:101980003F000000000000000503000037000000D9
:10199000000000000F030000000000000000000035
:1019A0000000000080991900AFF30080AFF30080C1
:1019B00041464A681346204C03EA04034FEA1313D6
:1019C0001E4C02EA040216461A441D484FF0000558
:1019D00008644B6C1B4C03EA040303F101031A4C2B
:1019E0001B4603FB04F31D4400F101009042EFDBB2
:1019F000002D3FF4E0AE154D414632464FF0000653
:101A00000F4808644B6C0F4C03EA040303F1010315
:101A10000D4C1B4603FB04F31E4400F101009042F1
:101A2000EFDB19EE112F0A4902EA0102A2EB0602CE
:101A300005EB020716467047F00000000F0000009B
:101A4000000000003F0000000020000000800C00AB
:101A500000F0FFFF0868054A01F1040102EA0002F4
:101A6000052AF7D1024A00EA020070470F00000081
:101A700000F0FFFF0868074A01F1040102EA0002D2
:101A8000052AF7D1044A1042F4D0044A00EA0200C1
:101A9000704700000F0000008000000000F0FFFF12
:101AA000FEE730B5002306E0C55CCC5CA54206D35A
:101AB00003F1010306D89342F6D1002030BD4FF068
:101AC000FF3030BD012030BD032A2DE9F04F8346A1
:101AD0004DD9484010F003004BD14B4203F00303B3
:101AE000D21A03E00C5C0BF8004001309842F9D1A7
:101AF0001F2A0BEB000301440AD922F01F0008182B
:101B0000B1E8F017A3E8F0178842F9D802F01F02F5
:101B100090080138062827D8DFE800F004090E13E2
:101B2000181D220008681860043104331CE0B1E875
:101B30001100A3E8110017E0B1E83100A3E831007B
:101B400012E0B1E87100A3E871000DE0B1E8F10026
:101B5000A3E8F10008E0B1E8F110A3E8F11003E018
:101B6000B1E8F111A3E8F11102F0030202E003462B
:101B700000E05B46002002E00C5C1C540130904207
:101B8000FAD15846BDE8F08F00487047CC3B1E00A4
:101B900000487047103C1E00004870472C3C1E0057
:101BA000004870471C3C1E0003F09ABF01232DE93A
:101BB000F74F8B40B3F5001F28BF4FF40013042BE1
:101BC00038BF04230330019320F00304FFF7E0FF44
:101BD000354B00221546D3F800B09446134627E053
:101BE000D1F800A0A24522D301F10807019E07EB1E
:101BF0000A08C6F10009C4EB080609EA0606BE4257
:101C000015D3DDF8049009F1FF3919EA070FCDF873
:101C1000009002D0F71B072F09D9C4EB0A075F45D4
:101C200005D2424635466FB1BB4684460B46084650
:101C300041680029D4D13BB91C4A184611680131CA
:101C400011602FE084460B46521B111B072909D94E
:101C500018682A19401A08391860295159685160C2
:101C60005A6022461968891A072903D85A68CCF89D
:101C7000042004E05A50A1F108021A605B180C48D5
:101C8000002219685A6002688A18026009480168CF
:101C9000083101608918084A1068814203F1080080
:101CA00088BF1160BDE8FE8FC8861900EC86190058
:101CB000C486190008871900183C1E0038B5194B56
:101CC000054650F8082CA0F1080419688A1A1A6011
:101CD000154B1A68083A1A60FFF75AFF02E0A34250
:101CE00003D218464368002BF9D155F8082CA918DF
:101CF0008B4205D119685B685218083245F8082CE8
:101D00006360036803F108028218A24207D155F804
:101D1000082C9B18083303606368436000E044604C
:101D2000002038BDC48619000887190010B50021AD
:101D30000446402269F658FD104B2360104B636047
:101D4000104BA360104BE360104B2361104B636199
:101D5000104BA361104BE361104B2362104B636285
:101D6000104BA362104BE362104B2363104B636371
:101D7000104BA363104BE36310BD00BF008019003C
:101D800090521D0090521D00B0291E00B0291E0067
:101D9000CC3B1E00CC3B1E00A4431E00A4431E00EF
:101DA00000FE1F0080232000D8F12000D4801900FD
:101DB00000811900008019000080190070B590B0F2
:101DC0006846FFF7B3FF314E3178002942D10898B9
:101DD000099C241A06D0224669F606FD0898214679
:101DE0006EF61EF922462A482A4969F623FD0E9806
:101DF0000F9C241A0BD02246002169F6F5FC2146DF
:101E00000E986EF60DF92248234922460EE00C98F2
:101E10000D9D2D1A0CD02A46214669F6E5FC29466F
:101E20000C986EF6FDF81A481C492A4669F602FD20
:101E300000221B4B01241A7034706DF669FF194B98
:101E40001968F1B10B78E3B1174B2246186801F01D
:101E500015FF16E0154D297899B90A980B9C241A9C
:101E600006D0224669F6C0FC0A9821466EF6D8F8DC
:101E7000074822460E4969F6DDFC00233370012332
:101E80002B706DF645FF10B070BD00BF288719009C
:101E90008A5D1D0080AA0900BD5D1D00BCAA090065
:101EA000283C1E00CC861900FC861900343C1E001C
:101EB00002B00900014B1868704700BFD4291E000A
:101EC000014B1868704700BFD8291E0008B5836A07
:101ED00033B10023836280F8203010306EF6CCF8E6
:101EE000012008BD70B5234E306808B17BF6EEFEC8
:101EF00001206EF6F9FB01206EF62EF8012419E0A0
:101F00001D4B1C6809E0E3681D4205D025EA030566
:101F100063680BB1A068984724680DB1002CF2D11A
:101F20006EF624F8154D044628686EF6C5FB286841
:101F300000F078FB30687CF63BFB114B1D680540D8
:101F4000DED1002CDCD10F4D2B6823B11B6813B1FF
:101F500058686EF617FD2B6823B11B6813B15B68D8
:101F6000002BE7D000206DF6F7FF0020BDE87040A1
:101F70006EF6BABB18871900F0861900E0861900C2
:101F8000F4861900208719002DE9F04F9DB00AA8AA
:101F9000FFF7CCFEFFF78EFF744EDFF82082DFF8EC
:101FA00020A2734F0446FFF78BFF0A9B0B9A0F99F1
:101FB000D21A0E9B0D9DC3EB01091199109BCB1AF0
:101FC0000C99C1EB050B93443268D8F8001002F568
:101FD0000052521A4A44D2185A441419DAF80050DE
:101FE000241864480994644C2268AD183A68089330
:101FF000C5EB020CCDF81CC069F61CFC089B09F56A
:102000007E710193073103F57E7307330BF57E7202
:102010009B0A890A073202930823920A00915946C3
:1020200003934B46554869F605FC33682068DDF894
:102030001CC03968019000F57E70039303F57E7330
:102040000CF57E760730073301F57E720736800A7D
:102050009B0A0732B60A920A0290049363464848E4
:10206000009669F6E7FB099905F57E72073201F5DE
:102070007E730733920A9B0A294600934646099BC2
:10208000404869F6D7FB404B404F4148196869F614
:10209000D1FB39683F4B0A689A4203D03E4869F643
:1020A000C9FB25E01A910B4604E01568131D394859
:1020B000854203D11A461BAB9A42F6D31AAD336858
:1020C00000932B4635481A9269F6B4FB3B681A9A7E
:1020D000E91AD31A32480A46009369F6ABFB336813
:1020E0001A9A591B9B1A2F480A46009369F6A2FBBD
:1020F0002D4B1B684BB31A783AB35989DD8901FB24
:1021000005F61A8938354D4306F57E73073327489F
:102110009B128DE8280005F57E7307339B1202930E
:10212000334669F687FB2368DAF80020991B9B1871
:102130005B1B03F57E70073001F57E72800A073263
:102140000090920A1A4869F675FB1A4B1D686EF6E4
:1021500047F904466EF63EF92946224603461648DC
:1021600069F668FB1DB0BDE8F08F00BF183C1E008B
:10217000C8861900C85D1D00C4861900D75D1D0002
:10218000165E1D005B5E1D00EC8619000C3C1E00F7
:10219000965E1D004B415453B15E1D00D55E1D007F
:1021A0000C5F1D00315F1D00CC861900575F1D00BC
:1021B000845F1D00E8861900AC5F1D00243C1E00F2
:1021C0000887190008B57146034869F633FB0120FA
:1021D000BDE8084000F0CCB8D45F1D002DE9F34104
:1021E00007460C466EF6FCF810B96EF6FFF83AE0BA
:1021F000002620460DF106016A46ADF8066007F19B
:10220000030800966EF6C0FD009D28F0030840F616
:10221000380345449D4226D82DB328463146FFF762
:10222000C5FC0446F8B13146009A69F6DDFA009B18
:10223000A7812046ED1AE218C8EB050802EB080357
:10224000013DA360636862F3140363601B0C65F3D4
:102250004F13E3806EF6A8F80123A3702080BDF829
:102260000630E38104E0044B00241A6801321A604E
:102270002046BDE8FC8100BF3487190038B5002135
:1022800005468089FFF7AAFF044620B18068AA8925
:10229000A968FFF719FC204638BD000010B5426858
:1022A0000123CC1CC2F314028370C38802EB5312C7
:1022B00083680132818100215B0D5B05D218074BD9
:1022C0002340D31A28228360C38903F40C53C381AB
:1022D0001030BDE8104069F687BA00BFFCFF01006E
:1022E00038B50446E389590621D4A278013AD2B21E
:1022F000A270002A27D1E27862B1134B204653F82E
:102300002250E989FFF7CAFF21462846BDE8384038
:1023100001F0A4BCDA0516D40C4B2046A36021883A
:102320006EF66CF82046BDE83840FFF7C7BC074B97
:102330002046A3602188A56B6EF660F82046FFF763
:10234000BDFC2C46CEE738BD503D1E00EFBEADDED5
:1023500010B507E0054B828A1B6853F82240FFF74F
:10236000BFFF20460028F5D110BD00BFC086190070
:1023700010B504466EF682FC0CB100231B60064BC0
:10238000002118686CF626FB044B1B6803B19847C4
:102390006EF674FCFEE700BF188719003C87190031
:1023A0002DE9FF474B4B0446D8620368042B03D149
:1023B000494B18687BF68AFC2368062B04D104B0CD
:1023C000BDE8F047FFF78EBD444B454E656C1B687A
:1023D000F1693268C5EB030A424869F62BFAA36C2F
:1023E00000932246636C4FEA9A0A0193A368029312
:1023F000E36803933C48E36C216869F61BFA2368A1
:10240000042B07D1FFF7A5F90746FFF7A5F9024608
:10241000364808E0032B09D1FFF7A1F90746FFF77B
:10242000A1F902463248394669F604FAE36904F133
:10243000100100930027236AB9460193B846636AE6
:102440000293A36A03932B480EC969F6F3F9A36BB1
:1024500004F12C010093E36B0193236C0293264853
:102460000EC969F6E7F9EB680093244895E80E0079
:1024700069F6E0F905F11001EB69009320480EC9F7
:1024800069F6D8F918E07A59D3070FD5FF2A0DD984
:102490001C4B9A4204D902F16243B3F5801F05D860
:1024A0001948394669F6C6F909F101090437B9F145
:1024B0000F0F08F1010801D8D045E4D1336800209E
:1024C00043F4806386E8180004B0BDE8F047FFF7E6
:1024D0004FBF00BF583C1E0018871900DC291E00A2
:1024E000383C1E00E35F1D00F95F1D002E601D00DB
:1024F00042601D0056601D0089601D00B8601D000F
:10250000D6601D0090521D00F4601D00FFF748BF0B
:102510002DE9F34198461B4B0D46064614461F68AD
:102520001948BF1A69F686F931462A461748002528
:102530002346CDF80080BF0869F67CF9A8462E46F0
:1025400017E02A59D1070FD5FF2A0DD9104B9A420F
:1025500004D902F16243B3F5801F05D80D4829461E
:1025600069F668F908F1010801360435B8F10F0F72
:1025700001D8BE42E5D1002002B0BDE8F041FFF72E
:10258000F7BE00BFDC291E0000611D0018611D00A0
:1025900090521D00F4601D00014B1868704700BF89
:1025A000E0291E008842F0B51DD8E2B1F3B10D1A42
:1025B000002400E001346D08FCD10127013817FA2E
:1025C00004F6C6F1000C35180CEA0505AE198E426A
:1025D00005D9013C17FA04F14D4208180540156071
:1025E00000201C60F0BD4FF0FF30F0BD4FF0FF3019
:1025F000F0BD072870B50FD8151F1B2D0CD801266C
:10260000551C16FA05F5013D15EA010407D1B24043
:10261000FFF779F9204670BD4FF0FF3070BD4FF0E5
:10262000FF3070BD704700207047000070B590F813
:102630007C31FF2B0446124D04D1D5F8A430406AFA
:102640009847D8B96B6F606A9847D5F8A450606A0C
:10265000A84701280BD894F8201241B90B46204610
:10266000084A6DF65FFF012384F8203270BD606A6E
:1026700094F80961A847301884F80A0170BD00BFBA
:102680008C3409006DAE190089B191F81432012B18
:102690000DD091F8793153B14A69054B106A034066
:1026A0002BB14FF080730846136279F689BB7047EF
:1026B00000FC01012DE9F04F00F128060121BBB01B
:1026C000044630466AF6E2F9012840F36581D4F801
:1026D0009831984200F26081204679F671FB012121
:1026E00030466AF6D3F90128814640F35581D4F883
:1026F000A8210121002704A8521837974FF001089C
:102700006AF66AF928E0002104A82A466AF644FA23
:10271000B8F1010F0AD1AB686A6823F07F43C2F3B6
:10272000140223F460039B1A0B2B12DDAB685B7958
:10273000190610D41A070ED0994B08F101081B682E
:1027400001E008F10108AA8A53F82250002DF8D1BF
:1027500002E0474600E00127304600216AF6A6F96C
:1027600005460028CFD103E0304600216AF614FA6E
:1027700004A800216AF69AF902460028F4D1002F35
:1027800040F00A81D4F8F0301B68984500F20481CB
:10279000D4F8E431D4F8E81103EB4909A0681FFA32
:1027A00089F94944ADF8E09002F050FF82460028D4
:1027B00000F0F280D0F80880BDF8E0203946828130
:1027C000404669F611F82046FFF72DFF60B194F8F6
:1027D00005324BB1734BBDF8E0200F3213403AA9DC
:1027E000404621F8023D01E0404638A90222FFF7A9
:1027F0006BF9BDF8E0303AA9DB4308F1020021F89B
:10280000083D0222FFF760F908F10C0300210025C2
:102810000193AB46ADF8E4106BE0614ABB89B94661
:10282000116802E0908991461B18B9F8142051F8FC
:102830002220002AF6D1ADF8E030BB681979039167
:102840001A1D0292BBF1000F03D03F88ABF8147041
:1028500018E0039908F10400534A3D460A433AA997
:1028600041F8102D08220093FFF72EF994F80A2161
:1028700084F80B2188F80920BDF8E020009B0C3279
:10288000ADF8E0200299082236A80093FFF71CF962
:10289000039ACB460298511C369AC9B222F0FF0225
:1028A0000A4336A936920822FFF70EF9009B94F8E6
:1028B0000A2184F80B215A72BDF8E010D4F8A02147
:1028C000531E5B18B3FBF2F353439BB2BDF8E420F5
:1028D000591AADF8E2309B18A9F810100222ADF891
:1028E000E4300DF1E201019B9F1C1846FFF7ECF864
:1028F0000197304600216AF6D9F8074600288CD1A6
:102900003946304652466AF647F9AF68AB890C3310
:10291000A7F10C0997F804802046C5F80890AB8110
:10292000FFF781FE60B194F805324BB11D4BBDF845
:10293000E4200F3213403AA9484621F8023D01E055
:10294000484639A90222FFF7BFF8BDF8E4303AA99A
:10295000DB43022221F8043DA7F10A00FFF7B4F897
:1029600048F0406343F440733AA9082241F8103D0F
:10297000A7F10800FFF7A8F894F80A31304684F868
:102980000B31002107F8033C2A466AF605F994F852
:102990000831013384F808313BB0BDE8F08F00BF47
:1029A000C0861900F0FF01000083000CD0F88411EC
:1029B00010B5044681B1D4F888210223C0687BF6A3
:1029C000A5FDD4F88411D4F888210223E0684A4098
:1029D000BDE810407BF69ABD10BD00002DE9F8431C
:1029E00000F128070221044638466AF64FF84FF0F6
:1029F000000900282046D4BF4FF000084FF001081E
:102A0000FFF714FE45E0A068294601F0B9F9D4F8B3
:102A1000F0301B68984205D9384641462A466AF686
:102A2000DBF842E00023AE682946B37194F87C31AC
:102A3000337294F80A3184F80B317372D4F8083287
:102A4000606A0133C4F8083272792D4B82F080023B
:102A5000D2099B6A9847C0B9D4F8F83083B1B8F16D
:102A6000000F08D13278707842EA00200F30000958
:102A7000020A18BF00209B68987194F87C211A7292
:102A8000C4F8F8504FF0010903E01E481E4968F6EB
:102A9000D1FED4F8F0301B68012B06D938464146E8
:102AA0006AF604F805460028ADD1002384F8FC300E
:102AB000C4F8F830B9F1000F05D00422636920464C
:102AC0005A6479F667FB0121384669F6DFFFD4F8CE
:102AD000CC31984204D92069BDE8F8436BF6D6BDE5
:102AE0000121384669F6D2FFD4F8D031984204D299
:102AF0002069BDE8F8436BF6BFBDBDE8F88300BFB1
:102B00008C3409007A611D006A611D00F8B5D0F8A7
:102B1000A8310E46C18D0446994212D3022A10D123
:102B20001A4665490025654868F684FEA068314666
:102B3000012202F0ADFDD4F8AC310133C4F8AC3160
:102B4000B8E004F128000AB9012100E00021324672
:102B500004F128056AF620F80221284669F696FF56
:102B6000002802DD2046FFF739FF2846012169F6DB
:102B70008DFF0746002800F09C80D4F8A451072D53
:102B80001ED0082D32D0012D03D02046FFF726FF9E
:102B90008FE0D4F89831984206D32046FFF78AFD9B
:102BA0002046FFF71BFF85E094F87E21002A40F0C5
:102BB0008180D4F89401D4F89C116DF61FFA75E069
:102BC00094F87E3123B93E4B606A1B6D9847E0B1A3
:102BD000D4F898319F4218D2D4F8B031002B5BD092
:102BE000D4F8B431B2899A4256D80EE094F87E31C6
:102BF00023B9334B606A1B6D984730B1D4F89831D4
:102C00009F4202D2B389402B10D82046FFF752FDD5
:102C10002046FFF7E3FE94F87E311BB3D4F894010D
:102C2000FFF754F9002384F87E311BE0D4F8B0217B
:102C300092B3D4F8B42193422ED8214B606A1B6D15
:102C40009847054690B92046FFF734FD2046FFF728
:102C5000C5FE94F87E312BB1D4F89401FFF736F914
:102C600084F87E51002384F8283222E094F8283238
:102C7000FBB994F87E311BB1D4F89401FFF726F923
:102C800000210125D4F894010A466DF6B7F984F8BD
:102C90007E5184F828520DE094F87E214AB9D4F888
:102CA00094010125D4F89C116DF6A8F984F87E51A1
:102CB00000E001252846F8BDA5621D008D611D00BC
:102CC0008C3409002DE9F04F90F8783185B000265A
:102CD00005460C46924687680296019623B15D49E7
:102CE0005D4868F6A7FD1EE08B68D0F8D82103EA9E
:102CF00002094A6823F07F4323F46003C2F31402FD
:102D000009F10C089B1A43452ED2B1F80CB0D0F84B
:102D1000E41138465944494402F098FC064640B94B
:102D20004E4868F687FD38462146012202F0B0FC85
:102D30008BE0D5F8E431B28980684B44C018D31ACF
:102D4000B0605A46B381A168FEF7BEFE444BA28A2A
:102D50001B6853F8223003B11B882146B3823846E2
:102D6000002202F095FC3446B9F1000F0AD0A068A9
:102D7000A3894B44C9EB0000A3810021A0604A460F
:102D800068F632FDD5F8E431A289A66838462146B6
:102D9000F61A9B18A660A38100F0E4FFADF80C00C2
:102DA0002846FFF740FC18B395F8053203B33846C0
:102DB000214669F641FD2B4BBDF80C200F32134024
:102DC00004A9022221F8023DB0F80C9007463046D3
:102DD000FEF77AFEBDF80E209144BDF80C30C3EB2F
:102DE000090921481B4968F625FDA7F80C9004E065
:102DF000304603A90222FEF767FEBDF80C3004A995
:102E0000DB43022221F8043DB01CFEF75DFE4FEAD1
:102E10000A2303F4706395F80821134304A943EAD5
:102E20000863082241F80C3D301DFEF74DFE284690
:102E300021465246FFF76AFE30B195F8083101335A
:102E4000012685F8083100E00646304605B0BDE8A9
:102E5000F08F00BFB5621D00A4611D00B9611D00A7
:102E6000C0861900F0FF0100C8611D0010B50023E5
:102E7000046884F820322046FFF7D8FBD4F8F431F8
:102E80006BB994F80B3194F80A219A420CD094F85B
:102E900009219B1AD4F80022DBB2934204D82046C1
:102EA000BDE8104078F628BF10BD000070B50C4694
:102EB000002935D0486A002832D091F87931002BAA
:102EC0002ED091F81432012B2AD0D1F8FC31002BEE
:102ED00026D0144ED6F8A450A847D4F8F031984222
:102EE0001ED2736F606A9847606A94F80961A847B8
:102EF000D4F8F4313618F6B284F80A615BB994F864
:102F00000B319E420CD094F809219B1AD4F8002270
:102F1000DBB2934204D82046BDE8704078F6ECBEA0
:102F200070BD00BF8C34090010B50023046884F81C
:102F30007E312046FFF7BEFB2046BDE81040FFF77C
:102F40004DBDD0F8003190F87B210B43C0F8003123
:102F5000EAB15A0705D590F87C2143EA0263C0F82C
:102F60000031D0F8003113F00A0F1CBF43F4802366
:102F7000C0F800314369D0F80021DA640022C0F8BB
:102F8000002180F87B2108225A6479F603B9704742
:102F90002DE9F041002605460C46374649E0274B0F
:102FA000E28AA1681B6853F822800023E3824A78F2
:102FB000D5F8240202F00F02CB7808B9043B00E0F8
:102FC0000C3BDBB2C918022AA160A189C3EB010343
:102FD000A38115D116B12388F38200E02746B8F10A
:102FE000000F06D0D8F808305B7803F00F03022BEF
:102FF0001DD039462869002700F0B8FC3E4617E08E
:1030000022B9286921466BF6C1FA11E0012A02D1E2
:103010006DF630FE05E00F2A03D00948094968F62D
:1030200009FCA8682146002202F032FB00E0264697
:103030004446002CB3D1BDE8F08100BFC086190022
:10304000E9611D0097621D0000697047CB891A0570
:1030500010B50ED4D0F8EC218B68DC7802EB84023A
:103060009B189A8946F688439A4214BF022201228D
:1030700000E00122BDE81040FFF724BE531C0AD037
:10308000022A4FF0010300D00AB982F0020213FABB
:1030900002F2D2B200E0FF22012990F87C310CBF8D
:1030A0001A4323EA020280F87C2178F625BE836960
:1030B000986900F015BC896903468869194600F0D3
:1030C00019BC00002DE9F04F85B0044603929B46E1
:1030D0000F9A109E17460291002B18BF0027DDF8AB
:1030E00038A00192C6B1B568726825F07F43C2F37B
:1030F000140223F460039B1A426C1432934205D2EB
:10310000434B1B68D90751D542484CE0B389103D69
:103110001033B560B38163E0036C426B03F11001BF
:103120007818904226BFA2F11008C3EB0808B846F1
:10313000A068414402F08AFA064650B9344B1B6835
:10314000DA0762D53448354905B0BDE8F04F68F676
:1031500071BB636C8568ED1808F11003856083818D
:10316000BAF1000F0BD0B8F1000F08D0514605F1AD
:1031700010004246FEF7A8FCC244C8EB07070096C1
:10318000A946B04625E0666BA068B74238BF3E4608
:10319000314602F05BFA054680B91D4B46461B6876
:1031A000DB0703D51C481D4968F644FBA06831467F
:1031B000012205B0BDE8F04F02F06ABA514632462E
:1031C0008068B244BF1BFEF77FFC009B2A880095F5
:1031D0009A82BAF1000F01D0002FD4D14D46464655
:1031E000019A6A60039A029B2B60130C1B04BBF1CB
:1031F000000F01D043F00103AB603146084BC5F826
:103200000CB060681B681B69984705B0BDE8F08F7B
:103210007C86190081E2090059631D0006641D00C7
:10322000808719002DE9F04104464C200E461546D2
:10323000984602F003FA0746A0B100214C2268F636
:10324000D3FA4FF4F063C7F80C807B634FF47A73C2
:103250003E60FB631C237D603B640C23BC607B648D
:103260000423BB643846BDE8F08100002DE9F04F2F
:103270008F6891B000260D46AB890F2BB968804648
:10328000026CD7F800A009910D960E960F96069243
:10329000446C0DD89A4A146814F0010400F0FF81C0
:1032A00098481A469849344668F6C4FA0896F7E1F1
:1032B00079680D910A0C12D089B293420D910DD20A
:1032C0008F490968C80703D590488F4968F6B2FA54
:1032D00000246FF00D070D940894E3E111460D9A58
:1032E000B2F5005F02D900240D94D8E1A3F1100BD0
:1032F0006A687B0D594538BF8B465B05C2F31402E3
:103300009B18EA88C2F34A120132D218D21B211D3F
:10331000FB1A92B28B42AA8104D95B1AF91AD3180C
:10332000A960AB81AB68B5F80C90A9F11009A98A26
:1033300010331FFA89F9AB60754BA5F80C901A6829
:1033400052F8211031B1D8F80800002202F0A0F99B
:103350000023AB82069B1B1B079307990D9BCA1882
:103360004A4510D8AE681434696826F07F42C1F32C
:10337000140122F46002521AA24204D30122AB814A
:103380000024089218E0D8F84010D8F8080059181E
:10339000143102F05BF9044658B1D8F844600021BA
:1033A000836814369E19BDF8343008918660838195
:1033B00002E00122064608920023CDF82CA00A93D1
:1033C00006934346B8461F4664E00D9B9B452CBFC1
:1033D000DA469A46BAF1000F53D0504602F02EF961
:1033E000069040B3C9EB0A0A2C4613E07B6BB86821
:1033F0009A4538BF53461946059302F027F9059BB5
:1034000000B100884249A0820A6852F820403CB1CD
:10341000C3EB0A0ABAF1000FE8DC069E002439E08B
:10342000AB8A52F82310AC820122B86802F030F95E
:10343000069802F006F9374B1B78DBB10D9B079914
:10344000CA185A450CD9C1F580624A44934207D93B
:10345000A3F5806301220D9300230A920693B4E73B
:1034600007990122AE68C1EB09030A920D9300236C
:1034700006930FE0B846DDF82CA06FF01A070D9305
:1034800010E10999B846DDF82CA04FF0FF370D96F2
:103490000791D4E0002E98D03B46DDF82CA047469B
:1034A0009846BBF1000F05D0304607F110015A468F
:1034B000FEF70AFB184B9A4530D1BBF1070F40F2DB
:1034C000BA80069AABF1080BD6F804A008368AB980
:1034D00014B12346224601E02B462A469268083260
:1034E0009A6014B12346224601E02B462A4692896F
:1034F000083A9A81099B43F00203079310E000BF4A
:103500007C8619006C631D0029641D0086631D0004
:10351000C0861900FC2A1E003EDAFEFF09990791B9
:10352000DFF89C91D144B9F5A27F28BFD146B9F507
:10353000837F3AD006D8B9F1020F47D0B9F1FD0F19
:103540004BD110E040F2071399451DD040F20B1308
:10355000994542D1D8F800000021564AD8F83C30AD
:103560006CF6E0FF36E0B3781B04727843EA02237E
:1035700032781343F178D8F8000043EA016100F093
:10358000CCFACA4600275AE030464B49042268F676
:10359000E7F9034608BB494A012112680091314608
:1035A000D8F8040097695A460EE030464249042292
:1035B00068F6D6F988B9414B31460D9A1B680090E0
:1035C000D8F804009F690DABB84703E0D8F80000B5
:1035D0006AF6F8FF0746CA4631E0099A079B02F4EB
:1035E0007041090B13F002020CD00FABBBF1000FBE
:1035F00008BF002601930EABCDF800B00293012363
:10360000039307E010AB53F80C0D8DE809000EABE7
:1036100003920293D8F80000524633466AF69EFFA2
:1036200010F10E0F07460AD10A9941B100236FF03D
:103630001A070D9303E06FF01707099A0792069B8C
:1036400043B100962946D8F8080000220D9B00F0EF
:1036500055FB08E0002C14BF23462B46BDF8341060
:103660000022998106920FB10E9B0D93089B33B9EE
:103670002946D8F808001A4602F00AF825460D9B9C
:10368000514601934046079A3B4600960295FFF744
:1036900019FD069951B1084601F0D3FF06E00894E0
:1036A0006FF01707099A00260792D3E711B0BDE81B
:1036B000F08F00BF11BB19001BDE090080871900C5
:1036C000E0EB1B002DE9F0410C468A680746816C4F
:1036D000856822F07F43606823F46003C0F3140020
:1036E0001B1A8B423AD2B4F80C802846414401F0B0
:1036F000ADFF064680B9254B1B68D80705D5244881
:1037000042462449BB6C68F695F8214628460122BA
:1037100001F0BEFF002436E0C38923F00703E289ED
:1037200002F007021B041B0C1343C381E289D1067C
:103730004CBF43F0100323F01003A1684246C3813D
:10374000A37C8374BB6C8068C018FEF7BDF921466A
:103750002846012201F09CFF344604E0521AA38956
:10376000C918A260A1812022A3681A70E289D2063A
:1037700001D524221A70E28902F007025A70002251
:103780009A70A27CDA702046BDE8F0817C86190030
:10379000AC631D0043631D00826C8B8970B593423E
:1037A0000C46856807D2234A1268D2073AD52248C8
:1037B0001A4622490BE089680A781209561E012E22
:1037C00008D91C4B1B68DB072CD51D481B4968F624
:1037D00031F827E0E58925F007054E7806F0070661
:1037E0002D042D0C3543E5810E7816F0080F1CBF13
:1037F00045F00805E5810D7815F0030505D0A669AB
:1038000026F4403646EA0545A561012A01D1002289
:1038100000E0CA78A274826C002089189B1AA1600B
:10382000A38170BD28462146002201F031FF01200E
:1038300070BD00BF7C8619006C631D0013641D0001
:10384000DA631D000A1E034610B5C06B13DD9C6CC5
:10385000002C10DD013AA24203DA1B6C53F822005F
:1038600048B9054B186810F0010004D0034804491A
:1038700067F6E0FF002010BD7C8619003C641D0047
:10388000FD641D0038B50B4611B3C16B8B421BD0D4
:10389000856C00210CE0046C54F82140A34201F136
:1038A000010404D193689A7814439C7010E0214677
:1038B000A942F0DB074A1268D20707D506491A4623
:1038C000064867F6B7FF01E0002101E04FF0FF3145
:1038D000084638BD7C8619004DE30900A8E20900BE
:1038E00008B5034B00681B685B69984708BD00BFBB
:1038F0008087190070B504460E464068114601F0F5
:10390000EFFE0146E068FFF7DDFE054620B32046E6
:1039100031462A46FFF7B6FF00281DDB29466068BE
:1039200000F020FA0D4B29461B68DB68064620682C
:10393000984730B1E3699E196369E66101336361B9
:103940000AE0E36A0133E362054B1B68DB0703D53A
:103950000448054967F66EFF002070BD8087190096
:103960007C861900A7641D0017651D002DE9F74F1F
:10397000002405468A462746019426465AE0324BE3
:10398000BAF816201B6853F82280DAF8083093F84A
:10399000029009F00F09B8F1000F05D0D8F80830EF
:1039A0009B7803F00F030193E8685146FFF7F4FE9C
:1039B000834600BBA4B928464946FFF743FF0646A5
:1039C00030B16868514601F09FFE0446074635E075
:1039D00068685146324601F05BFE4FF0010B0AE089
:1039E0006868514601F090FE08B1038800E0034684
:1039F000E382044622E0AB6A0133AB62CFB1B8F197
:103A0000000F05D0BBF1000F02D1019B994510D0EA
:103A100000233146E3823A463369A86BDB68984756
:103A200028B1AB6A002427460133AB6201E00446AB
:103A30000746C246BAF1000FA1D103E02B6901335A
:103A40002B61DBE7BDE8FE8FC0861900F7B50B469A
:103A50000446174601B12AB9274B1B68DB0748D536
:103A6000264843E0866B8EB9C56B002D2CD181634F
:103A7000C2634A6251622146009522684068FFF79E
:103A8000D1FBE06000282CD0284634E08E421BD1C8
:103A9000C26BBA4218D0826C00230AE0216C01EBA1
:103AA000830051F82310013319B9076018467E626C
:103AB00021E09342F2DB10490968C80719D5104983
:103AC000104867F6B7FE14E00B4A1268D10710D50C
:103AD0008DE8880032460A49E36B0B4867F6AAFE78
:103AE00007E0054B1B68DA0703D50848044967F669
:103AF000A1FE4FF0FF30FEBD7C861900CEE209002A
:103B00000A651D00B8641D00EAE20900E4641D00B6
:103B10000368012198687AF65DBF80687AF68ABFEB
:103B2000704710B549F0FAFF4AF008F8FDF7FEFDBE
:103B300049F076F94AF0C8F8044649F02FF92046D2
:103B40004FF060FFFEF73AF92046BDE810406CF6F2
:103B500055BB000000487047E03C1E00004870471D
:103B6000042B1E00014B43F820107047503D1E00EF
:103B7000034B53F82000431A584240EB03007047B0
:103B8000503D1E000346008938B1586842695A60AA
:103B9000002242611A89013A1A81704743684B61D9
:103BA00003890133416003817047012370B50446E6
:103BB00003740546002604E0EB6A2046296B0136B3
:103BC00098470835E37C9E42F6DB0020207470BDE8
:103BD00070B5856904461DB12B686968984719E07E
:103BE000867C013E0FE0238963B1637C13B93246C2
:103BF000013E00E02A460C32204604EBC202536824
:103C0000916898470135A37C9D42ECDB637C83F08F
:103C100001036374002070BDF8B50446476DFFF7DB
:103C2000B1FF054648B9E37C13B12046FFF7BDFF5D
:103C30002046FFF7A7FF054670B1667866B95FB109
:103C4000676D2046A16D2A460123B84720B1294659
:103C50002046FFF7A3FF35462846F8BD10B50446B9
:103C6000FFF79CFF237D43B9A37C33B1237C23B9A9
:103C70002046BDE81040FFF7ABBF10BD2DE9F8436B
:103C80008F8906460C4602B1BF10B4F80A800025A1
:103C900014E03046E18962786DF63AF9814698B1D0
:103CA0002046494668F6D6FD013538B130464946CA
:103CB000002201F0EDFC4FF0FF3507E005EB0803B3
:103CC000BB42E6DB002501E06FF01A05A37C23B1BF
:103CD000237C13B92046FFF77BFF2846BDE8F88315
:103CE000642928BF64214289034691422CBF0846BB
:103CF0001046988170470175704700002DE9F84320
:103D00001E46174B0C46DDF820809946196806E0E0
:103D1000A3899A4206D3D21AA38A51F82340DCB170
:103D2000002AF5D1002514E0A789A068BF1ABE4279
:103D300038BF3746801841463A46FDF7C5FED9F8E8
:103D40000030A28AB844F61B53F82240ED1924B182
:103D50000022002EE8D100E025462846BDE8F88381
:103D6000C0861900054B00201B6804E08A89801872
:103D70008A8A53F822100029F8D17047C0861900AA
:103D8000054B00201B6803E08A8A53F8221001309B
:103D90000029F9D1704700BFC0861900062208B576
:103DA0000349FDF77EFED0F1010038BF002008BDB9
:103DB000186A1D00062208B50349FDF772FED0F10E
:103DC000010038BF002008BDB02B090083890E2BED
:103DD00070B5846840F28280A389812B33D1E38956
:103DE0001E0A46EA0326238AB6B2750B082B03D0B7
:103DF0004DF68652934213D1A27C1309042B01D1B4
:103E0000E37C08E0062B05D1E37C1B0943EA02139F
:103E1000DBB200E000235B0902D04FF4807202E0C5
:103E20002B464FF4007200294ED0AB424CD0F10427
:103E300042F48062C90C41EA433189B20D0A45EA75
:103E40000121E18140E0082B03D04DF686529342D8
:103E500034D1A27B1309042B01D1E37B08E0062BAC
:103E600005D1E37B1B0943EA0213DBB200E0002328
:103E70009A08142A1AD009D80C2A17D001D80A2A6D
:103E800002E00E2A12D0122A14D10FE01C2A18D0F8
:103E900004D8162A0AD01A2A0CD112E01E2A10D0F1
:103EA0002E2A07D14FF4006206230DE04FF4006282
:103EB000032309E05B094FF4006205E0002213468A
:103EC00002E04FF400620423C18903F0070421F0EB
:103ED00007012143C18142EA030070BD002070BD8B
:103EE00000F13402342A08B5034606D905482021DA
:103EF000054A67F6DFFC034808BD4342034A52F80F
:103F0000230008BD2E3D1E00056A1D00D0260900B5
:103F10000B689A1A9A420A6002D90368013B03604F
:103F2000704700000138C0B20A289ABF024B33F82C
:103F300010000020704700BF1E6A1D002DE9F047E9
:103F4000AAB080460F46339C11460DF10A001A466E
:103F50009946FDF7B9FD2AAAE50002EB090309F12C
:103F6000040903F89E5C2D1214F11F0A48BF04F1E6
:103F70003E0A03F89D5C00234FEA6A1A329C15E062
:103F80002B1222AE8DF809300023404601933946AA
:103F90004B4602AA8DF8085000966AF65FFC204650
:103FA00031462022FDF790FD20342B465D1C534501
:103FB000E6DB2AB0BDE8F087826B816810B5146833
:103FC00011F0010F04F4403444F0010304BF44F441
:103FD000006343F00103890790F8B51048BF43F42C
:103FE000806343EA814390F8BA1023F4600343EA04
:103FF000415390F8BB1023F0407343EA016390F8FB
:10400000321009B143EA412390F8DE1009B143F4BC
:104010000073D0F8A01043EA4103136010BD000004
:10402000034670B5B0F87040B3F86E20A24249D094
:10403000B3F8D00082420CD1986BD3F8CC50D3F8AF
:10404000906000692840801B2840000980B2A3F8D6
:10405000D00009B9824237D05D6F002655F82200A2
:1040600045F8226093F8325015B993F8DE508DB1BF
:10407000B0F1004F0ED1B3F86C000132451E2A405A
:1040800092B2A3F86E20A21A1540401B0138C3F863
:10409000D800C9E71E6C150101327619B1680B49C9
:1040A000B1601E6C7519E960B3F86C104D1E2A40A2
:1040B00092B2A41A2540491B0139A3F86E20C3F817
:1040C000D81070BD002070BD084670BDEFBEADDEDB
:1040D000B1F5807F2AD007D801291ED01AD3022932
:1040E0001ED0032933D11EE040F20313994226D09B
:1040F00007D840F2011399421BD0B1F5817F26D138
:104100001AE040F2051399421CD040F2071399427D
:104110001DD11AE080F8B720704780F8B8207047AA
:1041200080F8B920704780F8B620704780F8BA2030
:10413000704780F8BB20704780F8B520704780F842
:10414000D620704780F83220704780F8DE20704714
:104150002DE9FF47B0F84A500023044603930E466A
:1041600090460B465AE04E499F8A05F1010AB4F881
:1041700048909A6898890968B3F810C051F8277078
:10418000B4F8461001390AEA010ACA4570D01CEB9E
:10419000000042D0B3424FF0000E08BF4FF0004382
:1041A000CDF80CE008BF039357B9039B43F0804E52
:1041B000CDF80CE0B8F1000F02D043F0C0430393F8
:1041C0008D4203D1039B43F08053039394F8D63080
:1041D0001BB1039B43F48023039303AB0190204660
:1041E00000932B46E16B01356BF670F9B4F846305D
:1041F000013B1D40B4F84830ADB29D420DD1E3699A
:104200001B68D80734D50122B4F84A3025490092FA
:104210002A46254867F60EFB2AE03B46002BA2D132
:10422000039B590009D4691EB4F84620013A0A409C
:1042300043F0C0431201E16B8B50B4F84630681E66
:104240005A1E1040E16C41F82060A4F84A50B8F1C1
:10425000000F04D0A06E616B00EB05104860B4F84D
:1042600048106D1A2A409B1A013B0020636014E03D
:10427000E3691B68DA0704D50C4804F1200167F6EE
:10428000D9FAA06A3146012201F002FA00234FF068
:10429000FF30636063690133636104B0BDE8F08798
:1042A000C08619009C831D0040821D003EEC090061
:1042B0002DE9F04F90F8321090F8DE2000238FB0F7
:1042C00004460D93836803F0100BBBF1000F0CBF85
:1042D0004FF0010B4FF0100B00290CBF01230223FC
:1042E000A2B1D0F8BC301BB11A780AB1DA8901E06A
:1042F000B4F8942011B1C2F50062012102F5F47204
:104300004FF4F673033292FBF3F28B18B4F86C207F
:10431000B4F87060551EB4F86E10711A2940C3F1DC
:10432000010089B2411AD4F89C0091FBF3F192FB91
:10433000F3F3834294BFC9180918B4F89430CC2B16
:10434000089103D9D4F89820059201E00023059341
:104350004FF0000AE3E0D4F8BC0020B1037813B1B9
:10436000FFF75AFC08E0B4F89410059A0139594453
:10437000A06A891801F06AF9054668B9BAF1000F18
:1043800006D120466BF6FAF9003018BF0120FFE78E
:10439000236901332361C7E0A36813F0100305D03C
:1043A00083680BF1FF32C3EB0B031340059A9B1894
:1043B00005D0AA68D218AA60AA89D31AAB81AA68C4
:1043C0000023616F1360904641F8265094F8321034
:1043D000002937D1B4F8947094F8DE50002D0CBF4A
:1043E0003D464FF4F6754FF00043C5F100097F1BC1
:1043F0000D93B4F86C20013A964207EB050303D104
:104400000D9A42F080520D920DAAAB42D4BF019397
:1044100001952046334600924246216C01366BF6E8
:1044200055F8B4F86C30013B1E40002FB6B2A844DA
:1044300073DD4FF00042636F4F4443F826200023A2
:104440000D93D6E70D93B4F86C30013BA9899E42D9
:1044500004BF4FF080530D930EAB0D9840F0004019
:1044600043F8040D20460093334601910136216C38
:104470006BF62CF8B4F86C30013BB5F852701E4066
:10448000D5F84090D5F8448094F8DE50002D0CBF4C
:104490003D464FF4F675C5F1000CCDF824A0B6B238
:1044A0007F1BE2464FF00041626F7B1942F82610F5
:1044B0000022009620460D92B4F86C20013A9642F4
:1044C00008BF4FF08052CDF82C9008BF0D920DAA76
:1044D000AB42D4BF029302950BABCDF830800136CE
:1044E0000192216C0CCB6BF625F8B4F86C30013BD3
:1044F0001E40002FB6B20EDD0023CDF81C805744BD
:104500000693DDE9062342EA0902521943F100034A
:1045100098469146C6E7DDF824A00AF1010A089AF8
:1045200092457FF418AF0020D4F89020A4F8706072
:1045300002EB0616A36B5E600FB0BDE8F08F0000C3
:1045400000487047402B1E0090F86033012B10B5D7
:1045500090F868330CBFD0F85C43054C012B14BFB6
:104560006FF00043D0F864330C60136010BD00BFDF
:104570007721C20F00487047C0831D000048704774
:1045800068841D0000487047E8A90E0008B5FFF7D1
:10459000D7FF01234178027813FA01F113FA02F2EE
:1045A0000A4381788B4042EA030008BD2DE9F743B6
:1045B0004FF0000804460F4616469946454601232B
:1045C00003FA08F313EA090F2BD063692046222B64
:1045D0000ADDE3695A0607D540F62701002279F67D
:1045E000A7FD0146204600E000214FF4C46279F6A1
:1045F00015FCC0F8008020466369222B0ADDE369C0
:104600005B0607D540F62701002279F691FD0146A9
:10461000204600E0002140F2246279F6FFFB0368A7
:104620001D4308F10108B8F11F0FC8D19DF82830CB
:104630004BB145B101232046009339462B46324603
:10464000FFF7B4FF05432846BDE8FE8338B50446AE
:10465000FFF798FF6369222B054620460ADDE369D0
:104660005B0607D540F62701002279F661FD014679
:10467000204600E000214FF4CC6279F6CFFB012305
:10468000036020466369222B0ADDE369590607D5DA
:1046900040F62701002279F64BFD0146204600E056
:1046A000002140F2646279F6B9FB03684FF47A7036
:1046B00003F47F031B0CB5FBF3F5684338BD38B535
:1046C00043690446222B0ADDC3695A0607D540F622
:1046D0002701002279F62CFD0146204601E0204604
:1046E00000214FF4C06279F699FB0568204605F079
:1046F0007C05AD08FFF73EFF03E08378AB4207D0AF
:104700000C3010B10388002BF7D12046FFF736FF9D
:1047100003884FF47A70584338BD2DE9FF471D4692
:10472000436990460022222B044689460292039256
:1047300009DDC3695E0606D540F6270179F6F8FC67
:104740000146204601E0204600214FF4C46279F67C
:1047500065FB05602046236A0C2B636916DD222B5E
:104760000ADDE369590607D540F62701002279F6EC
:10477000DFFC0146204600E000214FF4C56279F6D7
:104780004DFB07683F0CBF05BF0D14E0222B0ADD6F
:10479000E3695A0607D540F62701002279F6C8FCDE
:1047A0000146204600E000214FF4C56279F636FB51
:1047B00007683F0AFFB201230026AB402046494666
:1047C00042460096FFF7F2FE0546012212FA06F372
:1047D0002B4207D00092204649464246FFF7E6FEAC
:1047E00025EA000501361F2EEFD1204602A903AAB3
:1047F000FFF7AAFE029B002625EA030A354601239D
:10480000AB4013EA0A0F08D0204649464246EBB2B5
:10481000FFF783FF864238BF064601351F2DEED1D4
:10482000B81C801904B0BDE8F087F8B504461646F8
:10483000FFF7ACFE40F2DD55074602E00A206CF6B9
:104840006DF863692046222B0ADDE3695A0607D515
:1048500040F62701002279F66BFC0146204600E075
:10486000002140F20C6279F6D9FA03683B4206D087
:10487000013DE3D103E00A206CF650F801E040F27C
:10488000DD54D6F8E0319B0301D5013CF3D1F8BDEE
:104890002DE9F041069E044615461F46FFF776FEB9
:1048A000002870D010EA060800EA07072CD06369D8
:1048B0002046222B0ADDE3695E0607D540F6270174
:1048C000002279F635FC0146204600E0002140F246
:1048D0001C6279F6A3FA6369222B064620460ADD9C
:1048E000E369590607D540F62701002279F620FC36
:1048F0000146204600E0002140F21C6279F68EFA63
:10490000036843EA08033360002F2BD06369204615
:10491000222B0ADDE3695A0607D540F6270100225B
:1049200079F606FC0146204600E000214FF4C36200
:1049300079F674FA6369222B064620460ADDE3699C
:104940005B0607D540F62701002279F6F1FB014608
:10495000204600E000214FF4C36279F65FFA036855
:104960001F433760079B980305D4BDE8F0810A20F8
:104970006BF6D4FF01E040F2DD54D5F8E031990345
:1049800001D4013CF3D1BDE8F0810000816838B565
:1049900040F63C03994204462ED1C3680B2B03D842
:1049A0004FF0A871994001D40C2B25D949F2182356
:1049B0009A4209D049F640439A4207D00F4810491D
:1049C000BDE8384066F636BF0E4D00E00E4D636917
:1049D0002046222B0ADDE3695B0607D540F6270156
:1049E000002279F6A5FB0146204600E0002140F2B6
:1049F000DC6279F613FA056038BD00BFB0841D0093
:104A0000A9831D00B601010099010100F7B51E46FA
:104A1000436904460F46222B15460BDDC369590630
:104A200008D540F62701002279F682FB009701465F
:104A3000204602E02046002100974FF0FF334FF45C
:104A4000CA6279F69BFE6369222B0CDDE3695A0684
:104A500009D540F627012046002279F669FB009629
:104A60000146204602E020460021009640F25462B2
:104A70002B4679F683FEFEBDF7B51E464369044614
:104A80000F46222B15460BDDC369590608D540F6A3
:104A90002701002279F64CFB00970146204602E0F0
:104AA0002046002100974FF0FF334FF4CC6279F697
:104AB00065FE6369222B0CDDE3695A0609D540F6D1
:104AC00027012046002279F633FB00960146204656
:104AD00002E020460021009640F264622B4679F6FF
:104AE0004DFEFEBD436913B5222B04460DDDC3699F
:104AF0005B060AD540F62701002279F619FB4FF430
:104B0000806300930146204604E04FF48063204612
:104B1000002100934FF4C06279F630FE1CBD000006
:104B20002DE9F8430446894679F672F900210646D4
:104B3000204679F6FDFE80462046FFF701FD074638
:104B4000204679F62BFD494642463B7805462046ED
:104B5000FFF7E3FD0B23314602305843064BEB18B9
:104B6000B3FBF5F54543204679F6E2FE0A23B5FB93
:104B7000F3F5A8B2BDE8F8833F420F0038B54369AA
:104B80000446222B0ADDC3695A0607D540F62701E1
:104B9000002279F6CDFA0146204601E020460021A8
:104BA00040F2146279F63AF96369222B05682046CF
:104BB0000ADDE3695B0607D540F62701002279F696
:104BC000B7FA0146204600E0002140F2146279F66F
:104BD00025F903689D4214D063692046222B0ADD23
:104BE000E3695D0607D540F62701002279F6A0FAB1
:104BF0000146204600E0002140F2146279F60EF9E9
:104C00000568284638BD38B51C461D68FFF7B6FF55
:104C10000346401B236038BD2DE9F7439DF82890DB
:104C2000002504460F46164698460195FFF7A6FF55
:104C3000019063692046222B0ADDE369590607D5F6
:104C400040F62701002279F673FA0146204600E07B
:104C500000214FF4C26279F6E1F8B9F1010F006862
:104C600001D108B90EE050B9B8EB451F09D920466B
:104C70003946324601ABFFF7C6FF2D18D9E70020B1
:104C800000E001206D010B9B1D60BDE8FE832DE956
:104C9000F04F002685B0804689469246039601254E
:104CA00003AF40464946524643F698230095019784
:104CB000FFF7B2FF044688B98DE8810040234046E3
:104CC00049465246DDF80CB0FFF7A6FF039B38B902
:104CD0009B445E4443F697239E42E0D9284600E079
:104CE000204605B0BDE8F08F2DE9F84399464369A9
:104CF00004460E46222B1546DDF82080099F0ADD6A
:104D0000C369590607D540F62701002279F610FA43
:104D10000146204601E0204600214FF4C36279F6A7
:104D20007DF803682046C9F800306369222B0ADD4C
:104D3000E3695A0607D540F62701002279F6F8F90B
:104D40000146204600E0002140F21C6279F666F838
:104D500003682046C8F80030D5F8E0313B60FFF723
:104D600015FC0746002872D0D5F8E0319B0304D427
:104D7000204631462A46FFF78AFF63692046222BE8
:104D80000ADDE3695E0607D540F62701002279F6C1
:104D9000CFF90146204600E000214FF4C36279F6C6
:104DA0003DF86369222B064620460ADDE369590671
:104DB00007D540F62701002279F6BAF901462046C8
:104DC00000E000214FF4C36279F628F8FF4303683E
:104DD00020463B4033606369222B0ADDE3695A06B3
:104DE00007D540F62701002279F6A2F901462046B0
:104DF00000E0002140F21C6279F610F86369222B72
:104E0000064620460ADDE3695B0607D540F6270122
:104E1000002279F68DF90146204600E0002140F29B
:104E20001C6278F6FBFF40F2DD5403681F403760D8
:104E300002E00A206BF672FDD5F8E031980301D547
:104E4000013CF6D16420BDE8F8436BF667BDBDE8D0
:104E5000F8832DE9F3410D4617461E464FF40061D5
:104E600001AB6A46044679F671FD6369222B8046E0
:104E700020460ADDE3695A0607D540F627010022DD
:104E800079F656F90146204600E000214FF4C3624E
:104E900078F6C4FF036820463B606369222B0ADD75
:104EA000E3695B0607D540F62701002279F640F951
:104EB0000146204600E0002140F21C6278F6AEFF79
:104EC000036820463360089BD8F8E0211A60FFF79A
:104ED0005DFB0646002866D0D8F8E031990304D47B
:104EE000204629464246FFF7D2FE63692046222B20
:104EF0000ADDE3695A0607D540F62701002279F654
:104F000017F90146204600E000214FF4C36278F60D
:104F100085FF6369222B054620460ADDE3695B06AF
:104F200007D540F62701002279F602F9014620460E
:104F300000E000214FF4C36278F670FFF643036887
:104F4000204633402B606369222B0ADDE369590652
:104F500007D540F62701002279F6EAF801462046F7
:104F600000E0002140F21C6278F658FF6369222BB2
:104F7000054620460ADDE3695A0607D540F62701B3
:104F8000002279F6D5F80146204600E0002140F2E3
:104F90001C6278F643FF036820461E402E609DE8A1
:104FA000060079F611FCBDE8FC8173B50446154690
:104FB0000E4631B1FFF7E6FA4FF47A73B0FBF3F324
:104FC000336020464FF400616A4601AB79F6BEFCBF
:104FD00035B10022204601211346FFF74DFD286020
:104FE00020469DE8060079F6EFFB00207CBD70B5F9
:104FF00004460E4678F60CFF00210546204679F659
:1050000097FC314602462046FFF759FB29460646E3
:10501000204679F68DFC304670BD38B543690446AC
:105020001546222B0ADDC3695B0607D540F627012A
:10503000002279F67DF80146204601E02046002155
:105040004FF4CC6278F6EAFE63692046222B0ADD33
:10505000E369590607D540F62701002279F668F87A
:105060000146204600E0002140F2646278F6D6FE58
:1050700020462946FFF7BBFF63692046222B0ADD45
:10508000E3695A0607D540F62701002279F650F861
:105090000146204600E000214FF4C06278F6BEFED3
:1050A0006369222B056820460ADDE3695B0607D5A4
:1050B00040F62701002279F63BF80146204600E041
:1050C00000214FF4C06278F6A9FE056038BD70B5C6
:1050D00004460E4678F69CFE00210546204679F6E9
:1050E00027FC314602462046FFF7B0FA294606461D
:1050F000204679F61DFC304670BDFFF7E8BF000082
:10510000014B1860704700BF903D1E00F8B5484F36
:1051100004463A68002A40F089804369222B09DD61
:10512000C369590606D540F6270179F601F801460C
:10513000204601E02046002140F2146278F66EFE1F
:105140006369222B056820460ADDE3695A0607D504
:1051500040F62701002278F6EBFF0146204600E0EA
:10516000002140F2146278F659FE03689D4214D083
:1051700063692046222B0ADDE3695B0607D540F60A
:105180002701002278F6D4FF0146204600E00021E6
:1051900040F2146278F642FE056842F210706BF637
:1051A000BDFB63692046222B0ADDE3695E0607D555
:1051B00040F62701002278F6BBFF0146204600E0BA
:1051C000002140F2146278F629FE6369222B0668FA
:1051D00020460ADDE369590607D540F6270100227B
:1051E00078F6A6FF0146204600E0002140F2146256
:1051F00078F614FE03689E4214D063692046222B81
:105200000ADDE3695A0607D540F62701002278F641
:105210008FFF0146204600E0002140F2146278F63C
:10522000FDFD0668751B642675433D603868F8BD52
:10523000903D1E002DE9F74F0446884691461F46D3
:1052400079F6BCF98346002840F0DA80204678F6EB
:10525000DFFD59468246204679F66AFB63692D2BAD
:1052600005460CD1D0F8F430B9F1000F02D023F08C
:10527000007301E043F00073C5F8F430B9E0204654
:10528000FFF75EF90126C3789E4000F0B280B9F1C5
:10529000000F5FD063692046222B0ADDE3695906BF
:1052A00007D540F627015A4678F642FF01462046C8
:1052B00000E000214FF4C36278F6B0FD41462A4673
:1052C000036820463B6043EA0607012300933B4600
:1052D000FFF76CF96369222B47EA000720460ADDD5
:1052E000E3695A0607D540F62701002278F620FF29
:1052F0000146204600E000214FF4C36278F68EFD9F
:1053000041462A4607602046FFF7C1FC4FF47A70F9
:105310006BF604FB40F2DD5702E00A206BF6FEFA62
:1053200063692046222B0ADDE3695B0607D540F658
:105330002701002278F6FCFE0146204600E000210D
:1053400040F20C6278F66AFD0368334242D1013FB5
:10535000E3D13FE03A689AB963692046222B09DD20
:10536000E3695F0606D540F6270178F6E1FE0146BF
:10537000204600E000214FF4C36278F64FFD02683A
:10538000012322EA0607009320463B4641462A466F
:10539000FFF70CF96369074337420CBF002601266B
:1053A000222B20460ADDE369590607D540F627017E
:1053B000002278F6BDFE0146204600E000214FF4B1
:1053C000C36278F62BFD41462A4607602046FFF768
:1053D0005EFC00E0012640F22D1702E00A206BF689
:1053E0009DFA2B6903F48053B3EB063F01D0013FD4
:1053F000F4D12046514603B0BDE8F04F79F698BA93
:1054000003B0BDE8F08FF0B5002389B00E46174613
:10541000059303AA06934FF40061079304AB044677
:1054200079F694FA06AB3146009307AB019305ABCE
:1054300005462A462046FFF757FC204629463246B5
:105440003B46FFF7EAFD069B00932046079B31464B
:1054500001932A46059BFFF71BFA20460399049AFD
:1054600079F6B2F909B0F0BD2DE9FF410E4690463C
:105470001F4602AA03AB4FF40061044679F666FAB0
:10548000314605462A462046FFF7CFF920462946F1
:105490009DF82C303246FFF7C0FD0A9B0193204651
:1054A00031462A4643460097FFF7F2F92046029913
:1054B000039A79F689F9BDE8FF8170B504460E4676
:1054C00078F6A6FC00210546204679F631FA3146E9
:1054D00002462046FFF7DBFB2046FFF731F8636901
:1054E000222B064620460ADDE3695B0607D540F617
:1054F0002701002278F61CFE0146204600E000212C
:1055000040F20C6278F68AFC0121F37811FA03F379
:105510002946026820461A420CBF0026012679F669
:1055200007FA304670BD70470120704770472DE97B
:10553000FF470022836E04460D460292039263B138
:10554000D0F8CC1000EB8101D1F8D400216E884254
:1055500005D1606E9847814602E0994600E0914689
:10556000204678F655FC002100268246204679F632
:10557000DFF902A903AA80462046FEF7E5FF029F55
:105580000396FFB13B462046294642460096FFF768
:105590000DF86369222B40EA0700029020460ADDDD
:1055A000E369590607D540F62701324678F6C0FD73
:1055B0000146204600E000214FF4C36278F62EFC3D
:1055C000029B0360039E06B300273346204629460C
:1055D00042460097FEF7EAFF6369222B40EA060085
:1055E000039020460ADDE3695A0607D540F62701F5
:1055F0003A4678F69DFD0146204600E0002140F243
:105600001C6278F60BFC039B036029464246204649
:10561000FFF73DFB2046514679F68AF9E36E5BB110
:10562000D4F8CC2004EB8202D2F8D410226E91423E
:1056300002D1606E49469847BDE8FF870021FCF71C
:10564000B5BAFCF73BBB00207047000010B5002244
:105650000C466BF65DFCA0B90A4B1B688BB11A783F
:105660007AB1DA8994420CD81846FEF7D5FA20B1FF
:10567000054B1A6801321A6010BD044B1A680132DA
:105680001A6010BDCC861900943D1E00983D1E0086
:1056900038B504460D4622B1836813B1C0680022B4
:1056A0009847094B1A682B4607E0D97811B9216849
:1056B000013921609B8A52F82330002BF5D128460E
:1056C000BDE83840FCF744BEC086190010B504465A
:1056D0000846FCF7D3FD10B123680133236010BDE9
:1056E000084A034610B510680A4607E0D47814B992
:1056F0001C6801341C60928A50F82220002AF5D1DF
:10570000084610BDC0861900084A034610B5106847
:105710000A4607E0D47814B91C68013C1C60928AE0
:1057200050F82220002AF5D1084610BDC086190085
:105730002DE9F04F85B004AD044645F8043D894697
:105740002846002179F626FB01215FFA80F82846D9
:1057500079F620FB00215FFA80FA0EA879F60EFB9D
:105760000121C7B20EA879F609FB0021C6B20FA825
:1057700079F604FB012183460FA879F6FFFA02901F
:10578000204678F603FE4FF4406078F66DFA40F656
:105790000C41904A904BC5B2204678F61FFD20463A
:1057A000394678F607FDBE4203D02046314678F6EA
:1057B00001FD204641463A4678F63EFE32462046F6
:1057C0005146012678F638FE2046102140F69452C4
:1057D0000723009678F6B0FD002D5AD01021204600
:1057E00040F678523346009678F6A6FD032D50D940
:1057F0005FFA8BF7029A00213B0143F4806343F088
:1058000002035FFA82F8009340F618624FF0FF330C
:10581000204678F691FD07F003031122DB009A4041
:105820004FF0FF0A0092B90840F644420AFA03F327
:10583000204678F681FD4FEA081343F4803343F0A5
:1058400002030021009340F61C624FF0FF33204614
:1058500078F672FD08F003030222DB009A404FEA5B
:1058600098010092204640F644420AFA03F378F683
:1058700063FD4FF0011213464FF46261204678F643
:10588000ADFC204640F624614FF0FF32334678F6F7
:10589000A5FC0C22002340F65441204678F69EFCDD
:1058A00040F6E4514FF0FF320023204678F696FC94
:1058B000032D204640F6E8514FF0FF3201D9002376
:1058C00000E0282378F68AFCDB2320464FF45D6154
:1058D0004FF0FF3278F682FCB9F1020F20D0B9F117
:1058E000040F46D0B9F1010F49D14FF45E614FF07A
:1058F000FF32FE23204678F671FC032D204640F649
:10590000EC514FF0FF3201D9802300E0812378F67B
:1059100065FC204640F6F8514FF0FF3223234FE05C
:10592000109A46F2905320469A424FF45E614FF02F
:10593000FF3208D1F32378F651FC204640F6EC51B3
:105940004FF0FF3231E0FF2378F648FC032D20466C
:1059500040F6EC514FF0FF3201D9802300E0812363
:1059600078F63CFC204640F6F8514FF0FF32112308
:1059700026E020464FF45E614FF0FF3209E0109AB6
:1059800046F2905320469A424FF45E614FF0FF3248
:1059900001D1F72300E0F42378F620FC032D204604
:1059A00040F6EC514FF0FF3201D9082300E0092303
:1059B00078F614FC204640F6F8514FF0FF320023F1
:1059C00078F60CFC55B1204640F6C4514FF0FF323A
:1059D000FF2359E0FC0700FF240600192D4B294640
:1059E000009340F644424FF00053204678F6A4FC62
:1059F0004FF02033012140F644422046009378F6D0
:105A00009BFC0123244940F64C422046009378F643
:105A100093FC0223214940F64C422046009378F63D
:105A20008BFC04231E4940F64C422046009378F636
:105A300083FC08231B4940F64C42009320464FF05C
:105A4000007378F679FC184B009340F64C421749E6
:105A50004FF08063204678F66FFC10234FF4A021AE
:105A600040F64C422046009378F666FC20234FF423
:105A7000802140F64C422046009378F65DFC20469B
:105A80004FF4576130222B4678F6A8FB05B0BDE8ED
:105A9000F08F00BF1000002010000700100006006B
:105AA00010000500100004001000000410000300A6
:105AB00013B5144642690A2A0FDD29B1012905D020
:105AC00002290AD1842202E0782200E07C2200939D
:105AD0000021234678F6A0F901E04FF0FF301CBD0D
:105AE0002DE9F041044678F6D9FC00210A460B4620
:105AF0000746204678F6F2FC00210A460B46064689
:105B00002046FFF7D5FF0022022113460546204616
:105B1000FFF7CEFFD4F8788015E0D8F8083083B1CD
:105B200098F80420002AD8F80C200CBF28463846E4
:105B300000EA020012D03240904202D0D8F80010A1
:105B40009847D8F81080B8F1000FE6D120464146BA
:105B50002A462B46BDE8F041FFF7AABF0028EDD149
:105B6000EFE7C06900F008007047000073B5044615
:105B70000D4678F63DFE20B92046FFF7F2FF0028DB
:105B800032D0002D14BF4FF48073002320460093C1
:105B900000214FF4F0724FF4807378F63DF9002D38
:105BA00022D040F2DD5602E00A206AF6B7FE002558
:105BB000294620464FF4F0722B46009578F62CF9D2
:105BC000C10101D4013EEFD100214FF4F072204613
:105BD0000B46009578F620F9C20105D4034802B0BF
:105BE000BDE8704065F626BE02B070BD5EF40900E7
:105BF00010B5044651B102214FF4E0120023FEF724
:105C000005FF204602214FF4801202E002214FF4EA
:105C100070121346BDE81040FEF7F8BE0020704732
:105C2000704770472DE9F84F8E899A463E4B0D2EEE
:105C300093468A8A05461B680C468F6853F8228073
:105C40006EDD3A7B7B7B43EA0223B3F5C06F03DB57
:105C500007F10C0200210DE0152E61DD07F10E09A0
:105C6000324849460622FBF71CFF002853D107F1B2
:105C7000140201211078537843EA0023B3F5014F51
:105C800011D1901DBB19984208D92B68284A294880
:105C90001B68D968334665F6CDFD41E0107953792C
:105CA000043243EA002340F6060083422FD1A08944
:105CB000B8F1000F13D00E28B8F80C3002D1D8F884
:105CC00008200FE00F381A2801D9F61807E02B68D2
:105CD000174A19481B68D96865F6ACFD20E0023206
:105CE000BF1AF3191C2B0BDC0AD02A681348126860
:105CF000D1680F4A65F69EFD6FF00100BDE8F88F90
:105D0000CBF800201C208AF80010BDE8F88F4FF077
:105D1000FF30BDE8F88F0A4849460622FBF7C1FE6E
:105D20004FF0FF30BDE8F88FC0861900B464090059
:105D300029F80900DFF509002A871D0000F609008F
:105D4000B0521D002DE9F0438F4D87B004462B68FB
:105D5000DB0740F110810368002B00F00C8101AAE1
:105D60000DF11703FFF75EFF0028C0F2048194F8DD
:105D70006431012B00F00481019903AA20460E3101
:105D80007BF63EFA019902AA1831074620467BF6B7
:105D900037FA0199002F14BF082600260E318146DC
:105DA00020467BF64DFA0199B9F1000F14BF4FF070
:105DB00004094FF0000918314E44804620467BF616
:105DC0003FFAB8F1000F14BF4FF002084FF000087F
:105DD0000199464404220E31002818BF013604A858
:105DE000FBF772FE0199CB88B3F5807F6ED1D4F8B2
:105DF0004C3104F128000133C4F84C31FDF7DAFFCF
:105E0000002840F0BB800C2E00F2BA80DFE816F0CC
:105E100044000D00B800B8004700B800B800B80052
:105E200035004D00B800B8003500019A204602F157
:105E30000E0108327BF648FA2B681A0705D5204672
:105E40009DF8172001997BF6FBF8049D002D40F08A
:105E500097800199042201F10E001831FBF734FEFE
:105E60000198062208304949FBF72EFE2046019989
:105E70009DF817207BF6E4F857E0204601997BF661
:105E8000F9F901287CD00199042201F10E001831A2
:105E9000FBF707FE002874D02B689B0770D4D4F85A
:105EA00050310133C4F8503158E0204601997BF657
:105EB000E1F9012864D0286810F0080061D020467C
