:1000000048445230001006009E2F394D2000010058
:10001000BC090600810000001C0300000000000075
:10002000D90800007907000079070000790700006F
:1000300079070000790700007907000079070000C0
:1000400079070000790700007907000079070000B0
:1000500079070000790700007907000079070000A0
:100060007907000079070000790700007907000090
:100070007907000079070000790700007907000080
:100080007907000079070000790700007907000070
:100090007907000079070000790700000048004751
:1000A000D90800000000000000000000000000006F
:1000B0000000000000000000000000000000000040
:1000C0000000000000000000000000000000000030
:1000D0000000000000000000000000000000000020
:1000E0000000000000000000000000000000000010
:1000F0000000000000000000000000000000000000
:1001000000000000000000000000000000000000EF
:10011000000000000000000000000000FD070000DB
:10012000C10700003908000045C90300B1C703003A
:10013000D3C70300F5C703005DC8030027C8030049
:1001400095C8030011CC0300B9100000ADB802003F
:100150004DC2020047C202007FBB0200B9B80200D4
:10016000E90903000109030057F00200D306030068
:10017000F9FA02003B0A03005F0C0300650003006C
:1001800097F00200F10403009905030043F1020017
:10019000991C0300E72003002D2C0300212C0300F1
:1001A000F91C030075280300D921030089210300ED
:1001B000252103000D210300072103007120030006
:1001C000C71D0300812C030011200300E51C030060
:1001D000EF1C0300052E03003B2003000B28030047
:1001E00089250300CF1C0300DD1C030069310300D7
:1001F00013210300792C0300B1200300DB2F03003F
:1002000021220300C9250300B9100000B910000025
:100210005F250300B924030053250300612903006F
:10022000B9100000B9100000B9100000B9100000AA
:10023000B9100000CD0A00004D0B0000A10B00001A
:10024000B50C0000951100003D1600007916000065
:10025000F5160000D11700006D180000191C0000F1
:10026000251F0000E51F000089220000B5220000C4
:10027000612300006D2300007D2300001D24000089
:10028000C9260000D926000051270000C928000017
:10029000EB310000B9100000B9100000DD3900009A
:1002A000CD3D0000353F0000A53F0000614000004B
:1002B000D940000005A70400354300007543000045
:1002C000AD460000F546000051470000E54700003C
:1002D000B9100000B9100000B9100000514C000026
:1002E000154E0000894E0000AD4E0000E1500000A8
:1002F0008F510000E1510000B9100000EF520000E2
:100300009153000043540000B35500001156000003
:10031000455600004D56000055560000555300004C
:1003200071620000DD67000013690000B969000018
:10033000396F00002F700000FD7000003F71000059
:10034000457100002173000047730000B9100000E0
:10035000D1730000357400003D740000A1770000E7
:100360001D7800009D790000E37A0000517B0000B9
:100370007D7B00002B8F0000758F000079910000BD
:100380009F91000083920000DD94000053950000CF
:10039000F1960000139A0000419B0000179D000099
:1003A000359D0000479E0000D9A00000F5A0000088
:1003B00005A20000EDAA000007B7000001B9000087
:1003C00007B9000091BA000021BB000035BB000056
:1003D0003BBB000059BC0000B7BC000047BD00009B
:1003E000DFBD00006BBE0000E1BE0000EFBE0000FC
:1003F0004BC1000051C1000057C1000085C1000081
:1004000051BF000005C000008BC2000091C2000077
:1004100039C300009DC30000B7C30000D5C300006E
:10042000F9C30000E5C50000B1C6000005C7000023
:10043000553F010011C7000067C7000091C70000C9
:10044000F5CA000089CD00008BCD0000ABCF0000C5
:1004500069D6000071D60000F1D700004DDE000023
:1004600063E6000019E700007FE700009DEB000055
:10047000CDEE00006DF60000CFF70000DDF90000C2
:1004800095690100A1000100B104010055180100A7
:10049000B94401004B190100831B010063320100C4
:1004A000A533010001340100D33B01002DA401005C
:1004B000B1A50100CBA5010089AA0100FBB2010092
:1004C000FDB6010053B8010009BE01003DCA01009C
:1004D000B5DE01009FE9010065F9010089F901001D
:1004E000B1F9010099FA0100EDFA0100F5FD0100F2
:1004F00051FF010085000200E50302001D04020017
:10050000AB090200F1330200DB3702008512020062
:100510000915020029190200411A02001D230200D8
:10052000E1270200E32F0200053B02008D3C0200A0
:10053000E13C0200234202008B4602003F470200DA
:10054000C5480200CD480200FB480200B910000077
:100550004D4A0200874A0200B94A0200FD4B0200E0
:10056000B94C0200F34C0200AD4D02006F4F020087
:10057000115002009B570200435902008B590200A0
:10058000B15A0200D55D02003D5F0200B960020071
:10059000E5630200E1640200A7690200EF6902005E
:1005A000D96A0200896E02004170020005710200E2
:1005B00063720200A17202002573020071740200CE
:1005C0005D75020079770200A1780200B910000081
:1005D000B9100000B910000095810200B9100000A8
:1005E000B9100000B910000041830200F18502003B
:1005F0006D8602009D890200C18B0200118C0200F1
:10060000218C0200298E0200D58E02005991020031
:10061000BD9402003F9802007198020051990200B7
:10062000D99B0200D19D0200099F020055A2020041
:10063000A9A20200F9A4020077A5020079A2020093
:1006400081A60200B9100000B9100000B910000026
:10065000B9100000BBC4030059C503006DCC0300F2
:10066000B1CC030017CD030075CD030085CE030088
:100670001DD0030041D20300A5D5030063D80300B9
:100680008FDA030077DD030011E003007DE903004A
:10069000D3E9030059EA030091EC030099EC03004D
:1006A00055EF0300B3FA030083FF03006900040061
:1006B000CF000400FD03040035040400CD0B04004A
:1006C000B9100000B9100000B9100000B910000006
:1006D000EF0E0400370F0400B91000001D100400D5
:1006E000B1100400A9110400010000000002000084
:1006F000FF030000500000000100000001000000A6
:100700000A070800000000000000000000000000D0
:1007100000000000000000000000000000000000D9
:1007200000000000000000000000000000000000C9
:1007300000000000000000000000000000000000B9
:1007400000000000000000000000000000000000A9
:1007500000000000007D000000000000000000001C
:100760000000000000000000000000000000000089
:100770000000000000000000000000000000000079
:100780000000000000000000000000000000000069
:100790000000000068468369416920300BB52038AD
:1007A00003695A4651460EB44A46414606B4C368E8
:1007B00082684168FEB40368C269EFF303810EB436
:1007C0008269EFF3058106B4034801680029FED071
:1007D0006846884714B000BD600800000A49084216
:1007E00002D062B6C94308400849084202D061B647
:1007F000C943084006490840002803D005490A6853
:1008000002430A60704700000000008000000040C2
:10081000FFFF000000E100E00A49084202D072B682
:10082000C94308400849084202D071B6C94308408C
:1008300006490840002804D005490A68C043024020
:100840000A6070470000008000000040FFFF0000C9
:1008500080E100E002490968902288587047000052
:1008600070080000024909689C2288507047000007
:1008700070080000DDBAADBB000000000000000001
:100880000000000000000000000000000000000068
:10089000000000000000000000000000024A116893
:1008A0001060081C7047000060080000024A1168D0
:1008B0001060081C7047000064080000024A1168BC
:1008C0001060081C704700006808000006490860B6
:1008D00006490868002100F09BFE054801680029D0
:1008E000FED08847FEE7000058080000F006000030
:1008F000640800005248534900220A500168524AD5
:100900000A40524F0F403F4206D15046004202D0AB
:100910004046004229D1FEE7FC2141580A680F23D6
:1009200013400F2BF1D0012B01D00431F6E7083131
:10093000474B1340474CA34206D100F0B9F880461C
:1009400000F0C2F88146E9E7434CA342E6D10B1F11
:100950001B68424C23401824E3409C4600F0A8F852
:10096000824600F0B1F88346D8E73D492122425043
:10097000334A3C498958FF2319421CD051683A4BED
:10098000194218D01168304B1940D36A02E012E0C6
:10099000A34210D0C046354B00E00CE034498958E2
:1009A000194208D03349895819409942FAD1324B3B
:1009B00011691942FCD049463F4204D19823CB58D3
:1009C0001024E34001E02D4BCB581C242340002B86
:1009D00001D000F087F84046294908604846294977
:1009E0000860504628490860604628490860284940
:1009F0000F60284D28490D6028482949002204C06D
:100A00008142FCD8043DAD46009DEC431023DD41FE
:100A1000AC4210D1240CA400224D2C606B461B1B51
:100A20002148224D2860002C05D01D680560043344
:100A30000430043CF9DC81B003F080FBFEE70000E9
:100A40000000001814060000FFFF0000000000F086
:100A500000FF0F00002A0800000E0800000000FF41
:100A6000E001000004060000000038000002000061
:100A7000180600000C06000000100000080400002A
:100A80007008000074080000780800007C0800006E
:100A90006C08000000000700D866040068700400BD
:100AA0007C760400E06604005A340500DC6604002D
:100AB00008680F2204310240052AF9D1014A10408A
:100AC000F746000000F0FFFF08680F2204310240E3
:100AD000052AF9D180221042F6D0014A1040F7468B
:100AE00000F0FFFFFEE700000FB470B51C4DADF540
:100AF000027D2C786CB10CF0F3DF4FF47A7304466E
:100B0000B0FBF3F203FB12436846164909F0F8DA2A
:100B1000044600AAC4F50071101987AB0131869A0A
:100B2000819309F0E3DB0026241804E01DF8060099
:100B300000F012FB0136A642F8DB00AB002CA8BF88
:100B40001B1913F8013C2046A3F10A02534243EB60
:100B500002032B700DF5027DBDE8704004B07047B4
:100B60006870040065B48300004870476C7004002E
:100B700003F0CEBE022970B506D1506800210A22CA
:100B800009F05EDB064603E00B48FFF7ADFF0026E9
:100B90000025612408E0204600F0DEFA0134E4B2CA
:100BA0007B2C08BF61240135B542F4D10A20BDE891
:100BB000704000F0D1BA00BF511604002DE9F74F84
:100BC00001228A40B2F5805F28BF4FF48052042A88
:100BD00038BF04220192384AC31CD2F800B0002268
:100BE00023F00303144694461046344E22E0D1F815
:100BF00000A09A451DD301F10807019D07EB0A08E3
:100C0000C5F10009C3EB080509EA0505BD4210D38B
:100C1000C7EB0509B9F1070F01D8BD4209D1C3EBF4
:100C20000A075F4505D242462C4667B1BB46B4462B
:100C300008460E4671680029D9D130B9204B1A6890
:100C400001321A6035E0B4460846121BD11A102949
:100C500009D90568E2186D1A08390560E150416844
:100C6000516042601A4603689B1A03D14368CCF86E
:100C700004300CE0072B05D8114B00201A68013214
:100C80001A6016E0C250A3F108020260C0180D49B4
:100C90000023026843600B68D3180B600A490A6896
:100CA00008320A60D218094B19688A4288BF1A6054
:100CB0000830BDE8FE8F00BFBC700400E470040083
:100CC000B4700400D0700400B0700400A870040078
:100CD000174B30B51A6850F8084CA0F10801121BE8
:100CE0001A60144B1A68083A1A60134B02E08A42E1
:100CF00003D213465A68002AF9D10519AA4205D130
:100D0000156852686419083440F8084C4A601A683B
:100D100002F108041C198C4207D150F8080C121873
:100D200008321A604A685A6000E05960002030BDFD
:100D3000D0700400B0700400E4700400C31C23F001
:100D400003031A1A8A4210B51AD80C18E41A24F0B0
:100D500003040F2C14D90C4A03F108001168611820
:100D600011600A4A083C11681C6061181160084A49
:100D700011680831116000225A60FFF7A9FF00E0F6
:100D80000024204610BD00BFBC700400D0700400D9
:100D9000B070040010B500213022044609F07AD961
:100DA0000C4B23600C4B63600C4BA3600C4BE3605B
:100DB0000C4B23610C4B63610C4BA3610C4BE36147
:100DC0000C4B23620C4B63620C4BA3620C4BE36233
:100DD00010BD00BF00000000EE130400F01304007B
:100DE000D8660400D86604006470040068700400CB
:100DF0007C760400A07E0400B05F0500BA680500A0
:100E0000E308060070B51E4D8CB06846FFF7C2FFC0
:100E10002978E9B90898099C241A06D0224609F0D5
:100E200039D908982146FFF789FF21461548FFF771
:100E30005BFE154B00221A70144B012219682A70B0
:100E4000E1B10B78D3B1124B186809F03BDE15E025
:100E5000104E317891B90A980B9C241A06D022467C
:100E600009F018D90A982146FFF768FF0A48214679
:100E7000FFF73AFE00232B70012333700CB070BDD6
:100E8000CC700400ABB48300D470040010070000E1
:100E9000C0700400DC700400DDB48300014B1868EE
:100EA000704700BFD86604002DE9F04F9DB00EA832
:100EB000FFF770FFFFF7F2FF0E9B0F9A1399D21AFC
:100EC000129B119CC3EB01091599149B6F4ECB1A11
:100ED0001099DFF8F881C1EB040B93443268D8F81D
:100EE000001002F59052521A4A44D218DFF8E0A1DD
:100EF000674C5A441218674F0D92DAF80050226876
:100F00006548AD183A680C93C5EB020CCDF82CC0BF
:100F1000FFF7EAFD0C9B09F57E71019303F57E73E3
:100F200007339B0A07310BF57E72890A0732029359
:100F30000523920A0091039359464B465748FFF701
:100F4000D3FD336820683968DDF82CC00190039325
:100F500000F57E7003F57E730CF57E7601F57E72EA
:100F600007300733800A9B0A07320736920AB60A0F
:100F7000029004934A4863460096FFF7B5FD0D9929
:100F800005F57E7201F57E7307339B0A0732920ADC
:100F9000009329460D9B4348FFF7A6FD424B43486B
:100FA0001968FFF7A1FD424B40461968414B0A689A
:100FB00057469A4203D04048FFF796FD23E01A9126
:100FC0000B4604E016683B4D131DAE4203D11A4692
:100FD0001BAB9A42F6D300681AABC1EB030CC61ADE
:100FE000851AC1EB020E8DE8011034481A92CDF833
:100FF00008C0CDF80CE0CDF810E0059606960795F0
:101000000895FFF771FD2E4D286800283BD0037826
:10101000002B38D0B0F8068009F03ADD2B6808F1D3
:10102000FF385D89024608FB05F606F57E73073337
:10103000403505FB08F5002BBCBF06F5FE630E33FB
:101040009B128DE8280005F57E730733002BBCBF8B
:1010500005F5FE630E339B12029341463346194851
:10106000FFF742FD23683A68991B9B185B1B03F549
:101070007E7001F57E720730800A07320090920A76
:101080001148FFF731FD1DB0BDE8F08FA8700400D6
:10109000D0700400BC7004000FB583001EB583003F
:1010A0005CB58300A0B58300B4700400DAB583009A
:1010B000C87004004B415453F4B5830017B6830045
:1010C0001007000094B68300C0B68300E0700400EF
:1010D000B070040008B571460448FFF705FD40F6FE
:1010E0007720BDE80840FFF7F1BB00BF14B78300CD
:1010F00070B5044645690DE0A368D4F89C005A5DBC
:1011000031460CF041DFE368013B9D4201D00135DF
:1011100000E0354623699D4207D00521D4F89C00A4
:101120000CF02ADF10F02006E6D0656170BD0000EB
:10113000084B10B51C68A36853B1D4F89C301BB998
:1011400010BD2046FFF7D4FF226963699A42F8D1A7
:1011500010BD00BF18070000144B70B51C68054691
:10116000002C21D00A2802D10D20FFF7F5FFA1683D
:10117000D1B1E06822690138824201D0531C00E0FD
:1011800000236669B34205D1834201D0581C00E0B8
:10119000002060618D542361D4F89C3023B1204637
:1011A000BDE87040FFF7A4BF70BD00BF1807000086
:1011B000F8B5474B1C68256875B1631900261E7782
:1011C000A561A319187F0136FFF7C6FFAE42F8D11B
:1011D0000A20FFF7C1FF62E0D4F89C00002875D018
:1011E00002210CF0C9DE00F00F0001286ED00228A9
:1011F00002D12046FFF77CFF0521D4F89C000CF0BB
:10120000BBDEC20762D50021D4F89C000CF0B4DE2E
:10121000030607465AD41F2809DC0D2856D84FF07C
:10122000F273834052D50D2817D0082801D07F2FA4
:101230000CD1A369002B49D0013BA3610820FFF723
:101240008BFF2020FFF788FF08203BE00A2F05D006
:101250001F2F03D801232777A3610A271D4E384685
:10126000FFF77AFF32780AB10A2F2FD1A5690A2F2A
:1012700004EB050311D00135042D1F7709D142B9C4
:1012800004F11C0014492A4608F08EDF08B9012336
:1012900033707F2DA56102D8F8BD00221A770D4E5C
:1012A00033783BB97F2DA56104D804F11C00294691
:1012B0000CF0F4DD00233E20A36123603370FFF7C0
:1012C0004BFF2020BDE8F840FFF746BFF8BD00BF48
:1012D0001807000000710400E4660400064B10B516
:1012E0001B68446803B19847044B20461968BDE861
:1012F000104000F08DB900BF680800005C71040068
:101300002DE9FF4103680446A3F110020F2A04D817
:1013100004B0BDE8F0410CF0819B032B0FD1424A91
:10132000C36C22F00102934209D1426C06339361EF
:10133000436C4FF0FF321A6004B0BDE8F081FFF754
:10134000F7FE3A4B3A481968FFF7CEFBA36C2246EA
:101350000093636C37480193A3680293E368039397
:101360002168E36CFFF7C0FB656CFFF797FDE3694D
:10137000666C0093236A04F110010193636A861B73
:101380000293A36A2C4803930EC9FFF7ADFBA36B2E
:1013900004F12C010093E36B28480193236C002493
:1013A00002930EC9FFF7A0FBEB682548009395E870
:1013B0000E00FFF799FBEB6905F11001009321483E
:1013C0000EC9B608FFF790FBA046274617E0625902
:1013D000D3070FD5FF2A0DD91B4B9A4204D9A2F58A
:1013E0000003B3F5801F05D818482146FFF77CFBA2
:1013F00008F1010801370434B8F10F0F01D8B742E2
:10140000E5D1134B0021186800F002F9014611489C
:10141000FFF76AFBFFF78CFE40F2893004B0BDE8AD
:10142000F041FFF753BA00BF41E18000AC70040007
:101430008516040092160400C7160400FA1604006C
:101440002917040047170400EE1304006517040071
:10145000F006000071170400FFF752BF1E4B70B575
:101460001968002814BF044602248C421B4B1C4DF3
:101470000ED9621A1A601B4B1B48D3E900231219BC
:1014800043F10003C0E900230C464FF0A06609E0D9
:1014900000221A602B681E6A0E2ECCBF4FF0C85671
:1014A0004FF0106628680CF06DD92868436A03F481
:1014B000F033B3F5005F0D4B03D91A680021C2F871
:1014C00040161B683443C3F84446D3F84436BDE89D
:1014D00070400CF0659900BFD4060000187104003C
:1014E000F0060000107104000871040000070000FD
:1014F000164B17481A68F0B5D2F81436D2F81416FD
:10150000144C8B4218BFD2F81436134AD4E9006742
:1015100011681360591AD0E90023521843F10003EF
:10152000C0E900230D4B01251B680022E3FB016786
:101530000B4B3243196820398D40013D07EA050302
:10154000C4E9002337FA01F0F0BD00BF0007000036
:10155000107104002071040024070000EC660400F0
:10156000F066040010B51C4C20680CF00BD9206804
:10157000436A03F4F033B3F5005F184B03D91A68DC
:101580000021C2F840161B68D3F844460CF008D975
:10159000A20120D5114B40221B68C3F80826D3F8BE
:1015A00008360F4B1B6893B1FFF7A2FF0D4B0E4996
:1015B000D3E90023D1E90001904271EB030434BF69
:1015C000C0EB02000020BDE81040FFF747BFBDE8B8
:1015D00010400CF01D9B10BDF0060000000700003D
:1015E000187104000871040010710400064B0749CB
:1015F0001A680968A0FB0223CA40C1F1200113FA4E
:1016000001F08018FFF72ABFD0060000F46604003E
:10161000F8B504460E4611F04BDE0022054640F6B2
:101620002A01204612F05CD9D0F894702946C0F8FF
:101630009460204612F064D93846F8BD0120704706
:1016400090F8683233B90369D3F8E02122F002023E
:10165000C3F8E0217047000010B50346144631B1CD
:101660000269D2F8E01141F00201C2F8E0115869B4
:10167000D968302243F698230CF05ED8302805D084
:1016800003482146BDE81040FFF72EBA10BD00BF49
:10169000E9B78300014A0121FFF7DEBF9418040077
:1016A00038B5036904465D68002315F0010580F82C
:1016B000693218D0012580F8DC5180F8923241F26D
:1016C00088300CF025DB2046FFF7B8FF30B1A06969
:1016D00001F0AAFB2046FFF7B3FF17E0A0692946F7
:1016E00001F084FB12E00CF04BDAC4F88C022046C7
:1016F000FFF7D0FF84F8DC5184F89252A06901F022
:101700002CFC94F868320BB184F86852002038BD84
:101710002DE9F04101268E40F64304460D46F6B20F
:101720004FE0E068414609F05FDCA36807460E2BF6
:1017300016D1626840F61A039A4211D11DB9B8F861
:101740001430042B03D9204613F0F6DF40B12046B5
:10175000002113F0E3DF94F8DE31334084F8DE310A
:1017600094F891324BB1D4F8E8319D4205D1A0698B
:101770002946424600F0FAFF04E0E06841460122B3
:101780000CF00EDD05F1580304EB83035A68D71BF8
:10179000002F5F6005DA00225A6010481049FFF7F9
:1017A000A3F905F1540354F82320013A002A44F820
:1017B000232006DA002244F823200A480849FFF7CC
:1017C00093F905F10A0354F82300074B0021DB6B62
:1017D000984780460028A4D1BDE8F08132B8830044
:1017E0007B17040048B88300E853830010B501B1AB
:1017F00004310531012414FA01F103691A6D22EA5A
:101800000101196541681A6D40F61A0291420AD128
:101810005B68806913F00C0F14BF00210121BDE843
:10182000104013F0D79A10BD036970B516462B22ED
:101830000446C3F8202314200D460CF069DA2D026B
:1018400045EA4636236946F06B061420C3F8206348
:10185000BDE870400CF05C9A38B503692B22044651
:101860000D46C3F8202314200CF052DA2D02236910
:1018700045F0AB05C3F8205314200CF049DA236976
:10188000D3F8240380B238BD2DE9F04F8E8891F84B
:1018900002B004460F46C878A349F60431400BF065
:1018A0000F0600F0030531434FEAC21A0AF4F06A4A
:1018B0008FB041EA451141EA0A014FEAC32A189B59
:1018C0000AF4F04ADB0341EA0A0103F4F02341EA97
:1018D000030A4DB14FFA8BFBBBF1000FACBF4FF4C5
:1018E000803B4FF0807B01E0DFF850B200F00F004A
:1018F0000D2804D123691A6842F040021A604FF0A3
:101900000008102126460A914546CDF82480D6F8D5
:10191000A0311BEA030F40F05B81B36A002B40F05B
:10192000D980FB780CA803F00303032B7F492A46D8
:10193000DFF8FC912CD108F0E3DBA368E068062B0C
:101940006269216903D805F110035B0102E005F12A
:1019500014039B01D4F810E2CB18CDF804E0002169
:101960004FF0FF3E009102910391CDF810E00591F8
:101970004FF0040E07910CA9CDF818E002F092FD8B
:101980002AF0FE5A2AF4601AB0624AF0807A5FE0C8
:1019900008F0B6DBFB78990705D1D4F81822D4F803
:1019A00004820B9208E0D4F80C32D4F80882002BA1
:1019B00008BF4FF4E8630B93A368E068062B6269E5
:1019C000216908D805F110035B014FEA451ECB18C9
:1019D0000EF5047E07E005F114039B014FEA851E16
:1019E000CB180EF5A46E71440091D4F810124FF08C
:1019F000040C0191D4F81412CDF818C002910B997F
:101A0000CDF820C003914FF0FF31049100210791E0
:101A10000CA9CDF8148002F045FDB062FB78DDF82A
:101A200020C003F00303022B12D16146D9F8943091
:101A300062469847D4F8601251B10B7843B14B8994
:101A40000B9A9A4204DC3A4BB06AD3F8B03098470C
:101A5000B36A3BB937482946FFF746F840F23A20C7
:101A6000FEF734FFD9F8B830B06A94F8301294F821
:101A700034229847D9F88C30B06A2F499847C6F875
:101A8000A400B8F1000F0BD0294B05F12E0104EB97
:101A90008502B06A04EB8101CC32D3F884309847D8
:101AA0002269F8780A9902F5806300F00300043394
:101AB000002D08BF002140015850FB7805F58071CA
:101AC00003F003035B0102EB810253606319002200
:101AD00083F844211BF4803F41D0236905F58072CF
:101AE00003EB82035B688AEA030313F0600F6FD194
:101AF000FB78DFF83C9003F00303022B04BFC4F82B
:101B0000E851C4F8E481D9F85C30B06A9847B06A0B
:101B1000D9F8583098472046294613F0CFDA7DB1DE
:101B20002B1D09930DE000BF0000F81F6EB8830065
:101B3000E853830077B8830091B883000000010167
:101B40000995236905F140024FF0807143F8221096
:101B5000099901F5807203EB8203C3F804A01BF01E
:101B6000807F21D023690A9A03F580630433002D16
:101B700008BF00229B5883EA0A0313F0600F27D1A5
:101B8000194F05F10A06BB6854F8260098477B6890
:101B900054F826009847236905F580714AF0100231
:101BA00003EB81035A60099523692A1D03EBC203E5
:101BB0005A68683542F47C4242EA0B025A6054F893
:101BC00025304BF47C4B4BEA030344F8253007E007
:101BD0000A9A013504320436052D0A927FF497AE35
:101BE00009980FB0BDE8F08FE853830038B505467B
:101BF00000240CE0284613F063DD430306D52B696F
:101C00004FF480229A642846FFF74AFD013495F884
:101C1000DC3123B143F698239C42EBD101E0012C47
:101C200003DD03482146FEF75FFF012038BD00BFFA
:101C3000EA17040070B500210446474AFFF70CFD7F
:101C400023691A68D0052DD55B68590506D4A069AB
:101C5000012101F045F9054608B97AE0002523691C
:101C60005E6816F0010609D13C48FEF73DFF84F896
:101C7000DC6184F8696284F8926210E01B212046DE
:101C8000FFF7EAFD810B02290FD03548FEF72CFF44
:101C9000002384F8DC3184F8693284F89232A06938
:101CA00001F05BF94FF0FF3070BD0B2120464FF67D
:101CB000FF72FFF7B9FD0C2120464FF6FF72FFF7C8
:101CC000B3FD0E2120464FF48852FFF7ADFD0D21E4
:101CD00020464CF2EC02FFF7A7FD0D2120464CF206
:101CE000ED02FFF7A1FD0D2120464CF2EF02FFF7B8
:101CF0009BFD1B212046FFF7AFFD810B012902D080
:101D00001848FEF7F1FE4FF4FA600CF001D82046B7
:101D10000D214CF2EB02FFF787FD44F620600BF03B
:101D2000F7DF2DB110E04FF47A700BF0F1DF0135E1
:101D300023695B68DA0702D51E2DF4D101E01E2D60
:101D400002D10948FEF7D0FE012384F86932002051
:101D500070BD4FF0FF3070BD8A180400F317040007
:101D600016180400311804004218040038B503693D
:101D7000044680691D6812F0B5DF410648BF45F092
:101D800080052369820648BF45F480751D602046A2
:101D900013F006DA10B9012384F8903223691B6826
:101DA00038BD0000D0F8E8312DE9F74399420446E8
:101DB0000D467ED113F082D97BE0336853B3E068DF
:101DC000314609F0A5D87A6803461268824221D2CA
:101DD00005F1540754F82710D4F8F8218A422DD081
:101DE00005F1580804EB8808D8F80420D4F8FC0161
:101DF000904223D08DE806004E484F492A46FEF710
:101E000073FE54F82730C4F8F831D8F80430C4F819
:101E1000FC3113E0A3680E2B1ED1626840F61A0352
:101E20009A4219D1C5B9B38A042B15D8204613F0AC
:101E3000B7D918B9204613F0A3DD28B948460021C8
:101E4000324609F001D849E0204613F075DC18B994
:101E50002046012113F062DCE068314609F0C4D865
:101E6000C305DB0D07462BB9E068314608F0E6DD17
:101E70000C23038305F1540354F823202046013238
:101E800044F8232005F1580304EB83035A6800212A
:101E9000BF185F60284AFFF7DFFB002384F8903209
:101EA00005F10A0354F82300244B314601229B6AB2
:101EB000984705F1280704EB87077B681B686BB11F
:101EC0004FF0140909FB054909F140094846002172
:101ED00008F036DF064600287FF46FAF142303FBBB
:101EE0000543B3F84630032B11DD631993F84921FC
:101EF000EAB9012283F849212946A0695E3512F02A
:101F000079DF54F82530013344F825300FE00ED046
:101F1000631993F84921012A09D1A06900222946B1
:101F200083F8492103B0BDE8F04312F0599F03B094
:101F3000BDE8F083A9B883008D170400E85383003F
:101F40000429F8B50446174601DD0D1F00E00D46D3
:101F500005F10A0354F823601EB92848FEF7C4FDB2
:101F600029E094F8DE311D4217D03B6913F00302DB
:101F700013D0B98A9A1A3A61C91803E013F8010B11
:101F800002F8010B8B42F9D1204613F0BFDB20B1E0
:101F9000D4F884320133C4F88432142000FB0540A5
:101FA0004030C28883889A420BD3FE8A730508D4D6
:101FB00016F4006605D1E068394601220CF0F0D82D
:101FC0001AE0A3680E2B0ED1626840F61A039A42FB
:101FD00009D1BB8A042B06D82DB994F8DE3143F021
:101FE000010384F8DE3100213A4608F011DF204673
:101FF0002946FFF7D7FE01263046F8BDE0B883003A
:10200000F8B51F4604461646BDF818300D46B9B956
:10201000990715D103691332012010FA02F2196DE4
:102020000A431A6594F8553253B9A06912F0E8DDF5
:1020300030B923692046196901F00F01FFF796FEB8
:10204000142303FB0646002106F1E0003A4608F09F
:10205000DFDE20462946BDE8F84013F0B39B0000C0
:102060002DE9F04F9A4602F10A0350F8238000EB65
:102070008203B3F8CC6002F12E0330F823B0D0F81D
:10208000F43115460133484F85B0C0F8F4310446A9
:102090002B46464A46480291CDF800A0FEF724FDA3
:1020A000FB6D4046984724E0D9F8102053889BB236
:1020B000039313889BB223B30BEB0302B24228BFF6
:1020C0003246A9F81420C6EB0B02D318002B08DD0A
:1020D00032B2009220464A4641469BB213F082DA61
:1020E00081460398029900902A4620464B46FFF706
:1020F00087FFFB6F40460121984781460028D3D1D6
:102100004CE0BAF1000F09D128492A48FEF7ECFC4F
:10211000E068494652460CF043D828E0A2F800A0F7
:10212000D3440AF1040AC6EB0A03B34528BFB346F9
:10213000002BA9F814B008DD4A4636B220464146C5
:102140009BB2009613F04EDA8146E068494608F0EB
:102150004BDF41F65833984201D917481FE014204D
:1021600000FB05400021E0304A4608F051DE0298AD
:10217000236900F10902012010FA02F2996C40462D
:102180000A409A64BB6F98474046BB6D984720460B
:10219000294605B0BDE8F04F12F0909F074803496B
:1021A000FEF7A2FCE3E700BFE8538300B118040088
:1021B0000FB9830032B9830047B9830067B9830040
:1021C0002DE9F74F02690E4601F58073AC3102EB41
:1021D0008303042E02EB81025B680546546801DD2F
:1021E000371F00E0374613F0100801D0002E2AD127
:1021F00007F1680355F82330DB0320D5DFF8A0A0F2
:1022000007F10A09DAF8643055F82900984783463F
:1022100060B9DAF86C3055F82900984730B1DAF82F
:10222000B43055F829005946984740B12846314600
:102230003A46234603B0BDE8F04FFFF711BFB8F1AF
:10224000000F00D14EBB07F1680355F82330D801C9
:1022500023D5DFF84C9007F10A08D9F8343055F847
:102260002800984760B9D9F80C3055F828009847ED
:1022700030B1D9F8B43055F828000121984760B141
:10228000284612F029DE01F04DFE01230093284676
:1022900031463A46234613F091DB03B0BDE8F08F98
:1022A000E853830010B5446840F618039C4209D1F6
:1022B00083683BB90AB1111D00E01146FFF780FFAA
:1022C000002010BD436A19420CBF0020012010BD40
:1022D00013B5064B04469B68806A98470021204648
:1022E0000A460B46009113F069DB1CBDE8538300DE
:1022F000036970B50D46043153F83120044643F8A4
:10230000312005F1B80350F823601643002216F47B
:102310007C4F40F8232004D031462A46FFF7C2FF05
:1023200030BB154B3340B3F1807F0ED12046294698
:10233000FFF7EEF9204612F033DF30B9A06912F052
:102340005FDC10B1012384F8903216F490300BD08A
:102350002046294613F012D930B1B83554F825304B
:1023600043F4803344F82530003018BF012070BD9D
:102370004FF0FF3070BD00BF0080000102690023F4
:10238000D364C36170470000024B0269C361D36428
:10239000704700BF7FFEEFFF10B590F8DD310446B7
:1023A0008BB190F8DC311BB10121094AFFF754F9D8
:1023B000204613F085D948B1E36933B1236A184345
:1023C0002062012010BD184610BD184610BD00BF88
:1023D000A5180400426840F61A039A4207D103691F
:1023E0005B6813F00C0F14BF002001207047002021
:1023F000704713B504466A4601AB4FF4006140696B
:1024000011F090DA9DE80600D0F818366069C4F83B
:10241000583211F02FD91CBD13B504466A464FF44B
:10242000006101AB406911F07DDA9DE8060060694A
:1024300011F020D91CBD00002DE9F8430446256A9F
:1024400000262903266223D523694FF400229A64CB
:10245000A06900F071FC94F8DC315BB194F8DD31D7
:1024600043B184F8696284F8DC6184F89262A069FF
:1024700000F073FD94F8DD61002E00F0C58094F843
:102480006862002E00F0C080002684F86862BBE01D
:102490006A061CD5236940229A64204612F044DF64
:1024A000A8B994F856322269D3F1010338BF00234A
:1024B00084F8563284F8DC311169204601F07061ED
:1024C000090E13B1FFF795FF01E0FFF7A5FF6B03BE
:1024D00006D523694FF480229A642046FFF7E0F87E
:1024E000EE0206D523694FF480129A64A06912F0B7
:1024F0006DDC15F400160AD023694FF40012196937
:1025000020469A6401F00F01FFF730FC7BE0404B5E
:102510002B40CBB1012306F1090213FA02F22A4043
:102520000FD0042ED4BF06F11B0106F117018B401A
:102530002B4202D023699A6403E020463146FFF71C
:102540003FFE0136092EE5D115F03F022ED023695A
:102550009E6C16F400160CD019694FF40012204638
:102560009A6401F00F01FFF701FC204612F0C0DC75
:1025700065E7A8069A6405D5204612F0FFDE00281C
:1025800042D113E094F8DF6186B90123B3402B42B6
:1025900009D020463146FFF729F920463146FFF79A
:1025A000A7FE00282FD10136052EEED115F0F866D2
:1025B0001AD00026374607F116094FF0010808FA2D
:1025C00009F919EA050F0CD020463946FFF790FEAD
:1025D000002805DD236A464643EA0903236200E03A
:1025E00012D10137052FE6D10025142303FB054343
:1025F000B3F846301BB120462946FFF7D3FB01351F
:10260000052DF2D100E000263046BDE8F88300BF7A
:1026100000FE030010B50446FFF73CF823691A6872
:1026200042F000721A601A6822F004021A6010BDAB
:10263000036910B51A68044622F000721A6011B1DD
:1026400008460BF065DB23691A6842F004021A6041
:102650001B6810BD38B590F8DC31044613B990F80A
:10266000683223B1002384F89232012038BD036917
:10267000D3F8E051C5F3400535B90121184AFEF7FA
:10268000EBFFC8200BF044DB23690B221C21C3F8AD
:1026900014232046FFF7E0F810F0060F07D0226958
:1026A0004FF48011936C9164C3F3005300E0012355
:1026B00035B92269D2F8E01121F00201C2F8E01127
:1026C0004BB994F892020130C0B284F892020238F9
:1026D00018BF012038BD002384F89232012038BD94
:1026E0007DB7830000487047FC66040000487047CF
:1026F00017670400004870470567040070B501259E
:1027000004460E468D401BB1D2F1010238BF0022B3
:102710002946B2400223C06810F0EEDEE068294688
:102720002A460223BDE8704010F0029F38B5D0F869
:10273000603504460133C0F86035D0F8743563B1B4
:10274000D0F868550BF01CDAD4F87435ED1A2D1852
:102750000023C4F86855C4F874350BF011DAC4F8D6
:102760007C056068BDE83840FFF754BF2DE9F843A9
:10277000154613690446928A00294AD190F8060248
:1027800001281BD1032A196840F2A280022940F0D7
:102790009F80102A40F09C8099685A68022907D0CF
:1027A000042908D0012940F09380DB6813708FE082
:1027B0009B8913808CE0DB68136089E094F89B337D
:1027C0000BB3D4F8A03301331DD0D4F8A4639642E0
:1027D0000BD108460BF0CEDAD4F8A00329693246B3
:1027E00007F0D0DB01200BF0C5DA20682946002273
:1027F0000BF0D6DC4FF0FF33C4F8A0330023C4F84D
:10280000A433BDE8F883A0682946BDE8F84309F081
:102810008D9C90F8A832002B54D0022B58D0D0F8C1
:102820005465002E3CD1806809F09ADC2946814627
:1028300001F048FB95F81A80484629464FEA880877
:102840002F6901F0D1FAB8F1050F33DD3B78132B76
:1028500030D104F5AA600430B91C042207F092DBE1
:10286000D4F85435032B02D8C4F8546530E06068BE
:10287000012112F055DC0327206829460BF084DC87
:10288000064618B91648FEF72FF913E02A46606885
:10289000D4F81012FFF754FB013F3546ECD109E0A4
:1028A000711E0329C0F8541504D889B9406812F084
:1028B00037DC0DE06068D4F810122A46BDE8F84312
:1028C000FFF73EBB80682946BDE8F84301F0A6BB90
:1028D000206829460022BDE8F8430BF0619C00BF48
:1028E000BDB983002DE9FF4705468846106902A956
:1028F00016461F4612F0A8D89DF808300C9A002101
:1029000003F08000802B85F80612106040F00781EC
:102910009DF80990B9F1060F40F0CF8028684FF478
:1029200080710BF069DC0446002800F0E181BDF8FD
:102930000AA0D0F810904FEA1A23013B062B00F2B0
:10294000D781DFE813F007000D009F008F00D5014D
:10295000AE005100FFF7CEFE494611F0E9DFA9E0D5
:10296000494605F5F27012F0FFD809EB0006314632
:1029700005F5FE7012F004D9AC4B3618AC4A95F848
:102980000502314600280CBF1046184612F0F4D854
:1029900095F80532361813B105F50E7801E005F506
:1029A0001C78C146002707E04846314612F0E4D8BB
:1029B0000137361809F10709D5F820329F42F3D3C1
:1029C00008EBC708C7EB08074FF0000807E03846D8
:1029D000314612F0D1D808F1010836180737D5F87A
:1029E00020329845F3D396E0686812F0F3DB0028B4
:1029F00000F07E8105F5F6704946013012F0B4D83A
:102A000009EB0006314605F5FE7012F0B9D895F8CD
:102A10000532361813B105F50E7801E005F51C787E
:102A2000C146002707E04846314612F0A5D80137D5
:102A3000361809F10709D5F820329F42F3D308EB85
:102A4000C708C7EB08074FF0000806E031463846D4
:102A500012F092D808F101083618D5F834329845AA
:102A6000F4D358E0FFF73EFE03795FFA8AFA9A45FD
:102A700000F33E816F480AEBCA0A5044494612F0FF
:102A80007FD817E05FFA8AFABAF1030F00F33081BA
:102A9000422303FB0A5A49460AF1100011F0B8DF3D
:102AA00008E095F805320BB1634800E063484946F9
:102AB00012F05ED809EB00062DE0B9F1080F0AD13B
:102AC000286804210BF098DB0446002800F01081F0
:102AD000D5F8E0310CE0B9F10A0F0DD128680421D6
:102AE0000BF08ADB0446002800F00281D5F8F831AB
:102AF000066906F8013B0EE0B9F1000F40F0F580E1
:102B0000286804210BF078DB0446002800F0F080F0
:102B1000066906F8019B2369F61AA682C9E04BB93B
:102B20009DF809200B2A40F08D80BDF80A30C5F8C9
:102B3000F831F7E0212B05D1BDF80C20002A00F078
:102B4000F1807FE0A12B20D1BDF80C90B9F1000FEE
:102B500078D105F58C70494608F0F2D80446002873
:102B600040F0A78095F89A33002B00F0DB802868AE
:102B700004210BF041DB0446002800F0B980036912
:102B80000122828283F8009093E0412B11D19DF8BD
:102B90000930042B06D1A868294A4FF4FA730AF0C9
:102BA000BBDFBFE0142B40F0BD80012385F8063267
:102BB000B8E0C12B46D19DF80930092B0FD105F59E
:102BC0008C7008F0BDD80446002872D1012385F826
:102BD00007329DF8083003F080033B60A2E02868CC
:102BE00018210BF009DB0446002800F081809DF8D5
:102BF0000930052B07D103694AF223124FF0010E69
:102C000083E8044055E0082B53D10021284612F0F8
:102C100069D84FF47A700BF07BD82846012112F066
:102C200061D84FF47A700BF073D842E07180830062
:102C300052808300828083005980830078808300E3
:102C400001C1800095F89B2392B1402B10D19DF8D3
:102C50000930002B4BD1BDF80C20BDF80A3043EAF7
:102C60000243C5F8A033BDF80E30C5F8A43359E0CF
:102C7000C02B3CD19DF80990B9F1000F37D1BDF8B8
:102C80000E7028683946BDF80CA0BDF80A800BF01C
:102C9000B3DA0446002845D048460BF06BD848EA22
:102CA0000A413A46206907F06DD901200BF062D83D
:102CB000A7822868214608F097D9BDF80E309842BF
:102CC00031D921460022501C09D0888A12189A4214
:102CD00007DD9A1A801888824FF0FF3201E0002049
:102CE000888209680029EED11DE00C4600E000242E
:102CF0000F483169B28A11F091DFBDF80A109DF8D2
:102D0000082000919DF809300A484146FDF7ECFE85
:102D100024B12868214601220BF042DA01233B60EE
:102D2000002400E03446204604B0BDE8F08700BF30
:102D3000D5B98300DBB98300F8B50446406812F0CA
:102D40002FDA10B1606812F063D994F89A3343B166
:102D5000D4F80C1229B1606812F048DA0023C4F8E4
:102D60000C322546264600270AE0D6F8241211B177
:102D7000606812F03BDA0023C6F8243201370436CB
:102D8000D4F834329F42F0D300260AE0D5F810126E
:102D900011B1606812F02ADA0023C5F8103201364A
:102DA0000435D4F820329E42F0D394F8B93300258C
:102DB000C4F8E0517BB194F8C03384F8B9532BB117
:102DC000D4F8BC030AF0E0DD84F8C0532046BDE827
:102DD000F840FFF7ABBCF8BD0068002380F8C033B3
:102DE00090F8B9330BB1FFF7A7BF7047012970B551
:102DF00004460D4615D1D0F858350133C0F8583582
:102E00000AF0BEDEC4F87805D4F868650AF0B8DECA
:102E1000D4F87435F31A1B18C4F868350023C4F8C5
:102E2000743584F8AE5270BD38B5D0F8B05304464E
:102E3000012D08D1D0F8AC03D4F8B41300220AF065
:102E400075DD84F8B85320460121FFF7CFFFA06855
:102E5000BDE8384009F0C29938B50D4690F8071220
:102E6000044641B1406800212A4612F05FD9002390
:102E700084F8073216E0B0F81E21B0F81C319A42EF
:102E800005D22A4600F58C7007F0C2DF0AE012492D
:102E90001248FDF729FE206829460122BDE8384086
:102EA0000BF07E9994F89A33ABB1206808210BF0AF
:102EB000A3D9054678B100210822006907F0EAD8B5
:102EC0002B6901221A606068D4F80C122A46BDE80A
:102ED0003840FFF735B838BDD21804001FBA830058
:102EE000F8B590F89C5304460E46002D33D0D0F828
:102EF000A823FF2A2ED002F01F0390F8C113D20995
:102F00000125AEB139BB15FA03F6D2F1010238BF83
:102F100000229A4031460223C06810F0EDDAE068E2
:102F200031463246022310F003DB84F8C15312E02D
:102F300089B115FA03F79A4039460223C06810F0A8
:102F4000DBDAE06839463246022310F0F1DA84F821
:102F5000C16300E000252846F8BD38B590F8AE32D0
:102F600004460BB3D0F85C35D0F86C550133C0F88B
:102F70005C350AF005DED4F87835ED1A2D180023FB
:102F8000C4F86C55C4F878350AF0FADD94F8A91243
:102F9000C4F8740541B92046FFF7A2FF204611F09E
:102FA000F3DDA06809F0EAD8002384F8AE3238BD1A
:102FB000D0F8BC322DE9F74FFF2B04469046D0F8ED
:102FC000C06200F01D8106F01F06012717FA06F601
:102FD00003F01F054FEAD31A00294CD090F8AF2216
:102FE000BA4200F00D815B0609D5DAF1010138BF64
:102FF0000021C06817FA05F2002310F0B5DA0127A6
:10300000AF40DAF1010238BF0022AA40022339465C
:10301000E06810F071DA3A460223E068394610F0B1
:1030200087DAD4F8BC2212F0400204D1E0683946B5
:10303000022310F07DDA012384F8AF3294F8B03225
:1030400033B1D4F8CC020AF09FDC002384F8B0320C
:10305000B8F1000F00F0D480E06810F00FDA3042D1
:1030600003D0CDE064200AF053DEE06810F006DA09
:103070003042F7D0C4E0002A59D090F8B132002B8A
:1030800055D0C06810F0FAD9304250D1D4F8C432CB
:10309000204603F01F0939463A4600F0B4F807FA13
:1030A00009FB3CE0B4F8B2226AB34FF47A730FB96B
:1030B000B4F8B4225343093305E00A2000930AF020
:1030C00027DE009B0A3BE068009310F0D7D930421E
:1030D000009B01D1092BF0D8D4F8C4220FB1D2093A
:1030E00003E0D20914BF0022012202FA09F2E068CB
:1030F0005946022310F000DA87F001070FE00A209A
:103100000AF006DE02E040F22D130193E06810F0B1
:10311000B5D9304203D1019B013B0193EFD1E06867
:1031200010F0ACD93042BDD0204611F0B5DC94F897
:10313000AF3213B9B8F1000F62D0D4F8BC12480610
:1031400007D5C9090122E068C9B2AA40002310F0DE
:103150000BDA0126AE40022331460AFA05F2E06896
:1031600010F0CAD902233246E068314610F0E0D9A7
:10317000D4F8BC325A060ED5DB0914BF0021012158
:1031800032463346E06810F0EFD9E068314600225D
:10319000022310F0CDD9B4F89823002384F8AF327D
:1031A0000AB3B8F1000F0DD094F8B132DBB9B4F81E
:1031B000BA334FF47A70002B08BF134658430AF015
:1031C000A7DD10E094F8B0321BB1D4F8CC020AF0BD
:1031D000DBDBD4F8CC02B4F8981300220AF0A6DBAB
:1031E000012384F8B032606811F0DADF40B194F85E
:1031F000B1122046002203B0BDE8F04F00F003B842
:1032000003B0BDE8F08F2DE9F041044616460029D1
:1032100035D090F8AD22D0F8C4320AB1002E3AD0A1
:1032200003F01F08012505FA08F7DB0914BF002188
:1032300001213A460023E06810F096D9D4F8C43250
:103240003946DB0914BF0022012202FA08F20223E8
:10325000E06810F051D93946E0683A46022310F090
:1032600067D9B4F8B21284F8AC5289B186B9D4F8EF
:10327000B80232460AF05ADB84F8AD5208E090F802
:10328000AF322BB990F8B0222AB90121FFF790FE96
:10329000002384F8AB32BDE8F081000070B590F8EF
:1032A000AE3204460E464BB190F8A93233B94068AD
:1032B000FEF7C0FC10B96068FEF798FCD4F8101255
:1032C00094F8A95249B194F8AE3233B92DB9606877
:1032D0003246BDE87040FEF733BE35B994F8AE32E1
:1032E0001BB9D4F8E031002B33D1B4F8D622B4F8AE
:1032F000D4329A420BD3F58A6A0508D415F40065D6
:1033000005D12068314601220AF04ADF06E004F5C3
:1033100034700021324607F07BDD012594F89C33A0
:1033200003B394F8A932EBB194F8B112012684F8F2
:10333000AB6249B194F8AA22A2B920463146FFF700
:1033400062FF84F8AA620DE020460A46FFF75BFFA1
:1033500008E005490548FDF7C7FB20683146012212
:103360000AF01EDF284670BDE51804003DBA830050
:103370002DE9F04F9B468BB0002304460F461646BE
:103380009DF85050099302E0FA5C12B10133B34248
:10339000FAD1FA5C002A40F0988103F1010A4DB19C
:1033A0000533B34200F28E8109A807EB0A0104221B
:1033B00006F0E8DD94F89C3307F10409002B4BD0AC
:1033C00048468C4906F0BADE8046002844D1002DDC
:1033D0003FD0032E40F27681099B012B02D884F85E
:1033E000B1327AE1632B12D194F8B883B8F1000FAF
:1033F00040F065810323C4F8B033D4F8AC03322124
:1034000042460AF093DA012384F8B83365E1642B6D
:1034100002D12046414603E0652B05D1204601211B
:103420004246FFF7C5FD58E1662B40F04E8194F807
:10343000B833002B40F043810423C4F8B033D4F8F0
:10344000AC03322100220AF071DA012384F8B83388
:1034500041E194F8B132CBE094F89C3363B1484633
:10346000654906F06BDE804630B9D4F8BC2202F024
:103470001F065DB3604B1EE094F89C3363B1484671
:103480005E4906F05BDE804630B9D4F8C02202F017
:103490001F06DDB1594B0EE094F89C3313B3484638
:1034A000574906F04BDE8046E0B9D4F8C42202F05A
:1034B0001F065DB1524B0093099BD2090033204691
:1034C000314618BF0123FFF719F906E1E0680FF054
:1034D000D5DF0123B340034033FA06F606F00106B8
:1034E0000996E3E094F89C3363B14846454906F0F9
:1034F00025DE38B9002D00F0E880032E40F2E2808E
:1035000002230BE04846404906F018DE60B9002D62
:1035100000F0DB80032E40F2D5800123C4F8B033E5
:10352000099BC4F8B43360E04846384906F006DE2B
:1035300050B935B1032E40F2C580099B84F8A832FA
:1035400053E094F8A83253E04846314906F0F6DDDE
:1035500090B9304A136899B25DB1099C1CB141F031
:103560000203136041E04FF6FD7119401160A0465F
:10357000B3E0C3F340033BE094F89B33002B2BD024
:103580004846254906F0DADD804628BB4FF0FF3378
:103590000F2E099340F29680102205A807EB0A012E
:1035A00006F0F0DC079A069B022A0AD0042A0FD004
:1035B000012A40F08A8015B1089A1A708DE01B78B4
:1035C00016E01DB1BDF820201A8086E01B880FE0B0
:1035D0006DB1089A1A6080E04846104906F0AEDDE9
:1035E00000BB0F4B1DB1099A1A60804675E01B683D
:1035F00009935BE04EBA830059BA830065BA830031
:103600006FBA830078BA830082BA830091DB8300AB
:10361000C0180400E001001889BA8300C71804002C
:103620009C67040048462F4906F088DD06460028BE
:103630004ED16DB131461C2204F5AB6006F02ADD97
:1036400004F5AE60043031460C2206F023DD10E0B4
:10365000D4F868650AF094DAD4F87435F61A361896
:10366000C4F868650AF08CDAD4F86835C4F87405D3
:103670000993D4F86805D4F85895D4F85C85D4F843
:103680006065D4F864A508B90AF07ADA0190CDF83B
:1036900000A0D4F86C3514480293D4F8703549462C
:1036A000039342463346FDF71FFAA5B9384609A9E8
:1036B000042206F067DC0423CBF800300BE06FF047
:1036C00018080AE06FF00D0807E06FF0010804E049
:1036D0006FF0160801E04FF0000840460BB0BDE85F
:1036E000F08F00BF8FBA830097BA830038B50A46BF
:1036F000044641B990F8AB322BB190F8B112BDE855
:103700003840FFF780BDD4F86435D4F870550133E4
:10371000C4F864350AF034DAD4F87C35ED1A2D1883
:10372000C4F870550025C4F87C550AF029DA42F235
:103730001071C4F874056068FEF77AFF204611F036
:10374000ABD984F8B152204601212A46FFF730FC5C
:1037500084F8A95238BD10B50468002384F8B83342
:10376000D4F8B033013B032B18D8DFE803F014077B
:10377000020640F60360FDF7A9F8FEE794F8B122CF
:10378000012384F8AB320AB184F8AA322046002122
:10379000FFF7ACFF02E06068FEF74CFA0023C4F8C4
:1037A000B03310BD896903468869194600F008BC2A
:1037B00070B5134D134B28689E690FF06FDD40F60E
:1037C0001A018842044603D02868002210F088D8E5
:1037D000B068FEF73FFF30B90B48FDF785F940F2BE
:1037E000F710FDF773F840F61A039C4206D02868DC
:1037F00021460022BDE8704010F0729870BD00BFF5
:10380000F00600006C670400F3180400F8B5204BC4
:103810009C694CB1A06811F05BDB054628B1022120
:10382000012211F007D800E025461A4F38680FF042
:1038300035DD40F61A018842064603D0386800227A
:1038400010F04ED86CB194F8503053B14DB12846B9
:1038500000210122FFF7ACFB012128460A46FFF7B1
:10386000A7FB0421002238680FF010DD01200AF0C8
:103870004FDA40F61A039E4205D0064B31461868CF
:10388000002210F02DD80448BDE8F840FDF72CB90F
:103890006C670400F0060000121904002DE9F04FD7
:1038A00085B003920F9A0291109917460446DDF8ED
:1038B00038A001929B46002B18BF002771B10D69FB
:1038C0008A68436CAA1A14339A4201D280683EE097
:1038D0008B8A103D10330D618B824FE0036C426B7D
:1038E00003F110017818904226BFA2F11008C3EB33
:1038F0000808B846A06841440AF07EDC0646002865
:1039000050D0636C0569ED1808F1100305618382DE
:10391000BAF1000F0BD0B8F1000F08D0514605F1F5
:103920001000424606F02EDBC244C8EB07070096A3
:10393000A946B0461BE0666BA068B74238BF3E465A
:1039400031460AF059DC054638B9A06841460122E3
:1039500005B0BDE8F04F0AF0239C5146006932469D
:1039600006F010DB009BB244BF1B1D600095BAF14E
:10397000000F01D0002FDED14D464146029A019B37
:103980002A60039A6B60130C1B04BBF1000F01D07B
:1039900043F00103AB60054BC5F80CB01B686068D1
:1039A0001B69984705B0BDE8F08F00BF2C070000E9
:1039B0002DE9F0410E4650210446154698460AF07E
:1039C000D3DB0746A0B10021502206F063DB4FF4A1
:1039D000E8637B634FF47A73FB631C233B640C2323
:1039E0007B640423C7F80C803E607D60BC60BB64D0
:1039F0003846BDE8F08100002DE9F04FD1F8109075
:103A0000B1F814B0D9F8083091B00024BBF10F0F11
:103A1000D9F800A006460D4608930D940E940F9415
:103A2000D0F84080476C40F2C581D9F804301A0CB8
:103A30000D9309D09BB293450D9304D20D94079436
:103A40006FF00D07B9E113460D9AB2F5005F02D988
:103A500000240D94AEE1ABF1100B5B4538BF9B46E3
:103A6000EA68AB68C9EB0202391DC3EB090392B2E5
:103A70008B42AA8205D95B1AC3EB0901D3182961CD
:103A8000AB822B69296810332B61AB8A103B9BB248
:103A90000493AB8229B1B06800220AF081DB0023D5
:103AA0002B600D9BC7EB0808049908EB03028A42C0
:103AB000CDF828800CD8D5F81080AA681437C2EB4E
:103AC0000802BA4204D30122AB820024079217E015
:103AD000316CB068591814310AF08EDB044660B1BD
:103AE000736C002103F11408036907919844BDF831
:103AF0003430C0F81080838202E0012207928046B1
:103B00000023099306930593CDF82CA0474662E065
:103B10000D9B9B4528BF5B460693002B51D0B06898
:103B200019460AF021DB059028B30699049B2C4620
:103B3000C3EB01080DE0736BB068984534BFC24613
:103B40009A4651460AF058DB206040B1CAEB08089B
:103B50000446B8F1000FEEDC059F00243BE0296825
:103B6000012228600446B0680AF01ADBB0680599A3
:103B7000069A0AF003DB944B1B78E3B10D9B0A997C
:103B8000CA185A450DD9C1F580620499521893425A
:103B900007D9A3F580630D930122002309920593B1
:103BA000B6E704990A9A2F698B1A0D930021012315
:103BB000099305910FE0DDF82CA00D936FF01A0723
:103BC000FCE0069A089BB846DDF82CA00D92049301
:103BD0004FF0FF37BCE0002F9AD0DDF82CA0B8469C
:103BE000BBF1000F05D0384609F110015A4606F026
:103BF000C9D9764B9A4521D1BBF1070F40F2A48079
:103C00000599D8F804A0ABF1080B08F1080889B9A8
:103C100014B12346224601E02B462A461269083297
:103C20001A6114B12346224601E02B462A46928AA5
:103C3000083A9A82089B43F0020300E0089BDFF8F1
:103C40009C910493D144B9F5A07F28BFD146B9F522
:103C5000837F3AD006D8B9F1020F46D0B9F1FD0FF3
:103C600049D10EE040F2071399451ED040F20B13E4
:103C7000994540D130680021554AF36B09F04CDF7B
:103C800036E098F8023098F801201B0443EA02233A
:103C900098F8002098F803101343306843EA016154
:103CA00008F04ADACA46002752E040464949042251
:103CB00006F07ADA0346F0B9474A0121126800910A
:103CC0009769706841465A460DE0404641490422D2
:103CD00006F06ADA78B9404B0D9A1B68009070685C
:103CE0009F6941460DABB84702E0306808F02ADA18
:103CF0000746CA462CE0089B03F47041049B090B5D
:103D000013F0020208D00FAB01930EAB0293012314
:103D1000CDF800B0039307E010AB53F80C0D0392FD
:103D20008DE809000EAB029330685246434600F01E
:103D30002EF910F10E0F07460AD1099941B100235F
:103D40000D936FF01A0703E0089B6FF017070493B9
:103D5000059941B1B068294600220D9BCDF800803D
:103D600006F040DE08E0BDF83420002C14BF2346E6
:103D70002B469A82002305930FB10E9B0D93079952
:103D800029B92946B068079A0AF00ADA25460D9B38
:103D9000049A0193304651463B46CDF80080029587
:103DA000FFF77CFD059ADAB11146B068069A0AF071
:103DB000E5D915E007946FF017070694089B4FF0BC
:103DC00000080493CFE700BF986704003EDAFEFFC7
:103DD00001C18000231904002C070000E0EB1B0048
:103DE00011B0BDE8F08F00BF2DE9F0410C460B6922
:103DF000A268816C9A1A8A42074686683CD2B4F857
:103E00001480304641440AF0F7D9054630B92146BE
:103E1000304601220AF0C4D92C4650E0C38AE28A17
:103E200023F007031B0402F007021B0C1343C38299
:103E3000E28AD2064CBF43F0100323F01003C38282
:103E4000A37E8376E38A0069190544BF43F40063C7
:103E5000E382E38A21691A0644BF43F08003E382C8
:103E6000BB6C4246C01806F08DD821463046012270
:103E70000AF096D92C4604E05B1A2361A38AC9187C
:103E8000A182236920221A70E28AD00601D5242259
:103E90001A70E28A110503D51A7842F008021A70E6
:103EA000E28A120603D51A7842F001021A70E28AF9
:103EB00002F007025A7000229A70A27EDA70204641
:103EC000BDE8F081034670B59A6C8C8A8068944294
:103ED00023D30A6915782D096E1E012E1DD8C88AB4
:103EE000567820F00700000406F00706000C304367
:103EF000C882167816F0080F1CBF40F00800C88270
:103F0000012D01D1002000E0D07888769B6C002044
:103F1000D218E31A0A618B8270BD00220AF040D9E0
:103F2000012070BD08B508F01BD9012380F84C3082
:103F300008BD0029C36B09DD826C002A06DD01394A
:103F40009142BABF036C53F82130002318467047E2
:103F500030B50346B9B1C06B814216D09D6C0020CC
:103F60000CE01C6C54F82040A14200F1010404D183
:103F700013699A7814439C7030BD2046A842F0DB48
:103F80004FF0FF3030BD084630BD002030BD7FB55A
:103F900015461E46FFF7CDFF68B1099A03690092E6
:103FA0000A9A294601929DF82C2002925C693246B9
:103FB000089BA04701E04FF0FF3004B070BD000047
:103FC00070B504460E46406811460AF005D9014610
:103FD000E068FFF709FF0546D8B1204631462A467A
:103FE000FFF7B6FF002814DB0B4B20681B6829463F
:103FF000DB68984750B160682946E66906F0F4DF4F
:10400000636980190133E061636102E0E36A0133AF
:10401000E362002070BD00BF2C07000070B50B6983
:104020000446C0680E469D78FFF74CFF002823D158
:1040300005F00F012046FFF77CFF054648B9236ACB
:104040006068013331462A462362BDE870400AF0B9
:10405000A798606831460AF0F9D8024628B12B6962
:10406000A06BDB682946984718B1A36A0133A362A5
:1040700070BD23690133236170BD000073B50B4629
:10408000044600292FD0002A2DD0816B79B9C56B49
:10409000002D28D1C26383635A6253620095406841
:1040A00021462268FFF784FCE060A8B91BE0994232
:1040B00019D1C36B934216D0866C002009E0236CA3
:1040C00003EB800553F82030013013B92A605162A8
:1040D0000BE0B042F3DB06E004480549224609F054
:1040E0006DDF284601E04FF0FF307CBD89D78300AB
:1040F0004DC1800030B5D1B1CAB1836BBBB18B4229
:1041000015D1C36B934215D0856C00230DE0016C73
:1041100001EB830451F8231003F10103914204D110
:10412000002121601846516230BDAB42EFDB4FF0F9
:10413000FF3030BD4FF0FF3030BD704710B50D4A35
:104140000D4BD17E1970117F5970517F9970927FFC
:10415000DA7044F011FB45F0BBFC044644F0CAFAA7
:10416000204648F023FCFCF74DFE2046BDE81040F9
:1041700009F0289CE3080600AC70040070470000BA
:10418000004870477071040001392DE9F84F04466A
:1041900091461E460E2971D8DFE801F008187028F4
:1041A000707070347070707070703B0090F84620C2
:1041B000838B0AB1C58C00E0C58BED1AA369D905C4
:1041C0002ED53368AB4233D3A78B36E090F8462028
:1041D000038C0AB1C58C00E0458CED1AA3699A05E1
:1041E0001ED53368AB4223D3278C26E083694FF07A
:1041F000020513F4806F13D03368012B18D9876A36
:1042000002371AE0878CC58C8369ED1B13F4006FAD
:1042100005E0878BC58C8369ED1B13F4407F04D1C7
:1042200035606FF01D00BDE8F88F3368AB4204D2F3
:1042300035606FF00D00BDE8F88FA0680FF038D83A
:1042400000218346A0680FF05BDB4FF00008824638
:1042500009E008EB07022046514605F0C7DD08F1EA
:10426000010829F8020BA845F3D1A06859460FF0C0
:1042700047DBC6F800800020BDE8F88F6FF0010032
:10428000BDE8F88F044B1B78012B02D10020007091
:10429000704747F0D3BE00BFCC700400044B1B78BE
:1042A000012B02D100200070704747F08EBF00BF85
:1042B000CC700400044B1B78012B02D1002000704D
:1042C000704747F06ABF00BFCC700400044B1B78F6
:1042D000012B02D100200070704747F047BF00BF9C
:1042E000CC70040000F12902292A08B5034606D93A
:1042F00005482021054A05F0F5DE034808BD044ABB
:10430000434252F8230008BDBE71040044BF83003D
:10431000AC190400826BD0F8903011695268D21A3F
:10432000CB1ADB04D204DB0DC3EBD253B0F86C2004
:10433000013A03EA0200704708B5416B09B9816B85
:1043400021B1806A08F0E4D8012008BD084608BD04
:1043500010B5044620B90D48FCF7C6FB204610BD39
:10436000806820EA010141EA0200C3070BD5636BB4
:104370001A6842F400611960636B196809054CBF43
:104380001A6020F00100A06010BD00BFA02A040048
:104390002DE9F0430446A76894F8C030002085B0AA
:1043A00007F01007039087420CBF01271027002B4E
:1043B00075D1012284F8C020B4F87050B4F86C9024
:1043C000B4F86E2009F1FF39AA1A09EA0209D4F8F3
:1043D0009C20C9EB0209B4F89420AC2A8CBFD4F815
:1043E0009880984600264CE0D4F8B80020B10378B5
:1043F00013B106F0A5DB07E0B4F89410A06A013908
:10440000C919414409F0F8DE50B92EB9204608F028
:104410008FDC003018BF012023690133236133E0B2
:10442000A36813F0100303D003697A1EFB1A13402C
:1044300013EB080305D00269D2180261828AD31AED
:1044400083820269616F0023136041F825000393A2
:10445000B4F86C302046013B9D4204BF4FF08053BE
:10446000039303AB0093B4F89430216C01932B4673
:1044700008F064DBB4F86C300135013B1D40ADB28F
:1044800001364E45B0D10020D4F89020A36BA4F89B
:10449000705002EB05155D60002384F8C03005B054
:1044A000BDE8F0832DE9F74F0191C421054614467C
:1044B0009A46DDF834800E9FDDF83CB0DDF84C9074
:1044C00009F052DE0646002800F0F4800021C422E4
:1044D00005F0E0DD794B0021B9F1000F08BF9946E6
:1044E0000A46C6F81C9020460EF0D4DE0C9BC0F3A2
:1044F0000030B363724B86F8300033600321002232
:10450000C6F834A03046FFF723FF33680421D3F800
:10451000943030460A4698470C9B33B1B36B1B6806
:1045200003F4E0139B0C86F8B530BAF1000F06D007
:10453000736B1B6803F4E0139B0C86F8B6300822FB
:1045400006F12000019905F055DE002386F827309A
:10455000109B6268B3F1FF3F08BFAC23BBF1AC0F07
:1045600088BFC3EB0B0BC6F89830BDF84430B5627A
:10457000C6F89C309DF84830F462C6F8A03000239D
:10458000012AA6F84680A6F86C70A6F894B0C6F882
:10459000A430C6F8AC3013D1A268B2F5026F16BFD2
:1045A0004FF080424FF00043C6F8A420C6F8A83070
:1045B000D6F8A430C6F8AC30D6F8A830C6F8B0307B
:1045C00020460EF06BDE40F62903984208D12046C3
:1045D0000EF078DE20B120460EF074DE02280FD9EE
:1045E00020460EF05BDE40F6340398420CD12046A4
:1045F0000EF068DE20B120460EF064DE012803D103
:10460000002386F8313004E03046FFF795FE86F847
:104610003100304607F0E6DF86F8B40058B10D23CC
:10462000B8F1FF0FA6F844300BD8FF2F06D80C22A4
:10463000A6F8442002E00423A6F84430B8F1000FA5
:104640000BD04FEA88042846214609F08DDDF0643E
:1046500060B30021224605F01DDD57B1BC0028469D
:10466000214609F081DD706700B30021224605F084
:1046700011DDB8F1000F04D03046012107F05CDFF6
:10468000A0B127B13046022107F056DF70B1D6F84D
:10469000A4307BB196F8313063B9B36DB3F1804F7C
:1046A00004D8D6F88030B3F1804F03D9304607F0F4
:1046B000B1DF00263046BDE8FE8F00BFE071040088
:1046C000DC290400FFF726BE094B1B78012B0ABF2B
:1046D000084B40F293601868074B08601B78012B69
:1046E0000ABF064B40F2FF731B681360704700BFA0
:1046F000F0710400E8710400E4710400EC7104003E
:1047000000487047E454830000487047DC5483003D
:104710000023C2F86036D2F864260F4B13409A0883
:104720000E4B04E0596891420FD0083309D0198824
:104730000029F7D105E05968914208D0083301D12A
:1047400007E0074B19880029F5D10648704706484D
:1047500070470448704700BFFCFF3F00AC54830023
:10476000DC54830000D8B805401AC80508B50023FA
:10477000C2F86036D2F86426104B13409A08104BEA
:1047800004E0596891420FD0083309D019880029F4
:10479000F7D105E05968914206D0083301D105E010
:1047A000084B19880029F5D11A8812B9FFF7A8FF1C
:1047B00003461B884FF47A70584308BDFCFF3F0046
:1047C000AC548300DC54830073B5054614461E4682
:1047D00000914FF4CB6200214FF0FF330EF06EDDFD
:1047E0002846002140F25C62234600960EF066DD0A
:1047F0007CBD0000014B1860704700BF3807000007
:104800002DE9F04385B00546894617460EF0D6DE01
:104810000646002851D128460EF04ADD3146804632
:1048200028460FF06DD801230446494600932246DE
:104830004FF40073284608F00DDE02A9814603AA52
:10484000284602960396FFF73FFF029B29EA0309D9
:10485000D4F81836B7B143F4007343EA0903C4F837
:1048600018364FF47A7009F053DA40F2DD5602E060
:104870000A2009F04DDAD4F80C36990508D4013E27
:10488000F6D105E049F4007923EA0903C4F81836A3
:104890000B2602E00A2009F03BDA2269002F14BF40
:1048A0004FF48053002302F480529A4201D0013E1B
:1048B000F0D1284641460FF023D805B0BDE8F0837B
:1048C000044B1B78012B02D100200070704747F089
:1048D00079BF00BFCC7004000020704700207047F3
:1048E00013B5144642690A2A0FDD29B1012905D002
:1048F00002290AD1842202E0782200E07C2200937F
:10490000002123460EF0DADC01E04FF0FF301CBD41
:104910002DE9F04704460EF0B1DD00210A460B46B2
:10492000074620460EF0CEDD00210A460B4606461D
:104930002046FFF7D5FF00220546022120461346F8
:10494000FFF7CEFFD4F87880814616E0D8F808301B
:104950008BB198F80420002AD8F80C200CBF284608
:1049600038460CBF4946314610400A40904202D0BA
:10497000D8F800109847D8F81080B8F1000FE5D1AA
:10498000204641462A462B46BDE8F047FFF7A8BF20
:1049900043692DE9F743222B05460E4640F3B680C6
:1049A0000EF090DE002800F0AF80072E00F2AE80FF
:1049B000AB68B3F5026F0BD040F6040293420AD104
:1049C000EB680C2B94BF4FF000084FF0010804E097
:1049D0004FF0010801E04FF000085FFA88F8B8F1E5
:1049E000000F0AD128464FF400614246D5F8CC901A
:1049F0000EF076DF044640B989E0D5F8884014F51A
:104A0000405400F084804FF00009A36A012E23F087
:104A1000030304D0032E04D143F0020301E043F06A
:104A20000103A362E36B012143F00103E363284622
:104A30000EF0E0DFD4F8303123F00403C4F8303155
:104A400001239E42C4F8303104D9042E0CBF0D233B
:104A5000092300E00D23C4F83031D4F83031012EA1
:104A600023F00103C4F8303101D9042E36D1FF27D9
:104A700000214FF4E2723B46284600970EF01EDC00
:104A80004423009300214FF4EE723B4628460EF07B
:104A900015DC2823009300214FF4E6723B4628469C
:104AA0000EF00CDC8123009300214FF4E8723B46AA
:104AB00028460EF003DC174B002100934FF4A4723C
:104AC0004FF0FF3328460EF0F9DB284600214FF463
:104AD000A6724FF6FF7300970EF0F0DBD4F830317A
:104AE00023F0700343EA0616C4F83061D4F830317D
:104AF00023F00803C4F83031B8F1000F07D128467D
:104B000049460EF0FDDE02E0044600E000242046A7
:104B1000BDE8FE830100FF002DE9F043022A87B0C3
:104B200005461646109C139F4BD0032A1AD0012A23
:104B300040F08A802146042204A805F023DA0222EC
:104B4000211D05A805F01EDA55F8100B3946BDF8F1
:104B50001480049E20F0DCDE414600903246284658
:104B6000A31D2BE0022221460DF1160005F00ADA02
:104B7000211D042204A805F005DA022205A804F18B
:104B8000080105F0FFD9BDF81630012B5FD1A37ADB
:104B90006A6893425EDA39464FF01C09286809FBBF
:104BA0000359BDF81480049E20F0B2DE09F110090B
:104BB000009041464846324604F10B0311F0D8DB21
:104BC0004DE00E9B41681B688B42039342DA002B39
:104BD00040DB012306A9ADF816300B2321F8043D74
:104BE000A01C05F0CFD90DF118080DF116013246C1
:104BF000204605F0C7D958F80C1D1C2707FB0151AA
:104C00003246183104F1080005F0BCD901224146B2
:104C100004F10A0005F0B6D90399042207FB0151FB
:104C2000201D143105F0AED9039B119907FB0355E4
:104C30002A8B02F10B0399420FD304F10B00E969AF
:104C400005F0A0D900200AE06FF0160007E06FF031
:104C5000240004E06FF0010001E06FF00D0007B0E8
:104C6000BDE8F083004870470C68040000207047DE
:104C700070B58C6916462369994203D0CD6A15B187
:104C80002D6800E0002563683146D86809F0A4DA91
:104C900063683146D86809F09FDA064631462046F7
:104CA00012F032D880B92946A06820F031DE2046C3
:104CB000314611F0D9DEA06831462A460BF006FCD9
:104CC000003018BF012070BD002070BD43683C2239
:104CD000D86809F0539A00002DE9F34798464368D5
:104CE0000546D3F80C90036992465E6A3EB3484687
:104CF0003C2109F039DA044610B300213C2204F1CA
:104D00000C0705F0C7D96760C4F80080FFF7AAFF59
:104D10006B68E0616562CDF800A010210D4A5B6808
:104D2000384605F0DFD90C4BA4631B6830465B683E
:104D300039469847002806DD88F8050000E034462B
:104D40002046BDE8FC87214648463C2209F016DA99
:104D50000024F5E7D9C583002C070000F7B5002330
:104D60000093099B0546032B17460A9C866804D9C5
:104D700068460899042205F005D90098052F31D816
:104D8000DFE807F0030608132B286B7D236027E07C
:104D9000687525E03046252101AA15F05FDD18BBB6
:104DA000019B03F0010323601EE0041C18BF0124D3
:104DB00030462621002C0CBF4FF480324FF00112F8
:104DC00017F056DA14B108F0CFDE09E008F098DEEB
:104DD000204609E008F0BADE02E008F0D1DE2060EB
:104DE000002001E06FF01600FEBD000038B505465A
:104DF0006B6880681B7FB3B907F0E9FF044620B9F0
:104E0000D5F8800011F03ADB0446FBF7FBFF6B6836
:104E1000D3F8901041B10B7833B1044B00221868DD
:104E200005F050DE00E00024204638BDC0700400CC
:104E300010B5436804461B7F53B1D0F8800011F0D1
:104E400007DBA0680EF0E5FE6368002283F82420EB
:104E500010BD00001FB5084A03460092074A0846E5
:104E60000192074A0749126802921A68064B05F038
:104E70005BDB05B000BD00BF232B04002819040034
:104E8000AC700400F42A0400172B040010B50C4683
:104E9000002B0CBF012102212346BDE81040FFF783
:104EA0001BBF000038B5074B02691B6805460C465E
:104EB0009B68506A4968984728462146BDE83840B3
:104EC000FFF704BF2C0700002DE9F04F0C688BB0F2
:104ED000E38A07461D050791D0F888600FD48368E0
:104EE000B4F8269093F8E58718F0010818BF4FF042
:104EF000030819F4005918BF4FF00C0902E04FF0F5
:104F00000009C84696F88630B6F800A0002B14BFFA
:104F1000082300230693069908EB090303F1080010
:104F20008A4482440AF1030B0BF0FC0BCAEB0B0220
:104F3000D2B204924FEA9B020592A16822690390C3
:104F4000511A59454FDAA28A7968C86802EB0B01F9
:104F50000292019309F050D9029A0546019BE0B9EB
:104F60002269A1680B3303F0FC03511A994207DA56
:104F70007B682146D868012209F012D90120BAE0E5
:104F80000398D21A191A2261A28AC9B20491990807
:104F90009B180591A38282462CE0C38AE18A23F004
:104FA00007031B0401F007011B0C0B43C382E18ABA
:104FB000C9064CBF43F0100323F01003C3820069FD
:104FC0002169584404F0DEDF214678682A4602F061
:104FD000C7FA7B682146D868012209F0E1D8079B0F
:104FE0002C461D6006E0A38ACBEB02029B442261A3
:104FF000A4F814B0256912232B704FF0000B062380
:105000006B7085F802B096F8A030EB70013386F82B
:10501000A03008F065DD0AA941F8040D0422281D1E
:1050200004F0B0DFB9F1000F01D108351AE0E38ACE
:105030000A2243F48063E3820E232B726A72A8185B
:10504000594605F027D894F82C30AB723F232B73C8
:1050500094F82D30AB7394F82E302B7494F82F30D5
:10506000AB741435B8F1000F08D008232B70A8F1E9
:1050700002036B7094F82B30AB704544039B9A4548
:1050800025D9E38A328843F48063E3823AB1284623
:10509000B11C04F077DF33880020ED183080069BC8
:1050A000ABB10B234FF0060806F180092B7085F891
:1050B0000180A81C4946424604F064DF48460021AE
:1050C000424604F0E7DF002386F886300835049B6B
:1050D00023B12846FF211A4604F0DCDF059BA376A6
:1050E00096F8940038B13846D6F8981011F022DCC2
:1050F000002086F894000BB0BDE8F08FF7B50446A9
:10510000019200294DD091E84800019AA068D78A01
:105110001946C7F3C027756A20F0FADB1FB920468D
:10512000019911F095DC002D34D0EFB9EB69D80767
:105130000BD5637D4BB12046019911F0D7DC20B926
:1051400063680199D8683A4628E0636893F88A3022
:1051500053B1D4F88400019937F0D5F8024618B954
:1051600063680199D86819E0204601A9FFF7ACFEF1
:10517000D0B963680199D86809F068D82B690446EA
:10518000DB68304629462246984768B1204608F039
:10519000B7DF09E063680199D8682A4609F000D8AA
:1051A00002E006690B46B0E7FEBDD0F8883010B5C6
:1051B0001988044611B993F88600F0B16368543138
:1051C000D86809F019D80246A8B103690021543300
:1051D000036100238382C38A43F40063C3820123F3
:1051E0002046FFF78BFFD4F888301888002818BFB6
:1051F0006FF01A0010BD6FF01A0010BDF8B583688B
:1052000040F2C66593F8E5370F7813F0020C18BF2B
:10521000AC4613F0040342F6180518BF2B460125CF
:10522000BD4043EA0C031D40044616462BD0D0F87F
:1052300088502B889F18782F03DDBDE8F840FFF7D2
:10524000B4BFEB18981C04F09DDED4F888301A889F
:10525000B618B6B2302E1E8004D92046FFF7A5FF3F
:10526000054600E00025D4F8882092F8943053B920
:10527000D2F8981020460A2211F054DBD4F8883076
:10528000012283F894202846F8BD37B59DF81850C0
:105290008DF802208DF800508DF803100325694623
:1052A000052204468DF801508DF80430FFF7A6FF63
:1052B00010B92046FFF779FF3EBD536873B5112B37
:1052C0000546144608D0122B01D0102B1CD1A37810
:1052D00003F001032B7517E002AA002342F8043DF6
:1052E000806894F82F1020F061DA064660B1837967
:1052F00023B96188C1F3800104F0FFF9B3791BB1D0
:10530000A86831461DF03ADD7CBD90F92900704750
:1053100000207047002070476FF0160070477047FC
:105320000A29D0F8443605D00F2905D0032904D125
:105330001A7070475A7070479A707047D1F874337A
:10534000002130B5597302F11004107800F06001AB
:105350004911C00604D5012088405D7B284358735D
:10536000508804324001A24223F81100EDD130BD33
:1053700070B51678D1F8743306F060056D1103F13D
:105380000E04023504F8256004EB8500547844705F
:10539000528842808A793AB11A7D511C01F00F017E
:1053A00022F00F020A431A75002070BD00207047DA
:1053B000012B24DD03689B6B3BB1D1F8D83003F09F
:1053C0000203002B0CBF0C2300231370887950B10B
:1053D000B1F86600400606D591F86800012804BFC0
:1053E00043F00103137000235370D1F8D80010F478
:1053F000000006D0022113705170184670474FF01C
:10540000FF307047642910DC632921DA4A291FD054
:1054100005DC07291FDB08291ADD3C2912E0502989
:1054200016D018DB5C39032911E0C32904DCC2293A
:105430000EDAA83902290AE0B1F5847F08D003DC2E
:10544000B1F5807F07D103E0A1F58971012902D868
:105450006FF0160070470020704700207047C88822
:1054600010F0080018BF6FF016007047B2F84C201B
:10547000B0F8303522F4FE4222F0E70247F6E07140
:1054800001EA431142F004020133A0F8303542EA48
:1054900001007047F0B5D0F81447059D0C59002C59
:1054A00044D0D4F814C0D0F8F4612768BCEB0606E9
:1054B00018BF0126002F08BF46F00106176AE268F0
:1054C0007A4012F4403F626818BF46F001069342EA
:1054D0000CBF334646F00103A268267C95420CBF00
:1054E0001A4643F001029DF818309E420CBF134645
:1054F00042F001030A6992794AB191F8DF20647C95
:10550000003218BF0122944218BF43F00103C26960
:1055100002EB850502686968126A0868926C90421D
:1055200038BF43F0010383F00100F0BD2046F0BD19
:10553000012070470A690346D2F87C2392F90800DB
:10554000032804D001280CBF0420022000E004201E
:10555000496801F48811B1F5881F04D0927A002AB5
:1055600018BF042000E00420D3F8443693F9023039
:105570005A1C05D0022B03D0012B14BF042002209B
:10558000704730B5D0F80C31A1B15A6A9D699818AE
:10559000013290F91C4002F007025A6293F8282069
:1055A0002C1B6418017751B207299C6102DC01327F
:1055B00083F8282093F92820002AC3BF996901EBBA
:1055C000620191FBF2F200225A61586930BDD0F8B5
:1055D000B038994201DD013306E007DACA1A013A10
:1055E00002EBD27203EB6203C0F8B038D0F8B00817
:1055F000704791F91C309BB18B889B0702D0C888FB
:10560000000A704772B1D0F8B0381BB96FF05A0376
:10561000C0F8B03891F91C20D0F8B038D01A7047D3
:10562000184670471046704700207047C28A0346EC
:1056300002F4FF60C008D2040FD59B8813F020034A
:1056400003D0DD2806D802307047022804D902387A
:1056500080B2704700207047184670477047704707
:105660000048704730978300007E00F002007047CA
:1056700011F01C0F0CBF002001207047D0F84836F5
:10568000D87901288CBF02200120704779B1487871
:1056900070B18B78590703F0020044BF40F004005A
:1056A000C0B2DA0704D540F00100C0B27047084626
:1056B0007047000030B504680969D4F88000456877
:1056C000013545608568AD18856031B189684869E4
:1056D00001304861886980188861A16B69B1074809
:1056E000D4F88410C35C0648C35C01EBC30359685B
:1056F00001315960996852189A6030BDF0DC83001E
:10570000A2CD83004FF0FF3310B5A0F82832044635
:1057100000F50A70023000210C2204F0BBDC236883
:105720009B6B23B94FF0FF33A4F82C320BE00F230F
:10573000A4F82A32F023A4F82C324FF47063A4F8B2
:105740002E324FF20003A4F8303210BD30B5147A77
:105750000B46022C10D1044600215518B5F8BC5058
:105760000231A575C5F30725E57502340A29F4D180
:1057700020301946032208E00B2C00F1160002D15C
:105780000231102201E092F90E20BDE8304004F011
:10579000F99B00002DE9F74F15460D9A9A46B2F88D
:1057A0006630019013F4747F0C460C9E00F0AF80BD
:1057B00040F237133340002B00F0A980092D40F34D
:1057C000A68030230B7001238B700023BAF5005F95
:1057D000CB7001F10400A5F10A094E494FF0030214
:1057E00004D104F0CFDB0723E37106E004F0CADB49
:1057F00001980D9913F01EDFE07116F0040B11D023
:10580000B9F1030F40F3838004F10A0041490322F8
:1058100004F0B8DB0423A5F10E0963734FF0010B0C
:105820000C2500E00825B00714D5B9F1030F6EDD93
:105830004FEA8B06A0190A303649032204F0A2DB96
:10584000A61902230BF1010B73731FFA8BFB0435AE
:10585000A9F104090023B9F1010F84F808B06372BB
:1058600055DD04F1080303EB8B0B1AF040060BF136
:105870000208A9F1020701D102350DE0032F46DD30
:1058800008F1020023490322012604F07BDB0635E0
:1058900088F80560A9F106071AF0800F10D0032FD1
:1058A00035DD08EB860909F102001A49032204F0EC
:1058B00069DB0136022389F80530B6B20435043FAE
:1058C0001AF4005F10D0032F21DD08EB860909F1DF
:1058D00002001049032204F055DB0136072389F842
:1058E0000530B6B20435043F0023012F8BF8026067
:1058F00088F801300BDD08EB8606022301980D992C
:10590000B21CFFF755FDAB1C0435637064192046CB
:10591000BDE8FE8F891404002DE9F84F032A834661
:105920000C46164698460B9F40F3878044230B7025
:105930004FF001090023951E18F4806A81F8029047
:10594000CB700CD0032D78DD881D03223C4904F078
:1059500019DBB51F84F80990CA46082600E0042622
:1059600018F4006F14D0032D67DD4FEA8A0804EBAA
:10597000080003220630324904F004DB0AF1010A70
:1059800004EB080302225A721FFA8AFA0436043D15
:105990000023012D84F804A063714EDD0A9A231DB3
:1059A00003EB8A0A12F480730AF10209A5F10208D6
:1059B00001D102360EE0B8F1030F3EDD09F102001D
:1059C0001F49032204F0DEDA012389F80530063688
:1059D000A5F106080025B8F1030F8AF8023089F80E
:1059E00001502ADD09EB830909F102090322144958
:1059F000484604F0C7DA5846394613F01BDEA0F1DA
:105A00000B02504240EB0200B8F1050F89F8030089
:105A100013DD89F8045089F80550BB794BB1B7F80C
:105A200066305B0505D597F86A30012B08BF89F809
:105A30000430B31D08366370A4192046BDE8F88F02
:105A40008D1404002DE9F84FDDF82C809A46B8F843
:105A50006630834618070C4615460A9F00F0B7804B
:105A600040F237133B40002B00F0B1800C9B93F9C0
:105A70003430002B2CD1192A40F3A98008461A2271
:105A8000544904F07FDA7B0701D5042313E0BD07F6
:105A900001D502230FE0D8F87430581C0AD01E3309
:105AA00058F8233033B11B7A012B04D0032B01D1DA
:105AB000052300E00123E37200236374E375584675
:105AC000414604F118020223FFF772FC18257CE01E
:105AD0000D2A7CDDDD23084600F8023B3E49A2F199
