:1000000000000000990500004D0400004D040000B0
:100010004D0400004D0400004D0400004D0400009C
:100020004D0400004D0400004D0400004D0400008C
:100030004D0400004D0400004D0400004D0400007C
:100040004D0400004D0400004D0400004D0400006C
:100050004D0400004D0400004D0400004D0400005C
:100060004D0400004D0400004D0400004D0400004C
:100070004D0400004D0400004D0400004D0400003C
:100080000048004799050000000000000000000043
:100090000000000000000000000000000000000060
:1000A0000000000000000000000000000000000050
:1000B0000000000000000000000000000000000040
:1000C0000000000000000000000000000000000030
:1000D0000000000000000000000000000000000020
:1000E0000000000000000000000000000000000010
:1000F0000000000000000000000000000000000000
:10010000D1040000950400000D05000071050000F9
:1001100091AE0200AD9E0200BFAA0200CBAA02006F
:1001200073A80200A10C0000EFA20200ADAF020014
:10013000FBAF0200EFAF02000D9F0200CFB1020043
:100140007DAC020051A40200F1A3020051A3020001
:1001500023A302001DA3020017B30200A10C00009C
:1001600079A20200C79E02002DB10200DB9F0200AF
:1001700069B0020025A20200F99E0200039F02005E
:10018000EDB10200F79E0200D3B0020095AC020070
:10019000CBB8020039A2020071B0020043A20200F3
:1001A0001BAC020017AC020001AC02006DA80200FB
:1001B000A10C0000E39E0200F19E0200EB9E0200F3
:1001C000A10C0000A10C0000A10C0000A10C00007B
:1001D0009DB102006DB60200A10C000029A302002F
:1001E00061B00200B9A2020073B00200E1B30200E4
:1001F0009DA40200E3A9020021A8020091A9020027
:1002000097A9020049A80200A9A70200CBA40200F6
:100210003DA8020065AD020049080000A10C0000E5
:10022000A10C0000E93E0000217A0400513F0000CB
:100230001D930400014000005D400000A10C00007F
:10024000B9400000A10C0000A19C0400F54300008F
:1002500041680000296E0000316E0000DD70000072
:10026000B97000007570000071760000CB76000058
:10027000C91801006914020071140200993E0200BD
:10028000AD450200BD450200994902004D7D0200C6
:10029000DB920300A10C000001000000000200003E
:1002A000FF030000500000000100000001000000FA
:1002B0000100000001000000010000000A07080022
:1002C0006E190000010000000800000077770000B0
:1002D0000104000000000000000000000000000019
:1002E000000000000000000000000000000000000E
:1002F00000000000000000000000000000000000FE
:1003000000000000000000000000000000000000ED
:1003100000000000000000000000000000000000DD
:1003200000000000000000000000000000000000CD
:1003300000000000000000000000000000000000BD
:1003400000000000000000000000000000000000AD
:10035000007D000000000000000000000000000020
:10036000000000000000000000000000000000008D
:10037000000000000000000000000000000000007D
:10038000000000000000000000000000000000006D
:10039000000000000000000000000000000000005D
:1003A000000000000000000000000000000000004D
:1003B000000000000000000000000000000000003D
:1003C000000000000000000000000000000000002D
:1003D000000000000000000000000000000000001D
:1003E000000000000000000000000000000000000D
:1003F00000000000000000000000000000000000FD
:1004000000000000000000000000000000000000EC
:1004100000000000000000000000000000000000DC
:1004200000000000000000000000000000000000CC
:1004300000000000000000000000000000000000BC
:100440000000000000000000000000006846836912
:10045000416920300BB5203803695A4651460EB425
:100460004A46414606B4C36882684168FEB40368E0
:10047000C269EFF303810EB48269EFF3058106B41C
:10048000034801680029FED06846884714B000BDC3
:10049000340500000A49084202D062B6C943084048
:1004A0000849084202D061B6C943084006490840DD
:1004B000002803D005490A6802430A60704700001B
:1004C0000000008000000040FFFF000000E100E0AD
:1004D0000A49084202D072B6C94308400849084296
:1004E00002D071B6C943084006490840002804D02C
:1004F00005490A68C04302400A6070470000008056
:1005000000000040FFFF000080E100E002490968B0
:100510009022885870470000400500000249096891
:100520009C2288507047000040050000DDBAADBB3A
:1005300000000000000000000000000000000000BB
:1005400000000000000000000000000000000000AB
:10055000024A11681060081C704700003405000052
:10056000024A11681060081C70470000380500003E
:100570000649086006490868002100F0B3FD0548F7
:1005800001680029FED08847FEE700002C05000026
:10059000EC020000380500005448554900220A507A
:1005A0000168544A0A40544F0F403F4206D150461A
:1005B000004202D04046004229D1FEE7FC214158CA
:1005C0000A680F2313400F2BF1D0012B01D0043107
:1005D000F6E70831494B1340494CA34206D100F0DD
:1005E000BDF8804600F0C6F88146E9E7454CA342D5
:1005F000E6D10B1F1B68444C23401824E3409C4663
:1006000000F0ACF8824600F0B5F88346D8E73F49E1
:1006100021224250354A3E498958FF23194219D0B8
:1006200051683C4B194215D01168324B1940D36ABE
:1006300010E0A3420ED0C0460CE037498958194259
:1006400008D03649895819409942FAD1344B11697A
:100650001942FCD049463F4204D19823CB5810247C
:10066000E34001E02F4BCB581C242340002B01D04A
:1006700000F08EF840462C49086048462B49086037
:1006800050462B49086060462A4908602A490F6095
:100690002A4D2B490D602B482B49002204C0814272
:1006A000FCD8043DAD46009DEC431023DD41AC4237
:1006B00010D1240CA400254D2C606B461B1B244834
:1006C000244D2860002C05D01D68056004330430DB
:1006D000043CF9DC81B0204B19490D68ED1A0D601E
:1006E0006C46E41AA54601F049F9FEE7000000183F
:1006F00014060000FFFF0000000000F000FF0F00E4
:10070000002A0800000E0800000000FFE0010000C1
:100710000406000000003800180600000C06000067
:10072000001000000804000040050000440500001F
:10073000480500004C0500003C05000000000800D2
:100740008C34040018440400704A040094340400FB
:10075000431F0500903404000080000008680F2249
:1007600004310240052AF9D1014A1040F746000041
:1007700000F0FFFF08680F2204310240052AF9D17A
:1007800080221042F6D0014A1040F74600F0FFFFE9
:10079000FEE700000FB470B51C4DADF5027D2C785E
:1007A0006CB100F01DFA4FF47A730446B0FBF3F21B
:1007B00003FB1243684616490CF0A2D9044600AA6E
:1007C000C4F50071101987AB0131869A81930CF042
:1007D00081DA0026241804E01DF8060011F09ADCE6
:1007E0000136A642F8DB00AB002CA8BF1B1913F89A
:1007F000013C2046A3F10A02534243EB02032B7053
:100800000DF5027DBDE8704004B07047D4020000D1
:10081000FAC78800094B0A49186890FBF1F201FBFE
:1008200012010848424344F2A71000FB01200028AF
:10083000DCBF00F1004001381860704798340400B4
:100840001DF30100ECF4FFFF00487047184404005A
:1008500003F0AFBE10B50021302204460CF0D0D812
:100860000C4B23600C4B63600C4BA3600C4BE360A0
:100870000C4B23610C4B63610C4BA3610C4BE3618C
:100880000C4B23620C4B63620C4BA3620C4BE36278
:1008900010BD00BF000000006EA4030070A40300A0
:1008A0008C3404008C340400184404001844040000
:1008B000704A040010580400444D050014620500FD
:1008C000380F060070B52A4D8CB06846FFF7C2FF9E
:1008D0002978002934D10898099C241A06D0224688
:1008E0000CF08ED80898214610F076DF214821467A
:1008F000FFF750FF204B00221A7001232B701F4D71
:100900002B68002B32D01A78002A2FD0DC881E8961
:10091000013C0CE02B681A4A5989106811F072DD0D
:10092000014630B1154B013418680CF0B9DDB44202
:10093000F0DB144B2968186801220CF015DE15E075
:10094000114E317891B90A980B9C241A06D0224690
:100950000CF056D80A98214610F03EDF0B4821468D
:10096000FFF718FF00232B70012333700CB070BD0C
:100970006444040054CA8800704404001403000056
:1009800060030000584404009444040086CA8800B0
:10099000014B1868704700BF8C3404002DE9F04FFC
:1009A0009DB00EA8FFF756FFFFF7F2FF0E9B0F9AC0
:1009B0001399D21A129B119CC3EB01091599149B30
:1009C0006F4ECB1A1099DFF8F881C1EB040B9344FA
:1009D0003268D8F8001002F59052521A4A44D218E0
:1009E000DFF8E0A1674C5A441218674F0D92DAF80D
:1009F000005022686548AD183A680C93C5EB020CAC
:100A0000CDF82CC0FFF7C6FE0C9B09F57E71019353
:100A100003F57E7307339B0A07310BF57E72890A53
:100A2000073202930523920A0091039359464B46DD
:100A30005748FFF7AFFE336820683968DDF82CC0EF
:100A40000190039300F57E7003F57E730CF57E76BE
:100A500001F57E7207300733800A9B0A073207369A
:100A6000920AB60A029004934A4863460096FFF73A
:100A700091FE0D9905F57E7201F57E7307339B0A91
:100A80000732920A009329460D9B4348FFF782FEE6
:100A9000424B43481968FFF77DFE424B40461968B8
:100AA000414B0A6857469A4203D04048FFF772FE0E
:100AB00023E01A910B4604E016683B4D131DAE422D
:100AC00003D11A461BAB9A42F6D300681AABC1EBAE
:100AD000030CC61A851AC1EB020E8DE801103448CA
:100AE0001A92CDF808C0CDF80CE0CDF810E00596CC
:100AF000069607950895FFF74DFE2E4D28680028AD
:100B00003BD00378002B38D0B0F806800CF0F2DC34
:100B10002B6808F1FF385D89024608FB05F606F5EB
:100B20007E730733403505FB08F5002BBCBF06F587
:100B3000FE630E339B128DE8280005F57E730733A4
:100B4000002BBCBF05F5FE630E339B12029341469A
:100B500033461948FFF71EFE23683A68991B9B1815
:100B60005B1B03F57E7001F57E720730800A073249
:100B70000090920A1148FFF70DFE1DB0BDE8F08FFE
:100B8000DC020000FC020000E80200007CC88800D3
:100B90008BC88800C9C888000DC98800E40200001D
:100BA00047C98800604404004B41545361C9880020
:100BB00084C988001403000001CA88002DCA880077
:100BC00098440400E002000008B5034B186010F0E0
:100BD000E1DF024B186008BD684404006C44040067
:100BE00008B510F0D7DF034B1A68034B1B68D31A04
:100BF000181808BD684404006C4404002DE9F04155
:100C00001C4F0025386819F0A9D91B4B06461C68F3
:100C100009E06368E26803B11543164202D00BB1E4
:100C2000A06898472468002CF3D1144E33689BB118
:100C30001B688BB15B687BB9DFF8448088F80040A3
:100C400010F06EDD98F8003033B933681B681BB1C3
:100C5000586808B100F032FA336823B11B6813B149
:100C60005B68002BCCD0386819F078D92842C7D1FE
:100C7000BDE8F081EC020000100300001C0300003E
:100C80001803000010B5044603F0B4FB11F078D847
:100C9000204611F07DD8204610F02EDFFBE7000043
:100CA00008B571460448FFF775FD40F64910BDE8E8
:100CB0000840FFF75DBC00BF1EC8880070470000F9
:100CC000354B70B51C68256875B1631900261E7711
:100CD000A561A319187F013611F01CDAAE42F8D1D4
:100CE0000A2011F017DA42E0D4F89C00002851D015
:100CF000022111F0CBD900F00F0001284AD00521C4
:100D0000D4F89C0011F0C2D9C20743D5D4F89C0096
:100D1000294611F0BBD90D28064617D0082801D066
:100D20007F280CD1A369002B34D0013BA36108209C
:100D300011F0F0D9202011F0EDD9082026E00A2882
:100D400005D01F2803D801232077A3610A26304647
:100D500011F0E0D9A5690A2E04EB050305D0013591
:100D60007F2D1E77A56102D870BD00221A777F2DD6
:100D7000A56104D804F11C00294611F013D9002301
:100D80003E20A361236011F0C5D92020BDE870404A
:100D900011F0C09970BD00BF200300002DE9FF478E
:100DA00003680446A3F110020F2A04D804B0BDE87A
:100DB000F047FFF723BF032B0FD1444AC36C22F047
:100DC0000102934209D1426C06339361436C4FF0A8
:100DD000FF321A6004B0BDE8F0873D4E3D48F1692E
:100DE000FFF7D8FCA36C21680093636C2246019343
:100DF000A36839480293E36800270393E36CFFF785
:100E0000C9FC656CFFF7C4FD636C04F11001C3EB12
:100E1000000AE36931480093236A4FEA9A0A019372
:100E2000636AB9460293A36AB84603930EC9FFF7F3
:100E3000B1FCA36B04F12C010093E36B28480193F0
:100E4000236C02930EC9FFF7A5FCEB6825480093BD
:100E500095E80E00FFF79EFCEB6905F11001009389
:100E600021480EC9FFF796FC18E07A59D3070FD531
:100E7000FF2A0DD91D4B9A4204D9A2F50003B3F500
:100E8000801F05D81A483946FFF784FC09F101098B
:100E90000437B9F10F0F08F1010801D8D045E4D1AA
:100EA0003368002143F4806386E81800114B18680A
:100EB00000F018F901461048FFF76CFC40F287304B
:100EC00004B0BDE8F047FFF753BB00BFB522810077
:100ED0007444040022A903002FA9030064A903009D
:100EE00097A90300C6A90300E4A903006EA40300A8
:100EF00002AA0300EC0200000EAA0300036810B56A
:100F0000022B044603D0084B186803F0CFFA2046A2
:100F1000FFF744FF2368022B05D0034B1868BDE898
:100F2000104003F067BA10BDEC0200001E4B70B514
:100F30001968002814BF044602248C421B4B1C4D28
:100F40000ED9621A1A601B4B1B48D3E900231219F1
:100F500043F10003C0E900230C464FF0A06609E00E
:100F600000221A602B681E6A0E2ECCBF4FF0C856A6
:100F70004FF01066286810F04BDB2868436A03F4D2
:100F8000F033B3F5005F0D4B03D91A680021C2F8A6
:100F900040161B683443C3F84446D3F84436BDE8D2
:100FA000704010F0439B00BFA0020000C04404004A
:100FB000EC020000B8440400B04404000003000048
:100FC000164B17481A68F0B5D2F81436D2F8141632
:100FD000144C8B4218BFD2F81436134AD4E9006778
:100FE00011681360591AD0E90023521843F1000325
:100FF000C0E900230D4B01251B680022E3FB0167BC
:101000000B4B3243196820398D40013D07EA050337
:10101000C4E9002337FA01F0F0BD00BF000300006F
:10102000B8440400C844040030030000A0340400A5
:10103000A434040010B51C4C206810F0E9DA2068D4
:10104000436A03F4F033B3F5005F184B03D91A6811
:101050000021C2F840161B68D3F8444610F0E6DAC7
:10106000A20120D5114B40221B68C3F80826D3F8F3
:1010700008360F4B1B6893B1FFF7A2FF0D4B0E49CB
:10108000D3E90023D1E90001904271EB030434BF9E
:10109000C0EB02000020BDE81040FFF747BFBDE8ED
:1010A000104010F0BB9D10BDEC02000000030000DA
:1010B000C0440400B0440400B8440400064B07498F
:1010C0001A680968A0FB0223CA40C1F1200113FA83
:1010D00001F08018FFF72ABF9C020000A83404002A
:1010E00030BF7047F8B504460E4618F0F5DD002213
:1010F000054640F62A01204619F0E6D8D0F894704B
:101100002946C0F89460204619F0EED83846F8BD5C
:1011100070B590F878310446FF2B124D04D1D5F804
:10112000A430406A9847D8B96B6F606A9847D5F881
:10113000A450606AA84701280BD894F8181241B946
:101140000B462046084A10F0FFDC012384F81832D1
:1011500070BD606A94F80561A847301884F80601EC
:1011600070BD00BFCC408800516A8100F8B50446CC
:1011700015460E4615F0A0DDD4F8A421E38D934268
:1011800012D310F0FF0F0FD067496848FFF702FB3A
:10119000A0683146012211F0B5D8D4F8A831002555
:1011A0000133C4F8A831BDE0002104F12800324623
:1011B0000CF0AEDB022DE78D07D1D4F8A051072D3E
:1011C0001FD0082D54D0012D03D0204615F0DCDFB0
:1011D000A7E0D4F894319F4207D32046394616F051
:1011E000BBDA204615F0D0DF9CE094F87A21002A83
:1011F00040F09880D4F89001D4F8981110F0DADA21
:1012000033E094F87A3123B9494B606A1B6D9847F3
:1012100058B1D4F894319F4207D2D4F8AC31CBB155
:10122000B28AD4F8B0319A4214D8012F03D920469B
:10123000394616F091DA204615F0A6DF94F87A3197
:10124000002B6ED0D4F8900110F010DB002384F84E
:101250007A3166E094F87A21002A62D1D4F89001BC
:10126000D4F8981110F0A6DA012584F87A5159E0E3
:1012700094F87A3123B92E4B606A1B6D984730B1D0
:10128000D4F894319F4202D2B38A402B11D8204621
:10129000394616F061DA204615F076DF94F87A3197
:1012A0002BB3D4F8900110F0E1DA002384F87A31FE
:1012B0001DE0D4F8AC21002ACCD0D4F8B021934260
:1012C000C8D81B4B606A1B6D9847054698B92046E5
:1012D000394616F041DA204615F056DF94F87A3197
:1012E0002BB1D4F8900110F0C1DA84F87A510023C0
:1012F00084F8233215E094F8233293B994F87A31C4
:101300001BB1D4F8900110F0B1DA00210125D4F816
:1013100090010A4610F04EDA84F87A5184F823528C
:1013200000E001252846F8BD31AA03006AD68800EE
:10133000CC408800F8B590F820620023056A044686
:101340000362CEB990F87931B3B1D0F8801199B178
:10135000D0F884210223C0684A4018F0AFDD94F829
:101360007B3184F8796184F87C612BB1D4F88C01ED
:1013700010F07CDA84F87B6168000AD5A049A148A6
:10138000FFF708FA204615F003DE204615F0E6DAEE
:1013900032E1002D3FDA63695E6816F0040620D062
:1013A00097499948FFF7F6F994F8741149B920461E
:1013B000C4F81C12A4F81A1216F09EDB204615F091
:1013C00053DE002384F8743120690DF0C1DE6369B7
:1013D00020461A68022142F004021A6015F05ADB16
:1013E00019E087498948FFF7D5F9012384F874315A
:1013F00020690DF0B3DF20463146C4F81C62A4F822
:101400001A6216F079DB204615F02EDE63691A6841
:1014100022F004021A6094F87431002B40F0EC8042
:10142000E9070AD57A48FFF7B5F92046012116F0F9
:1014300063DB2046012115F02DDBAA0709D5012326
:1014400084F87731D4F8FC301BB12046002115F028
:1014500021DBEB0504D5D4F864310133C4F86431E1
:10146000AF0515D56B48FFF795F9D4F86831D4F876
:10147000F4100133C4F8683131B1A068012210F0D2
:1014800041DF0023C4F8F4302046002116F034DB9D
:10149000AE0104D5D4F86C310133C4F86C31680165
:1014A00007D55D48FFF776F9D4F870310133C4F8F9
:1014B000703194F82332B3B1D4F8A031082B12D193
:1014C0002046E18D16F048D9204615F05DDE94F8EF
:1014D0007A31002684F823622BB1D4F8900110F001
:1014E000C5D984F87A614D4E2E4026B12046294652
:1014F00015F0FCDA0646690722D5D4F88011F9B157
:10150000012384F8793163691D6A5B6A1D4015F017
:10151000F00503D0204616F017DC11E0D4F8842142
:101520000223E0684A4018F0C9DC94F87B3184F863
:101530007C512BB1D4F88C0110F098D984F87B51F0
:10154000E78D002F4BD0D4F8A051072D10D0082DD7
:1015500023D0012D40D194F87A21002A3FD1D4F82C
:101560009001D4F8981110F025D984F87A5136E01A
:1015700094F87A3173B1D4F894319F420AD20021A1
:1015800004F128000CF090D903695B7803F00F0395
:10159000032B24D1012F1BD11EE094F87A316BB1BB
:1015A00094F8232252B9D4F89421974206D2226BA0
:1015B0001269527802F00F02032A10D1002584F834
:1015C00023522BB1D4F8900110F050D984F87A51FD
:1015D0002046394616F0C0D8204615F0D5DDB4F8BF
:1015E0001A2252B1D4F81C1239B1204615F0E4DBAE
:1015F0000023C4F81C3200E000263046F8BD00BFCE
:1016000018AA0300CFD98800DAD98800E6D9880063
:10161000F3D98800F8D9880005DA880000FC0101B8
:101620002DE9F3411F4605460C469DF82060002336
:1016300002E0E15C11B101339342FAD1E15C00298F
:1016400040F09F804EB1591C0533934200F29C80BC
:1016500001A8611804220BF045D904F104084046A2
:1016600052490BF069DA50B9002E00F09780D5F896
:10167000B831019A013B9A4200F289806FE04046FE
:101680004B490BF059DA002857D0404649490BF036
:1016900053DA002853D0404647490BF04DDA90B951
:1016A000284615F0F3D928B1002E79D0019B002BE4
:1016B00070D101E0002E73D0019B082B67D83F4A00
:1016C0009A4064D570E040463D490BF035DA002879
:1016D00037D040463B490BF02FDA002833D0404644
:1016E00039490BF029DA00282FD0404637490BF052
:1016F00023DA00282BD0404635490BF01DDA40B3E1
:10170000404634490BF018DA30B9002E4AD0019B1C
:10171000102B3CD8162022E040462F490BF00CDA63
:10172000C8B140462D490BF007DAB0B140462C490C
:101730000BF002DA70BB192010E001200EE002204D
:101740000CE004200AE0052008E0062006E007205F
:1017500004E0082002E0172000E018202EB1019BD1
:1017600005EB8005C5F8943109E005EB800505F52A
:10177000CA71204604220BF0B5D804233B60002038
:101780000AE06FF0010007E06FF00D0004E06FF079
:101790001C0001E06FF01600BDE8FC813046E4E774
:1017A0000320E2E71620E0E70320D8E73AD58800D7
:1017B00047D5880053D588005FD58800000080C1D8
:1017C00066D588006FD5880076D5880081D58800D9
:1017D0008DD5880094D588009FD58800A7D588002E
:1017E000B0D588002DE9F0410C460B69A268816CE8
:1017F0009A1A8A420746856846D2B4F81480284669
:10180000414410F0ABDD064680B9324B1B68D90766
:1018100005D5314831494246BB6CFEF7BBFF214636
:101820002846012210F06EDD002450E0C38AE28ACF
:1018300023F007031B0402F007021B0C1343C382AF
:10184000E28AD2064CBF43F0100323F01003C38298
:10185000A37E8376E38A0069190544BF43F40063DD
:10186000E382E38A21691A0644BF43F08003E382DE
:10187000BB6C4246C0180BF035D8214628460122E1
:1018800010F040DD344604E05B1A2361A38AC918D6
:10189000A182236920221A70E28AD00601D524226F
:1018A0001A70E28A110503D51A7842F008021A70FC
:1018B000E28A120603D51A7842F001021A70E28A0F
:1018C00002F007025A7000229A70A27EDA70204657
:1018D000BDE8F081B002000056DB8800C5AA030015
:1018E00073B50B690446C0680D469E7809F068D848
:1018F000002839D106F00F0120460DF02DDC0646F8
:10190000A0B9236A2946013323626068324610F089
:10191000F9DC164B1B68D90726D515481549AB8A43
:101920002A4602B0BDE87040FEF734BF6068294621
:1019300010F04CDD024628B13369A06BDB683146FC
:10194000984770B1A36A0133A362084B1B68DA079A
:101950000AD5AB8A07492A4607480096FEF71AFFC0
:1019600002E023690133236102B070BDB0020000C0
:10197000DBAA03000DAB0300B3DD880010B545F012
:101980008FF944F0CDFB45F043FA044644F086FB62
:10199000204648F057FAFEF795FF2046BDE8104074
:1019A000FFF770B908B550B143680268C918914291
:1019B00004DD0348FEF7EEFE002008BD012008BD4F
:1019C00017AD03000023016043608260012070476F
:1019D00038B50D4601210446FFF7E4FF30B16368D6
:1019E000A2680120D25C01332A70636038BD38B52B
:1019F0000D4602210446FFF7D5FF50B16368A26887
:101A00000220D15CD2185278023342EA01222A80A5
:101A1000636038BD38B50D4602210446FFF7C2FFAA
:101A200050B16368A2680220D1184978D25C0233B1
:101A300042EA01222A80636038BD70B505460C4633
:101A40001646FFF7AFFF50B16B68A9683046C9185A
:101A500022460AF047DF6B681B196B6000E0044602
:101A6000204670BD2DE9F3410D460DF106010446F7
:101A700016461F46FFF7CEFF804620B92348FEF7E3
:101A800089FE45463EE094E80C00BDF806109A42F7
:101A9000CCBFC3EB0200002081420ADD9A42C8BFDE
:101AA000C3EB02021A48D8BF0022FEF773FE0025DE
:101AB00028E029462046FFF78BFF054660B1204607
:101AC0003146FFF785FF054630B14FB12046394614
:101AD000FFF77EFF054618B90C48FEF75BFE11E0E4
:101AE000BDF80630002F0CBF02270327DF1B089B21
:101AF000BFB21F80A1686368099AC918DF19116015
:101B0000012567602846BDE8FC8100BF0FAF0300D8
:101B10001DAF03002DE9F043082285B00446884636
:101B20000846002500210AF06BDF2E462BE0666098
:101B30009E1B032E2ADD03A92046FFF76BFF2046DC
:101B40000DF10E01FFF766FF94E80C00BDF80E7072
:101B50009A42CCBFC3EB02020022974216DCBDF8CA
:101B60000C004DF6DD51884203EB0706A2680AD14E
:101B700002EB03096846391DA9F10402FFF722FFB1
:101B800088E88002013523689E42D0DB284605B0F4
:101B9000BDE8F08337B50D4601AA03210446FFF7DF
:101BA0004CFF78B101A8104903220AF085DE48B93C
:101BB00020460DF10701FFF70BFF18B19DF8073024
:101BC000092B04D00948FEF7E5FD00200BE0204674
:101BD0002946FFF71FFF044620B90448FEF7DAFD47
:101BE000204600E001203EBDB8EB88000FAF0300A7
:101BF00037B50C4605460822084600210AF000DFEA
:101C0000A31C0093231D019328462146621C002338
:101C1000FFF728FF3EBD37B50C4605460C220846A7
:101C200000210AF0EDDE231D009304F10803019367
:101C300028462146621CA31CFFF714FF3EBD00008E
:101C4000F8B504460D461646FFF7E4FE074620B9F0
:101C50000D48FEF79FFD3846F8BD94E80A002A8833
:101C60009942CCBFC3EB01010021914204DA06483E
:101C7000FEF790FD0020F8BDA1680120C9189B184F
:101C800031606360F8BD00BF0FAF030037B50D468C
:101C90000DF106010446FFF79BFE68B19DF8063082
:101CA0006C2B09D120460DF10701FFF791FE18B109
:101CB0009DF80730022B04D00848FEF76BFD00208A
:101CC0000BE02046294600F02FF9044620B90348CE
:101CD000FEF760FD204600E001203EBD0FAF03008F
:101CE00070B5202205460C46084600210AF088DE21
:101CF00095E80C009A4202DDD31A022B03DC3B4824
:101D0000FEF748FD6CE021462846FFF761FE611CA6
:101D10002846FFF75DFEA11C2846FFF759FE2378F1
:101D2000042B5DD163780A3B032B59D8DFE803F01D
:101D3000020F5A2C2846211DFFF7A8FF064600284F
:101D40003CD0284604F1100104F1140217E02846A3
:101D5000211DFFF75FFE064680B32846A11DFFF751
:101D600059FE064650B3284604F10801FFF78EFFDE
:101D7000064618B3284604F1140104F11802FFF7CF
:101D80005FFF064670BB19E02846211DFFF742FEA3
:101D9000064698B12846A11DFFF71AFE064668B10F
:101DA000284604F10801FFF735FE064630B1284603
:101DB00004F10C01FFF76AFF064618B90B48FEF75D
:101DC000E9FC10E004F1180104F11C022846FFF7B9
:101DD00037FF044630B90548FEF7DCFC264602E032
:101DE000002600E00126304670BD00BF0FAF0300A3
:101DF0002DE9F74306460D460846202200214FF004
:101E000000080AF0FDDDC14645E0C6F80490C9EBC4
:101E10000309B9F1010F41DD0DF106013046FFF76D
:101E2000D7FD30460DF10701FFF7D2FD96E80C0013
:101E30009DF807709A42CCBFC3EB02020022974282
:101E40002CDCB46803EB0709E4189DF80630032B7B
:101E500002D0DD2B1FD102E02F606C6019E0032F50
:101E600017DD2046164903220AF026DD002818D186
:101E7000E378102B15D1AF60EC600AE0E378042B17
:101E800016D12F616C6104E0E378092B04BFAF61C8
:101E9000EC6108F1010833689945B6DB4046BDE8BE
:101EA000FE832046074903220AF006DD0028E5D01C
:101EB0002046034903220AF0FFDC0028E4D0E8E7CB
:101EC000B8EB880070A4030037B500230C460B70F4
:101ED00001AA03210546FFF7B0FD78B101A810491A
:101EE00003220AF0E9DC48B928460DF10701FFF7A3
:101EF0006FFD18B19DF80730102B04D00948FEF78C
:101F000049FC00200BE021462846FFF761FD04460E
:101F100020B90448FEF73EFC204600E001203EBD0B
:101F2000B8EB88000FAF030073B50C2205460C46D2
:101F3000084600210AF064DD28460DF10701FFF78D
:101F400047FD064620B90E48FEF724FC304615E052
:101F50009DF8073003F07F021B06227001D5012394
:101F6000636004F108012846FFF732FD044620B9FA
:101F70000348FEF70FFC204600E001207CBD00BFB7
:101F80000FAF030030B57022054697B008460C46E7
:101F900000210AF035DD95F86030DA0748D4B5F84D
:101FA0007420A96FAA180DA8FFF70CFD0DA801A9B0
:101FB000FFF71EFF019B012B02D1029B187803E063
:101FC000B5F848000BF006DE089A20800AB301231A
:101FD0006360079910A8FFF7F5FC10A809A900F0A5
:101FE0002DF80C9A4AB10B9913A8FFF7EBFC13A834
:101FF00004F10C0100F07AF8A0600A9A4AB109993C
:1020000013A8FFF7DFFC13A804F1640100F0F4F853
:102010002066049A01256AB10399656013A8FFF749
:10202000D1FC13A804F16C01FFF74EFFA06601E09C
:10203000002000E0284617B030BD000073B5102224
:1020400004460D46084600210AF0DADC204603214A
:102050006A46FFF7F2FC80B16846224903220AF083
:102060002BDC064648B920460DF10601FFF7B0FC0F
:1020700018B19DF80630092B04D01B48FEF78AFBE7
:1020800000262CE0636827E06360D31A022B26DD6C
:102090000DF107012046FFF79BFC01A92046FFF741
:1020A000B9FC23686168BDF804208B42CCBFC1EB4A
:1020B000030300239A4212DCA0688B1841189DF894
:1020C0000700022802D00D2806D102E02A606960CC
:1020D00001E0AA60E960013622689342D4DB304611
:1020E0007CBD00BFB8EB88000FAF0300F7B55222EC
:1020F00005460C46084600210AF082DC95E80C00F3
:102100009A426FDD284606212246FFF796FC0646D6
:10211000002846D02846A11DFFF769FC0646002886
:102120003FD0082128466218FFF787FC06460028A2
:1021300037D0284604F11001FFF74AFC0646002874
:102140002FD0217C042912D92848042233E004EB43
:10215000C602284608211132FFF76FFC074620B956
:102160002348FEF717FB3E463DE0013600E000261F
:10217000237C9E42EBDB284601A9FFF738FC28B1FF
:10218000BDF8042041F211039A4203D01848FEF72B
:1021900001FB12E028460DF10601FFF728FC064678
:1021A00018B91348FEF7F6FA1DE0BDF8061020290D
:1021B00005D910482022FEF7EDFA002613E0284644
:1021C00004F13102FFF739FCBDF806304FF000058D
:1021D000984204D00648FEF7DDFA2E4603E02418A4
:1021E00084F8315001263046FEBD00BF61B60300C1
:1021F0000FAF030084B6030070B5022204460D46FB
:10220000084600210AF0FCDB94E80C009A4218DD35
:10221000D31A022B15D120462946FFF7D9FB0646D3
:1022200020B90A48FEF7B6FA304670BD2046691C50
:10223000FFF7CEFB044630B90448FEF7ABFA204660
:1022400070BD002070BD012070BD00BF0FAF030046
:1022500010B578B1836853B190E80C005C189442D3
:1022600007DD0548D21AFEF795FA002010BD184682
:1022700010BD012010BD00BF3AB703002AB10023F2
:10228000016043608260012070471046704738B596
:102290000D4601210446FFF7DBFF28B16368A26801
:1022A0000120D5540133636038BD38B50D46022195
:1022B0000446FFF7CDFF48B16368A2680220D554F9
:1022C000A1685A1C2D0A02338D54636038BD70B565
:1022D00005460C461646FFF7BBFF50B16B68A86871
:1022E0003146C01822460AF0FDDA6B681B196B6094
:1022F00000E00446204670BD2DE9F843BDF8247087
:102300000E46002B0CBF02210321C919044689B2D5
:10231000904699464568FFF7C8FF31462046FFF7CB
:10232000B6FF20464146FFF7B2FFB9F1000F04D0D7
:1023300020469DF82010FFF7AAFF27B12046394616
:102340000A9AFFF7C4FF6068401BBDE8F8830000ED
:102350002DE9F04115460E464DF6DD5104469846EE
:102360004768FFF7A2FFA91D89B22046FFF79DFF2E
:1023700003210B4A2046FFF7AAFF09212046FFF759
:1023800086FF20463146FFF790FF25B120462946BB
:102390004246FFF79CFF6068C01BBDE8F08100BFAC
:1023A000B8EB88001FB50193069B002402932346D7
:1023B0000094FFF7A1FF04B010BD1FB50093BDF856
:1023C00018300193079B02930123FFF795FF05B097
:1023D00000BD2DE9F84304460D46042117469946F1
:1023E000BDF82060D0F80480FFF751FF0A21204695
:1023F000FFF74DFF20462946FFF749FF27B120464A
:1024000039464A46FFF763FF20463146FFF74DFF46
:1024100026B120463146099AFFF759FF6068C8EB9C
:102420000000BDE8F8832DE9F04704460D4604217D
:1024300090469A469DF82090BDF828604768FFF7BF
:1024400026FF0B212046FFF722FF29462046FFF7F3
:102450001EFF41462046FFF728FF20465146FFF762
:1024600024FFB9F1000F04D020464946099AFFF72E
:102470002EFF20463146FFF718FF26B12046314691
:102480000B9AFFF724FF6068C01BBDE8F08770B5AA
:1024900004460E4604214568FFF7F9FE0C2120464C
:1024A000FFF7F5FE20463146FFF7F1FE6068401B5E
:1024B00070BD2DE9F04704460D46042190469A462A
:1024C0009DF82490BDF82C604768FFF7E0FE0D21D1
:1024D0002046FFF7DCFE29462046FFF7D8FE41469E
:1024E0002046FFF7E2FE51462046FFF7D0FE204689
:1024F000BDF82010FFF7D9FEB9F1000F04D0204637
:1025000049460A9AFFF7E3FE20463146FFF7CDFE23
:1025100026B1204631460C9AFFF7D9FE6068C01BF1
:10252000BDE8F08770B502F07F0204461E4645689C
:1025300009B142F0800211462046FFF7A8FE20466E
:102540003146FFF7A4FE6068401B70BDF8B50D462C
:1025500004466C2117464668FFF799FE2046294637
:10256000FFF795FE25B1204629463A46FFF7AFFE14
:102570006068801BF8BD000081680A4A0A4B002988
:1025800018BF134609E0824204D1D0F894270120F5
:102590001A60704702F5F26304331A68002AF2D118
:1025A0001046704714450400184504000B4B1B6887
:1025B00003E083420ED0D3F89437002BF9D1084BB7
:1025C0001B6803E0834207D0D3F89437002BF9D17E
:1025D00018467047012070470120704714450400D9
:1025E00018450400014B1868704700BF2C350400E3
:1025F000014B1868704700BF3C35040020B1007AD9
:10260000D0F1010038BF0020704701234187C36328
:102610007047000010B1182900D112B90248FEF726
:10262000B9B853684360704761B7030010B1182907
:1026300000D112B90648FEF7ADB8064A126812B9C1
:10264000D0F880270AB1D0F88C271A60704700BFF5
:1026500061B703003835040010B1182900D112B950
:102660000348FEF797B8036B0BB99288C283704793
:1026700061B703002DE9F043144FA7B03B6806464D
:102680000C469146FBB14B7826AD0D2B0CBF91F853
:1026900006804FF0000845F8940D06F1140106225B
:1026A00002A80AF01FD9A378CDF818908DF80E3043
:1026B0000223049363788DF81C80059378683B6847
:1026C00031462A46984727B0BDE8F08324450400E8
:1026D00070B5134DA6B02B6804460E46F3B1062222
:1026E000019004F1140102A80AF0FCD894F83830E3
:1026F00094F875278DF80E3001230493236E059608
:10270000069394F8743768689A4218BF43F08003C0
:102710008DF81C3021462B6801AA984726B070BD61
:10272000244504002DE9F041104EA6B0336804465C
:1027300088461746BBB126AD45F8940D04F1140147
:10274000062202A80AF0CED894F83830CDF81480CA
:102750008DF80E30032304938DF818703368706879
:1027600021462A46984726B0BDE8F081244504005A
:10277000F0B5164DA7B02B6804460E4617461BB39E
:102780000190062202A804F114010AF0ABD894F8D3
:102790003830ADF814608DF80E300023802E04938D
:1027A00006D90B488021FDF7F5FF8023ADF81430E2
:1027B0003946BDF814200DF116000AF093D82B68A5
:1027C0006868214601AA984727B0F0BD2445040057
:1027D00074B7030070B5104EA6B033680446C3B199
:1027E00026AD45F8940D04F11401062202A80AF062
:1027F00079D894F8383070688DF80E30042304933B
:10280000638F2146ADF814300023E3632A46336812
:10281000984726B070BD00BF2445040038B50B4B67
:102820000B4C0546002918BF1C460BE01430294606
:1028300006220AF041D808B9206838BD246804F59A
:10284000F264043420680028F0D138BD1445040037
:1028500018450400F8B5836805461BB1154B164FA3
:102860001E6802E0154B164F1E683C4609E0143006
:1028700005F1140106220AF01FD8246804F5F26459
:10288000043420680028F2D10BE00130B04205DBAF
:102890000C483146FDF77EFF0020F8BD03F5F267D6
:1028A00004373B68002BF0D13D600120C5F8943718
:1028B000F8BD00BF4035040014450400283504006D
:1028C0001845040094B7030010B5044610B1182948
:1028D00000D122B92848BDE81040FDF75BBF436A2C
:1028E0001A685968906820F03BD9A36A1A68596839
:1028F000906820F035D9E36A1A685968906820F02A
:102900002FD9636A1A685968906820F0A5D9616A5E
:1029100008220B6858680FF0DFDCA36A1A68596850
:10292000906820F099D9A16A08220B6858680FF0C6
:10293000D3DCE36A1A685968906820F08DD9E16A9F
:1029400008220B6858680FF0C7DC2046FFF714FE1A
:10295000D4F8700708B10EF095DFD4F87C0708B101
:102960000EF090DFD4F8900708B10EF08BDF204610
:10297000BDE810400EF0869F61B7030070B5056B8F
:1029800088B0082D044605D80C9E00960D4E56F8CA
:102990002550A847636B226B9A4211D0E26BA56861
:1029A00023631AB113B92046FFF714FF45B1236B17
:1029B00033B908AA42F8183D20461821FFF784FFD2
:1029C00008B070BDD8B8030007B500220A2113462D
:1029D0000092FFF7D3FF0EBD07B500220921134671
:1029E0000092FFF7CBFF0EBD07B50022082113466A
:1029F0000092FFF7C3FF0EBD07B510B1182900D133
:102A00002AB9074803B05DF804EBFDF7C3BE002206
:102A1000022113460092FFF7B1FF03B000BD00BFD3
:102A200061B7030038B500250446C0F88057D0F8D8
:102A3000900718B10EF026DFC4F89057C4F88857F5
:102A4000C4F88C5738BD000038B5044610B11829B9
:102A500000D122B91148BDE83840FDF79BBE104DAA
:102A60002A6812B9D0F8802762B1D4F88C27196887
:102A70008A4207DC596898680A60D4F8901709F010
:102A800031DF02E05B6800221A602B6823B1204628
:102A9000BDE83840FFF7C6BF38BD00BF61B70300CF
:102AA00038350400184B70B51B68164604460D46B1
:102AB000D0F88C2713B10AB1144812E0D4F8881763
:102AC0008A1A954211D90BB9A80000E0284640188F
:102AD000C4F8880700210EF07BDFC4F8900720B906
:102AE0000B48BDE87040FDF755BED4F88C37D4F8DC
:102AF00090072A46C018314609F0F4DED4F88C3726
:102B00005D19C4F88C5770BD38350400B4B70300A4
:102B1000DEB7030070B50446D0F87C070D461646B4
:102B200020B10EF0AFDE0023C4F87C374FF4C16251
:102B3000B5FBF2F302FB135200218A4208BF013BAE
:102B400084F87417C4F8785784F8753728460EF05F
:102B50003FDFC4F87C0710B9C4F8780770BDD4F81B
:102B600078273146BDE8704009F0BC9E38B5144660
:102B7000054610B1182900D122B90A48BDE83840ED
:102B8000FDF708BEFFF712FD30B12B6B4BB928469D
:102B90006168A268FFF7BEFFA068BDE838400EF08C
:102BA000719E38BD61B7030070B51546044610B17B
:102BB000182900D122B90F48BDE87040FDF7EABDE1
:102BC000066BAEB9D0F8700718B10EF05BDEC4F832
:102BD0007067686800210EF0FBDEC4F8700738B13A
:102BE0006A68C4F86C27A968BDE8704009F07A9E4D
:102BF00070BD00BF61B7030070B50446D0F87C0714
:102C000020B10EF03FDE0023C4F87C37636A002554
:102C10001A68596890681FF0A3DFA36A1A68596898
:102C200090681FF09DDFE36A1A68596890681FF08A
:102C300097DF65636587E563256404F144002946F1
:102C40004FF4E56209F0DCDE84F8745784F88457A9
:102C500070BD38B504460D46FFF7CEFF0023204671
:102C600029466363BDE83840FFF7CFBC38B5054659
:102C70000C4611B10C2905D838BD0163FFF7BCFF24
:102C80006C6338BD0248BDE83840FDF783BD00BF26
:102C9000EEB7030010B50446FFF7AEFF0021204653
:102CA0006163BDE81040FFF7B0BC00001829F7B51C
:102CB00015461E4601D102B12BB9374803B0BDE815
:102CC000F040FDF767BD00271F604FF4F360394601
:102CD0000EF07EDE044600285CD039464FF4F362E5
:102CE00009F08EDE6B6805F11201A360AB68062265
:102CF0002360EB6804F1140063602B8AA38109F060
:102D0000F1DD0423A3834FF4FA63E3834FF0FF3331
:102D1000A77623842046FFF72FFC2046FFF79AFD75
:102D200008B91E4823E094E8030004F10E0222F0E3
:102D30002DFB002802DA1A48FDF72CFD20681949FE
:102D40002246194B37F0A4F9606278B12068174920
:102D50002246174B37F09CF9A06238B1206815491C
:102D60002246154B37F094F9E06258B91348FDF745
:102D700011FD2046FFF700FC204603B0BDE8F040FF
:102D80000EF0809D002120460A460B460091FFF779
:102D9000F5FD346003B0F0BD61B7030000B8030077
:102DA00019B80300E929000034B80300D92900004C
:102DB0005AB80300C92900006DB8030042B80300E7
:102DC00010B5838B026C86B09A4204462CDAB0F8B8
:102DD0004C306168009300F14E03019300F15403FD
:102DE0000293B0F860302246039300F16403049329
:102DF0000068A36C22F0E2FA10B10C48FDF7CAFC9F
:102E0000236C204601332364E16DFFF761FCB4F8C5
:102E10004C204AB1636A196888685968002306B073
:102E2000BDE810401FF0729E06B010BD80B80300D0
:102E30004B1E0B2B0CD8DFE803F00D0D0D0D0D0D07
:102E40000D060D0D0609418FFFF703BFFFF7B8BF51
:102E5000FFF70CBF704700002DE9F047044686B02D
:102E60000E9F002004F14E052064A164A4F84C20BC
:102E70001946062204F154090FAE284696E840058B
:102E800009F030DD39460622484609F02BDD94E88A
:102E90000300B4F84C30E6658DE828021FFA88F389
:102EA00003932246A36CCDF810A022F087FA10B14C
:102EB0000B48FDF76FFC2046E16DFFF709FCB4F805
:102EC0004C204AB1636A196888685968002306B0C3
:102ED000BDE8F0471FF01A9E06B0BDE8F08700BFBE
:102EE00080B803004B1E70B5044615460B2B46D820
:102EF000DFE803F0494949064949493F4949494101
:102F0000436A1A68596890681FF02ADEAA7894F814
:102F100038309A4202D020463C2103E0AB882BB1E6
:102F200020461946BDE87040FFF793BEEE8866B9AB
:102F30002046A98AAA69FFF7B5FD01232046C4F8F7
:102F40008037BDE87040FFF7A5BE228CB2420DD39A
:102F5000A16A0D4A0868126880684968002A08BF9B
:102F600032461FF0D3DD0723636370BD2046012185
:102F7000D8E73E21D6E7BDE87040FFF721BFBDE8A6
:102F80007040FFF773BE70BD20450400F0B500F13E
:102F9000640589B004460E46174605A82A464FF434
:102FA000E161FFF76BF9394605A8FFF770FA0C22CB
:102FB000206604F1140301920290A1892046324652
:102FC00000930395FFF748FF09B0F0BD38B5436A99
:102FD00004461A680D46906859681FF0C1DDAB7849
:102FE00094F838209A4201D0204643E0A98821B1C4
:102FF0002046BDE83840FFF72CBEAB79190641D515
:1030000094F8841703F07F039942204631D1298B2D
:10301000EA69FFF747FD224B1B6823B12046298B45
:10302000AA79FFF77FFB2B893BB92046E18B94F807
:103030003820FFF7ABFF03230FE0228C9A420ED318
:10304000A16A184A086812688068002A08BF1A46F0
:10305000496800231FF05ADD0723636303E020461D
:103060000121FFF7F6FD94F88437013384F88437A3
:1030700038BD01D23C21BCE7E18BFFF787FF03237A
:10308000636338BD2046298BEA69FFF70BFD0123F6
:103090002046C4F88037BDE83840FFF7FBBD00BFCD
:1030A00038350400204504004B1E10B50B2B15D8F5
:1030B000DFE803F0181818181806180B181818105D
:1030C0001146BDE81040FFF781BF3E21BDE810402A
:1030D000FFF7BFBDBDE81040FFF772BEBDE810406E
:1030E000FFF7C4BD10BD00000C2938B504461546D5
:1030F0001ED8124B8B4020D44FF480038B400FD44A
:103100004FF000738B4013D5836A1A685968906832
:103110001FF026DD20462946BDE83840FFF756BFA0
:10312000C18B90F83820FFF731FF0323636338BD6C
:103130002046BDE83840FFF799BD38BD0000B87D96
:1031400070B58CB004460E461546202101AA09A888
:10315000FFF794F80021324609A82B46FFF7E2F961
:1031600020469DF828100B9AFFF7F0F90CB070BDBF
:103170002DE9F04192B004460E461746202104AADC
:103180000CA8984604F16405FFF778F80CA87F2195
:103190009DF86420FFF7D4FF2A460FA84FF4E161A1
:1031A000FFF76CF89DF83430394600930E9B424689
:1031B0000193BDF868300FA802931B9B0393BDF8E1
:1031C0006030FFF730F904F1140300930B232066FD
:1031D00001930290A1892046324604F10E03039523
:1031E000FFF73AFE12B0BDE8F081000030B5D0F82C
:1031F000785785B0B5F5C16F04464FF0000205D889
:10320000ADB2D0F87C07134611460CE00D4B80F8A8
:1032100074271B8823B1C18B15465918104602E04C
:1032200018461D4619460093A37E0390019394F817
:103230003820002320460295FFF79AFF022363639C
:1032400005B030BD343504007FB50C2904461E4658
:10325000089D2BD8194B8B402ED44FF400138B4074
:1032600014D44FF080738B4020D5C36A1A68596814
:1032700090681FF075DC204631462A46FFF74AFC6D
:10328000204604B0BDE87040FFF7B0BF00213D23E9
:10329000438790F838200091837E029101933D236B
:1032A0000391FFF765FF0823636305E0204604B040
:1032B000BDE87040FFF7DABC04B070BD0000D87EF6
:1032C0002DE9F04395B004460F469046202106AA0A
:1032D0000EA8994604F16406FEF7D0FF0EA87F21E0
:1032E0009DF87020FFF72CFF324611A84FF4E161E2
:1032F000FEF7C4FF9DF83C3000250193109B394632
:103300000293BDF87430424603931E9B11A80493A8
:103310004B460095FFF7CDF804F1140300930D23FD
:10332000206601930290A18920462A4604F10E03EB
:103330000396FFF791FD15B0BDE8F0837FB5436AB2
:1033400004461A680D46906859681FF009DC94F825
:103350003810AB788B4206D020463C2104B0BDE843
:103360007040FFF776BC94F874374FF4C16202FBEB
:1033700003F5D4F87807401B904202D882B20020AF
:1033800000E00120D4F87C67751910B143F0800388
:1033900001E003F07F03A07E8DE825002046002297
:1033A000FFF78EFF0423636304B070BD4B1E10B59E
:1033B00004460B2B2DD8DFE803F0313131310631D3
:1033C000310C3131122720461146BDE81040FFF77D
:1033D000B5BF20463E21BDE81040FFF73ABC94F847
:1033E000743794F875279A420AD1636A1A68596843
:1033F00090681FF0B5DB2046BDE81040FFF74ABCDF
:10340000013384F8743710BD2046BDE81040FFF743
:10341000D7BC2046BDE81040FFF728BC10BD4B1EAE
:1034200010B504460B2B27D8DFE803F02B2B2B2BF2
:10343000062B2B0C2B2B122120461146BDE81040E9
:10344000FFF77CBF20463E21BDE81040FFF701BCDE
:1034500094F87537002B14D1636A1A68596890681C
:103460001FF07EDB2046BDE81040FFF713BC20466E
:10347000BDE81040FFF7A4BC2046BDE81040FFF7B0
:10348000F5BB10BDF0B51F4685B04B1E0446154672
:103490000A9E0B2B59D8DFE803F05D5D5D5D065D8C
:1034A00023315D374D53436A1A68596890681FF09D
:1034B00057DBD4F8783733B12046294605B0BDE84C
:1034C000F040FFF73BBF3D226287A27E94F83810A0
:1034D0008DE80C0020463D220293FFF7F1FE39E013
:1034E000C36A1A68596890681FF03ADB204639466B
:1034F000324605B0BDE8F040FFF70CBB3E2105B0F9
:10350000BDE8F040FFF7A5BB436A1A6859689068A8
:103510001FF026DB3D236387A37E94F838100093C9
:10352000204600233D2201930293FFF7C9FE0823A2
:1035300063630FE0D0F8783763B10223436309E097
:1035400005B0BDE8F040FFF73BBC05B0BDE8F0407A
:10355000FFF78CBB05B0F0BDF0B593B004461D4637
:103560000E461746202104AA0CA8FEF787FE0CA8D9
:1035700000212A4604F16405FFF7E2FD2A460FA860
:103580004FF4E161FEF77AFEBDF860309DF834201B
:103590000093199B394601930FA80E9BFEF719FF64
:1035A0000A22206604F1140301920290A1892046A8
:1035B000324600930395FFF74FFC13B0F0BD0000B7
:1035C0007FB54B1E044615460B2B63D8DFE803F08E
:1035D00067061B675267676767676767FFF722FAC7
:1035E000304BB4F86C071A78511C19700090D4F85D
:1035F0007007A37E019084F83820E18B2046FFF706
:10360000ABFF012344E0AE7880F83860281DFEF758
:10361000F5FF034648B93B2262872A7B3146009278
:10362000019002903B2220462FE0298A6A692046B9
:10363000FFF79EF826683046FEF7D4FF054628B10E
:10364000204604B0BDE87040FFF7D0BD3046FEF71D
:10365000CFFF034680B2E18B0090A07E5918019005
:103660002B4694F83820204602950395FFF780FDFD
:1036700005230DE03C23A9784387837E80F838102A
:1036800000930023019302933C22FFF719FE0823C5
:10369000636304E004B0BDE87040FFF7E7BA04B02C
:1036A00070BD00BF1C45040010B50C461146FFF765
:1036B000B5F838B190F83800C4EB000CDCF100002C
:1036C00040EB0C0010BD000010B50C4C88B001940C
:1036D000039000240491ADF81420194606220DF140
:1036E0001600029409F0FED82046182101AA07AB63
:1036F000FFF7DCFA079808B010BD00BFAD2C000042
:103700007FB5064B06AA42F8183D18216A460023E9
:10371000FFF7DAF8012007B000BD00BFC92800009C
:1037200010B5044686B020B90848FDF733F82046A6
:1037300009E0074BADF80410009318216A460023F6
:10374000FEF78AFF012006B010BD00BF61B703007D
:103750005926000010B5044686B020B90848FDF788
:1037600019F8204609E0074B06AA42F8183D18212F
:103770006A460023FFF740F9012006B010BD00BFE4
:1037800061B70300F9290000024B5860196001205D
:10379000704700BF2445040008B5002108220248F4
:1037A00009F02ED9012008BD2445040030B5154686
:1037B00087B0044620B90F48FCF7ECFF204616E01E
:1037C0000D4B01910846002100930EF001D90290A3
:1037D00068B12946019A09F085D8204618216A4621
:1037E0000023FFF7E1F902980EF04CD8012007B052
:1037F00030BD00BF61B70300A92B000030B51546EE
:1038000087B0044608B101B122B90D48FCF7C2FFE8
:10381000002013E00B4B01910846002100930EF0AD
:10382000D7D8029050B12946019A09F05BD82046BA
:1038300018216A460023FFF799F9012007B030BD2F
:1038400061B703006D2B000010B5044688B020B9A5
:103850000648FCF79FFF204605E0182101AA07ABA8
:10386000FEF7E4FE079808B010BD00BF61B7030083
:1038700010B504468AB020B90848FCF78BFF2046F3
:103880000AE0074C079108920993182101AA07AB97
:103890000194FFF7D9F801200AB010BD61B7030009
:1038A000492A000010B5044686B020B90748FCF745
:1038B00071FF204608E0064B0191009318216A46EB
:1038C0000023FEF7A7FE012006B010BD61B703007C
:1038D000152600002DE9F0433C299BB0074615460C
:1038E0001C4603D04B2940F0928014E01E68936878
:1038F00023B1052B40F08B800C2400E00B243046D4
:10390000FEF754FE002800F082800022009230462C
:103910002146134679E05B881A0A42EA032398B2EB
:103920000AF058D9229E8046103E16A8314604F16E
:103930001002FEF747F8002869D016A802A9FEF782
:10394000CFF9002863D09DF809300A3B032B5ED8DD
:10395000DFE803F0020B05080121032407E0012141
:10396000052404E00021062401E00021042405F1DF
:103970001800FEF753FF814680B19DF80A2090F8A9
:1039800038309A4237D09DF809300A2B33D10023C2
:103990001AAA42F8403D1821FEF796FF9DF809301B
:1039A0000A2B01D00C2B32D11A4B1B680BB91A48C9
:1039B0001EE00123119395F82F304FF0000905F117
:1039C000180106220DF15200CDF840901393129782
:1039D000ADF8508008F086DF4846182110AA19ABD0
:1039E000FFF764F9DDF86490B9F1000F03D10B48DB
:1039F000FCF7D0FE0BE0484602A93246FEF73AFE3D
:103A0000002300934846214602AAFEF7B7FF1BB0E9
:103A1000BDE8F0833035040094B80300BBB8030060
:103A2000F8B50F460446A0B1237A00687BB180B197
:103A3000866800232372354695E809003946984781
:103A4000AD68B542F8D1012323720020F8BD6FF0B4
:103A50000F00F8BD38B50D4613460C682A460C21F8
:103A6000A047012038BD10B50A460C6800230C2180
:103A7000A047012010BD0000C36910B5052B044606
:103A800003D8054A52F823309847236AE2699A42DC
:103A900018BFE36110BD00BFB8B903000421FFF7F0
:103AA000EBBF028938B50D4642F430630E2A8CBF55
:103AB0004FF480524FF4005204461A43006801212B
:103AC0002B4625F0C5FE3DB163691A6859689068B8
:103AD00000232A461FF01AD80423236238BD38B5C4
:103AE0000D46002104460A4600680B4625F0B0FE4C
:103AF0003DB163691A685968906800232A461FF02F
:103B000005D80523236238BD028938B50D4642F435
:103B100030630E2A8CBF4FF480524FF4005204469B
:103B20001A4301212B46006825F092FE63691A684A
:103B30005968906800232A461EF0E8DF02232362BA
:103B400038BD000010B10C2900D112B90448FCF7AF
:103B500021BE91884181D28802218281FFF78CBFEA
:103B600061B7030010B10C2900D112B90248FCF76B
:103B700011BE0121FFF780BF61B7030010B10C290E
:103B800000D112B90248FCF705BE0021FFF774BF4F
:103B900061B70300002110B50A4604460B460068D1
:103BA00025F056FE63691A68596890681EF0D8DFE0
:103BB00000236362236210BD11B1042902D870474B
:103BC000FFF7E8BF0148FCF7E5BD00BFEEB7030013
:103BD000034631B1032907D9042902D14189FFF7EE
:103BE00060BF1846FFF7E8BF7047034651B103298D
:103BF0000BD9042906D1818909B1FFF770BF41892A
:103C0000FFF74FBF1846FFF7D7BF70471FB500211A
:103C100004460A460B46006825F01AFE218B002256
:103C2000013189B24FF0FF33029203922068218361
:103C300001220093019325F053FE012323621FBD4F
:103C400030B50022044685B013460221006825F0F5
:103C5000FFFD218B04F10E02013189B24FF0FF33D9
:103C6000032503922068218301220093019302958A
:103C700025F036FE636A25620133636205B030BD0C
:103C8000032908D0042902D0012902D17047FFF787
:103C9000D7BFFFF791BF70474B1E032B0AD8DFE851
:103CA00003F002020B0B012901D1FFF7C9BF4189C3
:103CB000FFF7F7BEFFF780BF704708B5FCF7AAFD16
:103CC0000323B0FBF3F303EB4303C01A0130642377
:103CD00043434FF6FC70184008BD4B1E10B5044618
:103CE000032B12D8DFE803F015150215436ADB0633
:103CF00003D1BDE81040FFF789BFFFF7DEFF0146A3
:103D00002046BDE81040FFF7FFBEBDE81040FFF7BA
:103D100053BF10BD4B1E10B50446032B0BD8DFE874
:103D200003F00E0E020EFFF7C8FF01462046BDE865
:103D30001040FFF7E9BEBDE81040FFF73DBF10BDE2
:103D400038B5044610B10C2900D122B90F48BDE89E
:103D50003840FCF71FBD436900251A684560596863
:103D600090681EF0FDDE63691A68596890681EF05D
:103D700073DF616908220B6858680EF0ADDA2046DF
:103D800029462822BDE8384008F03A9E61B7030072
:103D90000C29F8B514461D4601D102B123B91C48BF
:103DA000BDE8F840FCF7F6BC1A4E00211960282245
:103DB000304608F025DE012360682489F38106235C
:103DC0003382311D0B2330603481738225F01AFD5C
:103DD000002802DA1048FCF7DDFC0E4C30680F4971
:103DE00022460F4B36F054F90746706148B90D482A
:103DF000FCF7D0FC204639462822BDE8F84008F000
:103E0000FF9D20460021FFF737FE2C60F8BD00BF64
:103E100061B703002C4504008EB903009D3A0000F1
:103E2000AAB9030042B803001FB5074B0190ADF8D3
:103E300008100020694603AA0093FFF70BFE00B1AB
:103E4000039805B000BD00BF913D00001FB50446BA
:103E500020B90648FCF79EFC204605E0044B04A967
:103E600041F80C3DFFF7FFFD04B010BD61B7030042
:103E70007D3B00001FB5044620B90648FCF78AFCCC
:103E8000204605E0044B04A941F80C3DFFF7EBFD8B
:103E900004B010BD61B70300653B00001FB50446C8
:103EA00020B90848FCF776FC204608E0064BADF840
:103EB000081001A90193ADF80A20FFF7D4FD04B062
:103EC00010BD00BF61B70300453B0000406870476C
:103ED000452906D19368082B03D002480321FFF738
:103EE000CBBD70472C450400004870475445040082
:103EF000044B1B78012B02D100200070704745F065
:103F00000DBA00BF64440400044B1B78012B02D19E
:103F100000200070704745F0E9BA00BF6444040017
:103F2000044B1B78012B02D100200070704745F034
:103F3000C5BA00BF64440400044B1B78012B02D1B6
:103F400000200070704745F0A2BA00BF644404002E
:103F500000F12902292A08B5034606D9054820217F
:103F6000054A08F0BDDD034808BD044A434252F843
:103F7000230008BDA2450400CDE8880014BA030060
:103F800041F2CE23994203D1431E0D2B03D909E000
:103F9000C82802D906E00E2807D000EB800000EB0D
:103FA000510070474FF0FF30704740F6B410704733
:103FB00010B5044620B90D48FCF7ECFB204610BDB7
:103FC000806820EA010141EA0200C3070BD5636B58
:103FD0001A6842F400611960636B196809054CBFE7
:103FE0001A6020F00100A06010BD00BF6CEC8800DA
:103FF00000487047D841880000487047C041880099
:104000000023C2F86036D2F864260F4B13409A089A
:104010000E4B04E0596891420FD0083309D019883B
:104020000029F7D105E05968914208D0083301D141
:1040300007E0074B19880029F5D106487047064864
:1040400070470448704700BFFCFF3F009041880064
:10405000C041880000D8B805401AC80508B500233B
:10406000C2F86036D2F86426104B13409A08104B01
:1040700004E0596891420FD0083309D0198800290B
:10408000F7D105E05968914206D0083301D105E027
:10409000084B19880029F5D11A8812B9FFF7A8FF33
:1040A00003461B884FF47A70584308BDFCFF3F005D
:1040B00090418800C041880070B504460D46164600
:1040C00000F0EAF8012803D1204600F012F900E0E0
:1040D0000848094B1B78012B04BF084B1868084B94
:1040E00028601B78012B0ABF064B6FF000431B684A
:1040F000336070BD03040200D0450400C8450400CD
:10410000C2450400CC450400014B1860704700BF55
:10411000500300002DE9F04385B005468846164659
:1041200015F024DF8146002840F08980284615F0EC
:10413000D3DD49460746284616F0D6D80446686AB5
:10414000404A00F4F850000A16B91168334626E0D8
:1041500012684B460CE001219940114207D0C4F887
:104160002036D4F8241641F48061C4F824160133B3
:104170008342F0D116E0C4F82036D4F824E61EF4C9
:10418000806F0BD04FF0010E0EFA03FE41EA0E01D4
:10419000D4F824E62EF4806EC4F824E6013383427A
:1041A000E9D1116001234146009322464FF4806318
:1041B00028460CF0C1DF0023804602A9284603AA46
:1041C00002930393FFF778FF029B28EA0308D4F8D1
:1041D0001836BEB143F4806343EA0803C4F81836C6
:1041E0004FF47A700DF09EDD40F2DD5802E00A20B7
:1041F0000DF098DDD4F80C36590509D4B8F1010852
:10420000F5D105E048F4806823EA0803C4F81836BD
:104210004FF00B0802E00A200DF084DD2269002E29
:1042200014BF4FF48053002302F480529A4202D00C
:10423000B8F10108EFD12846394616F055D805B037
:10424000BDE8F083C4450400F8B5044615F044DD2C
:1042500000210546204616F047D81026074602E002
:104260000A200DF05FDDD7F80C36580001D4013E6E
:10427000F6D120462946BDE8F84016F035980000F2
:10428000044B1B78012B02D100200070704745F0D1
:1042900007BD00BF6444040070B5054615F01CDD81
:1042A00000210646284616F01FD8D0F84C3613F0E9
:1042B000020418D0D0F8702602F04062B2F1406FCC
:1042C0000ED003F01803DA08002306E0C0F88036A9
:1042D000D0F884160133490404D4D9B29142F5D3FD
:1042E000002400E001242846314615F0FDDF204679
:1042F00070BD006C41F2030300280CBF1846032078
:1043000070472DE9F041856E044617466DB1D0F82F
:10431000CC3000EB8303D3F8D420036E9A4203D150
:10432000406EA847054600E00025204615F0D4DC85
:1043300000210646204615F0D7DF012F804603D125
:104340002046FFF7D6FF06E01123C0F82036D0F84C
:10435000240640F40030C8F818063146204615F00F
:10436000C3DFE36E5BB1D4F8CC2004EB8202D2F859
:10437000D410226E914202D1606E294698470020E7
:10438000BDE8F081F8B5856E04466DB1D0F8CC304B
:1043900000EB8303D3F8D420036E9A4203D1406E1E
:1043A000A847054600E00025204615F095DC0021D1
:1043B0000746204615F098DF06462046FFF799FF8E
:1043C000D6F818663946301A464246EB00062046B3
:1043D00015F08ADFE36E5BB1D4F8CC2004EB8202E7
:1043E000D2F8D410226E914202D1606E29469847CD
:1043F0003046F8BD70B50646FFF74EFFE0B13046D7
:1044000015F0F4DD00250D4AAB581BB15219506868
:10441000984720B10835202DF5D1012400E004464D
:104420003046FFF7AFFFA04206D0304601212246BA
:10443000BDE87040FFF765BF70BD00BFFC450400DC
:10444000014B1878704700BF1C460400014B1870E0
:10445000704700BF1C46040073B54FF4006101AB08
:104460006A4600240546019415F0BADF064601208D
:10447000FFF7ECFF0B4B1B786BB1D6F870260A4B9D
:10448000D2001C7007D501221A70D6F8703643F09E
:104490008053C6F8703628469DE8060015F00ADEFF
:1044A0007CBD00BFF8450400F9450400F8B504469A
:1044B000FFF7F2FE00283CD0204615F097DD20469D
:1044C000FFF7CAFFA56E6DB1D4F8CC3004EB8303BF
:1044D000D3F8D420236E9A4203D1606EA8470546D4
:1044E00000E00025204615F0F7DB002106462046B7
:1044F00015F0FADEFFF7A4FF48B100270D4ABB58BC
:1045000013B1D219506898470837202FF6D12046AA
:10451000314615F0E9DEE36E5BB1D4F8CC2004EB54
:104520008202D2F8D410226E914202D1606E2946E6
:104530009847F8BDD845040037B50D46144600939A
:1045400000212A46234615F0CDDB3EBD10B50823D9
:1045500004464FF444614FF0FF32FFF7EDFF0123B3
:1045600020464FF458614FF0FF32FFF7E5FF4FF45C
:104570000012204640F618411346BDE81040FFF7F0
:10458000DBBF13B5144642690A2A0FDD29B10129A0
:1045900005D002290AD1842202E0782200E07C22A0
:1045A00000930021234615F09DDB01E04FF0FF3022
:1045B0001CBD2DE9F047044615F046DC00210A46F3
:1045C0000B460746204615F061DC00210A460B46E3
:1045D00006462046FFF7D5FF002205460221204669
:1045E0001346FFF7CEFFD4F87880814616E0D8F85E
:1045F00008308BB198F80420002AD8F80C200CBFA2
:10460000284638460CBF4946314610400A40904281
:1046100002D0D8F800109847D8F81080B8F1000FF1
:10462000E5D1204641462A462B46BDE8F047FFF734
:10463000A8BF38B540F60C4105464FF0FF320123C4
:10464000FFF77AFF284640F60C414FF0FF32002377
:10465000FFF772FF4FF44E642146002328464FF0C7
:10466000FF320434FFF768FFB4F5566FF4D138BD5C
:10467000F7B51F46836905469B000C46164602D4D3
:1046800015F040DD60B347B1002128464FF4A07219
:104690004FF08043009115F025DB6B69222B0ADD7A
:1046A000230C194A1B04934203D1A4B24FF4A27203
:1046B00005E044F0804426F080464FF4A07228467E
:1046C00000212346009615F00DDBDFB14FF080434B
:1046D000284600214FF4A072009315F003DB11E08F
:1046E000EB6958070ED5230C074A1B04934209D1E6
:1046F000284640F66451A2B2334603B0BDE8F0400C
:10470000FFF71ABF03B0F0BD0000555543692DE90E
:10471000F743222B05460E4640F3A48015F0F2DC49
:10472000002800F09D80072E00F29C80AB68B3F556
:10473000026F0BD040F6040293420AD1EB680C2BB7
:1047400094BF4FF000084FF0010804E04FF001085B
:1047500001E04FF000085FFA88F8B8F1000F0AD1C5
:1047600028464FF400614246D5F8CC9015F0ACDDF8
:10477000044638B977E0D5F8884014F5405472D033
:104780004FF000090121284615F090DED4F83031B1
:1047900023F00403C4F8303101239E42C4F83031C1
:1047A00004D9042E0CBF0D23092300E00D23C4F807
:1047B0003031D4F83031012E23F00103C4F8303108
:1047C00001D9042E36D1FF2700214FF4E2723B4677
:1047D0002846009715F086DA2223009300214FF433
:1047E000EE723B46284615F07DDA2823009300211F
:1047F0004FF4E6723B46284615F074DA81230093A5
:1048000000214FF4E8723B46284615F06BDA174B4F
:10481000002100934FF4A4724FF0FF33284615F0A7
:1048200061DA284600214FF4A6724FF6FF73009715
:1048300015F058DAD4F8303123F0700343EA061645
:10484000C4F83061D4F8303123F00803C4F83031B3
:10485000B8F1000F07D12846494615F045DD02E0C2
:10486000044600E000242046BDE8FE830100FF006E
:10487000C36910B5590704460CD5FFF7DAFE4FF4AB
:104880007F42204640F674511346FFF755FE2046FE
:10489000FFF75CFE002010BDF7B5044615F01CDAEA
:1048A000002207464FF40061204615F00DDD022678
:1048B00005460021334620464FF4F072009615F06D
:1048C00011DAD5F878360021C5F87836D5F87C3677
:1048D0002046C5F87C364FF4F0723346009115F04F
:1048E00001DA2046394603B0BDE8F04015F0FC9CE3
:1048F0002DE9F047B1F814900446B9F10D0F1746B1
:104900009A46D1F810805DDD98F80C2098F80D30AB
:1049100043EA0223B3F5C06F03DB08F10C06002560
:1049200015E0B9F1150F0ADD2A4808F10E0106223B
:1049300007F0C2DF18B908F11406012507E0236863
:10494000254A1B6825485968FBF724FF3AE032786E
:10495000737843EA0223B3F5014F10D1B21D08EB7F
:1049600009039A4206D923681D481B681A4A5968E8
:104970004B461EE032797379043643EA022340F64F
:104980000602934222D10236C6EB080809EB08035F
:104990001C2B08DD22681C3B1268124851680E4A25
:1049A000FBF7F8FE08E007D022680F48126851684C
:1049B000094AFBF7EFFE05E03E6000208AF8005050
:1049C000BDE8F0874FF0FF30BDE8F0874FF0FF30D3
:1049D000BDE8F0875C6E8800ADCB0300C2F18800B3
:1049E000E2F1880003F288002EF2880003682DE9C6
:1049F000F74F012A14BF4FF02A084FF0320805463E
:104A00000E465868414691460DF0A8DC074680B92D
:104A10002B683B4A1B683B485968FBF7BBFE2B6879
:104A20004FF0FF301B68D3F880301A6D01321A65E1
:104A300064E006F10E0B59460469042201A807F050
:104A400051DF019A4AF6FE1312BAB3EB124F0CBFB4
:104A50002D4906F108012046062205F1280A07F033
:104A600041DFA01D5146062207F03CDFB9F1000FDF
:104A70000ED00023237384F80D8004F10E00234927
:104A8000062207F02FDF082323750623637503E052
:104A90000823237306236373A8F11C08444431469A
:104AA0000622204607F01EDF0023A3710223E371D4
:104AB0005146062204F1080007F014DF06F1180140
:104AC000042204F10E0007F00DDF06F108010622B2
:104AD00004F1120007F006DF5946042204F1180021
:104AE00007F000DFD5F85C3128680133C5F85C3188
:104AF0003946D5F868210DF02BF90120BDE8FE8F6D
:104B000085CB030053F28800043888005C6E88006F
:104B10002DE9F04F012B14BF4FF02A094FF0320955
:104B20009A46036885B004460D46586809F1560157
:104B300001920DF013DC074678B9236846481B68DC
:104B40005968FBF727FE23684FF0FF301B68D3F846
:104B500080301A6D01321A657AE00669838A06F19F
:104B60005608563B05F1180B594683820422C0F8BB
:104B7000108003A807F0B6DE039A4AF6FE1312BAB5
:104B8000B3EB124F0CBF354905F108014046062230
:104B900007F0A8DE06F15C000199062207F0A2DE0C
:104BA000BAF1000F11D0002386F8623086F86390C6
:104BB00006F164002A49062207F094DE082386F8ED
:104BC0006A30062386F86B3005E0082386F86230E9
:104BD000062386F86330A9F11C0908EB090629466B
:104BE0000622304607F07EDE0023B3710223F37104
:104BF0000199062206F1080007F074DE59460422E6
:104C000006F10E0007F06EDE05F10801062206F13E
:104C1000120007F067DE05F10E0106F1180004220C
:104C200007F060DED4F84831D4F868110133C4F8D5
:104C30004831012384F864312368986801B1896898
:104C400001233A4602F056FB002384F86431022027
:104C500005B0BDE8F08F00BFDAF2880004388800A4
:104C60005C6E88002DE9F3410D9B16460A9D0B9F53
:104C700023B1996811B101201DF0F6DF0446132E0F
:104C800000F2D880DFE816F0160014001C001900AE
:104C9000D60020006C002B00D60026009600D6001F
:104CA000D6009100D600D600D600C300D600CF00B3
:104CB0000430BAE02846211DB8E000F5B070B4E039
:104CC000D0F860312B60BBE000F1300000214FF4E0
:104CD000807267E000F108000021202262E0099B59
:104CE000032B40F2AA8000F12806304608F034DB9E
:104CF00030B123683046196806224E3107F0F2DDE4
:104D0000204629461CF056DF012800F09980042235
:104D100001A8294607F0E6DD019A4AF6FE1312BA09
:104D2000B3EB124F05D1236847481B685968FBF75E
:104D300031FD234600201A7A5E7A16439A7A16438A
:104D4000DA7A164305D1023004EB800029460422AA
:104D500066E0013004330828EDD16FF0150670E0ED
:104D600006464FF00008337A727A1A43B37A1A4330
:104D7000F37A13430BD0032F5FD908F102012846C1
:104D800004EB8101042207F0ADDD0435043F08F196
:104D900001080436B8F1080FE5D1032F4DD9284694
:104DA0000021042207F02CDE4AE000F59870002173
:104DB0003022F7E72F2F40D90023C0F8383100F513
:104DC000807103460246D06B20B1D4F8380101301F
:104DD000C4F8380110328A42F5D10022C4F83021DB
:104DE00004F12002197A587A0843997A0843D97A4B
:104DF000014304D0D4F830110131C4F83011043328
:104E00009342EFD1284604F5987130220FE02846EE
:104E100008F0A2DA064698B904F5B87029460622C9
:104E200007F060DD0DE000F5B6702946042207F0BA
:104E300059DD05E06FF0160603E06FF00D0600E0A7
:104E400000263046BDE8FC818DF38800F8B5066881
:104E500005460F4670684FF4BC710DF031DA044618
:104E600050B9336870685D680DF032DA2946024641
:104E70000B48FBF78FFC11E000214FF4BC7207F0E8
:104E8000BFDDD5F860312660C4F8603195F8643133
:104E9000C4F8687184F864316B6863602046F8BDBB
:104EA00080F18800014628B103684FF4BC7258684D
:104EB0000DF0129A704700002DE9F34198460368FF
:104EC0000446856901910092089E18680F4609B151
:104ED0000D2954DD009B13B1B3F5967F4CDB002EFA
:104EE0004DD031461DF036D9002848D00DB1002FE5
:104EF00045D06168204600221DF010D9E1680027E6
:104F0000676031B1236822891B6858680DF0E4D9C5
:104F1000E7600199D1B123681B6858680DF0D0D9BA
:104F2000E06078B923681B681A68586854680DF007
:104F3000CFD921460346154A1548FBF72BFC6FF0E5
:104F40001A0020E04146019A07F0CCDC01A90422B6
:104F5000666104F1080007F0C5DC201D69460422E3
:104F600007F0C0DC05B10095009959B12046012237
:104F70001DF0D4D8002006E06FF01C0003E06FF0B5
:104F8000010000E00846BDE8FC8100BF40CC030002
:104F900060F488002DE9F043022A87B005461646E2
:104FA000109C139F4BD0032A1AD0012A40F08A800C
:104FB0002146042204A807F095DC0222211D05A841
:104FC00007F090DC55F8100B3946BDF81480049EAC
:104FD00058F09CD84146009032462846A31D2BE04D
:104FE000022221460DF1160007F07CDC211D04226F
:104FF00004A807F077DC022205A804F1080107F0F5
:1050000071DCBDF81630012B5FD1A37A6A68934238
:105010005EDA39464FF01C09286809FB0359BDF8D0
:105020001480049E58F072D809F11009009041468E
:105030004846324604F10B03FFF73EFF4DE00E9B5E
:1050400041681B688B42039342DA002B40DB01234B
:1050500006A9ADF816300B2321F8043DA01C07F07B
:1050600041DC0DF118080DF116013246204607F01B
:1050700039DC58F80C1D1C2707FB0151324618314A
:1050800004F1080007F02EDC0122414604F10A0079
:1050900007F028DC0399042207FB0151201D14317D
:1050A00007F020DC039B119907FB03552A8B02F1C3
:1050B0000B0399420FD304F10B00E96907F012DCEE
:1050C00000200AE06FF0160007E06FF0240004E013
:1050D0006FF0010001E06FF00D0007B0BDE8F08354
:1050E00013B5036804461B6801A9D3F8240172F0C4
:1050F0009FDB08E003699A792AB9027E920702D5FC
:10510000626993420DD001A872F098DB0028F1D1BA
:10511000A16901B96168204601221CF0FFDF00206F
:1051200000E001201CBD38B50546002411E01C201C
:1051300000FB0450103043680BB9826942B1026928
:1051400032B181690122002908BF19461CF0E6DF4F
:1051500001346B689C42EADB002038BDF8B50024BE
:1051600007460646254608E03B68316A98681DF008
:10517000F7DC00B9013501341C367B689C42F3DB57
:105180002846F8BD30B500231CE0CC5C013C0A2C5D
:1051900017D8DFE804F0060A0E0E061616161616C5
:1051A0001200146844F001040AE0146844F0020498
:1051B00006E0146844F0040402E0146844F48074C7
:1051C000146001338342E0DB30BD0000C36910B5D9
:1051D000044643B1C36837481B685968FBF7DAFADD
:1051E0006FF0190010BD1822406A07F07BDB626A7D
:1051F0001368022B09D0E2682F4812685168022216
:10520000FBF7C8FA6FF0240010BD53680BB93C23BC
:10521000536053684FF47A714B43536093680BB9F2
:10522000782393609368591C03D04FF47A714B43F1
:10523000936053694FF47A714B435361537C0BB9BC
:10524000537406E0E2681268126AD2F8A42093420E
:1052500029DC626A137C13B90223137406E0E26846
:105260001268126AD2F8A02093421CDC636A5A7C4E
:1052700022B11A7C3421013A4A433832A4F8082179
:105280009A7C12B90A229A7401E0642A0ED8636AE1
:10529000D87C10B90222DA7410BD05288CBF6FF0DB
:1052A0001C00002010BD6FF01C0010BD6FF01C0032
:1052B00010BD00BF31F6880069F6880010B50446BD
:1052C000FFF784FF40B9636A9A89D10604D522F0BA
:1052D00010029A816FF0010010BD82B02DE9F843F1
:1052E00006460C461546099388464FF0000926E00D
:1052F000404609A9062207F0DFDAE0B9D8F82830DD
:105300009D4240DD234610E01F46343353F80C1C09
:1053100002F101008D4208DD3423C2EB090903FBD1
:105320000040394603FB09F222E048450246EBDB28
:10533000C8F8285025E008F1340809F10109736A1A
:105340001B7C9945D4DB2746002416E0384608F03C
:1053500003D8C8B9BB6A9D420DDD736A1B7C013B53
:105360009C4211DA1C1B3422624307F13400394697
:1053700007F01EDB08E034370134736A1B7C9C4263
:10538000E4DB002700E007463846BDE8F84302B0FA
:10539000704700002DE9F0411F46C36804460D46E2
:1053A00058683C2190460CF08BDF0646B0B9E368A4
:1053B0003C221B6814485968FBF7ECF9636A5A7C75
:1053C000CAB1B4F84020B2B19B89180517D5204660
:1053D0003146324639231DF0F5DA0CE01C304146E7
:1053E0002A4607F07FDA6368B56177613360002091
:1053F0006660BDE8F0816FF01A00BDE8F0816FF0E3
:105400001A00BDE8F08100BF0CF68800F8B5C3694A
:10541000044617460BB90E464DE0C36828481B6882
:105420005968FBF7B7F96FF01900F8BDB4F910200F
:10543000E3680F2A09DD1B682248596801321023EE
:10544000FBF7A8F96FF01C00F8BD58684C210CF070
:1054500037DF054648B9E3681B481B684C2259688A
:10546000FBF798F96FF01A00F8BD00214C2207F005
:10547000C7DA3146382205F1100007F033DA01238C
:10548000AB716B6B3836383F5A0704D594F80A3144
:10549000013384F80A316B6BDB0605D494F80F31C5
:1054A00043F0020384F80F31238A626919B2013391
:1054B00042F821502382372FB8D80020F8BD00BF12
:1054C00098F68800D0F6880001F78800C3692DE9B6
:1054D000F041044617460BB90D464EE0C368294813
:1054E0001B685968FBF756F96FF01900BDE8F081A9
:1054F000B4F8422095F80580B32AE3680AD91B68FE
:10550000214859680132B423FBF744F96FF01C00BD
:10551000BDE8F081586810210CF0D2DE064650B983
:10552000E3681A481B6810225968FBF733F96FF0DB
:105530001A00BDE8F0810021102207F061DA301D69
:105540002946062207F0CED9EB88D906738105D407
:1055500094F80F3143F0010384F80F3108F00F0382
:10556000103304EB83035A68083532605E60B4F888
:105570004230083F0133A4F84230072FB8D800204A
:10558000BDE8F08125F7880063F788008EF7880072
:1055900070B5044602201860A36AB4F910500B607D
:1055A00094F80A0194F80C31022B14BF0146002133
:1055B000A84201DA022B09D1B4F8420008B1012B4C
:1055C00004D1636A9B8913F0240F00D00131636A10
:1055D00011605B7C002B1FD0636B002B1CD1136808
:1055E000D3B1E368B4F8081158680CF069DE0146DD
:1055F000606388B9636A5A7C002A16D0B4F84020E8
:10560000002A12D09B8918050FD520460A46392357
:10561000BDE870401DF0D699606B30B1B4F8082138
:105620000021BDE8704007F0EB9970BDC36870B50C
:1056300005460E46586838210CF042DE0446002824
:1056400032D00021382207F0DBD901233146236014
:105650006360A360062204F10C0007F043D9738E47
:1056600006F10901A374337A04F11400E374327A69
:1056700007F038D9768D0023E386A6862846214692
:10568000382221231DF09ED980B1EB6808481B68A1
:105690005968FBF77FF8EB682146586838220CF010
:1056A0001BDE4FF0FF3070BD6FF01A0070BD00BF01
:1056B00067F8880038B5C569044645B1C368234812
:1056C0001B685968FBF766F86FF0190038BD0121B7
:1056D0002A461DF0DBD801212A4620461DF098D825
:1056E00020461DF059D820461DF068D8606A29462A
:1056F000182207F085D96583E561A4F8405084F845
:10570000845084F8865084F8855084F8195184F8C0
:10571000185184F81B5184F81A516219023500237C
:10572000802DA2F88830F8D184F88730A4F80831A9
:1057300084F80A3184F80B3184F80C3184F80D3187
:1057400084F80E3184F80F31002038BDAEF78800A0
:10575000F8B504460D46002957D090F80C31022BBD
:1057600014BF90F80A7100277B1C24265E43C3688F
:105770000663314658680CF0A3DD0546A062002898
:1057800029D1E36832461B6827485968FBF702F8BD
:10579000636A25635A7C002A41D0B4F84020002A6D
:1057A0003DD09B891A053AD5204629462A463923F9
:1057B0001DF008D933E0636953F826104B6B5B0783
:1057C00007D5A06A242202FB05001031013507F03D
:1057D00089D8013601E000252E46B4F910309E42EA
:1057E00001DABD42E7DB94F80A219A4207DBB4F8FC
:1057F000423023B9636A988910F0240013D0242220
:105800005543A36A00205851F8BD816A51B1C3685D
:10581000226B58680CF060DDA5622846F8BD6FF079
:105820001A00F8BD0846F8BDE8F788002DE9F84FE2
:10583000044693460D460CF0ADD9626A8246136861
:10584000022B5ED1E369012B09D0E3682F481B6866
:105850005968FAF79FFF6FF01900BDE8F88F2B60C9
:105860000023AB60127C2C214A43ABF10C0B05F1F9
:105870000C07BBFBF2FB984633E004364FF00009FF
:105880001BE0F3791BB9304607F066DD90B9384666
:105890002822314607F026D8338D4FF47A723B85A3
:1058A000F36AC3EB0A03B3FBF2F37B85AB682C37D7
:1058B0000133AB60343609F10109636A1B7C9945F9
:1058C000DFDBA16BB4F808210B6808F10108A363C2
:1058D000E36858680CF000DDB4F84030013BA4F8F0
:1058E0004030D845A66B01DA002EC6D12EB901236F
:1058F0006B603046E663BDE8F88F00206860BDE865
:10590000F88F6FF01900BDE8F88F00BF15F8880018
:105910002DE9F04190F80C310446012B0E4659D880
:1059200053E0636953F825309A79042A2FD1626ACB
:10593000D9689268711A914245D35A6BD20623D422
:1059400008229A7194F8863094F80D11013384F886
:10595000863094F8193101390133C9B284F819310C
:1059600084F80D1100292ED120460A4653231DF03C
:1059700029D828B1E36869481B685968FAF70AFF13
:10598000FF2384F80E311EE001229A711BE0022AE7
:1059900019D1626AD9689268711A914213D30122AF
:1059A0009A7194F88520013A84F8852094F818219A
:1059B000013A84F818215B6BDB0604D494F80D31AE
:1059C000013B84F80D31013500E00025B4F91030B9
:1059D0009D42A6DB94F80C31022B01D0002B58D14C
:1059E000274604F140087D6C4EE0E96800294AD062
:1059F0000B78042B33D1636A8A689B68B21A9A4287
:105A000041D36B89D80622D408230B7094F88630D2
:105A100094F80D11013384F8863094F81B31013964
:105A20000133C9B284F81B3184F80D1159BB2046EB
:105A30000A4653231CF0C6DF28B1E36837481B68C9
:105A40005968FAF7A7FEFF2384F80E311BE0E368DC
:105A5000302258680CF040DC0023EB6013E0022B8E
:105A600011D1636A8A689B68B21A9A420BD30123E8
:105A70000B7094F88530013B84F8853094F80D3133
:105A8000013B84F80D312D68002DAED10437474518
:105A9000A9D194F80C31002B3DD1636A9B89590739
:105AA00039D5656835E0636A6A699B68B21A9A42BB
:105AB0002ED32B7B042B1DD108232B7394F80D11AF
:105AC00094F8863001390133C9B284F8863084F8FD
:105AD0000D11E9B920460A4653231CF073DF28B1A3
