:1000000080F140B881F1FCBD81F108BE81F114BEE0
:1000100081F123BE81F132BE81F141BE81F150BE3A
:1000200080F140B881F1FCBD81F108BE81F114BEC0
:1000300081F123BE81F132BE81F141BE81F150BE1A
:10004000FAFAFAFAFAFAFAFAFAFAFAFAFAFAFAFA10
:10005000FAFAFAFAFAFAFAFAFAFAFAFAFAFAFAFA00
:10006000FAFAFAFAFAFAFAFAFAFAFAFAFAFAFAFAF0
:10007000FAFAFAFA44425050140D1E00000018001B
:1000800000000000DFF844804FF00009B8E8FF00EE
:10009000A9E8FF00EFF300804FF01F0120EA010004
:1000A0004FF0D10140EA010080F30089DFF820D051
:1000B000EFF300804FF01F0120EA01004FF0DF0155
:1000C00040EA010080F30089024800472000180040
:1000D00050FD1D00ED1D1800000000000000000094
:1000E0000000000000000000000000000000000010
:1000F0000000000000000000000000000000000000
:10010000591D1800551D1800511D1800491D1800D3
:100110007D1D1800792B1800E99E1800C79D180056
:10012000E99D1800CD9D1800E59D1800ED9D180073
:1001300089291800859E1800499E1800999E18006C
:10014000059E1800C19E18008929180085661800B0
:100150002163180065731800B97318005F711800E7
:10016000D963180085751800176618001D6F1800F0
:100170008D6A1800855C1800A56618003375180094
:10018000BB74180075741800F77418006B681800B9
:10019000F56818009F6C1800BB981800679318004A
:1001A0001399180079951800259918004B9C180090
:1001B000159C1E004D9A18003F941800AB9418002F
:1001C000B79C1800B99C1800E7981800139C1E00F3
:1001D000D5201800B1801C00892918008929180031
:1001E00089291800892918008929180089291800E7
:1001F000892918008929180089291800093E1B003F
:1002000089291800913D1B00CD281B00C7281B0021
:10021000A5211B00BB191B00FD2A1B00413F1B0031
:10022000B5191B00A12A1B00D3481B00AB481B00BB
:100230003DC91C0067C11C00ADB41C000DDA1C00D8
:1002400053C01C0033BF1C008929180015B91C00BD
:10025000B5CA1C00FBCA1C00EFCA1C00EBB41C0092
:10026000F7D01C00E9C71C0089291800892918004B
:1002700075BA1C001DBA1C0073B91C002DB91C00F6
:1002800027B91C00B7D41C00ADE51C00D7B81C0072
:100290000FCF1C0045CE1C00CFB51C0089291800CB
:1002A00089291800A9E51C00E1CD1C00C5E51C004A
:1002B000BFE51C008929180077B81C00D7B41C00C2
:1002C000E1B41C0099C31C0083CF1C00D5B41C00F2
:1002D000E3C01C00E1C01C001DC81C0051C71C006D
:1002E00035B91C0097B81C00E9CD1C00FDE01C00CE
:1002F000DFE01C00EBE01C00A1B81C00B3C31C0035
:10030000E1C61C0015C61C002DBF1C00CFB41C008C
:10031000CBE51C00D7CE1C0005C71C009DE51C00CA
:1003200033B91C0089291800C7CD1C00BBCD1C00A7
:100330008929180089291800D9B81C00EDCD1C00A6
:100340008929180089291800892918008929180085
:1003500089291800A9D51C00BDBA1C00ADBF1C001E
:10036000CFBE1C00A5BE1C0003BF1C002FBE1C007E
:10037000E5BA1C00F7BE1C0089291800892918005D
:100380002DCE1C0073D21C00892918008929180061
:1003900089291800952218009D221800AD22180006
:1003A0008929180089291800892918008929180025
:1003B0008929180089291800892918008929180015
:1003C000657E1800717E1800458018008929180084
:1003D0008D93190085221800F52218002D2418008D
:1003E000E12918001D2D18008929180089291800F5
:1003F00089291800BD311800892918008929180099
:100400000D3D180089291800892918004542180057
:1004100089291800892918008929180089291800B4
:1004200089291800892918008929180089291800A4
:1004300089291800657818004D7B1800DF761800B0
:10044000FD76180059771800892918009D7E18003C
:100450005B7F18005F801800D5811800B9891800EB
:10046000892918008929180031A6180081A71800C9
:1004700045C31800F5C3180039C7180021CB180070
:1004800099CB180089291800E7CB1800F3CB180086
:1004900005CC1800EFCB18008929180059CE180098
:1004A0005DCE180073CE1800E5CE1800EBCE180014
:1004B00017CF180037CF18008DCF180091CF180034
:1004C000A7CF180007D018001DD0180015D11800AC
:1004D00095D1180001D2180027D0180089D418002F
:1004E00031D2180045EF180021E7180055E7180031
:1004F000B1E7180011EC180061EF1800C1F0180006
:10050000CDF01800D5F01800E9F018001BF1180024
:100510003DF1180019F21800390419009D04190062
:10052000850919005112190049231900CD2319001A
:100530002D3019005B381900D1451900E945190023
:1005400091481900AF481900BD481900B949190070
:100550002F4A19009F51190021541900B76E190034
:10056000497019009D751900759C190031AE19006C
:100570008DB4190081BC190069C3190095CB19000D
:100580008929180089291800B9E919008929180052
:10059000CDF619008929180041081A00010A1A002D
:1005A00019171A0009371A002D371A00DD391A00F9
:1005B000CD721A00892918008929180061901A0043
:1005C00081901A00959D1A0089291800CDC91A003A
:1005D00049CA1A00C5CE1A0089291800FDD81A0088
:1005E000E9D91A00F9D91A0003DE1A000BDF1A0044
:1005F00085E91A009DE91A00AFE91A00A1FD1A0069
:10060000CF4B1B0079591B00F5EE1C00F9EE1C00C6
:10061000BDEF1C0005F01C0029F01C0069F01C0057
:100620004BF11C0087F21C00411F1D00010101005D
:10063000000000082000000000020000040000008C
:10064000FF03000050000000010000000100000056
:100650000400000001000000010000000100000093
:10066000E8030000040000000A0708000000000082
:100670000800000004000400080001000000000061
:10068000000000000000000000000000000000006A
:10069000000000000000000000000000000000005A
:1006A000000000000000000000000000000000004A
:1006B000000000000000000000000000000000003A
:1006C000000000000000000000000000000000002A
:1006D000000000000000000000000000000000001A
:1006E000000000000000000000000000000000000A
:1006F00000000000000000000000000000000000FA
:1007000000000000000000000000000000000000E9
:1007100000000000000000000000000000000000D9
:1007200000000000000000000000000000000000C9
:1007300000000000000000000000000000000000B9
:1007400000000000000000000000000000000000A9
:100750000000000000000000000000000000000099
:100760000000000000000000000000000000000089
:100770000000000000000000000000000000000079
:100780000000000000000000000000000000000069
:100790000000000000000000000000000000000059
:1007A0000000000000000000000000000000000049
:1007B0000000000000000000000000000000000039
:1007C0000000000000000000000000000000000029
:1007D0000000000000000000000000000000000019
:1007E0000000000000000000000000000000000009
:1007F00000000000000000000000000000000000F9
:1008000087F1CBB90000000087F137B80000000085
:100810006BF1BABE0000000069F18ABC0000000064
:1008200083F13ABD0000000055F176BB00000000E6
:1008300080F1A7BF0000000080F1DDBE00000000D5
:1008400080F1FEBF0000000080F122BB000000002C
:1008500080F182BA0000000080F167B9000000005A
:100860007AF1D6B80000000079F1C6BF00000000A0
:1008700079F172BD0000000079F19CBE000000001B
:1008800079F1B8BF000000007EF1BBBA00000000A3
:100890005FF15ABF0000000082F15CBF0000000061
:1008A0007EF1A2BA0000000078F1CEBE0000000088
:1008B00078F1F2BC0000000082F1E6BE000000000A
:1008C00082F15EBE0000000082F1AABE00000000BE
:1008D00077F1D8B90000000077F168B80000000097
:1008E00074F110BE0000000074F161BD0000000052
:1008F0007AF1D8BC0000000071F1C4BA0000000019
:1009000075F129BD0000000078F19CB800000000DE
:1009100078F177B80000000074F129BA00000000F7
:1009200077F11BBA000000006FF102BE000000006A
:100930006FF174BF000000006FF1C1BF0000000044
:1009400070F12BBB0000000079F1C9BD0000000070
:100950006FF124B90000000073F145BB00000000F6
:1009600073F193BB0000000075F10ABC00000000A9
:1009700076F1A2BB0000000070F1EABF00000000A9
:100980006AF160BF000000006BF19ABA000000003D
:100990006BF161B8000000006BF1FFB800000000CF
:1009A0006BF17EB80000000074F1B2BB00000000E3
:1009B0006BF1B8BA000000006AF12EBD0000000023
:1009C0006AF170BA000000006AF194B800000000FB
:1009D00069F15EBF0000000069F169BA0000000023
:1009E00069F106BB0000000068F109BD00000000CD
:1009F00069F162B80000000069F1BBB900000000B5
:100A000069F1DEB90000000069F1DEB80000000005
:100A100068F1C0BE0000000068F1E2BD0000000007
:100A200067F13CB80000000050F1CCBB00000000B2
:100A300066F19CBC0000000067F1FDB800000000FA
:100A400066F15ABE0000000066F120BB0000000005
:100A500066F1C8BE0000000068F114BD000000008F
:100A600066F1BEB80000000066F1EABD00000000BB
:100A700066F1DCBC0000000066F1F6B80000000082
:100A800065F12CBD0000000064F1C0BE0000000054
:100A900053F125B80000000065F130B900000000F6
:100AA00064F120B90000000070F1ACBA0000000051
:100AB0005AF184BE000000005BF1E2B800000000C3
:100AC0005BF124B9000000005BF161BA0000000096
:100AD0005BF1F1B9000000005AF1A8BB0000000072
:100AE00059F198BD0000000059F1DABE0000000085
:100AF00058F137BE0000000058F15ABB000000005A
:100B000058F16CBB0000000058F173BB00000000FE
:100B10006AF142BF0000000077F115B90000000043
:100B20006CF18DBE0000000059F1DFBD0000000037
:100B300059F1DEBC0000000058F19FBF000000002A
:100B400059F19CBA0000000059F1A1BA0000000060
:100B500058F192BE0000000058F160BD0000000096
:100B600058F1F8BE0000000058F17CBE0000000003
:100B700058F100BD0000000058F17EBB00000000ED
:100B800054F110BE0000000054F1CEBC0000000083
:100B900054F1B5BD0000000053F1D4B900000000CD
:100BA0006DF1E2BC0000000053F17DBC00000000CC
:100BB0006DF1E1BF0000000053F125BD0000000011
:100BC00053F140B8000000006DF163B9000000006F
:100BD00057F18EBA0000000070F134BB0000000035
:100BE00057F1ACBA0000000052F12DBD000000002A
:100BF00069F157BC000000006BF102B90000000071
:100C000053F16EBF0000000053F160BF0000000010
:100C100066F165BF0000000066F1B9BD000000008C
:100C200066F1C1BE0000000054F1BABE0000000031
:100C300050F198BD0000000050F1B2BB0000000070
:100C40006DF1D0BA0000000067F12CBC000000007C
:100C50006DF138B90000000068F1F5BC000000003B
:100C600050F1BAB90000000050F162BA0000000073
:100C700050F180B90000000050F1B1B9000000004F
:100C800066F100BD0000000062F1A8BF0000000096
:100C900069F1E8BD000000004DF142B9000000001C
:100CA0004DF122BB000000004DF1E1B80000000052
:100CB0004DF136B80000000067F189BD000000006A
:100CC00050F1CDBB0000000050F1E0BA0000000080
:100CD00050F15BB8000000004FF10DBE00000000B5
:100CE0004FF158BC000000004FF1B8BB00000000FD
:100CF0004FF163BB000000004EF169BB0000000033
:100D00004DF12BBF000000004DF14ABB0000000078
:100D10004DF18FBE000000004DF108B90000000049
:100D20004BF143BD000000004BF1FCBC0000000093
:100D300061F127B90000000061F10DB8000000006A
:100D400060F143BD0000000060F11CBC0000000029
:100D500063F14DB9000000005FF17EBC00000000AF
:100D600062F16EBA0000000061F1BABA0000000042
:100D700064F1CEBB0000000060F1E4BF00000000A1
:100D80006AF1C6B8000000005DF1F9BE0000000085
:100D900052F1A5BF0000000054F1A0BD000000000A
:100DA0005DF15CBB000000005DF174BD000000005F
:100DB0005DF134BA000000005CF198BD0000000055
:100DC0005CF1C0BC0000000067F129BF000000001A
:100DD0005DF134BC000000005DF17CBB0000000050
:100DE00062F1A7BF0000000052F160BE00000000E9
:100DF00061F1A7BB0000000061F190BB00000000A2
:100E000061F191B90000000064F13EBA00000000F9
:100E10005CF167B90000000058F11CBF0000000041
:100E200058F1FBBD0000000066F104BA00000000AC
:100E300058F1EFBA0000000058F11AB900000000A4
:100E400058F194B80000000057F1BEBC000000004B
:100E500057F13EBB0000000057F155BB00000000F9
:100E600057F171BB0000000058F11CB800000000F1
:100E700057F1E0BD0000000057F160BC0000000029
:100E800057F1DCBA0000000066F1EDBF0000000081
:100E90006AF176BB0000000066F182BD0000000030
:100EA0006BF1D0B80000000064F1CABB0000000084
:100EB00064F13AB90000000054F1AEB9000000003E
:100EC00064F133BF0000000064F1E1BC00000000E9
:100ED00062F105BD0000000067F142BC00000000A7
:100EE00063F109BC0000000063F10ABC00000000CF
:100EF00050F14ABB000000005DF10ABC0000000098
:100F000056F1A6BC0000000055F17CBE00000000B8
:100F100055F152BB0000000055F17EB90000000001
:100F200055F124BA0000000055F1CAB800000000D5
:100F300054F1DCBF0000000053F1A9B8000000002C
:100F400063F1BFB90000000066F114BD00000000AD
:100F500063F188BF0000000052F172BD0000000084
:100F600052F16CB90000000052F16EB900000000AF
:100F700052F1D8B80000000052F1E0B800000000C3
:100F800052F1CEB80000000052F15EBF0000000038
:100F900052F11DBF000000005FF118BA0000000010
:100FA00051F12CB90000000050F1C9BF0000000051
:100FB00050F1C4BD000000005CF14FBE0000000015
:100FC0004FF115BE000000004AF104BF0000000010
:100FD00065F1AABC0000000056F184BC00000000CE
:100FE00056F18EBC0000000056F19EB800000000D3
:100FF00056F16ABB00000000000000000000000085
:101000009C0900000400000000081800640C0000A7
:101010000400000008081800083A0300040000005B
:1010200010081800D46F030004000000180818000E
:10103000A04400000400000020081800C85B050060
:101040000400000028081800BC770000040000001D
:1010500030081800847900000400000038081800E7
:10106000E87A00000400000040081800407F0000FB
:101070000400000048081800C07F000004000000C1
:10108000500818003C8300000400000058081800B5
:10109000C08E00000400000060081800308F0000BF
:1010A0000400000068081800A4920000040000007A
:1010B00070081800E4880000040000007808180098
:1010C000289000000400000080081800C83B0000C1
:1010D000040000008808180038F30600040000002F
:1010E00090081800645300000400000098081800DD
:1010F000BC3C000004000000A0081800D814010047
:1011000004000000A8081800901701000400000067
:10111000B0081800F855000004000000B8081800D6
:101120006C56000004000000C00818000C570000B6
:1011300004000000C8081800243601000400000064
:10114000D00818007C38010004000000D8081800FE
:101150002082010004000000E008180074820100F1
:1011600004000000E80818001490010004000000CA
:10117000F008180034BA010004000000F808180054
:1011800028BB01000400000000091800E0C10100B4
:101190000400000008091800E0C20100040000007B
:1011A0001009180034CA01000400000018091800D2
:1011B000A8CE0100040000002009180008D9010091
:1011C00004000000280918003CD9010004000000B8
:1011D00030091800F0DA0100040000003809180096
:1011E0001CDB010004000000400918005CDD010068
:1011F000040000004809180034E501000400000064
:1012000050091800D81702000400000058091800FF
:1012100004180200040000006009180014220200F3
:101220000400000068091800C42202000400000045
:10123000700918001023020004000000780918004B
:10124000802602000400000080091800601A0300D4
:1012500004000000880918002C2603000400000088
:101260009009180050260300040000009809180097
:101270006C26030004000000A0091800F42D0200F1
:1012800004000000A8091800D02903000400000091
:10129000B00918004834030004000000B809180021
:1012A000C435030004000000C0091800C83703005B
:1012B00004000000C80918000441030004000000F5
:1012C000D0091800184D030004000000D8091800C8
:1012D000F051030004000000E00918006C56030000
:1012E00004000000E8091800805603000400000014
:1012F000F0091800B87E030004000000F809180087
:101300004066030004000000000A18007882030011
:1013100004000000080A1800B48403000400000060
:10132000100A1800A498030004000000180A18000E
:1013300064B9030004000000200A180048E6050014
:1013400004000000280A180018CE03000400000062
:10135000300A1800B8D2030004000000380A180050
:101360000CD5030004000000400A180024D6030036
:1013700004000000480A180064D9030004000000BB
:10138000500A1800A4DC030004000000580A1800EA
:1013900034E7030004000000600A180094E803002A
:1013A00004000000680A180094ED03000400000027
:1013B000700A1800D407040004000000780A18001E
:1013C000F00A040004000000800A1800B4160400AB
:1013D00004000000880A18000C1804000400000033
:1013E000900A18004418040004000000980A18002D
:1013F000841F040004000000A00A180088310200C5
:1014000004000000A80A1800ECDB0400040000003F
:10141000B00A180008DC040004000000B80A180034
:1014200004E5040004000000C00A1800CCE6040033
:1014300004000000C80A180048E704000400000087
:10144000D00A1800E8ED040004000000D80A1800D3
:1014500014F0040004000000E00A180074F3040013
:1014600004000000E80A1800F40005000400000071
:10147000F00A18000803050004000000F80A18002C
:101480003003050004000000000B180044060500AE
:1014900004000000080B180064350200040000007E
:1014A000100B1800E03A020004000000180B1800AE
:1014B000A43B020004000000200B1800200C0500D3
:1014C00004000000280B18007C0C0500040000003C
:1014D000300B18001812050004000000380B18002B
:1014E0006013050004000000400B1800DC16050026
:1014F00004000000480B18004C1805000400000010
:10150000500B18008C1A050004000000580B18003E
:10151000F01D050004000000600B1800A01E05006F
:1015200004000000680B1800681F0500040000009C
:10153000700B1800D827050004000000780B180075
:10154000846C050004000000800B1800F87305008F
:1015500004000000880B18004C7605000400000011
:10156000900B1800C4A9050004000000980B180097
:10157000C442020004000000A00B18001480050003
:1015800004000000A80B1800204302000400000023
:10159000B00B1800ACAD050004000000B80B18003B
:1015A00088B8050004000000C00B1800B04302001A
:1015B00004000000C80B180080B7070004000000FA
:1015C000D00B18003446020004000000D80B1800AD
:1015D000FC39050004000000E00B180058BF0500AE
:1015E00004000000E80B1800E0990200040000006D
:1015F000F00B18004C9C020004000000F80B1800CF
:10160000D880050004000000000C1800B48105001B
:1016100004000000080C1800B09C02000400000048
:10162000100C18007C9F020004000000180C180029
:1016300000A0020004000000200C1800D084050067
:1016400004000000280C1800E8E105000400000078
:10165000300C1800B0F1050004000000380C180030
:10166000ECA3020004000000400C18009CA502003E
:1016700004000000480C180000A60200040000004E
:10168000500C1800BCA9020004000000580C1800FF
:1016900034F1050004000000600C180090ED050016
:1016A00004000000680C1800C0EE050004000000F3
:1016B000700C18009CEF050004000000780C180066
:1016C00094AA020004000000800C180054B202002A
:1016D00004000000880C180010B50200040000008F
:1016E000900C18002C2C060004000000980C180028
:1016F0000430060004000000A00C18003C33060073
:1017000004000000A80C1800C83306000400000004
:10171000B00C1800CCB8020004000000B80C18008F
:10172000443B060004000000C00C1800503C0600BA
:1017300004000000C80C1800544306000400000018
:10174000D00C18008C46060004000000D80C1800CD
:10175000884D060004000000E00C1800B04E0600A2
:1017600004000000E80C18004850060004000000C7
:10177000F00C1800B46D060004000000F80C18000E
:101780000073060004000000000D180078740600C5
:1017900004000000080D1800E074060004000000BA
:1017A000100D1800147F060004000000180D18002A
:1017B000EC9A060004000000200D1800949B06001F
:1017C00004000000280D1800B0D506000400000039
:1017D000300D180074D8060004000000380D180001
:1017E0009CDF060004000000400D18009CE106008C
:1017F00004000000480D1800F0BF020004000000C3
:10180000500D180090F6060004000000580D180056
:1018100034C1020004000000600D1800B8CB0200C3
:1018200004000000680D1800D0CC02000400000085
:10183000700D18008CD0020004000000780D180014
:101840001CD2020004000000800D1800081B0700D5
:1018500004000000880D1800C8890500040000007D
:10186000900D18007C8A050004000000980D1800F7
:101870006C27070004000000A00D180014290700C1
:1018800004000000A80D1800682D070004000000E7
:10189000B00D1800CC33070004000000B80D18008C
:1018A000BC3F070004000000C00D180090D50200E6
:1018B00004000000C80D1800D0210700040000003B
:1018C000D00D18007C22070004000000D80D18007D
:1018D000F036040004000000E00D18001CBA0500FA
:1018E00004000000E80D18002C3B04000400000078
:1018F000F00D1800883C040004000000F80D1800EA
:10190000A03E040004000000000E1800D03E0400B9
:1019100004000000080E1800C44B0700040000007B
:10192000100E18005881070004000000180E18005F
:10193000C48D070004000000200E180044E00200DF
:1019400004000000280E1800909907000400000011
:10195000300E1800889C070004000000380E1800A4
:1019600028A1070004000000400E180088AC070002
:1019700004000000480E1800B8AF07000400000083
:10198000500E180084B2070004000000580E180022
:1019900058B5070004000000600E18001CA30700E3
:1019A00004000000680E180030A6070004000000C4
:1019B000700E1800F8A9070004000000780E180047
:1019C00074AA070004000000800E180024E402003E
:1019D00004000000880E1800C4E7020004000000A4
:1019E000900E1800D4E8020004000000980E1800C1
:1019F0000027030004000000A00E1800CCF1020034
:101A000004000000A80E18005CF2020004000000B0
:101A1000B00E1800908C050004000000B80E1800ED
:101A20006CF4020004000000C00E180078F40200FC
:101A300004000000C80E18009CF70200040000001B
:101A4000D00E1800C4F8020004000000D80E1800E0
:101A50003CF9020004000000E00E180004FA020045
:101A600004000000E80E1800D0E6050004000000A5
:101A7000F00E18008807030004000000F80E18009C
:101A800084CF070004000000000F180098DC070056
:101A900004000000080F1800A8E807000400000078
:101AA000100F180074EB070004000000180F180056
:101AB00050EC070004000000200F180008F0070099
:101AC00004000000280F180084F107000400000043
:101AD000300F1800F819080004000000380F180033
:101AE000F409030004000000400F1800C80A0300B6
:101AF00004000000480F1800580B03000400000009
:101B0000500F1800C421080004000000580F1800EE
:101B1000B42E080004000000600F180054310800C3
:101B200004000000680F180048330800040000009B
:101B3000700F18006033080004000000780F1800D0
:101B40007433080004000000800F1800648E050044
:101B500004000000880F1800C48E05000400000077
:101B6000900F18006413030004000000980F180081
:101B7000B443080004000000A00F18001C4908002E
:101B800004000000A80F1800204F08000400000007
:101B9000B00F18000014030004000000B80F180074
:101BA000705F080004000000C00F1800C0A4060009
:101BB00004000000C80F18005C16030004000000B9
:101BC000D00F18000CCA070004000000D80F18003E
:101BD00008CB070004000000E00F180030CB07001E
:101BE00004000000E80F180020CD070004000000EA
:101BF000F00F1800000000000000000000000000CE
:101C00002DE81FC0AFF31F8101B400B586B0FFB44B
:101C100080EA000000F1010000F063B82DE81FC069
:101C2000AFF31F8101B400B586B0FFB480EA0000B5
:101C300000F1020000F055B8F54681B0EE462DE8FF
:101C40001FC0AFF31F8101B400B586B0FFB480EAB6
:101C5000000000F1030000F044B8F54682B0EE4603
:101C60002DE81FC0AFF31F8101B400B586B0FFB4EB
:101C700080EA000000F1040000F033B8F54681B0BE
:101C8000EE462DE81FC0AFF31F8101B400B586B04A
:101C9000FFB480EA000000F1050000F022B8F5462C
:101CA00081B0EE462DE81FC0AFF37F8701B400B5C9
:101CB00086B0FFB480EA000000F1060000F011B821
:101CC000F54681B0EE462DE81FC0AFF37F8701B423
:101CD00000B586B0FFB480EA000000F1070000F014
:101CE00000B86C4604F140040ACCEFF300820FB454
:101CF000A4F10C04216003F040016F4607F158077E
:101D000066465D4654464B46424612B0FCB48CB023
:101D1000062802D1402900D061B60A4C2468002C64
:101D2000FED06846A04773B60CB07FBC804689469B
:101D300092469B46A446B6468FB0FFBC08B0BDE9AC
:101D400000C00000B41D180062B6704764B670474A
:101D500061B6704772B6704772B6704719EE1C1FB5
:101D6000044A41EA020109EE1C1F034909EE3C1F27
:101D700070470000010000000000008019EE1D0FF8
:101D8000704715EE100F704716EE100F704715EEE6
:101D9000300F704716EE500F7047000000EE00063F
:101DA00000BF00BF00BF00BF00BF7047DDBAADBBC2
:101DB0000000000000000000010000000000000022
:101DC00000000000FFFFFFFFFFFFFFFF024A116856
:101DD0001060084670470000B41D1800024A1168E0
:101DE000106008467047000054FD1D0000F0A0F888
:101DF0003A4801683A4A02EA01023A4941580A68F7
:101E0000394B03EA02030F2B00F00580012B03D0AE
:101E100001F10401F3E7FEE701F10801334B03EAA6
:101E20000203334CA342EAD100F02EF9804600F0C1
:101E30003BF9814649462F4BCB5800F0D1F8794603
:101E4000B14240F1028000F07BF940462A49086027
:101E500048462A49086000F0C3F829490C6029491E
:101E60000D6029490E6029490F603D4628482949DF
:101E70004FF0000204C08142FCD8A5F10405AD4634
:101E8000009D6FEA05044FF0100365FA03F5AC42BC
:101E900040F017804FEA14444FEA84041E4D2C6032
:101EA0006B46A3EB04031D4E1D4D2E60002C00F06D
:101EB00008801A4D05EB040680CB80C5AE423FF783
:101EC000FBAF81B068464FEA10104FEA001085461C
:101ED00014488646144C2047FEE700000000001816
:101EE000F8FF0000FC0000000F00000000FF0F00E2
:101EF000003E080008040000BC1D1800C01D1800AA
:101F0000C8FC1D00C0FC1D00C4FC1D00CCFC1D0055
:101F1000880C1E00F4161E00E0FC1D00B0631F00BC
:101F2000D4FC1D00D81E1800AB7C18000000000077
:101F300010EE900FC0F30721002900F02580264CF9
:101F400080EA00000ECC002900F00B8006EE120F94
:101F500006EE511F06EE112F06EE913F00F1010033
:101F6000F0E7002800F010801C4A11EE101F41EA33
:101F70000201BFF34F8FBFF36F8F01EE101FBFF34E
:101F80004F8FBFF36F8F00BF704700BFAFF300806C
:101F900037000000000000000F03000037000000C1
:101FA00000000010050300003900000000000020C0
:101FB000050300003B000000000000400503000096
:101FC0003D0000000000008005030000000000004C
:101FD0000000000000000000901F18000100000039
:101FE00041464A681346214C03EA04034FEA13139F
:101FF0001F4C02EA040216461A441E484FF0000520
:1020000008644B6C1C4C03EA040303F101031B4CF2
:102010001B4603FB04F31D4400F101009042EFDB7B
:10202000002D3FF4F8AE164D414632464FF0000603
:10203000104808644B6C104C03EA040303F10103DD
:102040000E4C1B4603FB04F31E4400F101009042BA
:10205000EFDB19EE112F0B4902EA01021446A2EB45
:10206000060205EB0207164670470000F00000006C
:102070000F000000000000003F00000000200000F2
:1020800000000C0000F0FFFF0868054A01F10401A0
:1020900002EA0002052AF7D1024A00EA020070476C
:1020A0000F00000000F0FFFF0868074A01F104017B
:1020B00002EA0002052AF7D1044A1042F4D0044A89
:1020C00000EA0200704700000F00000080000000DE
:1020D00000F0FFFF0C490D4A0D4B0E4C0E4D0F4EFC
:1020E0000F4F1048804610488146104882461048DD
:1020F0008346104884461048104886464FF000003A
:10210000B0FBF0F00560704701010101020202021C
:102110000303030304040404050505050606060677
:102120000707070708080808090909090A0A0A0A27
:102130000B0B0B0B0C0C0C0C0D0D0D0D0E0E0E0ED7
:10214000FEE7032A2DE9F04F83464DD9484010F0B1
:1021500003004BD14B4203F00303D21A03E00C5CA3
:102160000BF8004001309842F9D11F2A0BEB000315
:1021700001440AD922F01F000818B1E8F017A3E8BB
:10218000F0178842F9D802F01F029008013806289B
:1021900027D8DFE800F004090E13181D2200086894
:1021A0001860043104331CE0B1E81100A3E8110009
:1021B00017E0B1E83100A3E8310012E0B1E87100A6
:1021C000A3E871000DE0B1E8F100A3E8F10008E038
:1021D000B1E8F110A3E8F11003E0B1E8F111A3E8D0
:1021E000F11102F0030202E0034600E05B4600202A
:1021F00002E00C5C1C5401309042FAD15846BDE814
:10220000F08F00000FB470B51C4DADF5027D2C7839
:102210006CB186F6F3FC4FF47A7319490446B0FBAF
:10222000F3F2684603FB124381F690FD044687AB48
:1022300000AAC4F5007110190131869A0026819315
:1022400081F668FE241804E01DF80600013687F6C2
:10225000D7F8A642F8DB00AB002CA8BF1B1913F877
:10226000013CA3F10A02534243EB020320462B70C8
:102270000DF5027DBDE8704004B07047800618007F
:10228000B319090000487047880C1E0000487047C9
:10229000D40C1E0000487047F80C1E000048704720
:1022A000E80C1E00004870475C0D1E000048704797
:1022B000C40C1E0008F039B8022970B506D1506868
:1022C00000210A2281F6D2FD064600E008260025FC
:1022D000612408E0204687F693F801340135E4B222
:1022E0007B2C08BF6124B542F4D10A20BDE87040C0
:1022F00087F686B801232DE9F04F8B40B3F5001F18
:1023000028BF4FF4001385B0042B38BF04230330DB
:10231000039320F00304FFF7B9FF3E4B002216465B
:10232000D3F800B094463C4B01921B6802931346CD
:1023300028E0D1F800A0A24523D301F10807039AB1
:1023400007EB0A08C4EB0805C2F1000909EA050514
:10235000BD4216D3C7EB0509B9F1070F01D8BD423D
:102360000FD1C4EB0A075F4504D3029A934208D207
:10237000954206D38FB12E46BB4684460B46CDF818
:102380000480084641680029D3D1019A4BB9234AF9
:10239000184611680131116038E042462E468446E5
:1023A0000B46921B111B102909D918683219401AC3
:1023B000083918603151596851605A6022461968CD
:1023C000891A03D15A68CCF804200CE0072905D8F3
:1023D000124B00201A6801321A6017E05A50A1F11E
:1023E00008021A605B180E48002219685A600268D9
:1023F0008A1802600B4801680831016089180A4A8E
:102400001068814203F1080088BF116005B0BDE883
:10241000F08F00BF94061800C8FC1D00B806180015
:1024200090061800D0061800E40C1E0038B5194BB1
:10243000054650F8082CA0F1080419688A1A1A6099
:10244000154B1A68083A1A60FFF720FF02E0A34212
:1024500003D218464368002BF9D155F8082CA91867
:102460008B4205D119685B685218083245F8082C70
:102470006360036803F108028218A24207D155F88D
:10248000082C9B18083303606368436000E04460D5
:10249000002038BD90061800D006180010B50021A5
:1024A0000446402281F6E4FB104B2360104B63602E
:1024B000104BA360104BE360104B2361104B636122
:1024C000104BA361104BE361104B2362104B63620E
:1024D000104BA362104BE362104B2363104B6363FA
:1024E000104BA363104BE36310BD00BF0000180046
:1024F00026661D0028661D00BCFC1D00C0FC1D00DA
:10250000880C1E00880C1E00F4161E00F4161E0017
:102510002C57200038A62000D48C2100D8001800A9
:1025200000011800000018000000180070B590B0FD
:102530006846FFF7B3FF2A4D2978002935D108985E
:10254000099C241A06D0224681F692FB089821465F
:1025500086F684F92349224623480124FFF752FED8
:102560000022224B1A702C7086F684F8204B1968D2
:1025700031B10B7823B11F4B2246186805F030FDAE
:102580001D4B196831B10B7823B11A4B0122186821
:1025900005F026FD194B1968F1B10B78E3B1154B25
:1025A0000122186805F01CFD16E0154E317899B926
:1025B0000A980B9C241A06D0224681F659FB0A98E9
:1025C000214686F64BF9084822460E49FFF71AFEC7
:1025D00000232B700123337086F64CF810B070BDC9
:1025E000BC06180070FA08004F701D00F40C1E00A5
:1025F00098061800000D1E006C0D1E00680D1E00D0
:102600000C0D1E00A6FE0800014B1868704700BFA5
:10261000C0FC1D00014B1868704700BFC4FC1D00C2
:1026200008B5836A33B10023836280F8203010300C
:1026300086F640F9012008BD38B5012412E0164B9A
:102640001C6809E0E3681D4205D025EA03056368BC
:102650000BB1A068984724680DB1002CF2D186F622
:10266000A3F804460D4B18688EF6D6FC0C4B1D687B
:102670000540E4D1002CE2D10A4D2B6823B11B6840
:1026800013B1586886F6BEFC2B6823B11B6813B1E2
:102690005B68002BE6D038BDC0061800DC061800C9
:1026A000C4061800E4061800024B1A6801321A60CA
:1026B000704700BF040D1E00014B1868704700BF33
:1026C000040D1E002DE9F04F9DB00AA8FFF7E6FEAD
:1026D000FFF79AFF924EDFF8A882DFF8A8A2914F89
:1026E0000446FFF797FF0A9B0B9A0F99D21A0E9B8D
:1026F0000D9DC3EB01091199109BCB1A0C99C1EBED
:10270000050B93443268D8F8001002F50052521AB3
:102710004A44D2185A441419DAF80050241882484E
:102720000994824C2268AD183A680893C5EB020CF4
:10273000CDF81CC0FFF766FD089B09F57E7101937B
:10274000073103F57E7307330BF57E729B0A890A06
:10275000073202930823920A0091594603934B468D
:102760007348FFF74FFD33682068DDF81CC03968F7
:10277000019000F57E70039303F57E730CF57E7671
:102780000730073301F57E720736800A9B0A07324D
:10279000B60A920A02900493634666480096FFF7D1
:1027A00031FD099905F57E72073201F57E73073315
:1027B000920A9B0A294600934646099B5E48FFF70A
:1027C00021FD5E4B5E4F5F481968FFF71BFD3968BE
:1027D0005D4B0A689A4203D05C48FFF713FD25E081
:1027E0001A910B4604E01568131D5748854203D122
:1027F0001A461BAB9A42F6D31AAD336800932B46A8
:1028000053481A92FFF7FEFC3B681A9AE91AD31A4A
:1028100050480A460093FFF7F5FC33681A9A591B93
:102820009B1A4D480A460093FFF7ECFC4B4B1B6884
:10283000C3B11D78CDB15989DD8901FB05F61A892F
:1028400038354D4306F57E73073345489B128DE8B6
:10285000280005F57E7307339B1202933346FFF77A
:10286000D1FC03E01D461E4600E02E463D4B1A6893
:10287000C2B11378B3B15189D08901FB00F3128939
:10288000583048432D18019000F57E7003F57E778F
:10289000073007378012BF120290F61832480097AF
:1028A000FFF7B0FC314B1A6852B3137843B3518928
:1028B000D08901FB00F31289583048432D1801904C
:1028C00000F57E7003F57E77073007378012BF1260
:1028D0000290F61826480097FFF794FC2368DAF870
:1028E0000020991B9B185B1B03F57E70073001F5D8
:1028F0007E72800A07320090920A1E48FFF782FC1F
:102900001D4B1D6886F64EF90446FFF7D5FE294695
:10291000224603461948FFF775FC1DB0BDE8F08F4D
:10292000E40C1E009406180082701D00900618002A
:1029300091701D00D0701D0015711D00B8061800A3
:10294000D00C1E0050711D004B4154536B711D0083
:102950008F711D00C6711D00EB711D0098061800D7
:1029600011721D006C0D1E003E721D00680D1E00D0
:1029700070721D00A5721D00B4061800CF721D00F4
:10298000F00C1E00D006180008B571460348FFF78A
:1029900039FC0120BDE8084000F010BCF7721D00B2
:1029A000014B0360704700BF740D1E0038B504462C
:1029B0000D46FFF777FC03681BB980E83000184626
:1029C00038BD4FF0FF3038BD10B50446FFF76AFC44
:1029D000036813B1406821469847002010BD0000ED
:1029E000F8B50646076885F691FE0546002853D0DF
:1029F0002B4B1B68186805F0B0FA044688B986F6B8
:102A000077F8B0F5804F08D9264B22464FF4F06195
:102A1000186807F0EBF9044618B9284685F684FED5
:102A200013E07B6C0820002123F000436B601E4BF9
:102A30002B61FFF75FFC58B9284685F675FE194BE8
:102A400021460122186807F0FFF96FF01A00F8BD5F
:102A5000B368B7F85020A1680360F3684360B6F923
:102A60000630D21AB388CB18686100212A81A2816E
:102A7000FA7CA360E274B6F90620EB603B6CD318D5
:102A800022462B60094B186882F6FAFA2846A7619D
:102A900085F646FF0020F8BD6FF01500F8BD00BFB9
:102AA000EC061800000D1E00B12A1800080D1E00CB
:102AB0002DE9F843064640690D4690E89000FFF77F
:102AC000B5FC0F4B0021186882F64EFA8046A0B183
:102AD0000023D0F818908361304685F625FE24B196
:102AE000404649463A462B46A047064B1B681B7A90
:102AF0001BB1BDE8F84386F68DB9BDE8F88300BF89
:102B0000080D1E008806180070B5164D04462E46A6
:102B10002B685B897F2B05D986F67CF92B685B894E
:102B20007F2B1CD833680F4D1B6893B92046FFF7E5
:102B300057FF10F1160F05D098B11B3006D12B6846
:102B4000012201E02B6802221A7202E00648FFF718
:102B500059FB2046002185F675FD002070BD4FF021
:102B6000FF3070BD88061800E31A0900014B83E8A6
:102B700003007047DC0C1E00034A08B513680BB154
:102B80005068984708BD00BFDC0C1E000048704725
:102B9000C40D1E0038B504460D46FFF7F7FF80E868
:102BA000300038BD2DE9F34107460C4685F6FAFFA3
:102BB00010B9FFF779FD3AE0002620460DF1060135
:102BC0006A46ADF8066007F10308009686F644FCF5
:102BD000009D28F0030840F6380345449D4226D85E
:102BE0002DB328463146FFF785FB0446F8B1314640
:102BF000009A81F63DF8009BA7812046ED1AE21865
:102C0000C8EB050802EB0803013DA360636862F3AB
:102C1000140363601B0C65F34F13E38085F6ACFF70
:102C20000123A3702080BDF80630E38104E0044B4B
:102C300000241A6801321A602046BDE8FC8100BFFA
:102C4000C00D1E0038B5002105468089FFF7AAFF98
:102C5000044620B18068AA89A968FFF772FA204665
:102C600038BD000038B5058A426801230446C2F326
:102C700014028370C38802EB531283680132C81CAC
:102C8000A18100215B0D5B05D218074B0340D31ACD
:102C900004F11000A360E38903F40C532822E381BC
:102CA00080F6E6FF258238BDFCFF010038B50446FA
:102CB000E389590621D4A278013AD2B2A270002A3F
:102CC00027D1E27862B1134B204653F82250E989AC
:102CD000FFF7C8FF21462846BDE8384005F070B927
:102CE000DA0516D40C4B2046A360218885F660FFD8
:102CF0002046BDE83840FFF799BB074B2046A3604C
:102D00002188A56B85F654FF2046FFF78FFB2C46E4
:102D1000CEE738BDA4101E00EFBEADDE38B50446C8
:102D20001DE0104BA28A1B6853F822500E4A13680C
:102D30002BB100215068A1822146984770B90B4BF6
:102D40001B6843B10A4AE1781B6852F821209A4275
:102D500001D185F6C3FE2046FFF7A8FF2C46002CC4
:102D6000DFD138BD8C061800C40D1E00EC0618001B
:102D7000A4101E008389826811FA03F3D05C7047A7
:102D8000838911FA03F38168CA54704770B590F8CB
:102D9000A4300446456973B970BDA36831465A5DD5
:102DA000D4F89C00FFF7ECFFE368013B9D4201D0A3
:102DB000013500E0354623699D4207D00521D4F84E
:102DC0009C00FFF7D7FF10F02006E6D0656170BDCC
:102DD000374B70B51C68266876B1A3190025A6612B
:102DE0001D776319187F013586F60AFBB542F8D1C5
:102DF0000A2086F605FB47E0D4F89C00002856D050
:102E00000221FFF7B7FF00F00F0001284FD0022882
:102E100002D12046FFF7BAFF0521D4F89C00FFF746
:102E2000A9FFC20743D5D4F89C000021FFF7A2FFF9
:102E3000D4F8AC3005461BB1D4F8A800E9B29847E5
:102E40000D2D10D0082D01D07F2D0DD1A369002BA1
:102E50002DD0013B0820A36186F6D2FA202086F609
:102E6000CFFA08201FE00A25284686F6C9FAA66987
:102E70000A2D04EB060305D001367F2E1D77A661CF
:102E800002D870BD00221A777F2EA66104D804F103
:102E90001C00314686F688FA00233E20A361236099
:102EA00086F6AEFA2020BDE8704086F6A9BA70BD5D
:102EB000F00618000020FFF78BBFFFF789BF000066
:102EC0002B4B70B519682B4C88422B4B0ED9421AEC
:102ED0001A602A4BD3E90023121843F10003284853
:102EE000C0E9002308464FF0A06109E000221A6003
:102EF0002368196A0E29CCBF4FF0C8514FF01061FA
:102F00002368002808BF0220A3B11A6A152A11DD20
:102F10001C4A5E6915681C4A1468222E05DDDA69B0
:102F2000520602D505F5C16201E004F5C1621268DE
:102F30005205F2D45A69222A04DDDA69520601D513
:102F4000104A00E0104A1268084302F5C8620432D1
:102F500010605A69222A04DDDB695B0601D5094B42
:102F600000E0094B1B6803F5C86304331B6870BDA0
:102F700040061800DC06180028071800180718007B
:102F800010071800100D1E009C061800024B406828
:102F9000196800F02BBA00BF3C0718002C4B70B525
:102FA0001B68002B51D02B4A106800284ED05C695A
:102FB000222C07DDDA69510604D5274A126802F58A
:102FC000C26201E000F5C2620432222C116807DD02
:102FD000DA69520604D5204A126802F5C26201E09D
:102FE00000F5C2620432126891420AD0222C04DD3C
:102FF000DB69590644BF184B186800F5C2600430FD
:103000000168164B1868081A20D019601449D1E9D4
:103010000023121843F100030126C1E90023114BDC
:1030200011491C68D1E90023E4FB00230F48046820
:10303000203C33FA04F016FA04F4661E002403EA76
:1030400006051443C1E9004570BD184670BD00BFB8
:10305000DC0618009C061800100D1E002C07180036
:10306000180718003006180030071800340618003A
:103070001B4B10B51B68A3B11A6A152A11DD194A3A
:103080005C691068184A1168222C05DDDA6952065D
:1030900002D500F5C16201E001F5C1621268520576
:1030A000F2D45A69222A04DDDA69520601D50D4AA2
:1030B00000E00D4A1268002102F5C8620432116076
:1030C0005A69222A04DDDB695B0601D5054B00E065
:1030D000054B1B6803F5C86304331B6810BD00BFB4
:1030E000DC061800100D1E009C0618002D4B10B5B4
:1030F0001B685A69222A04DDDA69500601D52A4A7A
:1031000000E02A4A1268402102F5C16211605A6942
:10311000222A04DDD969490601D5234900E0234963
:103120000968222A01F5C161096812DDDA695006D1
:103130000FD51D4A01211268C2F84017596922298A
:1031400002DDD969490601D4184A126802F5E8621D
:1031500012685A69222A04DDDB69580601D5124B30
:1031600000E0124B1B6803F5C86304331B68990128
:1031700017D5FFF77DFF0E4B1B6893B1FFF70EFFCE
:103180000C4B0D49D3E90023D1E90001904271EBCA
:10319000030434BFC0EB02000020BDE81040FFF77D
:1031A0008FBE10BDDC061800100D1E009C06180016
:1031B00028071800100718001807180010B5044653
:1031C00086F6C4F80CB100231B60064B002118687A
:1031D00000F00CF9044B1B6803B1984786F6B6F86B
:1031E000FEE700BFDC0618000C0718002DE9FF47BA
:1031F0004B4B0446D8620368042B03D1494B186833
:103200008DF608FB2368062B04D104B0BDE8F04717
:10321000FFF712BA444B454E656C1B68F169326882
:10322000C5EB030A4248FEF7EDFFA36C009322466C
:10323000636C4FEA9A0A0193A3680293E3680393CD
:103240003C48E36C2168FEF7DDFF2368042B07D1BF
:10325000FEF797FD0746FEF797FD0246364808E061
:10326000032B09D1FEF793FD0746FEF793FD0246B7
:1032700032483946FEF7C6FFE36904F110010093B6
:103280000027236AB9460193B846636A0293A36A8A
:1032900003932B480EC9FEF7B5FFA36B04F12C0175
:1032A0000093E36B0193236C029326480EC9FEF74B
:1032B000A9FFEB680093244895E80E00FEF7A2FFF3
:1032C00005F11001EB69009320480EC9FEF79AFF43
:1032D00018E07A59D3070FD5FF2A0DD91C4B9A4213
:1032E00004D902F16243B3F5801F05D81948394665
:1032F000FEF788FF09F101090437B9F10F0F08F152
:10330000010801D8D045E4D13368002043F480633C
:1033100086E8180004B0BDE8F047FFF74FBF00BFD4
:10332000140D1E00DC061800CCFC1D00740D1E00E0
:103330000C731D0022731D0057731D006B731D005D
:103340007F731D00B2731D00E1731D00FF731D002C
:1033500026661D001D741D002DE9F34198461B4B88
:103360000D46064614461F681948BF1AFEF74AFF65
:1033700031462A46174800252346CDF80080BF086D
:10338000FEF740FFA8462E4617E02A59D1070FD571
:10339000FF2A0DD9104B9A4204D902F16243B3F5CA
:1033A000801F05D80D482946FEF72CFF08F10108BB
:1033B00001360435B8F10F0F01D8BE42E5D1002027
:1033C00002B0BDE8F041FFF7F9BE00BFCCFC1D0024
:1033D00029741D0041741D0026661D001D741D000A
:1033E000014B1868704700BFD0FC1D0070B50E4639
:1033F00004468DF6B1FA054620468DF6C5FEFFF768
:10340000EFFF40F63E01024620468EF60FF80123FC
:1034100029460362C6622046BDE870408EF614B8A5
:103420004FF66853C0F21D031868421C1A607047BB
:10343000006890F878214369C3F8A021704700BF65
:1034400046F22863C0F21D03F0B490F88D5184B0A9
:1034500004460E4604AF0FCB07E90F002DBB3EB369
:1034600040226369C1F2006241F61406C3F820618C
:10347000D3F8241121F07C5020F4F076C3F82461B5
:1034800041F61806D3F8241141EA0200C3F82401DA
:10349000C3F82061D3F8241121F48002C3F8242159
:1034A000D3F824613543C3F8245104B0F0BC70470D
:1034B00063694FF4137104A8C3F82011D3F82411E1
:1034C00001F0030C00EB8C0252F8102C501CECD0D5
:1034D000C80800FB02F1481D00EB800202EB8202EB
:1034E000B2F5005FE1D2B2F5806F08D3C2F3C50533
:1034F000560A280640EA46124FF48005B4E702F067
:103500003F0195090A0642EA45123546ACE700BF7D
:1035100070B50546486C0C4608B106F063FC206C9B
:1035200008B106F05FFC606D08B106F05BFCA06DB1
:1035300040B106F057FC95F8C508461EF6B285F86E
:10354000C5682EB10023636563642364A36570BD01
:10355000D5F8C008FFF764F8002385F8C4686365F0
:1035600063642364A36570BD38B590F884318B42E1
:103570000D46044608D000297CD002294369C3F8CF
:10358000A01102D084F8845138BDD3F8A011C1F342
:103590000122022A63D00A2085F600FD6369D3F870
:1035A000A021C2F30120022859D00A2085F6F6FC9A
:1035B0006369D3F8A001C0F3012102294FD00A208A
:1035C00085F6ECFC6369D3F8A021C2F3012CBCF1B1
:1035D000020F44D00A2085F6E1FC6369D3F8A0010C
:1035E000C0F3012102293AD00A2085F6D7FC63698D
:1035F000D3F8A021C2F3012CBCF1020F2FD00A2076
:1036000085F6CCFC6369D3F8A001C0F3012102293F
:1036100025D00A2085F6C2FC6369D3F8A021C2F345
:10362000012CBCF1020F1AD00A2085F6B7FC6369A1
:10363000D3F8A001C0F30121022910D00A2085F699
:10364000ADFC6369D3F8A021C2F3012CBCF1020FD9
:1036500005D00A2085F6A2FC6369D3F8A021D3F82F
:10366000A011C1F30123022B8CD120460121FFF7C9
:10367000E7FE87E7FFF7E4FE6069C0F8A05181E745
:103680000239D0F808356422F0B58CB285B002FB5F
:103690000434638C5A06054602D5002005B0F0BDFF
:1036A00043F040062146668404F1240704F12A060B
:1036B00002F0E8FA286994F83110228C032300976D
:1036C000019694F830E0CDF808E004F0AFF8608E91
:1036D0000028E2D094F83110228C286995F8C93876
:1036E00094F830400BB144F0800409230097019610
:1036F000029404F09BF8D0E7006802F06DBE00BFB2
:1037000038B541690446D0F802385D1CCA6CC0F86F
:103710008026C0F8025885F63FFBD4F81258C4F84A
:10372000700885F639FBD4F88811D4F86C3821F08C
:103730000802C3EB050C42F001030021C4F88831F4
:103740000122C4F86C1884F894210CEB0003C4F82F
:10375000123838BDD1F1010338BF0023002A08BF59
:1037600043F0010370B5054603B170BD084604F08F
:10377000D3FB40F61864C0F21E040123014628461C
:103780002568ED18D0F880222560BDE8704003F070
:103790007DB900BF38B540F61C63C0F21E031C683B
:1037A000002C4ED094F88D0100284BD1D4F88031F4
:1037B000002B46D01A68002A3CD00A2085F6EEFB82
:1037C000D4F880311968A9B30A2085F6E7FBD4F84C
:1037D0008031196871B30A2085F6E0FBD4F8803196
:1037E0001A683AB30A2085F6D9FBD4F880316025EF
:1037F0001A680A20F2B185F6D1FBD4F880310A208C
:103800001A68BAB185F6CAFBD4F880310A20196863
:1038100081B185F6C3FBD4F880310A201A684AB119
:1038200085F6BCFBD4F88031043D1A68E1D142F042
:10383000805201E04FF0805260691A604FF480734B
:10384000836238BD94F88C11FF2905D0E06801220D
:10385000BDE838408DF6D0BA0120BDE83840FFF70A
:10386000B3B800BFF8B5436904210446C3F820117A
:10387000D3F82421520740F11B81D0F8B8289425B1
:103880000020012AC3F82051C3F824014BD0186846
:103890004FF40062002540F0100101201960C3F8C8
:1038A0002021D3F8241121F08072C3F8242184F858
:1038B000955185F62DF994F88C11FF2984F88D51D6
:1038C000C4F8905111D0E0682A468DF695FA94F824
:1038D00084368BB9204602F09EFE204603F01EFB84
:1038E000204602F079FD0020F8BD2846FFF76CF86D
:1038F00094F88436002BEDD063690022D42184F83B
:103900008426C3F82011D3F82421500511D494F84B
:103910008431A3F10201D1F1000C20464CEB0101EE
:10392000FFF78EFDD6E79821C3F82011C3F82421B4
:10393000ADE748F63C0666F31F4640F6440748F6F6
:103940006405C3F8207165F31F45C3F8246140F690
:10395000480649F20300C3F8206160F31F40C3F832
:10396000245140F64C05C3F82051C3F82401C3F894
:103970002011C3F8242194F88411022977D0022160
:10398000C3F8A011D3F8A021C2F3012CBCF1020F9F
:1039900063D00A2085F602FB6369D3F8A021C2F345
:1039A0000120022859D00A2085F6F8FA6369D3F875
:1039B000A001C0F3012102294FD00A2085F6EEFABA
:1039C0006369D3F8A021C2F3012CBCF1020F44D0EB
:1039D0000A2085F6E3FA6369D3F8A001C0F3012158
:1039E00002293AD00A2085F6D9FA6369D3F8A021D2
:1039F000C2F3012CBCF1020F2FD00A2085F6CEFABB
:103A00006369D3F8A001C0F30121022925D00A205F
:103A100085F6C4FA6369D3F8A021C2F3012CBCF186
:103A2000020F1AD00A2085F6B9FA6369D3F8A0010B
:103A3000C0F30121022910D00A2085F6AFFA63698C
:103A4000D3F8A021C2F3012CBCF1020F05D00A204B
:103A500085F6A4FA6369D3F8A021D3F8A031C3F3A3
:103A6000012EBEF1020F26D0022184F884114FF4FA
:103A70007A7085F693FA94F8840148B120460021C3
:103A8000FFF7DEFC00236269C2F8A03184F88431BC
:103A90004FF47A7085F682FA94F88431A3F102012A
:103AA000D1F1000C20464CEB0101FFF7C9FC11E7F6
:103AB0004FF0FF30F8BD20460121FFF7C1FCD3E7EE
:103AC000436970B51A680446920740F196805968B8
:103AD000C90540F1928003254FF428610022C3F804
:103AE0002011C3F8245190F8845680F89421002DB9
:103AF0004ED041F6140248F63C00C3F8202160F392
:103B00001F40D3F8245148F6640149F2030245F0FE
:103B10001F0561F31F41C3F8245140F6440562F3C9
:103B20001F42C3F8205140F64805C3F8240140F66F
:103B30004C00C3F820514FF40065C3F82411C3F8BA
:103B40002001C3F824211968E06841F01002A1683F
:103B50001A60C3F82051D3F8242122F08075C3F8ED
:103B6000245141F64C0505F0A8FE4FF47A7C48F24A
:103B70008042C0F21E026369C3F82051B0FBFCF022
:103B8000B2FBF0F16046C3F8241185F607FA1BE09A
:103B90004FF480222B460621C06805F0E4FBD4F8E0
:103BA0000608D4F81668411CC4F8061885F6F4F81F
:103BB000D4F87038C4F87058F61A3618C4F8166875
:103BC00085F6EAF8C4F86C08D4F88831204623F06A
:103BD0000102C4F88821FFF745FE70B194F89C21DA
:103BE00042B9D4F8A011D4F8980184F625FE012139
:103BF00084F89C11012084F8950170BD10B504680B
:103C00002046FFF72FFE10B984F89C0110BDD4F8B0
:103C100098010022D4F8A011BDE8104084F60CBE33
:103C20002DE9F04F054683B04FF47A60AB69D3F8C5
:103C300030B0DBF8006006F0C9F8C5F808050028C8
:103C400061D00827002406F15009A04626460197B6
:103C500002E0D5F80805019FDBF8083000EB040E00
:103C6000DBF8041047F2AC42065503EB070A019853
:103C70004346D5F8D878C0F21D020918D5F80805D2
:103C800008F10108CEF8089009F1100900EB040CC6
:103C90000CF10100CEF80C100721CCF85C70CEF8C6
:103CA00010A080F647F8D5F8082501991319081DCA
:103CB0001E77D5F80825019011195D6181F85160D2
:103CC0006FF07F01D5F8080500EB040C8CF850600C
:103CD000D5F808351A195177D5F8080500EB040C0A
:103CE0008CF83660D5F808351A1982F83760D5F89F
:103CF000081508196434B8F1280FC677A9D1002235
:103D0000012085F8C92803B0BDE8F08F436910B4DD
:103D10001C68D0F8B82844F441711960002A30D1E9
:103D20004FF440714FF47072C0F20201C0F20312FE
:103D3000C0F8B4188024426340F6745CC0F888412F
:103D4000C0F21E0CC3F8A841426B0263D3F8941171
:103D5000DCF8004041F4EE3244F40034C3F894211E
:103D6000D3F89C11CCF8004041F4EE32C3F89C210A
:103D7000596A026B0A435A62012380F80C3110BC65
:103D80007047022A08D0012A0ED0D0F8B418C022F9
:103D9000C0F201120A43CDE74FF40034C022C0F84C
:103DA000B448C0F20312C5E74FF440744FF4707288
:103DB000C0F20112C0F8B448BCE700BF4269436BCF
:103DC00010B4116A0B40C3631BB313621B061FD5EB
:103DD000D2F89041D2F8983104F4EE3403F4EE3185
:103DE000C0F83841C0F83C111CB1C2F89041D0F87D
:103DF0003C1189B9C26B22F08003C363D0F838014B
:103E0000194351EA00020CBF0020012010BC70478A
:103E1000C36BD0F83C11F1E7C2F89811D0F83C110F
:103E2000E8E700BF4369D3F89C1121F4EE32C3F8F0
:103E30009C21D3F8941121F4EE32C3F894215A6AEC
:103E4000016B22EA01025A6200230363704700BF3C
:103E50004369426B0263D3F8941141F4EE32C3F824
:103E60009421D3F89C1141F4EE32C3F89C21596A95
:103E7000006B41EA00025A62704700BFFFF79EBF25
:103E8000D0F84E380133032AC0F84E3805D0042A42
:103E900004BF4369C3F84C1170474069C0F848112A
:103EA000704700BF2DE9F0410022D0F8908298F8C9
:103EB0000030012B064617462AD0D8F80820906813
:103EC000002800F00A81D8F838502B78A3B10024DC
:103ED00001E0D8F80820D78895F801C007FB0CF05E
:103EE00005F071FF04EB4402013405EB8201E4B2FA
:103EF00048622B789C42ECD344F645400022AB70DC
:103F0000C0F2180001231746C8F83C0088F80030BA
:103F1000D6F88C8298F80010012908BF174628D0DF
:103F2000D8F808209368002B00F0C280D8F83850E9
:103F30002B78A3B1002401E0D8F80820B2F806E0FD
:103F400068780EFB00F005F03EFF04EB44010134FD
:103F500005EB8102E4B250622B789C42ECD347F22D
:103F60005F12AB70C0F218020123C8F83C2088F839
:103F70000030D6F8848298F80010012900F0A08063
:103F8000D8F808209068002800F0AA80D8F83850A7
:103F90002B78A3B1002401E0D8F80820D2886978F2
:103FA00002FB01F005F00FFF04EB4403013405EBC5
:103FB000830CE4B2CCF824002B789C42ECD3002292
:103FC000AB7001201346C8F83C2088F800003B4342
:103FD000D6F87C7297F800C0BCF1010F5FFA83F845
:103FE00079D0BA68916800297CD0BD6B2B789BB1E1
:103FF000002400E0BA68B2F806E068780EFB00F032
:1040000005F0E1FE04EB440C013405EB8C02E4B254
:1040100050622B789C42EDD30022AB7001211346F5
:10402000FA633970D6F8807248EA030800203B78BA
:10403000012B21D0BA6801209168E9B1BD6B2B78C2
:10404000A3B1002400E0BA68B2F806E068780EFB7D
:1040500000F005F0B8FE04EB4402013405EB820CDD
:10406000E4B2CCF824002B789C42ECD30021AB7056
:1040700008460123F9633B7048EA000096F8952250
:10408000A2B9B269536BC6F87832082B2CD9082331
:10409000C6F878320021D36B926BC6F87022C6F84E
:1040A0007432C6F84811012186F89512BDE8F081F6
:1040B0000127D6F8848298F8001001297FF460AFB8
:1040C00000233B43D6F87C7297F800C0BCF1010F87
:1040D0005FFA83F885D10023A4E70122174617E78A
:1040E000012374E701239DE7002BDCD0D2E700BF5A
:1040F0002DE9F04FD0F884628DB0044630460F466B
:1041000002F00EF90546002800F09580D4F8F4146A
:104110004B68002B00F08F801822B968FEF711F869
:10412000BA68BB890C201832B5F80CA0183BBA60ED
:10413000BB812870D4F8F484D8F80490B9F1000F4A
:1041400013D0D9F800204946C8F8042004A8182242
:10415000FDF7F7FFB8F80A30591ED8F80000C9F883
:104160000000C8F80090A8F80A1008996960BAF130
:10417000000F56D0BDF82400504538BF8246A989AB
:10418000D4F848215145DDF81C900AEB020388BFA2
:10419000A5F80CA00020D4F8A8881FFA83FADDF84F
:1041A00018B00A900B90B8F1000F47D00AF1FF3E0B
:1041B00000271FFA8EFCBCF1060F98BF4FF0080ACB
:1041C0003B46204651464222009702F05BFAD4F863
:1041D000787229F000493FB104F51C72D4F834011B
:1041E000082306CA04F052FD0CAFCDF82C905346BC
:1041F00047F808BDD4F8340197E8060004F046FDFE
:1042000000234FF0010ED4F834010B937346CDF820
:10421000288097E806008DE80044CDF808E004F017
:104220007BFDB26829462046D288334602F01DFB4A
:10423000002184F87D160DB0BDE8F08FD7F8088016
:10424000B4E700BF2DE9F043002583B09DF8287046
:1042500006460C4698460195002A73D00B78002B31
:1042600073D0511E11F00301234648D0234613F8A2
:10427000010F012560B1A94241D0022903D00225D6
:1042800013F8011F21B1013513F8011F002936D1A0
:10429000691C57B10B1D9A4238BF6FF00D003CD31B
:1042A00001A861180422FDF74CFF251D47F2B44117
:1042B0002846C0F21D017FF663FD8146002830D1FB
:1042C000002F2ED0019B662B2AD0632B4FD06FF08E
:1042D000160022E011F801CFBCF1000FD8D011F880
:1042E00001CF0135BCF1000FD2D0851C49780029DF
:1042F000CED0C51C99F8011004330029C8D001356F
:1043000095422846AC46194603F10309E2D114F858
:104310000C306FF00100002BBAD003B0BDE8F08381
:10432000FEE747F2C0412846C0F21D017FF628FD96
:104330000028CCD16FB10199D6F8102186F88E11E2
:104340001160EAE794461546E1E70121002FACD061
:10435000A0E7012396F88E21204622700422C8F897
:104360000030D6F81011FDF7ECFE3846D5E7FDF722
:10437000B1FE4846D1E700BF2DE9F0478F8991F89B
:1043800013A0D0F8F094083F8B688CB0BFB2D9F876
:1043900004600833D0F884820C4605468B608F8118
:1043A000002E55D032683146C9F8042004A81822DE
:1043B000FDF7C7FEB9F80A104B1EBDF82420D9F846
:1043C000000097423060C9F80060A9F80A300699E9
:1043D00007980A910B90DDF820902FD8D5F8483136
:1043E0002146002607EB030C41240AAA1FFA8CF38E
:1043F000284602940096019602F054F9404601F0D6
:104400008FFF0446002846D002230E2180F801A029
:1044100001702146D8F80820D28843812846C4F884
:10442000049043462681A78102F01FFAB0420CBFD8
:104430004FF0FF3030460CB0BDE8F08747F2CC407B
:104440003946C0F21D00FDF7DDFEBDF82470C5E75A
:10445000404601F065FF4FF00108314618224FF049
:10446000FF3907467FF604FC072087F800803946AD
:10447000D5F8842213469268D288388128467E81F6
:10448000C7F8049002F0F1F9A8682146424605F009
:10449000DBFC4846CFE74FF0FF30CCE770B590F833
:1044A0008D31044613B190F8A41101B970BD49F6DD
:1044B0009C15C0F20805D0F830012E6DB0470028D9
:1044C000F4D1D5F8A450D4F83001A8470028EDD194
:1044D000D4F83401B0470028E8D1D4F83401A84713
:1044E0000028E3D1D4F880128A6B506900285CD18F
:1044F000D4F87C12886B4369002B52D1D4F88031F8
:10450000002B45D01968002949D00A2084F646FDC1
:10451000D4F880311A68002A41D00A2084F63EFD82
:10452000D4F880311868002839D00A2084F636FD86
:10453000D4F880311A6892B30A2084F62FFDD4F89B
:10454000803160251A680A204AB384F627FDD4F822
:1045500080310A20196811B384F620FDD4F8803127
:104560000A201968D9B184F619FDD4F880310A20DF
:104570001A68A2B184F612FDD4F88031043D1A689D
:10458000E1D142F0010260691A604FF480738362E6
:104590000021012284F8A41184F8952186E70122E4
:1045A000F1E7204602F07BFBA8E7204602F0A2F9E3
:1045B0009EE700BFC36B2DE9F0410446002B39D0C4
:1045C000D0F8B42813425ED1D8030DD5D4F84A18D8
:1045D00094F895314A1CC4F84A28002B40F04E81CB
:1045E000204601F0F9FEE36B5A061FD594F894516A
:1045F00025B994F88D11012900F03C814FF0FF3569
:10460000636900211D620A46E068C3F89051C3F84F
:104610009851C3F8A4518CF659F90022E068E2637E
:104620008CF634FD002840F0AB80E36BD90176D4E2
:104630000022E263D4F838312BB1D90300F135817F
:104640000023C4F83831D4F83C3143B1DA0300D444
:10465000FEE7204602F086FE0020C4F83C0194F8F4
:104660008D3123B194F8A431002B40F0E580D4F8CB
:104670003801E26B40EA020151EA03020CBF00205C
:104680000120BDE8F081D0F87C21002A9CD016687A
:10469000002E99D00025F007156019D4002E01DAFC
:1046A000FEF708FCD4F8B828002A40F0D580E36B68
:1046B0009A0340F1C780C02202214FF40030C0F2BB
:1046C0000312C4F8B818C4F8B408626322637BE725
:1046D000284684F61DFA20462946FEF7B1FE01233E
:1046E00094F8AC0684F88D3184F8A43128B1D4F85C
:1046F000A806FDF795FF84F8AC56D4F88831626BB4
:1047000043F0080121F00100D101C4F8880144BF41
:104710006269C2F8A8012046FFF7C0FEBEE76269E1
:10472000D2F8A451D2F8A43143EA0501C2F8A41189
:10473000D4F8880105403FF47BAF2A0702D5204614
:10474000FEF7DEFFEB0705D594F8843613B9204653
:10475000FFF7B6F9280641BFD4F8883123F080036B
:1047600043F01003C4F88831E90600F1A280616BC0
:10477000C80142BF6169D4F88821C1F8A82157E770
:10478000676949F69C15C0F2080520463B6843F06E
:1047900004063E60FFF7BAFAD5F85C80D4F8300121
:1047A000C047AF68D4F83001B847AE6DD4F83001D7
:1047B000B0476D68D4F83001A847D4F83401C04739
:1047C000D4F83401B847D4F83401B047D4F83401F0
:1047D000A84763691122D3F8A40140F01001C3F87F
:1047E000A411606BC4F88821C00158BFD3F8A82178
:1047F000C3F8A821012284F88426196841F0040036
:104800001860D4F80A28D4F86C08511CC4F80A18A7
:1048100060B1D4F8125884F6BFFAD4F86C3800218D
:10482000ED1AC4F86C182A18C4F8122884F6B4FAE1
:10483000E36BC4F87408F9E62046FFF72FFED4F8BE
:104840003C3114E713F4407F08D1D4F8B408C022F7
:10485000C0F20112024338E7E36BB5E601204FF4E2
:1048600040714FF47072C0F20112C4F8B808C4F875
:10487000B4182AE72046FEF743FFBFE62046FEF7BE
:10488000F1FF054640B994F89C0128B1D4F898018D
:10489000FDF7C6FE84F89C51636BD90142BF636982
:1048A000D4F88821C3F8A8219AE6204602F084FDB6
:1048B000C6E6D4F88821636942F0800C2CF0100120
:1048C000C4F88811186882077FF551AF94F88426E0
:1048D000002A3FF44CAFD4F880261AB10026DA64DF
:1048E000C4F88066062100234FF48022E06804F0BB
:1048F0003AFD2046FFF7E4F8606BC50142BF6069EE
:10490000D4F88851C0F8A8510025D4F80E38D4F84E
:104910001A685A1CC4F80E2884F63EFAD4F87418A3
:10492000C4F87458C1EB060C6044C4F81A0884F645
:1049300033FAD4F80638D4F816685A1CC4F8062896
:10494000C4F86C0884F628FAD4F87018C4F87058C3
:10495000761A3318C4F8163884F61EFAC4F86C08B0
:1049600005E700BF90F88C31FF2B0A4603D0C068E2
:1049700019468CF641BA0846FEF726B8D0F8F4146A
:10498000F8B54B680446D0F884022BB3836B9A7851
:10499000012A21D90769028B8168D4F860513B68EC
:1049A0008F88D4F85C61934288BFD219D31A2D68DE
:1049B000791E9AB2D6F800C08E1A052DB7B28CBFF8
:1049C00000250125012F8CBF2F4645F001073E46EB
:1049D00017B9BCF1080F00D8F8BD01F0A1FC0546DD
:1049E000002820D0D4F85021204629469368AF7083
:1049F0006F700A27D3F804E02F70D4F884229F68E0
:104A000013469268D288C5F804E06E812E81EF606B
:104A100001F02BFF2069D4F85011D4F8A828BDE884
:104A2000F84002F01BBFD4F8B0381A88501C188028
:104A3000F0E700BF38B544690D461C220021D4F8C8
:104A400004057FF615F9F5B1D4F8B008C1884A1C01
:104A5000C28094F87A3113B1002084F87A01D4F836
:104A6000501119B1A068002205F0EEF90023194693
:104A7000C4F850311A4684F87D36D4F80005BDE8F4
:104A8000384083F6D9BED4F850313BB101222046DC
:104A900084F87D26BDE83840FFF770BF38BD00BF01
:104AA00010B590F87A31044613B1002180F87A11DC
:104AB000D4F8501119B1A068002205F0C5F9002002
:104AC0000146C4F85001024684F87D06D4F800057A
:104AD000BDE8104083F6B0BE2DE9F84F8F1E4FF0B1
:104AE0006404B9B2D0F80895002304FB01F892469B
:104AF00009EB080409F808300646E36CD9685868E1
:104B00001D680A699A420A4608BF0861056052F8A2
:104B1000085F1F689542786051D00025D6F8780864
:104B200019469D60DD607FF6FDFFD6F8840201F036
:104B3000F7FB074600284FD0182229467FF698F841
:104B40000620387094F8311079703046A36CB4F8B0
:104B500020C021467B60A7F80AC0A7F808A009F882
:104B6000085065832583FEF7D3FCE57784F852501F
:104B70003046D6F88422394623691D601346926870
:104B8000D28801F072FE18B3D6F8802806F5086EB8
:104B9000B4F822C02CF010037245638418BF284675
:104BA00001D0BDE8F88FD6F87C12886B40690028E8
:104BB000F7D0304602F073F82846BDE8F88F91E848
:104BC0000500106000200F687A600D614875A4E749
:104BD0004FF0FF30BDE8F88F6FF01A00BDE8F88F96
:104BE0002DE9F0410746D0F8840288461646D7F8EA
:104BF000085501F095FB044610B3A8F102016423A7
:104C00001FFA81F81822002103FB08557FF630F8BF
:104C100008223846227095F8311061702146D7F885
:104C200084222F8CAB6C6360134667819268D288B4
:104C3000268101F01AFE18B16A8C22F020006884E7
:104C4000BDE8F0812DE9F04FD0F89072154695B08F
:104C50000646BB689F7992FBF7F30C4607FB1322CD
:104C60002AB14FF6FF75284615B0BDE8F08F90F8D1
:104C70007A01012800F0BD81D6F852081A18C6F84A
:104C80005228002DEFD0ED1B47F2205A47F2285B47
:104C900006F50863C0F21D0AADB2C0F21D0B079302
:104CA0000597CDF820A02778FB1E0A2B00F2438140
:104CB000DFE813F008014101D9004101B0004101D2
:104CC0005A004101340041010B00D6F8F03422892A
:104CD0006168D3F80080B8F1000F00F09D81D8F82A
:104CE00000001860D4F810C06769C8F80C70C8F8E4
:104CF00008C05889471CD3F804C0C8F800C0C8F8D9
:104D00001010A8F81420C3F804805F81059FE91BE8
:104D1000E4198BB2002DA6D01D46C4E7D6F8F434B2
:104D200022896168D3F80080B8F1000FD7D1D6F896
:104D3000840201F0F5FA1822414681467EF698FF7A
:104D40000A22A9F80C80A9F808200221304689F827
:104D500000104946D6F88472A9F80A803B46BA6822
:104D6000D28801F082FDD1E796F87A110129CDD0E1
:104D7000D6F8F424B4F80E80B4F810A05368002BD1
:104D800000F09881D6F8FC07C289273A424540F3E3
:104D9000F78003F0E2F88146002800F09282D6F80E
:104DA000FC27D789D6F8A818283FBBB2002900F005
:104DB0007281D6F8F414D6F8AC284F68B88A9042BD
:104DC00038BF02469245D6F8507188BF2282002F24
:104DD00000F03881D6F88402D4F8049001F0A0FAEB
:104DE0001822002180467EF643FF03200122002383
:104DF000A8F8080088F80020A8F80A30D6F884221D
:104E00003046C8F80490414613469768FA8801F086
:104E10002CFD7BE721898B1E01298CBF00220122FA
:104E200098B2272888BF42F00102002A40F0DC80B7
:104E3000D6F808354FF06407D4F804E007FB0033D8
:104E4000C3F848E0D3F80CC01F69DCF800E038680C
:104E5000864500F0D8805F8C47F0200230465A84A7
:104E6000FEF70EFC52E72189881E01298CBF002223
:104E7000012280B2272888BF42F00102002A40F0B8
:104E8000BD804FF06407D6F8083507FB00FE13F825
:104E90000E707344002F00F0BA80D3F80CE01F6945
:104EA000D4F804C0C3F848C03868DEF800C08445B0
:104EB00000F0C4805F8C47F0100230465A84FEF741
:104EC000DFFB23E7B4F81680A8F10200B8F1010F68
:104ED0008CBF002301231FFA80FABAF1270F88BF85
:104EE00043F001034FF00509002B5ED0D6F8840291
:104EF00001F016FA804600283FF408AF042700218D
:104F000018227EF6B5FE88F80070617888F80110E6
:104F1000D6F88422B4F816C063683046A8F80AC0F0
:104F20004146C8F804301346A8F808909768FA88F4
:104F300001F09BFCEAE6D6F88402032701F0F0F9C1
:104F40000021182280467EF693FE0223002088F876
:104F500000304146D6F88432A8F80C00A8F80A00C0
:104F600030469A68D288A8F8087001F07EFC47F2B3
:104F7000F040C0F21D002146059A03F051F9C5E644
:104F8000D6F88402D4F8049001F0CAF9002118225E
:104F900080467EF66DFE032101200023A8F808104C
:104FA00088F80000A8F80A3028E704F10807384616
:104FB0000FA90A977FF6A4F96422D6F8089502FB98
:104FC0000AFA19F80A30099309EB0A0C002B32D1BE
:104FD000E18B302918BF4FF0030900F08D80304677
:104FE0006146FEF795FA81E730460522FFF7F8FDA6
:104FF0008CE6097809297FF43FAE32E63046052277
:10500000FFF76AFD82E63046FFF7EAFD7EE63046AE
:105010000122FFF761FD79E6D6F8840201F080F9FC
:105020004146182281467EF623FE0B23A9F80C8008
:10503000A9F8083089E64FF00409D0E73046FFF7B9
:105040004BFD63E62833C6F850912146A9F80C3091
:105050002822D9F80800FDF774F8012386F87A3180
:10506000B8F1000F20D0D9F8081044F63527D6F84B
:105070000435C0F21807E069283158601846D4F8A2
:1050800018E0C3F800E0A3F80880D9601F615E61F2
:1050900083F646FC3AE6D6F8F4149A4584BF9A465D
:1050A00023824868828A8DE686F87D363046FFF78F
:1050B00065FC2BE6D6F88402D4F80490069301F040
:1050C0002FF9069F1822394680467EF6D1FD012031
:1050D000092188F800003046D6F88422069BA8F8FB
:1050E00008104146A8F80A3013469768FA88C8F8AD
:1050F000049001F0BAFB09E604F10E07617830690B
:1051000094F814E00C9701230097099A0A9FCDF8B0
:1051100018C00197CDF808E002F088FBDDF818C050
:105120000B90023000F0EC80A08BC00804F04EFE23
:10513000DDF818C0CCF84400002800F0E480A38B10
:10514000D808CDF818C004F041FEDDF818C0CCF83E
:105150004000002800F0D780A08BC008CDF818C010
:1051600004F034FEDDF818C0CCF85400002800F03C
:10517000D280099BACF86030D6F878087FF6BCFC8A
:10518000DDF818C0002800F0C680D6F87C18C0F8FA
:1051900008C0CCF84C00237DC3EBC3070D9101EB95
:1051A00087010997C16096F8C928002A40F0B680A7
:1051B0001BF803E00B6943601A6802601860076817
:1051C00078604B7D08611BBBD6F880380798984201
:1051D0000FD096F8C928059F002A6CD003E01B6801
:1051E000079A9A4204D01A7D0898805C7045F6D2DE
:1051F00005970120302748755B68CF820D98099F7D
:105200001A6840F82720196050F827704B607960C1
:105210000127B4F816E0DCF80830A08BACF8208049
:10522000E28BACF8227098800CF12400DA80062220
:10523000A3F800E0D4F82080C3F80880D4F824E074
:10524000C3F80CE00C99CDF818C0FCF77AFFDDF834
:10525000188006220A9908F12A00FCF772FFDDF88F
:1052600018C0217D8CF830100B9962780020302313
:1052700009F80A7011F40079ACF832008CF831208A
:10528000ACF834308CF81E103FF430AE0B9F022186
:1052900017F480798CF836103FF428AEBCF8222041
:1052A00042F004034FF00009ACF822301EE61B6800
:1052B000079898429CD01A7D1BF802007045F6D2E0
:1052C00096E7D6F88402D4F804A001F029F84946FC
:1052D000182280467EF6CCFC0123022088F800309C
:1052E0004146D6F88422A8F808003046A8F80A906B
:1052F00013469768FA88C8F804A001F0B6FA05E5E5
:105300004FF001096BE6D6F8B0180F887A1C4FF001
:1053100002090A8063E64FF0020960E6089A12F873
:1053200003E047E7704700BFF0B5023985B00024BD
:105330000129039415461E460A9C87691CD847F22A
:105340001050C0F21D007EF643FD47F21051C0F22E
:105350001D01024628467EF643FD68B9B868294615
:1053600032469DF8307003AB0097FEF76BFF0CB12F
:10537000039B236005B0F0BD4FF0FF30F7E700BF9F
:105380008B690146986902F0B9B900BF806913467C
:1053900010B50C4601398068142911D8DFE801F0F6
:1053A0001D1D101010272710333310100B10101074
:1053B0001010101212009978DA789B7902F0E2F856
:1053C000002010BDA4F1140ED978DEF1000C4CEBD6
:1053D0000E0202F090F8002010BD9978A4F10103AC
:1053E0005A4242EB030202F045F8002010BDA4F13E
:1053F00006029978D2F1000E4EEB0202073302F05A
:1054000098F8002010BDA4F109021979534243EB2A
:10541000020202F052F8002010BD00BF10B58469EE
:10542000A068FEF7CBFC00B910BDA068FEF7FAFC3F
:10543000A068FFF7BFF820B9A068BDE81040FEF7EC
:1054400007BD002104F11C000A46BDE8104083F6A8
:10545000F3B900BF10B54468A068FEF70FFDA0685F
:10546000FFF7A8F820B9A068BDE81040FEF7F0BC2F
:10547000002104F11C000A46BDE8104083F6DCB9A7
:1054800070B5CC6DE278A3789A4202D9013AD31A6A
:1054900004E0247802B103B9013CE31A4A8C12F00B
:1054A0004005DBB20BD0CA68488B126882423CBF11
:1054B0008A689288101A984228BF184670BDD0F8A2
:1054C00014211289D2B1B0F80048A24218D9101B99
:1054D0004C8BCA688E8E1568A5422FBFC4EB05049D
:1054E0008A689288C4EB0204B04228BF30469842D2
:1054F00028BF1846A04228BF204670BD104670BD88
:10550000284670BDF0B54E8B541E30198B689B88B1
:1055100090FBF3F54F6D03FB150080B2C5087F5D6E
:1055200000F0070557FA05F515F0010F14D08D6D41
:1055300035F8101048040FD5012A0CD0901E3018F1
:1055400090FBF3F603FB16039BB235F813308B4246
:1055500002D0A2B200E000221046F0BD02460023B5
:1055600010B5194692F814453CB9242202FB0303F6
:105570000122084683F8142504E0013324320A2B63
:10558000EFD1FF2040B210BD2423002203FB010312
:1055900083F8142570470369428B1B689A4205D330
:1055A000994208D3914206D241837047914201D378
:1055B000994200D3418370472DE9F041438B466CFB
:1055C000DA08B15C03F0070251FA02F2D2073AD5C9
:1055D000C26812689A4201D3D21A03E081688D88AA
:1055E000ED1AAA1895B200212AE082689488CA1898
:1055F00092FBF4F7D0F8408004FB1722002A94466F
:10560000B8BF02F1070C02F007074FEAEC0C18F8DC
:105610000C8048FA07F818F0010F10D016F80CC0EB
:105620004CFA07F717F0010F02D14283BDE8F08171
:10563000428B013292FBF4F704FB172444830131BF
:105640008AB2AA42D1D3BDE8F08110B5C36D9A7871
:10565000DC78944201D9601E03E0187804B102B9E5
:105660000138801AC0B268B151181878814201D14E
:10567000002100E005DA587899705B6800FB023081
:1056800010BD002010BD8168C988B2FBF1F1C36D67
:10569000D87809181A78C9B28A42D97001D800227C
:1056A000DA707047836BDA685868824208D00AB9AA
:1056B0009A6800E052689160DA609A7801329A70D4
:1056C0007047D0F88C3230B59B6B9B699D785878C9
:1056D00085421C788ABFC5EB0405C5EB00052D1873
:1056E000651B012D08DD03EBC0050130A042A8BFFA
:1056F000002069602A72587030BD90F8BC28436958
:1057000022B1D3F8E02142F0020203E0D3F8E02115
:1057100022F00202C3F8E021704730B545891580B8
:1057200042680A60C2695A6042F0004281695A6068
:10573000049A19600389039C13801BB14369636059
:105740000369236030BD838DC08D834296BFC0F155
:105750004000C0EB0300C0187047D0F8F8341A6856
:1057600012B95960196002E05A68916159609A68EB
:1057700001329A6000238B617047D0F8F8341868C2
:1057800070B15A6890429A6802F1FF329A6003D170
:1057900000225A601A60704782691A600023836190
:1057A00070470346F0B5C0680688588B86429C68EF
:1057B00028BFC0EB0600A58838BFC0EB050080B24B
:1057C0000880E0B19E6B3AB1E788B2FBF7F27678D9
:1057D000B24228BF324600E07278904228BF10469D
:1057E00008805E8BE288A0680C883419AC42A8BFA0
:1057F000002402FB06005C830B885A430A80F0BD3C
:1058000070B18268D388B1FBF3F149B1036918889C
:1058100041189288914202DB00221A607047196099
:10582000704770B50B8B0D698C68E088B2FBF0F2A5
:105830002E689E4202D9DD43AD1904E0A58806B169
:1058400003B9013DED1AADB2954209D3A56800FB3D
:1058500003509B18A2889342A8BF00230B8370BDFE
:10586000002070BDD0F87C3210B59A6B9278D2B11E
:105870001A69198B4C1C1268A24212D022B99B687B
:105880009B88013B99420ED0D0F860311B68042BF5
:105890000BD9D0F85C311868062894BF002001208D
:1058A00010BD002010BD104610BD002010BD30B549
:1058B000838D5C1C04F03F04856A8485DC002D190F
:1058C0006D680D60816A0C19A1781170826A32F8D6
:1058D000330030BDF0B59589B2F85470DDF818C0CA
:1058E000059E079CACF800701FB1D76C7760976C71
:1058F0003760D68916F4005F0CD0B2F850604EB114
:10590000C5F188062680166C546C751BD1F8786238
:10591000A91B05E0B1F878122180116C546C88390C
:10592000956B1D60D38923F4005380E81200D38166
:10593000F0BD000010B50346A8B18268D088B1FB65
:10594000F0F181B158699288DB681C886118914236
:1059500002DB00221A6000E0196003490322BDE85F
:105960001040FEF78DBA10BD78563412F8B51746C0
:105970009A681278432A04460E46069D1FD0462A8E
:1059800017D00E2A31D1D0F884329B6B987800283A
:105990003ED0D4F8F034586818B9012384F8A03800
:1059A000F8BD0023052084F8A0381A4B2B6004238F
:1059B00024E0FFF757FF00282AD0174B11E0D0F85A
:1059C00080321A6910681A8B511C88421DD020B988
:1059D0009968898801398A421AD09B6B9878B8B146
:1059E0000E4B2B600720052308E080681946012232
:1059F00004F02AFA002301202B60F8BD9E4206D352
:105A0000874234BF00200120F8BD0020F8BD0020EF
:105A1000F8BD00BF79431800E96D18000B6B180042
:105A200070B590F88D310446002B4AD190F81005DE
:105A3000002846D1D4F8803833E000221A769A68DC
:105A400019E09168CD682E684D8BAE4203D314BF28
:105A50000025012507E08E68B688C5EB060CDCF151
:105A6000000545EB0C052DB94D8C45F002054D8424
:105A700001211976126803F108018A42E1D158B96F
:105A8000DA8A2F2A0AD8197E41B1023292B2312A1B
:105A9000DA8203D1302200E00422DA821A7E1B6807
:105AA000104304F508629342C7D150B194F8101521
:105AB00039B9D4F80C050A4682F6BEFE012384F8F3
:105AC000103570BD37B500208C68ADF806004D6804
:105AD00024F07F4020F46000C5F31405401B072824
