:1000000080F13EBC80F1A4BF80F1B0BF80F1BCBFE5
:1000100080F1CBBF80F1DABF80F1E9BF80F1F8BF9A
:1000200000000000000000000000000000000000D0
:1000300000000000000000000000000000000000C0
:1000400000000000000000000000000000000000B0
:1000500000000000000000000000000000000000A0
:1008000080F13EBC80F1A4BF80F1B0BF80F1BCBFDD
:1008100080F1CBBF80F1DABF80F1E9BF80F1F8BF92
:1008200080F13EBC80F1A4BF80F1B0BF80F1BCBFBD
:1008300080F1CBBF80F1DABF80F1E9BF80F1F8BF72
:10084000FAFAFAFAFAFAFAFAFAFAFAFAFAFAFAFA08
:10085000FAFAFAFAFAFAFAFAFAFAFAFAFAFAFAFAF8
:10086000FAFAFAFAFAFAFAFAFAFAFAFAFAFAFAFAE8
:10087000FAFAFAFAFAFAFAFA44425050BC0B1D009E
:10088000DFF828804FF00009B8E8FF00A9E8FF0072
:10089000EFF300804FF01F0120EA01004FF0DF016D
:1008A00040EA010080F30089014800472008180051
:1008B00029111800000000000000000000000000E6
:1008C0000000000000000000000000000000000028
:1008D0000000000000000000000000000000000018
:1008E0000000000000000000000000000000000008
:1008F00000000000000000000000000000000000F8
:1009000055B71900D9C91900D91A1800D91A1800F1
:10091000C9101800D91A18009BDC1B001DDD1B0034
:10092000A1DA1B00E3DA1B0005DB1B0051DD1B0015
:1009300047DB1B00F1DD1B00A9DE1B0049DE1B00AD
:1009400039E21B0037E01B0037CA190091B81900C3
:10095000D91A18006B4B18003D4E1800F1491800C9
:10096000994B18007D4E18000D2B1E00FD4B1800F2
:10097000B3491800AD4E1800114E1800EF2A1E00A2
:10098000D91A1800D91A1800D91A1800ADCD1900B3
:10099000E3BC1900DBC81900D91A180013C21900EA
:1009A000F1BB1900EDBA19008BD0190035B9190047
:1009B000E1BA1900CFCA190051CE1900D91A18008E
:1009C000AFCA1900D91A18003BBB1900D91A180070
:1009D000CFC1190033B8190075C21900FDC1190043
:1009E0002DC91900D91A1800D91A1800D91A1800D7
:1009F000D91A1800D91A1800D91A1800D91A1800CB
:100A0000A1B61900D91A1800A1BB1B0097AB1B0097
:100A1000B5C71B002FB51B00BFAF1B00FBAB1B00F6
:100A2000E9BE1B0041BA1B0001B11B00A9B01B00AD
:100A300007B01B00FFAF1B00D1AF1B00C7C11B00DD
:100A4000D91A180089AF1B00B1AB1B00D91A1800C6
:100A50006BBE1B00C7AC1B007FE31B0045BE1B0029
:100A60002BAF1B00E7AB1B00F1AB1B004DB51B0010
:100A7000E5AB1B003BB61B006FBA1B005FCB1B0036
:100A80004BAF1B004DBE1B0003CB1B00E5CA1B0078
:100A9000F1CA1B0055AF1B000FB71B00E1B91B00CB
:100AA0004BB91B00DFB41B00DFAB1B00D91A1800C9
:100AB00005BA1B0093E31B00D91A180005B01B00F0
:100AC0001DBE1B008BAF1B0049B11B00D91A1800BB
:100AD0009DB41B0091B41B00E7B41B00D91A180089
:100AE000B5B41B0017B41B0077B11B00CDE31B008E
:100AF000C1E31B00B3E31B00A9B41B0051E41B00BE
:100B000057C01B00D91A1800D91A1800D91A180092
:100B1000D91A1800BF171C006F271C00D91A18001B
:100B20006B271C00D91A1800CD171C00A9191C002E
:100B30003D1B1C003B181C00D91A1800D91A1800BC
:100B4000D91A1800D91A1800D91A1800D91A180079
:100B5000D91A1800D91A1800D91A1800D91A180069
:100B6000D91A1800D91A1800D91A1800D91A180059
:100B7000D91A1800D91A1800F313180019141800FC
:100B8000D9141800D91A1800D91A1800D91A18003F
:100B9000D91A18009D201800A1201800292118003A
:100BA00001241800312418004D25180031271800A1
:100BB000F7291800452A18006D301800B9351800BB
:100BC000D5361800093718001D3718007937180076
:100BD000D93718005BF21D0009F41D008B3918008D
:100BE000D91A1800733A1800CB3A1800053B1800C0
:100BF0001D3B18003D3C1800A53F18000D40180093
:100C0000614018006F401800B34018005D411800A3
:100C1000A3411800ED411800294318007143180042
:100C2000B94118005943180079431800C743180008
:100C300061441800934418009B451800DD4E1800CD
:100C4000E54E1800EF4E1800F54E1800454F1800FD
:100C5000774F18008B4F18006154180091541800FA
:100C60002D56180085561800D556180061571800E3
:100C7000D91A1800D91A1800D91A18004F58180094
:100C8000AB581800B958180057591800B759180030
:100C9000015A1800055A1800AD5A1800BF5A18001A
:100CA000495B1800B55B18006960180015761800DC
:100CB0009D651800A3661800596E1800F17418009D
:100CC0000575180011751800337818000D7A180092
:100CD0009B7A1800D91A1800D91A1800797C1800C4
:100CE000B1801800DD8E1800418F1800B9921800ED
:100CF000CD96180037971800A1A6180061B018000B
:100D0000D91A180011BB180025C318004DC71800C8
:100D100075D2180051DE18009DDE1800A1E0180001
:100D2000FFE91800752D19007D311900ED3E1900FD
:100D300011471900C14719001B481900374819000D
:100D4000B1491900F1EF1800295E190095501900FA
:100D50001DD619001D0A1A00450A1A00310C1A0086
:100D6000D91A18002D131A00E9431A0079461A00FF
:100D700035491A008D491A00414E1A00E3581A00ED
:100D800007591A000D591A002D591A0081591A00D5
:100D9000CD591A001B5A1A00575A1A0075711A00B9
:100DA000417E1A00517E1A0021811A002D8A1A00F4
:100DB000499A1A005B001C0067001C0083001C009D
:100DC000EF001C0021011C0035021C0005041C0062
:100DD000FD031C0047041C001B061C001F061C0012
:100DE00055071C00D91A1800652F1C0001000000CF
:100DF000200000001F000000500000000100000063
:100E000001000000010000000100000000000000DF
:100E10000A0708006E19000077770000010400003F
:100E200004000400080000000000000000000000B2
:100E300000000000000000000000000000000000B2
:100E400000000000000000000000000000000000A2
:100E50000000000000000000000000000000000092
:100E60000000000000000000000000000000000082
:100E70000000000000000000000000000000000072
:100E80000000000000000000000000000000000062
:100E90000000000000000000000000000000000052
:100EA0000000000000000000000000000000000042
:100EB0000000000000000000000000000000000032
:100EC0000000000000000000000000000000000022
:100ED0000000000000000000000000000000000012
:100EE0000000000000000000000000000000000002
:100EF00000000000000000000000000000000000F2
:100F000000000000000000000000000000000000E1
:100F100000000000000000000000000000000000D1
:100F200000000000000000000000000000000000C1
:100F300000000000000000000000000000000000B1
:100F400000000000000000000000000000000000A1
:100F50002DE81FC0AFF31F8101B400B586B0FFB408
:100F600080EA000000F1010000F063B82DE81FC026
:100F7000AFF31F8101B400B586B0FFB480EA000072
:100F800000F1020000F055B8F54681B0EE462DE8BC
:100F90001FC0AFF31F8101B400B586B0FFB480EA73
:100FA000000000F1030000F044B8F54682B0EE46C0
:100FB0002DE81FC0AFF31F8101B400B586B0FFB4A8
:100FC00080EA000000F1040000F033B8F54681B07B
:100FD000EE462DE81FC0AFF31F8101B400B586B007
:100FE000FFB480EA000000F1050000F022B8F546E9
:100FF00081B0EE462DE81FC0AFF37F8701B400B586
:1010000086B0FFB480EA000000F1060000F011B8DD
:10101000F54681B0EE462DE81FC0AFF37F8701B4DF
:1010200000B586B0FFB480EA000000F1070000F0D0
:1010300000B86C4604F140040ACCEFF300820FB410
:10104000A4F10C04216003F040016F4607F158073A
:1010500066465D4654464B46424612B0FCB48CB0E0
:10106000062802D1402900D061B60A4C2468002C21
:10107000FED06846A04773B60CB07FBC8046894658
:1010800092469B46A446B6468FB0FFBC08B0BDE969
:1010900000C000000011180062B6704764B67047C7
:1010A00072B6704774B6704719EE1C1F044A41EAC5
:1010B000020109EE1C1F034909EE3C1F70470000A6
:1010C000010000000000008019EE1D0F704715EEB2
:1010D000100F704716EE100F704715EE300F704767
:1010E00016EE500F7047000000EE000600BF00BF74
:1010F00000BF00BF00BF7047DDBAADBB00000000FD
:1011000000000000010000000000000000000000DE
:10111000FFFFFFFFFFFFFFFF024A11681060084654
:10112000704700000011180000F092F83348016881
:10113000334A02EA0102334941580A68324B03EA52
:1011400002030F2B00F00580012B03D001F10401F5
:10115000F3E7FEE701F108012C4B03EA02032C4CF4
:10116000A342EAD100F01EF9804600F02BF9814637
:101170004946284BCB5800F0C3F87946B14240F1BC
:10118000028000F035F9404623490860484623496B
:10119000086000F0B5F822490D6022490E6022492E
:1011A0000F603D46A5F10405AD46009D6FEA0504BC
:1011B0004FF0100365FA03F5AC4200F0038081B0F4
:1011C00000F010B84FEA14444FEA8404174D2C6025
:1011D0006B46A3EB0403164D2B60A3F104039D465D
:1011E00000F000B8134814494FF0000204C08142D7
:1011F000FCD812488646124C2047FEE70000001833
:10120000F8FF0000FC0000000F00000000FF0F00CE
:10121000003E080008040000081118000C11180016
:101220000CAF1C0010AF1C0014AF1C001CAF1C0046
:1012300018AF1C00400B1D006C121D00FA111800A5
:1012400067381800000000000000000000000000E7
:1012500010EE900FC0F30721002900F02580264CE6
:1012600080EA00000ECC002900F00B8006EE120F81
:1012700006EE511F06EE112F06EE913F00F1010020
:10128000F0E7002800F010801C4A11EE101F41EA20
:101290000201BFF34F8FBFF36F8F01EE101FBFF33B
:1012A0004F8FBFF36F8F00BF704700BFAFF3008059
:1012B00037000000000000000F03000037000000AE
:1012C00000000010050300003900000000000020AD
:1012D000050300003B000000000000400503000083
:1012E0003D00000000000080050300000000000039
:1012F0000000000000000000B01218000100000013
:1013000041464A681346204C03EA04034FEA13138C
:101310001E4C02EA040216461A441D484FF000050E
:1013200008644B6C1B4C03EA040303F101031A4CE1
:101330001B4603FB04F31D4400F101009042EFDB68
:10134000002D3FF406AF154D414632464FF00006E2
:101350000F4808644B6C0F4C03EA040303F10103CC
:101360000D4C1B4603FB04F31E4400F101009042A8
:10137000EFDB19EE112F0A4902EA0102A2EB060285
:1013800005EB020716467047F00000000F00000052
:10139000000000003F0000000020000000000C00E2
:1013A00000F0FFFF0868054A01F1040102EA0002AB
:1013B000052AF7D1024A00EA020070470F00000038
:1013C00000F0FFFF0868074A01F1040102EA000289
:1013D000052AF7D1044A1042F4D0044A00EA020078
:1013E000704700000F0000008000000000F0FFFFC9
:1013F000FEE730B5002306E0C55CCC5CA54206D311
:1014000003F1010306D89342F6D1002030BD4FF01E
:10141000FF3030BD012030BD032A2DE9F04F834657
:101420004DD9484010F003004BD14B4203F0030369
:10143000D21A03E00C5C0BF8004001309842F9D15D
:101440001F2A0BEB000301440AD922F01F000818E1
:10145000B1E8F017A3E8F0178842F9D802F01F02AC
:1014600090080138062827D8DFE800F004090E1399
:10147000181D220008681860043104331CE0B1E82C
:101480001100A3E8110017E0B1E83100A3E8310032
:1014900012E0B1E87100A3E871000DE0B1E8F100DD
:1014A000A3E8F10008E0B1E8F110A3E8F11003E0CF
:1014B000B1E8F111A3E8F11102F0030202E00346E2
:1014C00000E05B46002002E00C5C1C5401309042BE
:1014D000FAD15846BDE8F08F00487047400B1D0018
:1014E00001229042024B1A6001D000221A6070471C
:1014F0007C0B1D0001222DE9F04F8A40B2F5805F80
:1015000028BF4FF4805285B0042A38BF0422C31C80
:10151000039223F003033D4A3D4ED2F800B03D4A0A
:10152000126802920022154694461046019228E065
:10153000D1F800A09A4523D301F10807039A07EBDD
:101540000A08C3EB0804C2F1000909EA0404BC421A
:1015500016D3C7EB0409B9F1070F01D8BC420FD16C
:10156000C3EB0A075F450BD2029A12B1B4F5001F14
:1015700006D387B12546BB46B4460846CDF804805D
:101580000E4671680029D3D1019A40B9224B1A68DE
:1015900001321A6037E042462546B4460846521BDF
:1015A000D11A102909D90468EA18641A08390460A4
:1015B000E9504168516042601A4603689B1A03D1A2
:1015C0004368CCF804300CE0072B05D8124B002000
:1015D0001A6801321A6016E0C250A3F108020260D4
:1015E000C0180E490023026843600B68D3180B60D3
:1015F0000B490A6808320A60D2180A4B19688A42F5
:1016000088BF1A60083005B0BDE8F08F400E1800A2
:10161000640E18007C0B1D003C0E18004C0E1800C8
:10162000340E1800300E180038B5084D084C2D1B2C
:101630000AD0002120462A4691F630F82046294655
:10164000BDE8384094F698BF38BD00BF6CD21D008D
:101650006C121D0010B500210446302291F61EF8D0
:101660000C4B23600C4B63600C4BA3600C4BE36092
:101670000C4B23610C4B63610C4BA3610C4BE3617E
:101680000C4B23620C4B63620C4BA3620C4BE3626A
:1016900010BD00BF0008180074341C005C471C001B
:1016A0000CAF1C000CAF1C00400B1D00400B1D00BC
:1016B0006C121D006CD21D000CD41E000CD41E0038
:1016C0007C871F0070B58CB06846FFF7C3FF204DC4
:1016D000297829BB0898099C241A06D0224690F63E
:1016E000DDFF0898214694F647FF01262146194858
:1016F000002490F6FDFF2E70174D184B1C702B68C0
:1017000023B31B7813B33046FFF7EAFE144B296866
:101710003246186891F664FD2046FFF7E1FE15E0B9
:10172000104E317891B90A980B9C241A06D02246A3
:1017300090F6B4FF0A98214694F61EFF0A48214607
:1017400090F6D6FF00232B70012333700CB070BDD0
:10175000900B1D00E8CE0800600E1800910B1D00D4
:10176000840B1D00B80B1D001ACF0800014B186830
:10177000704700BF0CAF1C00014B1868704700BFDA
:1017800010AF1C002DE9F04F9DB00EA8FFF762FFCF
:10179000FFF7ECFF774EDFF81C82DFF81CA2764FD4
:1017A0000446FFF7E9FF0E9B0F9A1399D21A129B7A
:1017B000119DC3EB01091599149BCB1A1099C1EB2C
:1017C000050B93443268D8F8001002F50052521A03
:1017D0004A44D2185A441419DAF8005024186748B9
:1017E0000D94674C2268AD183A680C93C5EB020C57
:1017F000CDF82CC090F67CFF0C9B09F57E7101930F
:10180000073103F57E7307330BF57E729B0A890A55
:10181000073202930823920A0091594603934B46DC
:10182000584890F665FF33682068DDF82CC03968A9
:101830005746019000F57E70039303F57E730CF517
:101840007E760730073301F57E720736800A9B0AE1
:101850000732B60A920A0290049363464A480096F9
:1018600090F646FF0D9905F57E72073201F57E73FD
:101870000733920A9B0A2946009344480D9B90F631
:1018800037FF434B4348196890F632FF424B4046BE
:101890001968424B0A689A4203D0414890F628FFE3
:1018A00023E01A910B4604E01668131D3B4DAE422F
:1018B00003D11A461BAB9A42F6D300681AABC1EBB0
:1018C000030CC61A851AC1EB020E8DE801103548CB
:1018D0001A92CDF808C0CDF80CE0CDF810E00596CE
:1018E00006960795089590F603FF2F4D2868002867
:1018F0003CD00378002B39D0B0F8068091F6F4FB89
:1019000008F1FF382B685D8908FB05F6403506F5C0
:101910007E730733002BB8BF06F5FE6308FB05F5A1
:10192000B8BF0E3341469B128DE8280005F57E7343
:101930000733002BBCBF05F5FE630E339B120293E9
:1019400033460246194890F6D3FE23683A68991B3D
:101950009B185B1B03F57E70073001F57E72800AD1
:1019600007320090920A124890F6C2FE1DB0BDE800
:10197000F08F00BF300E1800400E18004CCF08004A
:101980004C0E18005BCF080099CF0800DDCF08008F
:101990003C0E180017D008008C0B1D004B4154530F
:1019A00031D0080054D00800600E1800D1D00800D3
:1019B000FDD00800040C1D00340E1800002310B5E3
:1019C0000A4C237094F67AFD23786BB9084B1B6898
:1019D0001B682BB1586818B1BDE8104000F08AB9F7
:1019E000BDE8104000F0E6B910BD00BF380E180089
:1019F0006C0E1800F8B50C4615461E46074628B36F
:101A000083682BBB94F67CFD144B2046D3F800C0B2
:101A1000624601E0401A1A46136823B159688142B0
:101A2000F8D9091A59603B601760DCF80030BD60D6
:101A30009F42FE6078600DD160B1094B01251B7893
:101A40004BB100F057F9074B1D7004E0054602E06A
:101A5000002500E001252846F8BD00BF6C0E1800E7
:101A6000EC0D1800380E180070B5174B18689BF66F
:101A7000A1FF164B1C68054607E0E3681D4203D032
:101A800063680BB1A06898472468002CF5D1104D0D
:101A90002B6883B11B6873B15B6863B90D4E3470FA
:101AA00094F60CFD337833B92B681B681BB158686A
:101AB00008B100F01FF92B6823B11B6813B15B68F4
:101AC000002BD2D070BD00BF440E18005C0E180071
:101AD0006C0E1800380E180008B57146034890F6D1
:101AE00007FE0120BDE8084000F09AB946D1080081
:101AF00008B57146034890F6FBFD0120BDE808409B
:101B000000F08EB955D10800F8B5C71C0646BF08CD
:101B100007F11005AD00B5F5825F19D8C5B12846AB
:101B20000021FFF7E7FC044690B10021402290F627
:101B3000B5FD04F14003403D5D19A3600123BF00E2
:101B4000E560ED1BE37600232561A682E38204E0D5
:101B5000034B00241A6801321A602046F8BD00BF0A
:101B6000080C1D0038B50546808AFFF7CDFF0446F6
:101B700020B10069AA8A2969FFF74EFC204638BDCA
:101B80002DE9F04140220E4600210446C568C76990
:101B9000D0F8088090F682FD0123A6820336E37612
:101BA000064BE5603340ED1AE38A43F40073C4F852
:101BB00008802561E382E761BDE8F081FCFF010058
:101BC00038B50446E38A58061BD4E27E013AD2B205
:101BD000E276002A1DD199050AD5E5692046698972
:101BE000FFF7CEFF28462146BDE8384001F051BF3F
:101BF000DA050ED4074B20462361BDE8384094F641
:101C00000FBD256C2046034B23612C4694F608FD3E
:101C1000D8E738BDEFBEADDE10B503E00468FFF7CE
:101C2000CFFF20460028F9D110BD0000014B1868F5
:101C3000704700BF700E1800094B10B51A68094BA9
:101C400019461868D2F81436D2F81446A34218BFC1
:101C5000D2F814361C1A032CF4D90B6010BD00BF47
:101C6000500E1800240C1D002DE9F04104469BF68F
:101C7000EDFEDFF87C80064620469BF6FBFB40F637
:101C80003E010022054620469CF618F8416800F106
:101C90004003074601F47061C8F8083000F14803BA
:101CA000090A3046C8F804108900C8F80C3003F05F
:101CB00015F94346C8F81000B0B100220AE042F41A
:101CC000807101323964796C01F03F0101314903BF
:101CD00040F8041B59688A42F1D3204629469BF6F6
:101CE000FDFF0020BDE8F0814FF0FF30BDE8F0813E
:101CF0004C121D0038B5144C23689842134B08D978
:101D0000186094F6F9FD124B186020684FF0A0643B
:101D10000AE0104A1268146A00220E2CCCBF4FF061
:101D2000C8544FF010641A6018B10B4B1D6845433E
:101D300000E00225FFF780FF084B2C431B68C3F827
:101D40004446D3F8443638BDF40D1800780E180018
:101D5000740E1800440E1800F00D1800500E1800F4
:101D6000114B402210B51B68C3F80826D3F808268B
:101D7000D3F844369B0115D50C4C236873B194F607
:101D8000BBFD0B4B1B68C31A206898428CBFC3EB8A
:101D900000000020BDE81040FFF7ACBFBDE81040D8
:101DA000FFF70CBE10BD00BF500E1800780E1800D3
:101DB000740E180008B5FFF73FFF044B00221B68A4
:101DC000C3F84426D3F8443608BD00BF500E1800AF
:101DD00008B5FFF761F9BDE80840FFF75FB908B53E
:101DE000FFF75EF9BDE80840FFF75CB937B500249E
:101DF0000DE0556923010848EA1851680091D1683F
:101E00000191214692680134EB5890F671FC034A27
:101E100013689C42EDD33EBD00581C004C121D00BF
:101E200008B100231B60FEE72DE9FF47854B044600
:101E3000D8620368062B55D1834B0020834A0446A1
:101E40001E68536943E01F684FF47A75642132E0DD
:101E5000D868D3F808C001304CF4807CD860906812
:101E6000C0F800C0D068D0F800C02CF0604C4CF036
:101E7000204CC0F800C0284601E0D6F800C010F1A0
:101E8000FF30FAD2D3F808C090684CF4807CC0F8D8
:101E900000C0D068D0F800C02CF0604CC0F800C082
:101EA000084601E0D6F800C010F1FF30FAD26431E4
:101EB00005F57A750120D7F80080D3F804C0E04515
:101EC00003D0DFF8C8C16145C2D1013410331168B5
:101ED0008C42B8D308B1FFF789FF04B0BDE8F047E2
:101EE000FFF7C2BD5A4B5B4E456C1B68F1695A48FF
:101EF000C5EB030A90F6FCFBA36C00932246636CCF
:101F00004FEA9A0A0193A3680293E3680393534844
:101F1000E36C216890F6ECFB2368042B0AD1FFF7F1
:101F2000D6F80746FFF7D6F84D4B1B681B690246EB
:101F30004C480BE0032B0CD1FFF7CFF80746FFF717
:101F4000CFF8474B1B681B6902464748394690F655
:101F5000CFFBE36904F1100100930027236AB9461F
:101F60000193B846636A0293A36A03933F480EC97C
:101F700090F6BEFBA36B04F12C010093E36B01937D
:101F8000236C02933A480EC990F6B2FBEB680093BB
:101F9000384895E80E0090F6ABFB05F11001EB69AF
:101FA000009335480EC990F6A3FB18E07A59D00784
:101FB0000FD5FF2A0DD9314B9A4204D902F1624361
:101FC000B3F5801F05D82E48394690F691FB09F1EC
:101FD00001090437B9F10F0F08F1010801D8D04504
:101FE000E4D12848002790F683FBA946B84659F863
:101FF0000429D10710D5FF2A0ED9204B9A4205D9C2
:102000007B5903F16243B3F5801F05D81C4839465C
:1020100090F66EFB08F10108B8F10F0F03D80437F2
:10202000B7F5005FE3D1184890F662FB33680020F3
:1020300043F4806386E8180004B0BDE8F047FFF77A
:10204000EFBE00BFBC0B1D00500E18004C121D004F
:1020500014AF1C00940B1D001E581C002B581C00B4
:102060005C0C1D0060581C0089581C00B0581C00F6
:10207000E3581C0012591C0030591C0074341C0019
:102080004E591C005A591C0080591C0064E1F5058A
:10209000014B1860704700BF200C1D0000207047E6
:1020A00070B590F87C31FF2B0446124D04D1D5F861
:1020B000A430406A9847D8B96B6F606A9847D5F8E2
:1020C000A450606AA84701280BD894F81C1241B9A3
:1020D0000B462046084A94F6E9FB012384F81C329B
:1020E00070BD606A94F80961A847301884F80A0145
:1020F00070BD00BFFC701C002929180089B191F83F
:102100001032012B0DD091F8793153B14A69054B4A
:10211000106A03402BB14FF080730846136299F6A2
:10212000B1B9704700FC01012DE9F04F00F128061C
:102130000121BBB00446304691F64EF9012840F328
:102140005781D4F89831984200F25281204699F68E
:1021500099F90121304691F63FF90128814640F373
:102160004781D4F8A8210121002704A852183797E5
:102170004FF0010891F6DCF81FE0002104A82A4680
:1021800091F692F9B8F1010F04D12A69AB68D31A1C
:102190000B2B0FDD2B695B7919060DD41A070BD0B9
:1021A000B5F5001F38BF01272D6808F10108002D83
:1021B000FAD102E0474600E001273046002191F6BF
:1021C0001DF905460028D8D103E03046002191F6DC
:1021D0006BF904A8002191F611F902460028F4D108
:1021E000002F40F00581D4F8F0301B68984500F2CC
:1021F000FF80D4F8E431D4F8E81103EB4909A06872
:102200001FFA89F94944ADF8E09002F073FE824666
:10221000002800F0ED80D0F81080BDF8E0203946AD
:102220008282404690F63AFA2046FFF737FF60B1C7
:1022300094F801324BB1704BBDF8E0200F321340DF
:102240003AA9404621F8023D01E0404638A9022261
:10225000FFF7E2F8BDF8E0303AA9DB4308F10200ED
:1022600021F8083D0222FFF7D7F808F10C030021FE
:1022700000250193AB46ADF8E41066E0BB8AB94691
:1022800002E0918A91465B18D9F80020002AF8D123
:10229000ADF8E0303B69197903911A1D0292BBF148
:1022A000000F02D0CBF8007018E0039908F1040089
:1022B000524A3D460A433AA941F8102D082200939C
:1022C000FFF7AAF894F80A2184F80B2188F809206E
:1022D000BDF8E020009B0C32ADF8E0200299082206
:1022E00036A80093FFF798F8039ACB460298511C42
:1022F000369AC9B222F0FF020A4336A93692082262
:10230000FFF78AF8009B94F80A2184F80B215A728F
:10231000BDF8E010D4F8A021531E5B18B3FBF2F314
:1023200053439BB2BDF8E420591AADF8E2309B1834
:10233000A9F818100222ADF8E4300DF1E201019B7A
:102340009F1C1846FFF768F801973046002191F668
:1023500055F80746002891D139463046524691F645
:10236000A3F82F69AB8A0C33A7F10C0997F8048006
:102370002046C5F81090AB82FFF790FE60B194F84C
:1023800001324BB11C4BBDF8E4200F3213403AA987
:10239000484621F8023D01E0484639A90222FFF7EC
:1023A0003BF8BDF8E4303AA9DB43022221F8043DB2
:1023B000A7F10A00FFF730F848F0406343F4407398
:1023C0003AA9082241F8103DA7F10800FFF724F8C8
:1023D00094F80A31304684F80B31002107F8033CA9
:1023E0002A4691F661F894F80831013384F80831EF
:1023F0003BB0BDE8F08F00BFF0FF01000083000C90
:10240000D0F8841110B5044681B1D4F88821022394
:10241000C0689BF675FAD4F88411D4F88821022399
:10242000E0684A40BDE810409BF66ABA10BD000063
:102430002DE9F84300F1280702210446384690F6BA
:10244000CBFF4FF0000900282046D4BF4FF0000812
:102450004FF00108FFF724FE40E0A068294691F6FE
:10246000ABF8D4F8F0301B68984205D9384641469D
:102470002A4691F637F83DE000232E692946B371CC
:1024800094F87C31337294F80A3184F80B3173720A
:10249000D4F80432606A0133C4F8043272792A4BEA
:1024A00082F08002D2099B6A9847B8B9D4F8F83014
:1024B00083B1B8F1000F08D13278707842EA002079
:1024C0000F300009020A18BF00201B69987194F8A8
:1024D0007C211A724FF00109C4F8F850D4F8F0309A
:1024E0001B68012B06D93846414690F687FF054602
:1024F0000028B2D1002384F8FC30C4F8F830B9F1D8
:10250000000F05D00422636920465A6499F6B2F997
:102510000121384690F660FFD4F8CC31984204D9B6
:102520002069BDE8F84392F6A1BB0121384690F638
:1025300053FFD4F8D031984204D22069BDE8F84363
:1025400092F688BBBDE8F883FC701C002DE9F041D1
:102550000446C08D0E46D4F8A83198420CD3022A06
:102560000AD1A068012202F0EDFCD4F8AC310025BC
:102570000133C4F8AC31D0E004F128000AB90121DC
:1025800000E00021324604F1280790F68DFF022179
:10259000384690F621FF002802DD2046FFF748FF6D
:1025A0003846012190F618FF8046002800F0B480DC
:1025B000D4F8A451072D1ED0082D33D0012D03D0FF
:1025C0002046FFF735FFA7E0D4F89831984206D3AC
:1025D0002046FFF7A9FD2046FFF72AFF9DE094F86B
:1025E0007E21002A40F09980D4F89401D4F89C11FF
:1025F00093F6AEFF8DE094F87E312BB94B4B606AB9
:102600001B6D9847002836D0D4F89831984532D2BF
:10261000D4F8B031002B72D0D4F8B431B28A9A42D7
:102620006DD828E094F87E3123B9404B606A1B6D69
:10263000984748B1D4F89831984505D2B38A402BD1
:1026400002D9B6F5001F6BD2B6F5001F13D2B8F150
:10265000010F13D00021384690F6EAFE05462046C9
:10266000FFF762FD2046FFF7E3FE384600212A46C9
:1026700090F61AFF02E02046FFF756FD2046FFF7CE
:10268000D7FE94F87E3103B3D4F8940193F6BCFFDF
:10269000002384F87E3118E0D4F8B42193422ED878
:1026A000224B606A1B6D9847054690B92046FFF79C
:1026B0003BFD2046FFF7BCFE94F87E312BB1D4F8E9
:1026C000940193F6A1FF84F87E51002384F824320C
:1026D00022E094F82432FBB994F87E311BB1D4F88F
:1026E000940193F691FF00210125D4F894010A4644
:1026F00093F62EFF84F87E5184F824520DE094F86E
:102700007E214AB9D4F894010125D4F89C1193F69E
:102710001FFF84F87E5100E001252846BDE8F081C6
:10272000D4F8B021002AB7D1E9E700BFFC701C0043
:102730002DE9F04F90F8789187B0002605460C46B9
:102740000192D0F8088004960396B9F1000F01D0E9
:10275000404616E00B69D0F8D8718A681F4007F12F
:102760000C0A9B1A534525D2B1F814B0D0F8E411E5
:1027700040465944C91902F0BDFB064628B94046F7
:102780002146012202F0DEFB7EE0D5F8E431B28A78
:102790000069FB18C018D31A30615A462169B38208
:1027A000FEF73AFE23682146336040464A4602F06F
:1027B000C9FB34464FB12069A38AFB18C01BA38212
:1027C000002120613A468FF669FFD5F8E431A28AEC
:1027D000266940462146F61A9B182661A38290F688
:1027E00015FFADF814002846FFF758FCF8B195F82E
:1027F0000132E3B14046214690F64AFC244BBDF835
:1028000014200F32134006A9022221F8023DB0F82D
:10281000148007463046FEF7FFFDBDF81630984499
:10282000BDF81430C3EB0808A7F8148004E0304664
:1028300005A90222FEF7F0FDBDF8143006A9DB431E
:10284000022221F8043DB01CFEF7E6FD019A06A91C
:10285000301D130295F8082103F47063134343EA13
:102860000A63082241F80C3DFEF7D6FD28462146B2
:10287000019AFFF76BFE30B195F80831013301265C
:1028800085F8083100E00646304607B0BDE8F08F15
:10289000F0FF010038B590F87E3104464BB1D0F816
:1028A000940193F6B1FE0021D4F894010A4693F600
:1028B0004FFEE38D002B36D1D4F8180228B10378EF
:1028C0001BB101F0D6F8054648B9D4F8E811D4F8A0
:1028D000E431A068C91802F00DFB0546C0B1B4F898
:1028E000E4312046AB82FFF7DBFBD4F8E4312A6900
:1028F00020462946D2182A61AA8AD31A0122AB821D
:10290000FFF716FF50B9D4F80C320133C4F80C327B
:10291000D4F8F8310133C4F8F83138BDD4F80832AE
:102920000133C4F8083238BD10B50023046884F8B8
:102930001C322046FFF7B4FBD4F8F4315BB994F8AD
:102940000B3194F80A219A420AD094F809219B1A73
:10295000DBB2022B04D82046BDE81040FFF79ABF37
:1029600010BD000070B50C46002933D0486A00281D
:1029700030D091F87931002B2CD091F81032012B06
:1029800028D0D1F8FC31002B24D0134ED6F8A45017
:10299000A847D4F8F03198421CD2736F606A984708
:1029A000606A94F80961A847D4F8F4313618F6B291
:1029B00084F80A614BB994F80B319E420AD094F81E
:1029C00009219B1ADBB2022B04D82046BDE87040D7
:1029D000FFF760BF70BD00BFFC701C0010B5002386
:1029E000046884F87E312046FFF79EFB2046BDE850
:1029F0001040FFF71DBDD0F8003190F87B210B434C
:102A0000C0F80031EAB15A0705D590F87C2143EAB5
:102A10000263C0F80031D0F8003113F00A0F1CBF78
:102A200043F48023C0F800314369D0F80021DA6410
:102A30000022C0F8002180F87B2108225A6498F611
:102A400019BF704773B58D8A0446083D08694378FD
:102A5000D4F82062C27803F00F030830ADB20EB98B
:102A60000C3A00E0143AD2B28018AA1A08618A829D
:102A70002BB9206902B0BDE8704092F669B8022B0C
:102A800005D1206902B0BDE8704000F075BE012B91
:102A900005D1019194F692F9A068019900E0A0682F
:102AA000002202B0BDE8704002F04CBA11F47C4F35
:102AB0002DE9F04104460D4666D011F480670DD033
:102AC000664F406A7B6E98477B6B061C606A18BF36
:102AD00001269847071C18BF012700E03E462A053B
:102AE0000FD5DFF87881606AD8F864309847D8F855
:102AF0003430002818BF0126606A9847002818BFA4
:102B00000127EB040FD5DFF85481606AD8F86430F0
:102B10009847D8F83430002818BF0126606A9847D3
:102B2000002818BF0127A80404D5D4F83C3101338C
:102B3000C4F83C31690409D5D4F840310126013389
:102B4000C4F84031D4F84031D4F83C312A040FD5D0
:102B5000D4F84431D4F8F4100133C4F8443131B11D
:102B6000A068012202F0EEF90023C4F8F430012736
:102B70000EB90FB908E027B12046002198F6B0FC45
:102B800016B1204698F6E4FBEB0102D5204698F6F4
:102B900079FC15F4903517D157E02046414698F658
:102BA00047FD012806D11FB1C7F80480474601E060
:102BB00047464646D4F8DC3101359D4207D3236AA7
:102BC00043F48033236209E000273E463D46234B11
:102BD000606A1B6F984780460028DED1D4F8140243
:102BE00020B1037813B1002100F06FFF2046FFF7FA
:102BF00057FA94F80B3194F80A219A4223D094F8AA
:102C000009219B1ADBB2022B1DD82046FFF742FE9A
:102C100019E077680023736037B933695B7803F094
:102C20000F03022B0AD105E03B695B7803F00F0329
:102C3000022B03D0336A43F001033362314620464E
:102C4000FFF700FF3E46002EE3D1D4F8DC018542B9
:102C500034BF00200120BDE8F08100BFFC701C00E3
:102C600000697047CB8A1B0510B50ED4D0F8EC2153
:102C70000B69DC7802EB84029B189A8946F688433C
:102C80009A4214BF0222012200E00122BDE8104056
:102C9000FFF74EBD531C0AD0022A4FF0010300D0AB
:102CA0000AB982F0020213FA02F2D2B200E0FF2265
:102CB000012990F87C310CBF1A4323EA020280F804
:102CC0007C21FFF7E7BD00002DE9F7439DF8286060
:102CD0001F4604460D46002302E0E95C11B10133B2
:102CE0009342FAD1E95C002940F078814EB1591C39
:102CF0000533934200F2758101A869180422FEF79A
:102D00008BFB05F1040840469D498FF661FD50B9E3
:102D1000002E00F07681D4F8BC31019A013B9A4232
:102D200040F20B8160E1404696498FF651FD002844
:102D300000F0EB80404694498FF64AFD002800F0F1
:102D4000E680404691498FF643FDA8B92046FFF73B
:102D5000A5F928B1002E00F05681019B1BB146E178
:102D6000002E00F05081019B082B00F23D81884A23
:102D70009A4000F1408137E1404686498FF628FDB0
:102D8000002800F0C680404683498FF621FD0028C8
:102D900000F0C180404681498FF61AFD002800F0FE
:102DA000BC8040467E498FF613FD002800F0B780B6
:102DB00040467C498FF60CFD002800F0B28040466A
:102DC00079498FF605FD50B9002E00F01E81D4F828
:102DD000C431019A9A4200F207811620ADE04046C4
:102DE00072498FF6F5FC002800F09D80404670493E
:102DF0008FF6EEFC002800F0988040466D498FF673
:102E0000E7FC002800F0938040466B498FF6E0FC19
:102E10008146C0B96EB1694B606A0199D3F8C4307C
:102E20009847002800F0E380019B4846C4F8203210
:102E3000DFE0284604F508710422FEF7EDFA0423CA
:102E400030463B60D5E040465D498FF6C1FC90B905
:102E5000002E00F0DC80019B002B40F0CE80D4F8E7
:102E600028325A68C4F8A4219A68C4F89821DB680B
:102E7000C4F89C31C1E0404652498FF6A9FCA8B97C
:102E80002046FFF70BF928B1002E00F0C280019B0D
:102E90001BB1ACE0002E00F0BC80019B092B00F2BE
:102EA000A380494A9A4000F1AA809DE040464749E4
:102EB0008FF68EFC58B9002E00F0AD80D4F8BC31EE
:102EC000019A013B9A4200F28F801C203AE0404672
:102ED0003F498FF67DFC00282BD040463D498FF6B8
:102EE00077FC50B9002E00F09880D4F8BC31019ADC
:102EF000013B9A4278D81E2024E0404636498FF69E
:102F000067FC002873D11F2014E0012012E002208A
:102F100010E004200EE005200CE006200AE0072067
:102F200008E0082006E0172004E0182002E019203D
:102F300000E01D206EB1192804DC6630019B44F8C6
:102F400020301AE01A38D4F82832019A43F82020A9
:102F500013E0192805DC00F16601284604EB810125
:102F600006E0A0F11A01D4F82832284603EB8101CB
:102F70000422FEF751FA04233B60002039E000BF31
:102F800084E1080091E108009DE10800A9E1080042
:102F9000000080C1B0E10800B9E10800C0E108000C
:102FA000CBE10800D7E10800DEE10800E9E1080014
:102FB000F1E10800FAE10800FFE10800FC701C00E4
:102FC000AF591C00C3591C000000C0C1D4591C00DB
:102FD000E6591C00F7591C00085A1C006FF001004C
:102FE00007E06FF00D0004E06FF01C0001E06FF0EF
:102FF0001600BDE8FE8303209FE71A20A2E71B20EE
:10300000A0E73046A7E70320A5E71620A3E71A208C
:10301000A7E71B20A5E71C20A3E71E20A1E700BF10
:1030200030B585B0002501290A9C806903950ED82A
:10303000E1B20091114680681A4603ABFFF744FEE7
:103040003CB9039BAB4202DB089A136001E04FF0EE
:10305000FF3005B030BD8369986900F055BB8969C0
:1030600003468869194600F059BB00002DE9F04F6E
:1030700085B0044603929B460F9A02911099174619
:10308000DDF838A0002B18BF0027019271B10D693F
:103090008A68436CAA1A14339A4201D280683EE0CF
:1030A0008B8A103D10330D618B824FE0036C426BB5
:1030B00003F110017818904226BFA2F11008C3EB6B
:1030C0000808B846A068414401F014FF06460028ED
:1030D00050D0636C0569ED1808F110030561838217
:1030E000BAF1000F0BD0B8F1000F08D0514605F12E
:1030F00010004246FEF790F9C244C8EB070700965D
:10310000A946B0461BE0666BA068B74238BF3E4692
:10311000314601F0EFFE054638B9A068414601226C
:1031200005B0BDE8F04F01F00DBF514600693246D1
:10313000B244FEF771F9BF1B009B1D600095BAF108
:10314000000F01D0002FDED14D464146029A2A6081
:10315000039A019B6B60130C1B04BBF1000F01D0A1
:1031600043F00103AB60054BC5F80CB060681B6809
:103170001B69984705B0BDE8F08F00BF880E1800A6
:103180002DE9F0410E46502104461546984601F0BF
:10319000A5FE0746A0B1002150228FF67FFA4FF41A
:1031A000E863C7F80C807B634FF47A733E60FB637F
:1031B0001C237D603B640C23BC607B640423BB64E4
:1031C0003846BDE8F08100002DE9F04FB1F814B0A9
:1031D000D1F8109091B00024BBF10F0FD9F808304E
:1031E0000646D9F800A00D4608930D940E940F944E
:1031F000D0F84080476C40F2C581D9F804300D9377
:103200001A0C09D09BB293450D9304D20D946FF024
:103210000D070794B9E113460D9AB2F5005F02D984
:1032200000240D94AEE1ABF1100BEA685B4538BFAA
:103230009B46AB68391DC9EB0202C3EB090392B28E
:103240008B42AA8205D95B1AC3EB0901D318296105
:10325000AB822B69296810332B61AB8A103B9BB280
:103260000493AB8229B1B068002201F06BFE002309
:103270002B600D9BC7EB0808049908EB03028A42F8
:10328000CDF828800CD8D5F810801437AA68C2EB86
:103290000802BA4204D30122AB820024079217E04D
:1032A000316CB0685918143101F024FE044660B145
:1032B000736C002103F11408036907919844BDF869
:1032C00034308382C0F8108002E0012280460792E9
:1032D0000023CDF82CA0474609930693059362E09E
:1032E0000D9B9B4528BF5B460693002B51D0B068D1
:1032F000194601F0F3FD059028B306992C46049B6E
:10330000C3EB01080DE0736BB068984534BFC2464B
:103310009A46514601F0EEFD206040B1CAEB080824
:103320000446B8F1000FEEDC059F00243BE029685D
:10333000012228600446B06801F004FEB0680599D7
:10334000069A01F0CFFD944B1B78E3B10D9B0A99CF
:10335000CA185A450DD9C1F5806204995218934292
:1033600007D9A3F5806301220D93002309920593E9
:10337000B6E704990A9A2F698B1A00210D9301234D
:10338000059109930FE0DDF82CA06FF01A070D935B
:10339000FCE0069AB846089B4FF0FF37DDF82CA0FA
:1033A0000D920493BCE0002F9AD0DDF82CA0B84613
:1033B000BBF1000F05D0384609F110015A46FEF75F
:1033C0002BF8764B9A4521D1BBF1070F40F2A48030
:1033D0000599ABF1080BD8F804A008F1080889B9E1
:1033E00014B12346224601E02B462A4612690832D0
:1033F0001A6114B12346224601E02B462A46928ADE
:10340000083A9A82089B43F0020300E0089BDFF829
:103410009C910493D144B9F5A17F28BFD146B9F559
:10342000837F3AD006D8B9F1020F46D0B9F1FD0F2B
:1034300049D10EE040F2071399451ED040F20B131C
:10344000994540D130680021554AF36B93F62EFA26
:1034500036E098F802301B0498F8012043EA022372
:1034600098F80020134398F80310306843EA01618C
:1034700091F674FBCA46002752E0404649490422AF
:103480008FF6DCF90346F0B9474A012170681268EB
:103490000091414697695A460DE040464149042251
:1034A0008FF6CCF978B9404B41460D9A1B680090D5
:1034B00070689F690DABB84702E0306891F654FB25
:1034C0000746CA462CE0089B03F47041049B090B95
:1034D00013F0020208D00FABCDF800B001930EAB91
:1034E00002930123039307E010AB53F80C0D8DE812
:1034F00009000EAB0392029330685246434691F6A0
:1035000005FB10F10E0F07460AD1099941B10023BE
:103510006FF01A070D9303E06FF01707089B0493F1
:10352000059941B1B068294600220D9BCDF8008075
:103530008FF682FD08E0002C14BF23462B46BDF811
:1035400034209A82002305930FB10E9B0D930799A7
:1035500029B92946B0682546079A01F0F3FC0D9B6E
:10356000304601935146049A3B46CDF800800295BF
:10357000FFF77CFD059ADAB11146B068069A01F0B2
:10358000B1FC15E06FF0170707940694089B4FF005
:1035900000080493CFE700BF000E18003EDAFEFFDC
:1035A000414B0100BBE20800880E1800E0EB1B0055
:1035B00011B0BDE8F08F00BF2DE9F0410C460B695A
:1035C0000746816CA26886689A1A8A4230D2B4F89B
:1035D00014803046414401F08DFC054630B9214647
:1035E0003046012201F0AEFC2C4636E0C38A23F0BF
:1035F0000703E28A02F007021B041B0C1343C38279
:10360000E28AD1064CBF43F0100323F01003216976
:103610004246C382A37E8376BB6C0069C018FDF767
:10362000FBFE21463046012201F08CFC2C4604E0D2
:103630005B1A2361A38AC918A182202223691A7008
:10364000E28AD20601D524221A70E28A02F0070229
:103650005A7000229A70A27EDA702046BDE8F0818E
:10366000034670B58C8A9A6C806894422DD30A699F
:1036700015782D096E1E012E27D8C88A20F0070064
:10368000567806F007060004000C3043C88216780E
:1036900016F0080F1CBF40F00800C882107810F028
:1036A000030005D00E6A26F4403646EA0040086260
:1036B000012D01D1002000E0D078887600209B6C9D
:1036C000D218E31A0A618B8270BD002201F03AFC25
:1036D000012070BD0029C36B09DD826C002A06DD64
:1036E00001399142BABF036C53F8213000231846C8
:1036F0007047000008B520B1024B00681B68DB6909
:10370000984708BD880E180008B5034B00681B6871
:103710005B69984708BD00BF880E180070B5044665
:103720000E464068114601F030FC0146E068FFF7A4
:1037300043FF0546D8B1204631462A4691F634FA71
:10374000002814DB0B4B294620681B68DB68984770
:1037500050B160682946E6698FF658FF6369013306
:1037600063618019E06102E0E36A0133E3620020F3
:1037700070BD00BF880E180070B50446C0680E46C4
:103780000B699D78FFF76CFF002823D105F00F012E
:103790002046FFF79FFF054648B9236A3146606817
:1037A0002A4601332362BDE8704001F0CBBB60685C
:1037B000314601F0F8FB024628B12B692946A06B7F
:1037C000DB68984718B1A36A0133A36270BD23690F
:1037D0000133236170BD000073B50B460446002918
:1037E00034D0002A32D0816B79B9C56B002D2DD130
:1037F000C263214683635A6253620095226840681F
:10380000FFF7BEFCE060A8B920E099421ED1C36B6F
:1038100093421BD0866C002009E0236C03EB8005EB
:1038200053F82030013013B92A60516210E0B042E1
:10383000F3DB0BE007482246074993F6A7FA07484F
:103840000749224693F6A2FA284601E04FF0FF30DE
:103850007CBD00BF185A1C00F53618008D3B0900CE
:103860008D4B0100704710B55AF0D2FFFDF71CFCDC
:103870005AF0A4F95BF080F804465AF013FB5AF0B2
:1038800037F9FDF71FFF2046BDE8104092F612BF42
:103890007047D0F85432D3F80001000A00F01F003E
:1038A0007047F7B50C461746D0F854521F2602E071
:1038B0000A2093F6C5F8D5F8043801930BB1013E00
:1038C000F6D144F003031F431F26C5F80874D5F84A
:1038D00008340193019B02E00A2093F6B1F8D5F871
:1038E000043801930BB1013EF6D101230A20C5F83B
:1038F00000380A2693F6A4F817E00A2093F6A0F8F9
:1039000000E01F27D5F8043801930BB1013FF4D133
:1039100000231F27C5F8003802E00A2093F690F82C
:10392000D5F804380BB1013FF7D1D5F800380BB109
:10393000013EE6D144F001040120C5F80844D5F861
:1039400008340193019B03B0BDE8F04093F678B8CA
:1039500000487047840C1D0081884288914210B550
:1039600003464FF000010ED002F11204013292B270
:1039700050F8240043F82410D988B2FBF1F401FB7D
:1039800014225A8010BD084610BD8288531C30B5E1
:10399000C48893FBF4F504FB153344889BB29C4226
:1039A00003D01232838040F8221030BD012370B55D
:1039B000044643730546002604E0AB6A2046E96AE4
:1039C000013698470835237C9E42F6DB0020607361
:1039D00070BD10B5002923D00B786E2B20D14B7809
:1039E0000F2B1DD906E00A78824201D1487810BD1C
:1039F000023BDBB20231102BF5D80023CC5CFF2C4C
:103A000001EB0302527801D1FF2A06D0A04204D371
:103A1000904202D85810C0B210BD0233102BEDD125
:103A2000C00810BD70B5456904461DB12B686968B2
:103A300098471CE0C67B013E12E020468FF654FBFF
:103A400068B1A37B13B93346013E00E02B46033334
:103A5000204604EBC30254F83330516898470135CF
:103A6000E37B9D42E9DBA37B83F00103A37300208A
:103A700070BD10B50446FFF76FFF48B9237C13B142
:103A80002046FFF793FF2046BDE81040FFF764BFD4
:103A900010BD10B50446FFF778FF637C43B9E37BA4
:103AA00033B1637B23B92046BDE81040FFF7BABFAE
:103AB00010BD0346C088802928BF8021013881427B
:103AC000A8BF084680B2188170474174704710B58E
:103AD0000346A2B1506898B10C2404FB01310831AF
:103AE0004C6884420C8908BF4A60013C0C81D9882B
:103AF0000139D980436853600023436010BD1046EC
:103B000010BD0000062208B50349FDF772FCD0F194
:103B1000010038BF002008BDC0400800062208B5DB
:103B20000349FDF766FCD0F1010038BF002008BD55
:103B3000CC40080070B503699A89812A2ED1DA89B0
:103B4000160A46EA02261A8AB6B2750B082A13D15B
:103B50009C7C2209042A01D1DA7C08E0062A05D1DE
:103B6000DA7C120942EA0412D2B200E000225209C1
:103B700002D04FF4807402E02A464FF4007421B35F
:103B8000AA4222D0F10444F48064C90C41EA4231D3
:103B900089B20D0A45EA0121D98116E0082A12D11D
:103BA000997B0A09042A01D1DA7B08E0062A05D1AB
:103BB000DA7B120942EA0112D2B200E00022520975
:103BC0004FF4006401E000242246C38A02F007019A
:103BD00023F007030B43C38244EA020070BD10B513
:103BE00003699A89812A044604D11A8A082A21D1B4
:103BF000123302E0082A1DD10E33E3B1187802090E
:103C0000042A01D1587806E0062A06D100015B7823
:103C1000C0B240EA1310800800E00020FFF7D9FE90
:103C2000E38A23F0070300F007021343E3824FF413
:103C3000006301E000231846184310BD00F12F0275
:103C40002F2A08B5034606D905482021054A8EF6D5
:103C500093FD034808BD4342034A52F8230008BDC0
:103C6000D10C1D001BEF08007C5A1C002DE9F74FFA
:103C70004FEA12494FEA134A92B29BB202FB03FC8D
:103C800009FB03F302FB0AF21E042CF0004401932B
:103C900026F000450C9B2D19170425F0004827F04D
:103CA000004444444FEAD37808EBDC7C0CEBD77C2F
:103CB0000CEBD67C24F0004B0CEBD57C23F00045BC
:103CC000AB440CEBD47404EBDB74019D14F00106DF
:103CD00018BF4FF00046120C02EB15432BF0004BBF
:103CE00009FB0A3946EA0B0609EB540404600E602E
:103CF000BDE8FE8FF0B5012B85B006461C4602914B
:103D000003921BD9002511E04FF0FF32B2FBF4F211
:103D1000039902A803FB025562435242B2FBF4F737
:103D2000009103A904FB1722FFF7A0FF029B002BC1
:103D3000EAD1039BB3FBF4F42D19356005B0F0BD57
:103D400010B50BB9026010BD1F2B0BD80124DA404F
:103D50009C40013C2140C3F12004A14041EA020300
:103D6000036010BD203BD940016010BD38B50C4642
:103D7000114615468FF6AEFC201A830708D114238E
:103D80008008B5FBF3F5A84228BF4FF0FF3038BDDF
:103D90004FF0FF3038BD00002DE9F0470E288CBFF2
:103DA0004FF4404A4FF0000A4AEA010AB1F5C05FF9
:103DB00080461FFA8AFA0ED0B1F5005F0FD0B1F538
:103DC000205F10D0B1F5805F2AD14AEA00081FFABF
:103DD00088F0BDE8F0870C27134D282606E006275B
:103DE000124D502602E0124D0227A0260024A946BB
:103DF00099F8000041463246FFF7B8FF0135002828
:103E000008DB99F800804AEA080A4AEA002080B2F2
:103E1000BDE8F0870134BC42E9DB0020BDE8F08753
:103E20000020BDE8F08700BF3C5B1C00D2400800CA
:103E3000485B1C0041F2CE23994203D1431E0D2B57
:103E400003D909E0C82802D906E00E2807D000EB04
:103E5000800000EB510070474FF0FF30704740F694
:103E6000B41070471FB50390029109E0032210239C
:103E700003A98DE80C0002AA074B8FF677FD38B92D
:103E80000398DD2202998EF673FF04460028EDD1D7
:103E9000204604B010BD00BF22F208001FB50390F9
:103EA000029109E00321122302AA8DE80A0003A966
:103EB000074B8FF65BFD38B90398DD2202998EF629
:103EC00057FF04460028EDD1204604B010BD00BFC6
:103ED00022F2080070B50C4616462D49032205460D
:103EE000FDF787FA60B9EB78062B4DD8DFE803F0D1
:103EF0004104060406040600402342E0802340E01B
:103F0000284624490322FDF774FA20B9EB78012BE7
:103F10003DD1402231E028461F490322FDF769FACE
:103F200038B9EB78002B32D10EB9102329E00823E1
:103F300027E0284619490322FDF75BFA60B9EB78C0
:103F4000012B03D015D3022B21D102E04FF4806264
:103F500013E04FF4006314E0284611490322FDF7F3
:103F600048FA98B9EB78012B06D002D3022B0ED178
:103F700006E00120206070BD02222260184670BD5C
:103F800004232360012070BD002070BD002070BD9F
:103F900068471C0022F208005C471C006C471C00AC
:103FA00064471C00F8B5079CD0F8AC60DDF818C079
:103FB0006404640C16B112F0404F04D11F01CD19F6
:103FC0009219AA6008E0950F1F0122F0404244EACE
:103FD00005449619CD19AE60D0F8B020EA60DCF83F
:103FE0000020CA516C608268D2070ED51B01CD1823
:103FF000A868EE68CA5870406B685040584092F606
:10400000DFF910B144F480246C60F8BD826B8168E4
:1040100010B5146811F0010F04F4403444F00103AA
:1040200008BF44F4006390F8BB4008BF43F00103AD
:10403000890790F8B51048BF43F4806343EA814391
:1040400090F8BA1023F4600343EA4151D0F8A0304D
:1040500021F040715B0043EA04630B43136010BD21
:10406000B0F8A0300B80B0F894001080704710B505
:10407000B0F846100346D1B1426B1469D0F8C420A1
:10408000806E1440241A1440B3F848202409A4B2C6
:10409000A3F8D24007E0D86C50F8220040B90132B2
:1040A000481E024092B2A242F5D1002010BD08463F
:1040B00010BD2DE9F043B0F8464024B90C604FF034
:1040C000FF30BDE8F0830025012BD1F800C00D6062
:1040D000B0F8485002D1B0F84A301EE0D0F8348031
:1040E000D0F8C460876ED8F81030D8F81490D0F8A3
:1040F000C8803340DB1B09EA0808C7EB08073340D8
:104100003E401B0936099BB2B6B2B342A0F8D2308A
:1041100003D0731E013C23409BB20DB1002413E079
:10412000B0F84A409C42F9D214E0C66C56F82560BB
:1041300026B164450ADA42F8246001340135B0F84A
:104140004660013E3540ADB29D42EED10C6000208C
:10415000BDE8F0834FF0FF30BDE8F08310B5B0F854
:104160006C100346D9B1826B1469D0F8CC20D0F81A
:1041700090001440241A1440B3F86E202409A4B20D
:10418000A3F8D04007E0586F50F8220040B9013240
:10419000481E024092B2A242F5D1002010BD08464E
:1041A00010BDB0F86C20B0F87010B0F86E30013A65
:1041B000CB1A02EA0300704710B5A0B1836823EA66
:1041C00001010A43D3070CD5436B196841F400641D
:1041D0001C60436B1C6814F4006F0CBF22F00102DA
:1041E0001960826000E00246104610BD0346B0F838
:1041F0004600F0B5002859D00129B3F8482002D173
:10420000B3F84A4022E0B3F8D240A2425D6B0AD133
:104210002C69D3F8C4609F6E3440E41B34402409F9
:10422000A4B2A3F8D240032910D16969D3F8C850C9
:1042300029409D6E491BD3F8C45089B22940090911
:104240008C4203D04C1E01380440A4B20AB10020B5
:104250001AE0B3F84A10A142F9D226E0D96B150151
:1042600049198868486812488860D96B4D19D96C1B
:10427000E860002551F8220041F822500132B3F8DD
:10428000461001390A4092B2A24201D00028E5D07E
:10429000B3F84610B3F84A40A3F84820A21A4C1EBF
:1042A0002240891A01395960F0BD1046F0BD00BFA7
:1042B000EFBEADDEB0F86E200346B0F8700090425D
:1042C00030B52AD0B3F8D040A2420CD1986BD3F8C5
:1042D00090500469D3F8CC000440641B04402409C6
:1042E000A4B2A3F8D04009B9A24218D0596F002453
:1042F00051F8220041F8224014011D6C01322D19A1
:10430000A9680849A9601D6C2C19E160B3F86C100C
:1043100001390A40A3F86E2030BD002030BD0846A8
:1043200030BD00BFEFBEADDEB0F86C300BB1FFF7B3
:10433000C1BF184670470B6843F440330B600868F0
:104340000B6800F4403023F440330B60A0F540319B
:10435000484240EB0100704708B5416B09B9816BD9
:1043600021B1806AFFF7E7FF012008BD084608BDBC
:10437000C0F8BC100020704738B50546D0F8BC0026
:1043800058B103784BB18EF627FF044658B9D5F8DB
:10439000BC000121FFF799FB05E0012403E0A86AB6
:1043A000002200F0CFFD01212846FFF7BDFF0146A6
:1043B0000028F4D134B9D5F8BC002146BDE8384016
:1043C000FFF783BB38BD2DE9F041856B04462046DD
:1043D0000021FFF7A9FF064600283ED02B6802699E
:1043E00013F4804F08D0D4F8A0305B08023332F8C1
:1043F00013300433138000E01388D4F8A070B4F8AD
:104400009420D919BF1AFF18914228BF1146002FD6
:10441000B1820DDC21E0B4F894309F42B4BF3A463B
:104420001A46FF1A002FC8F80000828202DC08E05A
:10443000B04600E0804620460021FFF775FF0028C7
:10444000E9D1A26812F0040207D1A06A314600F057
:1044500079FDE3680133E360B9E73046BDE8F081F8
:1044600038B5B0F84820B0F84A309A4204460D46B4
:1044700007D138BDA368180703D4A06A012200F051
:1044800061FD29462046FFF7B1FE01460028F1D123
:1044900038BD2DE9FF47B0F84A5000230446039386
:1044A0000E4690460B463AE0B4F8461005F1010A74
:1044B0000139B4F848900AEA010A988ACA45B3F863
:1044C00018C01A691F6857D01CEB000026D0B342F1
:1044D0004FF0000E08BF4FF00043CDF80CE008BFCE
:1044E00003931FB9039B43F0C04303938D4203D151
:1044F000039B43F08053039303AB0190204600934A
:104500002B46E16B0135FFF74DFDB4F84630013B1A
:104510001D40B4F84830ADB2AB422DD03B46002B25
:10452000C2D1039B5A0009D4691EB4F84620013A4F
:104530000A4043F0C0431201E16B8B50B4F84620AF
:10454000681E531E1840E16C41F82060681C18403A
:10455000B4F848108842A4F84A501AD0B8F1000FB5
:1045600004D0A66E606B06EB051646606D1A2B40F4
:10457000D21A013A62600CE0A06A3146012200F0D2
:10458000E1FC00234FF0FF30636063690133636136
:1045900000E0002004B0BDE8F0872DE9F043B0F85A
:1045A0006E20B0F87050B0F86C90AA1A876809F1C4
:1045B000FF3909EA0209D0F89C20002307F0100710
:1045C0009F420CBF01271027C9EB0209B0F89420C5
:1045D000CC2A85B094BF9846D0F8988004460393BF
:1045E00000264DE0D4F8BC0020B1037813B1FFF7EA
:1045F00040FA07E0B4F894100139C919A06A41449F
:1046000000F078FC50B92EB9204691F651FC0030EC
:1046100018BF012023690133236134E0A36813F03C
:10462000100303D003697A1EFB1A134013EB08032F
:1046300005D00269D2180261828AD31A83820023CC
:104640000269616F136041F8250020460393B4F8B6
:104650006C30013B9D4208BF4FF08053216C08BF76
:10466000039303AB01360093B4F8943001932B46C7
:10467000FFF798FC0135B4F86C30013B1D40ADB23A
:104680004E45AFD10020D4F89020A4F8705002EB32
:104690000515A36B5D6005B0BDE8F08310B5B0F8FB
:1046A0006C300446002B33D0D0F8BC205AB11278BD
:1046B0004AB1013BB0F87010B0F86E208A1A13426C
:1046C00001D0FFF759FE0023B4F86C20206C0021C4
:1046D000A4F8D0301201A4F87030A4F86E308DF632
:1046E000DDFF94F8B4302BB920460221D4F88020A5
:1046F00091F690F92046FFF789FC94F8B4303BB16D
:1047000020460221D4F88020BDE8104091F682B9FD
:1047100010BD00000048704724721C00004870471C
:10472000CC721C0038B5D2F80056044605F07C0562
:10473000AD08FFF7EFFF03E08378AB4207D00C3002
:1047400010B10388002BF7D12046FFF7E7FF03885D
:104750004FF47A70584338BD4FF0E040704773B55E
:1047600000252C460126AE401E4204D0C2F8205639
:10477000D2F82466344301351F2DF3D19DF818304B
:1047800033B12CB1012300932346FFF7E8FF044324
:1047900020467CBD0322C1F86026092B1BD8DFE828
:1047A00003F00507090B0D0F111315170D4B10E042
:1047B0000D4B0EE00D4B0CE00D4B0AE00D4B08E0ED
:1047C0000D4B06E00D4B04E00D4B02E00D4B00E0FD
:1047D0000D4BC1F86436D1F8003643F48063C1F85C
:1047E0000036704763A8BF807D1FAB80C9F7B180DA
:1047F000AF80C68016D0B880FC58CD804931D480B7
:104800009509DB80E2E1E1802FBAE88070B5049D74
:1048100014461E46FFF7A0FFE8B10640284004D02A
:10482000D4F81C361843C4F81C0626B1D4F8183640
:104830001E43C4F81866059B990304D470BD0A2072
:1048400092F6FEF801E040F2D175D4F8E0319A0317
:1048500001D4013DF3D170BD73B5054614461E4623
:1048600000914FF4CA6200214FF0FF3398F608FE22
:104870002846002140F254622346009698F600FE36
:104880007CBD0000F7B50E4600210B4615464FF4DF
:10489000C3620746009198F6F3FD012203211346F7
:1048A00004463846FFF7D8FF084B1B78012B04BF9E
:1048B000074B1C68074B1B78012B18BF6FF0004398
:1048C000346004BF044B1B682B60FEBD040D1D004B
:1048D000F80C1D00FC0C1D00000D1D002DE9FF470C
:1048E00014460022C4F820360646029289460392F6
:1048F000026A0C2AD4F8282606DD4FEA12484FEA4D
:1049000088584FEA985803E04FEA12285FFA88F86F
:104910000125002715FA03F3304649462246009741
:10492000FFF71DFF0546012212FA07F32B4207D0BD
:104930000092304649462246FFF711FF25EA00055E
:1049400001371F2FEFD1304602A903AAFFF79AFFC4
:10495000029B002725EA030A3D460123AB4013EAE8
:104960000A0F08D0304649462246EBB2FFF7B6FFA1
:10497000874238BF074601351F2DEED108F10200EE
:10498000C01904B0BDE8F08773B5054614461E464D
:1049900000914FF4CB6200214FF0FF3398F670FD89
:1049A0002846002140F25C622346009698F668FD96
:1049B0007CBD73B5054614461E4600914FF4CC628B
:1049C00000214FF0FF3398F65BFD2846002140F2AE
:1049D00064622346009698F653FD7CBD4FF48063D5
:1049E00007B500214FF4C062009398F649FD0EBD53
:1049F0002DE9F0410446884698F63CFD0021064624
:104A0000204699F66BF90746204698F6C7FF4146BF
:104A10003A461D2305462046FFF760FF064B314608
:104A2000EB18B3FBF5F502304543C835204699F63F
:104A300055F9A8B2BDE8F0813F420F00D1F8140645
:104A4000D1F81436984218BFD1F81406704738B51B
:104A500014461568FFF7F2FF0346401B236038BD7C
:104A60002DE9F341002706460C4615469846019766
:104A7000FFF7E4FF0190B8F1010FD4F8100601D15F
:104A800008B90DE048B9B5EB471F08D930462146B3
:104A900001AAFFF7DCFF3F18EDE7002000E001204E
:104AA0007F01089B1F60BDE8FC812DE9F0430025D4
:104AB00085B006468846039503AF3046414644F626
:104AC000206201230097FFF7CBFF044680B92346FD
:104AD000304641464022DDF80C900097FFF7C0FFBA
:104AE000039B38B999444D4444F61F639D42E3D972
:104AF000012000E0204605B0BDE8F08370B5144603
:104B0000D2F818260D461A60049BD4F81C261A60A9
:104B1000059BD4F8E0211A60FFF71EFE064618B385
:104B2000D4F8E0319A0303D428462146FFF7BDFFAD
:104B3000D4F81836F64340F2D1753340C4F818362D
:104B4000D4F81C361E40C4F81C6602E00A2091F618
:104B500077FFD4F8E0319B0301D5013DF6D1642005
:104B6000BDE8704091F66CBF70BD70B504460E464E
:104B700098F680FC00210546204699F6AFF83146AC
:104B800002462046FFF7CEFD29460646204699F606
:104B9000A5F8304670BD00002DE9F041164C0546E1
:104BA00027682FBB98F666FC39460646284699F6D4
:104BB00095F8D0F814860746D0F81436984518BFF3
:104BC000D0F8148642F2107091F63AFFD7F81436F6
:104BD000D7F8142628463146934218BFD7F8143622
:104BE000C8EB0308642303FB08F3236099F676F807
:104BF0002068BDE8F08100BFF40C1D002DE9F743EB
:104C000005460E461746994698F6DCFE04460028EF
:104C10005FD1284698F62EFC21468046284699F614
:104C20005DF804462FB3D0F818760123C9F8007058
:104C3000314647F400672246009328463B46FFF77B
:104C40008EFD21463843C4F818063046FFF72DFF85
:104C50004FF47A7091F6F4FE40F2D17602E00A2029
:104C600091F6EEFED4F80C361A051BD4013EF6D1AF
:104C700018E0D9F800700FB9D0F81876012327F49E
:104C8000006700933146284622463B46FFF767FD02
:104C900021463843C0F3C029C4F818063046FFF750
:104CA00004FF01E04FF0010940F22D1602E00A2056
:104CB00091F6C6FE236903F48053B3EB093F01D09C
:104CC000013EF4D12846414603B0BDE8F04399F6D1
:104CD00005B803B0BDE8F083F0B5002389B00E46F7
:104CE0001746059303AA06934FF40061079304AB9C
:104CF000044699F605F806AB3146009307AB0193DD
:104D000005AB05462A462046FFF7F8FE2046294611
:104D100032463B46FFF73EFD069B00932046079B2D
:104D2000314601932A46059BFFF770FD2046039903
:104D3000049A98F6FFFE09B0F0BDF0B589B00446BC
:104D400006AA07AB0D464FF4006198F6D9FF294635
:104D50002046FFF70AFF4FF47A760022022113461D
:104D6000B0FBF6F62046FFF724FE0022032113468F
:104D700005462046FFF71DFE4FF4000304A90093EB
:104D80003346EF0D774305F470252D0C20F07F425C
:104D900003A8FEF76BFF05A803991823049AFEF7F2
:104DA000CFFF4FF40063059A03A800934FF480539C
:104DB00004A9BA1893FBF5F3FEF758FF02A803996C
:104DC0000C23049AFEF7BCFF20460699079A98F632
:104DD000B1FE029809B0F0BD10B5044698F636FE53
:104DE00001462046BDE81040FFF7A7BF10B51446A6
:104DF000FFF7F2FF0123C4F86036D4F8643603F4F9
:104E00007F031B0CB0FBF3F34FF47A70584310BDD3
:104E100070B504460E4698F62DFB00210546204647
:104E200098F65CFF314602462046FFF7DFFF294631
:104E30000646204698F652FF304670BDFFF7E8BFA1
:104E400037B50446FFF7C8FF6A4601AB4FF400616F
:104E50000546204698F654FF0022134601212046BD
:104E6000FFF7A7FD9DE8060000F47F40000AB5FBB0
:104E7000F0F5204698F65EFE28463EBDF8B504469D
:104E80000F4698F6F7FA00210646204698F626FFC8
:104E9000054629463846FFF708FED5F80C56204649
:104EA000314698F61BFFC5F3C020F8BD704770B5BA
:104EB00004460E4698F6DEFA00210546204698F68E
:104EC0000DFF01230146C0F818363046FFF7EDFD0F
:104ED00020462946BDE8704098F600BF08460021EC
:104EE000FCF708BB084609B191F69ABB7047002051
:104EF0007047000038B5044608460D46FCF704FE2E
:104F000018B123680133236038BD0B4B1B688BB18C
:104F10001A787AB15A8995420CD81846FEF7A9FD3D
:104F200020B1064B1A6801321A6038BD044B1A686A
:104F300001321A6038BD00BF600E1800080D1D0058
:104F40000C0D1D0038B504460D4622B1836813B11F
:104F5000C068002298472B4606E0DA8A920502D400
:104F60002268013A22601B68002BF6D12846BDE872
:104F70003840FCF751BE10B504460846FCF7F2FD78
:104F800010B123680133236010BD03460A4606E0D2
:104F9000D08A800502D41868013018601268002A8F
:104FA000F6D10846704703460A4606E0D08A8005D7
:104FB00002D41868013818601268002AF6D1084631
:104FC000704700207047FEF764BC806C410704D432
:104FD000C20704D4C0F3C000704702207047042009
:104FE000704770470020704770B5044698F6B8FDCA
:104FF00048B3A56E6DB1D4F8CC3004EB8303D3F87D
:10500000D420236E9A4203D1606EA847054600E083
:105010000025D4F8CC604FF400610022204698F6B9
:105020004DFE2046314698F659FEE36E5BB1D4F84A
:10503000CC2004EB8202D2F8D410226E914202D12D
:10504000606E2946984770BD70B50D4614460646F9
:1050500098F6FCFC2A46234601463046FFF7CEFD73
:105060004FF47A70BDE8704091F6EABC10B5816DDE
:105070000446FFF71CFF204640F28C614FF0FF32E0
:105080000C4B98F653F94FF08072022113462046DC
:10509000FFF7E2FB1022012113462046FFF7DCFB5D
:1050A000204601214FF470224FF48033BDE81040B8
:1050B000FFF7D2BBFFBFFF0710B5044651B1022175
:1050C0004FF4E0120023FFF7C7FB204602214FF404
:1050D000801202E002214FF470121346BDE8104026
:1050E000FFF7BABB44F23930704701207047704770
:1050F0002DE9F34104461F468846164698F6BAF94C
:10510000414600220546204698F6D8FD204698F6EE
:10511000B1F98046204698F695FC012809D1089BF4
:1051200032460093204641463B4698F6A9F906468A
:1051300000E000262046294698F6D0FD3046BDE81E
:10514000FC8173B5044698F695F9A56C0646680788
:1051500004D4E90704D4C5F3C00502E0022500E049
:105160000425002220464FF4006198F6A7FD022D89
:1051700007D00521012200232046FFF76DFB012DFA
:1051800005D02046052108220023FFF765FB0521F5
:10519000102200232046FFF75FFB4FF4C0220021BE
:1051A000134620462025FFF704FC2046FFF716FC97
:1051B0002B46204640F612014FF4F4720095FFF79B
:1051C00097FF2B46204640F63E014FF4F4720095BF
:1051D000FFF78EFF2B46204640F629014FF4F4726C
:1051E0000095FFF785FF2B46204640F61A014FF445
:1051F000F4720095FFF77CFF2B46204640F63C01F9
:105200004FF4F4720095FFF773FF002320460093DC
:105210004FF4006140F60C424FF48023FFF768FF23
:105220004FF08072062113462046FFF715FB4FF41E
:10523000DC42062120461346FFF70EFB204631468E
:1052400002B0BDE8704098F649BD38B505460C4639
:10525000A9B1096B21B1036806225868FFF742FE25
:10526000A16B21B12B6862695868FFF73BFE2B6880
:10527000214640225868BDE83840FFF733BE38BDAC
:10528000036870B506460D4658684021FFF726FEB4
:10529000044620B329464022FCF7BEF800232363CE
:1052A000A363AB6B5BB1696949B133685868FFF7B9
:1052B00015FEA06398B1A96B6A69FCF7ADF82B6B7A
:1052C00053B1336806215868FFF708FE206330B1F8
:1052D000296B0622FCF7A0F80023E36304E02146D3
:1052E0003046FFF7B2FF0024204670BD034604306D
:1052F00001E002F13C000268002AFAD101609968DD
:10530000013199601968886819691346A1F648BE89
:105310002DE9F34746680446002E34D0D6F80480C1
:10532000D6F83890D6F814A0456915E06F6897B1A3
:105330002A46E96800230CE00432D068404507D1D2
:10534000CDF800A04146A86832464B46B84702E077
:1053500001338B42F0D12D68002DE7D1F36B20464D
:1053600063603146FFF771FFA368013BA360636888
:105370004BB123682A46216998682B4602B0BDE8E4
:10538000F047A1F60DBE02B0BDE8F087F8B50446BF
:10539000002820D08268C3689A421CD2436918E072
:1053A0005A68AAB11846DD6800220FE00769043088
:1053B0004E68B74209D12046FFF762FF014650B15F
:1053C0002046BDE8F840FFF791BF0132AA42EDD177
:1053D0001B68002BE4D1F8BD0368F0B51D6885B0EB
:1053E000074695F8A022002A38D04669048994B966
:1053F000A0F676F9002831D04FF480632846019357
:105400004FF0FF333146029306F1F0022346009439
:1054100009F0B2FA22E0998968686118FFF76AFD1D
:105420003B68044618B99A6801329A6016E0006930
:105430009B89A28AF968C018D31A3A892061A3828D
:10544000FBF7EAFFE38C43F480632846E3842146BC
:10545000F26805B0BDE8F0400DF08CBC05B0F0BDC1
:105460000048704700B01C000A698B7ED2180A61A0
:105470008A8AD31A8B827047036A0022DB07026292
:1054800005D5C38C6FEA43436FEA5343C384704727
:1054900000207047836907B50022022100929868B6
:1054A000134601F0D9FC0EBDF8B58C691646236988
:1054B000994203D0CD6A15B12D6800E00025204641
:1054C0003146FFF7D1FF636831465869FFF75DFD4C
:1054D00007463046FFF7D0FF20463946A1F660FE6A
:1054E000A06839462A460DF0F9FD003018BF0120AA
:1054F000F8BD2DE9F84391F82B80436817468A6878
:105500000C465E690B699A1A032A2ED8B1F81490DA
:10551000304609F10401FFF7EDFC054630B921469C
:1055200030460122FFF70EFD2C462CE0C38A23F003
:105530000703E28A02F007021B0421691B0C1343D4
:10554000C382E28AD2064CBF43F0100323F010035B
:105550004A46C38200690430FBF75EFF21463046AD
:105560000122FFF7EFFC2C4604E0043B0B618B8A21
:1055700004338B8200210122236919705A7083F849
:105580000280D9703A702046BDE8F8832DE9F341D6
:10559000099E00230446032E90460A9D87680093C7
:1055A00004D9684608990422FBF736FF009BB8F13E
:1055B000040F37D8DFE808F0030609142900637DDB
:1055C0002B6000E0637500202EE03846252101AAFB
:1055D000AEF6C2F940BB019B03F001032B6023E050
:1055E0001C1C18BF012438462621002C0CBF4FF488
:1055F00080324FF00112B4F68BF914B191F670F9C4
:10560000E1E791F647F920460EE02046A1F6F6FFC5
:10561000284604F11801242E34BF32462422FBF719
:10562000FBFED0E76FF01600BDE8FC8138B50546FB
:1056300080686B6893F82430FBB907F0F8FC0446E7
:1056400020B9D5F88000A0F66BF90446FCF73AF8CB
:105650006B68D3F8A4308BB11B787BB10120FBF7CA
:105660003FFF6B68064AD3F8A410106800228DF63D
:10567000B7FD0020FBF734FF00E00024204638BDD2
:10568000840B1D0010B54368044693F8243053B1D1
:10569000D0F88000A0F62EF9A0680FF0D9F800220B
:1056A000636883F82C2010BD034607B5054A0846F9
:1056B0000092054A019205491A68054B8DF684FA55
:1056C0000EBD00BF62731C0094571C00E603090066
:1056D00056731C0001290CBF906800207047000021
:1056E0002DE9F0411D4698B09DF8784003690027E8
:1056F0000E4605923946402207A8D3F82480179712
:105700008CF6CCFF3246154907A88DF643F807A85A
:105710008DF68AF80646431C44B107AAD01805A99D
:105720000422FBF779FE731D394600E0012117A81A
:10573000D8F810200090002002940190404656694D
:1057400007AAB047064628B924B9284607A9179AD8
:10575000FBF762FE304618B0BDE8F0816B731C00A9
:1057600000232DE9F341044617468DF8073009B9A7
:10577000066900E04E683B6993F80C805B7B43EA66
:10578000082848F66C03C3EB080EDEF1000848EB6E
:105790000E08756AB8F1000F03D120463946A1F60C
:1057A000F3FC002D3BD0B8F1000F1DD1EB69D807F9
:1057B0000BD5637D4BB120463946A1F6FDFD20B9DE
:1057C00063683946424658692DE0636893F89E3015
:1057D00053B1D4F88400394637F012FF024618B9A5
:1057E0006368394658691EE0394620460DF10702C4
:1057F000FFF77FFE0146C0B19DF8073083766368EE
:105800005869FFF7D0FB2B692946DB68044622461E
:105810003046984748B12046FCF7FEF905E063683A
:1058200039462A465869FFF78DFBBDE8FC810169BE
:1058300010B5486A28B101698C6914B111461A463D
:10584000A04710BDD0F8A0001146FFF79FBD90F90A
:10585000290070477047642911DC63291EDA4A2940
:105860001CD006DC07291CDB082917DD3C2918D1D0
:1058700014E0502912D014DB5C3903290DE0C32950
:1058800004DCC2290ADAA839022906E0B1F5847FCE
:1058900004D006DBA1F58971012902D86FF016004A
:1058A00070470020704700207047C88810F008003B
:1058B00018BF6FF016007047D0F8E8355889704768
:1058C000D0F844150368D3F894208B68013303F0B3
:1058D00001038B60DB01CB180C3351685960916870
:1058E0009960D168D960D2F8B0111961116C596111
:1058F000516C9961D2F83812D961D2F83C12196210
:10590000D2F840125962D2F844129962D2F8481281
:10591000D962D2F84C121963D2F850125963D2F8F6
:1059200054129963D2F85812D963D2F85C121964F0
:10593000D2F860125964D2F864129964D2F8141142
:105940001967D2F818115967D2F89812D2F89C2228
:105950009967DA67704748F2F303994206D048F234
:105960003710091A484240EB010070470120704788
:1059700010B5B0F8744401F4E02104F4E064090CBB
:10598000240A01390C41016891F8FF10A4B279B1E1
:1059900092009B0052B25BB2921002EBA3031F2B4A
:1059A000A8BF1F236FF01F029342B8BF1346DBB29C
:1059B00044EAC30010BD30B5D0F8183399B15A6A23
:1059C0009D699818047F013202F007022C1B6418AD
:1059D00001775A6293F8282051B207299C6102DCB2
:1059E000013283F8282093F92820002AC3BF99693F
:1059F00001EB620191FBF2F200225A61586930BD5D
:105A0000002070478B69D88800F44040A0F5404CD6
:105A1000DCF1000040EB0C0070478B69988CC0F300
:105A2000800070474B8822B923F480531B041B0C61
:105A300001E043F480534B80704710B50C468969F0
:105A4000FFF7F0FFA3695B88E38010BD10B5CC7C45
:105A50008B7CE3181833C918BDE81040FFF7E2BF8C
:105A600070477047704710B5D0F8F841A4B9036883
:105A700093F8383093B902F44072B2F5407F0FD0FA
:105A800082B10B69D3F81C33187868B1A0F1020118
:105A9000484240EB010010BD002010BD204610BD63
:105AA000184610BD104610BD012010BD01F01C01AC
:105AB000A1F1040CDCF1000040EB0C007047002267
:105AC000C3B20A6010F040720BD0B2F1807F02D1F5
:105AD00043F0807305E0B2F1007F31D1C3B243F0EF
:105AE000007300F440721343C20248BF43F48013B2
:105AF000420248BF43F48003020248BF43F400035C
:105B0000820200F4E02048BF43F40013B0F5803F68
:105B100002D143F4803310E0B0F5003F02D143F4EA
:105B200000330AE0B0F5403F02D143F4403304E0D3
:105B3000B0F5802F08BF43F480230B60002070472E
:105B40006FF001007047000070B50568D0F83405AB
:105B5000D5F89440666801366660A668B618A660F7
:105B600010B1C4690134C461D1F8F00010B90C69F6
:105B7000E46800E0044666690136666108B90969AF
:105B8000C868816989188161296C69B1D5F8981054
:105B90000648C35C0648C35C01EBC3035968013186
:105BA0005960996852189A6070BD00BF8A7F0800DA
:105BB000C88208000368186C70B1D3F89800074BCE
:105BC0009B5C074AD35C043300EBC3035A68013281
:105BD0005A609A6889189960704700BF8A7F0800E8
:105BE000C88208000022D0F81C33A3F86020A3F874
:105BF00062205A669A66704710B50C46D0F8441574
:105C00000B6813B14A689A4207D8204600218022C7
:105C10008CF644FD4FF0FF3062E08B68DA01013B07
:105C200003F001038A18DB01CB180C320C335068E7
:105C30005968411A906861609968411AD068A160FA
:105C4000D968411A1069E1601969411A50692161E6
:105C50005969411A906961619969411AD069A161D4
:105C6000D969411A106AE161196A411A506A2162C0
:105C7000596A411A906A6162996A411AD06AA162AE
:105C8000D96A411AE162106B196B411A506B21639A
:105C9000596B411A906B6163996B411AD06BA16388
:105CA000D96B411A106CE163196C411A506C216474
:105CB000596C411A906C6164996C411A106FA1641F
:105CC000196F411A506F2167596F411A906F6167C0
:105CD000D26F996FDB6F411AD31A0020A167E36777
:105CE000022323808023638010BDF8B50546174644
:105CF000086B0C462B6A9A69904254D02A68126B42
:105D0000012A0AD95B6813F1FF3318BF01230A3354
:105D100055F823309B69984245D02046FFF797FD00
:105D200000283DDB2046FFF792FD07283ADC20469D
:105D3000FFF78DFD05EB8000D0F85C02002832D023
:105D40002046FFF784FD05EB8000D0F85C6216B3B7
:105D5000BB6A1B78DB0711D5D6F8003158051CD477
:105D6000B5F8723403F44043A3F540414B4243EB92
:105D70000103103306EB830670680FE039462846AE
:105D8000FFF740FE3146BA6A031C18BF01232846BC
:105D90003AF038FB02E0304600E000202063F8BD16
:105DA0000020F8BD0020F8BD0846197A022970B518
:105DB00014D100F16C0400215D18B5F8BC506618D0
:105DC00065540231C5F307250A297570F4D11146CF
:105DD00076300322BDE87040FBF71EBB70BD2DE995
:105DE000F84306460D4617469846D1F8CC90D0F8B1
:105DF000E44510E0D5F8CC3099450ED1E368AB42CC
:105E000008D1A3799A0705D5B0683A46A1684346F8
:105E1000FFF70DFD2468002CECD1BDE8F8830000ED
:105E20002DE9F04F89B00D46059317460B6A049093
:105E300013F0100FD2F8AC31DDF848B016BF03F004
:105E4000040A03F0010A5FFA8AFAD2F810800E6998
:105E5000BAF1000F04D002F114034FF0100902E070
:105E600053464FF00A0979687E4A0A401AB109F18F
:105E700002091FFA89F9BBF1000F04D09BF90E202B
:105E800091441FFA89F9C9EB0604AA8A4A442C6195
:105E90002046AA8200214A4609F10E0903938CF696
:105EA000FDFB149A201DA2F80090039BBAF1000F8D
:105EB00032D019460622FBF7AFFA04F10A0008F1C6
:105EC000F6010622FBF7A8FABBF1000F03D17A68AE
:105ED000644B134053B13146062206A8FBF79CFAE7
:105EE00004F1100006A90622FBF796FAB11D06225E
:105EF00006A8FBF791FA062204F1180006A9FBF7A1
:105F00008BFA2B6A5E0658D504F1100008F1F001F7
:105F10000622FBF781FA50E098F80630F3B13146DB
:105F20000622FBF779FA04F10A0008F1F0010622D3
:105F3000FBF772FABBF1000F04D17A68494B1340AA
:105F4000002B3DD0B11D062206A8FBF765FA04F12F
:105F5000100006A90622FBF75FFA31E098F8163028
:105F6000C3B108F1F0010622FBF756FA31460622CA
:105F700006A8FBF751FAB11D062204F10A00FBF74F
:105F80004BFA04F1100006A90622FBF745FA4FF47C
:105F9000807617E031460622FBF73EFAB11D062255
:105FA00004F10A00FBF738FA04F1100008F1F001DF
:105FB0000622FBF731FA564604E04FF4407601E042
:105FC0004FF400767A68274B134023B3296A9DF873
:105FD0004C30D8F85C2503F0070348050DD492F83F
:105FE0002820012A05D141F4802143F020032962B1
:105FF00003E0520102F0600213432A6A46F0800671
:10600000520648BF43F08003B6B2BAF1000F0CBF8E
:1060100018221E22A352BBF1000F13D0BAF1000FB9
:1060200002D104F1180301E004F11E0379680D4A5E
:106030000A4002B1023301220498414600925A46B6
:10604000DDF672FA059B46F008060BB146F4806651
:10605000BBF1000F01D046F480462680204609B0EF
:10606000BDE8F08F40000180F7B5D0F874551C46AC
:10607000E827089B7B4352F805E006460EEB030237
:10608000957C5EF80330D77C7F19ED1894F90E30BB
:10609000ED1A1835012355191837D71900932246E0
:1060A0002B46DDF641FA304639462A46234603B0F0
:1060B000BDE8F040FFF778BE2DE9F04111F04078DF
:1060C00004460D4616461F4605D1CBB22E4AD2567F
:1060D000002A4FDA45E00846E7F680FFB8F1007F76
:1060E000034606D14FF4FA537843B0FBF3F0BDE812
:1060F000F081B8F1807F3DD12846E8F623F96FF0B2
:106100000403EEB221491B1A07EB8307236A1B68BD
:10611000022B08BF063F15F4000F05F4E02509D057
:106120004FF01403B5F5003F03FB06160CBFF268F1
:10613000B2680AE0B5F5003F4FF0140303D103FB4A
:106140000616726801E05E438A599200BF087A43DE
:10615000A2F5AA42F03A4FF4FA50B2FBF0F0BDE8D3
:10616000F081A7F114008008400058431638C00899
:10617000BDE8F081F20701D5603F00E0C03F5F431A
:106180003809BDE8F08100BFE4B00800D8AD0800D0
:106190002DE9F041044610461D46A3F61DFC04F40B
:1061A000E023B3F5403F804609D0B3F5802F08D0F7
:1061B000174A184EB3F5003F18BF164602E0164EB8
:1061C00000E0164EE002204648BF46F00806E8F61A
:1061D000B9F846EA08160746AAF602F8013F46EA69
:1061E000403646EA8726330A2E70360C6B70610201
:1061F000C4F3C05348BF43F0040343EA041402232A
:10620000AE702B710023EC706B71BDE8F08100BFA4
:106210000400800005008000060080000700800068
:1062200038B501F04075B5F1007F0C460DD0B5F1E1
:10623000807F0CD035B901F07F03162B02D81949A5
:10624000994000D40125ADB202E0032500E002250B
:10625000013AD2B2012A07D8036845F01005D3F8F5
:1062600094309A6901329A61214604F4E0243CF0AA
:106270007EFAB4F5403F09D0B4F5802F09D0B4F5CB
