:10000000D39202051B00000005112016707A000033
:1000100076750100000000000000000000000000F4
:1000200002A27800000000000000000000000000B4
:1000300000000002B1A2000000000000000000006B
:1000400000000000000000000000000000000000B0
:1000500000000000000000000000000000000000A0
:10006000000000029183000000000002B0A3000025
:1000700000000002B0E3000000000002B123000015
:100080000504030200030605040300040605040238
:1000900000040807060400060A09080600080A0901
:1000A000080400080A09080200080A0908000008F4
:1000B0001211100800101A19181000182221201807
:1000C00000202221201000202221200800202221AF
:1000D0001C080020222114080020222018080020DB
:1000E000313020100030313018000030312F101026
:1000F0000030312C10100030312810000030312039
:100100001000003031101000003004040405040415
:1001100005070707080A04040404060A0C0D050570
:100120000707080B0E0F04040405070709090C0E46
:10013000101204040505060A1113090909090C0E19
:10014000111300000000000000000024262A181AE5
:100150001D1F2127292A0000001F23282A2C000404
:10016000000400080010001800240030004800605F
:10017000009000C000D80050007800A000C80140E6
:10018000019001E00230012C014001E002D003E8BF
:1001900004B0064007D00002000200040008000C72
:1001A000001200180024003000480060006C002895
:1001B000003C0050006400A000C800F0011800647A
:1001C00000A000F0016801F40258032003E80202D5
:1001D000020202020303040405070404070A0A0CCE
:1001E0000C12050707080B12243C01010101010252
:1001F00003040506070801020304050607080506AF
:100200000708090A0B0C221F1E181020F0150F8F6B
:10021000F0100F8FF0050F8FF0000F8F0FF500001B
:100220000FF00000000D00000000000000000000C2
:1002300000000000000000000000000000000000BE
:1002400000000000000000000000000000000000AE
:10025000000000000000000000000000000000009E
:10026000000000000000000000000000000000008E
:10027000000000000000000000000000000000007E
:10028000000000000000000000000000000000006E
:10029000000000000000000000000000000000005E
:1002A000D310AF01C3C0D09091C4EFF0909190E013
:1002B000FF6D70030244A0EDB4070040030244A0A8
:1002C0009042A7F82828730242BC0242F902434434
:1002D0000243840243CB02441302445AEFB404069F
:1002E00012B0600244A0909190E0FDB4050612B8EF
:1002F0002F0244A0EDB4060512B65D8016909190D1
:10030000E0B4030512B9D7800A909190E0B40203DB
:1003100012B7B112B9E80244A0909190E0B404057C
:1003200012B060800A909190E0B4050312B82F904B
:100330009190E0700612B9F80244A0909190E0FC10
:10034000B4060612B65D0244A0ECB4030612B9D797
:100350000244A0909190E0640260030244A012B7AE
:10036000B10244A0909190E0B4040512B060800AFC
:10037000909190E0B4050312B82F909190E0700531
:1003800012B9F88014909190E0FCB4060512B65DA5
:100390008007ECB4030312B9D79091C4E0FF12B800
:1003A0006B0244A0909190E0B4040512B060800A02
:1003B000909190E0B4050312B82F909190E07005F1
:1003C00012B9F8801B909190E0FCB4060C9091C497
:1003D000E0FFE4FD12B6648007ECB4020312B7B18B
:1003E0009091C4E0FF12BA410244A0909190E0FCC9
:1003F000B4060C9091C4E0FFE4FD12B6648013ECE7
:10040000B4030512B9D7800A909190E0B4020312A8
:10041000B7B1909190E0B4010512B9E8800A9091CB
:1004200090E0B4050312B82F9091C4E0FF12B79189
:100430000244A0909190E0FCB4060C9091C4E0FFBF
:10044000E4FD12B6648013ECB4030512B9D7800A38
:10045000909190E0B4020312B7B1909190E0B40192
:100460000512B9E8800A909190E0B4040312B060DC
:100470009091C4E0FF12B84E8046909190E0B40491
:100480000512B060800A909190E0B4050312B82F75
:10049000909190E0700512B9F8801D909190E0B4B1
:1004A000030C9091C4E0FFE4FD12B9DE800A909144
:1004B00090E0B4020312B7B19091C4E0FF12B88883
:1004C000D0D092AF22ED24FE601E04705574792FB7
:1004D000F582E43491F5837401F0745D2FF582E4C4
:1004E0003491F5837401F022EB7013909170E0FE6B
:1004F00074792FF582E43491F583EEF0800C7479F1
:100500002FF582E43491F583EBF074792FF582E4D2
:100510003491F583E0FE745D2FF582E43491F58328
:10052000EEF02202AE2002BA148F47E4F548740DB3
:100530002547F582E43491F583E0FFE548C39F4009
:1005400003024E8B75F0E0E547A42409F582E5F03F
:100550003489F58375F007E5481285FAE0C3132066
:10056000E003024E86E54775F040A424C0F582E41E
:100570003485F58375F002E5481285FAE0FEA3E0C4
:10058000D39400EE94005003024E86E54775F0A028
:10059000A42400F9748435F0FAE54875F005A4291F
:1005A000F9EA35F0754C01F54D894EE54775F04097
:1005B000A424C0F582E43485F58375F002E5481281
:1005C00085FAA3E09090B5F0E54775F040A424C308
:1005D000F582E4348AF58375F002E5481285FAE085
:1005E000FFA3E09090B6CFF0A3EFF0AD48AF471275
:1005F000B8A5EF543F9090B4F0541F7882F675F090
:10060000E0E547A42407F582E5F03489F58375F029
:1006100007E5481285FAE09090B9F0E547C43354F5
:10062000E02405F582E4348FF583E5822548F582E0
:10063000E43583F583E0C3940540030247F79090C7
:10064000B9E0FFE69F400DE0F69090B4E05440FE24
:10065000F0EF4EF0E547C43354E02483F582E434F0
:100660008CF583E5822548F582E43583F583E0FF48
:100670007882E6FE90412293FDEFC39D4006EE9006
:1006800040EA80067882E6904106939090B8F09018
:1006900090B8E075F006A42460F9744035F075490F
:1006A000FFF54A894BE54775F040A42480F582E4C4
:1006B0003488F58375F002E5481285FAE0F54FA31A
:1006C000E0F550E47881F6AB49AA4AA94B7881E677
:1006D000FFF5827583001284BBFEAB4CAA4DA94E78
:1006E0008F827583001284BB8EF0A4AEF02550F586
:1006F00050EE354FF54F788106E6B405CAAB49AAEE
:100700004AA94B9000051284BBFF9090B5E08FF092
:10071000A4FFAEF0D3E5509FE54F9E400CE5509FFF
:10072000F550E54F9EF54F8005E4F54FF550E54750
:1007300075F040A42480F582E43488F58375F002D6
:10074000E5481285FAE54FF0A3E550F09090B5E04A
:10075000FFD394085072EF606FAB4CAA4DA94E9036
:1007600000041284BBFF9000031284BB2FFFE4330C
:10077000FEEF25E0FFEE33FE9090B5E0FDD3EF9D58
:100780007480F86E9840030247EBAB4CAA4DA94E1B
:100790009000011284BBFF1234052FFFE433FEEFFB
:1007A0007802C333CE33CED8F9FDAC069090B5E0D5
:1007B00075F003A4FFD3ED9FE5F06480F8EC64804E
:1007C000985003024C91801B9090B4E025E0243EA9
:1007D000F582E43441F583C37401939550E4939515
:1007E0004F500AAD48AF47127402024C919090B43A
:1007F000E025E02476F582E43441F583D374019357
:100800009550E493954F5003024C917B01AD48AF56
:1008100047127E6F024C91E547C43354E02405F53E
:1008200082E4348FF583E5822548F582E43583F54B
:1008300083E064056003024AB674C32547F582E489
:10084000348CF583E4F074012547F582E43489F5AE
:1008500083E0FFB4030A7882E6C3941940528033E0
:10086000EFB4020A7882E6C39411404480257401F3
:100870002547F582E43489F583E0FFB4010A7882E4
:10088000E6C3940A402A800BEF70187882E6C3947E
:1008900003401D74C32547F582E4348CF58374014D
:1008A000F0800D74C32547F582E4348CF583E4F0C1
:1008B000E547C43354E024C3F582E4348BF583E583
:1008C000822548F582E43583F583E0F551E547C498
:1008D0003354E02483F582E4348CF583E5822548A3
:1008E000F582E43583F583E0FFC394305003024A78
:1008F0001674C32547F582E4348CF583E064016007
:1009000003024A16E547C43354E024C5F582E434B3
:100910008CF583E5822548F582E43583F583E06430
:100920000A607BEF2405FFE433FEE547C43354E05F
:1009300024C0F582E43486F583E5822548F582E417
:100940003583F583E0FDD39FEE6480F87480985082
:100950004DED2405FFE433FEE547C43354E0248322
:10096000F582E4348CF583E5822548F582E435830D
:10097000F583E0D39FEE6480F87480985020E547BB
:10098000C43354E02445F582E4348FF583E58225B1
:1009900048F582E43583F583E0788266605DE55151
:1009A0007005755101800DE551B401057551038045
:1009B00003755105E547C43354E02483F582E434DC
:1009C0008CF583E5822548F582E43583F583E0FFE5
:1009D000E547C43354E024C0F582E43486F583E56A
:1009E000822548F582E43583F583EFF0E547C4338B
:1009F00054E024C5F582E4348C804BE547C433547D
:100A0000E02405F582E4348FF583E5822548F582FC
:100A1000E43583F583E4F0E547C43354E024C5F5B9
:100A200082E4348CF583E5822548F582E43583F54C
:100A300083E004F0801FE4F551E547C43354E0241B
:100A400005F582E4348FF583E5822548F582E435A7
:100A500083F583E4F07882E6FFE547C43354E0246D
:100A600045F582E4348FF583E5822548F582E43547
:100A700083F583EFF0E547C43354E024C3F582E403
:100A8000348BF583E5822548F582E43583F583E5EB
:100A900051F075F0E0E547A42409F582E5F03489CA
:100AA000F58375F007E5481285FAE01313543F30DB
:100AB000E01FE4F551E547C43354E02405F582E432
:100AC000348FF583E5822548F582E43583F583E4A8
:100AD000F0AB51024C8AE547C43354E02405F5825B
:100AE000E4348FF583E5822548F582E43583F58388
:100AF000E064066003024C91E547C43354E024C32C
:100B0000F582E4348BF583E5822548F582E435836C
:100B1000F583E0F551E4F54FF5509041EB93FF90EC
:100B200090B5E08FF0A4FF9090BBE5F0F0A3EFF05C
:100B3000E47881F6AB4CAA4DA94E7881E6FFF582A8
:100B40007583001284BBFEEF9041E693FFEE8FF0B9
:100B5000A4AEF02550F550EE354FF54FC39090BC44
:100B6000E095509090BBE0954F4007788106E6B441
:100B700005C27881E6C313F6E551B4010CE4909008
:100B8000BDF0E6702304F0801FE551B40308C37480
:100B900002788196800EE551B40508C3740378810C
:100BA000968001E49090BDF0E547C43354E02440C2
:100BB000F582E43486F583E5822548F582E43583C1
:100BC000F583E0FFC313FEEF1313543F2EFF909005
:100BD000BDE0C454F02F2402FFE547C43354E024A1
:100BE00040F582E43486F583E5822548F582E435D4
:100BF00083F583EFF0E547C43354E02440F582E405
:100C00003486F583E5822548F582E43583F583E073
:100C1000C394C0401DE547C43354E02440F582E44A
:100C20003486F583E5822548F582E43583F58374BF
:100C3000C0F0E547C43354E02440F582E43486F53F
:100C400083E5822548F582E43583F583E02410FFAF
:100C5000E433FEEF7806CEA2E713CE13D8F8FF9068
:100C600090BDF0BF0305755105800F9090BDE0FF6A
:100C7000B4020575510380028F51D39090B7E09470
:100C8000059090B6E094004003E4F551E547C43385
:100C900054E024C3F582E4348BF583E5822548F5DE
:100CA00082E43583F583E551F0FBAD48AF4712A6EA
:100CB0006CE547C43354E02405F582E4348FF583B2
:100CC000E5822548F582E43583F583E0D39405E594
:100CD00047501DC43354E02405F582E4348FF58376
:100CE000E5822548F582E43583F583E004F0801A37
:100CF000C43354E02405F582E4348FF583E582257E
:100D000048F582E43583F583E4F075F0E0E547A427
:100D10002408F582E5F03489F58375F007E548127B
:100D200085FAE09090BAF09090B6E0FEA3E0FFC3A1
:100D300074FF9FFF74FF9EFEE54775F040A42405F5
:100D4000F582E4348DF58375F002E5481285FAE00A
:100D5000FCA3E0D39FEC9E50279090B6E0FEA3E06A
:100D6000FFE54775F040A42405F582E4348DF58352
:100D700075F002E5481285FAEE8FF012851C801C92
:100D8000E54775F040A42405F582E4348DF58375BC
:100D9000F002E5481285FA74FFF0A3F0E54775F01C
:100DA00040A42443F582E4348BF58375F002E548D2
:100DB0001285FAE0FEA3E0FFC374FF9FFF74FF9E5D
:100DC000FEE54775F040A42485F582E4348DF58373
:100DD00075F002E5481285FAE0FCA3E0D39FEC9E93
:100DE000E54775F0405036A42443F582E4348BF592
:100DF0008375F002E5481285FAE0FEA3E0FFE547BF
:100E000075F040A42485F582E4348DF58375F002F5
:100E1000E5481285FAEE8FF012851C8017A4248510
:100E2000F582E4348DF58375F002E5481285FA7495
:100E3000FFF0A3F0E47881F67881E6FFC3940550D3
:100E400014AB4CAA4DA94E8F82758300E41284FA2C
:100E500078810680E3E54775F040A424C0F582E47C
:100E60003485F58375F002E5481285FAE4F0A3F0C5
:100E7000E54775F040A424C3F582E4348AF5837510
:100E8000F002E5481285FAE4F0A3F0E54775F0407A
:100E9000A42443F582E4348BF58375F002E548120F
:100EA00085FAE4F0A3F0054802450E228F2E90014A
:100EB000C4748CF0744EFFA3F074C4251DF58274C5
:100EC00001351CF583748CF074C5251DF582740101
:100ED000351CF583EFF0852E38E47880F67880E6CF
:100EE000FFC394045041E53825E0241AF8E6FC08D5
:100EF000E6FD7880E6FE2DFDE43CFC74342DF582A1
:100F000074013CF583E0FDE53825E025E02E24085A
:100F1000F8E6FEED5EFEE53825E025E02F2410F82A
:100F2000A60678800680B6E53825E025E02410F88E
:100F3000E620E00302514AE53825E0241AF8E6FEEF
:100F400008E62434F58274013EF5837401F0E53837
:100F5000701AE53825E0241AF8E6FE08E62450F574
:100F60008274023EF583E04404F08018E53825E001
:100F7000241AF8E6FE08E62450F58274023EF58352
:100F8000E054FBF085D13085D23185D33285D4331E
:100F900085D53485D63585D73685D937E53754405C
:100FA000C313FFE53654206F7003025096E53730C7
:100FB000E503025096E535541FF52FE530543F9078
:100FC0009099F0E534541FFFE53875F040A42403F0
:100FD000F582E4348CF58375F002E52F1285FAE48E
:100FE0008FF012851CE536541FFFE53875F040A4DC
:100FF00024C0F582E43485F58375F002E52F12856F
:10100000FAE48FF012851C909099E0D39404400389
:101010007404F0E536541FFF909099E0FE75F0A03F
:10102000E538A42400F582E5F03484F58375F005F5
:10103000E52F1285FAE5822EF582E43583F583E00B
:101040002FF0E53720E630E536541FFFE53875F020
:1010500040A424C3F582E4348AF58375F002E52FB9
:101060001285FAE48FF012851CE53230E748AD2F87
:10107000AF3812A0B1803FE536541FFFE53875F058
:1010800040A42443F582E4348BF58375F002E52F08
:101090001285FAE48FF012851CE53230E718E5324C
:1010A000547FFB909099E0F53DE536541FF53EAD39
:1010B0002FAF3812A1EA74242538F8E61424FD5025
:1010C0000302514A747B2538F582E43491F583E0BC
:1010D000700302513DE53825E0241AF8E6FE08E6E3
:1010E000245BF58274013EF583E4F0E53825E024C5
:1010F0001AF8E6FE08E6243CF58274013EF5837496
:1011000004F0AF3812B810EF6401705E9091A0F057
:10111000A3F0909165E09091A2F07D5812B967E537
:101120003825E0241AF8E6FE08E6245BF58274010F
:101130003EF5837405F0E53825E0241AF8E6FE084C
:10114000E62492F58274063EF5837401F0747725E7
:1011500038F582E43491F5837401F0800DAF3812D4
:10116000B810BF0105AF3812B534E53825E025E0E9
:101170002410F8E630E13EE53825E0241AF8E6FED2
:1011800008E62434F58274013EF5837402F09091F0
:1011900025E5D1F0A3E5D2F0A3E5D3F0A3E5D4F0A3
:1011A000A3E5D5F0A3E5D6F0A3E5D7F0A3E5D9F004
:1011B000AF3812B636E53825E025E02410F8E630E1
:1011C000E317E53825E0241AF8E6FE08E62434F5AE
:1011D0008274013EF5837408F0E53825E025E024AB
:1011E00010F8E630E42EE53825E0241AF8E6FE088B
:1011F000E62434F58274013EF5837410F0741825EA
:1012000038F8E64410F674112538F582E43491F587
:1012100083E004F0E53825E025E02410F8E630E628
:101220003DE53825E0241AF8E6FE08E62434F58288
:1012300074013EF5837440F0909195E030E00C131A
:1012400013543F30E005E4909197F090918FE03097
:10125000E00C1313543F30E005E4909191F0E53831
:1012600025E025E02410F8E620E5030252FBE538EE
:1012700025E0241AF8E6FE08E6FF24CFF582740183
:101280003EF583E030E75374CF2FF58274013EF5CD
:1012900083E0547FF0E53825E0241AF8E6FE08E6FE
:1012A0002434F58274013EF5837420F0900082E0CE
:1012B0004480FD7F8212B6B1900080E0547FFD7FB4
:1012C0008012B6B112B6A890001AE054FEFD7F1A43
:1012D00012B6B190FD00E04401F0E53825E0241A93
:1012E000F8E6FE08E6FF24CFF58274013EF583E0C0
:1012F00030E52874CF2FF58274013EF583E054DF8A
:10130000F0E53825E0241AF8E6FE08E62434F582F4
:1013100074013EF5837420F012B58FE53825E02581
:10132000E02412F8E630E017E53825E0241AF8E664
:10133000FE08E62435F58274013EF5837401F0E57C
:101340003825E025E02412F8E620E0030254479017
:10135000912F7401F0909124E0603E909108E01389
:1013600013135403701C909124F0E53825E0241ADF
:10137000F8E6FE08E62453F58274053EF583E04462
:1013800002F0E53825E0241AF8E6FE08E624FCF52C
:101390008274053EF583E004F0E53825E0241AF870
:1013A000E6FE08E62436F58274013EF5837401F00A
:1013B000909195E030E03390919A7401F09091957E
:1013C000E01313543F30E0229091977401F0AF384E
:1013D00012AEB9909196E06403600F7F0112A75B93
:1013E000EF60077D04AF381288EC90918FE030E019
:1013F0006C1313543F30E0659091917401F0AF3855
:1014000012AEB9E4FF12A75BEF6052AF3812B5E538
:10141000909190E0FF64066044EFB404028007906E
:101420009190E0B40504E4FD8014909190E0B40341
:10143000047D018009909190E0B402077D01AF38EE
:101440001242807D01AF3812428074222538F8E6BE
:10145000FD7B01AF38129580AF3812A4FBAF381274
:101460008799E490912FF0E53825E025E02412F8E3
:10147000E620E1030254EBE53825E0241AF8E6FE05
:1014800008E62436F58274013EF5837402F0741880
:101490002538F8E64440F6909108E0FF1313135402
:1014A00003700312A3FD90919AE0B4011AE5382568
:1014B000E0241AF8E6FE08E62422F58274053EF5DB
:1014C00083E4F090919AF090918FE030E01EE4FF79
:1014D00012A75BEF6016E53825E0241AF8E6FE084F
:1014E000E62422F58274053EF583E4F074C3251BDF
:1014F000F5827401351AF583E0B4EE0F74C1251B33
:10150000F5827401351AF583E004F0E53825E0250D
:10151000E02412F8E630E229E53825E0241AF8E65E
:10152000FE08E62436F58274013EF5837404F090DB
:10153000918FE030E006A3E064066005AF381290BA
:1015400063E53825E025E02412F8E620E3030255A0
:10155000B2E53825E0241AF8E6FE08E62436F582DE
:1015600074013EF5837408F0741E2538F8E66401B2
:10157000706074242538F8E66058E53825E0241AB0
:10158000F8E6FE08E62457F58274013EF583E4F0A0
:10159000E53825E0241AF8E6FE08E6243CF58274D6
:1015A000013EF5837402F0E49091A0F0A3F09091D5
:1015B00067E09091A2F07D5412B967E53825E024E8
:1015C0001AF8E6FE08E62457F58274013EF58374A6
:1015D00005F0E53825E025E02412F8E630E47BE567
:1015E0003825E0241AF8E6FE08E62436F582740170
:1015F0003EF5837410F0741E2538F8E66401705AC5
:1016000074242538F8E66052E53825E0241AF8E617
:10161000FE08E62457F58274013EF583E4F0E538D0
:1016200025E0241AF8E6FE08E6243CF58274013E23
:10163000F5837402F0747D2538F582E43491F583E6
:10164000E4F074262538F8E654FDF674262538F8BB
:10165000E654077005AF3812B534E53825E025E0CB
:101660002412F8E630E543E53825E0241AF8E6FED2
:1016700008E62436F58274013EF5837420F0741E6A
:101680002538F8E66401702274242538F8E6601ADB
:10169000747B2538F582E43491F583E06402AF3839
:1016A000600512AFDA800312A00DE53825E025E0D1
:1016B0002412F8E630E641E53825E0241AF8E6FE83
:1016C00008E62436F58274013EF5837440F0741EFA
:1016D0002538F8E66401702074242538F8E660188F
:1016E00074262538F8E654FEF674262538F8E654B4
:1016F000077005AF3812B534E53825E025E024132E
:10170000F8E630E13FE53825E0241AF8E6FE08E681
:101710002437F58274013EF5837402F090918FE0D6
:1017200030E01CE4FF12A75BEF600CAF3812B294FC
:10173000AF3812A4FB800D9091947401F08005AF36
:101740003812B2949001C4748CF0744EFFA3F074FC
:10175000C4251DF5827401351CF583748CF074C5A5
:10176000251DF5827401351CF583EFF022E4F54266
:101770009090B3F0758E02900080E04480FD7F80F1
:1017800012B6B112BA07EF5403FF909108E054FC6F
:101790004FF012B47590FE5FE02413F582E434FD3F
:1017A000AF82909115F0A3EFF0909116E02420FE07
:1017B000909115E03400909117F0A3CEF0E4F51A63
:1017C000F51B751C40F51DF518F519909109F0A34E
:1017D000F090911304F0A3F0E4909130F09090AF6A
:1017E000F0A3F0A3F0A3F0900080E04480FD7F80A0
:1017F00012B6B112BA63128F3E6342017D4DE542CB
:101800002D9001C4F07457FFA3F0E5422DFE74C47F
:10181000251DF5827401351CF583EEF074C5251D78
:10182000F5827401351CF583EFF012B475900081D8
:10183000E0C313540190910BF0900053E0C3135494
:101840000190910CF0900081E09090ABF0900053EB
:10185000E09090ACF09090ABE020E717909113E00F
:10186000700312B6A8E4909109F0F5189091130452
:10187000F08024909113E0B4011D851B82851A83AA
:10188000A3A3A3E030E710E4FF128337E4909113A1
:10189000F09090AFE004F09090ACE020E0209091C8
:1018A00014E0700C90001AE054FEFD7F1A12B6B1DD
:1018B000E490910AF0F51990911404F0803290911F
:1018C00008E01313135403D394004024909114E0C0
:1018D000B4011D851D82851C83A3A3A3E030E710FE
:1018E0007F01128337E4909114F09090B0E004F0FF
:1018F000E4F545909108E01313135403D39400408A
:1019000003754501E4F543E543D39545505E909159
:1019100009E07004E543605090910AE07006E543E9
:101920006401604474182543F8E630E612C2AF74CF
:10193000182543F8E654BFF6D2AFAF4312450974F9
:10194000182543F8E630E420C2AF74182543F8E6C2
:1019500054EFF6D2AF74B12543F582E43490F583A9
:10196000E004F0AF431271330543809B74C0251B24
:10197000F5827401351AF583E0F545E54554E064D8
:10198000A06003025B61E5455418131313541FF55F
:1019900046E4F544E5467066747B2544F582E434FC
:1019A00091F583E0FFE54425E0241AF8E6FC08E61B
:1019B0002430F58274063CF583EFF074242544F856
:1019C000E6FFE54425E0241AF8E6FC08E62431F5B4
:1019D0008274063CF583EFF074202544F8E6FFE5B9
:1019E0004425E0241AF8E6FC08E62432F582740661
:1019F0003CF583EFF074222544F8E6025B3FE546B0
:101A00006401706C74262544F8E6FFE54425E02463
:101A10001AF8E6FC08E62430F58274063CF583EFFC
:101A2000F0741E2544F8E6FFE54425E0241AF8E6A4
:101A3000FC08E62431F58274063CF583EFF07477F8
:101A40002544F582E43491F583E0FFE54425E02464
:101A50001AF8E6FC08E62432F58274063CF583EFBA
:101A6000F074752544F582E43491F583E0025B3F20
:101A7000E5466402707474792544F582E43491F586
:101A800083E0FFE54425E0241AF8E6FC08E624306C
:101A9000F58274063CF583EFF0745D2544F582E42D
:101AA0003491F583E0FFE54425E0241AF8E6FC08CC
:101AB000E62431F58274063CF583EFF0747D25440D
:101AC000F582E43491F583E0FFE54425E0241AF83B
:101AD000E6FC08E62432F58274063CF583EFF090CC
:101AE0009108E01313135403807574612544F58243
:101AF000E43491F583E0FFE54425E0241AF8E6FCA0
:101B000008E62430F58274063CF583EFF0745F2517
:101B100044F582E43491F583E0FFE54425E0241A9E
:101B2000F8E6FC08E62431F58274063CF583EFF014
:101B300074712544F582E43491F583E0FFE5442592
:101B4000E0241AF8E6FC08E62432F58274063CF537
:101B500083EFF074732544F582E43491F583E0FF5C
:101B6000E54425E0241AF8E6FC08E62433F58274FF
:101B7000063CF583EFF00544E54464026003025936
:101B800074E54554E064206003025E53E545541853
:101B9000131313541FF546E4F544E545540790909C
:101BA000AAF0E546706F75F0E0E544A42405F582DF
:101BB000E5F03489F583C083C0829090AAE0D0829A
:101BC000D08375F0071285FAE0FCA3E0FDE544251B
:101BD000E0241AF8E6FE08E6FFEEC313FEEF132535
:101BE000E0FFEE33FE74302FF58274063EF583EC91
:101BF000F0A3EDF075F0E0E544A42403F582E5F0F0
:101C00003489F583C083C0829090AAE0D082D083CB
:101C100075F0078074E54664016003025C9BE5444F
:101C200075F040A42405F582E4348EF583C083C0AA
:101C3000829090AAE0D082D08375F0021285FAE0FB
:101C4000FCA3E0FDE54425E0241AF8E6FE08E6FFE3
:101C5000EEC313FEEF1325E0FFEE33FE74302FF5D5
:101C60008274063EF583ECF0A3EDF0E54475F04098
:101C7000A42480F582E43487F583C083C0829090E9
:101C8000AAE0D082D08375F0021285FAE0FCA3E0CE
:101C9000FDE54425E0241AF8E6FE08E6FFEEC3134E
:101CA000FEEF1325E0FFEE33FE74322FF58274064B
:101CB0003EF583ECF0A3EDF0025E48E54664026079
:101CC00003025D9575F0E0E544A42407F582E5F094
:101CD0003489F583C083C0829090AAE0D082D083FB
:101CE00075F0071285FAE0FFE54425E0241AF8E6CE
:101CF000FC08E62430F58274063CF583EFF075F0BD
:101D0000E0E544A42408F582E5F03489F583C08336
:101D1000C0829090AAE0D082D08375F0071285FA35
:101D2000E0FFE54425E0241AF8E6FC08E62431F556
:101D30008274063CF583EFF075F0E0E544A42409D5
:101D4000F582E5F03489F583C083C0829090AAE0E3
:101D5000FFD082D08375F0071285FAE05401C433B6
:101D600054E0FEEF4EFFE54425E0241AF8E6FC08B7
:101D7000E62432F58274063CF583EFF09090AAE0F9
:101D8000FFE544C43354E02400F582E43488F5834D
:101D9000E5822FF582E43583F583E0FFE54425E015
:101DA000241AF8E6FC08E62433F58274063CF58331
:101DB000EFF0025E48E54425E0241AF8E6FE08E666
:101DC000FF9090AAE0F92FFDE43EFC74842DF5828B
:101DD00074043CF583E0FD74302FF58274063EF503
:101DE00083EDF0E544C43354E02480F582E4348686
:101DF000F583E58229F582E43583F583E0FFE54448
:101E000025E0241AF8E6FC08E62431F58274063C45
:101E1000F583EFF0E544C43354E02440F582E43424
:101E200088F583E58229F582E43583F583E0FFE5D3
:101E30004425E0241AF8E6FC08E62432F58274060C
:101E40003CF583EFF0740D2544F582E43491F5837D
:101E5000E0FFE54425E0241AF8E6FC08E62433F523
:101E60008274063CF583EFF00544E54464026003A8
:101E7000025B7A900018E09090ADF090001AE0902C
:101E800090AEF0E54554E0644060030257D9E54563
:101E90005418131313541FF546E4F544E544D39442
:101EA0000040030257D9E5466003025F1C74AB256E
:101EB00044F582E43490F583E0FFE54425E0241AFC
:101EC000F8E6FC08E62430F58274063CF583EFF072
:101ED00074092544F582E43491F583E0FFE5442557
:101EE000E0241AF8E6FC08E62431F58274063CF595
:101EF00083EFF074132544F582E43491F583E0FF19
:101F0000E54425E0241AF8E6FC08E62432F582745C
:101F1000063CF583EFF074AD2544F582E43490F58A
:101F200083E0FFE54425E0241AF8E6FC08E62433C4
:101F3000F58274063CF583EFF0025FEDE54664013F
:101F40006003025FA474AF2544F582E43490F58306
:101F5000E0FFE54425E0241AF8E6FC08E62430F525
:101F60008274063CF583EFF074B12544F582E434C5
:101F700090F583E0FFE54425E0241AF8E6FC08E646
:101F80002431F58274063CF583EFF074112544F595
:101F900082E43491F583E0FFE54425E0241AF8E675
:101FA000FC08E62432F58274063CF583EFF07418E1
:101FB0002544F8E6FFE54425E0241AF8E6FC08E6A7
:101FC00024338040E54664027043740B2544F58257
:101FD000E43491F583E0FFE54425E0241AF8E6FCBB
:101FE00008E62430F58274063CF583EFF090910802
:101FF000E01313135403FFE54425E0241AF8E6FC2C
:1020000008E62431F58274063CF583EFF0054402BE
:102010005E7C8F2E9001C474F2F0745FFFA3F074A5
:10202000C4251DF5827401351CF58374F2F074C566
:10203000251DF5827401351CF583EFF0E4FFE52ED4
:1020400025E0241AF8E6FC08E6FDEF2DFDE43CFC53
:10205000743C2DF58274013CF583E0FE75F004E5D7
:102060002EA42FF582E435F0F583E58224EFF58286
:10207000E5833490F583E0FDEE5DFE75F004E52E1A
:10208000A42FF582E435F0F583E58224F7F582E5A7
:10209000833490F583EEF00FBF04A3E52E25E025F1
:1020A000E024F7F582E43490F583E030E069E52E32
:1020B00025E0241AF8E6FE08E6243CF58274013E89
:1020C000F5837401F0909195E030E0231313543FB1
:1020D00030E01CE4909197F0909196E06403600FDB
:1020E0007F0112A75BEF70077D02AF2E1288EC9084
:1020F000918FE030E0211313543F30E01AE49091C7
:1021000091F0909190E06406600DE4FF12A75BEF00
:102110007005AF2E12AC21E52E25E025E024F7F561
:1021200082E43490F583E030E11CE52E25E0241AAA
:10213000F8E6FE08E6243CF58274013EF58374025D
:10214000F0AF2E129493E52E25E025E024F7F582DA
:10215000E43490F583E020E2030261C7E52E25E038
:10216000241AF8E6FE08E6243CF58274013EF58365
:102170007404F0E52E25E0241AF8E6FE08E6249221
:10218000F58274063EF583E030E04AE49091A0F0D9
:10219000A3F0909165E09091A2F0E4FB7D587C0162
:1021A000AF2E12B96DE52E25E0241AF8E6FE08E6FA
:1021B000245BF58274013EF5837405F0E52E25E07D
:1021C000241AF8E6FE08E62492F58274063EF583AA
:1021D0007401F080127477252EF582E43491F58332
:1021E000E4F0AF2E12B534E52E25E025E024F7F516
:1021F00082E43490F583E020E303026268E52E2553
:10220000E0241AF8E6FE08E6243CF58274013EF567
:10221000837408F0E52E25E0241AF8E6FE08E6248B
:1022200092F58274063EF583E030E14AE49091A095
:10223000F0A3F0909165E09091A2F0E4FB7D5C7CCE
:1022400001AF2E12B96DE52E25E0241AF8E6FE083E
:10225000E6245FF58274013EF5837405F0E52E25D2
:10226000E0241AF8E6FE08E62492F58274063EF5AC
:10227000837402F080127475252EF582E43491F592
:1022800083E4F0AF2E12B534E52E25E025E024F7E7
:10229000F582E43490F583E030E41CE52E25E0245B
:1022A0001AF8E6FE08E6243CF58274013EF58374D4
:1022B00010F0AF2E12A9ECE52E25E025E024F7F56D
:1022C00082E43490F583E030E517E52E25E0241A0A
:1022D000F8E6FE08E6243CF58274013EF58374209E
:1022E000F0E52E25E025E024F8F582E43490F5832E
:1022F000E030E44EE52E25E0241AF8E6FE08E62458
:102300003DF58274013EF5837410F0909123E060F6
:1023100031E4F0E52E25E0241AF8E6FE08E6245321
:10232000F58274053EF583E04401F0E52E25E024B6
:102330001AF8E6FE08E624FDF58274053EF583E012
:1023400004F0E52E25E025E024F9F582E43490F54B
:1023500083E020E003026445E52E25E0241AF8E638
:10236000FE08E6243EF58274013EF5837401F09088
:102370009195E030E07AE4909199F0909196E06444
:1023800003600F7F0112A75BEF60077D01AF2E1284
:1023900088EC90918FE030E057E4909193F0FF1239
:1023A000A75BEF604BAF2E12B5E5909190E0FF6414
:1023B00006603DEFB404028007909190E0B40504FC
:1023C000E4FD8014909190E0B403047D01800990B5
:1023D0009190E0B402077D01AF2E12428074222555
:1023E0002EF8E6FD7B01AF2E129580AF2E12A4FBD6
:1023F000E52E25E025E024F9F582E43490F583E02C
:1024000030E162E52E25E0241AF8E6FE08E6243ED7
:10241000F58274013EF5837402F0909195E030E00E
:102420001D9091997401F0909196E06403600F7F84
:102430000112A75BEF70077D02AF2E1288EC90911E
:102440008FE030E0209091937401F0AF2E128E0750
:10245000909190E06406600DE4FF12A75BEF7005B9
:10246000AF2E12AC219001C474F2F0745FFFA3F0A0
:1024700074C4251DF5827401351CF58374F2F07463
:10248000C5251DF5827401351CF583EFF0228F48B8
:102490008D49E548C43354E02400F582E43488F5DE
:1024A00083E5822549F582E43583F583E0FF24F94D
:1024B000500924FB24FC5033026523EF25E025E07E
:1024C00024ECF582E43441F583E493F54D740193F3
:1024D000F54EEF25E025E024EEF582E43441F58366
:1024E000E493F54F740193F5508058E54825E024B6
:1024F0001AF8E6FC08E6FD2453F58274043CF583E3
:10250000E0FE74522DF58274043CF583E07C0024D7
:1025100000F550EC3EF54FE54825E0241AF8E6FCBE
:1025200008E6FD2451F58274043CF583E0FE745006
:102530002DF58274043CF583E07C002400F54EEC1C
:102540003EF54D75F0E0E548A42405F582E5F0344C
:1025500089F58375F007E5491285FAE0524DA3E04D
:10256000524E75F0E0E548A42403F582E5F0348985
:10257000F58375F007E5491285FAE0524FA3E05262
:1025800050E550454F6031754A0B74017E00A84AF2
:10259000088005C333CE33CED8F9FFE54F5EFEE5A4
:1025A000505F4E6008E54A2410F54B8042154AE51D
:1025B0004AC3940050D48037E54E454D602E754A8D
:1025C0000F74017E00A84A088005C333CE33CED8ED
:1025D000F9FFE54D5EFEE54E5F4E6005854A4B8096
:1025E0000E154AE54AC3940050D78003E4F54BE545
:1025F0004E454D602CE4F54A74017E00A84A0880DF
:1026000005C333CE33CED8F9FFE54D5EFEE54E5F10
:102610004E6005854A4C8041054AE54AB410D98090
:1026200038E550454F602FE4F54A74017E00A84A12
:10263000088005C333CE33CED8F9FFE54F5EFEE503
:10264000505F4E6008E54A2410F54C800C054AE5C1
:102650004AB40CD68003E4F54CE54B654C705BE561
:102660004B7057E548C43354E02400F582E43488C5
:10267000F583E5822549F582E43583F583E0B407E7
:1026800000503790666AF828287302668B026681CC
:1026900002668B02668302668B02668D02668B8001
:1026A00014800A754B0C754C0C800F8008754B0418
:1026B000754C048005E4F54BF54C75F0E0E548A455
:1026C0002407F582E5F03489F58375F007E54912B2
:1026D00085FAE54BF075F0E0E548A42408F582E5BD
:1026E000F03489F58375F007E5491285FAE54CF079
:1026F000E54825E0241AF8E6FE08E62549FFE43E11
:10270000FE74842FF58274043EF583E0D3954B402C
:102710001FE548C43354E02445F582E4348FF58343
:10272000E5822549F582E43583F583E54B12B562F0
:10273000E54825E0241AF8E6FE08E62549FFE43ED0
:10274000FE74842FF58274043EF583E0C3954C50EB
:102750001FE548C43354E02445F582E4348FF58303
:10276000E5822549F582E43583F583E54C12B562AF
:10277000AD49AF481298DCE54BD394134010740177
:102780002548F582E43489F5837403F08039E54BFC
:10279000D3940B401074012548F582E43489F58305
:1027A0007402F08022E54BD394037401400E254857
:1027B000F582E43489F5837401F0800B2548F582B5
:1027C000E43489F583E4F0E54875F040A42405F588
:1027D00082E4348EF58375F002E5491285FAE54D01
:1027E000F0A3E54EF0E54875F040A42480F582E4BE
:1027F0003487F58375F002E5491285FAE54FF0A3B9
:10280000E550F0228F517B18E4FDFF1293A68F4C08
:102810008E4B8D4A8C497B0BE4FDFF1293A6909062
:10282000C21285BD7B18E4FD7F011293A68F508EE6
:102830004F8D4E8C4D7B0BE4FD7F011293A6909043
:10284000C61285BDE55164017D337C0B701FFF12FC
:10285000B683EF4408FB7D337C0BE4FF12B7517D58
:10286000337C0B7F0112B683EF4408801EE4FF1215
:10287000B683EF54F7FB7D337C0BE4FF12B7517D39
:10288000337C0B7F0112B683EF54F7FB7D337C0B57
:102890007F0112B751854C62AF4CAE4BAD4AAC498B
:1028A00078081285978F63AF4CAE4BAD4AAC497830
:1028B000101285978F647B18E4FDFF12AD7B90901A
:1028C000C2A3A3A3E0F5629090C2E0FCA3E0FDA345
:1028D000E0FEA3E0FF78081285978F639090C2E036
:1028E000FCA3E0FDA3E0FEA3E0FF78101285978F24
:1028F000647B0BE4FDFF12AD7B855062AF50AE4FA1
:10290000AD4EAC4D78081285978F63AF50AE4FAD8A
:102910004EAC4D78101285978F647B18E4FD7F01D3
:1029200012AD7B9090C6A3A3A3E0F5629090C6E0A1
:10293000FCA3E0FDA3E0FEA3E0FF78081285978FDB
:10294000639090C6E0FCA3E0FDA3E0FEA3E0FF7867
:10295000101285978F647B0BE4FD7F0112AD7BAD78
:102960004CE4FF127CC2AD507F01127CC2E5517570
:10297000F014A42462F582E43490F583E0FBC003F4
:102980007D317C0EE4FF12B683EF54FCFFE55175F8
:10299000F014A42463F582E43490F583E04FFFC083
:1029A00007E55175F014A42464F582E43490F583AE
:1029B000E0FFC0077D337C0EE4FF12B683EF54FCCA
:1029C000FFE55175F014A42465F582E43490F58395
:1029D000E04FF55ED05DD05CD0037D307C0EE4FF2F
:1029E00012A8B3E55175F014A42466F582E434907E
:1029F000F583E0FBE55175F014A42467F582E43417
:102A000090F583E0FFE55175F014A42468F582E4A5
:102A10003490F583E0FEE55175F014A42469F58245
:102A2000E43490F583E0F55E8E5D8F5C7D147C0C64
:102A3000E4FF12A8B3E55175F014A4246AF582E40A
:102A40003490F583E0FB7DA37C0CE4FF12B751E5E5
:102A50005175F014A4246BF582E43490F583E0FB07
:102A6000E55175F014A4246CF582E43490F583E00C
:102A7000FFE55175F014A4246DF582E43490F583DC
:102A8000E0FEE55175F014A4246EF582E43490F56F
:102A900083E0F55E8E5D8F5C7D807C0C7F0112A8EB
:102AA000B37D4F7C0C7F0112B683EF54F0FFE551EC
:102AB00075F014A4246FF582E43490F583E04FFBA5
:102AC0007D4F7C0C7F0112B751E55175F014A424A1
:102AD00070F582E43490F583E0FB7D977C0C7F01F8
:102AE00012B751E55175F014A42471F582E43490C5
:102AF000F583E0FBE55175F014A42472F582E4340B
:102B000090F583E0FFE55175F014A42473F582E499
:102B10003490F583E0FEE55175F014A42474F58239
:102B2000E43490F583E0F55E8E5D8F5C7D147C0C63
:102B30007F0112A8B3E55175F014A42475F582E461
:102B40003490F583E0FB7DA37C0C7F0102B751D369
:102B500010AF01C3C0D09090C2EFF08B488A498972
:102B60004AE4F54B123405C31320E003026CB8129B
:102B70003405FF5402FE909195E054FD4EFEF0EFB7
:102B80005401FFEE54FE4FFFF0123405FE5408FDD1
:102B9000EF54F74DFF909195F0EE5410FEEF54EF87
:102BA0004EFFF0123405FE5420FDEF54DF4DFF9030
:102BB0009195F0EE5440FEEF54BF4EF020E003023A
:102BC0006C9312B4D5754B21AB48AA49A94A12346B
:102BD00005FF13135401FE909195E0FD131354016A
:102BE0006E6044EF5404FFED54FB4FF0E0131354B8
:102BF0003F30E0229090C2E0FF25E0241AF8E6FC86
:102C000008E62434F58274013CF5837440F0FBE45B
:102C1000FD12B3728011E4909197F09090C2E0FFA2
:102C20007B40E4FD12B2CD909195E0FF1313135455
:102C30001F30E003434B12EFC4540F30E003434B0B
:102C400014909195E0C413540730E003434B8090F7
:102C50009195E0C41313540320E003434B4090903C
:102C6000C2E0FF25E0241AF8E6FC08E62427F582F6
:102C700074053CF583E54BF0909196E070057D017D
:102C80001288EC909195E0C41313540330E009903E
:102C900090C2E0FF7D0380157F0112A75BEF90904B
:102CA000C26006E0FF7D018004E0FF7D021288EC37
:102CB000026E55754B019090C2E0FF25E0241AF892
:102CC000E6FC08E62427F58274053CF583E54BF025
:102CD000E4FD1288EC026E52AB48AA49A94A1234AC
:102CE00005FF5402FE90918FE054FD4EFEF0EF542C
:102CF00001FFEE54FE4FFFF0123405FE5408FDEFC5
:102D000054F74DFF90918FF0EE5410FEEF54EF4EBC
:102D1000FFF01234055440FEEF54BF4E90918FF0F7
:102D200020E003026DFD12B4D5754B31AB48AA49C2
:102D3000A94A123405FF13135401FE90918FE0FD50
:102D4000131354016E6022EF5404FFED54FB4FF057
:102D5000E01313543F20E011E4909191F09090C261
:102D6000E0FF7B40E4FD12B2CD90918FE0FF1313A2
:102D700013541F30E003434B02EFC4540F30E00301
:102D8000434B04E54B540660209090C2E0FF25E0E1
:102D9000241AF8E6FC08E6243EF58274013CF5832B
:102DA0007403F0FB7D0212ACD19090C2E0FF25E0ED
:102DB000241AF8E6FC08E62427F58274053CF5831E
:102DC000E54BF090918FE0FEC41313540330E011F3
:102DD000A3E064067003026E557D06124280026E07
:102DE00055909190E06406702A9090C2E0FF7D01BA
:102DF000124280E4FF12A75BEF9090C2600EE0FFEA
:102E00002422F8E6FD7B011295808007E0FF12ACDA
:102E10002180629090C2E0FF12A4FB8058754B01A4
:102E20009090C2E0FF25E0241AF8E6FC08E624278B
:102E3000F58274053CF583E54BF07B037D0212AB14
:102E4000C7909190E0B406099090C2E0FF7D0180A8
:102E50000E909190E0B4040A9090C2E0FFE4FD125D
:102E600042809090C2E0FF12B9989090C2E0FF12A9
:102E7000B53412B4D5D0D092AF228F48E4F549E5ED
:102E80004825E0241AF8E6FE08E62549FFE43EFE60
:102E900074A42FF58274043EF583E4F00549E549F6
:102EA000B410DCE4F549E4FF75F0A0E548A4240083
:102EB000F582E5F03484F58375F005E5491285FA6D
:102EC000E5822FF582E43583F583E4F00FBF05D862
:102ED000E548C43354E02445F582E4348FF583E5B6
:102EE000822549F582E43583F5837413F0E548C4FF
:102EF0003354E024C5F582E4348CF583E58225491A
:102F0000F582E43583F583E4F0E548C43354E024E6
:102F100040F582E43486F583E5822549F582E4357F
:102F200083F58374C0F0E54875F040A424C0F582B1
:102F3000E43485F58375F002E5491285FAE4F0A3DF
:102F4000F0E54875F040A424C3F582E4348AF583A3
:102F500075F002E5491285FAE4F0A3F0E54875F052
:102F600040A42403F582E4348CF58375F002E5492E
:102F70001285FAE4F0A3F0E54875F040A42443F587
:102F800082E4348BF58375F002E5491285FAE4F0AA
:102F9000A3F0E54875F040A42405F582E4348DF5EE
:102FA0008375F002E5491285FAE4F0A3F0E548756F
:102FB000F040A42485F582E4348DF58375F002E5B4
:102FC000491285FAE4F0A3F0E548C43354E02480C4
:102FD000F582E43486F583E5822549F582E435837C
:102FE000F583E4F0E548C43354E024C5F582E434C5
:102FF0008EF583E5822549F582E43583F583E4F097
:10300000E548C43354E02485F582E4348EF583E545
:10301000822549F582E43583F583E4F0E548C4333D
:1030200054E02405F582E4348FF583E5822549F5E3
:1030300082E43583F583E4F09041AC93FE74019310
:10304000FF9041747401932FFFE4933EC313FEEF8E
:1030500013FFE54875F040A42480F582E43488F538
:103060008375F002E5491285FAEEF0A3EFF075F0F2
:10307000E0E548A42409F582E5F03489F58375F08C
:1030800007E5491285FAE04401F0E548C43354E00D
:103090002400F582E43488F583E5822549F582E44D
:1030A0003583F583740CF075F0E0E548A42405F54C
:1030B00082E5F03489F58375F007E5491285FA74E5
:1030C000FFF0A3F075F0E0E548A42403F582E5F0F5
:1030D0003489F58375F007E5491285FAE4F0A374A5
:1030E0000FF075F0E0E548A42407F582E5F0348997
:1030F000F58375F007E5491285FA7413F075F0E071
:10310000E548A42408F582E5F03489F58375F007D5
:10311000E5491285FAE4F0E549541FFFE54825E04A
:10312000241AF8E6FC08E62FFFE43CFE74842FF531
:103130008274043EF5837413F00549E54964206008
:1031400003026E86740D2548F582E43491F583748C
:1031500020F0228F47EF25E0241AF8E6FE08E62447
:10316000CCF58274013EF583E0540FFF74B425471B
:10317000F582E43490F583EFF074B42547F582E4EA
:103180003490F583E0FD7003027401740F2547F558
:1031900082E43491F583E0FF74017E00A807088083
:1031A00005C333CE33CED8F9FFEF5D70030273E170
:1031B000740F2547F582E43491F583E075F004A49B
:1031C000FFE54725E0241AF8E6FC08E62FFFE5F0C6
:1031D0003CFE74D02FF58274013EF583E09090B6EA
:1031E000F0756D01756E90756FB67570017B017A23
:1031F0009079B712AA519090B7E0F9C41313135401
:103200000120E0030272C7740F2547F582E4349170
:10321000F583E075F002A4FFE54725E0241AF8E6FF
:10322000FC08E6FD2FFFE5F03CFE74882FF582E4F4
:103230003EF583E09090B8F0740F2547F582E434B2
:1032400091F583E075F002A42DFFE5F03CFE748952
:103250002FF582E43EF583E09090B9F0740F254796
:10326000F582E43491F583E075F004A4FFE5472589
:10327000E0241AF8E6FC08E6FD2FFFE5F03CFE74BA
:10328000D12FF58274013EF583E09090BAF0740F6F
:103290002547F582E43491F583E075F004A42DFF11
:1032A000E5F03CFE74D22FF58274013EF583E09088
:1032B00090BBF0740F2547F582E43491F583E075F7
:1032C000F004A4FFE54725E0241AF8E6FC08E62F01
:1032D000FFE5F03CFE74D32FF58274013EF583E0E8
:1032E0009090BCF002734F740F2547F582E434913F
:1032F000F583E075F004A4FFE54725E0241AF8E61D
:10330000FC08E6FD2FFFE5F03CFE74D12FF582743A
:10331000013EF583E09090B8F0740F2547F582E404
:103320003491F583E075F004A42DFFE5F03CFE74C4
:10333000D22FF58274013EF583E09090B9F0740FBE
:103340002547F582E43491F583E075F004A4FFE5A8
:103350004725E0241AF8E6FC08E62FFFE5F03CFEDE
:1033600074D32FF58274013EF583E09090BAF0E9B2
:10337000547FFF7B017A9079B89090C1E547F012B5
:1033800076BD74B42547F582E43490F583C083C0DC
:1033900082E0FF740F2547F582E43491F583E0FE67
:1033A0007401A806088002C333D8FCF45FD082D031
:1033B00083F0740F2547F582E43491F583E0FF74C0
:1033C00001A807088002C333D8FCFFE54725E024A5
:1033D0001AF8E6FC08E624CCF58274013CF583EF8C
:1033E000F0740F2547F582E43491F583E004F0741E
:1033F0000F2547F582E43491F583E05403F0027120
:103400005974C6251BF5827401351AF583E0440210
:10341000F074C6251DF5827401351CF583E0440265
:10342000F0228F528D5312B8A5EF547FF554541FDC
:10343000F55575F0E0E552A42407F582E5F03489EE
:10344000F58375F007E5531285FAE0FF9090BFF021
:10345000E55275F040A42480F582E43487F5837545
:10346000F002E5531285FAE0FDA3E09090C0CDF0A4
:10347000A3EDF0E55275F040A42405F582E4348E06
:10348000F58375F002E5531285FAE0FDA3E0909014
:10349000C2CDF0A3EDF0E55525E0243EF582E434FD
:1034A00041F583E493FC740193FDE55275F040A46B
:1034B0002480F582E43488F58375F002E5531285A3
:1034C000FAECF0A3EDF0E555C39F4003027572E5F9
:1034D00052C43354E02485F582E4348FF583E582C9
:1034E0002553F582E43583F583E555F0049090BECD
:1034F000F09090BFE0FF9090BEE0FED39F400302AB
:1035000075C3EEC394104021EE24F0FF74017E00D9
:10351000A807088005C333CE33CED8F9FF9090C0FA
:10352000E05EFEA3E05F4E70279090BEE0FFC39484
:1035300010505674017E00A807088005C333CE33AF
:10354000CED8F9FF9090C2E05EFEA3E05F4E6039F6
:103550009090BEE0B4110D9090C1E030E7069090DD
:10356000BE7417F09090BEE0FF64136004EFB412D5
:103570000D9090C0E030E0069090BE7418F09090EE
:10358000BEE0F555855554805A9090BEE004F00297
:1035900074D19090BFE065556003027610E552C487
:1035A0003354E02485F582E4348FF583E582255396
:1035B000F582E43583F583E555F075F0E0E552A436
:1035C0002409F582E5F03489F58375F007E5531297
:1035D00085FAE030E00DE55430E602FF22E555447F
:1035E00040F554E55525E02476F582E43441F58331
:1035F000E493FE740193FFE55525E0243EF582E453
:103600003441F5837401932FFFE4933EC313FEEF1F
:1036100013FFE55275F040A42480F582E43488F568
:103620008375F002E5531285FAEEF0A3EFF080788F
:103630009090BFE0FFE555D39F406DE552C43354F1
:10364000E02485F582E4348FF583E5822553F58205
:10365000E43583F583EFF08F558F54EF25E0247622
:10366000F582E43441F583E493FE740193FFE5555C
:1036700025E0243EF582E43441F5837401932FFF65
:10368000E4933EC313FEEF13FFE55275F040A4240C
:1036900080F582E43488F58375F002E5531285FAEB
:1036A000EEF0A3EFF0AF5422E552C43354E024808F
:1036B000F582E43486F583E5822553F582E435838B
:1036C000F583E4F0E5544480FBAD53AF5212B56886
:1036D000AD53AF521298DCE5544480FF229090BD68
:1036E000EFF0A3EBF0A3EAF0A3E9F09001C474BDFE
:1036F000F07476FFA3F074C4251DF5827401351CA7
:10370000F58374BDF074C5251DF5827401351CF573
:1037100083EFF09090BDE0128606774A017734027D
:10372000779D0377B30577C90678AF0777DF08770A
:10373000F509780B0B78210F783613784B18785BE6
:103740001978701A77601D77711E77872178852B1D
:10375000000078959090C1E0FF9090BEE0FBA3E060
:10376000FAA3E0F912BA2C0278AF9090C1E0FF9072
:1037700090BEE0FBA3E0FAA3E0F912B3A70278AF92
:103780009090BEE0FBA3E0FAA3E0F912AF4E0278FE
:10379000AF9090C1E0FF9090BEE0FBA3E0FAA3E001
:1037A000F912A6E50278AF9090C1E0FF9090BEE0DC
:1037B000FBA3E0FAA3E0F912AF040278AF9090C146
:1037C000E0FF9090BEE0FBA3E0FAA3E0F912A57839
:1037D0000278AF9090C1E0FF9090BEE0FBA3E0FACA
:1037E000A3E0F912AB6C0278AF9090C1E0FF90902B
:1037F000BEE0FBA3E0FAA3E0F912B33C0278AF907D
:1038000090C1E0FF9090BEE0FBA3E0FAA3E0F912C4
:103810006B2F0278AF9090C1E0FF9090BEE0FBA3C9
:10382000E0FAA3E0F9129EBF0278AF9090C1E0FFEA
:103830009090BEE0FBA3E0FAA3E0F9128A3C027884
:10384000AF9090C1E0FF9090BEE0FBA3E0FAA3E050
:10385000F912B5BB80799090C1E0FF9090BEE0FB7B
:10386000A3E0FAA3E0F912B4A580649090BEE0FB57
:10387000A3E0FAA3E0F912BA4B80549090C1E0FFA4
:103880009090BEE0FBA3E0FAA3E0F9128B83803FA7
:103890009090C1E0FF9090BEE0FBA3E0FAA3E0F9B6
:1038A00012AC7B802A9090BEE0FBA3E0FAA3E0F983
:1038B00012B9C5801A9090C1E025E0241AF8E6FEFE
:1038C00008E624C6F58274013EF583E04401F07DEC
:1038D000BDED24029001C4F074762402FFA3F0ED44
:1038E0002402FE74C4251DF5827401351CF583EE97
:1038F000F074C5251DF5827401351CF583EFF022A7
:103900008F697D787C08128CC8E56975F014A42451
:1039100031F582E43491F5831285BD7D047C0CAFD2
:1039200069128CC8E56975F014A42435F582E43475
:1039300091F5831285BD7D007C08AF69128CC8E5C6
:103940006975F014A42439F582E43491F583128565
:10395000BD7D307C0BAF69128CC8E56975F014A48D
:10396000243DF582E43491F5831285BDE4FBE569DD
:1039700075F014A42431F582E43491F583E0FCA3BE
:10398000E0FDA3E0FEA3E054C7FFED54C7FDEB75D7
:10399000F008A4F9F812859774EB2BF582E43490C3
:1039A000F583EFF00BBB04C69090EBE0FBA3E0F5D2
:1039B0005CA3E0F55DA3E0F55E7D787C08AF69125D
:1039C000A8B3E4FBE56975F014A42435F582E4346A
:1039D00091F583E0FCA3E0FDA3E0FEA3E0540FFF1C
:1039E000EB75F008A4F9F812859774EB2BF582E4D7
:1039F0003490F583EFF00BBB04CA9090EBE0FBA38F
:103A0000E0F55CA3E0F55DA3E0F55E7D047C0CAF22
:103A10006912A8B3E4FBE56975F014A42439F582B2
:103A2000E43491F583E0FCA3E0FDA3E0FEA3E044D1
:103A300002FFEB75F008A4F9F812859774EB2BF5EB
:103A400082E43490F583EFF00BBB04CA9090EBE076
:103A5000FBA3E0F55CA3E0F55DA3E0F55E7D007CF3
:103A600008AF6912A8B37BA07D327C0BAF6912B797
:103A7000517D707C0EAF69128CC8E56975F014A495
:103A80002441F582E43491F5831285BD755C25757A
:103A90005D1BE4F55E7BA07D707C0EAF6912A8B360
:103AA000E4F562F563F564FBFDAF6912AD7B9091BF
:103AB00008E0131313540320E10FE4F562F563F5F6
:103AC00064FB7D01AF6912AD7B909108E013131385
:103AD0005403FF7401C39F4018E01313135403FFF2
:103AE000BF0105E4909159F0E520D39402501B806A
:103AF0000DE520D394025012E5219402500C900061
:103B000011E054F6FD7F1112B6B1228F6990910831
:103B1000E01313135403FFBF010B909159E06401AC
:103B20007003027CC1900011E04409FD7F1112B6C0
:103B3000B1E4FBE56975F014A42431F582E4349115
:103B4000F583E0FCA3E0FDA3E0FEA3E0FFEB75F04E
:103B500008A4F9F812859774EB2BF582E43490F5FC
:103B600083EFF00BBB04CC9090EBE0FBA3E0F55CA3
:103B7000A3E0F55DA3E0F55E7D787C08AF6912A84F
:103B8000B3E4FBE56975F014A42435F582E43491BF
:103B9000F583E0FCA3E0FDA3E0FEA3E0FFEB75F0FE
:103BA00008A4F9F812859774EB2BF582E43490F5AC
:103BB00083EFF00BBB04CC9090EBE0FBA3E0F55C53
:103BC000A3E0F55DA3E0F55E7D047C0CAF6912A86F
:103BD000B3E4FBE56975F014A42439F582E434916B
:103BE000F583E0FCA3E0FDA3E0FEA3E0FFEB75F0AE
:103BF00008A4F9F812859774EB2BF582E43490F55C
:103C000083EFF00BBB04CC9090EBE0FBA3E0F55C02
:103C1000A3E0F55DA3E0F55E7D007C08AF6912A826
:103C2000B3E56975F014A4243DF582E43491F5837D
:103C3000E0FCA3E0FDA3E0FEA3E0FF78101285976F
:103C40009090EDEFF0FB7D327C0BAF6912B751E441
:103C5000FBE56975F014A42441F582E43491F58301
:103C6000E0FCA3E0FDA3E0FEA3E0FFEB75F008A4F9
:103C7000F9F812859774EB2BF582E43490F583EF15
:103C8000F00BBB04CC9090EBE0FBA3E0F55CA3E071
:103C9000F55DA3E0F55E7D707C0EAF6912A8B3758B
:103CA000629575632D756403E4FBFDAF6912AD7B0E
:103CB000909108E0131313540320E1127562957577
:103CC000632D756403E4FB7D01AF6912AD7B9091B8
:103CD00008E01313135403FFBF01069091597401B8
:103CE000F0228F528D537D037C0812B683EF54FC73
:103CF000FB7D037C08AF5212B7517D8E7C08AF521A
:103D000012B683EF44F0FB7D8E7C08AF5212B751A0
:103D10007D2D7C0DAF5212B683EF549F9090CAF068
:103D2000E553D3940E5003027DD8E5539495400596
:103D3000E0444080069090CAE04420FB7D2D7C0D3D
:103D4000AF5212B751E553D394407F0250027F0126
:103D50009090CBEFF0E47881F69090CBE075F03462
:103D6000A424C6F582E4348FF5837881E675F004E7
:103D70001285FAE0FCA3E0FDA3E0FEA3E0FFFB78E0
:103D800008128597AA079090CBE075F034A424C65A
:103D9000F582E4348FF5837881E6F975F0041285B5
:103DA000FAE0FCA3E0FDA3E0FEA3E0FF781012859B
:103DB000978F648A638B62748A29F582E43490F564
:103DC00083E0FBE4FDAF5212AD7B788106E6C3943D
:103DD0000D40867D8E7C08AF5212B683EF540FFBE8
:103DE0007D8E7C08AF5212B7517D037C08AF521212
:103DF000B683EF4402027E64E47881F67881E6F9C6
:103E0000C3940D505DE925E025E024C6F582E43435
:103E10008FF583E0FCA3E0FDA3E0FEA3E0FFFB78C9
:103E200008128597AA07E925E025E024C6F582E473
:103E3000348FF583E0FCA3E0FDA3E0FEA3E0FF7870
:103E4000101285978F648A638B62748A29F582E4E5
:103E50003490F583E0FBE4FDAF5212AD7B78810630
:103E6000809A7D8E7C08AF5212B683EF540FFB7D93
:103E70008E7C08AF5212B7517D037C08AF5212B648
:103E800083EF4403FB7D037C08AF5212B751228FAE
:103E9000528D538B54EF25E0241AF8E6FE08E62DE8
:103EA000FFE43EFE74842FF58274043EF583E054F3
:103EB0007FF555541FFF75F0E0E552A42408F58204
:103EC000E5F03489F58375F007E5531285FAE09043
:103ED00090BEF075F0E0E552A42407F582E5F034D9
:103EE00089F58375F007E5531285FAE0FE9090BFDF
:103EF000F0E55275F040A42405F582E4348EF58394
:103F000075F002ED1285FAE0FDA3E09090C0CDF0CF
:103F1000A3EDF0E55275F040A42480F582E43487E7
:103F2000F58375F002E5531285FAE0FDA3E0909069
:103F3000C2CDF0A3EDF0EFD39E40079090BFE0FF1D
:103F4000F555E5547003027FADAD54E55530E603F9
:103F50008F551DED6077EFD394004071E4F9EF14B5
:103F6000FC9090BEE0FFECD39F4053EC94104021B6
:103F7000EC24F0FF74017E00A807088005C333CE4F
:103F800033CED8F9FF9090C2E05EFEA3E05F4E70A2
:103F900023ECC39410502474017E00A8040880050B
:103FA000C333CE33CED8F9FF9090C0E05EFEA3E0DD
:103FB0005F4E60078C5509E96D60031C80A3E9C35F
:103FC0009D500A9090BEE0FFB504028F55E555253F
:103FD000E02476F582E43441F583E493FE740193A2
:103FE000FFE55525E0243EF582E43441F583740174
:103FF000932FFFE4933EC313FEEF13FFE55275F0DA
:1040000040A42480F582E43488F58375F002E553FA
:104010001285FAEEF0A3EFF0AB55AD53AF5212B5E7
:1040200068AD53AF521298DCAF55229090C5EFF0B7
:10403000A3EDF0A3EBF0A3E0FBA3E0FAA3E0F9907B
:1040400000031284BB54F0C4540F9090CBF0900046
:10405000041284BB5440C4131354039090CCF090CA
:1040600090C5E0FF75F0E0A42405F582E5F0348901
:10407000F583C083C0829090C6E0D082D08375F073
:10408000071285FAAD82AC839090CDECF0A3EDF0F1
:10409000EF75F0E0A42403F9748935F0FA9090C626
:1040A000E075F007A429F9EA35F0FA9090CF740191
:1040B000F0A3EAF0A3E9F09090C8A3E0FAA3E0F936
:1040C0009000031284BB540FFF9090CFE0FBA3E05D
:1040D000FAA3E0F9EF1284E89090C8E0FBA3E0FABD
:1040E000A3E0F99000021284BBFF9090CFE0FBA305
:1040F000E0FAA3E0F9900001EF1284FA9090C8E092
:10410000FBA3E0FAA3E0F99000011284BBFF9090BA
:10411000CDE0FCA3E0FDF5828C83EFF01234058D39
:10412000828C83A3F09090CBE0FE9090C6E0FD904F
:1041300090C5E0FFC43354E02400F582E43488F5F0
:1041400083E5822DF582E43583F583EEF09090C708
:10415000E05401FE75F0E0EFA42409F582E5F034A7
:1041600089F58375F007ED1285FAE054FE4EF0757F
:10417000F0E0EFA42409F582E5F03489F583C083EB
:10418000C0829090C6E0FED082D08375F007128581
:10419000FAE04402F09090CCE0540125E025E0FDE7
:1041A00075F0E0EFA42409F582E5F03489F5837514
:1041B000F007EE1285FAE054FB4DF09090C6E0FD5A
:1041C00002646E9090C2EFF0ED6401600302823BE6
:1041D000E0FF7B787D0212B2CD9090C2E0FF7B02BF
:1041E0007D0312B2CD9090C2E0FF25E0241AF8E6DC
:1041F000FC08E62457F58274013CF583E4F0EF25D2
:10420000E0241AF8E6FE08E6243CF58274013EF547
:10421000837402F07D0C12957990918FE030E00864
:104220009090C2E0FF12A4FB9090C2E0FF25E02432
:104230001AF8E6FC08E62404F58274063CF583E0EF
:10424000547FF0EF25E0241AF8E6FE08E6240AF58C
:104250008274063EF583E054F8F0229090C2E0FFAD
:1042600025E0241AF8E6FC08E62436F58274013CC1
:10427000F583747BF0EF25E0241AF8E6FE08E624C7
:1042800037F58274013EF5837402F09090C2E0FF2E
:104290007B7B7D0212B3729090C2E0FF7B027D03B4
:1042A00012B3729090C2E0FF25E0241AF8E6FC08F1
:1042B000E62404F58274063CF583E04480F0EF25A3
:1042C000E0241AF8E6FE08E6240AF58274063EF5B4
:1042D00083E04407F09090C2E0FF25E0246AF58275
:1042E000E43491F583E0A3E0FEEF25E0241AF8E63C
:1042F000FC08E62458F58274053CF583EEF09090B6
:10430000C2E0FF241EF8E630E03D74612FF582E440
:104310003491F583E0703F9090C2E02461F582E42F
:104320003491F583E004F074202FF8E6540FC39421
:104330000450057D0412957990918FE030E017903C
:1043400090C2E0FF02A4FB9090C2E02461F582E4F9
:104350003491F583E4F022D310AF01C3C0D08F476E
:10436000126E5A12ADCF741E2547F8E4F6AF47120D
:10437000965812B4D5AF47129F68E54725E0241A36
:10438000F8E6FE08E6FF24CFF58274013EF583C00F
:1043900083C082E0FD74CF2FF58274013EF583E087
:1043A000F4FFED5FD082D083F0AF4712AE6DE547EA
:1043B00025E0241AF8E6FE08E62464F58274013E3E
:1043C000F58374A0F0AF47129D5E12BA6CE547709A
:1043D0001AE54725E0241AF8E6FE08E62450F5829F
:1043E00074023EF583E04404F08018E54725E0249C
:1043F0001AF8E6FE08E62450F58274023EF583E0E2
:1044000054FBF09090B4E5D9F0AF47129CA9741119
:104410002547F582E43491F583E4F0740F2547F5E0
:1044200082E43491F583E4F074092547F582E4349D
:1044300091F5837401F074182547F8E4F6E54725F3
:10444000E0241AF8E6FE08E624CAF58274043EF574
:1044500083E0FF742D2547F582E43491F583EFF076
:10446000E54725E0241AF8E6FE08E624CBF5827439
:10447000043EF583E0FF74212547F582E43491F58D
:1044800083EFF0E547702A900018E04401FD7F18A3
:1044900012B6B1900081E0C3135401FF740B25479D
:1044A000F582E43491F583EFF043E80343A80580F7
:1044B0002590001AE04401FD7F1A12B6B190005316
:1044C000E0C3135401FF740B2547F582E43491F5E2
:1044D00083EFF043E80DD0D092AF22BB010CE58210
:1044E00029F582E5833AF583E0225006E92582F832
:1044F000E622BBFE06E92582F8E222E58229F58262
:10450000E5833AF583E49322BB010689828A83F02E
:10451000225002F722BBFE01F322F8BB010DE58217
:1045200029F582E5833AF583E8F0225006E92582F1
:10453000C8F622BBFE05E92582C8F222C5F0F8A321
:10454000E028F0C5F0F8E582158270021583E038A6
:10455000F022BB0110E58229F582E5833AF583E07C
:10456000F5F0A3E0225009E92582F886F008E6225A
:10457000BBFE0AE92582F8E2F5F008E222E5832A8B
:10458000F583E993F5F0A3E99322F8BB0111E582E5
:1045900029F582E5833AF583E8F0E5F0A3F02250AF
:1045A00009E92582C8F608A6F022BBFE09E92582A2
:1045B000C8F2E5F008F222E8600FECC313FCED133B
:1045C000FDEE13FEEF13FFD8F122E8600FEFC333C7
:1045D000FFEE33FEED33FDEC33FCD8F122ECF0A31B
:1045E000EDF0A3EEF0A3EFF022A8828583F0D08354
:1045F000D0821285E01285E01285E01285E0E47336
:10460000E493A3C583C5F0C583C8C582C8F0A3C51C
:1046100083C5F0C583C8C582C822A42582F582E57A
:10462000F03583F58322D083D082F8E4937012743E
:104630000193700DA3A393F8740193F5828883E42A
:10464000737402936860EFA3A3A380DF8F49E4F53E
:104650004AE54A2430FDE4340EFCE4FF12B683E55B
:104660004975F014A42462F582E43490F583E58260
:10467000254AF582E43583F583EFF0054AE54AC320
:10468000940440CDE54975F014A42463F582E43424
:1046900090F583E05403F0E54975F014A42465F522
:1046A00082E43490F583E05403F0E4F54AE54A24CB
:1046B00014FDE4340CFCE4FF12B683E54975F014F4
:1046C000A42466F582E43490F583E582254AF582D8
:1046D000E43583F583EFF0054AE54AC3940440CD01
:1046E0007DA37C0CE4FF12B683E54975F014A42485
:1046F0006AF582E43490F583EFF0E4F54AE54A2464
:1047000080FDE4340CFC7F0112B683E54975F0149A
:10471000A4246BF582E43490F583E582254AF58282
:10472000E43583F583EFF0054AE54AC3940440CDB0
:104730007D4F7C0C7F0112B683EF54F0FFE5497585
:10474000F014A4246FF582E43490F583EFF07D97A4
:104750007C0C7F0112B683E54975F014A42470F532
:1047600082E43490F583EFF0E4F54AE54A2414FD41
:10477000E4340CFC7F0112B683E54975F014A424DF
:1047800071F582E43490F583E582254AF582E435BB
:1047900083F583EFF0054AE54AC3940440CD7DA339
:1047A0007C0C7F0112B683E54975F014A42475F5DD
:1047B00082E43490F583EFF0229090DDEFF0E4A3F3
:1047C000F09090DDE0FF2424F8E670030288EB749B
:1047D0001E2FF8E6640160030288EBE02424F8E66B
:1047E00014606224FD605E240224FB5002805C9011
:1047F00090DDE0FE245DF582E43491F583E014F071
:10480000745D2EF582E43491F583E0600D745F2FC2
:10481000F582E43491F583E060319090DDE0FF248F
:104820005DF582E43491F583E0701A74792FF58296
:10483000E43491F583E0FE745D2FF582E43491F564
:1048400083EEF080009090DE7401F090918FE03064
:10485000E016A3E0B40605E49090DEF0E4FF12A7B2
:104860005BEF70049090DEF09090DEE070030288C1
:10487000EB9090DDE0FF2426F8E64410F6E49091FA
:10488000A0F0A3F09090DDE0FE245FF582E4349187
:10489000F583E075F003A4FD746E2EF582E4349187
:1048A000F583E02D9091A2F0E4FB7D547C0112B9D8
:1048B0006D9090DDE0FF25E0241AF8E6FC08E62480
:1048C00057F58274013CF5837405F074202FF8E6E7
:1048D000540FC3940450349090DDE0FF7B017D04BD
:1048E00012958090918FE030E0219090DDE0FF12F2
:1048F000A4FB9090DDE025E0241AF8E6FE08E6240B
:1049000022F58274053EF58374FFF022D310AF01C7
:10491000C3C0D09091B8EFF0909196E09091B9F02B
:104920006D7003028A37ED14605F1470030289AF63
:104930001470030289FA24036003028A379091B944
:10494000E0B4030B9091B8E0FF12BA53028A37909B
:1049500091B9E0B4020B9091B8E0FF12B915028A48
:10496000379091B9E0B4040B9091B8E0FF12BA5BB4
:10497000028A379091B9E064016003028A3790910E
:10498000B8E0FF12B3DC028A379091B9E0FDB403BE
:104990000B9091B8E0FF12B931028A37EDB4020BE7
:1049A0009091B8E0FF12B444028A379091B9E0FDCB
:1049B000B4040B9091B8E0FF12B94C028A37ED6055
:1049C00003028A379091B8E0FF12B6CB028A379083
:1049D00091B9E0B4030A9091B8E0FF12B77180304A
:1049E0009091B9E0B4010A9091B8E0FF12B6CB8083
:1049F0001F9091B9E0B4040A9091B8E0FF12BA3761
:104A0000800E9091B9E070089091B8E0FF12B8DD87
:104A10009091B8E0FF12AD26803D9091B9E0FDB4D1
:104A2000010A9091B8E0FF12B60E802BEDB4020A95
:104A30009091B8E0FF12B8F9801D9091B9E0FDB4F3
:104A4000040A9091B8E0FF12BA69800BED700890EB
:104A500091B8E0FF12B8C1D0D092AF22AD0790005C
:104A6000021284BBFF9090C2F09000011284BBFC44
:104A7000EFC394204005E49090C2F0ECC394204032
:104A800002E4FCED75F040A42405F582E4348DF5D4
:104A900083C083C0829090C2E0D082D08375F00240
:104AA0001285FAE0FEA3E09090C3F0EEA3F0ED755E
:104AB000F040A42485F582E4348DF583C083C08260
:104AC0009090C2E0F9D082D08375F0021285FAE0AE
:104AD000FEA3E09090C5F0EEA3F0A3E9F0A374FF6D
:104AE000F0ED75F040A42405F582E4348DF583756E
:104AF000F002EC1285FAE0FEA3E09090C9F0EEA37C
:104B0000F0ED75F040A42485F582E4348DF58375CD
:104B1000F002EC1285FAE0FEA3E09090CBF0EEA359
:104B2000F0A3ECF0A374FFF0ED75F040A42405F5BC
:104B300082E4348DF583C083C0829090C2E0FFD0C0
:104B400082D08375F0021285FAE4F0A3F0ED75F0DF
:104B500040A42485F582E4348DF58375F002EF12CC
:104B600085FAE4F0A3F0ED75F040A42405F582E4A5
:104B7000348DF58375F002EC1285FAE4F0A3F0EDC4
:104B800075F040A42485F582E4348DF58375F00238
:104B9000EC1285FAE4F0A3F0AF057B017A9079C3BB
:104BA00002B3058F48EF25E0241AF8E6FE08E62454
:104BB00036F58274063EF583E4F0EF25E0241AF81A
:104BC000E6FE08E6FF2436F58274063EF583E0B47F
:104BD000FF0E74362FF58274063EF58374EEF022D4
:104BE0001234059090C2F09000011284BB9090C3E3
:104BF000F09000021284BB9090C4F030E0089090D6
:104C0000C67480F08005E49090C6F0E548C4333364
:104C1000335480FF9090C4E0C3134FA3F090FD1075
:104C2000F09090C3E06003028CB09090C7F0909039
:104C3000C2E0FF9090C7E0FEC39F4003028CB0909B
:104C400090C6E0FF75F008EEA42FF582E435F0F58C
:104C500083E5822420F582E58334FCF583E0754901
:104C600000754A00F54BAB49AA4AF990000212843C
:104C7000BBFE9000031284BBFDAC069000071284BB
:104C8000BBFBC003AB499000061284BBF55C9000EF
:104C9000051284BBF55D9000041284BBF55ED00361
:104CA000AF4812A8B39090C6E02420FDE433FCA3E3
:104CB000E075F008A42DFFE5F03CFEEF64F84E70BF
:104CC0000690FD10E004F09090C7E004F0028C0E16
:104CD000E54825E0241AF8E6FE08E62436F5827455
:104CE000063EF58374FFF022D310AF01C3C0D08F0E
:104CF000588C598D5A9090DF1285C90000000053DE
:104D00005AFC9090DFE0F8A3E0F9A3E0FAA3E0FBFF
:104D1000E8C0E0E55825E0241AF8E6FE08E6255A42
:104D2000FFE5593E8F82F583E0FFD0E0F8EB4FFFBF
:104D3000EAFEE9FDE8FC9090DF1285BD9090DFE08F
:104D4000F8A3E0F9A3E0FAA3E0FBE8C0E0E558250A
:104D5000E0241AF8E6FE08E6255AFFE5593E8F8260
:104D6000F583A3E0FFE4FCFDFE78081285AAD0E0FD
:104D7000F8EB4FFFEA4EFEE94DFDE84CFC9090DF6A
:104D80001285BD9090DFE0F8A3E0F9A3E0FAA3E07C
:104D9000FBE8C0E0E55825E0241AF8E6FE08E62521
:104DA0005AFFE5593E8F82F583A3A3E0FFE4FCFDA3
:104DB000FE78101285AAD0E0F8EB4FFFEA4EFEE92C
:104DC0004DFDE84CFC9090DF1285BD9090DFE0F83F
:104DD000A3E0F9A3E0FAA3E0FBE8C0E0E55825E092
:104DE000241AF8E6FE08E6255AFFE5593E8F82F5BB
:104DF00083A3A3A3E0FFE4FCFDFE78181285AAD0EC
:104E0000E0F8EB4FFFEA4EFEE94DFDE84CFC9090D8
:104E1000DF1285BD9090DFE0FCA3E0FDA3E0FEA3E0
:104E2000E0FFD0D092AF22EF25E0241AF8E6FC088C
:104E3000E6FD2457F58274013CF583E07003028E91
:104E4000B374572DF58274013CF583E4F0EF25E04F
:104E5000241AF8E6FC08E6243CF58274013CF5834C
:104E60007402F0747D2FF582E43491F583E06016CE
:104E7000747D2FF582E43491F583E4F074262FF8E5
:104E8000E654FDF6804D745F2FF582E43491F5838E
:104E9000E004F074262FF8E654EFF6745F2FF582E5
:104EA000E43491F583E0FE909166E0FDEED39D4001
:104EB00022741E2FF8E6B4011A74612FF582E434CF
:104EC00091F583E0700D74612FF582E43491F583E0
:104ED000E004F0EF25E0241AF8E6FC08E6FD245B88
:104EE000F58274013CF583E0602E745B2DF58274CD
:104EF000013CF583E4F0EF25E0241AF8E6FC08E62F
:104F0000243CF58274013CF5837404F074772FF52A
:104F100082E43491F583E4F0EF25E0241AF8E6FC0E
:104F200008E6FD245FF58274013CF583E0602E7491
:104F30005F2DF58274013CF583E4F0EF25E0241A3F
:104F4000F8E6FC08E6243CF58274013CF58374081D
:104F5000F074752FF582E43491F583E4F022E4F5E2
:104F60004CF54DF54EFB7A0079477FFD7E0312AA82
:104F7000B1EF6401600302902BFB7A0079487FFC5B
:104F80007E0312AAB1EF6401600302902BFFE4FEDE
:104F9000E54C702EEE25E0FDC374069DFD74472F91
:104FA000F8E6FCA805088002C313D8FC5403F54BAF
:104FB00024FD600804700B75490180037549027572
:104FC0004C01E54D702EEE25E0FDC374029DFD748D
:104FD000472FF8E6FCA805088002C313D8FC540349
:104FE000F54B24FD600804700BE4F54A8003754A14
:104FF00001754D01E54CB40106E54D640160060EF6
:10500000EE6402708BE54CB40106E54D6401600965
:105010000FEF64026003028F6EE54C7005754E0160
:10502000802CE54D7005754E028023E549640260D1
:1050300005754E038018E54A7048909108E01313F7
:1050400013540330E03C754E048003754E05900107
:10505000C8E547F0A3E548F09001C4E54EF0A3741D
:10506000E0F074C4251DF5827401351CF583E54E0E
:10507000F074C5251DF5827401351CF58374E0F0CC
:1050800080CC22741E2FF8E66401600302918274C2
:10509000242FF8E6700302918274242FF8E664024C
:1050A000600974242FF8E664057071EF25E0241A76
:1050B000F8E6FC08E624ABF58274063CF583E0FED6
:1050C000745D2FF582E43491F583EEF0EF25E02452
:1050D0001AF8E6FC08E624AAF58274063CF583E09B
:1050E000FE74792FF582E43491F583EEF0745D2F30
:1050F000F582E43491F583E0700A74792FF582E447
:1051000034918008745D2FF582E43491F583E0FEDC
:10511000745D2FF582E43491F583EEF074612FF520
:1051200082E43491F583E0600D74612FF582E434FC
:1051300091F583E014F0745F2FF582E43491F583E8
:10514000E4F0EF25E0241AF8E6FC08E62458F5829E
:1051500074053CF5837403F0EF25E0241AF8E6FCAF
:1051600008E62457F58274013CF583E4F0EF25E06E
:10517000241AF8E6FC08E6243CF58274013CF58329
:105180007402F074262FF8E654FDF674262FF8E624
:1051900054EFF674242FF8E61424FD500280031215
:1051A000973522C0E0C0F0C083C082C0D075D00067
:1051B000C000C001C002C003C004C005C006C007D3
:1051C0009001C47483F07491FFA3F074C4251DF59D
:1051D000827401351CF5837483F074C5251DF58236
:1051E0007401351CF583EFF05391EF900051E0FF0F
:1051F000900055E05F909104F0900052E0FF900025
:1052000056E05F909105F0909104E030E4077D1046
:105210007F5512B6B1909104E030E5077D207F55AF
:1052200012B6B1909104E030E6077D407F5512B68A
:10523000B1909104E030E7077D807F5512B6B190C0
:105240009105E030E0077D017F5612B6B1909105DF
:10525000E030E1077D027F5612B6B1909105E03053
:10526000E2077D047F5612B6B1909105E030E30766
:105270007D087F5612B6B17D83ED049001C4F074B1
:1052800091FFA3F0ED04FE74C4251DF58274013571
:105290001CF583EEF074C5251DF5827401351CF5EF
:1052A00083EFF0D007D006D005D004D003D002D0D1
:1052B00001D000D0D0D082D083D0F0D0E032D31053
:1052C000AF01C3C0D090909DEFF0A3EBF0A3EAF044
:1052D000A3E9F090909DE0FFC43354E09090A4F0D7
:1052E000908FC5E0FE04F0900001EE1284FA7DAFCD
:1052F0007C0112A843EF70030293A190909DE0609F
:1053000046A3E0FBA3E0FAA3E08B6D8A6EF56F7510
:1053100070027B017A4179A012AA519090A1E0FB22
:10532000A3E0FAA3E08B6D8A6EF56F90909EE0FB90
:10533000A3E0FAA3E0F9123405FFC4540FF5707B23
:10534000017A4179A2804690909EE0FBA3E0FAA307
:10535000E08B6D8A6EF56F7570027B017A0179A022
:1053600012AA519090A1E0FBA3E0FAA3E08B6D8A12
:105370006EF56F90909EE0FBA3E0FAA3E0F9123483
:1053800005FFC4540FF5707B017A0179A212AA516E
:1053900090909DE0FF25E0241AF8E6FC08E624AF93
:1053A000F58274013CF58374FFF0EF25E0241AF8D0
:1053B000E6FE08E624CBF58274013EF583E06480C6
:1053C000F0D0D092AF22D310AF01C3C0D08D5FC94F
:1053D000EFC9CB547FCBE55F9090E770117408F074
:1053E000A374B8F0A37408F0A37424F0800F7408B9
:1053F000F0A374BCF0A37408F0A3742CF0E4FACF0B
:10540000E9CFEA2424FDE43408FC12B68374602A50
:10541000F8C6EFC6E55F700874602AF8E6FF800EF4
:10542000CFE9CFEA242CFDE43408FC12B68374647F
:105430002AF8C6EFC60ABA04C6EBC4333333548025
:10544000FFE566547F4FF566EBC3134480F567CFE5
:10545000E9CFE563547FFB7D277C0812B751CFE984
:10546000CF9090E9E0FCA3E0FD85655C85665D85F5
:10547000675EAB6412A8B3CFE9CFE5634480FB7DE0
:10548000277C0812B751CFE9CF9090E7E0FCA3E06A
:10549000FD128CC8ED540FFDE4FC9090E31285BD25
:1054A0009090E3E0FCA3E0FDA3E0FEA3E0FFD0D0FA
:1054B00092AF228F57E49090DDF074242FF8E670BD
:1054C00003029578747D2FF582E43491F583E060D2
:1054D00024747D2FF582E43491F583E4F074262F53
:1054E000F8E654FDF674262557F8E65407600302E3
:1054F0009578029573745F2557F582E43491F583AE
:10550000E004F074262557F8E654EFF69090DDE0BD
:105510002401FFE433FE7A91795F7C917D5FEFB4E3
:105520005F06EEB49102801A9090DDE02402FFE461
:1055300033FE7A91795F7C917D5FEFB45F0AEEB4C0
:105540009106900558E004F09090DDE0FF909166A0
:10555000E02FFFE433FE745F2557F582E43491F5C4
:1055600083E0D39FEE6480F87480984026741E25F3
:1055700057F8E6B4012274612557F582E43491F5B9
:1055800083E0701474612557F582E43491F583E06B
:1055900004F022AF5712B534229090C2E0FF7B0195
:1055A0009091AEEFF09091B0EBF09091AFEDF09064
:1055B00091AEE0FF2420F8E6540FFEED540F6E701C
:1055C000030296579091AFE030E24B74202FF8E63B
:1055D00020E20A9091AEE0FF7D0112A9869091AE83
:1055E000E0FF2420F8E630E316A3E020E31112A444
:1055F0007DEF70030296579091AEE0FF02B21C90CF
:1056000091AEE0FF2420F8E620E36CA3E030E367EE
:10561000A3E0FD02AF969091AEE0FF2420F8E6549F
:105620000FFEBE0C13A3E020E30E12A47DEF604733
:105630009091AEE0FF12B21C9091AEE0FF2420F8F2
:10564000E6540FFEBE0413A3E020E20E129BF0EF1F
:1056500060259091AEE0FF12A1519091AEE0FF2441
:1056600020F8E6540FFEBE020E12B505EF6008905A
:1056700091AEE0FF12B6EE2274262FF8E4F6742401
:105680002FF8E4F674222FF8760C74202FF8760C9D
:10569000747B2FF582E43491F583E4F074772FF571
:1056A00082E43491F583E4F074752FF582E434914B
:1056B000F583E4F074792FF582E43491F583740175
:1056C000F0745D2FF582E43491F5837401F0747DFC
:1056D0002FF582E43491F583E4F074612FF582E4D0
:1056E0003491F583E4F0746E2FF582E43491F58300
:1056F0007407F0745F2FF582E43491F583E4F0EFE2
:1057000025E0246AF582E43491F583E4F0A3740380
:10571000F0909166740AF0A37405F090916574148A
:10572000F09091707405F0745B2FF582E43491F57C
:1057300083E4F090912FF074712FF582E43491F5A9
:1057400083E4F074732FF582E43491F583E4F090F0
:10575000915904F0229090DDEFF025E0241AF8E64C
:10576000FE08E624A9F58274063EF583E09090DEFB
:10577000F0E054C070199090DDE0FF2426F8E65464
:10578000FEF674262FF8E654FDF6E0FF02B53490DD
:1057900090DEE030E62C9090DDE0FF2426F8E64431
:1057A00001F6747B2FF582E43491F583E064029076
:1057B00090DD6007E0FF12AFDA8012E0FF12A00D6B
:1057C000800B9090DDE02426F8E654FEF69090DE03
:1057D000E09090DD30E749E0FF2426F8E64402F649
:1057E000E49091A0F0A3F0909167E09091A2F0E492
:1057F000FB7D547C0112B96D9090DDE0FF25E02423
:105800001AF8E6FC08E62457F58274013CF5837427
:1058100005F0747D2FF582E43491F5837401F02254
:10582000E02426F8E654FDF622D310AF01C3C0D021
:105830009090CAEDF09090C9EFF0D394075055A323
:10584000E070199090C9E0FF7401A807088002C3B6
:1058500033D8FCF4FF900047E05F80169090C9E0D9
:10586000FF7401A807088002C333D8FCFF900047EB
:10587000E04FFD7F4712B6B19090C9E0FF7401A8D8
:1058800007088002C333D8FCF4FF900046E05FFDB8
:105890007F4680609090C9E024F8F0A3E0701C90EF
:1058A00090C9E0FF7401A807088002C333D8FCC484
:1058B00054F0F4FF900043E05F80199090C9E0FF3E
:1058C0007401A807088002C333D8FCC454F0FF90C9
:1058D0000043E04FFD7F4312B6B19090C9E0FF74E2
:1058E00001A807088002C333D8FCF4FF900043E00E
:1058F0005FFD7F4312B6B1D0D092AF22A90790913D
:1059000008E0540360030299ACE0131313540360DE
:10591000030299ACEF25E0241AF8E6FA08E6FBED5D
:105920002BFDE43AFC74842DF58274043CF583E08D
:10593000541F9091BCF0E925E0241AF8E6FE08E631
:10594000FF24D0F58274043EF583E0540FFDBD0FB3
:10595000047D0180027D009091BCE07C00B41B02BC
:105960007C01EC5D602474CA2FF58274043EF583DB
:10597000740BF0E925E0241AF8E6FE08E624CBF5DE
:105980008274043EF583740BF022742D29F582E4B1
:105990003491F583E0FFE925E0241AF8E6FC08E6F7
:1059A00024CAF58274043CF583EFF0742129F58252
:1059B000E43491F583E0FFE925E0241AF8E6FC08D9
:1059C000E624CBF58274043CF583EFF022EF25E06A
:1059D000241AF8E6FC08E62430F58274013CF583CD
:1059E000E4F0EF25E0241AF8E6FC08E62431F5821D
:1059F00074013CF583E4F0EF25E0241AF8E6FC0896
:105A0000E62432F58274013CF583E4F0EF25E024CE
:105A10001AF8E6FC08E62433F58274013CF583E4C9
:105A2000F0EF25E0241AF8E6FC08E62438F5827445
:105A3000013CF583E4F0EF25E0241AF8E6FC08E6E3
:105A40002439F58274013CF583E4F0EF25E0241A53
:105A5000F8E6FC08E6243AF58274013CF583E4F0AC
:105A6000EF25E0241AF8E6FE08E6243BF5827401EF
:105A70003EF583E4F0FD7F5012B6B1E4FD7F511294
:105A8000B6B1E4FD7F5212B6B1900053E054FEFD72
:105A90007F5302B6B1419107004191230041915AD1
:105AA000804D908A002F30313233343536373839D3
:105AB00000609C8FC60007000000000FF00004404B
:105AC0000F00000FF00000000000000000000000C8
:105AD00000000000000000000000064888000E26BC
