:10000000C28802005000000012141610C03E010009
:100010002586010000000000000000000000000034
:100020000243BA00000000000000000000000000D1
:1000300000000002487900000000000000000000FD
:1000400000000000000000000000000000000000B0
:1000500000000000000000000000000000000000A0
:10006000000000025EFF0000000000A1D4000000BC
:100070000504030200030605040300040605040248
:1000800000040807060400060A09080600080A0911
:10009000080400080A09080200080A090800000804
:1000A0001211100800101A19181000182221201817
:1000B00000202221201000202221200800202221BF
:1000C0001C080020222114080020222018080020EB
:1000D000313020100030313018000030312F101036
:1000E0000030312C10100030312810000030312049
:1000F0001000003031101000003004040405040426
:1001000004050505060604040405050506060404A1
:1001100005050505060604040505050506070A0B81
:100120000D100405050606090C11080809090A0C3A
:10013000101104040405040405070707080A040451
:100140000404060A0B0D05050707080B0D0F040430
:100150000405070709090C0E101204040505060A18
:100160001113090909090C0E111300000000000009
:1001700000000024262A181A1D1F2127292A000002
:10018000001F23282A2C0004000400080010001877
:100190000024003000480060009000C000D80050EB
:1001A000007800A000C80140019001E00230012C5D
:1001B000014001E002D003E804B0064007D000028D
:1001C000000200040008000C001200180024003097
:1001D00000480060006C0028003C0050006400A053
:1001E00000C800F00118006400A000F0016801F4EC
:1001F0000258032003E8020202020202030304047D
:1002000005070404070A0A0C0C12050707080B125D
:10021000243C010101010102030405060708010253
:1002200003040506070805060708090A0B0C201E2B
:100230001C18101800000000000000000000000062
:10024000BB010CE58229F582E5833AF583E0225073
:1002500006E92582F8E622BBFE06E92582F8E222BD
:10026000E58229F582E5833AF583E49322BB010612
:1002700089828A83F0225002F722BBFE01F322F822
:10028000BB010DE58229F582E5833AF583E8F0228A
:100290005006E92582C8F622BBFE05E92582C8F290
:1002A00022C5F0F8A3E028F0C5F0F8E582158270C9
:1002B000021583E038F022BB010A89828A83E0F5C7
:1002C000F0A3E022500687F009E71922BBFE07E3FE
:1002D000F5F009E3192289828A83E493F5F0740129
:1002E0009322BB0110E58229F582E5833AF583E08C
:1002F000F5F0A3E0225009E92582F886F008E6220D
:10030000BBFE0AE92582F8E2F5F008E222E5832A3D
:10031000F583E993F5F0A3E99322BB010A89828A68
:1003200083F0E5F0A3F0225006F709A7F01922BBED
:10033000FE06F3E5F009F31922F8BB0111E5822965
:10034000F582E5833AF583E8F0E5F0A3F022500961
:10035000E92582C8F608A6F022BBFE09E92582C875
:10036000F2E5F008F222EF4BFFEE4AFEED49FDEC1C
:1003700048FC22E0FCA3E0FDA3E0FEA3E0FF22A4F2
:100380002582F582E5F03583F58322E0FBA3E0FAD0
:10039000A3E0F922F8E0FBA3A3E0F925F0F0E58261
:1003A000158270021583E0FA38F022EBF0A3EAF030
:1003B000A3E9F022D083D082F8E493701274019301
:1003C000700DA3A393F8740193F5828883E473748A
:1003D00002936860EFA3A3A380DF0243F802502ECC
:1003E000E493A3F8E493A34003F68001F208DFF45A
:1003F0008029E493A3F85407240CC8C333C4540FD2
:100400004420C8834004F456800146F6DFE4800BA4
:10041000010204081020408090443DE47E01936076
:10042000BCA3FF543F30E509541FFEE493A36001D1
:100430000ECF54C025E060A840B8E493A3FAE4933B
:10044000A3F8E493A3C8C582C8CAC583CAF0A3C8E9
:10045000C582C8CAC583CADFE9DEE780BE419E4FB8
:1004600000419EAD00419E6180419E6280419EAFF1
:100470000000F0909E6BE0909E87F0E4FBFD7F54BF
:100480007E01D310AF01C3C0D0909E85EBF0A3E0F6
:10049000FBA3E0F544E4F5451235ABD0D092AF2292
:1004A00090015FE4F090013C7408F0E4909E86F0C7
:1004B000909E69E0909E87F0E4FBFD7F5C7E019159
:1004C0006290015F7405F09006927402F0909E7045
:1004D00014F0E523540FC3940C5002F12B228F82A9
:1004E0008E83A3A3A3E4F022E4F5717F607E0180F4
:1004F000ED7D01AF24E12FB1A6BF010F909E51E029
:10050000FFE4FDF1D090041F7420F0225323F04348
:10051000230191FD91FE5323F04323022222222244
:10052000220000025F91025F98D310AF01C3C0D0D8
:100530008B1B8A1C891D909E88718BAB1EAA1FA9DC
:1005400020909E8B718BAF211521EF601B909E8BAD
:10055000E475F00171741229D9FF909E88E475F05A
:10056000017174EF514D80DEAB1BAA1CA91DD0D0C8
:1005700092AF229006A9E0909E2FF0E054C0700840
:100580005326FE5326FD91D1909E2FE030E6134373
:100590002601909E73E06402600491D780079180E9
:1005A00080035326FE909E2FE030E716432602E498
:1005B000909E8691529001577405F0909E7474013C
:1005C000F0225326FD22D310AF01C3C0D090041DEA
:1005D000E0601A900522E0549060079001C6E04464
:1005E00040F09001C7E030E1E47F0080027F01D05D
:1005F000D092AF22C0E0C0F0C083C082C0D075D01E
:1006000000C000C001C002C003C004C005C006C0D5
:10061000079001C474D4F07445A3F05391DF9001A6
:100620003CE05530F534A3E05531F535A3E05532C3
:10063000F536A3E05533F537E53430E00690013C5C
:100640007401F0E53430E10990013C7402F0126568
:10065000F6E53430E23890013C7404F0900692E004
:1006600030E024909E86E4F0909E69E0909E87F0B2
:10067000E4FBFD7F587E01916290015B7405F09070
:1006800006927401F08007909E71E4F091D1E534F8
:1006900030E33890013C7408F0900692E030E12499
:1006A000909E86E4F0909E69E0909E87F0E4FBFDCA
:1006B0007F5C7E01916290015F7405F090069274F8
:1006C00002F08007909E70E4F091D1E53430E409A7
:1006D00090013C7410F0127353E53430E509900139
:1006E0003C7420F0125264E53530E01890013D74FE
:1006F00001F090012FE0447FF0900083E0F5241298
:1007000064D091D1E53530E20690013D7404F0E506
:100710003630E00690013E7401F0E53630E1069097
:10072000013E7402F074D4049001C4F07445A3F047
:10073000D007D006D005D004D003D002D001D0001D
:10074000D0D0D082D083D0F0D0E0327D017F0C9029
:100750009EA6EDF0909EA5EFF0540FFFE523540FF9
:100760006F6070909EA5E030E22AE52320E2057FCD
:10077000011263EAE52330E309909EA5E020E3023D
:100780008052E52320E34C909EA5E030E345A3E0B2
:10079000FF025E95E523540FFFBF0C0F909EA5E06E
:1007A00020E3081262CEEF602AF1B4E523540FFF74
:1007B000BF0410909EA5E020E209126317EF6013BA
:1007C00012613AE523540FFFBF020812637AEF600B
:1007D0000291EC22900604E04440F0E522B40105C9
:1007E0007F01125E5C5323F043230422E0FF7D016E
:1007F000909E99EFF0A3EDF0E4A3F0A3F0E525605F
:1008000005E4FF12611F909E99E030E009909E9BE5
:10081000E4F0A37480F0909E99E0FFC31390FD1064
:10082000F0900425EFF0909E9AE0601FA3A3E0FFF4
:10083000240FF582E434FCF583E04480F074102F3B
:10084000F582E434FCF583E04480F0909E9BA3E0C5
:10085000FFFD2408F582E434FCF583E4F074092DEF
:10086000F582E434FCF583E054F0F074212FF58236
:10087000E434FCF583E054F7F0909E9BE0FEA3E0A7
:10088000FF221245A6BF0110900209E0FF7D011270
:1008900047D090041F7420F022C0E0C0F0C083C095
:1008A00082C0D075D000C000C001C002C003C00427
:1008B000C005C006C0079001C47479F07448A3F065
:1008C000900134E05528F52C900136E0552AF52E9C
:1008D000A3E0552BF52FE52C20E0024117900134C1
:1008E0007401F085D10885D20985D30A85D40B859A
:1008F000D50C85D60D85D70E85D90FE50F5440C38D
:1009000013FFE50E54206F700221C9E50F30E50298
:1009100021C9E50D543FF54DE508543FF54EE50C72
:10092000541FFFE54D25E024C4F582E43499F58396
:10093000E48FF0124281E50E541FFFE54D25E024BF
:1009400080F582E43493F583E48FF0124281E54E22
:10095000D394044003754E0475F00AE54D90900061
:1009600012435F75F002E54E12435FE0FEA3E0FF25
:10097000E50E541F2FFFE43EFE75F00AE54D909002
:100980000012435F75F002E54E12435FEEF0A3EFF5
:10099000F0E50F20E624E50E541FFFE54D25E02489
:1009A000C4F582E43498F583E48FF0124281E50ABD
:1009B00030E736AF4D125B68802FE50E541FFFE520
:1009C0004D25E02444F582E43499F583E48FF01258
:1009D0004281E50A30E712E50A547FFDE50E541F17
:1009E000F553AB4EAF4D125B05E5251424FD5002C7
:1009F0008045909E73E0603790015BE4F090013C8D
:100A00007404F071C4EF6401702D909E69E0F544A8
:100A1000754500E4FBFD7F587E011235AB90015B0C
:100A20007405F09006927401F0909E71F080087148
:100A3000C4BF01031244D1E52C30E121900134748C
:100A400002F085D11385D21485D31585D41685D5AA
:100A50001785D61885D71985D91A125C46E52C302A
:100A6000E3069001347408F0E52C30E40990013479
:100A70007410F0431210E52C30E5249001CFE030E3
:100A8000E51DE054DFF09001347420F075A8007586
:100A9000E800D1DB900003E054FBF071DB80FEE561
:100AA0002C30E6069001347440F0E52E30E01290D0
:100AB0009E5F7401F0900136F0126590909E5FE4A5
:100AC000F0E52E30E13B9001367402F04312409085
:100AD0000102E0540364017028900137E030E00A1D
:100AE0007401F0909E4FE4F08017909E4FE004F068
:100AF000E0C3940A400BE4F0900419E030E00211E6
:100B000062E52E30E2099001367404F0126528E5A2
:100B10002E30E3289001367408F0E5226401701C41
:100B2000E5256018900157E4F090013C7402F090C4
:100B30009E86E41244529001577405F0E52E30E48D
:100B40002B9001367410F0E522B40120E525601CDD
:100B5000900157E4F090013C7402F0909E74E4F030
:100B60005326FDE526540770031244D1E52E30E5E7
:100B70001F9001367420F0E522B40114E5256010C1
:100B8000909E73E0640260051244D7800312448093
:100B9000E52E30E61B9001367440F0E522B40110DA
:100BA000E525600C5326FEE526540770031244D158
:100BB000E52F30E1099001377402F01261927479E7
:100BC000049001C4F07448A3F0D007D006D005D03B
:100BD00004D003D002D001D000D0D0D082D083D0B6
:100BE000F0D0E03290041BE0547F647F7F0160020C
:100BF0007F0022F4FF900043E05FF0D310AF01C309
:100C0000C0D07F10DFFED0D092AF22D310AF01C38F
:100C1000C0D0909EACEDF0909EABEFF0D394075017
:100C200063E0FF7401A807088002C333D8FCF4FF17
:100C3000900047E05FF071DB909EABE0FF7401A88D
:100C400007088002C333D8FCFF900046E04FF071E4
:100C5000DB909EACE06016909EABE0FF7401A807AD
:100C6000088002C333D8FCFF9000458066909EAB9D
:100C7000E0FF7401A807088002C333D8FCF4FF909A
:100C80000045806B909EABE024F8F0E0FF7401A873
:100C900007088002C333D8FCC454F071D3909EABD4
:100CA000E0FF7401A807088002C333D8FCFF90005E
:100CB00043E04FF071DB909EACE0601B909EABE098
:100CC000FF7401A807088002C333D8FCC454F0FFA6
:100CD000900042E04F801A909EABE0FF7401A8079D
:100CE000088002C333D8FCC454F0F4FF900042E003
:100CF0005FF071DBD0D092AF22F0900045E054FE5F
:100D0000FD7F45D310AF01C3C0D08F82758300ED46
:100D1000F071DBD0D092AF22EF1460301460662403
:100D2000026002A19F909E1A7402F0900048E04475
:100D30000CFD7F4891E3900047E04408FD7F479118
:100D4000E3900045E04410FD7F458071E4909E1AD9
:100D5000F0909E16124353908085122A7F7F807EEA
:100D600008122FD9900045E044EFFD7F4591E390B4
:100D70000045E054EFFD7F4591E3900046E04410CC
:100D8000FD7F468038909E1A7401F0909E20124399
:100D900053908085122A7F7F807E08122FD9900081
:100DA00045E04420FD7F4591E3900045E04410FD7F
:100DB0007F4591E3900046E04410FD7F4691E32299
:100DC000900002124220909E1CF0900001124220DE
:100DD00025E025E0909E1BF01229D925E025E09022
:100DE0009E1FF0900560E0909E2AF0900561E090D3
:100DF0009E2BF0900562E0909E2CF0900563E090B1
:100E00009E2DF0A2AFE433909E3FF0C2AF909E1BA8
:100E1000E0FF125212909E3FE024FF92AF909E1C82
:100E2000E07002C1A7909E1BE07002C1A7909E1FB8
:100E3000E07002C1A7A2AFE433909E3FF0C2AF9032
:100E40009E2E7401F0909E3FE024FF92AF91DA90C5
:100E50000046E04401FD7F4691E3909E14E060155A
:100E6000909E20124353908085122A7F7F807E08B7
:100E7000122FD98006900522747FF0900045E0542F
:100E8000EFFD7F4591E3900587E06480F0909E2A16
:100E9000E0900584F0909E2BE0900585F0909E2CCC
:100EA000E0900586F0909E2DE0900587F0A2AFE4DB
:100EB00033909E3FF0C2AF90013CE04420F07D2093
:100EC000E4FF123700802B909E1CE0702D909E2E28
:100ED00091D9900046E054FEFD7F4691E3900522B3
:100EE000E4F0A2AF33909E3FF0C2AF7D20E4FF124A
:100EF0003692909E3FE024FF92AF22900130E4F0C2
:100F0000A3F0A3F0A3F0900138F0A3F0A3F0A3F0B6
:100F1000FD7F5091E3E4FD7F5191E3E4FD7F529129
:100F2000E3E4FD7F5381E38B598A5A895B90000289
:100F3000124220909E1DF0E030E04B909E14740110
:100F4000F07F807E081227DE909E16122A7FAB5912
:100F5000AA5AA95B900001124220FFE4FCFDFE7832
:100F60001A122A6CA804A905AA06AB07909E1612AD
:100F70004353EC5403FC124346909E20122A7F9068
:100F80000522E4F0802DE4909E14F07F807E08120C
:100F900027DEEC5403FCEC44C0FC909E16122A7F22
:100FA000909E16124353908085122A7F7F807E0880
:100FB000122FD9909E1DE030E1197D0C7F4791E3FF
:100FC000900048E0440CFD7F4891E3900046E044E7
:100FD00010801C900047E054F3FD7F4791E39000A0
:100FE00048E054F3FD7F4891E3900046E054EFFD64
:100FF0007F4691E3E4909E1AF022900049E0909E93
:10100000B0F0E0540FF044F0FD7F4991E3909EB0C2
:10101000E044B0FD7F4981E3752833E4F529752A62
:1010200007F52B900130E528F0A3E529F0A3E52A88
:10103000F0A3E52BF02275301F753101E4F53290F5
:101040000138E530F0A3E531F0A3E532F022E49079
:101050009E31F0A3F0758E02127751125EDE909EE3
:101060005EEFF0125EEB909E60EFF0E4F512126E10
:10107000CC1277C8125F9F12323D1277C4124FF81C
:101080009000F3E030E20D9005417410F090055AA5
:10109000F0A3E4F0125EF811161244FF127D88905E
:1010A0009E33E5D9F0125EAFC2AF900080E04440BD
:1010B000F0124BDB75E80343A885D2AF909E31E078
:1010C0006401F0242E9001C4F07450A3F0E51230B6
:1010D000E409C2AF5312EFD2AF711AE51230E6162F
:1010E000C2AF5312BFD2AF12687A909E1EE0FF606B
:1010F00003B401023110909E1EE07003127DE611D0
:10110000E380B9900634E0602614701B7B017A06F8
:1011100079357FF97E01127762BF0109900635E0CB
:10112000540FF080058000027743E4900634F022EB
:10113000909E15E0C394145005E004F021C8909EE1
:1011400015E06414600221C8909E24E07025909EF2
:1011500027E0701F909E25E07019909E28E0701384
:10116000909E26E0700D909E29E070079004FDE0AF
:1011700054FEF0909E24E0900444F0909E25E09070
:101180000445F0909E26E0900446F0A3E4F0909E83
:1011900027E0900448F0909E28E0900449F0909E4B
:1011A00029E090044AF0A3E4F0909E10E090044CF3
:1011B000F0909E11E090044DF0909E12E090044E4D
:1011C000F0909E13E090044FF0E4909E15F0909EF6
:1011D0001004F0E4A3F0A3F0A3F0909E24F0A3F099
:1011E000A3F0A3F0A3F0A3F0900560E0909E34F08C
:1011F000900561E0909E35F0900562E0909E36F09B
:10120000900563E0909E37F0909E2DE0FF909E3712
:10121000E0FED39F500B909E2DE0C39ED3940140DF
:1012200010909E1BE0B401028003909E1FE0FF51CE
:101230001222900560E0909E2AF0900561E0909E59
:101240002BF0900562E0909E2CF0900563E0909E5C
:101250002DF0C374FF9FFE909E2BE0D39E401EE0B6
:101260002FF0A3E0B4FF0FE4F0A3E0B4FF03E4F039
:1012700022909E2D8003909E2CE004F022909E2BC5
:10128000E02FF022909E1CE0640160026119900042
:1012900046E04401FD7F46124CE3909E2EE0703202
:1012A000909E14E06015909E20124353908085120A
:1012B0002A7F7F807E08122FD98006900522747FB6
:1012C000F0909E1BE0FF5112909E2E7401124CD99B
:1012D0008040909E2EE064017038909E1FE0FF5188
:1012E00012E4909E2EF0900045E04401FD7F4512EF
:1012F0004CE3909E14E06015909E1612435390802C
:1013000085122A7F7F807E08122FD98005900522C2
:10131000E4F0900587E06480F0909E2AE0900584D8
:10132000F0909E2BE0900585F0909E2CE090058635
:10133000F0909E2DE0900587F0229001CCE0540FB4
:10134000909E34F0909E34E0FD7002815B909EADE3
:10135000E0FF74017E00A807088005C333CE33CEBA
:10136000D8F9FFEF5D70028154909EADE075F004F6
:101370009001D012435FE0909E35F0751E01751FFD
:101380009E7520357521017B017A9E7936124509BB
:10139000909E36E0FFC41313135401909EAD30E0CD
:1013A00059E075F00290008812435FE0909E37F09C
:1013B000909EADE075F00290008912435FE0909E30
:1013C00038F0909EADE075F0049001D112435FE0DB
:1013D000909E39F0909EADE075F0049001D21243DA
:1013E0005FE0909E3AF0909EADE075F0049001D3DE
:1013F00012435FE0909E3BF08033E075F004900173
:10140000D112435FE0909E37F0909EADE075F004FE
:101410009001D212435FE0909E38F0909EADE0754F
:10142000F0049001D312435FE0909E39F0EF547FB7
:10143000FF7B017A9E7937915C909E34E0FF909E0D
:10144000ADE0FE7401A806088002C333D8FCF45F47
:10145000909E34F0909EADE0FF7401A807088002D2
:10146000C333D8FC9001CCF0909EADE004F0E05482
:1014700003F061249001C6E04402F022909E3C12E9
:10148000438BEF12439454970154A00254BB03546E
:10149000C40554CD06551B0754D50954DE0C54E73A
:1014A0000D54F00E54F91B55021C550B2C54A92D4C
:1014B00054B22E00005514909E3C12436B02616999
:1014C000909E3C12436B0270EF909E3C12436B0265
:1014D00070F5909E3C12436B02713D909E3C12430E
:1014E0006B02716B909E3C12436B02709F909E3C0E
:1014F00012436B8047909E3C12436B0271B3909EE7
:101500003C12436B024DA0909E3C12436B027D55F2
:10151000909E3C12436B024F07909E3C12436B021D
:1015200070E7909E3C12436B0270CE909E3C12433B
:101530006B0276239001C6E04401F0229000041271
:101540004220FF541FFEEF5420C4135407FDAF0682
:10155000909E3FEFF0A3EDF0A312438B909E4112BB
:10156000436B90000312422054F0C4540F909E44E9
:10157000F09000041242205440C413135403909E70
:1015800045F0909E3FE0FF75F00990964612435F4C
:10159000AD82AC83909E46ECF0A3EDF0EF75F009C0
:1015A000A42444F9749635F0FA7B01A312438B907E
:1015B0009E4112436B900003124220540FFF909EF5
:1015C0004812436BEF12424D909E4112436B9000C4
:1015D00002124220FF909E4812436B900001EF12CE
:1015E000425F909E4112436B900001124220FF9097
:1015F0009E46E0FCA3E0FDF5828C83EFF01229D932
:101600008D828C83A3F0909E44E0FE909E3FE0FF8D
:101610002482F582E43495F583EEF0909E40E0FE5E
:1016200075F009EF90964A12435FEEF075F009EFFE
:1016300090964B12435F7401F0909E45E0FE75F06A
:1016400009EF90964C12435FEEF08F59EF25E0249E
:10165000C6F582E4349BAF82F55B8F5CE55975F08B
:1016600002A42402F9749535F0755D01F55E895F79
:1016700075F009E55990964612435FAF8285836005
:101680008F61E55975F009A42444F9749635F07515
:101690006201F563896474822559F582E43495F515
:1016A00083E012439456AA0056BF0156D40256E96D
:1016B00003571304572805573D0657640C57920DDE
:1016C00057BF0E57EC0F00005820E55925E024C6FF
:1016D000F582E4349BF58374F0F0A37415803CE547
:1016E0005925E024C6F582E4349BF58374F0F0A319
:1016F00074108027E55925E024C6F582E4349BF573
:101700008374F0F0A374058012E55925E024C6F532
:1017100082E4349BF58374F0F0A3E4F0E55925E00E
:101720002402F582E43495F583740FF0A3748FF0EE
:10173000025820E55925E024C6F582E4349BF58360
:10174000740FF0A374F58027E55925E024C6F582CF
:10175000E4349BF583740FF0A374F08012E55925EF
:10176000E024C6F582E4349BF583E4F0A3740DF025
:10177000E55925E02402F582E43495F583E4F0A3ED
:10178000F0025820900447E0AB5DAA5EA95F1242C8
:101790004D900446E0AB5DAA5EA95F900001124245
:1017A0005F900445E0855C82855B83F09004440291
:1017B000581790044BE0AB5DAA5EA95F12424D90B2
:1017C000044AE0AB5DAA5EA95F90000112425F90FF
:1017D0000449E0855C82855B83F0900448805890E2
:1017E000044FE0AB5DAA5EA95F12424D90044EE04B
:1017F000AB5DAA5EA95F90000112425F90044DE0CC
:10180000855C82855B83F090044C802B900453E0D0
:10181000AB5DAA5EA95F12424D900452E0AB5DAA97
:101820005EA95F90000112425F900451E0855C82E6
:10183000855B83F0900450E0855C82855B83A3F038
:10184000AB5DAA5EA95FC003C002C0011229D9FF27
:10185000AB62AA63A9641229D95FD001D002D00378
:1018600012424DAB5DE55F2401F9E4355EFAC00339
:10187000C002C0011229D9FFAB62AA63A96490001B
:10188000011242205FD001D002D00312424D855C8C
:1018900082855B83C083C082E0FF8561828560832F
:1018A000E0FEEF5ED082D083F0855C82855B83A30F
:1018B000C083C082E0FF856182856083A3E0FEEF84
:1018C0005ED082D083F0E55925E02402F582E4342D
:1018D00095F583E0FEA3E04E603B755A0B74017EE4
:1018E00000A85A088005C333CE33CED8F9FFE55996
:1018F00025E02402F582E43495F583E05EFEA3E062
:101900005F4E6006E55A2410805D155AE55AC3946F
:101910000050CA8056E55925E024C6F582E4349B80
:10192000F583E0FEA3E04E603D755A0F74017E0022
:10193000A85A088005C333CE33CED8F9FFE5592520
:10194000E024C6F582E4349BF583E05EFEA3E05F0D
:101950004E6008909E4BE55AF08010155AE55AC328
:10196000940050C88005E4909E4BF0E55925E02492
:10197000C6F582E4349BF583E0FEA3E04E603BE4D1
:10198000F55A74017E00A85A088005C333CE33CEC1
:10199000D8F9FFE55925E024C6F582E4349BF583A8
:1019A000E05EFEA3E05F4E6008909E4CE55AF0803A
:1019B0005B055AE55AB410CA8052E55925E0240265
:1019C000F582E43495F583E0FEA3E04E6039E4F55A
:1019D0005A74017E00A85A088005C333CE33CED88E
:1019E000F9FFE55925E02402F582E43495F583E01A
:1019F0005EFEA3E05F4E6006E55A2410800A055A99
:101A0000E55AB40CCC8005E4909E4CF0909E4BE0DF
:101A1000FF75F009E55990964812435FEFF0909EEC
:101A20004CE0FE75F009E55990964912435FEEF0DF
:101A300074842559F582E43404F583E0D39F40058E
:101A4000909E4B516F74842559F582E43404F583DC
:101A5000E0FF909E4CE0FEEFC39E5002516F909EBF
:101A60004BE0FFD3941340079096437403F022EFAA
:101A7000D3940B40079096437402F022EFD3940363
:101A800040079096437401F022E4909643F022E0E0
:101A9000FD74262559F582E4349DF583EDF0AF59A8
:101AA000D310AF01C3C0D0EFC39420500E74842F65
:101AB000F582E43404F583EDF0802974A62FF582D5
:101AC000E4349CF583EDF0909E75EFF024A6F5824A
:101AD000E4349CF583E0909E76F07B017A9E7975E4
:101AE0007D0251C9D0D092AF22D310AF01C3C0D074
:101AF000909E9412438B909E97E054F04406FFF022
:101B0000ED540FC454F0FEEF540F4EF0909E94121B
:101B1000436B909E9112438B7B017A9E799771D48F
:101B2000D0D092AF228F508D51E551541FF556748D
:101B3000012FF582E43494F583E0F5549004FDE040
:101B4000B401057557038003755701EBC3955740E2
:101B500004AF508033E5542553F555E5569041D6F2
:101B600093FFE555D39F740140112550F582E4346D
:101B700094F583E4F0AD51AF5041802550F582E4F7
:101B80003494F583E555F022AD0775F009ED909694
:101B90004812435FE0FF74672DF582E4349DF583BE
:101BA000E0541FF558D39F40028F58E55825E02494
:101BB0009EF582E43441F583E493FE740193FFE5DE
:101BC0005825E02466F582E43441F5837401932FAF
:101BD000FFE4933EC313FEEF13FFED25E024C2F5AF
:101BE00082E43495F583EEF0A3EFF0AF05AD5851E4
:101BF00080AF5822D310AF01C3C0D0909E8E124345
:101C00008B909EAFE0FF04F0900001EF12425F7FE7
:101C1000AF7E019167EF6049909E8E12436B8B1EE1
:101C20008A1F89207521027B017A0179A01245095A
:101C3000909E9112436B8B1E8A1F8920909E8E125C
:101C4000436B1229D9FFC4540FF5217B017A017926
:101C5000A21245099001AF74FFF09001CBE06480BF
:101C6000F0D0D092AF22909E2FE054F04403F05475
:101C70000F4480F07B007A007913909E9112438B81
:101C80000B7A9E792F61D4D310AF01C3C0D0909E40
:101C90009DEEF0A3EFF0E4A3F0A3F0909E9DE0FE94
:101CA000A3E0F5828E83E0602DC3909EA0E094E8CF
:101CB000909E9FE09403400B9001C6E04410F07F9B
:101CC000008015909E9FE475F0011242817F0A7E8C
:101CD0000012375480C57F01D0D092AF22AC07EC00
:101CE000C39420500D74842CF582E43404F583E011
:101CF000800B74A62CF582E4349CF583E0547FF5C8
:101D000064E564541FFF909E40F075F009EC9096D6
:101D10004912435FE0909E42F075F009EC909648BE
:101D200012435FE0FE909E43F0EC25E024C6F5826E
:101D3000E4349BF583E0FBA3E0909E44CBF0A3EB5F
:101D4000F0EC25E02402F582E43495F583E0FBA372
:101D5000E0909E46CBF0A3EBF0EFD39E400A909E1E
:101D600043E0909E40F0F564ED7002C113909E41F7
:101D7000EDF0E56430E60A909E40E0F564A3E014DF
:101D8000F0909E41E07002C113909E40E0FFD3941A
:101D9000005002C113E4909E3FF0EF14909E3EF07D
:101DA000909E42E0FD909E3EE0FFD39D406BEF94FD
:101DB000104021EF24F0FF74017E00A80708800581
:101DC000C333CE33CED8F9FF909E46E05EFEA3E04B
:101DD0005F4E7027909E3EE0FFC394105033740115
:101DE0007E00A807088005C333CE33CED8F9FF9014
:101DF0009E44E05EFEA3E05F4E6016909E3EE0F5DE
:101E000064A3E004F0909E41E0FF909E3FE06F608D
:101E100008909E3EE014F08087909E41E0FF909EE7
:101E20003FE0C39F500D909E3EE0B50506909E4258
:101E3000E0F564E56425E0249EF582E43441F58311
:101E4000E493FE740193FFE56425E02466F582E4E3
:101E50003441F5837401932FFFE4933EC313FEEFE7
:101E600013FFEC25E024C2F582E43495F583EEF00F
:101E7000A3EFF0AF04AD645180AF64228F771245B9
:101E8000A6EF6401702E909E521247CCE577601049
:101E900074212FF582E434FCF583E04410F0800EC9
:101EA00074212FF582E434FCF583E054EFF09004C4
:101EB0001F7420F022900604E054BFF0EF6009E5A3
:101EC00022B40104E4FFD15C5323F043230C22909D
:101ED000013C74FFF0A3F0A3F0900134F0A3F0A351
:101EE000F0A3F0FD7F54124CE37DFF7F55124CE3CD
:101EF0007DFF7F56124CE37DFF7F57024CE390003D
:101F000002E054E07F0160027F00229000F3E07F56
:101F10000030E3037F01222290016474A0F022C00C
:101F2000E0C0F0C083C082C0D075D000C000C00146
:101F3000C002C003C004C005C006C0079001C4743D
:101F4000FFF0745EA3F05391EF900051E0FF90001A
:101F500055E05FF53DE53D30E6187440F0909E1D7C
:101F6000E05403FFBF030B909E1AE060057F01124F
:101F70004CF8E53D30E7159000557480F0909E1DBB
:101F8000E05403FFBF03057F02124CF89001C474B4
:101F9000FFF0745EA3F0D007D006D005D004D003C4
:101FA000D002D001D000D0D0D082D083D0F0D0E009
:101FB000328F6B8C6C8D6D228F6E8C6F8D7022E4E6
:101FC000F522F526F52575240C75230C909E73F0EB
:101FD000909E71F0909E70F0909E7204F0909E64BE
:101FE000F0E4909E74F0909E66F0909E6E7407F000
:101FF000E4909E65F0909E6CF0A37402F0909E6A4F
:1020000014F0A37403F0909E697414F0909E6F74A2
:1020100005F0E4909E68F0909E63F0909E5FF02241
:10202000E4909E74F0909E65F0F526228B598A5AB2
:10203000895B1100AB59AA5AA95B1229D9F525145D
:10204000600E14601E14602F240370407F01803ADC
:10205000AB59AA5AA95B900002124220FDE4FF117D
:102060006D8027AB59AA5AA95B900002124220FD4D
:102070007F01116D1F8013AB59AA5AA95B90000212
:10208000124220FD7F02116DE4FF119822EF24FE21
:10209000600B047022909E727401F08016ED700A3D
:1020A000909E6FE0909E72F08005909E72EDF09091
:1020B0009E72E0909E64F022EF6401702F7D7C7F21
:1020C000021236757D027F03123675900157E4F0D7
:1020D00090013C7402F012472BE4FF311F9006047C
:1020E000E0547FF090060AE054F8F0229001367434
:1020F0007CF0A37402F07D7CFF1236E67D027F0344
:102100001236E6900604E04480F090060AE04407A8
:10211000F0909E6CE0A3E0900558F0E52230E019C5
:10212000909E66E07018E004F0E523540FC3940419
:10213000500C7D017F0402472FE4909E66F022EF51
:10214000600B909E60E0B40110E4FF8009909E60F7
:10215000E0B401057F011277D1229001377402F0BB
:1021600090052274FFF031C3EF70069001C874FD32
:10217000F07D027F031236E6E52560047F01311F02
:1021800051045323F043230222D310AF01C3C0D024
:10219000900001124220909E73F0900003124220A2
:1021A000909E63F01229D965256002110CD0D0925F
:1021B000AF227D027F03123675E5251424FD5002FF
:1021C0008020909E73E060067D017F0C800DE523EA
:1021D000540FC3940450077D017F0412472FE4FF7E
:1021E000311F22E4909EA9F0A3F09005F8E0700F53
:1021F000A3E0700BA3E07007A3E070037F0122D37C
:10220000909EAAE094E8909EA9E0940340037F008A
:10221000227F327E00123754909EA9E475F001129D
:10222000428180C67F787E081227DE909DFF122AA9
:102230007F7F047E0C1227DE909E03122A7F7F0090
:102240007E081227DE909E07122A7F909E60E09003
:102250009DFFB4010D124353EF54C7FFED54C7FD6A
:102260008007124353EF54C7FFEC908085122A7FFA
:102270007F787E08122FD9909E03124353EF540F9C
:10228000FFEC908085122A7F7F047E0C122FD9905C
:102290009E07124353EF4402FFEC908085122A7F81
:1022A0007F007E08122FD97F707E0E1227DE909E4F
:1022B0000B122A7F908085122A8B001B25A07F702D
:1022C0007E0E122FD9908059122A8B00000000E454
:1022D000FDFF123481909E60E0B40111908059128C
:1022E0002A8B00000000E4FD7F0112348122124B92
:1022F000C4EF640160089001B97401F08030909ED1
:1023000071E060089001B97402F08022909E70E044
:1023100060089001B97404F08014E524540FD3943C
:102320000440089001B97408F080037F01229001F5
:10233000B87408F07F0022124BC4EF64016008906B
:1023400001B97401F0804AE526540360089001B990
:102350007402F0803CE524540FD3940240089001AD
:10236000B97404F0802BE52630E2089001B97408B6
:10237000F0801EE52630E4089001B97410F0801159
:10238000909E66E060089001B97420F080037F01A0
:10239000229001B87404F07F0022E51260089001D9
:1023A000B97401F0805BE524540FD3940140089088
:1023B00001B97402F0804A900287E060089001B988
:1023C0007404F0803C909E5EE0B40110909E4DE05D
:1023D000FEA3E0F5828E83E060168025909E5EE08D
:1023E000700E9001AFE060089001B97408F08011A0
:1023F000909E68E070089001B97410F080037F012E
:10240000229001B87402F07F0022909EAEEFF0910E
:1024100003909EAEE06005900522E4F05323F04364
:10242000230422909DFF124353908085122A7F7FC0
:10243000787E08122FD9909E031243539080851204
:102440002A7F7F047E0C122FD9909E07124353904F
:102450008085122A7F7F007E08122FD9909E0B1252
:102460004353908085122A7F7F707E0E122FD99061
:102470008059122A8B00032D95E4FDFF12348190C0
:102480009E60E0B40111908059122A8B00032D95B3
:10249000E4FD7F01123481228F27E4909EA7F0A3F0
:1024A000F0900109E07F0030E7027F01EF652760CF
:1024B0003EC3909EA8E09488909EA7E094134008A5
:1024C0009001C6E04480F022909EA7E475F00112CE
:1024D00042817F147E00123754D3909EA8E094323C
:1024E000909EA7E0940040B99001C7E030E0B2228E
:1024F000E52430E619E524540FFF909E62E0FE4F7C
:1025000090012FF0EE6480909E62F05324BF228FE2
:10251000761245A6EF6401702E909E531247CCE5CB
:1025200076601074212FF582E434FCF583E04410CA
:10253000F0800E74212FF582E434FCF583E054EF33
:10254000F090041F7420F022E52264017061E525FB
:10255000605DE52564026006E52564057027900648
:10256000ABE0909E64F09006AAE0909E72F0909E80
:1025700064E07007909E72E0FF8005909E64E0FF2B
:10258000909E64EFF0909E66E06003E014F0E490AB
:102590009E65F0900157F090013C7402F05326FDC7
:1025A0005326EFE5251424FD5002800312455322E3
:1025B000E4FFE525605FE52264017059E5251460BC
:1025C0002B24FD6027240224FB50028021909E646E
:1025D000E014F0E06004A3E06014909E64E07008F2
:1025E000909E72E0909E64F07F0180027F01EF6018
:1025F00024432610E4909E86F0909E6E12445690DE
:1026000001577405F0E523540FC3940450077D016E
:102610007F0412472F22E5256039909E74E0600DFB
:10262000E4F05326FDE526540770288023909E652C
:10263000E004F05326EF909E6AE0FF909E65E0D3A1
:102640009F400DE522B4010BA3E07007E004F022E7
:102650001244D122EFC394205039EF30E017EDC47B
:1026600054F0FDEFC313FE24A4F582E43404F58393
:10267000E0540F8010EFC313FE24A4F582E4340469
:10268000F583E054F0F074A42EF582E43404F5836D
:10269000E04DF022AD07EDC39420500D74842DF56C
:1026A00082E43404F583E0800B74A62DF582E434D3
:1026B0009CF583E0547FF564E564541FFC75F009D4
:1026C000ED90964812435FE0FF909E3EF0ED25E0CE
:1026D0002402F582E43495F583E0FBA3E0909E3F6D
:1026E000CBF0A3EBF0ED25E024C6F582E4349BF5B6
:1026F00083E0FBA3E0909E41CBF0A3EBF0EC25E060
:102700002466F582E43441F583E493FA740193FB83
:10271000ED25E024C2F582E43495F583EAF0A3EBDD
:10272000F0ECC39F4002E19274672DF582E4349D82
:10273000F583ECF004FB909E3EE0FFEBD39F40025C
:10274000E1C3EBC394104021EB24F0FF74017E0041
:10275000A807088005C333CE33CED8F9FF909E3F3B
:10276000E05EFEA3E05F4E7023EBC3941050407414
:10277000017E00A803088005C333CE33CED8F9FF0D
:10278000909E41E05EFEA3E05F4E6023BB11099086
:102790009E40E030E7027B17EB64136003BB120935
:1027A000909E3FE030E0027B18AC038C6480340BD9
:1027B0008084909E3EE0FB6C706974672DF582E426
:1027C000349DF583ECF075F009ED90964A12435F65
:1027D000E0B4010CE56420E607EC4440F5648003B6
:1027E000AF6422EC25E0249EF582E43441F583E4D5
:1027F00093FE740193FFEC25E02466F582E43441F6
:10280000F5837401932FFFE4933EC313FEEF13FF90
:10281000ED25E024C2F582E43495F583EEF0A3EFD4
:10282000F0805BECD39B4056909E3EE0FF74672D9A
:10283000F582E4349DF583EFF0AC078F64EC25E07E
:10284000249EF582E43441F583E493FE740193FF02
:10285000EC25E02466F582E43441F5837401932F7E
:10286000FFE4933EC313FEEF13FFED25E024C2F512
:1028700082E43495F583EEF0A3EFF0AF64227401A7
:102880002DF582E43494F583E4F0AF05E5644480EB
:10289000FD125A80E5644480FF22E4F559E559B4FD
:1028A0002014909AC5E004F0909501E0FF909AC53D
:1028B000E0B50702E4F075F009E55990964B124334
:1028C0005FE064016002C1C0E55925E02480F58223
:1028D000E43493F583E0FEA3E0D39400EE9400503B
:1028E00002C1C0E55994204008909AC5E06002C139
:1028F000CBE55975F00AA42400F9749035F0755EA3
:1029000001F55F8960E55925E02480F582E4349380
:10291000F583E0FFA3E0909E38CFF0A3EFF0E559F8
:1029200025E024C4F582E43498F583E0FFA3E09029
:102930009E3ACFF0A3EFF0E559C39420501474846D
:102940002559F582E43404F583E0543F909E34F039
:10295000801274A62559F582E4349CF583E0543F37
:10296000909E34F0909E34E0FE541FA3F075F00961
:10297000E55990964812435FE0909E3DF074E6253D
:1029800059F582E4349CF583E0C3940540026199D3
:10299000909E3DE0FF909E35E09F4013909E3DE06D
:1029A000909E35F0EE5440FE909E34F0EF4EF09045
:1029B00004FDE0540564017029909E35E0FF9041CC
:1029C0004A93FE74442559F582E4349AF583E0C3B2
:1029D0009E4006EF9040DA8030909E35E09040F6C1
:1029E0008027909E35E0FF90414A93FE744425591C
:1029F000F582E4349AF583E0C39E4006EF904112DD
:102A00008007909E35E090412E93909E3CF0909EE2
:102A10003CE075F006A42450F9744035F0755BFF76
:102A2000F55C895D909E34E09041F293FFD3909ED7
:102A30003BE09F909E3AE094004009E4FDAF5912BC
:102A40005CBDC157E55925E024C2F582E43495F513
:102A500083E0F561A3E0F562AB5BAA5CA95D122996
:102A6000D9FF7E00AB5EAA5FA960124297FDACF071
:102A70001229F2EF2562F562EE3561F561AB5BAAD2
:102A80005CA95D900001124220FF7E00AB5EAA5F50
:102A9000A9609000021242C2FDACF01229F2EF25AB
:102AA00062F562EE3561F561AB5BAA5CA95D9000F1
:102AB00002124220FF7E00AB5EAA5FA96090000474
:102AC0001242C2FDACF01229F2EF2562F562EE353A
:102AD00061F561AB5BAA5CA95D900003124220FF27
:102AE0007E00AB5EAA5FA9609000061242C2FDACF8
:102AF000F01229F2EF2562F562EE3561F561AB5B0C
:102B0000AA5CA95D900004124220FF7E00AB5EAA81
:102B10005FA9609000081242C2FDACF01229F2EFEA
:102B20002562F562EE3561F561AB5BAA5CA95D904B
:102B30000005124220FF7E00909E38E0FCA3E0FDDD
:102B40001229F2D3E5629FE5619E400CE5629FF594
:102B500062E5619EF5618005E4F561F562E5592560
:102B6000E024C2F582E43495F583E561F0A3E562E3
:102B7000F0909E34E025E02466F582E43441F5834C
:102B8000C37401939562E49395615007AF5912663F
:102B900074C12B909E34E025E0249EF582E43441FC
:102BA000F583D37401939562E49395615002C12B30
:102BB0007D01AF59125CBDC12B74E62559F582E445
:102BC000349CF583E0FC64056002A134909643E0F8
:102BD000FFB4030B909E35E0C39419403D802EEF67
:102BE000B4020B909E35E0C39411402E801F909646
:102BF00043E0FFB4010B909E35E0C3940A401B8074
:102C00000CEF7011909E35E0C39403400D909A84B0
:102C10007401F08005E4909A84F074842559F5825B
:102C2000E43498F583E0F56374442559F582E4347F
:102C30009AF583E0FFC39430500281E1909A84E0DA
:102C40006401600281E174852559F582E4349AF5C6
:102C500083E0640A6051EF2405FFE433FE744125EC
:102C600059F582E43494F583E0FDD39FEE6480F857
:102C70007480985032ED2405FFE433FE74442559E6
:102C8000F582E4349AF583E0D39FEE6480F8748093
:102C900098501474262559F582E4349DF583E0FF9D
:102CA000909E35E06F603D74442559F582E4349A76
:102CB000F583E0FFD394424005756305800EEFD3A2
:102CC0009439400575630380037563017441255988
:102CD000F582E43494F583EFF074852559F582E4A8
:102CE000349A802974E62559F582E4349CF583E40E
:102CF000F074852559F582E4349AF583E004F08078
:102D000010E4F56374E62559F582E4349CF583E418
:102D1000F0909E35E0FF74262559F582E4349DF548
:102D200083EFF074842559F582E43498F583E563E4
:102D3000F075F009E55990964C12435FE0B401102C
:102D4000E4F56374E62559F582E4349CF583E4F0F8
:102D5000AD63C126EC64066002C12BF561F562909B
:102D6000421393FF7E00909E38E0FCA3E0FD122901
:102D7000F2909E36EEF0A3EFF074842559F582E4CC
:102D80003498F583E0F563E4F55AAB5EAA5FA96079
:102D900075F002E55AA4F58285F0831242C2FDACBB
:102DA000F0E55A90420E93FF7E001229F2EF256261
:102DB000F562EE3561F561C3909E37E09562909EB5
:102DC00036E095614007055AE55AB405BDE55AC39A
:102DD00013F55AE563B40106E55A70468013E563BE
:102DE000B40315E55A70057563038039E55AB401DB
:102DF00005756301802F802AE563B40528E55A70C4
:102E000005756305800DE55AB401057563038003FC
:102E1000756301D3909E3BE09403909E3AE094004A
:102E20004003E4F563D3909E3BE09403909E3AE028
:102E300094004003E4F56374842559F582E43498E2
:102E4000F583E563F0FDAF5912663474E62559F554
:102E500082E4349CF583E0D3940574E6500E255942
:102E6000F582E4349CF583E004F0800B2559F5826B
:102E7000E4349CF583E4F0AB5EAA5FA960E4F5F06E
:102E80001242FAAB5EAA5FA960900002E4F5F0126C
:102E90004319900004E4F5F0124319900006E4F59C
:102EA000F0124319900008E4F5F0124319E5592592
:102EB000E02480F582E43493F583E4F0A3F0E5594F
:102EC00025E024C4F582E43498F583E4F0A3F0E52A
:102ED0005925E02444F582E43499F583E4F0A3F025
:102EE0000559E559C394405002017D229004447471
:102EF00011F0A374F0F0A3740FF0A3E4F0FD74A438
:102F00002DF582E43404F583E4F00DBD10F0E49077
:102F10009AC5F090950104F0E4FD75F00AED9090EB
:102F20000012435FE4F0A3F075F00AED90900212F6
:102F3000435FE4F0A3F075F00AED90900412435F54
:102F4000E4F0A3F075F00AED90900612435FE4F010
:102F5000A3F075F00AED90900812435FE4F0A3F03F
:102F600074262DF582E4349DF5837413F074852D59
:102F7000F582E4349AF583E4F074842DF582E43428
:102F800098F583E4F0ED25E02480F582E43493F5B0
:102F900083E4F0A3F0ED25E024C4F582E43498F551
:102FA00083E4F0A3F0ED25E024C4F582E43499F540
:102FB00083E4F0A3F0ED25E02444F582E43499F5B0
:102FC00083E4F0A3F0ED25E024C6F582E4349AF51D
:102FD00083E4F0A3F0ED25E02446F582E4349BF58C
:102FE00083E4F0A3F074862DF582E4349CF583E449
:102FF000F074462DF582E4349CF583E4F074E62DFC
:10300000F582E4349CF583E4F09041C493FE7401AE
:1030100093FF90418C7401932FFFE4933EC313FE02
:10302000EF13FFED25E024C2F582E43495F583EE3D
:10303000F0A3EFF075F009ED90964B12435F740129
:10304000F075F009ED90964A12435F7401F07482B6
:103050002DF582E43495F583740CF075F009ED904C
:10306000964612435F74FFF0A3F075F009ED909659
:103070004412435FE4F0A3740FF075F009ED9096ED
:103080004812435F7413F075F009ED9096491243AE
:103090005FE4F0EDC39420500F74842DF582E43486
:1030A00004F5837413F0800D74A62DF582E4349C2E
:1030B000F5837413F00DED64406003026EFA221282
:1030C00029D9F559C394405015900002124220FFAF
:1030D00074442559F582E4349AF583EFF022E559DA
:1030E000B4400A900002124220909642F0229000D2
:1030F00004124220FF543FFEEF5480C413131354B4
:1031000001FDAF060255301229D9909501F0221227
:1031100029D9F52222900002124220FF30E0251228
:1031200029D9909E6AF0900001124220909E6BF087
:10313000EFC313547F909E69F090000312422090D9
:103140009E6FF022909E6A7401F0909E6B7403F063
:10315000909E697414F0909E6F7405F0221229D924
:1031600030E018C313547F909E6EF090000112421D
:1031700020FF909E6CE4F0A3EFF022909E6E740707
:10318000F0909E6CE4F0A37402F022900209E0FD3E
:103190001229D9FEAF05ED2E909E50F0900001123D
:1031A0004220FFED2F909E51F0900002124220FF2E
:1031B000ED2F909E52F0900003124220FFED2F90D1
:1031C0009E53F0900004124220FFAE05ED2F909E1A
:1031D00054F022D310AF01C3C0D0909E3F12438B56
:1031E000909E3F12436B9000011242C2FAE5F02418
:1031F00000FFE43AFE909E3F12436B900001EE8F79
:10320000F01243191229D9FF602CB57116909E3F18
:1032100012436B9000011242C265737004E572653F
:10322000F06023909E3F12436B9000011242C2FF58
:10323000AEF0512B8010909E3F12436B1229D9653E
:103240007160031244C8D0D092AF22909E42EEF03B
:10325000A3EFF07571018E72F573E4FD7F0B516D74
:10326000E4FD7F02516D7137E4FF7199E4F57590CB
:1032700001C9E575F0909E42E0FCA3E0FDECFB8DFA
:1032800044E4F5457D017F607E010235ABD310AF8C
:1032900001C3C0D0909E45EDF0909E44EFF0D394D2
:1032A00007504FA3E0701A909E44E0FF7401A807F6
:1032B000088002C333D8FCF4FF900047E05FF08041
:1032C00017909E44E0FF7401A807088002C333D81A
:1032D000FCFF900047E04FF0124BDB909E44E0FF74
:1032E0007401A807088002C333D8FCF4FF9000469D
:1032F000805A909E44E024F8F0A3E0701D909E4414
:10330000E0FF7401A807088002C333D8FCC454F05E
:10331000F4FF900043E05FF0801A909E44E0FF7459
:1033200001A807088002C333D8FCC454F0FF900002
:1033300043E04FF0124BDB909E44E0FF7401A8077E
:10334000088002C333D8FCF4FF900043E05FF01222
:103350004BDBD0D092AF227F0B71A6EF657460106B
:10336000E574B40105E4F57480037574017F0122EE
:103370007F0022E5716401703F7137BF01047F0156
:103380007199900046E04404FD7F46124CE39000A2
:1033900044E054FBFD7F44124CE3900046E054FBB4
:1033A000FD7F46124CE37F0271A68F759001C9E53F
:1033B00075F0B40103124FDA229001CAE574F0EF00
:1033C0006003124FDA22D310AF01C3C0D0909EB178
:1033D000EFF0D394075047E0FF7401A8070880027C
:1033E000C333D8FCF4FF900046E05FF0124BDB9053
:1033F0009EB1E0FD74017E00A805088005C333CEB0
:1034000033CED8F9FF900044E0FBE4FEEF5BA80563
:10341000088006CEA2E713CE13D8F8FF8044909E12
:10342000B1E024F8F0E0FF7401A807088002C3337C
:10343000D8FC124BD3909EB1E0FD74017E00A8052C
:10344000088005C333CE33CED8F9FF900042E0FBAD
:10345000E4FEEF5BA805088006CEA2E713CE13D8E2
:10346000F8FFD0D092AF22D310AF01C3C0D0909E4E
:1034700056E0909E40F0909E57E0F564A3E0F5651D
:10348000E4F56174592561F582E4349EF583E0FF2B
:1034900074662561F8A6070561E561B404E5909EB0
:1034A00040E012439474A40075CC0174AA0274AA7B
:1034B0000374AA0475CC05759C8075B28175CC82A5
:1034C000000075C8AF69B1D3A1CC909E40E0FFB4B5
:1034D0000208909E3F7401F0800FEF909E3FB4036E
:1034E000057402F080037404F0C3E5649408504945
:1034F000E4F561909E3FE0FFE561C39F4002A1CCEF
:10350000C3E56494015014E5612565FFC374039518
:10351000612466F8E6FD124CE3801AC374039561DA
:103520002466F8E6FFE5617C002565FDEC35648DD9
:1035300082F583EFF0056180BAC3E5649410400220
:10354000A1CC909E40E064046002A1CCAF67FCFD7A
:10355000FE7810122A6CC004C005C006C007AF6612
:10356000E4FCFDFE7818122A6CD003D002D001D002
:1035700000124346C004C005C006C007AF68E4FCA3
:10358000FDFE7808122A6CD003D002D001D00012C0
:103590004346A804A905AA06AB07AF69E4FCFDFEF3
:1035A000124346A3122A7F909E4112435390808576
:1035B000122A7FAF65AE64122FD98030E5687F0094
:1035C000FEEF2569F563E43EF562AF63FE12375402
:1035D000801AE5687F00FEEF2569F563E43EF56239
:1035E000AF63FE1236CB80047F0080027F01D0D013
:1035F00092AF228F6AE4909E45F0E56A14FE909E99
:1036000045E0FFC39E500EEF04FD1234B7909E4577
:10361000E004F080E5E56A14FF7DFF1234B7909E68
:1036200045E56AF0909E45E0C394FF500FE0FF042B
:10363000FD1234B7909E45E004F080E8AD6A7FFF4C
:103640000234B7D310AF01C3C0D0E4F55B755C049E
:10365000F55DF55FF560900209E0FF1229D9FEEFF4
:103660002EF55E30E008755900755A808005E4F546
:1036700059F55AE55EC31390FD10F07420255BF5F3
:103680005BAD5AE55B2DFF2401F582E434FCF58344
:10369000E0909E56F074022FF582E434FCF583E04E
:1036A000FEE55B2D2403F582E434FCF583E0240081
:1036B000FFE43E909E57F0A3EFF07F04E55B255AB0
:1036C0002F2400F582E434FCF583E0FE74552FF5D9
:1036D00082E4349EF583EEF00FBF08E09147EF706F
:1036E0003F9001C3E06025C3E56094E8E55F940383
:1036F00040099001C6E04410F080630560E5607009
:1037000002055F7F0A7E0012375480D59001C6E023
:103710009001C330E20574FEF0804374FFF0803EF8
:10372000E55BB47823E4F55B055EE55A64804559B2
:103730007006F559F55A8006755900755A80E55E90
:10374000C31390FD10F080067408255BF55BE55D02
:10375000155D7002155CE55D455C6002C161D0D00D
:1037600092AF2290063474FFF0E4A3F0A3F0A3F02C
:1037700022E4909E5DF0900080E04480FD7F800216
:103780004CE38E598F5A8B5B8A5C895DE4909E3442
:10379000F0EF900031F0124BDBE5595403FF90003D
:1037A00032E054FC4FF0124BDB900033E0547FF0DA
:1037B000124BDB900033E020E70E909E34E0C39480
:1037C000645005E004F080EB909E34E0C3946450B4
:1037D00010900030E0AB5BAA5CA95D12424D7F0106
:1037E000227F0022E4F57422909E60E0909E0FF00C
:1037F00022EF7003027989909E0FE06003027D54EE
:10380000909DFB124353908085122A7F7F8C7E0807
:10381000122FD9909DA7124353908085122A7F7F43
:10382000447E08122FD9909DAB124353908085128D
:103830002A7F7F5C7E08122FD9909DAF1243539050
:103840008085122A7F7F6C7E0E122FD9909DB31235
:103850004353908085122A7F7F707E0E122FD9905D
:103860009DB7124353908085122A7F7F747E0E127B
:103870002FD9909DBB124353908085122A7F7F7869
:103880007E0E122FD9909DBF124353908085122A2D
:103890007F7F7C7E0E122FD9909DC3124353908060
:1038A00085122A7F7F807E0E122FD9909DC71243EA
:1038B00053908085122A7F7F847E0E122FD9909D8F
:1038C000CB124353908085122A7F7F887E0E122F61
:1038D000D9909DCF124353908085122A7F7F8C7E92
:1038E0000E122FD9909DD3124353908085122A7FB8
:1038F0007FD07E0E122FD9909DD712435390808592
:10390000122A7F7FD47E0E122FD9909DDB12435353
:10391000908085122A7F7FD87E0E122FD9909DDF4E
:10392000124353908085122A7F7FDC7E0E122FD99E
:10393000909DE3124353908085122A7F7FE07E0E94
:10394000122FD9909DE7124353908085122A7F7FD2
:10395000EC7E0E122FD9909DEB124353908085126E
:103960002A7F7F047E0C122FD9909DEF1243539033
:103970008085122A7F7F047E0D122FD9909DF3122D
:103980004353908085122A7F7F0C7E09122FD99095
:103990009DF7124353908085122A7F7F047E081280
:1039A0002FD9909E0F7401F022909E0FE064016069
:1039B00002A1547F8C7E081227DE909DFB122A7F85
:1039C0007F447E081227DE909DA7122A7F7F5C7EAF
:1039D000081227DE909DAB122A7F7F6C7E0E122785
:1039E000DE909DAF122A7F7F707E0E1227DE909DA3
:1039F000B3122A7F7F747E0E1227DE909DB7122AA3
:103A00007F7F787E0E1227DE909DBB122A7F7F7CFF
:103A10007E0E1227DE909DBF122A7F7F807E0E12BF
:103A200027DE909DC3122A7F7F847E0E1227DE90B0
:103A30009DC7122A7F7F887E0E1227DE909DCB12B3
:103A40002A7F7F8C7E0E1227DE909DCF122A7F7FE9
:103A5000D07E0E1227DE909DD3122A7F7FD47E0E59
:103A60001227DE909DD7122A7F7FD87E0E1227DE86
:103A7000909DDB122A7F7FDC7E0E1227DE909DDF79
:103A8000122A7F7FE07E0E1227DE909DE3122A7FAE
:103A90007FEC7E0E1227DE909DE7122A7F7F047E48
:103AA0000C1227DE909DEB122A7F7F047E0D1227D9
:103AB000DE909DEF122A7F7F0C7E091227DE909DFB
:103AC000F3122A7F7F047E081227DE909DF7122AC8
:103AD0007F7F8C7E081227DE909EA1122A7F909E07
:103AE000A1124353ED44C0FDEC909EA1122A7F9099
:103AF0009EA1124353908085122A7F7F8C7E0812EC
:103B00002FD9908085122A8B000100007F447E0807
:103B1000122FD9908085122A8B00DB25A47F5C7E32
:103B200008122FD9908085122A8B20DB25A47F6C68
:103B30007E0E122FD9908085122A8B20DB25A47F40
:103B4000707E0E122FD9908085122A8B041B25A41B
:103B50007F747E0E122FD9908085122A8B041B252C
:103B6000A47F787E0E122FD9908085122A8B041B99
:103B700025A47F7C7E0E122FD9908085122A8B047B
:103B80001B25A47F807E0E122FD9908085122A8B50
:103B900063DB25A47F847E0E122FD9908085122AA4
:103BA0008B041B25A47F887E0E122FD9908085124E
:103BB0002A8B20DB25A47F8C7E0E122FD990808546
:103BC000122A8B20DB25A47FD07E0E122FD9908065
:103BD00085122A8B20DB25A47FD47E0E122FD9904C
:103BE0008085122A8B20DB25A47FD87E0E122FD948
:103BF000908085122A8B001B25A47FDC7E0E122F5D
:103C0000D9908085122A8B001B25A47FE07E0E129E
:103C10002FD9908085122A8B24DB25A47FEC7E0E81
:103C2000122FD97F047E0C1227DE909EA1122A7FCC
:103C3000909EA1124353E4FFEC909EA1122A7F9024
:103C40009EA1124353EF4411FFEC909EA1122A7FD4
:103C5000909EA1124353908085122A7F7F047E0C90
:103C6000122FD97F047E0D1227DE909EA1122A7F8B
:103C7000909EA1124353EF54F0FFEC909EA1122AA4
:103C80007F909EA1124353EF4401FFEC909EA1123E
:103C90002A7F909EA1124353908085122A7F7F0431
:103CA0007E0D122FD97F0C7E091227DE909EA11265
:103CB0002A7F909EA1124353E4FFEC909EA1122A0A
:103CC0007F909EA1124353EF4411FFEC909EA112EE
:103CD0002A7F909EA1124353908085122A7F7F0CE9
:103CE0007E09122FD97F0C7E091227DE909EA11229
:103CF0002A7F909EA1124353ED540FFDEC54F0FC2B
:103D0000909EA1122A7F909EA1124353ED4410FD74
:103D1000EC4401FC909EA1122A7F909EA112435375
:103D2000908085122A7F7F0C7E09122FD97F047E16
:103D3000081227DE909EA1122A7F909EA112435363
:103D4000EF54F0FFEC909EA1122A7F909EA11243A7
:103D500053EF4401FFEC909EA1122A7F909EA11286
:103D60004353908085122A7F7F047E08122FD9E466
:103D7000909E0FF022900002124220909E1EF0E0D2
:103D80006004E0F47021A2AFE433F559C2AF9000B3
:103D900047E054FBFD7F47124CE37D407F01123624
:103DA000AFE55924FF92AF22E4FD7F45124CE3902A
:103DB00004FDE4F0A3F0909E1EF0909E24F0909EEF
:103DC00027F0909E25F0909E28F0909E26F0909EE1
:103DD00029F0909E1004F0E4A3F0A3F0A3F0909ECD
:103DE00015F0909E1AF0909E1CF0909E2EF0909EE2
:103DF0001FF0909E1BF0909E14F0900051E044C084
:103E0000FD7F51024CE3909E2EE064016008909E7D
:103E10001CE06002C1BD909E10E0C394FF5005E01D
:103E200004F0803B909E11E0C394FF5006E004F044
:103E3000E48028909E12E0C394FF500AE004F0E46E
:103E4000909E11F08015909E13E0C394FF5010E0F7
:103E500004F0E4909E12F0909E11F0909E10F0906D
:103E60000044E0540C6076E030E232909E24E0C3DF
:103E700094FF5005E004F08024909E25E0C394FF59
:103E80005006E004F0E48011909E26E0C394FF50B9
:103E90000CE004F0E4909E25F0909E24F090004405
:103EA000E030E332909E27E0C394FF5005E004F039
:103EB0008024909E28E0C394FF5006E004F0E48044
:103EC00011909E29E0C394FF500CE004F0E4909E12
:103ED00028F0909E27F09004FDE04401F02217EDB9
:00000001FF
