:10000000C28802005800020007151444AC3F0100EA
:10001000CCCCCCCC000000000000000000000000B0
:1000200002459B00000000000000000000000000EE
:100030000000000259540000000000000000000011
:1000400000000000000000000000000000000000B0
:1000500000000000000000000000000000000000A0
:1000600000000002648C0000000000024BB200009F
:100070000504030200030605040300040605040248
:1000800000040807060400060A09080600080A0911
:10009000080400080A09080200080A090800000804
:1000A0001211100800101A19181000182221201817
:1000B00000202221201000202221200800202221BF
:1000C0001C080020222114080020222018080020EB
:1000D000313020100030313018000030312F101036
:1000E0000030312C10100030312810000030312049
:1000F0001000003031101000003004040405040426
:1001000004050505060604040405050506060404A1
:1001100005050505060604040505050506070A0B81
:100120000D100405050606090C11080809090A0C3A
:10013000101104040405040405070707080A040451
:100140000404060A0B0D05050707080B0D0F040430
:100150000405070709090C0E10120607090A0C0E00
:100160001113090909090C0E111300000000000009
:1001700000000024262A181A1D1F2127292A000002
:10018000001F23282A2C0004000400080010001877
:100190000024003000480060009000C000D80050EB
:1001A000007800A000C80140019001E00230012C5D
:1001B000014001E002D003E804B0064007D000028D
:1001C000000200040008000C001200180024003097
:1001D00000480060006C0028003C0050006400A053
:1001E00000C800F00118006400A000F0016801F4EC
:1001F0000258032003E8020202020202030304047D
:1002000005070203040A0C0E1012050707080B125B
:10021000243C010101010102030405060708010253
:1002200003040506070805060708090A0B0C201E2B
:100230001C18101800000000000000000000000062
:10024000BB010CE58229F582E5833AF583E0225073
:1002500006E92582F8E622BBFE06E92582F8E222BD
:10026000E58229F582E5833AF583E49322BB010612
:1002700089828A83F0225002F722BBFE01F322F822
:10028000BB010DE58229F582E5833AF583E8F0228A
:100290005006E92582C8F622BBFE05E92582C8F290
:1002A00022C5F0F8A3E028F0C5F0F8E582158270C9
:1002B000021583E038F022BB010A89828A83E0F5C7
:1002C000F0A3E022500687F009E71922BBFE07E3FE
:1002D000F5F009E3192289828A83E493F5F0740129
:1002E0009322BB0110E58229F582E5833AF583E08C
:1002F000F5F0A3E0225009E92582F886F008E6220D
:10030000BBFE0AE92582F8E2F5F008E222E5832A3D
:10031000F583E993F5F0A3E99322BB010A89828A68
:1003200083F0E5F0A3F0225006F709A7F01922BBED
:10033000FE06F3E5F009F31922F8BB0111E5822965
:10034000F582E5833AF583E8F0E5F0A3F022500961
:10035000E92582C8F608A6F022BBFE09E92582C875
:10036000F2E5F008F222EF4BFFEE4AFEED49FDEC1C
:1003700048FC22E0FCA3E0FDA3E0FEA3E0FF22A4F2
:100380002582F582E5F03583F58322E0FBA3E0FAD0
:10039000A3E0F922F8E0FBA3A3E0F925F0F0E58261
:1003A000158270021583E0FA38F022EBF0A3EAF030
:1003B000A3E9F022D083D082F8E493701274019301
:1003C000700DA3A393F8740193F5828883E473748A
:1003D00002936860EFA3A3A380DFD083D082F8E408
:1003E000937012740193700DA3A393F8740193F5A5
:1003F000828883E473740293B5F006740393686093
:10040000E9A3A3A3A380D88E648F65AD65AC64AF68
:1004100063124A90AF65AE64900480E0540FFDAC67
:100420000774112CF582E434FCF583E04401F07488
:10043000112CF582E434FCF583E054FBF0AC077436
:10044000162CF582E434FCF583E044FAF074152CA4
:10045000F582E434FCF583E0441FF0AC0774062C0D
:10046000F582E434FCF583E0440FF0900453E4F0AB
:10047000900452F090045174FFF090045074FDF019
:1004800074142CF582E434FCF583E054C04DFD7403
:10049000142FF582E434FCF583EDF022124B55EF76
:1004A000640160089001B97401F0806EE525540381
:1004B00060089001B97402F08060E523540FD39472
:1004C0000240089001B97404F0804FE52530E2083D
:1004D0009001B97408F08042E52530E4089001B934
:1004E0007410F08035909257E060089001B9742044
:1004F000F0802790925CE060089001B97480F080F1
:1005000019E52660079001B9E4F0800E9001B9E486
:10051000F09001B87404F07F01229001B87404F0E7
:100520007F00220245030245067D017F0CD310AFF8
:1005300001C3C0D08F678D68E567540FFFE5225473
:100540000F6F6072E56730E230E52220E2057F013F
:10055000124AE7E52230E310E56720E30B1248A4D6
:10056000EF6053124B01804EE52220E349E56730EE
:10057000E344AF68124AB1803DE522540FFFBF0C3F
:100580000EE56720E3091248A4EF602A124B01E54B
:1005900022540FFFBF040EE56720E20912447CEFEE
:1005A0006014124A33E522540FFFBF0209124B8236
:1005B000EF6003124B31D0D092AF220245D90251E5
:1005C00077E493A3F8E493A34003F68001F208DFF5
:1005D000F48029E493A3F85407240CC8C333C4540B
:1005E0000F4420C8834004F456800146F6DFE480BF
:1005F0000B0102040810204080904B44E47E0193DC
:1006000060BCA3FF543F30E509541FFEE493A36090
:10061000010ECF54C025E060A840B8E493A3FAE4EB
:1006200093A3F8E493A3C8C582C8CAC583CAF0A33C
:10063000C8C582C8CAC583CADFE9DEE780BEE4FF59
:10064000E5246075E5216401706FE52414602B24B6
:10065000FD6027240224FB50028021909255E01473
:10066000F0E06004A3E06014909255E0700890926E
:1006700063E0909255F07F0180027F01EF603A4382
:100680002510E4909283F0909256E075F003A4FF59
:1006900090925FE02F909284F0E4FBFD7F547E0106
:1006A000124B979001577405F0E522540FC3940440
:1006B00050077D017F0412450D22E521640170671A
:1006C000E5246063E52464026006E5246405702780
:1006D0009006ABE0909255F09006AAE0909263F0FD
:1006E000909255E07007909263E0FF8005909255DC
:1006F000E0FF909255EFF0909257E06002E4F0E452
:10070000909256F09005587403F0900157E4F090E1
:10071000013C7402F05325FD5325EFE5241424FD1C
:100720005002800312470822E4909210F09006A92C
:10073000E0909210F0E054C070095325FE5325FD5F
:10074000124B7B909210E030E615432501909264A5
:10075000E064026005124ACC80081249F38003531A
:1007600025FE909210E030E727432502E490928323
:10077000F090925BE0909284F0E4FBFD7F547E0168
:10078000124B979001577405F09092657401F02216
:100790005325FD22EF640170307D787F021236759B
:1007A0007D027F03123675900157E4F090013C748E
:1007B00002F0124509E4FF1258A6900604E0547FA7
:1007C000F090060AE054F8F022900136747BF0A312
:1007D0007402F07D7BFF1236E67D027F031236E65F
:1007E000900604E04480F090060AE04407F0124BC3
:1007F00070E52120E005E4909257F02290922912B2
:10080000438B124B6490922912436B1229D9F52421
:1008100014600E14601F146031240370447F018043
:100820003D90922912436B900002124220FDE4FF9A
:10083000124A65802990922912436B90000212425D
:1008400020FD7F01124A651F801490922912436B8C
:10085000900002124220FD7F02124A65E4FF124717
:100860007422E4F525F52475230C75220C9092640E
:10087000F0909262F0909261F090926304F0909206
:1008800055F0E4909265F0909257F090925F740565
:10089000F0E4909256F090925DF0A37403F0909281
:1008A0005AF0A37405F09092597414F09092607409
:1008B00005F0E4909258F0909254F090927DF09070
:1008C000925CF022124B55EF640160089001B974FC
:1008D00001F08047909262E060089001B97402F0E4
:1008E0008039909261E060089001B97404F0802B27
:1008F000E523540FD3940440089001B97408F080A4
:100900001AE52660089001B97420F0800E9001B9B4
:10091000E4F09001B87408F07F01229001B87408E7
:10092000F07F0022E4909216F0E5246049909265F1
:10093000E0600DE4F05325FDE52554077038803361
:10094000909256E004F05325EF909216E0FF9092BB
:100950005AE02FFFE433FE909256E0D39FEE64807E
:10096000F8748098400DE521B4010BA3E07007E016
:1009700004F022124B7B22E5241424FD5002804710
:10098000909264E0602C124509E4909283F090927A
:1009900059E0909284F0E4FBFD7F587E01124B9762
:1009A00090015B7405F09006927401F0909262F0F1
:1009B0008010E522540FC3940450077D017F041278
:1009C000450DE4FF1258A622D310AF01C3C0D08F4B
:1009D0006390041DE06024900522E0F56674FFF04A
:1009E000127665BF010D909278E0FF7D0112580AE2
:1009F0001243E7900522E566F0800D909278E0FFC3
:100A00007D0112580A1243E790041F7420F0D0D0E1
:100A100092AF2290015FE4F090013C7408F0E49002
:100A20009283F0909259E0909284F0E4FBFD7F5C19
:100A30007E01124B9790015F7405F090069274024C
:100A4000F090926114F0E522540FC3940C500312FD
:100A50004509229001377402F090052274FFF012CC
:100A60007665EF70069001C874FDF07D027F031279
:100A700036E6E52460057F011258A612771B532243
:100A8000F043220222EF24FE600B04702290926356
:100A90007401F08016ED700A909260E0909263F01D
:100AA0008005909263EDF0909263E0909255F02271
:100AB000EF600F74212DF582E434FCF583E04410DF
:100AC000F02274212DF582E434FCF583E054EFF03C
:100AD00022900604E054BFF0EF600AE521B401055E
:100AE000E4FF1249A85322F043220C2290041DE097
:100AF0007014909277E0FFE4FD12580A8E698F6AB5
:100B000090041F7420F0229092A9EFF01276A69024
:100B100092A9E06005900522E4F05322F0432204FC
:100B200022900604E04440F0E521B401057F011263
:100B300049A85322F043220422E52330E612E5239C
:100B4000540FFF90012FE054804F6480F05323BF77
:100B5000225322F0432201124B85124B865322F07E
:100B600043220222419275004192A8004192AA00BC
:100B70004192A2000090041BE0547F647F7F0160DB
:100B8000027F0022E4909265F0909256F0F52522C3
:100B900090925DE0A3E0900558F0227D01AF230222
:100BA000450D7F00222222F0909259E0909284F02D
:100BB000E4FBFD7F587E01D310AF01C3C0D09092FB
:100BC00083E0FBA3E0F544E4F5451235ABD0D092C9
:100BD000AF22C0E0C0F0C083C082C0D075D000C0DA
:100BE00000C001C002C003C004C005C006C0077534
:100BF0000E005391DF90013CE05530F534A3E055F1
:100C000031F535A3E05532F536A3E05533F537E538
:100C10003430E00690013C7401F0E53430E1089096
:100C2000013C7402F03104E53430E22C90013C7454
:100C300004F0E5246022900692E030E01490928364
:100C4000E4718790015B7405F09006927401F08066
:100C500007909262E4F0717BE53430E33C90013C14
:100C60007408F0E5246032900692E030E12490921E
:100C700083E4F0909259E0909284F0E4FBFD7F5C75
:100C80007E01719790015F7405F09006927402F0F6
:100C90008007909261E4F0717BE53430E4089001C4
:100CA0003C7410F091F6E53430E50990013C742075
:100CB000F01253BFE53530E01690013D7401F0901D
:100CC0000083E0F5239001BBE523F07119717BE50A
:100CD0003530E20690013D7404F0E53530E40690CD
:100CE000013D7410F0E53630E00690013E7401F0ED
:100CF000E53630E10690013E7402F0D007D006D010
:100D000005D004D003D002D001D000D0D0D082D002
:100D100083D0F0D0E032E55E6401703BF1BBBF01EF
:100D2000047F01F1AF900046E04404FD7F46B142EC
:100D3000900044E054FBFD7F44B142900046E054F3
:100D4000FBFD7F46B1427F02F1FA8F629001C9E557
:100D500062F0B40102F19122F0900045E054FEFDF2
:100D60007F45D310AF01C3C0D08F82758300EDF0F3
:100D7000F1EAD0D092AF22EF146030146066240202
:100D80006002A1FE90923F7402F0900048E0440C93
:100D9000FD7F48B142900047E04408FD7F47B142E3
:100DA000900045E04410FD7F458071E490923FF053
:100DB00090923B124353908085122A7F7F807E0859
:100DC000122FD9900045E044EFFD7F45B1429000DD
:100DD00045E054EFFD7F45B142900046E04410FDF0
:100DE0007F46803890923F7401F0909245124353B1
:100DF000908085122A7F7F807E08122FD99000452F
:100E0000E04420FD7F45B142900045E04410FD7F65
:100E100045B142900046E04410FD7F46B142229029
:100E20000002124220909241F090000112422025CF
:100E3000E025E0909240F01229D925E025E090923B
:100E400044F0900560E090924FF0900561E0909240
:100E500050F0900562E0909251F0900563E090921E
:100E600052F0A2AFE433909225F0C2AF909240E0EE
:100E7000FF12536D909225E024FF92AF909241E0D3
:100E80007002E106909240E07002E106909244E028
:100E90007002E106A2AFE433909225F0C2AF9092C7
:100EA000537401F0909225E024FF92AFB139900085
:100EB00046E04401FD7F46B142909239E0601590D2
:100EC0009245124353908085122A7F7F807E0812BC
:100ED0002FD98006900522747FF0900045E054EFF2
:100EE000FD7F45B142900587E06480F090924FE02D
:100EF000900584F0909250E0900585F0909251E03A
:100F0000900586F0909252E0900587F0A2AFE4330E
:100F1000909225F0C2AF90013CE04420F07D20E4A7
:100F2000FF123700802B909241E0702D909253B1C8
:100F300038900046E054FEFD7F46B142900522E421
:100F4000F0A2AF33909225F0C2AF7D20E4FF1236BD
:100F500092909225E024FF92AF2290013C74FFF022
:100F6000A3F0A3F0900134F0A3F0A3F0A3F0FD7F71
:100F700054B1427DFF7F55B1427DFF7F56B1427D26
:100F8000FF7F57A142900130E4F0A3F0A3F0A3F05B
:100F9000900138F0A3F0A3F0A3F0FD7F50B142E43C
:100FA000FD7F51B142E4FD7F52B142E4FD7F53A188
:100FB00042900049E09092ABF0E0540FF044F0FD15
:100FC0007F49B1429092ABE044B0FD7F49A142908D
:100FD00001CAE561F0EF6002F191227F0BF1FAEFB7
:100FE00065616010E561B40105E4F5618003756138
:100FF000017F01227F0022E490927BF0900080E04C
:101000004480FD7F80A142E05FF0D310AF01C3C0F8
:10101000D07F10DFFED0D092AF22D310AF01C3C07B
:10102000D09092ACEFF0D394075044E0FF7401A845
:1010300007088002C333D8FCF4FF900046124FE744
:101040009092ACE0FD74017E00A805088005C333D2
:10105000CE33CED8F9FF900044E0FBE4FEEF5BA86E
:1010600005088006CEA2E713CE13D8F8FF804C9077
:1010700092ACE024F8F0E0FF7401A807088002C3F6
:1010800033D8FCF4FF900043E05FF0124FEA9092F7
:10109000ACE0FD74017E00A805088005C333CE33A3
:1010A000CED8F9FF900042E0FBE4FEEF5BA8050814
:1010B0008006CEA2E713CE13D8F8FFD0D092AF228D
:1010C000900284EFF0A3EEF0A37405F022EF8EF00F
:1010D0001243BA50CB004050F30080511E01005122
:1010E000320200514A040000005167ED543F700481
:1010F000FEFF80047E007F40EF2DFFEE3CFEEF7888
:1011000006CEC313CE13D8F97806C333CE33CED868
:10111000F98026ED547F7004FEFF80047E007F80FE
:10112000EF2DFFEE3CFEEF7807CEC313CE13D8F9B8
:101130007807C333CE33CED8F9FDAC068049ED70C5
:1011400004FEFF80047E017F00EF2DEE3C7D00FC5D
:101150008035EC54014D7004FEFF80047E027F0058
:10116000EF2DEE3CC3137D00801AEC54034D700448
:10117000FEFF80047E047F00EF2DEE3C1313543FEE
:101180007D0025E025E0FCAE04AF05229001E4746B
:1011900058F0A37402F022E4909217F0A3F0758E39
:1011A00002124FD7D1A590927CEFF0D19990927E08
:1011B000EFF0D1ED909273EEF0A3EFF0E4F555F57A
:1011C000211270D6D19012484212323DD185124F71
:1011D0003AF105D1C0D189D1D5D1845127127E747D
:1011E000909219E5D9F0C2AF900080E04440F0122F
:1011F0004FEA75E80343A885D2AF316C909217E0AF
:101200006401F0E55530E409C2AF5355EFD2AF9118
:1012100075E55530E616C2AF5355BFD2AF1269BC63
:10122000909243E0FF6003B40102516B909243E05F
:101230007003127ED2513F9001BDE522F09092647E
:10124000E09001BCF080B59092A3E054FEF0E490F1
:1012500092A5F09092A3E0547FF0A3740AF022903C
:101260000634E0602514701B7B017A0679357FF91E
:101270007E01127603BF0109900635E0540FF0801D
:10128000048000C1B2E4900634F02290923AE0C3A8
:1012900094145005E004F0612390923AE0641460E5
:1012A000026123909249E0702590924CE0701F906B
:1012B000924AE0701990924DE0701390924BE0705A
:1012C0000D90924EE070079004FDE054FEF0909275
:1012D00049E0900444F090924AE0900445F09092E6
:1012E0004BE0900446F0A3E4F090924CE090044868
:1012F000F090924DE0900449F090924EE090044AB4
:10130000F0A3E4F0909235E090044CF0909236E037
:1013100090044DF0909237E090044EF0909238E0B7
:1013200090044FF0E490923AF090923504F0E4A3E8
:10133000F0A3F0A3F0909249F0A3F0A3F0A3F0A3E0
:10134000F0A3F0900560E090921AF0900561E090B3
:10135000921BF0900562E090921CF0900563E09083
:10136000921DF0909252E0FF90921DE0FED39F50AC
:101370000B909252E0C39ED394014010909240E0B3
:10138000B401028003909244E0FF716D22900560E9
:10139000E090924FF0900561E0909250F0900562DD
:1013A000E0909251F0900563E0909252F0C374FF88
:1013B0009FFE909250E0D39E401EE02FF0A3E0B439
:1013C000FF0FE4F0A3E0B4FF03E4F0229092528018
:1013D00003909251E004F022909250E02FF022907E
:1013E0009241E0640160028174900046E04401FD96
:1013F0007F46124D42909253E07032909239E060F5
:1014000015909245124353908085122A7F7F807EEB
:1014100008122FD98006900522747FF0909240E048
:10142000FF716D9092537401124D38804090925329
:10143000E064017038909244E0FF716DE490925343
:10144000F0900045E04401FD7F45124D42909239F5
:10145000E0601590923B124353908085122A7F7F63
:10146000807E08122FD98005900522E4F090058730
:10147000E06480F090924FE0900584F0909250E00C
:10148000900585F0909251E0900586F0909252E0A0
:10149000900587F022D310AF01C3C0D09001CCE0FB
:1014A000540F90921AF090921AE0FD7002A1BD9034
:1014B00092A8E0FF74017E00A807088005C333CE20
:1014C00033CED8F9FFEF5D7002A1B69092A8E07517
:1014D000F0049001D012435FE090921BF0751D0163
:1014E000751E92751F1B7520017B017A92791CB1C4
:1014F000C290921CE0FFC413131354019092A830C1
:10150000E059E075F00290008812435FE090921D70
:10151000F09092A8E075F00290008912435FE0908D
:10152000921EF09092A8E075F0049001D112435FF2
:10153000E090921FF09092A8E075F0049001D21212
:10154000435FE0909220F09092A8E075F004900143
:10155000D312435FE0909221F08033E075F0049065
:1015600001D112435FE090921DF09092A8E075F0D7
:10157000049001D212435FE090921EF09092A8E096
:1015800075F0049001D312435FE090921FF0EF5486
:101590007FFF7B017A92791D125DC990921AE0FF5C
:1015A0009092A8E0FE7401A806088002C333D8FC1C
:1015B000F45F90921AF09092A8E0FF7401A80708D7
:1015C0008002C333D8FC9001CCF09092A8E004F0E4
:1015D000E05403F081869001C6E04402F0D0D0923E
:1015E000AF22D310AF01C3C0D08B1A8A1B891C90C5
:1015F000928512438BAB1DAA1EA91F90928812439D
:101600008BAF201520EF601E909288E475F00112D8
:1016100043741229D9FF909285E475F00112437446
:10162000EF12424D80DBAB1AAA1BA91CD0D092AF9F
:1016300022D310AF01C3C0D090928B12438B9092F3
:10164000AAE090000112425F7FAF7E01127319EF92
:10165000604D90928B12436B8B1D8A1E891F7520E3
:10166000027B017A0179A0B1C290928E12436B8BFA
:101670001D8A1E891F90928B12436B1229D9FFC4B9
:10168000540FF5207B017A0179A2B1C29001AF74A9
:10169000FFF09092AAE004F09001CBE06480F0D0DB
:1016A000D092AF2222E4F5612290016474A0F0226E
:1016B00090927EE090920FF0229000F3E07F003055
:1016C000E3027F0122900002E054E07F0160027F8C
:1016D000002290063474FFF0E4A3F0A3F0A3F022FC
:1016E0009000F3E030E20D9005417410F090055A3F
:1016F000F0A3E4F02275301F753101E4F53290015A
:1017000038E530F0A3E531F0A3E532F02290927E87
:10171000E0B4010C9000F2E030E7057EFD7F33225B
:101720007EFD7F2F22752833E4F529752A07F52BD6
:10173000900130E528F0A3E529F0A3E52AF0A3E520
:101740002BF022909210E054F04403F0540F4480A8
:10175000F07B007A00795690928E12438B0B7A922E
:101760007910C111D310AF01C3C0D0909291124330
:101770008B909294E054F04406FFF0ED540FC45463
:10178000F0FEEF540F4EF090929112436B90928EB8
:1017900012438B7B017A927994D111D0D092AF22EF
:1017A000D310AF01C3C0D0EFC39420500E74842F68
:1017B000F582E43404F583EDF0802974A62FF582D8
:1017C000E43490F583EDF0909266EFF024A6F58274
:1017D000E43490F583E0909267F07B017A92796629
:1017E0007D02F144D0D092AF228F828E83A3A3A337
:1017F000E4F022E4F55E7F607E0180EDD310AF015E
:10180000C3C0D090041DE0601A900522E05490609F
:10181000079001C6E04440F09001C7E030E1E47F6A
:101820000080027F01D0D092AF22D310AF01C3C09D
:10183000D0909296EFF0A3EDF0E4A3F0A3F0E524AE
:101840006004E4FF11A6909296E030E0099092982F
:10185000E4F0A37480F0909296E0FFC31390FD1023
:10186000F0900425EFF0909297E0601FA3A3E0FFB3
:10187000240FF582E434FCF583E04480F074102FEB
:10188000F582E434FCF583E04480F0909298A3E084
:10189000FFFD2408F582E434FCF583E4F074092D9F
:1018A000F582E434FCF583E054F0F074212FF582E6
:1018B000E434FCF583E054F7F0909298E0FEA3E066
:1018C000FFD0D092AF22EF600B90927EE0B4011077
:1018D000E4FF800990927EE0B401057F011277E574
:1018E000221257DCBF010F900209E0FF7D01110AAF
:1018F00090041F7420F022900102E05403FFE05492
:101900000C1313543FFEEF64016004EFB403109016
:1019100092107401F0A37437F0A37401F0801AEEF2
:1019200064016007AF06EE64037048909210740182
:10193000F0A3743DF0A37440F0909210E0FEA3E099
:10194000FFF5828E83E0FD909212E0FCED5C600C6E
:101950008F828E83ECF0E4909275F022909275E085
:1019600004F0E0C3940A400BE4F0900419E030E086
:101970000211C122C0E0C0F0C083C082C0D075D0C7
:1019800000C000C001C002C003C004C005C006C042
:1019900007900134E05528F52CA3E05529F52DA337
:1019A000E0552AF52EA3E0552BF52FE52C20E0027B
:1019B00041DF9001347401F085D14D85D24E85D33D
:1019C0004F85D45085D55185D65285D75385D95466
:1019D000E5545440C313FFE55354206F7002419CFB
:1019E000E55430E502419CE552543FF508E54D547D
:1019F0003FF509E551541FFFE50825E024C4F582B1
:101A0000E4348DF583E48FF0124281E553541FFFD7
:101A1000E50825E02480F582E43487F583E48FF03F
:101A2000124281E509D39404400375090475F00A54
:101A3000E50890840012435F75F002E50912435FE8
:101A4000E0FEA3E0FFE553541F2FFFE43EFE75F0D8
:101A50000AE50890840012435F75F002E50912431D
:101A60005FEEF0A3EFF0E55420E623E553541FFFAB
:101A7000E50825E024C4F582E4348CF583E48FF096
:101A8000124281E54F30E734AF08B112802EE553A2
:101A9000541FFFE50825E02444F582E4348DF583E6
:101AA000E48FF0124281E54F30E711E54F547FFD9E
:101AB000E553541FF50DAB09AF08919BE5241424A1
:101AC000FD5002803A909264E0602B90015BE4F05C
:101AD00090013C7404F0124B55EF64017021909218
:101AE00083124B8790015B7405F09006927401F0AD
:101AF000909262F08009124B55BF0103124B7BE5B7
:101B00002C30E1219001347402F085D15685D257F2
:101B100085D35885D45985D55A85D65B85D75C85BC
:101B2000D95D125723E52C30E3069001347408F098
:101B3000E52C30E4099001347410F0435510E52C85
:101B400030E5269001CFE030E51FE054DFF0900152
:101B5000347420F075A80075E800124F65900003FA
:101B6000E054FBF0124FEA80FEE52C30E6069001CF
:101B7000347440F0E52E30E01490927D7401F090C2
:101B80000136F012461E916590927DE4F0E52E300C
:101B9000E10B9001367402F043554011D7E52E3029
:101BA000E2099001367404F012469AE52E30E338CB
:101BB0009001367408F0E5216401702CE52460285A
:101BC000900157E4F090013C7402F0909283E4F0AD
:101BD00090925BE0909284F0E4FBFD7F547E0112D2
:101BE0004B979001577405F0E52E30E42B900136A9
:101BF0007410F0E521B40120E524601C900157E445
:101C0000F090013C7402F0909265E4F05325FDE5FC
:101C10002554077003124B7BE52E30E51F900136EB
:101C20007420F0E521B40114E5246010909264E082
:101C300064026005124ACC80031249F3E52E30E6B7
:101C40001B9001367440F0E521B40110E524600CCE
:101C50005325FEE52554077003124B7BE52F30E139
:101C6000099001377402F0124957D007D006D00509
:101C7000D004D003D002D001D000D0D0D082D08305
:101C8000D0F0D0E0329092A3E030E02EE521B40114
:101C9000299092A2E004F0E0B40A0B9092A5E0042F
:101CA000F0E49092A2F09092A5E0FF9092A4E0D38D
:101CB0009F5007B191E49092A5F0228F0A8D0BE519
:101CC0000B541F909212F074012FF582E43488F5C2
:101CD00083E0909210F09004FDE0909213B401051F
:101CE0007403F080037401F0909213E0FFEBC39F44
:101CF0004004AF0A803C909210E0250DFFA3F0A3B2
:101D0000E09041D693FEEFD39E40147401250AF56E
:101D100082E43488F583E4F0AD0BAF0A025780907B
:101D20009211E0FF7401250AF582E43488F583EF0F
:101D3000F022AD0775F009ED908A4812435FE0FF8D
:101D4000909215F074672DF582E43491F583E05498
:101D50001F909214F0D39F4006A3E0909214F0904D
:101D60009214E0FF25E0249EF582E43441F583E4FB
:101D700093FA740193FBEF25E02466F582E4344185
:101D8000F5837401932BFFE4933AC313FEEF13FF23
:101D9000ED25E024C2F582E43489F583EEF0A3EF6B
:101DA000F0AF05909214E0FD125780909214E0FF7E
:101DB00022E4FF0249A890922512438B1229D9549C
:101DC00001FF9092A3E054FE4FF0E030E002B191A9
:101DD00090922512436B1229D9C31330E00A900068
:101DE000011242209092A4F02290922212438BEF93
:101DF0001243945E10015E07025E34035E3D055E91
:101E000046065E93075E4E095E570C5E600D5E6986
:101E10000E5E721B5E7B1C5E192D5E222E5E843070
:101E20005E2B3B00005E8C90922212436B02736328
:101E300090922212436B02736990922212436B02BA
:101E4000739E90922212436B0273E6909222124389
:101E50006B02741F90922212436B0274389092228C
:101E600012436B0272CC90922212436B8046909286
:101E70002212436B02748090922212436B024DFF38
:101E800090922212436B027E4190922212436B0287
:101E90007D6990922212436B027311909222124339
:101EA0006B0272F890922212436BA1969001C6E0E9
:101EB0004401F022900004124220FF541FFEEF5410
:101EC00020C4135407FDAF06909225EFF0A3EDF068
:101ED000A312438B90922712436B9000031242206F
:101EE00054F0C4540F90922AF090000412422054EF
:101EF00040C41313540390922BF0909225E0FF7589
:101F0000F009908A4612435FAD82AC8390922CEC2C
:101F1000F0A3EDF0EF75F009A42444F9748A35F0CC
:101F2000FA7B01A312438B90922712436B9000031C
:101F3000124220540FFF90922E12436BEF12424D2B
:101F400090922712436B900002124220FF90922E33
:101F500012436B900001EF12425F90922712436B85
:101F6000900001124220FF90922CE0FCA3E0FDF5CE
:101F7000828C83EFF01229D98D828C83A3F090920A
:101F80002AE0FE909225E0FF2482F582E43489F570
:101F900083EEF0909226E0FE75F009EF908A4A12E7
:101FA000435FEEF075F009EF908A4B12435F7401C6
:101FB000F090922BE0FE75F009EF908A4C12435F8F
:101FC000EEF08F0FEF25E024C6F582E4348FAF8268
:101FD000F5108F11E50F75F002A42402F97489350C
:101FE000F0751201F513891475F009E50F908A4612
:101FF00012435FAF828583158F16E50F75F009A434
:102000002444F9748A35F0751701F518891974821A
:10201000250FF582E43489F583E0124394602200B1
:10202000603701604C02606103608A04609F056054
:10203000B40660DA0C61070D61340E61610F0000B7
:102040006195E50F25E024C6F582E4348FF58374AD
:10205000F0F0A37415803CE50F25E024C6F582E47A
:10206000348FF58374F0F0A374108027E50F25E01A
:1020700024C6F582E4348FF58374F0F0A3740580F0
:1020800012E50F25E024C6F582E4348FF58374F061
:10209000F0A3E4F0E50F25E02402F582E43489F5AD
:1020A00083740FF0A3748FF02195E50F25E024C60B
:1020B000F582E4348FF583740FF0A374F58027E57F
:1020C0000F25E024C6F582E4348FF583740FF0A366
:1020D00074F08012E50F25E024C6F582E4348FF514
:1020E00083E4F0A3740DF0E50F25E02402F582E40B
:1020F0003489F583E4F0A3F02195900447E0AB1216
:10210000AA13A91412424D900446E0AB12AA13A9D7
:102110001490000112425F900445E0851182851001
:1021200083F0900444218C90044BE0AB12AA13A9D5
:102130001412424D90044AE0AB12AA13A914900065
:102140000112425F900449E0851182851083F0906E
:102150000448805890044FE0AB12AA13A91412420D
:102160004D90044EE0AB12AA13A914900001124244
:102170005F90044DE0851182851083F090044C80BF
:102180002B900453E0AB12AA13A91412424D9004F1
:1021900052E0AB12AA13A91490000112425F9004FE
:1021A00051E0851182851083F0900450E085118202
:1021B000851083A3F0AB12AA13A914C003C002C0F8
:1021C000011229D9FFAB17AA18A9191229D95FD072
:1021D00001D002D00312424DAB12E5142401F9E400
:1021E0003513FAC003C002C0011229D9FFAB17AAE8
:1021F00018A9199000011242205FD001D002D0032B
:1022000012424D851182851083C083C082E0FF8514
:102210001682851583E0FEEF5ED082D083F08511B3
:1022200082851083A3C083C082E0FF851682851556
:1022300083A3E0FEEF5ED082D083F0E50F25E0249B
:1022400002F582E43489F583E0FEA3E04E604B9012
:102250009231740BF0909231E0FFC3940050024130
:10226000DA74017E00A807088005C333CE33CED8C8
:10227000F9FFE50F25E02402F582E43489F583E0D7
:102280005EFEA3E05F4E600A909231E02410A3F05E
:102290008068909231E014F080BBE50F25E024C601
:1022A000F582E4348FF583E0FEA3E04E6047909220
:1022B00031740FF0909231E0FFC39400403C740100
:1022C0007E00A807088005C333CE33CED8F9FFE5DA
:1022D0000F25E024C6F582E4348FF583E05EFEA38B
:1022E000E05F4E6008909231E0A3F0800D90923153
:1022F000E014F080BFE4909232F0E50F25E024C6B0
:10230000F582E4348FF583E0FEA3E04E6046E4906E
:102310009231F0909231E0FFC394104002619374C7
:10232000017E00A807088005C333CE33CED8F9FF5D
:10233000E50F25E024C6F582E4348FF583E05EFEE8
:10234000A3E05F4E6006909231E08063909231E0AE
:1023500004F080BFE50F25E02402F582E43489F51E
:1023600083E0FEA3E04E6046E4909231F09092311B
:10237000E0FFC3940C503C74017E00A80708800560
:10238000C333CE33CED8F9FFE50F25E02402F58222
:10239000E43489F583E05EFEA3E05F4E600890922E
:1023A00031E024108009909231E004F080BFE49085
:1023B0009233F0909232E0FF75F009E50F908A4871
:1023C00012435FEFF0909233E0FE75F009E50F9055
:1023D0008A4912435FEEF0E50FC39420502C7484B9
:1023E000250FF582E43404F583E0D39F4002804753
:1023F0007484250FF582E43404F583E0C39E50080D
:10240000909233E0A3F08037802D74A6250FF582DB
:10241000E43490F583E0FF909232E0FEEFD39E40EB
:1024200007909234EEF08017909233E0FEEFC39E57
:102430005005A3EEF08008909232E0909234F09034
:102440009234E0FDAF0F125780909234E0FF742673
:10245000250FF582E43491F583EFF0909232E0FF9E
:10246000D394134007908A437403F022EFD3940B64
:102470004007908A437402F022EFD3940340079000
:102480008A437401F022E4908A43F022D310AF0112
:10249000C3C0D0E4FDFCEF30E0027D80EFC31390B9
:1024A000FD10F0AE04AF05D0D092AF22C0E0C0F076
:1024B000C083C082C0D075D000C000C001C002C0BF
:1024C00003C004C005C006C0075391EF900051E05F
:1024D000FF900055E05FF53D900052E0FF90005600
:1024E000E05FF53EE53D30E4069000557410F0E500
:1024F0003D30E5069000557420F0E53D30E61B9038
:1025000000557440F0909242E05403FFBF030B90DB
:10251000923FE060057F01124D57E53D30E7159091
:1025200000557480F0909242E05403FFBF03057F92
:1025300002124D57E53E30E0069000567401F0E57A
:102540003E30E1069000567402F0E53E30E206901F
:1025500000567404F0E53E30E3069000567408F02F
:10256000D007D006D005D004D003D002D001D000CF
:10257000D0D0D082D083D0F0D0E032EFC3942050BE
:1025800039EF30E017EDC454F0FDEFC313FE24A47F
:10259000F582E43404F583E0540F8010EFC313FE9A
:1025A00024A4F582E43404F583E054F0F074A42EFE
:1025B000F582E43404F583E04DF022AD07EDC394D9
:1025C00020501374842DF582E43404F583E0547FA5
:1025D000909229F0801174A62DF582E43490F58351
:1025E000E0547F909229F0909229E0F9541FA3F0D3
:1025F00075F009ED908A4812435FE0FF90922CF04D
:10260000ED25E02402F582E43489F583E0FBA3E0C4
:1026100090922DCBF0A3EBF0ED25E024C6F582E4FB
:10262000348FF583E0FBA3E090922FCBF0A3EBF087
:1026300090922AE0FE25E02466F582E43441F58399
:10264000E493FA740193FBED25E024C2F582E434AF
:1026500089F583EAF0A3EBF0EEC39F4002C1F89046
:10266000922AE0FF74672DF582E43491F583EFF050
:10267000EF0490922BF090922CE0FF90922BE0FED2
:10268000D39F4002E132EEC394104021EE24F0FFCC
:1026900074017E00A807088005C333CE33CED8F975
:1026A000FF90922DE05EFEA3E05F4E702790922B8C
:1026B000E0FFC39410505974017E00A807088005FC
:1026C000C333CE33CED8F9FF90922FE05EFEA3E065
:1026D0005F4E603C90922BE0B4110D90922EE03052
:1026E000E70690922B7417F090922BE0FF64136032
:1026F00004EFB4120D90922DE030E00690922B740E
:1027000018F090922BE090922AF0909229F080425B
:1027100090922BE004F0C15690922CE0FC90922A0B
:10272000E0FF6C707174672DF582E43491F583EFEE
:10273000F075F009ED908A4A12435FE0B40110E9A8
:1027400020E60C90922AE04440909229F08003AF5A
:10275000012290922AE0FF25E0249EF582E4344194
:10276000F583E493FA740193FBEF25E02466F58288
:10277000E43441F5837401932BFFE4933AC313FED1
:10278000EF13FFED25E024C2F582E43489F583EEF2
:10279000F0A3EFF0806690922AE0D39C405E909286
:1027A0002CE0FF74672DF582E43491F583EFF0900F
:1027B000922AEFF0909229F0FCA3E0FF25E0249EFE
:1027C000F582E43441F583E493FA740193FBEF2539
:1027D000E02466F582E43441F5837401932BFFE431
:1027E000933AC313FEEF13FFED25E024C2F582E414
:1027F0003489F583EEF0A3EFF0AF042274012DF5D8
:1028000082E43488F583E4F0AF05909229E04480B7
:10281000FD125780909229E04480FF22AC07ECC360
:102820009420501374842CF582E43404F583E0542E
:102830007F909229F0801174A62CF582E43490F5F3
:1028400083E0547F909229F0909229E0541FFF90EA
:10285000922CF075F009EC908A4912435FE0909257
:102860002EF075F009EC908A4812435FE0FE9092DA
:102870002FF0EC25E024C6F582E4348FF583E0FBED
:10288000A3E0909230CBF0A3EBF0EC25E02402F52E
:1028900082E43489F583E0FBA3E0909232CBF0A38D
:1028A000EBF0EFD39E400C90922FE090922CF090A2
:1028B0009229F0ED7002216A90922DEDF09092290C
:1028C000E030E60E90922CE0909229F090922DE06C
:1028D00014F090922DE07002216A90922CE0FFD3C8
:1028E00094005002216AE490922BF0EF1490922A07
:1028F000F090922EE0FD90922AE0FFD39D406FEF82
:1029000094104021EF24F0FF74017E00A807088096
:1029100005C333CE33CED8F9FF909232E05EFEA3EA
:10292000E05F4E702790922AE0FFC39410503774F6
:10293000017E00A807088005C333CE33CED8F9FF47
:10294000909230E05EFEA3E05F4E601A90922AE023
:10295000909229F090922BE004F090922DE0FF905D
:10296000922BE06F600890922AE014F0808390929E
:102970002DE0FF90922BE0C39F500F90922AE0B57C
:10298000050890922EE0909229F0909229E0FF2580
:10299000E0249EF582E43441F583E493FA740193D4
:1029A000FBEF25E02466F582E43441F5837401935E
:1029B0002BFFE4933AC313FEEF13FFEC25E024C290
:1029C000F582E43489F583EEF0A3EFF0AF04909242
:1029D00029E0FD125780909229E0FF22E490921A9C
:1029E000F090921AE0FFC3944040030270D5EFB418
:1029F0002014908EC5E004F0908901E0FF908EC510
:102A0000E0B50702E4F090921AE0FF75F009908AB1
:102A10004B12435FE0640160030270CCEF25E024B9
:102A200080F582E43487F583E0FEA3E0D39400EEE2
:102A3000940050030270CC90921AE09420400990C8
:102A40008EC5E060030270D590921AE075F00AA47A
:102A50002400F9748435F0751201F5138914E0FF30
:102A600025E02480F582E43487F583E0FDA3E0903F
:102A7000921FCDF0A3EDF0EF25E024C4F582E434FD
:102A80008CF583E0FFA3E0909221CFF0A3EFF090CC
:102A9000921AE0FFC39420501374842FF582E4341B
:102AA00004F583E0543F90921BF0801490921AE05A
:102AB00024A6F582E43490F583E0543F90921BF015
:102AC00090921BE0FE541FA3F090921AE0FF75F065
:102AD00009908A4812435FE0909224F074E62FF543
:102AE00082E43490F583E0C394054002A11E9092E5
:102AF00024E0FF90921CE09F4013909224E090927B
:102B00001CF0EE5440FE90921BF0EF4EF09004FD4E
:102B1000E054056401702B90921CE0FF90414A93B1
:102B2000FE90921AE02444F582E4348EF583E0C3EB
:102B30009E4006EF9040DA803290921CE09040F682
:102B4000802990921CE0FF90414A93FE90921AE0F7
:102B50002444F582E4348EF583E0C39E4006EF9072
:102B60004112800790921CE090412E93909223F0A6
:102B7000909223E075F006A42450F9744035F07566
:102B80000FFFF510891190921BE09041F293FFD353
:102B9000909222E09F909221E09400400D90921A32
:102BA000E0FFE4FD1267FC02706290921AE025E0FB
:102BB00024C2F582E43489F583E0FFA3E090921DFE
:102BC000CFF0A3EFF0AB0FAA10A9111229D9FF7E05
:102BD00000AB12AA13A914124297FDACF01229F20D
:102BE00090921DEE8FF0124281AB0FAA10A91190A6
:102BF0000001124220FF7E00AB12AA13A91490001C
:102C0000021242C2FDACF01229F290921DEE8FF03A
:102C1000124281AB0FAA10A911900002124220FFAC
:102C20007E00AB12AA13A9149000041242C2FDAC9C
:102C3000F01229F290921DEE8FF0124281AB0FAA92
:102C400010A911900003124220FF7E00AB12AA13BC
:102C5000A9149000061242C2FDACF01229F2909223
:102C60001DEE8FF0124281AB0FAA10A91190000443
:102C7000124220FF7E00AB12AA13A9149000081282
:102C800042C2FDACF01229F290921DEE8FF012427A
:102C900081AB0FAA10A911900005124220FF7E00FF
:102CA00090921FE0FCA3E0FD1229F2D390921EE067
:102CB0009F90921DE09E400CA3E09FF090921DE03B
:102CC0009EF08007E490921DF0A3F090921DE0FC2E
:102CD000A3E0FD90921AE0FF25E024C2F582E434DF
:102CE00089F583ECF0A3EDF090921BE025E02466DB
:102CF000F582E43441F583E493FA740193FBD3ED58
:102D00009BEC9A400612659B02703090921BE02566
:102D1000E0249EF582E43441F583E493FE7401934C
:102D2000FFC390921EE09F90921DE09E40030270B0
:102D30003090921AE0FF7D011267FC027030909291
:102D40001AE0FF24E6F582E43490F583E0FC6405A4
:102D50006002C1FD908A43E0FEB4030B90921CE038
:102D6000C39419403D802EEEB4020B90921CE0C338
:102D70009411402E801F908A43E0FEB4010B909284
:102D80001CE0C3940A401B800CEE701190921CE072
:102D9000C39403400D908E847401F08005E4908EFE
:102DA00084F090921AE0FE2484F582E4348CF5835A
:102DB000E0909228F074442EF582E4348EF583E09E
:102DC000FEC39430500AE4909228F074E62FC1A715
:102DD000908E84E064016002C19C90921AE0248588
:102DE000F582E4348EF583E0640A605B90921AE029
:102DF000FFEE2405FBE433FA74412FF582E43488B6
:102E0000F583E0FFD39BEA6480F874809850389093
:102E1000921AE0FEEF2405FBE433FA74442EF582A7
:102E2000E4348EF583E0D39BEA6480F87480985094
:102E30001690921AE02426F582E43491F583E0FF9F
:102E400090921CE06F605690921AE02444F582E460
:102E5000348EF583E0FFD3944240089092287405A5
:102E6000F08011EFD3943990922840057403F080DC
:102E7000037401F090921AE0FF2444F582E4348E4A
:102E8000F583E0FE74412FF582E43488F583EEF09B
:102E900090921AE02485F582E4348E802F90921A65
:102EA000E0FF24E6F582E43490F583E4F074852FA6
:102EB000F582E4348EF583E004F08014E4909228E7
:102EC000F090921AE024E6F582E43490F583E4F081
:102ED00090921CE0FE90921AE0FF2426F582E434E2
:102EE00091F583EEF0909228E0FE74842FF582E451
:102EF000348CF583EEF075F009EF908A4C12435F45
:102F0000E0B40111E4909228F074E62FF582E434E5
:102F100090F583E4F0909228E0FD02702DEC6406B9
:102F2000600302703090921DF0A3F090421393FF63
:102F30007E0090921FE0FCA3E0FD1229F290922601
:102F4000EEF0A3EFF090921AE02484F582E4348C42
:102F5000F583E0909228F0E4909225F0909225E09D
:102F6000FFD394045047AB12AA13A91475F002EFD3
:102F7000A4F58285F0831242C2FDACF0EF90420EC0
:102F800093FF7E001229F290921DEE8FF012428183
:102F9000909226E0FEA3E0FFD390921EE09F9092D5
:102FA0001DE09E5008909225E004F080AF9092259D
:102FB000E0C313F0909228E0FFB4010D909225E059
:102FC000705D90922804F0805BEFB4031D90922511
:102FD000E0FF70089092287403F08048EFB4010875
:102FE0009092287401F0803C8035909228E064052E
:102FF0007032909225E0FF70089092287405F0805E
:103000000FEF909228B401057403F080037401F06F
:10301000D3909222E09403909221E094004005E442
:10302000909228F0D3909222E09403909221E09421
:10303000004005E4909228F0909228E0FD90921ACA
:10304000E0FF2484F582E4348CF583EDF012655BB7
:1030500090921AE0FF24E6F582E43490F583E0D301
:103060009405500F74E62FF582E43490F583E00464
:10307000F0800F90921AE024E6F582E43490F58314
:10308000E4F0AB12AA13A914E4F5F01242FAAB1261
:10309000AA13A914900002E4F5F012431990000459
:1030A000E4F5F0124319900006E4F5F0124319908C
:1030B0000008E4F5F012431990921AE0FF25E0248D
:1030C00080F582E43487F583E4F0A3F0EF25E02473
:1030D000C4F582E4348CF583E4F0A3F0EF25E0241A
:1030E00044F582E4348DF583E4F0A3F090921AE085
:1030F00004F00269C1229004447411F0A374F0F04A
:10310000A3740FF0A3E4F090921AF090921AE0FFEB
:10311000C39410501474A42FF582E43404F583E4AE
:10312000F090921AE004F080E2E4908EC5F090896D
:103130000104F0E490921AF090921AE0FFC39440D8
:10314000400241CB75F00AEF90840012435FE4F037
:10315000A3F075F00AEF90840212435FE4F0A3F04D
:1031600075F00AEF90840412435FE4F0A3F075F069
:103170000AEF90840612435FE4F0A3F075F00AEFC3
:1031800090840812435FE4F0A3F074262FF582E4E4
:103190003491F5837413F074852FF582E4348EF541
:1031A00083E4F074842FF582E4348CF583E4F0EF4B
:1031B00025E02480F582E43487F583E4F0A3F0EF82
:1031C00025E024C4F582E4348CF583E4F0A3F0EF29
:1031D00025E024C4F582E4348DF583E4F0A3F0EF18
:1031E00025E02444F582E4348DF583E4F0A3F0EF88
:1031F00025E024C6F582E4348EF583E4F0A3F0EFF5
:1032000025E02446F582E4348FF583E4F0A3F074DE
:10321000862FF582E43490F583E4F074462FF5822E
:10322000E43490F583E4F074E62FF582E43490F50D
:1032300083E4F09041C493FE740193FF90418C7439
:1032400001932FFFE4933EC313FEEF13FF90921AF6
:10325000E0FD25E024C2F582E43489F583EEF0A395
:10326000EFF075F009ED908A4B12435F7401F07531
:10327000F009ED908A4A12435F7401F074822DF5D3
:1032800082E43489F583740CF075F009ED908A4678
:1032900012435F74FFF0A3F075F009ED908A4412B9
:1032A000435FE4F0A3740FF075F009ED908A4812C3
:1032B000435F7413F075F009ED908A4912435FE49F
:1032C000F0EDC39420500F74842DF582E43404F59E
:1032D000837413F0800D74A62DF582E43490F58389
:1032E0007413F090921AE004F02118221229D9FFE9
:1032F000C394405014900002124220FE74442FF5F3
:1033000082E4348EF583EEF022EFB4400A9000029E
:10331000124220908A42F022900004124220FF5470
:103320003FFEEF5480C41313135401FDAF06025E39
:10333000A81229D9908901F02290929AEEF0A3EF79
:10334000F0E4A3F0A3F090929AE0FEA3E0F5828E61
:1033500083E0602CC390929DE094E890929CE0946E
:1033600003400A9001C6E04410F07F002290929C36
:10337000E475F0011242817F0A7E0012375480C644
:103380007F01221229D9F52122D310AF01C3C0D069
:10339000909225122A8B000000009000011242201A
:1033A000909264F0900003124220909254F01247E1
:1033B000DC909264E09001E6F0D0D092AF229000D1
:1033C00002124220FF30E0251229D990925AF09043
:1033D000000112422090925BF0EFC313547F909251
:1033E00059F0900003124220909260F02290925A7D
:1033F0007403F090925B7405F09092597414F090FD
:1034000092607405F0221229D930E019C313547F59
:1034100090925FF0900001124220FF90925DE4F0E4
:10342000A3EFF0800F90925F7405F090925DE4F04E
:10343000A37403F090925DE0A3E0900558F022128F
:1034400029D990925CF06007E4FD7F0412450D904D
:10345000925CE09001E7F022900209E0FD1229D988
:10346000FEAF05ED2E909276F0900001124220FF03
:10347000ED2F909277F0900002124220FFED2F90F6
:103480009278F0900003124220FFED2F909279F095
:10349000900004124220FFAE05ED2F90927AF022A8
:1034A000D310AF01C3C0D090922512438B909225C8
:1034B00012436B9000011242C2FAE5F02400FFE4CF
:1034C0003AFE90922512436B900001EE8FF012436A
:1034D000191229D9FF602CB55E1690922512436B04
:1034E0009000011242C265607004E55F65F06023E0
:1034F00090922512436B9000011242C2FFAEF091F0
:10350000F8801090922512436B1229D9655E6003F2
:103510001257D3D0D092AF22909228EEF0A3EFF0C2
:10352000755E018E5FF560E4FD7F0BB13CE4FD7FCD
:1035300002B13C124FBBE4FF124FAFE4F5629001C1
:10354000C9E562F0909228E0FCA3E0FDECFB8D441D
:10355000E4F5457D017F607E010235ABD310AF01FC
:10356000C3C0D090922BEDF090922AEFF0D3940745
:10357000504FA3E0701A90922AE0FF7401A8070848
:103580008002C333D8FCF4FF900047E05FF080175F
:1035900090922AE0FF7401A807088002C333D8FC88
:1035A000FF900047E04FF0124FEA90922AE0FF743C
:1035B00001A807088002C333D8FCF4FF90004680BE
:1035C0005A90922AE024F8F0A3E0701D90922AE02D
:1035D000FF7401A807088002C333D8FCC454F0F478
:1035E000FF900043E05FF0801A90922AE0FF7401A0
:1035F000A807088002C333D8FCC454F0FF900043EE
:10360000E04FF0124FEA90922AE0FF7401A80708F9
:103610008002C333D8FCF4FF900043124FE7D0D0B0
:1036200092AF228E0F8F108B118A128913E4909221
:103630001AF0EF900031F0124FEAE50F5403FF90BB
:103640000032E054FC4FF0124FEA900033E0547F18
:10365000F0124FEA900033E020E70E90921AE0C398
:1036600094645005E004F080EB90921AE0C39464F7
:103670005010900030E0AB11AA12A91312424D7FF6
:1036800001227F0022E49092A6F0A3F09005F8E0DA
:10369000700FA3E0700BA3E07007A3E070037F013D
:1036A00022D39092A7E094E89092A6E0940340037E
:1036B0007F00227F327E001237549092A6E475F08C
:1036C0000112428180C69091FF124353908085126F
:1036D0002A7F7F787E08122FD9909203124353904D
:1036E0008085122A7F7F047E0C122FD990920712B8
:1036F0004353908085122A7F7F007E08122FD99035
:10370000920B124353908085122A7F7F707E0E1297
:103710002FD9908059122A8B00032D95E4FDFF12BA
:10372000348190927EE0B40111908059122A8B006E
:10373000032D95E4FD7F01123481227F787E0812EB
:1037400027DE9091FF122A7F7F047E0C1227DE90E5
:103750009203122A7F7F007E081227DE90920712C2
:103760002A7F90927EE09091FFB4010D124353EFB7
:1037700054C7FFED54C7FD8007124353EF54C7FFF2
:10378000EC908085122A7F7F787E08122FD9909244
:1037900003124353EF540FFFEC908085122A7F7F72
:1037A000047E0C122FD9909207124353EF4402FF6C
:1037B000EC908085122A7F7F007E08122FD97F70BF
:1037C0007E0E1227DE90920B122A7F908085122A9D
:1037D0008B001B25A07F707E0E122FD9908059126E
:1037E0002A8B00000000E4FDFF12348190927EE0FD
:1037F000B40111908059122A8B00000000E4FD7F73
:103800000112348122EF700302799D90920FE060E3
:1038100003027D689091FB124353908085122A7FAA
:103820007F8C7E08122FD99091A7124353908085E8
:10383000122A7F7F447E08122FD99091AB124353F6
:10384000908085122A7F7F5C7E08122FD99091AFDD
:10385000124353908085122A7F7F6C7E0E122FD9DF
:103860009091B3124353908085122A7F7F707E0E11
:10387000122FD99091B7124353908085122A7F7FDF
:10388000747E0E122FD99091BB12435390808512F3
:103890002A7F7F787E0E122FD99091BF12435390CA
:1038A0008085122A7F7F7C7E0E122FD99091C312C1
:1038B0004353908085122A7F7F807E0E122FD990ED
:1038C00091C7124353908085122A7F7F847E0E1207
:1038D0002FD99091CB124353908085122A7F7F88F5
:1038E0007E0E122FD99091CF124353908085122AC9
:1038F0007F7F8C7E0E122FD99091D31243539080EC
:1039000085122A7F7FD07E0E122FD99091D7124335
:1039100053908085122A7F7FD47E0E122FD99091EA
:10392000DB124353908085122A7F7FD87E0E122FA0
:10393000D99091DF124353908085122A7F7FDC7EDD
:103940000E122FD99091E3124353908085122A7F53
:103950007FE07E0E122FD99091E71243539080851D
:10396000122A7F7FEC7E0E122FD99091EB124353D7
:10397000908085122A7F7F047E0C122FD99091EFC0
:10398000124353908085122A7F7F047E0D122FD917
:103990009091F3124353908085122A7F7F0C7E0909
:1039A000122FD99091F7124353908085122A7F7F6E
:1039B000047E08122FD990920F7401F02290920F7A
:1039C000E064016002A1687F8C7E081227DE90917E
:1039D000FB122A7F7F447E081227DE9091A7122ACD
:1039E0007F7F5C7E081227DE9091AB122A7F7F6C6E
:1039F0007E0E1227DE9091AF122A7F7F707E0E120C
:103A000027DE9091B3122A7F7F747E0E1227DE90FC
:103A100091B7122A7F7F787E0E1227DE9091BB121B
:103A20002A7F7F7C7E0E1227DE9091BF122A7F7F35
:103A3000807E0E1227DE9091C3122A7F7F847E0E35
:103A40001227DE9091C7122A7F7F887E0E1227DE12
:103A50009091CB122A7F7F8C7E0E1227DE9091CF21
:103A6000122A7F7FD07E0E1227DE9091D3122A7FFA
:103A70007FD47E0E1227DE9091D7122A7F7FD87EC8
:103A80000E1227DE9091DB122A7F7FDC7E0E12273A
:103A9000DE9091DF122A7F7FE07E0E1227DE90916A
:103AA000E3122A7F7FEC7E0E1227DE9091E7122A26
:103AB0007F7F047E0C1227DE9091EB122A7F7F0419
:103AC0007E0D1227DE9091EF122A7F7F0C7E091265
:103AD00027DE9091F3122A7F7F047E081227DE9062
:103AE00091F7122A7F7F8C7E081227DE90929E1219
:103AF0002A7F90929E124353ED44C0FDEC90929E1B
:103B0000122A7F90929E124353908085122A7F7FC3
:103B10008C7E08122FD9908085122A8B000100001C
:103B20007F447E08122FD9908085122A8B00DB25D6
:103B3000A47F5C7E08122FD9908085122A8B20DB0F
:103B400025A47F6C7E0E122FD9908085122A8B209F
:103B5000DB25A47F707E0E122FD9908085122A8BD0
:103B6000041B25A47F747E0E122FD9908085122A03
:103B70008B041B25A47F787E0E122FD9908085128E
:103B80002A8B041B25A47F7C7E0E122FD990808562
:103B9000122A8B041B25A47F807E0E122FD99080C1
:103BA00085122A8B63DB25A47F847E0E122FD99089
:103BB0008085122A8B041B25A47F887E0E122FD9A4
:103BC000908085122A8B20DB25A47F8C7E0E122FFD
:103BD000D9908085122A8B20DB25A47FD07E0E12FF
:103BE0002FD9908085122A8B20DB25A47FD47E0ECE
:103BF000122FD9908085122A8B20DB25A47FD87EB6
:103C00000E122FD9908085122A8B001B25A47FDCF1
:103C10007E0E122FD9908085122A8B001B25A47F3F
:103C2000E07E0E122FD9908085122A8B24DB25A4EA
:103C30007FEC7E0E122FD97F047E0C1227DE90922D
:103C40009E122A7F90929E124353E4FFEC90929E24
:103C5000122A7F90929E124353EF4411FFEC9092F0
:103C60009E122A7F90929E124353908085122A7F43
:103C70007F047E0C122FD97F047E0D1227DE9092D6
:103C80009E122A7F90929E124353EF54F0FFEC90C5
:103C9000929E122A7F90929E124353EF4401FFECB2
:103CA00090929E122A7F90929E124353908085128A
:103CB0002A7F7F047E0D122FD97F0C7E091227DE0A
:103CC00090929E122A7F90929E124353E4FFEC90B2
:103CD000929E122A7F90929E124353EF4411FFEC62
:103CE00090929E122A7F90929E124353908085124A
:103CF0002A7F7F0C7E09122FD97F0C7E091227DEC6
:103D000090929E122A7F90929E124353ED540FFD83
:103D1000EC54F0FC90929E122A7F90929E12435394
:103D2000ED4410FDEC4401FC90929E122A7F90928B
:103D30009E124353908085122A7F7F0C7E09122F9A
:103D4000D97F047E081227DE90929E122A7F9092DD
:103D50009E124353EF54F0FFEC90929E122A7F90F4
:103D6000929E124353EF4401FFEC90929E122A7FE1
:103D700090929E124353908085122A7F7F047E0882
:103D8000122FD9E490920FF0228B0F8A1089119094
:103D90000002124220909242F0E030E04B909239C3
:103DA0007401F07F807E081227DE90923B122A7FFA
:103DB000AB0FAA10A911900001124220FFE4FCFDF4
:103DC000FE781A122A6CA804A905AA06AB079092DD
:103DD0003B124353EC5403FC124346909245122A83
:103DE0007F900522E4F0802DE4909239F07F807E70
:103DF000081227DEEC5403FCEC44C0FC90923B120A
:103E00002A7F90923B124353908085122A7F7F80B5
:103E10007E08122FD9909242E030E11B7D0C7F4743
:103E2000124D42900048E0440CFD7F48124D4290F4
:103E30000046E04410801E900047E054F3FD7F47A9
:103E4000124D42900048E054F3FD7F48124D4290DD
:103E50000046E054EFFD7F46124D42E490923FF061
:103E600022900002124220909243F0E06004E0F4BD
:103E70007021A2AFE433F50FC2AF900047E054FBCE
:103E8000FD7F47124D427D407F011236AFE50F2482
:103E9000FF92AF22E4FD7F45124D429004FDE4F015
:103EA000A3F0909243F0909249F090924CF090924F
:103EB0004AF090924DF090924BF090924EF090928A
:103EC0003504F0E4A3F0A3F0A3F090923AF09092BE
:103ED0003FF0909241F0909253F0909244F0909283
:103EE00040F0909239F0900051E044C0FD7F5102C3
:103EF0004D42909253E064016008909241E060026C
:103F0000E1A9909235E0C394FF5005E004F0803BB6
:103F1000909236E0C394FF5006E004F0E4802890CD
:103F20009237E0C394FF500AE004F0E4909236F038
:103F30008015909238E0C394FF5010E004F0E490B4
:103F40009237F0909236F0909235F0900044E05421
:103F50000C6076E030E232909249E0C394FF500565
:103F6000E004F0802490924AE0C394FF5006E004FD
:103F7000F0E4801190924BE0C394FF500CE004F009
:103F8000E490924AF0909249F0900044E030E3329D
:103F900090924CE0C394FF5005E004F0802490928E
:103FA0004DE0C394FF5006E004F0E4801190924E7F
:103FB000E0C394FF500CE004F0E490924DF0909236
:0C3FC0004CF09004FDE04401F0227C0E67
:00000001FF
