:10000000E192100013000000033111402A7C00002F
:10001000B810000000000000000000000000000018
:1000200002494D025FF500000000000000000000E2
:100030000000000260390000000000000000000025
:100040000000000270280000000000000000000016
:1000500000000000000000000000000000000000A0
:10006000000000025FF60000000000026848000087
:10007000000000026FEA0DF0FF0F0000000DF00F0E
:10008000000000000DF0FF0F0000000DF00F000059
:10009000000010F0FF0F00000010F00F0000000043
:1000A000F50F0000000000F00F00000000000D0040
:1000B000000000000010F0FFFF00000010F03F0003
:1000C0000000000A080303000409070303000408F2
:1000D00006030200040805030100040D0A070500D9
:1000E000080C0A070400080B0A060500080B0A059D
:1000F0000300080B0A0302000814120C0400101479
:10010000120904001024221C1200202422180C00C2
:100110002024221406002024220F04002024210A77
:1001200004002023210C040020231F0A04002022A5
:100130001F0F040020211F160C0020312F20140057
:1001400030312F18100030312C180C0030312A14A7
:100150000C003031281400003031241400003031FC
:100160001E140000300202020502040507070708FA
:100170000A01020406070A0B0D02030407080B0D0F
:100180000F05050707080B0D0F05050707080B0DE1
:100190000F01020306070A0B0C0D0E0203040708E9
:1001A0000B0C0D0E1005050707080B0D0F0F0F05A3
:1001B000050707080B0D0F0F0F04040405070709B7
:1001C000090C0E1012040506070B0D111304050689
:1001D000070B0D1113090909090C0E11130909095F
:1001E000090C0E11130408090A0C0E101213140442
:1001F000080A0C0E1011131416090909090C0E1126
:10020000131313090909090C0E111313130000002D
:1002100000000000000024262A0000001F212527DE
:1002200028000000002326282A000000002326289A
:100230002A000000002326282A000000002025278D
:1002400029292A0000000020252729292A0000004A
:10025000002326282A2A2A0000001F2326282A2ACB
:100260002A00000004000000040000000800000054
:100270001000000018000000240000003000000002
:10028000480000006000000090000000C000000076
:10029000D80000003C00000064000000780000006E
:1002A000A0000000F00000014000000190000001EB
:1002B000E0000000A0000000F0000001400000018C
:1002C00090000002580000032000000640000007D4
:1002D000D0000000C800000118000001E00000028A
:1002E000D0000003E8000004B00000064000000752
:1002F000D0000000C800000118000001E00000026A
:10030000D0000003E8000004B00000064000000731
:10031000D00000003C0000006400000078000000F5
:10032000A0000000F000000140000001900000016A
:10033000E0000004B000000960000000C8000001F7
:1003400018000001E0000002D0000003E8000007F0
:10035000D000000BB8000013880000177000001FC9
:1003600040000000C800000118000001E000000289
:10037000D0000003E8000004B000000640000007C1
:10038000D0000007D0000007D0000000C800000126
:1003900018000001E0000002D0000003E8000004A3
:1003A000B000000640000007D0000007D0000007A2
:1003B000D00002000200040008000C001200180027
:1003C00024003000480060006C001E0032003C0039
:1003D00050007800A000C800F00050007800A00095
:1003E000C8012C0190038405140064008C00F00106
:1003F0006801F40258032003E80064008C00F00157
:100400006801F40258032003E8001E0032003C009B
:1004100050007800A000C800F0025804B00064004A
:100420008C00F0016801F403E805DC09C40BB80F87
:10043000A00064008C00F0016801F402580320035E
:10044000E803E803E80064008C00F0016801F402AE
:1004500058032003E803E803E8020406080A0C1026
:100460001820304050020202020202030304040575
:100470000501010202040405050202030305050645
:1004800006050606070708090A05060607070809FC
:100490000A0101020204040505060702020303051E
:1004A0000506060809050606070708090A0A0B05D6
:1004B0000606070708090A0A0B01010101010203E8
:1004C00004050607080102030405060708050606D9
:1004D00007080A0B0C05060607080A0B0C05060799
:1004E00008090A0B0C0506060708090B0C0C0C057D
:1004F00006060708090B0C0C0C05060708090A0B71
:100500000C0C0C05060708090A0B0C0C0C19060448
:10051000020018140D150E150F16101711181218C9
:1005200013181C150E161017111812191C1A1C1B63
:100530001C140C140D0E14150F1610171112170C95
:100540001C0E14150F16101317181319181A19006A
:10055000000000000000000000000000000000009B
:10056000000000000000000000000000000000008B
:10057000000000000000000000000000000000007B
:10058000000000000000000000000000000000006B
:10059000C2AF80FE3212457485D00B75D008AAE038
:1005A000C28CE58A2467F58AE58C3479F58CD28C87
:1005B000EC2487F8E6BC020274FFC39581B44000C6
:1005C00040CE7903788016E608700BC2AFE630E1C2
:1005D000034418F6D2AF08D9EDEA8BD022E50CFF20
:1005E000232481F80F0808BF03047F007881E630D8
:1005F000E4F200E50CC39F5020050C7486250CF82E
:10060000E6FDA68108E6AE0CBE020274FFCDF8E856
:100610006D60E008E6C0E080F6E50CD39F4027E57A
:100620000C2487F8E6AE0CBE020274FFFD18E6CD7E
:10063000F8E5816D6006D0E0F61880F5E50C2486BB
:10064000C8F6150C80D3E50C232481F87F04C2AFD3
:10065000E630E00310E20C7F0030E10730E3047F76
:100660000854F4547CC6D2AF54804207227886A640
:100670008174026006FF0876FFDFFB7F03E4788069
:10068000F608F608DFFA7881763090496D740193A8
:10069000C0E0E493C0E0438901758A60758C79D22B
:1006A0008CD2AF2202EFD3940240037FFF227481E9
:1006B0002F2FF8E620E5F4C2AFE64430F6D2AFAE15
:1006C0000CEEC39F50210E74862EF8E6F908E6184A
:1006D000BE020274FFFDED69600909E71919F70907
:1006E0000980F3161680DAEED39F40040581058158
:1006F000EED39F402274862EF808E6F9EEB50C0280
:10070000A981180606E6FDED6960091919E70909CE
:10071000F71980F31E80D9EF2486F8E604F8EF2F4E
:100720000490496D93F608EF2F93F67F0022EFD3E4
:10073000940240037FFF22EF232481F8E630E5F4A2
:10074000C2AFE6548CF6D2AFE50CB5070A74862F1B
:10075000F8E6F5810245BD502E74872FF8E6BF02FA
:100760000274FFFD18E6F974862FF8FBE6FCE96CCD
:100770006008A805E7F61D1980F4A803A6051FE583
:100780000CB507E37F002274872FF8E6FD18860179
:100790000F74862FF8A601088604E50CB50702AC95
:1007A00081ED6C60080D09A805E6F780F4E50CB54D
:1007B00007DE89817F0022EFD3940240037FFF226E
:1007C000EF232481F8C2AFE630E50530E002D2E441
:1007D000D2E2C6D2AF7F0030E2010F0245BC8FF0FB
:1007E000E4FFFEE50C232480F8C2A930F70D7F0852
:1007F000E6600B2DF66030502E800730F106EDF6E6
:1008000060257E020830F010C2AFE610E7230E30FC
:10081000E20CD2AF7F048012C2AFE610E71354ECB3
:100820004EF6D2AF0245BD7F0808EF4483F4C2AF55
:1008300056C6D2AF54804FFF22EF2BFFEE3AFEEDAB
:1008400039FDEC38FC22EF5BFFEE5AFEED59FDEC72
:1008500058FC22EF4BFFEE4AFEED49FDEC48FC222E
:10086000EB9FF5F0EA9E42F0E99D42F0E89C45F0EE
:1008700022E0FCA3E0FDA3E0FEA3E0FF22E493FC62
:10088000740193FD740293FE740393FF22E0F8A3B6
:10089000E0F9A3E0FAA3E0FB22E493F8740193F9F2
:1008A000740293FA740393FB22A42582F582E5F087
:1008B0003583F58322E0FBA3E0FAA3E0F922EBF015
:1008C000A3EAF0A3E9F022D083D082F8E493701277
:1008D000740193700DA3A393F8740193F582888338
:1008E000E4737402936860EFA3A3A380DF02464D14
:1008F000E493A3F8E493A34003F68001F208DFF445
:100900008029E493A3F85407240CC8C333C4540FBC
:100910004420C8834004F456800146F6DFE4800B8F
:100920000102040810204080904950E47E01936049
:10093000BCA3FF543F30E509541FFEE493A36001BC
:100940000ECF54C025E060A840B8E493A3FAE49326
:10095000A3F8E493A3C8C582C8CAC583CAF0A3C8D4
:10096000C582C8CAC583CADFE9DEE780BE0249087E
:100970000041A5DE0041A5DF0041A5E00041A5E75B
:100980000041A5E80041A5E90041A60F004C385000
:100990005C585BD310AF01C3C0D07F8F7122EF20B2
:1009A000E60241F090008CE0F56E7F8D71229000A0
:1009B0008EE0F56FEF24FC601224EE700241A1245A
:1009C00015600241E2AF6E91EA41E27413256EF5C3
:1009D00082E4349CF583E0FBE4FDFF51FA75F005F9
:1009E000E56E9097961189E013135403FB0DE4FF15
:1009F00051FA75F005E56E9097961189E0C41313CE
:100A0000135401FB0DE4FF51FA75F005E56E909764
:100A1000961189E0C45403FB0DE4FF51FA75F0050B
:100A2000E56E9097931189E0FBE4FD0F51FA75F0A4
:100A300005E56E90979451F575F005E56E909795E4
:100A40001189E0C4135401FB0D7F0151FA75F005C3
:100A5000E56E9097951189E0541FFB0D51FA75F0E2
:100A600008E56E9089001189E0FBE4FD0F51FA75ED
:100A7000F008E56E90890151F575F008E56E9089F2
:100A80000251F575F008E56E90890351F575F0088F
:100A9000E56E9089041189E0FBE4FD0F51FA75F0D1
:100AA00008E56E90890551F575F008E56E908906A8
:100AB00051F575F008E56E9089071189E0FB0D800E
:100AC0003F90A449E0FBE4FDFF51FA90A44AA3E063
:100AD000FB0D51FA90A44CE0FB0D51FA90A44DE0AF
:100AE0005403FB0D51FA90A44EA3E0FBE4FD0F511B
:100AF000FA90A44EE0FB0D51FA90A450E0FB1D0FBC
:100B000051FA7F8F7122EF30E006E4FD7F8D71DEB8
:100B1000D0D092AF221189E0FB0DEF700474F08009
:100B200016EFB4010474F4800EEFB4020474F8807C
:100B300006EFB4030C74FC2DF582E43402F583EB6C
:100B4000F022D310AF01C3C0D08F82758300E09034
:100B5000A606F07F107E00123E8790A606E0FFD02A
:100B6000D092AF227FFF1253BAD310AF01C3C0D0CF
:100B70001257F271D471C871C8900100743FF0A38C
:100B8000E054FDF0900553E04420F090A3BBE0FF5B
:100B9000131313541F30E0069007787401F0EFC36D
:100BA0001330E03790A3FCE0600890A5FE7401F0DC
:100BB0008005E490A5FEF090A3BBE0C41354073079
:100BC000E007E490A5FFF0800690A5FF7402F09086
:100BD000A5FE1269969007787401F090A3BAE060C0
:100BE00002E4F0D0D092AF227F027122EF4401FDE7
:100BF0007F0271DE7F027122EF54FEFD7F02D3106F
:100C0000AF01C3C0D08F82758300EDF07F107E00EE
:100C1000123E87D0D092AF227F547122E50D5FF54E
:100C2000117F557122E50E5FF5127F567122E50F97
:100C30005FF5137F577122E5105FF514AD117F54F6
:100C400071DEAD127F5571DEAD137F5671DEAD14CE
:100C50007F5771DE5391EF227F817122EF54FEFDA9
:100C60007F8171DE7F807122EF4480FD7F8071DEA5
:100C700012B050123E4812B05D12B1297F011246E7
:100C80008590A41B7402F0FF12468590A41BE0041B
:100C9000F0F18212720C7F807122EF4440FD7F8060
:100CA00071DE7528FF12505512B09E7F817122EFC0
:100CB0004404FD7F8171DE12B137E4FF02470E90DC
:100CC000A314E04410F090A321E0FD7F9371DE9027
:100CD000A318E0601290012FE030E7057410F08057
:100CE0000690012F7490F07F087122EF4410FD7F71
:100CF0000871DE7F01F1FA7F907122EF4401FD7FE0
:100D00009071DE7F147E00023E87D310AF01C3C016
:100D1000D090A602EFF07F8F7122EF30E6487F8DF2
:100D20007122EF6401703F90A603F090A603E0FDEE
:100D300090A602E075F0109081001189E5822DF5F2
:100D400082E43583F583E0FBE4FF51FA90A603E0EB
:100D500004F0E0C3941040D37F8F7122EF30E0069F
:100D6000E4FD7F8D71DED0D092AF2290FD68E0FF70
:100D700090FD60E090A514F0EF20E002C1E690A5A0
:100D8000E0E070187F2E712290A3F8EFF07F2D71B4
:100D90002290A3F9EFF090A5E07401F090A514E083
:100DA0006415706C90FD62E0FF30E61CF4543F0463
:100DB000FE90A3F8E01313543FC39E90A513F0D305
:100DC000943F401DE4F0801990A3F8E01313543FC2
:100DD000FEEF543F2E90A513F0D3943F4003743F91
:100DE000F090A513E0FF5430C4540FFEEF25E0252A
:100DF000E04E90A511F0E0FD7F2E71DE90A513E08E
:100E0000C454F0FF90A3F9E0540F4FFD7F2D71DE25
:100E100090A514E0B4210C90FD62E0FF1290007FD9
:100E200004D1EC90A514E0B423047F01D1E790A590
:100E300014E0B427047F02D1E790A514E0B4300C8D
:100E4000E4FBFD7F011292437F04D1EC90A514E0F6
:100E50006434705090FD62E030E03890A3E2E0FF2F
:100E6000C31320E03F90A5117401F0FB7AA579111E
:100E7000FD7F341258DF90A5117403F0E0FF129F3C
:100E8000CE90049DE4F0E04401F09001E7E054FED0
:100E9000F0801112697790049DE054FEF09001E714
:100EA000E04401F090A514E0FDB4350790A3C4E040
:100EB0004401F0EDB4362390FD61E090A511F0906F
:100EC000FD62E090A512F090A514E0FF90A511E05E
:100ED000FD7B017AA579121258DF90A514E0B43792
:100EE0000312A06690A514E0B4401490FD62E030B7
:100EF000E00890A3E07401F08005E490A3E0F09096
:100F0000FD68E04401F02212901A7F048F727F0284
:100F100012479790A194E04572F022E4F50DF50E8A
:100F2000F50F751080AD0D7F5071DEAD0E7F5171E4
:100F3000DEAD0F7F5271DEAD107F5361DE90013068
:100F4000E4F0A3F0A3F0A3F0900138F0A3F0A3F035
:100F5000A3F0FD7F5071DEE4FD7F5171DEE4FD7F83
:100F60005271DEE4FD7F5361DE90013474FFF0A323
:100F7000F0A3F0A3F090013CF0A3F0A3F0A3F0FDE8
:100F80007F5471DE7DFF7F5571DE7DFF7F5671DE00
:100F90007DFF7F5761DEF11DF14912B00912B028C3
:100FA000C1FBF19B90A199EFF0F17690016474017F
:100FB000F0900423E04480F00237F87FF47122EFD0
:100FC00020E50D7FF47122EF7F0120E4057F0222EE
:100FD0007F032212B6607F087122EF54EFFD7F0875
:100FE00071DEE4FFF1FA90A314E054EFF0227F01E8
:100FF0007E00123E0C7FF27122EF20E60C7F05711D
:1010000022EF4480FD7F0571DE227D20714490A394
:10101000117402F02212A6E880F090A5F0EFF0E43F
:10102000A3F0A3F0900109E07F0030E7027F019078
:10103000A5F0E06F603EC390A5F2E0948890A5F122
:10104000E0941340089001C0E04410F02290A5F114
:10105000E475F0011208D67F147E00123E87D3900B
:10106000A5F2E0943290A5F1E0940040B79001C65B
:10107000E030E0B02275E80775A88522E490A4D698
:10108000F090A4D6E06401F0245C9001C4F07450A8
:10109000A3F0123E7BBF01031231F790A317E0606B
:1010A0000E90A31AE0FF90A319E06F600211A4C292
:1010B000AF12B0F8BF010312B763D2AF1249731277
:1010C00045BD80BD90A30EE090A31930E005E0FF80
:1010D00002B7AEE0FF7D0180047D017F04D310AF35
:1010E00001C3C0D090A60EEDF090A313E0FEC41390
:1010F00013540330E0024119EEC4131313540130AA
:10110000E002411990A31AE0FE6F70024119EF70DE
:1011100002217E24FE700221B824FE604924FC7066
:101120000221F324FC60024109EEB40E0251A890A2
:10113000A31AE070047F0151D890A31AE0B406020C
:10114000517E90A31AE0B4040E90A60EE0FF600456
:10115000F1A5800312A23C90A31AE064086002414A
:101160000912BC14410990A31AE070047F0151D800
:1011700090A31AE0B40602517E90A31AE0B40E07C1
:10118000511EBF010251A890A31AE0640C600241F5
:1011900009511EEF640160024109716F410990A37A
:1011A0001AE0B40E07511EBF010251A890A31AE025
:1011B000B40602517E90A31AE0B40C07511EBF0181
:1011C00002716F90A31AE06404705E12B935EF6487
:1011D00001705612BA40805190A31AE0B40E075124
:1011E0001EBF010251A890A31AE0B40602517E90DE
:1011F000A31AE0B40C07511EBF0102716F90A31A2D
:10120000E070047F0151D890A31AE0B4041B12BA15
:1012100061801690A31AE0B40C0F90A314E0FF13A2
:1012200013543F30E00312BC0190A31AE09001BABE
:10123000F090A319E09001BBF0D0D092AF2290A320
:10124000BDE030E01390A3C3E0C413540730E018AE
:101250009001B87410F0803D12A79FEF6401600800
:101260009001B87401F0802D90A313E01313135470
:101270001F30E0089001B87402F0801990A319E0C3
:10128000D3940440089001B87408F080089001B825
:10129000E4F07F01229001B97402F07F002290A354
:1012A00014E090060420E00CE04440F07D047F014F
:1012B0007100800F51F8900527E0547FF090A31241
:1012C000740CF0E4FDFF61BA90A314E0C31320E0B6
:1012D0000451FC801E900604E04440F0E04480F09D
:1012E0007D047F017100900527E04480F090A312F7
:1012F0007404F0E4FDFF61BA90A60DEFF0126E36B3
:1013000090A60DE06005E4FDFF71BA7D047F0171D8
:101310000090A3127404F022E0547FF07D0C7F0152
:10132000D310AF01C3C0D090A60CEFF01460151419
:1013300060192402701AED5401FF90A313E054FECB
:101340004FF0800C90A31AEDF0800590A319EDF0FA
:101350007F8F124B22EF30E43190A60CE01460072F
:1013600014601D2402702390A313E05401C433338E
:10137000335480FF90A31AE0547F4FFD7F8880078D
:1013800090A319E0FD7F89124BDED0D092AF22905E
:10139000A28DE06401703190A314E054FDF07D2C27
:1013A0007F6F71BA71C5BF011490A313E04480F040
:1013B0007D0E7F01710090A312740EF0229001B98E
:1013C0007401F09001B804F02290A42B124889E037
:1013D000FF7E00E4FDD152E4FDFF900522EFF09086
:1013E000A198EDF02290A3C4E04402F07D087F01B3
:1013F000D310AF01C3C0D090A5ADEFF0A3EDF09036
:10140000A196E004F090041DE06041900522E09078
:10141000A5B1F07D26F1EEEF6401700BD1B990A477
:101420001CE020E01A801590A3C1E0C413135403FC
:1014300030E00CD1B990A41CE020E00312B8699010
:10144000A5B1E0FF7D2771BAB1DD800EB1DDD1B964
:1014500090A41CE020E00312B86990A3BDE030E046
:101460001790A3C1E0C41313540330E00B9005227E
:10147000E0546FFF7D2871BA90041F7420F07F0143
:10148000D0D092AF2290A505EFF090A5077402F09E
:101490007F01126F8990A3C1E0FF1313543F30E026
:1014A0002090A505E0B402047D07800990A505E021
:1014B000B405067D0D7FFF71BAF1F2BF0103124B37
:1014C0004990A3C1E0C4131313540190077830E08E
:1014D000057403F080037401F090A505E0B4020DDB
:1014E00090A3BEE02403FF90A3CD125FC490A3BDE0
:1014F000E0C31330E007E490A506F0800690A5064F
:101500007401F090A3C0E0C413540720E01390A32B
:10151000FCE0600890A5077401F08005E490A50741
:10152000F090A507E0FF90A506E0FD12699BE4900E
:10153000A3CFF090A505E0FFB4020890A3D0E0048B
:10154000F08009EFB40505E490A3D0F090A3BDE0CE
:10155000C413540730E01790A505E0B402047D08D9
:10156000806490A505E0640570607D0E805890A3AE
:10157000BDE0C4540F30E02B90A3C1E0C413540766
:1015800020E00990A319E0FFE4FD11BD90A505E05E
:10159000B402047D09802F90A505E06405702B7DC1
:1015A0000F802390A317E0602190A319E0FFE4FDD2
:1015B00011BD90A505E0B402047D0A800990A5053F
:1015C000E0B405067D107F6F71BA90A3C0E030E0F3
:1015D00005E4FDFF71BA90A3C0E0C41313135401D6
:1015E00030E005E4FF128FD990A3C1E0C313900649
:1015F000CDE054EFF09006CFE054EFF02290A5AD8F
:10160000E0FFD310AF01C3C0D090A60BEFF090A1C4
:101610009CE0FF90041CE06F704790A31AE0640EFA
:10162000701490A60BE0703990A313E0547FF090F3
:10163000060451F8802690A31AE06406702390A651
:101640000BE0601D90A313E054BFF0900604E0444B
:1016500040F0E04480F090A31A7404F0E4FDFF71C0
:10166000BAD0D092AF2290A42B124889E0FF7E001E
:101670007D01D310AF01C3C0D090A5A7EEF0A3EFBA
:10168000F0A3EDF090041DE0602E900522E090A5FF
:10169000ACF07D14F1EEBF011412957E90A5AAEE78
:1016A000F0FCA3EFF0FD90A5A9E0FFD1D790A5AC89
:1016B000E0FF7D1571BA801412957E90A5AAEEF018
:1016C000FCA3EFF0FD90A5A9E0FFD1D790041F7413
:1016D00020F07F01D0D092AF2290A19CE0FF90A596
:1016E000AEE0FB7D0112958890A5AFEEF0FCA3EF74
:1016F000F0FD90A5ADE0FF74092DF582E434FCF512
:1017000083E0543FF0EF605274292DF582E434FCFD
:10171000F583E04410F074092DF582E434FCF58380
:10172000E04480F090A3C1E0C413540730E0479038
:10173000A3D4E0FFC394205013EF25E025E0FF740D
:101740002B2DF582E434FCF583EFF022742B2DF57C
:1017500082E434FCF583747FF02274292DF582E451
:1017600034FCF583E054EFF074092DF582E434FC89
:10177000F583E04440F02212B8F590A31AE0640C1F
:101780006011E4FD7F0C11BDE4FDFF71BA7D08E43A
:10179000FF71D02290A3BDE020E02990A317E06460
:1017A0000170211297C890A315E0540F600EE4FD5C
:1017B0007F0C11BDE4FDFF71BA02B8F590A31AE0E9
:1017C000700211B922EF604590A28DE06401703D76
:1017D00090A314E054FEF07D2B7F0F71BA900604A5
:1017E000E054BFF07D08E4FF71D0BF011490A31353
:1017F000E04440F07D067F01710090A3127406F072
:10180000229001B97401F09001B87408F0227FFFB2
:1018100071BAE490A600F0A3F09005F8E0700FA371
:10182000E0700BA3E07007A3E070037F012290A398
:10183000C1E0C41313540330E015D390A601E09423
:101840000390A600E09400400280137F01801BD328
:1018500090A601E094E890A600E09403400A90016D
:10186000C0E04420F07F00227F327E00123E87904D
:10187000A600E475F0011208D6809EE4FBFAFD7F15
:10188000011247BEEF60F490A194E060EEC2AF3069
:10189000E00B54FEF0E4FF1264D31279D3D2AFC24E
:1018A000AF90A194E0FF30E10654FDF0128E6FD2AC
:1018B000AFC2AF90A194E0FF30E20554FBF031E4F9
:1018C000D2AFC2AF90A194E0FF30E60554BFF01153
:1018D000B5D2AF80B2E47B017AA4790611DBEFB414
:1018E000021890A5DEE06404600B7F40F17190A5C2
:1018F000DEE004F022E490A5DEF0227D037F11D328
:1019000010AF01C3C0D090A5B6EFF0A312489EAEB1
:101910000590A3E1E0706490A3E3E0FD131313547A
:101920001FFCEDC313FD90A3E3E0C4135407F9902B
:10193000A3E3E0C4131313540190A3E4E0C313EC36
:1019400020E015ED20E011E920E00D90A3E3E0C4D4
:10195000131313540130E0047F02802190FD58E0FE
:1019600020E00431628010900101E054EFF0316218
:10197000900101E04410F07F0180027F04D0D092FA
:10198000AF2290A5B6E0FFAD06A312489590A5E161
:1019900012489EE4FE90FD50EFF06430603BA3EDF2
:1019A000F0EEC39D501E90A5E11248958E8275837E
:1019B000001206A2FF74522EF582E434FDF583EF87
:1019C000F00E80DDEEC39406503374522EF582E49F
:1019D00034FDF583E4F00E80EBEEC39407501E90C7
:1019E000A5E11248958E827583001206A2FF7451FC
:1019F0002EF582E434FDF583EFF00E80DC90FD5887
:101A00007401F022D310AF01C3C0D0E4FF90A289CB
:101A1000E0FE90A288E0FDB506047E0180027E0013
:101A2000EE6401602DED75F00FA424F2F974A13578
:101A3000F0FA7B0112AE8E7F01EF601690A288E073
:101A400004F0E0B40A0280027F00EF6005E490A297
:101A500088F0D0D092AF2290A5BA12489E90A3E30E
:101A6000E04410F07D017F1B11DF90A5BDEFF0BFBA
:101A7000011C90A3E3E054EFF04420F0E490A5A50E
:101A8000F0A3740AF0E4FBFD7F687E01805190A50D
:101A9000BDE0FFB4020E90A5BA12489512068990D7
:101AA000A3E6F022EFB4040790A3E3E054EFF022A2
:101AB00090A41CE0C3135407FF75F00E90A42912E4
:101AC0004889E0FE75F00EEF90A428124889E09056
:101AD000A5A6F090A5A5EEF0E4FBFD7F547E01D312
:101AE00010AF01C3C0D090A5A1EEF0A3EFF090A578
:101AF000A5E0F53BA3E0F53C12369D90A5A1E0FEE4
:101B0000A3E0F5828E83A3A3A37405F0D0D092AF97
:101B10002290A5E412489E90A3E3E04404F07D01E6
:101B20007F2311DF8F70E570B4011C90A3E3E054B4
:101B3000FBF04408F0E490A5A5F0A3740AF0E4FBE0
:101B4000FD7F687E018098E570B4020E90A5E412D6
:101B5000489512068990A3E5F022E570B404109030
:101B6000A3E3E054FBF0E4FF12901A7F04F171222A
:101B700090A41CE030E07D90A41EE0703E7D167FB6
:101B80006F1253BA1257F290A41CE0C31354077596
:101B9000F00E12564690A41CE0C313540775F00EC5
:101BA00090A427124889E04401F0E490A5A5F0A391
:101BB000740351B790A41E7401F02290A41EE06437
:101BC00001702F90A41CE0C3135407FF75F00E9012
:101BD000A427124889E030E01975F00EEF1256463E
:101BE000E490A5A5F0A37403F0E4FBFD7F547E010F
:101BF00041BF71D52290A41CE0FFC313FEEF54F146
:101C0000FFEE04540725E04FF0A3E0FF90A41CE092
:101C1000FEC3135407B50704EE54F1F05190E4905D
:101C2000A41EF01257F290A41CE0FEC3135407FD4B
:101C300075F00E90A41F124889E0FA75F00EED9031
:101C4000A420124889E0FC5403FDEC13135407FB55
:101C5000EEC4540F90A5D5F0AF0212765F90A41C8D
:101C6000E0C313540775F00EB15A90A41CE0C313DF
:101C70005407FF75F00E90A42A124889E004F0750D
:101C8000F00EEF1253A990A41CE0C3135407FDE417
:101C9000FFD310AF01C3C0D090A5D6EFF0A3EDF0F5
:101CA000E4A3F090A5D8E0FFC394024002A15590B0
:101CB000A5D7E0FE75F00E90A42112488975F003B7
:101CC000EF124889E0FCA3E0F5828C83E090A5D96F
:101CD000F090A5D6E0603190A5D9E0FF75F00EEE4A
:101CE00090A423124889C083C08290A5D8E0D082F6
:101CF000D08375F003124889E0FE7401A8060880BD
:101D000002C333D8FC4F803390A5D9E0FF90A5D70C
:101D1000E075F00E90A423124889C083C08290A57C
:101D2000D8E0D082D08375F003124889E0FE7401B8
:101D3000A806088002C333D8FCF45F90A5D9F090C0
:101D4000A5D9E0FF90A5D7E075F00E90A421124828
:101D500089C083C08290A5D8E0D082D08375F0037B
:101D6000124889E0FCA3E0F5828C83EFF090A5D8BF
:101D7000E004F08183D0D092AF2290A42012488951
:101D8000E0FE5403FFEE13135407FDD310AF01C35D
:101D9000C0D090A609EDF0EF146002C17690060362
:101DA000E054FBF090A609E0C43354E0FF900442F5
:101DB000E0549F4FFFF090A54C12087900000001FD
:101DC00090A550120879000000017F007E08D1E73D
:101DD00090A54C1208790000000190A550120879D6
:101DE000000000017F007E09D1E790A54C12087920
:101DF0000000001090A609E0FFE4FCFDFEEF540394
:101E0000FFE47801120847780412085A90A550128E
:101E1000086D7F007E0AD1E790A54C12087900007A
:101E20000C0090A609E0FFE4FCFDFEEF5403FFE484
:101E3000780A12085A90A55012086D7F007E0DD1C5
:101E4000E790A54C1208790C00000090A609E0FF6D
:101E5000E4FCFDFEEF5403FFE4781A12085A90A543
:101E60005012086D7F187E08D1E790A54C120879B2
:101E700000000C0090A55012087900000000D1E38A
:101E800090A53A12087900000C0090A53E1208793E
:101E9000000004008065900603E04404F090A54C27
:101EA0001208790000000190A55012087900000086
:101EB000007F007E08D1E790A54C12087900000051
:101EC0000190A550120879000000007F007E09D122
:101ED000E790A54C12087900000C0090A55012085C
:101EE0007900000C00D1E390A53A12087900000CAB
:101EF0000090A53E12087900000C001276E0D0D0C8
:101F000092AF227F847E08D310AF01C3C0D090A5CA
:101F10004AEEF0A3EFF01237AD90A55412086D9081
:101F2000A54C12485112083A90A55412486D124817
:101F300026C004C005C006C00790A54C12485190A9
:101F4000A55012486D124826D003D002D001D0000F
:101F500012483390A55812086D90A5581248519018
:101F6000AAB912086D90A54AE0FEA3E0FF1238A4BA
:101F7000D0D092AF2290A317E0600312BBB761509C
:101F800090A41CE030E009F1D9E490A41EF0519037
:101F90002290A607EFF07F0212479790A194E0FFEE
:101FA00090A607E0FEEF4E90A194F02212B67FD3E8
:101FB00090A44BE0940090A44AE094004016E0FC0A
:101FC000A3E0FDEC90A5A5F0A3EDF0E4FBFD7F5CA4
:101FD0007E0141BF90015FE4F02280D080A27D01AC
:101FE0007F1701DFE0C39FFFE490A5A5F0A3EFF00A
:101FF000E4FBFD7F6C7E0141BF7D20E4FF741D2F5B
:10200000F8E6FEEDF45EFEF674382FF582E4340156
:10201000F583EEF02232C0E0C0F0C083C082C0D0B1
:1020200075D000C000C001C002C003C004C005C01C
:1020300006C007124BF8E51430E703124FCED00765
:10204000D006D005D004D003D002D001D000D0D02B
:10205000D082D083D0F0D0E032C0E0C0F0C083C0E6
:1020600082C0D075D000C000C001C002C003C0044F
:10207000C005C006C00712B141E51930E102914C1C
:10208000E51930E402D12BE51930E50312B1A7E5DB
:102090001930E602F1C2E51B30E002D133E51B3016
:1020A000E103129F19E51B30E20312A2C6E51B30C3
:1020B000E30312B1E3E51B30E40312B20CE51B307D
:1020C000E502D16DE51B30E60312B23BE51C30E1C1
:1020D00002D1A9E51C30E40291D1E51C30E50211E2
:1020E000E3E51C30E60271ECD007D006D005D00441
:1020F000D003D002D001D000D0D0D082D083D0F095
:10210000D0E032E4F56474812564F582E43494F51A
:1021100083E0FF5403F565EF54041313543FF56651
:10212000748D2564F582E434A2F583E07002415D8C
:10213000E564131313541F90A4F5F0E5645407A34A
:10214000F090A4F5E02401F582E43495F583E09065
:10215000A4F7F0FD90A4F6E0FF74017E00A8070844
:102160008005C333CE33CED8F9FFEF5D7002415DF9
:1021700075F010E564908101124889E020E7028043
:102180001375F010E564908102124889E090A4F87C
:10219000F020E7099001C1E04420F0415D90A4F8EF
:1021A000E030E63874812564F582E43494F583E008
:1021B00054F8F075F010E564908100124889E0FD54
:1021C00075F005E564909796124889E0131354035F
:1021D00090A59EF0E4FBAF64516D415DE5656045FF
:1021E000156574812564F582E43494F583E054FC2C
:1021F0004565FF74812564F582E43494F583EFF03E
:1022000075F005E564909796124889E0131354031E
:1022100090A59EF074142564F582E434A1F583E062
:10222000FD7B01804FE5666401704DF56674812584
:1022300064F582E43494F583E054FBFFE56625E021
:1022400025E04FFF74812564F582E43494F583EF33
:10225000F075F005E564909796124889E0131354E1
:102260000390A59EF074142564F582E4349EF583F2
:10227000E0FDE4FBAF648015AF64127F8A0564E57E
:1022800064C39480500201E622AD61AF60D310AF09
:1022900001C3C0D090A59BEFF0A3EDF0F990A59BF2
:1022A000E0FE131313541FFDEE5407FE75F010EFFC
:1022B000908101124889E090A5A0F0E9547F90A593
:1022C0009FF0EB702B74012DF582E43495F583C0FB
:1022D00083C082E0FF7401A806088002C333D8FCE3
:1022E000F45FD082D083F090A5A0E0547FF08069A5
:1022F00090A59FE0FFC39419400EEFD3941B5008A4
:102300009004CF7402F080059004CFE4F074012DA6
:10231000F582E43495F583C083C082E0FF7401A8A0
:1023200006088002C333D8FC4FD082D083F090A53A
:102330009BE075F010908101124889E05407FF90EE
:10234000A5A0F090A59FE090444593FE333333540D
:10235000F84F90A5A0F04480F090A59BE0FB700C96
:10236000A3E090A527F0E4FDFF1277E190A59FE0A0
:10237000FB25E02491F582E43443F583E493FE7475
:102380000193FFE4FCFD75F004EB90424112488993
:10239000124879124819780112084790A59BE0FD70
:1023A00025E02412F582E43496F583EEF0A3EFF0F5
:1023B00090A59CE0FF75F010ED908100124889EF28
:1023C000F0ED70059001C8EFF090A5A0E0FF90A59A
:1023D0009BE0FE75F010908101124889EFF075F0D6
:1023E00010EE908105124889E054FCFF90A59EE014
:1023F0004FFE90A59BE0FF75F01090810512488973
:10240000EEF07D01127EFDD0D092AF2290071FE04A
:10241000547FF090071CE05401FF602F90A450E01F
:10242000602990A44DE05403146010146016240237
:10243000701990042DE04402F0801090042DE044C7
:1024400006F0800790042DE0440EF0E490A450F0D4
:1024500090A4F7EFF090A4F57402F090A50314F0A7
:10246000FB7AA479F5F1DE7F04025F71E4FF90A4AA
:10247000F5EFF090047EE0F565A3E0F56665656034
:102480006F90A4F67403F090A5047408F0E5660458
:10249000540FF567E4F564E56775F008A42400F5CA
:1024A00082E43480F583E5822564F582E43583F5A2
:1024B00083E0FF74F82564F582E434A4F583EFF03B
:1024C0000564E564B408D07B017AA479F6F1DEE511
:1024D0006604540FF566B40F03E4F56690047FE5D7
:1024E00066F090A4F5E07F047003024EEC125F7179
:1024F00022E4FF90A452EFF0E4A3F090A453E0FF95
:10250000C39480504774542FF582E434A4F583E4D7
:10251000F075F010EF908103124889E090A45330D9
:10252000E70EE02481F582E43493F583E4F080142F
:10253000E0FFF1CF90A453E02454F582E434A4F5F5
:10254000837401F090A453E004F080AF7F0C7E0010
:10255000123E87E490A453F090A453E0FFC394800C
:102560004002C12A74542FF582E434A4F583E0704C
:1025700002C12290A453E0FF75F01090810612482A
:1025800089E0FD75F010EF908107124889E0FEEDBB
:10259000FF90A453E0FC25E02401F582E43492F599
:1025A00083EEF0A3EFF075F010EC90810A124889E9
:1025B000E0FD75F010EC90810B124889E0FEEDFF14
:1025C00090A453E075F00A908D01124889EEF0A3B3
:1025D000EFF07F0190A453E0FE75F01090810B1294
:1025E0004889E5822FF582E43583F583E0FD75F0B7
:1025F0000AEE908D0112488975F002EF124889E4C5
:10260000F0A3EDF00FEFB405CB90A453E0FF75F00D
:1026100010908109124889E0FE74932FF582E4340A
:102620009AF583EEF090A453E0FF90A452E0FD12DF
:102630007EFD90A453E02481F582E43493F5837405
:1026400001F090A453E004F0A1382212ACE87F021C
:10265000024EEC90A30EE030E010A37401F090A3C2
:102660000EE0FFC31330E002D1D412BAEE90A3BD46
:10267000E030E005E4FF129C0422D1F990A31DE0B4
:1026800014900573F07D027F02D19480E090A28DBA
:10269000E0B4011690A317E0601090A315E0540F6A
:1026A0006402600302979E125757229001347440CF
:1026B000F0FDE4FF74152FF8E64DFEF674302FF5AB
:1026C00082E43401F583EEF02290A317E0700790C6
:1026D000A30EE030E01190A30EE030E007D1C8BFB8
:1026E0000105E15C12577422900543E07F0030E75A
:1026F000027F0122D310AF01C3C0D090A30DE0B47C
:1027000001047F04800BD1C8BF01047F0180027FD8
:102710000212A5B3D0D092AF22E490A505F090A309
:1027200017E0605790A28DE06401704F90A50504FA
:10273000F0E490A31EF090A30EE030E01590A312F9
:10274000E0B40205E490A505F0D1C8EF700490A5AF
:1027500005F090A505E0602390A31BE04410F0E491
:1027600090A5A5F090A31FE090A5A6125AB790A33C
:102770001AE020E2031250B91297C82290A317E082
:102780006402601490A315E0540F600C12A79FEF31
:102790007006FD7F0C1250BD229001367478F0A3B4
:1027A0007402F07D78FFD1947D027F03D19490066E
:1027B0000AE04407F090A322A3E0900558F090A20D
:1027C0008DE0B4011590A314E054FBF090A31AE03F
:1027D00020E20E7D017F040250BD90A314E044046A
:1027E000F02290A30EE030E005E4A3F0A3F0227500
:1027F000F010EF908103124889E04440F022D3109A
:10280000AF01C3C0D090A288E0FF7006A3E06409C6
:10281000600AEF14FF90A289E0B507047F018002EF
:102820007F00EF60099001C1E04402F08035C001F3
:1028300090A289E075F00FA424F2F974A135F0A8F4
:1028400001FC7D01D0017E007F0F12066390A289FA
:10285000E004F0E07F00B40A027F01EF6005E4903D
:10286000A289F0D0D092AF22C0E0C0F0C083C08275
:10287000C0D075D000C000C001C002C003C004C0F9
:1028800005C006C00712B177E52130E103125F559C
:10289000E52130E202312EE52130E303125FBAE593
:1028A0002130E503125FBCE52230E00312B257E5A8
:1028B0002230E3031290A3E52330E10312B4A3E531
:1028C0002330E00312B434E52330E209D1B7900796
:1028D0008FE04410F0E52330E302F1E0E52430E13D
:1028E000057F04124EECE52430E40312665AE52419
:1028F00030E50312B53AE52430E60312B582E5244B
:1029000030E7023100D007D006D005D004D003D084
:1029100002D001D000D0D0D082D083D0F0D0E0322D
:1029200090A3D8E030E00431188003129A7490A488
:1029300009E030E002D1E9227D127FFF1253BA9004
:1029400007787401F090A3FCE0FFE4FD806D90A394
:1029500017E06014900692E030E10302B8F590A30E
:1029600013E054F7F01250A422311890A3D8E0FFDE
:10297000C4135407FEEFC313540FC39E40028017C5
:1029800090A3D8E0FFC313540FFEEF54E1FFEE0411
:10299000540F25E04FF02290A3D8E054FEF054E10C
:1029A000F090A3DDE0900778F090A3DE3196D13669
:1029B000E4FDFF0253BAE0FFA3E0FDD310AF01C373
:1029C000C0D08F6C8D6DE56C640260417F2C7E09F8
:1029D0001237ADE4FFEC90A59312086DE56C90A55D
:1029E00093B40108124851EF44048006124851EF95
:1029F0004420FFEC90A59312086D90A593124851C6
:102A000090AAB912086D7F2C7E091238A4E56D6476
:102A1000027002418C7F307E091237ADE4FFFEFD6B
:102A2000EC90A59312086DE56D701790A593124870
:102A300051EE4407FEED4470FDEC90A59312086D35
:102A4000805790A593124851EE4406FEED4460FD78
:102A5000EC90A59312086D7F2C7E091237ADE4FF30
:102A6000EC90A59712086D90A3FCE090A5976008E4
:102A7000124851EF44208006124851EF4404FFEC05
:102A800090A59712086D90A59712485190AAB91277
:102A9000086D7F2C7E091238A490A593124851909E
:102AA000AAB912086D7F307E091238A4D0D092AF37
:102AB00022D310AF01C3C0D090A4DB12489E1206EF
:102AC00089FF5401FE90A3BDE054FE4EFEF0EF548A
:102AD00002FFEE54FD4FFFF0120689FE5404FDEF95
:102AE00054FB4DFF90A3BDF0EE5410FEEF54EF4E9B
:102AF000FFF0120689FE5420FDEF54DF4DFF90A336
:102B0000BDF0EE5440FEEF54BF4EFFF01206895464
:102B100080FEEF547F4E90A3BDF09000031206A2FA
:102B2000FF5401FE90A3C0E054FE4EFEF0EF5402AD
:102B3000FFEE54FD4FFFF09000031206A2FE540476
:102B4000FDEF54FB4DFF90A3C0F0EE5410FEEF5488
:102B5000EF4EFFF09000031206A2FE5420FDEF544A
:102B6000DF4DFF90A3C0F0EE5440FEEF54BF4EFF88
:102B7000F09000031206A25480FEEF547F4E90A303
:102B8000C0F09000041206A2FF5420FE90A3C1E002
:102B900054DF4EFEF0EF5440FFEE54BF4FFFF09075
:102BA00000041206A2FE5480FDEF547F4DFF90A357
:102BB000C1F0EE5401FEEF54FE4EFFF090000412FF
:102BC00006A2FE5404FDEF54FB4DFF90A3C1F0EEAE
:102BD0005402FEEF54FD4EFFF09000041206A2FED8
:102BE0005410FDEF54EF4DFF90A3C1F0EE5408FEDA
:102BF000EF54F74EF0E0FF1313543F20E008D136B6
:102C0000E4FDFF1253BA90A3C1E0C31320E00E907D
:102C100006CDE054EFF09006CFE054EFF090A4DB47
:102C200012489512068920E002A184900554E09094
:102C3000A3CEF0E0C31390A3CDF090A3C0E0C454A2
:102C40000F30E0169000011206A290A3BEF0900093
:102C5000021206A290A3BFF080489000011206A2C3
:102C6000FFC3942A5012EFC3940390A3BE5005747F
:102C700003F0800AEFF0800690A3BE742AF0900063
:102C8000021206A2FFC3942A5012EFC3940390A32A
:102C9000BF50057403F0800AEFF0800690A3BF7464
:102CA0002AF090A3C1E0C41313540330E03D90A375
:102CB000BEE075F0038490A3C6F0E0C313A3F090C8
:102CC000A3BFE075F0038490A3C8F090A3BEE0C357
:102CD0001390A3C9F090A3BFE0C31390A3CAF090D0
:102CE000013E7408F0FD7F021277CCE490A3FAF065
:102CF00090A4DB1248959000031206A2C41313544B
:102D00000320E03B90A3BDE0FFC31320E00AEFC423
:102D1000131313540130E027120689131313541FA1
:102D200030E00890A3FCE06008800B90A3FCE0601A
:102D3000057551018003E4F5517D02AF51319B903F
:102D4000A3BDE0C4540F30E01C90A3C1E0C41354F1
:102D50000730E0077D047F02125300900500741CC9
:102D6000F0A37411F09005587402F090A3C5E0FF31
:102D7000B4010890A3D07401F08022EFB40408904D
:102D8000A3D07404F08016EFB4060890A3D07402A8
:102D9000F0800AEFB4070690A3D07405F0E490A386
:102DA000C5F0806D90A4DB1248959000031206A236
:102DB000FFC41313540330E0057552028014120649
:102DC00089FF131313541F30E0057552018003E48B
:102DD000F5521277647D207F40124BDE90A4DB1207
:102DE00048959000031206A2131313541F900778FE
:102DF00030E0057403F080037401F0AD527F0231BE
:102E00009BE4FDFF1253BA900500741CF0A37443B9
:102E1000F090A3C3E054DFF0E490A3CFF090A3C000
:102E2000E0C4131313540130E00990A3EDE0440211
:102E3000F0800C7F01128FD990A3EDE054FDF07F5C
:102E400003F18990A3BDE020E00790A3C1E054BF47
:102E5000F0D0D092AF22D310AF01C3C0D090010107
:102E6000E04402F090010074FFF09006B77409F09E
:102E70009006B47486F090A3BBE0FF131313541FA5
:102E800030E0069007787403F090A3D8E020E03497
:102E9000EFC31330E02E90A3FCE06007E490A5FCA4
:102EA000F0800690A5FC7401F090A3BBE0C413541D
:102EB0000790A5FD30E0057401F080037402F090E6
:102EC000A5FC31967F02124B22EF4401FD7F0212D6
:102ED0004BDED0D092AF22D310AF01C3C0D090A4AC
:102EE00009E030E01F90A40EE0B4010CA3E0B401AF
:102EF000137402F0F162800C90A40EE0B402057429
:102F000003F0D1E9D0D092AF22D310AF01C3C0D02B
:102F100090A410E0B40102804A90A410E0B4021121
:102F2000F1627F01F18912A09190A4107403F080E6
:102F30004C90A410E06403702390A413F165E4FFA7
:102F4000F18912A09190A409E0C3135403FFE4FB9C
:102F5000FD12972190A4107404F0802190A410E039
:102F6000B4041A90A409E0C3135403FF7B017D014C
:102F700012972190A4107402F090A40EF0D0D09279
:102F8000AF2290A415E0FEA3E0FFAD07EEFF900195
:102F90006FE4F08F35AF058F36FBFD7F6C7E01123D
:102FA0003CE190016F7405F022D310AF01C3C0D093
:102FB000EFB4031390A3C0E0C4131354039006CCE2
:102FC00030E035E4F0803490A3C1E0C4540F30E029
:102FD0000CEF9006CC7003F080037403F090A4090A
:102FE000E030E017C4540F30E00BEF9006CC7003D4
:102FF000F0800880039006CC7403F0D0D092AF220A
:1030000022D13690A3117403F022C0E0C0F0C08337
:10301000C082C0D075D000C000C001C002C003C0D3
:1030200004C005C006C007124D4B5391BFD007D056
:1030300006D005D004D003D002D001D000D0D0D02B
:1030400082D083D0F0D0E03232E4FFE4FE74932FDC
:10305000F582E4349BF583E054FEF075F010EF90B8
:103060008100BE0312124889E5822EF582E4358381
:10307000F5837480F0800F124889E5822EF582E492
:103080003583F583E4F075F008EF908900124889E4
:10309000E5822EF582E43583F583E4F00EBE10ADB3
:1030A0000FBF80A7E490ADE3F0FFE4FE75F00AEFF8
:1030B000908D0112488975F002EE124889E4F0A360
:1030C000F00EBE05E774942FF582E434A0F583E496
:1030D000F074142FF582E434A1F583E4F074142F16
:1030E000F582E4349DF583E4F074142FF582E43422
:1030F0009EF583E4F074812FF582E43494F583E443
:10310000F074942FF582E4349CF583E4F074932FEB
:10311000F582E4349BF583E0549DF09095117401A1
:10312000F074942FF582E4349FF583E4F074132F48
:10313000F582E4349AF583E4F074922FF582E43456
:1031400095F58374FFF0EF25E02401F582E43492D5
:10315000F583E4F0A3F074932FF582E4349AF583B9
:10316000E4F075F005EF909793124889741BF075A1
:10317000F005EF909794124889E4F075F005EF9010
:103180009795124889E054E0F075F005EF90979616
:10319000124889E054F3F075F005EF9097961248C5
:1031A00089E054FCF075F005EF909795124889E09E
:1031B0004420F075F005EF909796124889E054CFBF
:1031C000F075F005EF909796124889E04440F0754D
:1031D000F005EF909796124889E0547FF075F0055E
:1031E000EF909797124889E054FEF075F005EF9044
:1031F0009794124889E0FE75F010EF908100124814
:1032000089EEF00FEF64806002018A90044974F047
:10321000F0A3E4F0A374FFF09004337402F0A374FD
:1032200004F0A304F0A304F0A304F02271BB71C165
:103230001129F19B513671CF51EA90A44974FFF0E6
:10324000E4A3F0A3F0A3F0A3E054FC4402F0E4A351
:10325000F0A3F0A3F0227E007FA37D007B017AA380
:1032600079131208AA90A3167402F090A31D14F00B
:10327000A3F0A37408F090A322E4F0A37402F090EA
:10328000A34EE0240490A32CF0A37408F0E4FDFF07
:103290001253007D0C7F021253001252FC90A19930
:1032A000E0FFB4010890A32174DDF0800FEF90A33C
:1032B00021B4030574D5F080037440F090A3B67474
:1032C00003F0A37405F0A3E054014428F0A37405AF
:1032D000F090A34EE0240490A32CF0A37408F0F126
:1032E0007A7E007F027D007B017AA379BA1208AA58
:1032F000900604E0547FF090060AE054F8F0E4FDF4
:10330000FF1253BAE490A3BCF0227E007F197D0027
:103310007B017AA379ED1208AA7F807E081237AD6F
:1033200090A3F412086D90A3F412485190A3F012E8
:10333000086D90A199E0FF6402702A90FD80E07E04
:103340000030E0027E0190A3FCEEF090FD80E07E74
:103350000030E1027E0190A3FDEEF090FD80E09050
:1033600002FBF0804AEF6401701D90FD70E07F0069
:1033700030E0027F0190A3FCEFF090FD70E07F0051
:1033800030E1027F01802390A199E06403702090D6
:10339000FD78E07F0030E0027F0190A3FCEFF09029
:1033A000FD78E07F0030E1027F0190A3FDEFF09017
:1033B000FD68E04402F09007787401F0129E2AF153
:1033C0006490A3D67401F0E4FD7F0112699B90A480
:1033D00009E054FEF090048FE4F022E490A28DF016
:1033E00022E490A288F0A3F090A1F0F0A3F0227E56
:1033F000007F2D7D007B017AA4791C0208AA8B51E5
:103400008A528953120689C4540FFFBF0F1A90A421
:103410001CE054FEF0125FD9AB51AA52A953120618
:1034200089540FFFD10E80C7AB51AA52A953900007
:10343000011206A2FF120689FE540FFD75F00E90D0
:10344000A41F124889EFF09000021206A25403FF55
:1034500075F00EED90A420124889E054FC4FF090D6
:1034600000021206A2541CFFEE540FFE75F00E90DF
:10347000A420124889E054E34FF09000021206A203
:1034800054E0FF75F00EEE90A420124889E0541F1E
:103490004FF09000041206A2FF120689540FFDE4BB
:1034A000FBB104AB51AA52A9539000051206A2FF2A
:1034B000120689540FFD7B01B104AB51AA52A953E6
:1034C0009000031206A233333354F8FF120689FE2C
:1034D000540FFD75F00E90A428124889EFF090006B
:1034E000031206A2C4135407FF75F00EED90A42931
:1034F000124889EFF0EEC4540FFF146D702590A4AC
:103500001DEFF09000061206A2540FC454F0FF9075
:10351000A41CE0540F4FF054F1F04401F07D20E47E
:10352000FFF1CC228F548D55AE03741FC3955440C8
:103530001490A4DFEEF0AB55E4FDB19790A4DBEF5F
:10354000F024D48055743FC39554401690A4DFEE08
:10355000F0AB557D20AF54B19790A4DBEFF02488F9
:103560008038745FC39554401690A4DFEEF0AB55DD
:103570007D40AF54B19790A4DBEFF024D0801B7452
:103580007FC39554403090A4DFEEF0AB557D60AF23
:1035900054B19790A4DBEFF02484FDE43404FC756F
:1035A000F00EE55590A42112488975F003EE1248FB
:1035B00089ECF0A3EDF022C3EF9DF556C3940850BB
:1035C00024E4F55775F00EEB90A423124889C083CC
:1035D000C08290A4DFE0D082D08375F003124889C6
:1035E000E556F08046E556C394105009755701E53D
:1035F0005624F88017E556C394185009755702E50C
:103600005624F08007755703E55624E8FF75F00E41
:10361000EB90A423124889C083C08290A4DFE0D03D
:1036200082D08375F003124889EFF0AF57228F5490
:103630007D171257EE75F00EE55490A41F124889BD
:10364000E0FC75F00EE55490A420124889E0FE5489
:1036500003FDEE13135407FB90A41CE0FEC4540FAB
:1036600090A5D5F0AF04D15F75F00EE554125D5A08
:1036700075F00EE5541253A9AD54E4FF025C71D30A
:1036800010AF01C3C0D090A5D2EFF0ED6401702F50
:10369000EBB40107E02402F573800890A5D2E02482
:1036A000FEF57390A53A120879000000FFAF73D1C0
:1036B000D690A53A120879000000FFAF73802090E1
:1036C000A53A120879000000FF90A5D2E0FFD1D6FC
:1036D00090A53A120879000000FF90A5D2E0FFE41F
:1036E000FCFDFE90A53E12086D7D187C007F01D187
:1036F000E6D0D092AF22E4FCFDFE90A53E12086D0C
:103700007D187C00E4FFD310AF01C3C0D090A53872
:10371000ECF0A3EDF090A537EFF0A3A3E0FD123E8F
:103720003990A54212086D90A53A12485112083AF4
:1037300090A54212486D124826C004C005C006C0BC
:103740000790A53A12485190A53E12486D1248269E
:10375000D003D002D001D00012483390A546120801
:103760006D90A538A3E0FDC00590A5461248519084
:10377000AA9612086D90A537E0FFD005123D39D00A
:10378000D092AF227E007F0A7D007B017AA379E38D
:103790001208AA90A3D17402F022E4FF742F2FF52F
:1037A00082E434A3F583E4F00FEFB419EFE490A3BF
:1037B0002AF090A32EF090A328F0227E007F017DB6
:1037C000007B017AA3790E1208AA90A30EE054FDA3
:1037D000F0E4A3F0A3F0A3F0A3740CF022EF149094
:1037E0000573F090013F7410F0FD7F03741D2FF8F6
:1037F000E64DFEF674382FF582E43401F583EEF0E1
:103800002290A526EBF0706490A526E0FE2413F527
:1038100082E4349BF583E0FC90A527E0FBEC6B6031
:103820004B90A52AEBF0A3EEF0AE05EE25E04FFF9E
:10383000909511E0FE25E025E04F90A52CF090A595
:1038400028740CF090A5367404F07B017AA57928D1
:103850001267DE7F04125F7190A527E0FF90A52616
:10386000E02413F582E4349BF583EFF0228F60753A
:10387000F005EF909797124889E05401FB75F0101E
:10388000E560908100124889E0F561547FFA75F097
:1038900005E560909793124889E0F990A4E5F075EA
:1038A000F004EA90424112488912485DE56025E043
:1038B0002412F582E43496F583EEF0A3EFF075F070
:1038C00005E560909796124889E013135403F56359
:1038D000EAC3994002215574142560F582E434A0AE
:1038E000F583EAF074142560F582E434A0F583E0F2
:1038F000F562C3940C4025E562941B501FBB011C6C
:10390000E56224F4FDAF60128982AD62AF60128877
:10391000E0AA07EA656260048A6121C5EA04FD90B5
:10392000A4E5E0FFEDD39F400221C5ED131313542E
:103930001FFF75F008E560908900124889E5822F25
:10394000F582E43583F583E0F582758300ED540755
:10395000FF74017E00A807088005C333CE33CED89C
:10396000F9FFEE5583FEEF55824E6006AA058A6187
:1039700080730D80AA90A4E5E06A705074142560ED
:10398000F582E434A0F583E561F075F005E560901B
:103990009795124889E0FFC413540730E00CE561A5
:1039A00020E707EA4480F561803B75F004EA904225
:1039B0004112488912485DE56025E02412F582E451
:1039C0003496F583EEF0A3EFF0AF612290A4E5E02A
:1039D000FF74142560F582E434A0F583EFF0AA07A4
:1039E000EF5480F56190A59EE563F07B011262695A
:1039F000AF6122E4F551748D2551F582E434A2F5CE
:103A000083E07002C1F175F005E551909796124878
:103A100089E0C4131313540130E002C1F17481250D
:103A200051F582E43494F583E054F8F075F005E53F
:103A300051909795124889E0541F90A4E3F075F0D7
:103A400005E551909796124889E01313540390A40A
:103A5000E4F0E55125E02401F582E43492F583E0B9
:103A6000FEA3E0D39400EE94005002C1F1E551753D
:103A7000F00AA42401F9748D35F0FA7B018B56F518
:103A8000578958E55125E02401F582E43492F58305
:103A9000E0F55BA3E0F55C74932551F582E4349A7C
:103AA000F583E0FF90A4D8E4F0A3EFF090000212B9
:103AB00007ABFFAEF01207802FFFE5F03EFE90004F
:103AC000041207AB2FFFEE35F0FE9000061207AB95
:103AD0002FFFEE35F0FE9000081207AB2FFFEE35FA
:103AE000F090A4DAF0A3EFF0120780FFC390A4DBFC
:103AF000E09FFE90A4DAE095F090A4DCF0A3CEF075
:103B00009000061207ABFDACF025E0FFEC33FEEFB2
:103B10002DFDEE3CFC9000041207AB25E0FFE5F024
:103B200033FE9000021207AB2FFFEE35F0CF2DFDD4
:103B3000EF3CFCAB569000081207ABFBAAF0AE02BC
:103B40007802C333CE33CED8F92DFFEC3E90A4DEFD
:103B5000F0A3EFF0E551D394015048E55BC313FEA9
:103B6000E55C13FFC3EB9FEA9E500890951174012A
:103B7000F08030AB56AA57A9589000081207ABFB4B
:103B8000AAF0E55CAE5B7803CEC313CE13D8F9FF81
:103B90007C007D05120703D3EB9FEA9E4005E4906D
:103BA0009511F075F010E551908100124889E09070
:103BB000A4D7F0547FF55275F005E5519097931214
:103BC0004889E090A4E0F074942551F582E4349E95
:103BD000F583E0C394054002C1EB90A4E0E0FFE56B
:103BE000529F400D8F5290A4D7E05480FEF0EF4ECC
:103BF000F0E5529041ED93FF74132551F582E434C2
:103C00009CF583E0C39FE5524005904145800390B9
:103C1000419993F55D90A3FEE0607DE552641360E9
:103C200005E552B40B0590A4008023E552641260B0
:103C300005E552B40A0590A4018013E552641160B1
:103C400005E552B4090590A402800390A3FFE0F5B6
:103C50005EE55EC394805028E55E941B40028013AD
:103C6000E55D255EFFE433FED3EF941BEE648094A4
:103C7000804005755D1B8020E55E255DF55D801843
:103C8000C3E4955EF55EE55DD3955E4008E55D9520
:103C90005EF55D8003E4F55DE55D75F006A424A3A3
:103CA000F9744035F07553FFF554895590A4D7E069
:103CB00090449993FFD390A4D9E09F90A4D8E09426
:103CC000004002C1E49004A9E55CF0C3940AE55BFE
:103CD000940050669004A8E004F0AB56AA57A95887
:103CE0009000061207ABFFAEF09000081207AB2F52
:103CF000FDE5F03EFCE55BC313FEE55C13FFD3ED91
:103D00009FEC9E40047D02C1E6E55CAE5B7802CE8E
:103D1000C313CE13D8F9FDAC06E55BC313FEE55C17
:103D2000132DFFEE3CFEAB56AA57A958120780D3BD
:103D30009FE5F09E5002C1EBC1C5E55125E024127C
:103D4000F582E43496F583E0F559A3E0F55AD3E51E
:103D50005C94E8E55B9403400890A4E27405F0806D
:103D600018D3E55C9419E55B9400400890A4E274D4
:103D700002F08005E490A4E2F0E4F55FAB56AA57A8
:103D8000A95875F002E55FA4F58285F0831207ABB0
:103D9000FFAEF090A4E2E0FDEFA805088005CEC3D9
:103DA00013CE13D8F9FFAB53AA54A955855F82757A
:103DB00083001206A2FD7C00120703EF255AF55A74
:103DC000EE3559F559055FE55FB405B0AB53AA541C
:103DD000A9559000051206A2FD7C0090A4E2E0FF28
:103DE000E55CAE5BA807088005CEC313CE13D8F9F7
:103DF000FF120703D3E55A9FE5599E400CE55A9FF1
:103E0000F55AE5599EF5598005E4F559F55AE551FD
:103E100025E02412F582E43496F583E559F0A3E514
:103E20005AF0AE59FFE4FCFD75F004E552904241B2
:103E3000124889124879C31248404002C1CB74121B
:103E40002551F582E43495F583E0FF74132551F58F
:103E500082E4349CF583E0FED39F4003EE801A7425
:103E6000132551F582E4349CF583E0FF741225514B
:103E7000F582E43495F583E0C39F90A4E1F090A42B
:103E8000E1E0D3940440047494802174942551F5A6
:103E900082E4349CF583E0D394017494400E255160
:103EA000F582E4349CF583E014F0800B2551F58213
:103EB000E4349CF583E4F075F004E552904241123D
:103EC000488912485DE55125E02412F582E43496D4
:103ED000F583EEF0A3EFF074942551F582E4349C61
:103EE000F583E07026AF51114D8020E55225E02486
:103EF00091F582E43443F583D3740193955AE493A6
:103F0000955940077D01AF51128041E4FDAF51D179
:103F1000FD0551E551C39480500221D622D310AF44
:103F200001C3C0D0ED606275F00AEF908D011248B8
:103F300089E4F0A3F075F00AEF908D03124889E44C
:103F4000F0A3F075F00AEF908D05124889E4F0A314
:103F5000F075F00AEF908D07124889E4F0A3F07530
:103F6000F00AEF908D09124889E4F0A3F0EF25E004
:103F70002401F582E43492F583E4F0A3F074932FE6
:103F8000F582E4349AF583E4F075F010EF90810344
:103F9000124889E054BF4480FE75F010EF90810311
:103FA000124889EEF0D0D092AF2274812FF582E4CE
:103FB0003494F583E054F0C4540FFE75F010EF9084
:103FC0008105124889E05403FD75F005EF90979341
:103FD000124889E0FC74142FF582E434A0F583E0E4
:103FE000547FF567D3941B5061E567C3940C405A26
:103FF0000EEE94044034E4FE74132FF582E4349CF6
:10400000F583E0FB74122FF582E43495F583EBF031
:1040100074132FF582E4349CF583E0243CFB749404
:104020002FF582E4349CF583EBF074812FF582E464
:104030003494F583E0540FFBEEC454F04BFE7481CE
:104040002FF582E43494F583EEF0E567D39C4002CB
:104050008C6790A59EEDF0E4FBAD6712626DAF67D3
:10406000228F6074942FF582E4349CF583E4F0751C
:10407000F005EF909797124889E05401FF75F01012
:10408000E560908100124889E0F561547F90A4E7D3
:10409000F075F005E560909794124889E090A4EAE5
:1040A000F075F005E560909793124889E0F990A4C7
:1040B000EBF075F010E560908105124889E054033B
:1040C000F56290A4E7E0FE25E02491F582E4344314
:1040D000F583E493FA740193FBE56025E02412F57F
:1040E00082E43496F583EAF0A3EBF074142560F5CE
:1040F00082E434A0F583EEF074142560F582E43494
:10410000A0F583E0F56390A4E7E0D399400A90A47A
:10411000EBE090A4E7F0F561ED7002411090A4E8A7
:10412000EDF0E56130E70A90A4E7E0F561A3E01463
:10413000F090A4E8E0FE7002411090A4EAE0FD9047
:10414000A4E7E0D39D5002410AE490A4E6F0E563C1
:10415000D3941B5059E563940C4053EF6401704EA7
:10416000E56324F4C39E90A4E9F0FDAF6051B2ABC7
:1041700062AD63AF60511E8F6174812560F582E48A
:104180003494F583E05404FFBF0C0A90A59EE562C9
:10419000F07B01411874812560F582E43494F58345
:1041A000E030E20A90A59EE562F0E4FB411890A49D
:1041B000E7E01490A4E5F090A4EAE0FF90A4E5E025
:1041C000FDC39F406BE0FF131313541FFE75F008EF
:1041D000E560908900124889E5822EF582E43583F6
:1041E000F583E0FB7A00EF5407FF74017E00A80717
:1041F000088005C333CE33CED8F9FFEE5AFEEF5B0D
:104200004E601F8D6190A4E6E004F090A4E8E0FF0A
:1042100090A4E6E06F601990A4EAE0FFE561D39F07
:10422000400E90A4E5E014F0808D90A4EAE0F561E2
:1042300090A59EE562F0E4FB126269AF612290A452
:10424000ECEBF074812FF582E43494F583E054FBB9
:10425000F074142FF582E4349DF583E0FB602F7435
:10426000142FF582E4349EF583E06022AE03AC06A1
:1042700074812FF582E43494F583E054FB4404FD0B
:1042800074812FF582E43494F583EDF08041741449
:104290002FF582E4349DF583E0701074142FF582BD
:1042A000E4349EF583E06003FC802474142FF582CF
:1042B000E4349DF583E0FB601374142FF582E4343D
:1042C0009EF583E07006AE03AC068003AF0522AF17
:1042D0000422AC0774932CF582E4349BF583E0FF51
:1042E0005402C313FEEF5440C4131354036401700B
:1042F0005FED601764016013ED6403600EED64040C
:104300006009ED64096004EDB40A0CED25E02412A7
:10431000F582E434458018ED64026009ED640760BD
:1043200004EDB40829ED25E02411F582E43445F5C7
:1043300083E493FF74142CF582E4349DF583EFF04D
:1043400074142CF582E4349EF583E4F061D4804744
:10435000EE64017069ED601864016014ED6403603F
:104360000FED6404600AED64096005ED640A7027CE
:10437000ED25E02412F582E43445F583E493FF74DF
:10438000142CF582E4349DF583EFF0ED25E0241143
:10439000F582E43445804CED25E02411F582E434C7
:1043A00045F583E493FF74142CF582E4349DF58382
:1043B000EFF0ED25E02412F582E434458025ED256B
:1043C000E02411F582E43445F583E493FF74142C62
:1043D000F582E4349DF583EFF0ED25E02412F582BB
:1043E000E43445F583E493FF74142CF582E4349EA1
:1043F000F583EFF074142CF582E4349DF583E0F935
:1044000074142CF582E4349EF583E0FDE913131354
:10441000541FFF75F008EC908900124889E5822F3F
:10442000F582E43583F583E0FB7A00E95407FF74F5
:10443000017E00A807088005C333CE33CED8F9FF2C
:10444000EE5AFEEF5B4E700A74142CF582E4349D34
:104450008044ED131313541FFF75F008EC9089008E
:10446000124889E5822FF582E43583F583E0FB7AF3
:1044700000ED5407FF74017E00A807088005C333D0
:10448000CE33CED8F9FFEE5AFEEF5B4E700C7414AB
:104490002CF582E4349EF583E4F0228F5275F0050A
:1044A000EF909796124889E013135403FF74132575
:1044B00052F582E4349CF583E0FED39432402C75AF
:1044C000F005E552909793124889E0F55475F00590
:1044D000E552909795124889E0FCC413540720E0F8
:1044E00002A146E5544480F553807BEED3941E40F0
:1044F0002FED1248A784F10084F60184F10284F6BE
:104500000384F10484F60584FB0684FB0700008520
:1045100046755417804D7554108048755408804373
:1045200074132552F582E4349CF583E0D3940A4059
:104530002FED1248A7853100853601853102853679
:1045400003853104853605853B06853B07000085DC
:1045500046755414800D75540C80087554048003FE
:10456000E4F5548554539004A5E553F090A59EEFCF
:10457000F0E4FBAD53AF5212626D74922552F58296
:10458000E43495F583E0B5531074942552F582E434
:10459000349FF583E004F0801B74922552F582E489
:1045A0003495F583E553F074942552F582E4349FF5
:1045B000F583E4F074942552F582E4349FF583E0AA
:1045C000B4021B74132552F582E4349AF583740AFD
:1045D000F074942552F582E4349FF583E4F0229040
:1045E000A4DB12489E120689F5512493F582E43427
:1045F0009BF583E0549CF074932551F582E4349B41
:10460000F583C083C082E0FF90A4DB124895900040
:10461000031206A25401FEEF4ED082D083F07493B1
:104620002551F582E4349BF583C083C082E0FF907E
:10463000A4DB1248959000031206A25402FEEF4E2E
:10464000D082D083F074932551F582E4349BF583B6
:10465000C083C082E0FF90A4DB1248959000031253
:1046600006A25420FEEF4ED082D083F074932551E1
:10467000F582E4349BF583C083C082E0FF90A4DB25
:104680001248959000031206A25440FEEF4ED082CD
:10469000D083F074932551F582E4349BF583E0FFD9
:1046A0005420C4135407FE75F005E55190979512F8
:1046B0004889E0541FFD9004A4EFF0E551C39480B5
:1046C00050169000021206A2FF74132551F582E4E1
:1046D000349CF583EFF0800FE551B4800A9000021E
:1046E0001206A2909712F0EE6004AF51917B22D394
:1046F00010AF01C3C0D090A5F6EFF075F00590970C
:1047000095124889E0541FFF24F75002805BE4F5BE
:104710006890A5F6E0FD75F008908900124889E5DB
:10472000822568F582E43583F583E0FEEF75F007B6
:10473000A42456F582E43440F583E5822568F582A9
:10474000E43583F583E493FCEE5CFE75F008ED90B0
:104750008900124889E5822568F582E43583F5836E
:10476000EEF00568E568B408A8E4FD756906E5693A
:10477000B4061DFF90A5F6E075F008908900124878
:1047800089E5822FF582E43583F583E0540F8019A3
:1047900090A5F6E075F008908900124889E5822519
:1047A00069F582E43583F583E090A5F7F090A5F7ED
:1047B000E0603175680774017E00A868088005C351
:1047C00033CE33CED8F9FF90A5F7E0FBEF5B600B5B
:1047D000E56975F008A42568FD80181568E568C3CB
:1047E000940050D2E569600B1569E569C3940040F7
:1047F00002E14EE4FCF569E569B4061DFF90A5F6FB
:10480000E075F008908900124889E5822FF582E46E
:104810003583F583E0540F801990A5F6E075F00814
:10482000908900124889E5822569F582E43583F58F
:1048300083E090A5F7F090A5F7E0602FE4F56874A9
:10484000017E00A868088005C333CE33CED8F9FFB7
:1048500090A5F7E0FBEF5B600BE56975F008A42518
:1048600068FC800F0568E568B408D40569E56964EB
:1048700007708490A5F6E0FF75F0059097931248B5
:1048800089EDF075F005EF909794124889ECF0757A
:10489000F010EF908100124889E0FF547FF56AEF35
:1048A0005480F56BE56AD39D4007E56B4DF56A8052
:1048B0000BE56AC39C5005E56B4CF56A90A5F6E0E4
:1048C000FF2414F582E4349FF583E56AF075F00562
:1048D000EF909796124889E01313540390A59EF029
:1048E00090A5F6E0FFE4FBAD6A12626D90A5F6E0DC
:1048F00075F010908103124889E4F0D0D092AF2275
:1049000074812FF582E43494F583E054FCF07494C0
:104910002FF582E434A0F583E0FE603774142FF5A0
:1049200082E434A1F583E0602AEE7A00FB90A4E6ED
:10493000EAF0A3EBF074812FF582E43494F583E080
:1049400054FC4402FE74812FF582E43494F583EE26
:10495000F0804874942FF582E434A0F583E0700F62
:1049600074142FF582E434A1F583E06002801C7496
:10497000942FF582E434A0F583E0FE601B74142FBD
:10498000F582E434A1F583E0700EEE7A00FB90A48A
:10499000E6EAF0A3EBF08003AF052290A4E6A3E0E3
:1049A000FF22AC0774932CF582E4349BF583E0FF7F
:1049B0005402C313FEEF5440C41313540364017034
:1049C0004DEDC394004006EDD39403400CEDC39429
:1049D00008402FEDD3940A5029ED25E024F4F58208
:1049E000E43444F583E493FF74942CF582E434A01A
:1049F000F583EFF074142CF582E434A1F583E4F030
:104A0000418DED64056022ED640B7044801BEE6403
:104A1000017064EDC394004006EDD39403400AEDA9
:104A200064086005ED64097027ED25E024F4F58243
:104A3000E43444F583E493FF74942CF582E434A0C9
:104A4000F583EFF0ED25E024F3F582E43444804C67
:104A5000ED25E024F3F582E43444F583E493FF7418
:104A6000942CF582E434A0F583EFF0ED25E024F4F6
:104A7000F582E434448025ED25E024F3F582E43426
:104A800044F583E493FF74942CF582E434A0F58319
:104A9000EFF0ED25E024F4F582E43444F583E4936B
:104AA000FF74142CF582E434A1F583EFF074942C98
:104AB000F582E434A0F583E0F974142CF582E43433
:104AC000A1F583E0FDE9131313541FFF75F008EC03
:104AD000908900124889E5822FF582E43583F583B9
:104AE000E0FB7A00E95407FF74017E00A807088004
:104AF00005C333CE33CED8F9FFEE5AFEEF5B4E70CE
:104B00000A74942CF582E434A08044ED13131354FA
:104B10001FFF75F008EC908900124889E5822FF597
:104B200082E43583F583E0FB7A00ED5407FF7401DE
:104B30007E00A807088005C333CE33CED8F9FFEE38
:104B40005AFEEF5B4E700C74142CF582E434A1F520
:104B500083E4F022120689547FFF9000011206A21E
:104B6000FE541FFDEE5480C4131313540190A4DBB4
:104B7000F09000021206A2FE540390A4DCF0EE5462
:104B800030C4540F90A4DEF09000021206A2FE542E
:104B900040C41313540390A4DDF0EE5480C41313E7
:104BA000135401FE9000021206A25408FC131313C2
:104BB000541F90A4DFF0EE5401C43333335480FE0D
:104BC00075F005EF909796124889E0547F4EF0906B
:104BD000A4DDE05401C4333354C0FE75F005EF90FA
:104BE0009796124889E054BF4EF090A4DFE060022F
:104BF0008199ED600864026004EDB4041075F0055D
:104C0000EF909797124889E04401F0800E75F00507
:104C1000EF909797124889E054FEF0ED541FFE750F
:104C2000F005EF909795124889E054E04EF090A47B
:104C3000DCE05403FE75F005EF909796124889E08A
:104C400054FC4EF0EE25E025E0FE75F005EF909760
:104C500096124889E054F34EF090A4DBE05401C46E
:104C60003354E0FE75F005EF909795124889E054B3
:104C7000DF4EF090A4DEE05403C454F0FE75F0055E
:104C8000EF909796124889E054CF4EF0E4FEEEF58F
:104C900082758300A3A3A31206A2FD75F008EF900E
:104CA0008900124889E5822EF582E43583F583ED8B
:104CB000F00EEEB404D81286CF2290A4D812489EEB
:104CC00090A4D7EFF01248A78D03008D0C018D152D
:104CD000028D1D108D25118D2E128D36148D3F20C5
:104CE0008D48218D51238D59248D62258D6B408DEA
:104CF0007C418D73428D85608D8E618D97628DA014
:104D0000638DA9648DB2658DBA668DC3678DCC68DD
:104D10008DD5698DDE6B8DE76C8DF06D8DF96E0034
:104D2000008E0290A4D812489502A14D90A4D812EA
:104D3000489502A19990A4D8124895C12590A4D86D
:104D4000124895E1B190A4D81248950273DE90A460
:104D5000D8124895C11290A4D812489502A7D390B2
:104D6000A4D812489502A7FE90A4D812489502AA8A
:104D70000F90A4D8124895E19790A4D812489502B4
:104D8000A3D390A4D812489502AA5590A4D812484B
:104D900095613490A4D81248950285BF90A4D8128A
:104DA000489502B71E90A4D8124895026A9190A423
:104DB000D8124895025AF190A4D8124895025FBEC5
:104DC00090A4D8124895025A3790A4D81248950258
:104DD000AA9390A4D8124895E19F90A4D812489520
:104DE00002930B90A4D812489502918990A4D812EE
:104DF00048950292A290A4D81248950293C490A418
:104E0000D812489502AAF590A4D812489502AC1978
:104E100090A4D812489502AC4390A4D812489502A9
:104E2000ACB79001C0E04401F090A4D7E09001C27B
:104E3000F022120689FF90A28CF0BF0107D1D3E4C3
:104E400090A28CF022D310AF01C3C0D08B518A52F4
:104E50008953120689FF90A30DF0BF010C90000149
:104E60001206A264016023801EAB51AA52A953907E
:104E700000011206A26401601190A30EE020E00779
:104E8000E4FF12A5B380031266D4D0D092AF22D330
:104E900010AF01C3C0D090A1F1E0FF90A1F0E0B548
:104EA00007047F0180027F00EF704390A1F0E0FED5
:104EB00075F00890A1A0124889E0FDEE75F008A4F5
:104EC00024A1F974A135F0FA7B01AF05919A90A164
:104ED000F0E004F0E07F00B40A027F01EF6005E437
:104EE00090A1F0F012ACE890A194E04402F0D0D090
:104EF00092AF227B017AA479DB7FF57E011234BC6C
:104F0000BF010690A4DBE0A3F07B017AA479DB7FEC
:104F1000F67E011234BCBF010890A4DBE090A4DD52
:104F2000F07B017AA479DB7FF47E011234BCBF01EF
:104F30000890A4DBE090A4DEF07B017AA479DB7F0B
:104F4000F37E011234BCBF010890A4DBE090A4DF23
:104F5000F07B017AA479DB7FF27E011234BCBF01C1
:104F60000890A4DBE090A4E0F090A4DCE0FFA3E0D4
:104F7000FDA3E0FBA3E090A4E4F090A4E0E090A403
:104F8000E5F090A4E67412F090A4F47405F090A4F7
:104F9000E8EFF0A3EDF0A3EBF090A4E4E090A4EB35
:104FA000F090A4E5E090A4ECF07B017AA479E612FD
:104FB00067DE7F04025F7112068990A321F022123E
:104FC000068990A3FCF09000011206A290A3FDF0C8
:104FD00022900424E0F551120689255190A42BF06B
:104FE0009000011206A2255190A439F090000212FF
:104FF00006A2255190A447F02290A3EDE0FEC31332
:1050000030E01CEFB4010590A3F4800390A3F012EC
:10501000485190AAB912086D7F807E081238A422E8
:1050200090A5157408F090A5237401F090A517EFD2
:10503000F07B017AA579150267DE90A55C7409F012
:1050400090A56A7407F090A55EEFF0703190A3D63A
:10505000E0601AA3E06002800C900770E070069098
:105060000774E0600890A55F7401F08005E490A5E6
:105070005FF0E490A560F0A3F0A3F0A3803990FD69
:1050800062E090A55FF090FD63E090A560F090FD78
:1050900064E090A561F090FD65E090A562F090FD60
:1050A00066E090A563F090FD67E090A564F090A5A0
:1050B0005FE0540190A3D6F0A3F07B017AA5795C60
:1050C0000267DE90A3E3E0FFC31330E004EF54FD7A
:1050D000F090A3E3E0FF131313541F30E010EF54DC
:1050E000F7F090FD58E030E005E4FF124EE790A3A2
:1050F000E3E0FFC413540730E004EF54DFF090A363
:10510000E3E0FFC4131313540130E02BEF547FF09E
:1051100090FD58E020E00890A5057401F08005E4BA
:1051200090A505F090A505E0FD90A3E8E0FBE4FF65
:1051300051437F04124EEC90A3E4E0FFC31330E030
:1051400004EF54FDF090FD58E020E05C90A3E3E014
:1051500030E0087B017AA47906610B90A3E3E0FFBD
:10516000C4540F30E0097B017AA379E6025A3790E4
:10517000A3E3E0FFC41313540330E0087B017AA3D8
:1051800079E8802590A3E3E0FF1313543F30E00952
:105190007B017AA379E5025AF190A3E4E030E008BC
:1051A0007B017AA379E751A222D310AF01C3C0D00B
:1051B00090A58912489E12068990A58CF090000156
:1051C0001206A290A58DF09000021206A290A58E64
:1051D000F09000031206A290A58FF0900004120632
:1051E000A290A590F0E4A3F0A3F090A3E3E04440E4
:1051F000F07B017AA5798C7D077F301258DF8F71A3
:10520000E571B4011F90A3E3E054BFF04480F0E4E3
:1052100090A5A5F0A3740AF0E4FBFD7F687E01125F
:105220005ABF803AE571B4021A90A5891248958B4D
:10523000408A4189427543057B017AA379E812359A
:1052400085801BE571B4041690A3E3E054BFF09091
:10525000A58CE0FBE4FDFF51437F04125F71D0D0C9
:1052600092AF2290A56B740BF090A5797407F09023
:10527000A56DEFF0603290FD63E090A56EF090FDBB
:1052800061E090A56FF090FD64E090A570F090FD56
:1052900065E090A571F090FD66E090A572F090FD3C
:1052A00067E090A573F0801190A56EEDF0A3EBF090
:1052B000E4A3F0A3F0A3F0A3F07B017AA5796B023D
:1052C00067DED310AF01C3C0D090A5C212489E9034
:1052D000A3E4E04401F07D017F281258DF90A5C5CA
:1052E000EFF0BF011F90A3E4E054FEF04402F0E4AD
:1052F00090A5A5F0A3740AF0E4FBFD7F687E01127F
:105300005ABF802290A5C5E0FFB4020F90A5C2123B
:10531000489512068990A3E7F0800BEFB40407903C
:10532000A3E4E054FEF0D0D092AF2290A5BE124884
:105330009E90A5BE12489512068990A406F0900092
:10534000011206A290A407F09000021206A290A4F7
:1053500008F090A3E3E04401F090A5BE1248951236
:1053600058DB90A5C1EFF0BF011D90A3E3E054FE10
:10537000F04402F0E490A5A5F0A3740AF0E4FBFD6C
:105380007F687E01025ABF90A5C1E0B4040790A3D4
:10539000E3E054FEF02290A4DB740AF090A4E974D8
:1053A00006F012068990A4DDF09000011206A2908A
:1053B000A4DEF09000021206A290A4DFF090000399
:1053C0001206A290A4E0F09000041206A290A4E1BC
:1053D000F09000051206A290A4E2F07B017AA47975
:1053E000DB0267DE120689F5519000011206A2F574
:1053F000549000021206A2F5559000031206A2F581
:10540000569000041206A2F5579000051206A2F568
:10541000589000061206A2F559E5511248A79417B4
:1054200000941F01942702942F03943704943F059E
:105430009447060000945E755202755329804575A5
:10544000520675532A803D7552017553318035756A
:105450005201755332802D75520675533380257B6A
:10546000007A007954617690A3FEE554F0A3E555E7
:10547000F0A3E556F0A3E557F0A3E558F0227552E6
:10548000017553FF7B007A007954AD52AF53025837
:10549000DFD310AF01C3C0D090A57A7415F090A5EA
:1054A000887401F090A57CEFF07B017AA5797A12DF
:1054B00067DED0D092AF2290A19EE0FF7B087D01F5
:1054C000B18890A509EEF0FCA3EFF0FD90A506E0F1
:1054D000FFA3E0FBA3E090A510F090A50DECF0A3D6
:1054E000EDF0A3EBF090A50DE0FCA3E0FD1256D784
:1054F00090A50DA3E0FFFD240DF582E434FCF583B7
:10550000E04480F0740D2DF582E434FCF583E05422
:10551000EFF074122FF582E434FCF583E04402F0DE
:1055200074122FF582E434FCF583E05403F090A567
:105530000FE0FF90A50DA3E0FE242AF582E434FCE1
:10554000F583EFF090A510E0FF742B2EF582E43484
:10555000FCF583EFF0742C2EF582E434FCF583E047
:105560002402F02290A506EFF0A3EDF0A3EBF0905B
:10557000041DE06020900522E090A50BF07D011253
:1055800057EEEF64017002919790A50BE0FF7D024A
:105590001253BA8002919790041F7420F02290A5B4
:1055A000A7A3E0FF7B087D01D310AF01C3C0D0905B
:1055B000A5EEEDF0A3EBF090A5EDEFF0E4FDFCF12E
:1055C000967C00AD0790A5EDE0900425F090A5EE47
:1055D000E0600E74212FF582E434FCF583E0448012
:1055E000F0AF0574202FF582E434FCF583E054C05D
:1055F000F074212FF582E434FCF583E054C0F0AF61
:105600000574122FF582E434FCF583E05401FE901A
:10561000A5EFE025E025E0FBEE44024BFE74122FDF
:10562000F582E434FCF583EEF074112FF582E43456
:10563000FCF58374FFF074292FF582E434FCF583C4
:10564000E054F7F0AE04AF05D0D092AF22D310AF44
:1056500001C3C0D090A508EEF0A3EFF090041DE0C8
:10566000601E900522E090A50CF07D361257EEBF2B
:105670000102D17990A50CE0FF7D371253BA800268
:10568000D179900522E0546FFF7D381253BA90040F
:105690001F7420F0D0D092AF2290A19FE0FFE4FBD6
:1056A0007D01B18890A50AEEF0A3EFF090A508E087
:1056B000FCA3E0FDAB0790A50DEDF0ECF9E0FFAE2B
:1056C00003742A2EF582E434FCF583EFF0742B2E5C
:1056D000F582E434FCF583E9F022D310AF01C3C0B6
:1056E000D090A5DAEFF090041DE06033900522E041
:1056F00090A5DDF07D291257EEBF011790A19DB155
:105700008290A5DBEEF0FCA3EFF0FD90A5DAE0FFC0
:105710001256D790A5DDE0FF7D2A1253BA8017906C
:10572000A19DB18290A5DBEEF0FCA3EFF0FD90A56A
:10573000DAE0FF1256D790041F7420F0D0D092AF59
:105740002290A505EFF0A3EDF0A3EBF090A409E003
:10575000131313541F20E00E90A506E0B401077D3B
:10576000367F6F1253BA90A505E0700C90A507E044
:10577000FF7D051253D0802690A505E0B401099065
:10578000A507E0FFD1BA801690A505E0B4020FA3EB
:10579000E0B4010A90A417E0FEA3E0FFD12D90A48D
:1057A00009E0131313541F20E00B90A506E07005C9
:1057B000FDFF1253BA2290FD10EFF07F002290A35C
:1057C000BBE0C4540F20E01F90041DE0701990A1AD
:1057D0009BE0FF7B18E4FDB18890A604EEF0A3EFF8
:1057E000F090041F7420F02290A3BBE0FFC313309D
:1057F000E02FEF131313541F20E02690A3C0E0C442
:10580000540F30E0079007787403F02290A3BBE0B8
:105810001313543F90077830E004740DF02274099C
:10582000F02290A3C1E0C41313540320E00241739B
:1058300090A3C5E064017038900692E020E20690E3
:1058400004E3E060209006927404F090A3D2E00498
:10585000F090A3C9E075F00384FF90A3D2E0B507F0
:105860000280024158E490A3C5F090A3D004F02236
:1058700090A3C5E064047035900692E020E20690A3
:1058800004E3E0601C9006927404F090A3D2E0045C
:10589000F090A3C8E0FF90A3D2E0B50702800241D8
:1058A00058E490A3C5F090A3D07404F02290A3C54F
:1058B000E06406600221B990A3D3E0FF90A3D2E098
:1058C0002FFFE433FE7C007D0312070390A3C9E0A1
:1058D0002FFFEC3EFEC3EF9441EE648094805008AD
:1058E00090A3D3E09403401190A3C0E0C4540F9060
:1058F000A3D020E002215B410190A3C4E0FF131379
:10590000543F30E07AEF54FBF0E4A3F090A3C0E002
:10591000C4540F30E00E90A3E2E030E00221E790A3
:10592000A3D0410190A3D3E0FF90A3D2E02FFFE4E6
:1059300033FE7C007D0312070390A3C9E02FFFEC28
:105940003EFEC3EF9441EE64809480400E90A3E24B
:10595000E030E00221E790A3D0410190A3E2E030E3
:10596000E01690A3C57409F09006927404F0E490D8
:10597000A3D2F090A5DF410D90A3D07402F02212C3
:1059800053C590A3D3E004F07F03125FC890A3D364
:10599000E0FF90A3D2E02FFFE433FE7C007D0312F2
:1059A000070390A3C9E02FFFEC3EFEC3EF9441EE46
:1059B00064809480500A90A3D3E094035002417312
:1059C0009007787403F0900522E04410FF7D0312E5
:1059D00053BA90049CE004F02290A3C5E0640770E1
:1059E0004F90A3D3E0B4040590A3D0803490A3C417
:1059F000E0FF1313543F30E02CEF54FBF0E4A3F02E
:105A000090A3E2E030E01790A3C57409F0900692ED
:105A10007404F0E490A3D2F090A5DF04800F90A36B
:105A2000D07405F0221253C590A3D3E004F080484F
:105A300090A3C5E06409705B90A3C4E030E00E90D1
:105A4000A3D07405F090A3C4E054FEF02290069217
:105A5000E030E2297404F090A3D2E004F0E0B40254
:105A60001790A5DFE090A3D060057405F080037463
:105A700002F0E490A3C5F0227F03025FC890A5DF87
:105A8000E090A3D060057405F080037402F0E49008
:105A9000A3C5F02290A3BDE030E035110290A3D061
:105AA000E0FFB40102801C90A3D0E0FFB4020280AA
:105AB0001C90A3D0E0FFB40302810490A3D0E0FFC8
:105AC000B40402800C90A3D0E0FFB4050312546527
:105AD0002290A505EFF07F03125FC890A3C0E0C439
