:10000000015310000F00110008272106FA770000A5
:100010007A0A00000000000000000000000000005C
:1000200002495D0268260000000000000000000098
:10003000000000025936000000000000000000002F
:100040000000000278310000000000000000000005
:1000500000000000000000000000000000000000A0
:1000600000000002685700000000000268AF0000B6
:100070000000000277DE15F0FF0F00000015F00F02
:100080000000000005F0FF0F00000005F00F000069
:10009000000010F0FF0F00000010F00F0000000043
:1000A000F50F0000000000F00F00000000000D0040
:1000B000000000000010F0FFFF00000010F03F0003
:1000C00000000015F03F0000000015F0CFFF000019
:1000D000000A0803030004090703030004080603D9
:1000E0000200040805030100040D0A070500080CBE
:1000F0000A070400080B0A060500080B0A0503009E
:10010000080B0A0302000814120C04001014120950
:1001100004001024221C1200202422180C00202489
:10012000221406002024220F04002024210A0400A7
:100130002023210C040020231F0A040020221F0F6B
:10014000040020211F160C0020312F201400303114
:100150002F18100030312C180C0030312A140C00EC
:1001600030312814000030312414000030311E14C6
:1001700000003004040405040405070707080A0406
:10018000070A0E1113141503040707080B0D0F05BA
:10019000050707080B0D0F05050707080B0D0F07CF
:1001A00008080A0A0C0E1011110709090B0B0D0F94
:1001B00011111205050707080B0D0F0F0F05050795
:1001C00007080B0D0F0F0F04040405070709090C9E
:1001D0000E10120506070D10111212070809090C5E
:1001E0000E1113090909090C0E1113090909090C4B
:1001F0000E1113050608090C0E1212131407080A33
:100200000B0D1011111416090909090C0E11131305
:1002100013090909090C0E11131313000000000043
:100220000000000024262A0000001F2125272800A6
:100230000000002326282A000000002326282A0088
:100240000000002326282A00000000202527292955
:100250002A0000000020252729292A000000002369
:1002600026282A2A2A0000001F2326282A2A2A00B4
:10027000000004000000040000000800000010005E
:1002800000001800000024000000300000004800BA
:1002900000006000000090000000C0000000D800D6
:1002A00000003C0000006400000078000000A00096
:1002B0000000F00000014000000190000001E0009B
:1002C0000000A0000000F0000001400000019000CC
:1002D00000025800000320000004B00000064000A7
:1002E0000000C800000118000001E0000002D0007A
:1002F0000003E8000004B000000640000007D00042
:100300000000C800000118000001E0000002D00059
:100310000003E8000004B000000640000007D00021
:1003200000003C0000006400000078000000A00015
:100330000000F00000014000000190000001E0001A
:1003400000025800000320000000C800000118004F
:100350000001E0000002D0000003E8000007D00028
:10036000000BB8000013880000177000001F400049
:100370000000C800000118000001E0000002D000E9
:100380000003E8000004B000000640000007D000B1
:100390000007D0000007D0000000C80000011800CE
:1003A0000001E0000002D0000003E8000004B000FB
:1003B000000640000007D0000007D0000007D00072
:1003C00002000200040008000C00120018002400C3
:1003D0003000480060006C00140032003C00500007
:1003E0007800A000C800F00050007800A000C8010C
:1003F0002C0190025803200064008C00F001680179
:10040000F40258032003E80064008C00F001680146
:10041000F40258032003E8001E0032003C005000A4
:100420007800A000C800F0012C01900064008C004E
:10043000F0016801F403E805DC09C40BB80FA00063
:1004400064008C00F0016801F40258032003E80303
:10045000E803E80064008C00F0016801F40258032E
:100460002003E803E803E8020406080A0C10182039
:10047000304050010101020102030304040505029A
:100480000406070708080802020303050506060517
:100490000606070708090A050606070708090A01EC
:1004A000030607070708080A0A02050607070708E0
:1004B000080A0B050606070708090A0A0B050606BF
:1004C000070708090A0A0B010101010102030405DB
:1004D00006070801020304050607080204060708C8
:1004E0000A0B0C03050607080A0B0C05060708098A
:1004F0000A0B0C0204060708090B0C0C0C0305067A
:100500000708090B0C0C0C05060708090A0B0C0C54
:100510000C05060708090A0B0C0C0C19060402004E
:1005200018000000000000000000000000000000B3
:1005300000000000000000000000000000000000BB
:1005400000000000000000000000000000000000AB
:10055000000000000000000000000000000000009B
:10056000000000000000000000000000000000008B
:10057000000000000000000000000000000000007B
:10058000000000000000000000000000000000006B
:10059000000000000000000000000000000000005B
:1005A000000000000000000000000000000000004B
:1005B000000000000000000000000000000000003B
:1005C000000000000000000000000000000000002B
:1005D000000000000000000000000000000000001B
:1005E000000000000000000000000000000000000B
:1005F00000000000000000000000000000000000FB
:1006000000000000000000000000000000000000EA
:1006100000000000000000000000000000000000DA
:10062000C2AF80FE3212460485D00B75D008AAE016
:10063000C28CE58A2467F58AE58C3479F58CD28CF6
:10064000EC2487F8E6BC020274FFC39581B4400035
:1006500040CE7903788016E608700BC2AFE630E131
:10066000034418F6D2AF08D9EDEA8BD022E50CFF8F
:10067000232481F80F0808BF03047F007881E63047
:10068000E4F200E50CC39F5020050C7486250CF89D
:10069000E6FDA68108E6AE0CBE020274FFCDF8E8C6
:1006A0006D60E008E6C0E080F6E50CD39F4027E5EA
:1006B0000C2487F8E6AE0CBE020274FFFD18E6CDEE
:1006C000F8E5816D6006D0E0F61880F5E50C24862B
:1006D000C8F6150C80D3E50C232481F87F04C2AF43
:1006E000E630E00310E20C7F0030E10730E3047FE6
:1006F0000854F4547CC6D2AF54804207227886A6B0
:100700008174026006FF0876FFDFFB7F03E47880D8
:10071000F608F608DFFA78817630904A0174019382
:10072000C0E0E493C0E0438901758A60758C79D29A
:100730008CD2AF2202EFD3940240037FFF22748158
:100740002F2FF8E620E5F4C2AFE64430F6D2AFAE84
:100750000CEEC39F50210E74862EF8E6F908E618B9
:10076000BE020274FFFDED69600909E71919F70976
:100770000980F3161680DAEED39F400405810581C7
:10078000EED39F402274862EF808E6F9EEB50C02EF
:10079000A981180606E6FDED6960091919E709093E
:1007A000F71980F31E80D9EF2486F8E604F8EF2FBE
:1007B00004904A0193F608EF2F93F67F0022EFD3BF
:1007C000940240037FFF22EF232481F8E630E5F412
:1007D000C2AFE6548CF6D2AFE50CB5070A74862F8B
:1007E000F8E6F58102464D502E74872FF8E6BF02D9
:1007F0000274FFFD18E6F974862FF8FBE6FCE96C3D
:100800006008A805E7F61D1980F4A803A6051FE5F2
:100810000CB507E37F002274872FF8E6FD188601E8
:100820000F74862FF8A601088604E50CB50702AC04
:1008300081ED6C60080D09A805E6F780F4E50CB5BC
:1008400007DE89817F0022EFD3940240037FFF22DD
:10085000EF232481F8C2AFE630E50530E002D2E4B0
:10086000D2E2C6D2AF7F0030E2010F02464C8FF0D9
:10087000E4FFFEE50C232480F8C2A930F70D7F08C1
:10088000E6600B2DF66030502E800730F106EDF655
:1008900060257E020830F010C2AFE610E7230E306C
:1008A000E20CD2AF7F048012C2AFE610E71354EC23
:1008B0004EF6D2AF02464D7F0808EF4483F4C2AF34
:1008C00056C6D2AF54804FFF22EF2BFFEE3AFEED1B
:1008D00039FDEC38FC22EF5BFFEE5AFEED59FDECE2
:1008E00058FC22EF4BFFEE4AFEED49FDEC48FC229E
:1008F000EB9FF5F0EA9E42F0E99D42F0E89C45F05E
:1009000022E0FCA3E0FDA3E0FEA3E0FF22E493FCD1
:10091000740193FD740293FE740393FF22E0F8A325
:10092000E0F9A3E0FAA3E0FB22E493F8740193F961
:10093000740293FA740393FB22A42582F582E5F0F6
:100940003583F58322E0FBA3E0FAA3E0F922EBF084
:10095000A3EAF0A3E9F022D083D082F8E4937012E6
:10096000740193700DA3A393F8740193F5828883A7
:10097000E4737402936860EFA3A3A380DF02499B32
:100980000246DDE493A3F8E493A34003F68001F26A
:1009900008DFF48029E493A3F85407240CC8C33378
:1009A000C4540F4420C8834004F456800146F6DF47
:1009B000E4800B01020408102040809049E0E47EAE
:1009C000019360BCA3FF543F30E509541FFEE4933C
:1009D000A360010ECF54C025E060A840B8E493A303
:1009E000FAE493A3F8E493A3C8C582C8CAC583CA2E
:1009F000F0A3C8C582C8CAC583CADFE9DEE780BEE6
:100A00000041A2FC0041A2FD0041A2FE0041A30260
:100A10000041A3030041A3040041A31E0041A322FF
:100A2000004D36603051977F029199EF4401FD7F70
:100A300002511D7F029199EF54FEFD7F02D310AF4A
:100A400001C3C0D08F82758300EDF07F107E00124D
:100A50003E50D0D092AF22D310AF01C3C0D07F8F11
:100A60009199EF20E60261D290008CE090A2F8F01C
:100A70007F8D919990A2F9EFF090008EE090A2FA0C
:100A8000F090A2F9E024FE601514601B146021248C
:100A900003600261C490A2F8E0FFD1F561C490A2A6
:100AA000F8E0FFB19E61C490A2F8E0FFD16361C499
:100AB00090A2F8E02416F582E43499F583E0FBE493
:100AC000FDFF71E790A2F8E075F004909599311957
:100AD000E013135403FB0DE4FF71E790A2F8E075F7
:100AE000F0049095993119E0C41313135401FB0DD0
:100AF000E4FF71E790A2F8E075F004909599311940
:100B0000E0C45403FB0DE4FF71E790A2F8E075F038
:100B1000049095963119E0FBE4FD0F71E790A2F87F
:100B2000E075F0049095973119E0FB0D71E790A204
:100B3000F8E075F0049095983119E0C4135401FB66
:100B40000D7F0171E790A2F8E075F004909598315F
:100B500019E0541FFB0D71E790A2F8E075F00890C2
:100B600089003119E0FBE4FD0F71E790A2F8E07510
:100B7000F0089089013119E0FB0D71E790A2F8E0CF
:100B800075F0089089023119E0FB0D71E790A2F829
:100B9000E075F0089089033119E0FB0D71E790A230
:100BA000F8E075F0089089043119E0FBE4FD0F715D
:100BB000E790A2F8E075F0089089053119E0FB0D87
:100BC00071E790A2F8E075F0089089063119E0FB12
:100BD0000D71E790A2F8E075F0089089073119E0EF
:100BE000FB0D71E77F8F9199EF30E006E4FD7F8D7B
:100BF000511DD0D092AF22F583E5822DF582E435E8
:100C000083F583E0FBE4FFEF700474F08016EFB42B
:100C1000010474F4800EEFB4020474F88006EFB49B
:100C2000030C74FC2DF582E43402F583EBF022F022
:100C300090052274FFF0D310AF01C3C0D01282041C
:100C4000511351075107900100743FF0A3E054FD88
:100C5000F0900553E04420F090A0FBE0FF13131345
:100C6000541F30E0069007787401F0EFC31330E0B2
:100C70003790A145E0600890A3107401F08005E46E
:100C800090A310F090A0FBE0C413540730E007E4F9
:100C900090A311F0800690A3117402F090A310129B
:100CA0006FEA9007787401F090A0FAE06002E4F037
:100CB000D0D092AF22EFF07F8FD310AF01C3C0D05E
:100CC0008F82758300E090A31AF07F107E00123EA1
:100CD0005090A31AE0FFD0D092AF227F8A9199EF73
:100CE00004FD7F8A511D7F017E00123DC27FF69177
:100CF00099EF54FC4401FD7FF6511D7D127F3A515E
:100D00001D7FC19199EF20E60C7F059199EF4480FA
:100D1000FD7F05511D227F549199E50D5FF5117FEF
:100D2000559199E50E5FF5127F569199E50F5FF5A4
:100D3000137F579199E5105FF514AD117F54511D44
:100D4000AD127F55511DAD137F56511DAD147F5708
:100D5000511D5391EF227F819199EF54FEFD7F81C8
:100D6000511D7F809199EF4480FD7F80511D128F2E
:100D70009C123E11128FA91290637F0112471590A9
:100D8000A1527402F0FF12471590A152E004F01234
:100D9000581112759F7F809199EF4440FD7F8051DB
:100DA0001D7528FF126029128FEA7F819199EF4407
:100DB00004FD7F81511D12906FE4FF02479E90A3B6
:100DC000189195EF30E6547F8D9199EF6402704B46
:100DD00090A319F090A319E0FD90A318E075F00816
:100DE000A42400F582E4348071D790A319E004F0C4
:100DF000E0C3940840DE90A319E0FDC39410500DA9
:100E0000E4FBFF71E790A319E004F080E97F8F9184
:100E100099EF30E006E4FD7F8D511D227F8F91997F
:100E2000EF30E65E7F8D9199EF640370557F8F916F
:100E300099EF7F00FEC007C0067F8E9199EFFDD02D
:100E4000E0FFD0E04D90A202CFF0A3EFF0E490A23B
:100E500001F090A201E0FDFF90A203E02FFF90A21D
:100E600002E034008F8271E190A201E004F0E0C35F
:100E7000941040DE7F8F9199EF30E006E4FD7F8D86
:100E8000511D2290A2019195EF30E63C7F8D919902
:100E9000EF6403703390A202F090A202E0FD90A2F2
:100EA00001E0C454F02480F582E4348071D790A22C
:100EB00002E004F0E0C3941040DF7F8F9199EF309F
:100EC000E006E4FD7F8D511D22900765E04418F097
:100ED00090A0A0E0FD7F93511D90A097E06012903C
:100EE000012FE030E7057410F0800690012F749018
:100EF000F07F089199EF4410FD7F08511D7F01128A
:100F000097DC7F909199EF4401FD7F90511D7F14F4
:100F10007E00023E50D310AF01C3C0D090A3169103
:100F200095EF30E63A7F8D9199EF6401703190A38F
:100F300017F090A317E0FD90A316E075F0109081D4
:100F400000311971D990A317E004F0E0C394104068
:100F5000E17F8F9199EF30E006E4FD7F8D511DD048
:100F6000D092AF227F8F9199EF30E52C7F8E9199AF
:100F7000EF640570237F8F919990008EE0FE7400DE
:100F80002FF582E43481F583EEF07F8F9199EF3075
:100F9000E006E4FD7F8E511D2290A208312E7F884D
:100FA0009199EF543FFD7F88511D90A20831257D16
:100FB000067F0A12522BEF640160097F889199EF36
:100FC0004440802190A20831259000011206A2FE23
:100FD0001206897C002400FFEC3EFE12797D7F889A
:100FE0009199EF4480FD7F88411DF144B1FC513758
:100FF000D310AF01C3C0D0E4FF90A2BEF09001C7F0
:10100000E064AD7036F090A2CB740FF090A2BD7486
:101010000AF0A3E004F090A2BEE02FFE74BF2FF50B
:1010200082E434A2F583EEF00FEFB40FE990013FB4
:101030007404F07B017AA279BD1120D0D092AF2246
:10104000D310AF01C3C0D090A2F412492E7F967E78
:101050000211E6EF6059900117E0FE900116E07C66
:10106000002400FFEC3EFEEF2401FFE43EFE90A2D0
:10107000F7EFF0EEFF90FD11F090A2F7E0FD900287
:1010800094F0A3EFF090A2F412492590000E1206FE
:10109000A22402FFE433FE313C90A2F7E02418FFC3
:1010A00090A2F4124925128E689002967401F0D035
:1010B000D092AF22D310AF01C3C0D0E4FF90A009FB
:1010C000E0FE90A008E0FDB506047E0180027E00EF
:1010D000EE6401602CED75F00FA42472F9749F3555
:1010E000F0FA7B0111207F01EF601690A008E00468
:1010F000F0E0B40A0280027F00EF6005E490A008EF
:10110000F0D0D092AF22D310AF01C3C0D090A2ECE8
:10111000EEF0A3EFF0E4A3F0A3F090A2ECE0FEA3C6
:10112000E0F5828E83E0602DC390A2EFE094E8901A
:10113000A2EEE09403400B9001C0E04480F07F00F9
:10114000801590A2EEE475F0011208D67F0A7E00A9
:10115000123E5080C57F01D0D092AF22E4FCED2C2E
:101160002400F582E434FBF583E4F00CECB418EED3
:1011700074002DF582E434FBF583EFF0EE543FFF6D
:1011800074012DF582E434FBF583EFF074022DF544
:1011900082E434FBF583E054F0F074032DF582E42F
:1011A00034FBF583E04480F0740B2DF582E434FBCE
:1011B000F583E04410F022E4FBFAFD7F0112484E73
:1011C00090A204EFF060F0909F16E060EAC2AF30AA
:1011D000E01154FEF0E4FF125AF812A53690A17205
:1011E000E004F0D2AFC2AF909F16E0FF30E10C54A4
:1011F000FDF090A174E004F0127DB1D2AFC2AF90C7
:101200009F16E0FF30E20554FBF01194D2AFC2AF5D
:10121000909F16E0FF30E60554BFF05101D2AF8039
:10122000A6E47B017AA1794F5127EFB4021890A26E
:10123000FCE06404600B7F40B1DC90A2FCE004F0B1
:1012400022E490A2FCF0227D037F11D310AF01C3F2
:10125000C0D090A2E2EFF0A3EDF0A312492E7FA33D
:10126000124C99EF54F84405FD7FA3124A1D7FA04C
:10127000124C99EF540F6404702290FD58E020E066
:101280001390A2E2E0FFA3E0FDA3124925128C0215
:101290007F01800E7F0151877F0280067F02518788
:1012A0007F03D0D092AF22912C7F048F6C7F0212EB
:1012B0004827909F16E0456CF02290FD68E0FF9073
:1012C000FD60E090A247F0EF20E002812B90A2FEAB
:1012D000E0701A7F2E124C9990A141EFF07F2D12F1
:1012E0004C9990A142EFF090A2FE7401F090A247B9
:1012F000E06415706E90FD62E0FF30E61CF4543F30
:1013000004FE90A141E01313543FC39E90A246F007
:10131000D3943F401DE4F0801990A141E013135491
:101320003FFEEF543F2E90A246F0D3943F4003740B
:101330003FF090A246E0FF5430C4540FFEEF25E08A
:1013400025E04E90A244F0E0FD7F2E124A1D90A2AF
:1013500046E0C454F0FF90A142E0540F4FFD7F2DB2
:10136000124A1D90A247E0B4210B90FD62E0FFD12C
:10137000D27F04518B90A247E0B423087F019151A2
:101380007F04518B90A247E0B4270AD1EB7F0291F2
:10139000517F04518B90A247E0B4300BE4FBFD7FFA
:1013A00001D16D7F04518B90A247E0643470459069
:1013B000FD62E090076530E026E04418F090A2441A
:1013C0007401F0FB7AA27944FD7F34512B90A14C3B
:1013D000E04401F090049DE4F0E04401F08015E069
:1013E00054E7F090A14CE054FEF0E4A3F090049D8B
:1013F000E054FEF090A247E0FDB4350790A10DE067
:101400004401F0EDB4362290FD61E090A244F090EA
:10141000FD62E090A245F090A247E0FF90A244E078
:10142000FD7B017AA27945512B90A247E0B440148C
:1014300090FD62E030E00890A1287401F08005E49E
:1014400090A128F090FD68E04401F022D310AF0194
:10145000C3C0D090A2AE7415F090A2BC7401F090FD
:10146000A2B0EFF07B017AA279AE91D7D0D092AF43
:101470002290A2907409F090A29E7407F090A2921C
:10148000EFF0703190A11EE0601AA3E06002800CC2
:10149000900770E07006900774E0600890A2937463
:1014A00001F08005E490A293F0E490A294F0A3F000
:1014B000A3F0A3803990FD62E090A293F090FD63C9
:1014C000E090A294F090FD64E090A295F090FD650C
:1014D000E090A296F090FD66E090A297F090FD67F4
:1014E000E090A298F090A293E0540190A11EF0A386
:1014F000F07B017AA27990D310AF01C3C0D090A045
:1015000008E0FF7006A3E06409600AEF14FF90A0F2
:1015100009E0B507047F0180027F00EF60099001B8
:10152000C1E04402F08035C00190A009E075F00FE1
:10153000A42472F9749F35F0A801FC7D01D0017ECE
:10154000007F0F12066390A009E004F0E07F00B472
:101550000A027F01EF6005E490A009F0D0D092AFBD
:101560002290A12CE04404F07D017F23512BEFB4A5
:101570000308E4FF91517F04B1DC2290A226EFF032
:1015800090047EE0F560A3E0F5616560606D90A277
:10159000277403F090A2357408F0E56104540FF548
:1015A00062E4F55FE56275F008A42400F582E43496
:1015B00080F583E582255FF582E43583F583E0FFDE
:1015C0007429255FF582E434A2F583EFF0055FE529
:1015D0005FB408D07B017AA2792791D7E5610454E2
:1015E0000FF561B40F03E4F56190047FE561F090BD
:1015F000A226E07F047002418BB1DC2290A31BEF96
:10160000F07F02124827909F16E0FF90A31BE0FE98
:10161000EF4E909F16F022D310AF01C3C0D0120638
:101620008990A208F09000011206A290A209F09001
:1016300000021206A290A20AF09000031206A290E5
:10164000A20BF09000041206A290A20CF0E4A3F00A
:10165000A3F090A12CE04440F07B017AA279087DB0
:10166000077F30512BEFB4010890A20F7401F08076
:1016700005E490A20FF090A20FE0FD90A208E0FB1D
:10168000E4FFD16D7F04B1DCD0D092AF2290A29F55
:10169000740BF090A2AD7407F090A2A1EFF060324D
:1016A00090FD63E090A2A2F090FD61E090A2A3F013
:1016B00090FD64E090A2A4F090FD65E090A2A5F0FA
:1016C00090FD66E090A2A6F090FD67E090A2A7F0E2
:1016D000801190A2A2EDF0A3EBF0E4A3F0A3F0A39D
:1016E000F0A3F07B017AA2799F81D7128CDA7F0276
:1016F000418B90A2487408F090A2567401F090A219
:101700004AEFF07B017AA2794881D790A109E0C421
:101710001313540320E01E90FD65E030E517E090C0
:10172000A24830E6057401F080037402F090A248EC
:10173000E0FF1288532290A2137412F090A2217439
:1017400005F090A215EFF0A3EDF0A3EBF090A2113D
:10175000E090A218F090A212E090A219F07B017A1A
:10176000A2791391D77F04A1DC90A20812492E9090
:10177000A20812492512068990A14FF0900001128B
:1017800006A290A150F09000021206A290A151F082
:1017900090A12CE04401F090A2081249255127EFB6
:1017A000B402047F40B1DC2290A259EBF0705D904E
:1017B000A259E0FE2416F582E43498F583E0FC900B
:1017C000A25AE0FBEC6B604490A25EEBF0A3EEF05B
:1017D000AE05EE25E04FA3F090A25BE090A262F090
:1017E00090A25C740CF090A26A7404F07B017AA25F
:1017F000795C91D77F04B1DC90A25AE0FF90A259A6
:10180000E02416F582E43498F583EFF022E4FFA19A
:101810005B7D017F17412B7FF4124C99EF20E50E81
:101820007FF4124C99EF7F0120E4057F02227F03B1
:10183000221257F7909F1AEFF0112B900164740158
:10184000F0900423E04480F0023799119A11CA11F4
:10185000591178E4F50DF50EF50F751080AD0D7F7B
:1018600050124A1DAD0E7F51124A1DAD0F7F52120C
:101870004A1DAD107F53024A1D751512E4F5167509
:101880001707751832900130E515F0A3E516F0A39F
:10189000E517F0A3E518F022751D06751E01751FEA
:1018A00003752062432080900138E51DF0A3E51EFA
:1018B000F0A3E51FF0A3E520F022900130E4F0A3AF
:1018C000F0A3F0A3F0900138F0A3F0A3F0A3F0FD93
:1018D0007F50124A1DE4FD7F51124A1DE4FD7F52E4
:1018E000124A1DE4FD7F53024A1D90013474FFF03B
:1018F000A3F0A3F0A3F090013CF0A3F0A3F0A3F0B9
:10190000FD7F54124A1D7DFF7F55124A1D7DFF7FCA
:1019100056124A1D7DFF7F57024A1D9001CFE0906D
:10192000A226F0E0FF30E0079001CFE054FEF0EF98
:1019300030E5229001CFE054DFF09001347420F0C4
:10194000E4F5A8F5E8119A900003E054FBFD7F034D
:10195000124A1D80FE22C0E0C0F0C083C082C0D009
:1019600075D000C000C001C002C003C004C005C0E3
:1019700006C0079001C47436F07459A3F012907A2F
:10198000E51930E1031257EDE51930E4031256CBA7
:10199000E51930E50211FBE51930E6031290E6E5A2
:1019A0001B30E002B10CE51B30E10312859CE51B06
:1019B00030E20312669AE51B30E3031290F3E51B55
:1019C00030E402F1B9E51B30E502D1BFE51B30E69A
:1019D0000291C3E51C30E103126648E51C30E402C5
:1019E00051F0E51C30E50231EF7436049001C4F08B
:1019F0007459A3F0D007D006D005D004D003D0028C
:101A0000D001D000D0D0D082D083D0F0D0E03290BE
:101A1000A171E004F0E4F55F740D255FF582E43414
:101A2000A0F583E0700241E4E55F131313541FFF38
:101A3000E55F5407FE74012FF582E43494F583E0EA
:101A4000FDAF0674017E00A807088005C333CE33BE
:101A5000CED8F9FFEF5D700241E475F010E55F90BC
:101A60008101124919E020E702801075F010E55F4E
:101A7000908102124919E0FF20E7099001C1E0447A
:101A800020F041E4EF30E62375F010E55F9081002F
:101A9000124919E0FD75F010E55F908105124919B2
:101AA000E0540390A2CFF0E4FB80547416255FF558
:101AB00082E4349EF583E004F07416255FF582E439
:101AC000349EF583E0D394034014AF5F12A49D7459
:101AD00016255FF582E4349EF583E4F0802675F0E8
:101AE00010E55F908100124919E0FD75F010E55F87
:101AF000908105124919E0540390A2CFF07B01AF09
:101B00005F129CB1055FE55FC39480500221F8220B
:101B100090A170E004F0E4FF90A17CEFF0E4F5699F
:101B2000747D2569F582E434A1F583E4F075F01045
:101B3000E569908103124919E0FF30E710E569700B
:101B40001FEF30E61B90A16DE004F08013AF691227
:101B5000B4AA747D2569F582E434A1F5837401F09B
:101B60000569E569C3948040B77F0C7E00123E5042
:101B7000E4F569747D2569F582E434A1F583E070AC
:101B80000281B775F010E569908106124919E0F5F8
:101B90006775F010E569908107124919E0F568FE54
:101BA000E567FFE56925E02401F582E43492F583D9
:101BB000EEF0A3EFF075F010E56990810A12491973
:101BC000E0F56775F010E56990810B124919E0F5B1
:101BD00068FEE567FF75F00AE569908D0112491905
:101BE000EEF0A3EFF075F010E56990810C12491941
:101BF000E0FF75F00AE569908D03124919E4F0A33E
:101C0000EFF075F010E56990810D124919E0FF754C
:101C1000F00AE569908D05124919E4F0A3EFF0751B
:101C2000F010E56990810E124919E0FF75F00AE5A0
:101C300069908D07124919E4F0A3EFF075F010E5F3
:101C40006990810F124919E0FF75F00AE569908DDE
:101C500009124919E4F0A3EFF075F010E5699081DD
:101C600009124919E0FF74962569F582E43497F565
:101C700083EFF0E5697056E56830E70590A16C8068
:101C800049E56830E60590A16B803FE56830E505E1
:101C900090A16A8035E56830E40590A169802BE564
:101CA0006830E30590A1688021E56830E20590A1E5
:101CB000678017E56830E10590A166800DE5683022
:101CC000E00590A165800390A164E004F090A17C00
:101CD000E0FDAF69129ECF0569E569C394805002AB
:101CE00061532290A00DE0B4011390A096E0600D26
:101CF00090A09AE054FEF05407700291DE2290A06A
:101D00008EE090A09830E004E0FFE198E0FF7D01D4
:101D100002616190A096E06012900692E030E102CC
:101D2000E1E790A093E054F7F091DE2290A08EE0DE
:101D300030E011A37401F090A08EE0FFC31330E0F7
:101D40000312676912B6F190A3087402F090A1061D
:101D5000E020E002C128E4FF126E7790A10AE0FFC4
:101D60001313543F30E0031295C690A106E0FFC460
:101D70001313540330E008900778740DF0802D9011
:101D8000A109E0FEC4540F30E00DEE1313543F9050
:101D9000077830E00F801290A109E0FEC31390078E
:101DA0007830E0057403F080037409F0EFC4131376
:101DB00013540130E007E490A309F0800690A309D2
:101DC0007401F090A109E0C413540720E01390A11E
:101DD00045E06007E490A308F0800690A308740132
:101DE000F090A308126FEA90A1177401F090A10679
:101DF000E0FFC413540730E007900522E4F080268A
:101E0000EFC4540F30E01F90A10CE04420F090A0EC
:101E1000FCE060067D017F048009900522E4F07DEE
:101E2000017F0C12616190A0FCE0900522600574B6
:101E30006FF08002E4F090A109E0C4131313540181
:101E400030E0057F011277B7221266E790A09CE090
:101E500014900573F07D027F02D146A127900134D2
:101E60007440F0FDE4FF74152FF8E64DFEF6743073
:101E70002FF582E43401F583EEF022900136747878
:101E8000F0A37402F07D78FFD1467D027F03D14636
:101E900090060AE04407F090A0A1A3E0900558F056
:101EA00090A00DE0B4011590A094E054FBF090A038
:101EB00099E020E20E7D017F0402616190A094E030
:101EC0004404F0221281FE9001377402F0FD7F037A
:101ED000D146124C16E490A099F090A092F0229076
:101EE000A00DE0B4011490A096E0600E90A095E0E3
:101EF000540F64026002E173D1DB22F1E790A099F4
:101F0000E0640C600CE4FD7F0C126161E4FF12815F
:101F10001122E490A226F09006A9E090A226F0E01B
:101F200054C0700C90A09AE054FEF054FDF081DE95
:101F300090A226E030E62190A096E0640170209007
:101F4000A09AE04401F090A095E0540F6402600470
:101F5000F173800BD1DB800790A09AE054FEF090E3
:101F6000A226E090A09A30E725E04402F0E4F53B99
:101F700090A0F7E0F53CE4FBFD7F547E0112363E75
:101F80009001577405F090A093E04404F022E054CF
:101F9000FDF02290A0FBE0C4540F20E01A90041D35
:101FA000E07014909F1CE0FFE4FD126F498E6A8F71
:101FB0006B90041F7420F022AE07126582BF0116D9
:101FC00090A08EE0C41313540320E00AAF067D01F5
:101FD0001261617F01227F002290A00DE0640170F8
:101FE0002590A096E0601F900157E4F090013C74AA
:101FF00002F090A093E054FBF090A09AE054FDF022
:102000005407700291DE2290A093E0131313541F23
:1020100030E00590015BE4F09006927402F09001CC
:102020003C7404F0E4F53B90A0F8E0C313547FF552
:102030003CE4FBFD7F587E0112363E90015B740547
:10204000F090A093E04408F02275E80775A8852277
:10205000E490A200F090A200E06401F0243090012E
:10206000C4F07460A3F0123E44BF01031231FC902F
:10207000A096E0600F90A099E0FF90A098E06F60BC
:1020800003125CDEC2AF129044BF01021178D2AFDE
:10209000124FCA12464D80BD90A093E030E02290CE
:1020A000A08EE0FF30E018C31330E007F1BEBF019F
:1020B00010800A90A092E0FF6003B408048003112E
:1020C000B322D310AF01C3C0D0124EA911C6D0D0D5
:1020D00092AF2290A099E0FF6003B4080812B69E68
:1020E000BF010211A222F1B47F08124C99EF54EF04
:1020F000FD7F08124A1DE4FF1297DC900765E0544B
:10210000E7F090A093E0FFC4540F30E04EEF54EF9F
:10211000F054FEF090A0FEE0900138F090A0FFE0B7
:10212000900139F090A100E090013AF090A101E017
:1021300090013BF090A102E0900130F090A103E00B
:10214000900131F090A104E0900132F090A105E0FF
:10215000900133F07F01313C12760E2290A320EFE4
:10216000F01295C690A320E06005900522E4F0905F
:10217000A0997404F090A092F02290A098E0FFE45F
:10218000FDD310AF01C3C0D090A321EDF090A09378
:10219000E0FEC41313540330E00241ABEEC413134A
:1021A00013540130E00241AB90A099E0FE6F700241
:1021B00041ABEF7002412124FE7002415B24FE60BE
:1021C0004824FC7002419624FC600241ABEEB40E40
:1021D00002711790A099E070047F01313C90A099A2
:1021E000E0B4060251E490A099E0B4040E90A3215B
:1021F000E0FF60051286C58002F15690A099E06468
:1022000008600241ABF1D941AB90A099E070047F26
:1022100001313C90A099E0B4060251E490A099E00D
:10222000B40E0751B0BF0102711790A099E0640C81
:10223000600241AB51B0EF6401600241AB714C41AF
:10224000AB90A099E0B40E0751B0BF010271179096
:10225000A099E0B4060251E490A099E0B40C0751B3
:10226000B0BF0102714C90A099E06404705D12B699
:102270002EEF64017055125EA4805090A099E0B4D6
:102280000E0751B0BF0102711790A099E0B4060289
:1022900051E490A099E0B40C0751B0BF0102714C19
:1022A00090A099E070047F01313C90A099E0B404C3
:1022B0001A12B6BE801590A099E0B40C0E90A094AE
:1022C000E0FF1313543F30E002F1CBD0D092AF22A5
:1022D00090A106E030E00D90A10CE0C4135407304B
:1022E000E007801DD181BF011890A093E013131364
:1022F000541F20E00C90A098E0D3940450037F0179
:10230000227F002290A094E090060420E00CE0449C
:1023100040F090A0997404F08017E0547FF090A0F2
:1023200099740CF0900527E0547FF090A092740C03
:10233000F0900522E4F02290A094E0C31320E0087E
:1023400090A099740CF0801E900604E04440F0E0E8
:102350004480F090A0997404F0900527E04480F048
:1023600090A0927404F0900522E4F02290A00DE079
:102370006401702390A094E054FDF0900522746FE6
:10238000128107BF011190A093E04480F090A099C2
:10239000740EF090A092F022D310AF01C3C0D09081
:1023A0000527E090A208F0120689FF5401FE90A0D4
:1023B0008EE054FE4EFEF0EF5402FFEE54FD4FFF50
:1023C000F0120689FE5404FDEF54FB4DFF90A08EE1
:1023D000F0EE5408FEEF54F74EFFF0120689FE545B
:1023E00010FDEF54EF4DFF90A08EF0EE5420FEEF65
:1023F00054DF4EFFF0120689FE5440FDEF54BF4DEE
:1024000090A08EF0EEC31320E00281ABE0FF20E04D
:1024100002819190A2087421F0EF1313543F30E031
:102420000C125E3D90A208E04408F0800CE490A0FD
:102430008FF0A3F07D40FFB19890A08EE0FD1313C4
:1024400013541F30E00790A208E04412F0EDC4548A
:102450000F30E00790A208E04414F090A08EE0C492
:1024600013540730E00790A208E04480F090A08E5B
:10247000E0C41313540320E00790A208E04440F0A6
:1024800090A208E0900527F090A091E070057F01F0
:1024900012966D90A08EE0FFC41313540330E00435
:1024A0007F048022B182EF60047F0180197F028067
:1024B0001590A2087401F0900527F090A091E064B7
:1024C000046002A17DFF12966DA17D90A08EE0FDBB
:1024D00020E002A14B90A208E04431F0ED13135428
:1024E0003F30E00C125E3D90A208E04408F0800608
:1024F0007D40E4FFB19890A08EE0FD131313541FAC
:1025000030E00790A208E04402F0EDC4540F30E040
:102510000790A208E04404F090A208E0900527F09C
:1025200090A08EE0FFC41313540330E00E90A092ED
:10253000E064026068E4FD7F028022900527E044A9
:1025400040F090A092E0B4021812B6D8B182BF0158
:102550000990A098E0FF7D018003E4FDFF316180D8
:102560003C90A099E090A092F0803290A208740173
:10257000F0900527F090A092E0B402067D017F0460
:10258000800B90A092E0B408067D017F0C3161D1F0
:102590004090A098E0FF7D013161127792D0D092F7
:1025A000AF22900543E07F0030E7027F01227D02E9
:1025B0007F02B1987D017F0274152FF8E6FEEDF4DD
:1025C0005EFEF674302FF582E43401F583EEF022DE
:1025D000EF705B7D787F02B1987D027F03B1987DBB
:1025E000C87F02127862900157E4F090013C7402B7
:1025F000F090A00DE0702290A099E07003FF313CB4
:1026000090A099E0640C6002F15690A093E054F71A
:10261000F054BFF0547FF080067D017F0C31619053
:10262000A093E054F7F090060AE054F8F022025E1E
:102630005B90A106E020E02790A096E06401701F67
:10264000F1EC90A095E0540F6009E4FD7F0C31613E
:10265000025FE790A099E070067D017F043161225E
:10266000D181EF7002D1112290A096E0700790A066
:102670008EE030E01090A08EE030E007B182BF0124
:10268000048003D1112290A096E06402601290A011
:1026900095E0540F600AD181EF7005FD7F0C316128
:1026A0002290041AE0F460037F002290041BE0549F
:1026B0000764077F0160027F002290A15BE004F0C5
:1026C00090A08EE0FF30E00890A092E064026036B7
:1026D00090A096E07004EF30E00B90A099E06402C7
:1026E000602412929C90A094E0131313541F30E0C6
:1026F0001590A09CE0FFA3E06F700B12776EB18E77
:1027000090A09DE014F022E490A236F090A096E014
:10271000606390A00DE06401705B90A23604F0E469
:1027200090A09DF090A08EE030E01590A092E0B4D3
:102730000205E490A236F0B182EF700490A236F068
:1027400090A236E0602F90A09AE04410F0E4F53BB0
:1027500090A09EE0F53CE4FBFD7F547E0112363EE6
:102760009001577405F090A099E020E2067D017F6A
:10277000043161F1EC22900604E0547FF0900522D0
:10278000E4F090A099740CF022D310AF01C3C0D034
:1027900090A08DE0B401047F04800BB182BF0104DE
:1027A0007F0180027F0212966DD0D092AF2290A05E
:1027B0008EE0FFC41313540330E00E90A092E06447
:1027C0000260067D017F02316190A092E0640260A8
:1027D00002D166227F90124C99EF20E0F72290A060
:1027E00091E064027F0160027F0022124C1090A0F1
:1027F000997408F090A092F0221295C6900522E4F8
:10280000F090A099740CF090A092F02290A0FBE0C0
:10281000FFC31330E02FEF131313541F20E0269053
:10282000A109E0C4540F30E0079007787403F02248
:1028300090A0FBE01313543F90077830E004740D30
:10284000F0227409F022C0E0C083C082C0D075D0ED
:1028500000C005C0077D269001C4EDF07468FFA399
:10286000F0ED049001C4F0A3EFF0D007D005D0D074
:10287000D082D083D0E032C0E0C0F0C083C082C03C
:10288000D075D000C000C001C002C003C004C005A4
:10289000C006C0079001C47457F07468A3F0124CCE
:1028A000F6E51430E703124CBB7457049001C4F0F2
:1028B0007468A3F0D007D006D005D004D003D002AE
:1028C000D001D000D0D0D082D083D0F0D0E032C0C0
:1028D000E0C0F0C083C082C0D075D000C000C0018D
:1028E000C002C003C004C005C006C0079001C47484
:1028F000AFF07468A3F01290A7E52130E1023156E1
:10290000E52130E203125CF3E52230E00312912668
:10291000E52330E10312948FE52330E0031294475E
:10292000E52330E302F1B4E52430E1057F041252DF
:102930008BE52430E403125E29E52430E50312869A
:10294000FDE52430E603129526E52430E7023160E8
:1029500074AF049001C4F07468A3F0D007D006D01F
:1029600005D004D003D002D001D000D0D0D082D086
:1029700083D0F0D0E03290A096E0600312B7AD2291
:1029800090A120E030E002C1B090A2377402F09034
:10299000A106E020E002C15D12826D90A118E06402
:1029A00001600241467F03D16290A109E0C4540F47
:1029B00090A11830E0057405F08003E004F090A1C8
:1029C0000AE0C413540730E00F90A107E0FF90A184
:1029D00016E0C39F90A11CF090A106E0C413540719
:1029E00030E02890A10AE0C413540730E06D90A1B4
:1029F0001CE0C39420500AE025E025E0FBE4FD80C4
:102A0000057B7F7DFFE4FFF113805090A106E0C4B9
:102A1000540F30E04090A10CE054DFF0E4FD7F045F
:102A200012616190A10AE0C41313540330E02690B0
:102A3000A10DE04402F054FBF0E490A11BF090A142
:102A400018F090A10E7406F090A0FCE0600790A131
:102A50000DE04404F0900522746FF090A109E0208D
:102A6000E002C15DA17B90A118E064026002612FC9
:102A70007F01D17790A10AE0FF1313543F30E009A2
:102A80001281FEBF0103124C1690A10AE0C4131379
:102A900013540190077830E0057403F0800374014B
:102AA000F090A107E02403FF90A116D15E90A1064B
:102AB000E0C31330E007E490A236F0800690A2361F
:102AC0007401F090A109E0C413540720E01390A111
:102AD00045E0600890A2377401F08005E490A237C9
:102AE000F090A237E0FF90A236E0FDF1EFE490A174
:102AF00017F0A3E004F090A106E0C413540730E0FF
:102B000008900522746FF0802990A106E0C4540F4C
:102B100030E01090A10AE0C413540720E00E1261C7
:102B20005A800990A096E0600912615A90052274BB
:102B3000FFF090A109E030E005900522E4F090A1BB
:102B400009E0C4131313540120E002C15DC1589081
:102B5000A118E06403600281C1FFD17790A10AE06F
:102B6000FF1313543F30E0031295C690A106E0C452
:102B70001313540330E008900778740DF08014901C
:102B8000A109E0C31390077830E0057403F08003D7
:102B90007409F090A10AE0C41313540330E06D905F
:102BA000A110E0FF90A11AE0D39F4041E075F0032F
:102BB000A4FF90A112E0FEC3EF9EFF2403FDE433C7
:102BC000FC90A108E0D39DEC6480F87480984008E4
:102BD000E09F90A238F0800690A2387403F090A293
:102BE00038E0FFD16290A118E004F0801890A113A2
:102BF000E0FFD16290A10E7404F0E490A118F0906F
:102C000006927404F0E490A11AF0800D90A108E0FF
:102C1000FFD16290A118E004F090A106E0C4131364
:102C200013540130E007E490A236F0800690A236FB
:102C30007401F090A109E0C413540720E01390A19F
:102C400045E06007E490A237F0800690A237740157
:102C5000F090A237E0FF90A236E0FDF1EF90A117CF
:102C60007401F090A106E0C413540720E03390A152
:102C700006E0C4540F30E01C90A10CE04420F0901A
:102C8000A0FCE060047D018013900522E4F07D014A
:102C90007F0C800A90A096E06007E4FD7F0412613B
:102CA0006190A0FCE06008900522746FF0801F9096
:102CB000A106E0C413540720E00F90A106E0FF1323
:102CC00013543F30E003125F73900522E4F090A1AB
:102CD00009E0C4131313540120E002C15D7F01C158
:102CE0005A90A118E064046002A1817F03D1629030
:102CF000A118E004F090A10AE0C413540730E00FDB
:102D000090A108E0FF90A116E0C39F90A11CF09055
:102D1000A106E0C413540730E02890A10AE0C413D0
:102D2000540730E06D90A11CE0C39420500AE025C8
:102D3000E025E0FBE4FD80057B7F7DFFE4FFF113F0
:102D4000805090A106E0C4540F30E04090A10CE008
:102D500054DFF0E4FD7F0412616190A10AE0C41326
:102D600013540330E02690A10DE04402F054FBF030
:102D7000E490A11BF090A118F090A10E7407F090C0
:102D8000A0FCE0600790A10DE04404F090052274DF
:102D90006FF090A109E020E002C15D900522E4F00F
:102DA0002290A118E064056002C15D7F01D1779097
:102DB000A10AE0FF1313543F30E0091281FEBF0166
:102DC00003124C1690A10AE0C41313135401900788
:102DD0007830E0057403F080037401F090A106E000
:102DE000C31330E007E490A236F0800690A2367458
:102DF00001F090A109E0C413540720E01390A1450D
:102E0000E0600890A2377401F08005E490A237F0EA
:102E100090A237E0FF90A236E0FDF1EFE490A11719
:102E2000F0A3F090A106E0C413540730E008900529
:102E300022746FF0802990A106E0C4540F30E01096
:102E400090A10AE0C413540720E00E12615A8009D1
:102E500090A096E0600912615A90052274FFF090EC
:102E6000A109E030E005900522E4F090A109E0C45A
:102E7000131313540130E005E4FF1277B722E0C3C7
:102E80009FFFE4F53B8F3CFBFD7F6C7E0112363EDD
:102E900090016F7405F022D310AF01C3C0D0EFB41E
:102EA000031390A109E0C4131354039006CC30E03F
:102EB00017E4F0801690A10AE0C4540F30E00CEF44
:102EC0009006CC7003F080037403F0D0D092AF2250
:102ED00090052274FFF09007787401F090A145E00E
:102EE000FFE4FDE1EFD1B090A120E0FFC41354074F
:102EF000FEEFC313540FC39E4002801790A120E041
:102F0000FFC313540FFEEF54E1FFEE04540F25E00E
:102F10004FF02290A120E054FEF054E1F090A12562
:102F2000E0900778F090A126F1EA1295C69005226C
:102F3000E4F02290A239EFF0A3EDF0A3EBF09004BF
:102F40001DE0601B900522E090A23EF01281FEBFC2
:102F50000103127FCD90A23EE0900522F080031283
:102F60007FCD90041F7420F022D310AF01C3C0D0D6
:102F700090A30DEDF090A30CEFF0E4FDFCF1B57C17
:102F800000AD0790A30CE0900425F090A30DE06045
:102F90000E74212FF582E434FCF583E04480F0AF19
:102FA0000574202FF582E434FCF583E054C0F074FE
:102FB000212FF582E434FCF583E054C0F074292D10
:102FC000F582E434FCF583E054F7F0AE04AF05D0AD
:102FD000D092AF2222E4FEEFC313FDEF30E0027E79
:102FE0008090FD10EDF0AF06228F5F129598BF0123
:102FF00018909F1EE0FF7D01F149AD07AC06AF5F61
:1030000012807790041F7420F022E0FFA3E0FDD32C
:1030100010AF01C3C0D090A2D8EFF0A3EDF090A103
:1030200009E0C41313540330E002219E90A146E04E
:10303000600201B890A2D8E0640260487F487E092F
:1030400012374EE4FFEE54F0FEEC90A2DA12086D57
:1030500090A2D8E090A2DAB401051248E1800C12E7
:1030600048E1EF4480FFEE4402FEEC90A2DA120841
:103070006D90A2DA1248E190AAB912086D7F487EDD
:103080000912384590A2D9E0FF64027002219EEF38
:103090007002219E7F487E0912374EE4FFEE54F005
:1030A000FEEC90A2DA12086D90A145E090A2DA60E1
:1030B000091248E1EF4480FF80071248E1EE440224
:1030C000FEEC90A2DA12086D90A2DA1248E190AA02
:1030D000B912086D7F48219990A2D8E0640260453A
:1030E0007F2C7E0912374EEF54FCFFEC90A2DA12CF
:1030F000086D90A2D8E090A2DAB401081248E1EF7E
:10310000440180061248E1EF4402FFEC90A2DA127B
:10311000086D90A2DA1248E190AAB912086D7F2CCE
:103120007E0912384590A2D9E064027002219E7F88
:10313000307E0912374EE4FFEC90A2DA12086D904F
:10314000A2D9E07011A31248E1EF4477FFEC90A2FE
:10315000DA12086D805590A2DA1248E1EF4466FF5A
:10316000EC90A2DA12086D7F2C7E0912374EEF54D4
:10317000FCFFEC90A2DE12086D90A145E090A2DE6B
:1031800060081248E1EF440280061248E1EF440172
:10319000FFEC90A2DE12086D90A2DE1248E190AA28
:1031A000B912086D7F2C7E0912384590A2DA1248B8
:1031B000E190AAB912086D7F307E09123845D0D04F
:1031C00092AF22D310AF01C3C0D090A20A12492EF1
:1031D000120689FF5401FE90A106E054FE4EFEF057
:1031E000EF5402FFEE54FD4FFFF0120689FE540427
:1031F000FDEF54FB4DFF90A106F0EE5410FEEF548E
:10320000EF4EFFF0120689FE5420FDEF54DF4DFF14
:1032100090A106F0EE5440FEEF54BF4EFFF01206B0
:10322000895480FEEF547F4E90A106F09000031267
:1032300006A2FF5401FE90A109E054FE4EFEF0EFFD
:103240005402FFEE54FD4FFFF09000031206A2FE61
:103250005404FDEF54FB4DFF90A109F0EE5410FE15
:10326000EF54EF4EFFF09000031206A2FE5420FD33
:10327000EF54DF4DFF90A109F0EE5440FEEF54BF34
:103280004EFFF09000031206A25480FEEF547F4ED2
:1032900090A109F09000041206A2FF5420FE90A114
:1032A0000AE054DF4EFEF0EF5440FFEE54BF4FFFF4
:1032B000F09000041206A2FE5480FDEF547F4DFFF3
:1032C00090A10AF0EE5404FEEF54FB4EFFF0900084
:1032D000041206A2FE5402FDEF54FD4DFF90A10A18
:1032E000F0EE5410FEEF54EF4EFFF0900004120683
:1032F000A25408FEEF54F74E90A10AF0E0FF13131A
:10330000543F20E0081295C6900522E4F090A20AEE
:1033100012492512068920E0028162900554E0C31B
:103320001390A116F090A109E0C4540F30E016905C
:1033300000011206A290A107F09000021206A290CE
:10334000A108F080489000011206A2FFC3942A5001
:1033500012EFC3940390A10750057403F0800AEFA5
:10336000F0800690A107742AF09000021206A2FFD6
:10337000C3942A5012EFC3940390A108500574031C
:10338000F0800AEFF0800690A108742AF090A10A5C
:10339000E0C41313540330E03C90A107E075F00340
:1033A0008490A10FF0E0C313A3F090A108E075F0A2
:1033B000038490A111F090A107E0C31390A112F033
:1033C00090A108E0C31390A113F090013E7408F09F
:1033D000FD7F02F17DE490A143F090A20A124925FD
:1033E0009000031206A2C41313540320E030120607
:1033F00089131313541F30E00890A145E060088042
:103400000E90A145E0600890A2087401F08005E4E8
:1034100090A208F090A208E0FF7D02126FEF90A149
:1034200006E0C4540F30E01B90A10AE0C413540717
:1034300030E00690A0987404F0900500741CF0A38E
:103440007411F09005587402F090A10EE0FFB401E1
:103450000890A1187401F08022EFB4040890A1181C
:103460007404F08016EFB4060890A1187402F0807E
:103470000AEFB4070690A1187405F0E490A10EF0CD
:10348000807790A20A1249259000031206A2FFC479
:103490001313540330E00890A2097402F08019124B
:1034A0000689FF131313541F30E00890A20974011A
:1034B000F08005E490A209F0B1B37D2C7F40124A60
:1034C0001D90A20A1249259000031206A21313139D
:1034D000541F90077830E0057403F080037401F006
:1034E00090A209E0FD7F02126FEF900522E4F090B8
:1034F0000500741CF0A37443F090A10CE054DFF0BD
:10350000E490A117F090A109E0C413131354013003
:10351000E00990A136E04402F0800B7F01F1B79002
:10352000A136E054FDF07F03126E77D0D092AF2227
:1035300090A136E054FEF054FBF054FDF054F7F047
:10354000E4A3F0A3F07F807E0812374E90A13D12D5
:10355000086D90A13D1248E190A13912086DE490E8
:10356000A143F0A3F0A3F0A304F0E4A3F0A3F0A31D
:10357000F0A3F0A3F090FD68E04402F090077874A7
:1035800001F012878BB1B390A11E7401F0E4A3F097
:1035900090A128F0A3F090042AE090A12AF09004D2
:1035A0002BE090A12BF0E4FD7F01126FEFE490A1DE
:1035B00046F090A14CE054FEF0E4A3F0A3F022F119
:1035C0000DF11312983412B4B9F192D10EF121F128
:1035D00036A11090A10CE054DFF0E490A10BF09024
:1035E000A10DE054FEF054FDF054FBF0E490A11462
:1035F000F0A3F0A3F0A3F0A3F0A37402F0E4A3F00F
:10360000A3F090A120E054FEF054E1F0E490A11D5D
:10361000F090A12CE054FEF054FDF054FBF054F770
:10362000F054BFF0547FF054EFF054DFF022E490F8
:10363000A096F0A3F090A095E0540FF054F0F09015
:10364000A093E054FDF054EFF054F7F090A09C7478
:1036500001F0A3F090A093E054FBF0A3E054FBF042
:10366000E490A09FF090A09E7408F090A0A1E4F0D8
:10367000A37402F0E490A09AF090A093E054FEF0BE
:1036800090A098740CF090A093E054DFF090A09973
:10369000740CF090A093E054BFF0547FF0A3E0547A
:1036A000FEF054FDF054F7F090A0A312087900004A
:1036B0000000E490A0A7F0A3F090A0AB7404F0A3E6
:1036C0007408F0E4A3F0F14DE490A0A9F0A3F09009
:1036D0009F1AE0B4010890A0A074DDF08012909FC2
:1036E0001AE090A0A0B4030574D4F080037440F0F5
:1036F00090A0F67403F0A37405F0A3E054014428ED
:10370000F0A37405F0E4A3F0A3E054FDF054FBF043
:1037100054F7F054EFF054DFF054BFF0900604E09B
:10372000547FF0900522E4F090A0FCF022E490A0F9
:103730000DF022E490A008F0A3F0909F70F0A3F0A9
:103740002290A153E054FEF0547FF054FBF0A37498
:103750000AF0E4A3F02290A156E054FEF0A3740F07
:10376000F0A37403F0E4A3F0A3F0A3F022E4FF7449
:10377000AE2FF582E434A0F583E4F00FEFB40AEF46
:10378000E490A0A9F090A0ADF090A0A7F022EF14D3
:10379000900573F090013F7410F0FD7F03741D2FAE
:1037A000F8E64DFEF674382FF582E43401F583EE29
:1037B000F02290A08EE054FEF054FDF054FBF05443
:1037C000F7F054EFF054DFF054BFF0E4A3F0A3F0AF
:1037D000A3F0A3740CF02290A136E0FEC31330E0F6
:1037E0001CEFB4010590A13D800390A1391248E17E
:1037F00090AAB912086D7F807E0812384522C0E079
:10380000C0F0C083C082C0D075D000C000C001C06D
:1038100002C003C004C005C006C0079001C474DE26
:10382000F07477A3F012529A5391BF74DE049001A2
:10383000C4F07477A3F0D007D006D005D004D0032D
:10384000D002D001D000D0D0D082D083D0F0D0E050
:1038500032C0E0C083C082C0D075D000C005C007B0
:103860007D319001C4EDF07478FFA3F0ED04900178
:10387000C4F0A3EFF0D007D005D0D0D082D083D051
:10388000E032741D2FF8E6FEEDF45EFEF674382F7C
:10389000F582E43401F583EEF02290A212EFF0E419
:1038A000A3F0A3F0A3F090FD58E030E0309001B811
:1038B000E004F0D390A214E0941490A213E09400DA
:1038C000400890A2157401F080137F017E00123D24
:1038D000C290A213E475F0011208D680C990A21517
:1038E000E0B4010C7F0512528790FD58E04480F04F
:1038F00090A212E0FF75F008A42400F582E434FCE5
:10390000F583E090FD50F0EF75F008A42401F582F6
:10391000E434FCF583E090FD51F090A212E0FF75D5
:10392000F008A42402F582E434FCF583E090FD5213
:10393000F0EF75F008A42403F582E434FCF583E08D
:1039400090FD53F090A212E0FF75F008A42404F556
:1039500082E434FCF583E090FD54F0EF75F008A4A8
:103960002405F582E434FCF583E090FD55F090A247
:1039700012E0FF75F008A42406F582E434FCF58318
:10398000E090FD56F0EF75F008A42407F582E434CA
:10399000FCF583E090FD57F0A37401F022D310AF43
:1039A00001C3C0D0E490A20DF0A3F090A21104F0E6
:1039B00074282FFFE43EFE90A20FEFF0EEA3F090EC
:1039C00001BDE04402F0900209E0C31390FD10F045
:1039D00090A210E0FF90A20EE0FEC39F506FEE7029
:1039E0000890A20D7405F08005E490A20DF090A25D
:1039F0000DE0FFC39420500A117A90A20DE004F06C
:103A000080EC90A20EE004F090FD10E004F090A293
:103A100010E0FF90A20EE0B507B6E490A20DF09082
:103A2000A20DE0FD75F008A4FF90A20FE0FBC3EF2C
:103A30009B7480F865F098500CAF05117A90A20D38
:103A4000E004F080DA90A20EE004F080839001BDE3
:103A5000E04404F0D0D092AF2290A210740AF0900B
:103A6000A21E7406F012068990A212F090000112B4
:103A700006A290A213F09000021206A290A214F0E7
:103A80009000031206A290A215F09000041206A264
:103A900090A216F09000051206A290A217F07B01EA
:103AA0007AA279100254D7120689FF9000011206FB
:103AB000A290A20AF09000021206A290A20BF0902F
:103AC00000031206A290A20CF09000041206A2902D
:103AD000A20DF09000051206A290A20EF090000632
:103AE0001206A290A20FF0EF1249377AE4007AF0A2
:103AF000017AFC027B08037B14047B20057B2806EB
:103B000000007B5190A2087402F0A37429F0806B2E
:103B100090A2087406F0A3742AF0805F90A2087443
:103B200001F0A37431F0805390A2087401F0A374E3
:103B300032F0804790A2087406F0A37433F0803B03
:103B40007B017AA2790A413990A20AE090A147F05C
:103B500090A20BE090A148F090A20CE090A149F057
:103B600090A20DE090A14AF090A20EE090A14BF03F
:103B70002290A2087401F0A374FFF090A209E0FF64
:103B800090A208E0FD7B017AA2790A02522B90A252
:103B90000512492EEF1249377BCA007BD3017BDB2C
:103BA000027BE3037BEB047BF3127BFB207C042191
:103BB0007C0C237C14247C1D257C26287C2E407CB8
:103BC0003D427C46437C4F607C58617C61627C6AEC
:103BD000637C72647C7B657C83667C8C677C956887
:103BE0007C9D697CA56A00007CAE90A205124925E7
:103BF0000289A290A205124925C11590A205124979
:103C000025A16190A205124925E12E90A205124935
:103C100025E15A90A20512492581B690A2051249C4
:103C2000250289EA90A205124925E18790A2051292
:103C30004925C1BA90A20512492502637890A205D0
:103C4000124925028BB990A20512492581CA90A17B
:103C500075E004F090A20512492502B0CA90A205B1
:103C600012492502B25490A20512492502B30D90C3
:103C7000A2051249250271A390A2051249250255F9
:103C80004190A2051249250257F190A2051249253B
:103C9000C1F690A205124925028C7990A20512491D
:103CA00025C1E490A20512492502574990A20512A8
:103CB00049250255F790A205124925E10F90A2056A
:103CC000124925418790A205124925024F7990019A
:103CD000C0E04401F022120689FF90A00CF0BF0161
:103CE00008128EE1E490A00CF022120689FF540124
:103CF000FE90A0FDE054FE4EF0EF540233333354F7
:103D0000F8FF90A093E054EF4FF090A0FDE0540135
:103D1000FFEF6401706A90A093E04401F0125EA48A
:103D2000900138E090A0FEF0900139E090A0FFF003
:103D300090013AE090A100F090013BE090A101F0E9
:103D4000900130E090A102F0900131E090A103F0E9
:103D5000900132E090A104F0900133E090A105F0D1
:103D6000900138E4F0A3F0A3F0A3F0900130F0A3A9
:103D7000F0A3F0A3F090013904F09000537480F0A8
:103D800022D310AF01C3C0D090A20812492E120650
:103D900089FF90A08DF0BF011290A20812492590D2
:103DA00000011206A264016023801E90A20812493D
:103DB000259000011206A26401601190A08EE020FF
:103DC000E007E4FF12966D8003126769D0D092AFCE
:103DD00022D310AF01C3C0D0909F71E0FF909F70BD
:103DE000E0B507047F0180027F00EF7043909F7071
:103DF000E0FE75F008909F20124919E0FDEE75F085
:103E000008A42421F9749F35F0FA7B01AF05716E87
:103E1000909F70E004F0E07F00B40A027F01EF6041
:103E200005E4909F70F0128CDA909F16E04402F047
:103E3000D0D092AF2290A20812492E900001120613
:103E4000A2FFFE120689FDC31330E01290A20812F1
:103E500049259000021206A290A20CF0800590A2C3
:103E60000CEFF090A20BEEF090A20CE0FE90A20BF3
:103E7000E0FFD39E503890A20812492512068954BB
:103E800001FE740D2FF582E434A0F583EEF0740D7D
:103E90002FF582E434A0F583E07004D1D38007903D
:103EA000A20BE0FFD1C290A20BE004F080BA12771F
:103EB0004D90A00DE0702290A099E07004FF126177
:103EC0003C90A099E0640C600312675690A093E0C8
:103ED00054F7F054BFF0547FF02212068990A0A04E
:103EE000F0228F5375F010EF908105124919E054BC
:103EF000FBF0228F5375F010EF908105124919E005
:103F00004404F02212068990A145F09000011206A7
:103F1000A290A146F022E490A208F090A12CE044E7
:103F200010F07D017F1B12522B90A208EFF022D3DC
:103F300010AF01C3C0D090A12DE04401F07D017FFE
:103F40002812522B90A208EFF0D0D092AF22120686
:103F500089FF5401FE90A153E054FE4EFEF0EF5451
:103F600004FFEE54FB4FF0120689C31330E00A90B1
:103F700000011206A290A154F0221277361206898F
:103F8000FF5401FE90A156E054FE4EF0EFC31330F3
:103F9000E0149000011206A290A157F090000212C6
:103FA00006A290A158F0229000021206A2FF30E073
:103FB0002612068990A0F6F09000011206A290A0A9
:103FC000F7F0EF54FEFFA3E054014FF0900003120E
:103FD00006A290A0F9F02290A0F67403F0A3740555
:103FE000F0A3E054014428F0A37405F022909F1F31
:103FF000E0FF7D01126F4990A23CEEF0FCA3EFF0D0
:10400000FD90A239E0FFA3E0FBA3E090A243F09073
:10401000A240ECF0A3EDF0A3EBF090A240E0FCA3F3
:10402000E0FD117790A240A3E0FFFD240DF582E4AE
:1040300034FCF583E04480F0740D2DF582E434FC0B
:10404000F583E054EFF074122FF582E434FCF5832D
:10405000E04402F074122FF582E434FCF583E0545E
:1040600003F090A242E0FF90A240A3E0FE242AF5D4
:1040700082E434FCF583EFF090A243E0FF742B2E32
:10408000F582E434FCF583EFF0742C2EF582E434F1
:10409000FCF583E004F02274092DF582E434FCF58C
:1040A00083E0543FF0EF605474292DF582E434FC32
:1040B000F583E04410F074092DF582E434FCF583B7
:1040C000E04480F090A10AE0C413540730E0499026
:1040D000A11CE0FFC394205014EF25E025E0FF74FD
:1040E0002B2DF582E434FCF583EFF0802B742B2D1F
:1040F000F582E434FCF583747FF0801C74292DF57F
:1041000082E434FCF583E054EFF074092DF582E489
:1041100034FCF583E04440F074122DF582E434FC65
:10412000F583E054FDF022F090A10DE04402F07F11
:1041300001D310AF01C3C0D08F6390041DE0602A8B
:10414000900522E0F56674FFF05104BF0106AF63ED
:10415000F13E800C90A10AE0C41313540330E00236
:104160003160900522E566F080023160900522E022
:10417000546FF090041F7420F07F01D0D092AF22D2
:10418000909F1DE0FF7D01126F498E648F65AD65C4
:10419000AC64AF631177AF65AE64908100E0540FFB
:1041A000FDAC07740D2CF582E434FCF583E044018A
:1041B000F0740D2CF582E434FCF583E054FBF0AC94
:1041C0000774122CF582E434FCF583E044FAF074B1
:1041D000112CF582E434FCF583E0441FF0AC077445
:1041E000062CF582E434FCF583E0440EF09004A73D
:1041F000E4F09004A6F09004A574FFF09004A47479
:10420000FDF074142CF582E434FCF583E054C04DC9
:10421000FD74142FF582E434FCF583EDF022900553
:104220002274FFF0E490A312F0A3F09005F8E07080
:104230000FA3E0700BA3E07007A3E070037F0122DF
:1042400090A10AE0C41313540330E015D390A313D4
:10425000E0940390A312E09400400280137F018059
:104260001BD390A313E094E890A312E09403400AB8
:104270009001C0E04420F07F00227F327E00123E99
:104280005090A312E475F0011208D6809E90A10A06
:10429000E0C41313540320E002A10390A10EE064D4
:1042A000017038900692E020E2069004E3E060207E
:1042B0009006927404F090A11AE004F090A112E02C
:1042C00075F00384FF90A11AE0B50702800281E82F
:1042D000E490A10EF090A11804F02290A10EE064E9
:1042E000047035900692E020E2069004E3E0601C42
:1042F0009006927404F090A11AE004F090A111E0ED
:10430000FF90A11AE0B50702800281E8E490A10EB7
:10431000F090A1187404F02290A10EE064066002EF
:10432000814890A11BE0FF90A11AE02FFFE433FE2B
:104330007C007D0312070390A112E02FFFEC3EFEEC
:10434000C3EF9441EE64809480500890A11BE094E8
:1043500003401190A109E0C4540F90A11820E0027D
:1043600061C9819290A10DE0FF1313543F30E07DAD
:10437000EF54FBF0E4A3F090A109E0C4540F30E047
:104380000EA3E0C31330E002817890A118819290CF
:10439000A11BE0FF90A11AE02FFFE433FE7C007D1B
:1043A0000312070390A112E02FFFEC3EFEC3EF942F
:1043B00041EE64809480400F90A10AE01330E00247
:1043C000817890A118819290A10AE0C31330E01681
:1043D00090A10E7409F09006927404F0E490A11A72
:1043E000F090A2FD819D90A1187402F02290042A01
:1043F000E090A12AF090042BE090A12BF090042AE9
:104400007408F0A3310790A11BE004F07F03126E43
:104410006290A11BE0FF90A11AE02FFFE433FE7C25
:10442000007D0312070390A112E02FFFEC3EFEC3B4
:10443000EF9441EE64809480500A90A11BE09403B5
:104440005002A10390A12AE090042AF090A12BE051
:1044500090042BF09007787403F0900522E044104C
:10446000F090049CE004F02290A10EE064077050EC
:1044700090A11BE0B4040590A118803690A10DE036
:10448000FF1313543F30E02EEF54FBF0E4A3F09001
:10449000A10AE0C31330E01790A10E7409F0900652
:1044A000927404F0E490A11AF090A2FD04800E90A2
:1044B000A1187405F022310890A11BE004F0804897
:1044C00090A10EE06409705B90A10DE030E00E90C9
:1044D000A1187405F090A10DE054FEF02290069210
:1044E000E030E2297404F090A11AE004F0E0B40294
:1044F0001790A2FDE090A11860057405F080037488
:1045000002F0E490A10EF0227F03026E6290A2FD01
:10451000E090A11860057405F080037402F0E49047
:10452000A10EF022E4FF211190A156E030E0479067
:10453000A15AE0FD604074017E00A807088005C311
:1045400033CE33CED8F9FF9004E0E0FBEF5B60069A
:10455000E490A15AF02290A158E0D39D5010900110
:10456000C77410F0B15790A156E054FEF022B10488
:1045700090A15AE004F022909F1AE0640260079034
:104580000690E04401F02290A153E030E02D90A08D
:104590000DE0B4012690A31EE004F0E0B40A0B90F5
:1045A000A155E004F0E490A31EF090A155E0FF9027
:1045B000A154E0B50705E4A3F0B1042290A120E0E6
:1045C00030E005126EC58002F1DB90A14CE030E0D6
:1045D00004A3E004F090A14DE0B4082090A14CE0C9
:1045E000FF30E013900765E054E7F0EF54FE90A130
:1045F0004CF0E4A3F08005E490A14DF090A10AE016
:10460000FFC41313540330E01390A14EE004F0E014
:10461000B4140990049CE4F090A14EF090A08EE0B8
:1046200030E00690A0907401F090A096E060709049
:10463000A093E030E02390A0AAE004F0900562E0AF
:10464000FE900561E0FDED7802CEC313CE13D8F9DC
:10465000FF90A0BDEEF0A3EFF090A094E0FF131345
:1046600013541F30E01390013BE030E40C12658ED0
:1046700090A09CE014900573F090A30AE475F001FB
:104680001208D6C390A30BE0948090A30AE0648044
:104690009480400B900198E054FEF0E04401F0D18A
:1046A00088B1677F0102528B90A156E030E03590CF
:1046B000A159E004F0E0FF90A157E06F702690064A
:1046C00092E020E21090A15BE0700AB10490A15A40
:1046D000E004F080069006927404F0E490A159F092
:1046E00090A15BF022EF603490A00DE06401702C8B
:1046F00090A094E054FEF0900522740FF090060410
:10470000E054BFF0E4FF3111BF011190A093E044E9
:1047100040F090A0997406F090A092F02290A0939F
:10472000E0FFC41313540330E030EF54BFF09004A3
:10473000E0E090A09430E006E04401F08004E05412
:10474000FEF090A10CE0FFC413540730E0097D0196
:104750007F0C1261618003125CDEE4FFA108909F70
:104760001DE0FE90041CE06E704090A099E0FEB445
:104770000E18EF703590A093E0547FF0900604E09F
:10478000547FF090A099740CF022EE6406701BEF39
:10479000601890A093E054BFF0900604E04440F00D
:1047A000E04480F090A0997404F02290A106E054B7
:1047B000FEF054FDF054FBF054EFF054DFF054BF22
:1047C000F0547FF0A3740BF0A37408F0A3E054FE40
:1047D000F054FDF054FBF054EFF054DFF054BFF010
:1047E000547FF0A3E054FDF054FBF054F7F054EF85
:1047F000F054DFF054BFF0547FF022E490A226F092
:1048000090A106E030E06B90A10AE0C413135403BA
:1048100030E01F90A112E0FF126E629006927404C5
:10482000F090A10E7401F0E490A11AF090A118F09C
:10483000801190A226E0FF90A107126E5E90A11851
:104840007401F090A1177401F090A0FCE060079053
:104850000522746FF022900522E4F090A106E0FF9B
:10486000C413540720E00BEF1313543F30E003123E
:104870005F732290A249EFF090A146E0707D7F48DF
:104880007E0912374EEE540FFEE4FDFC90A24A1250
:10489000086DE47F807E02FDFC90A24A1248FDC3B1
:1048A0001248D0700590A1268031E4FFFEFDFC90F7
:1048B000A24A1248FDC31248D0700A90A12604F003
:1048C000E4A3F02137E4FF7E02FDFC90A24A1248E7
:1048D000FDC31248D0700990A12604F0A3F08077A0
:1048E000E47F80FEFDFC90A24A1248FDC31248D02E
:1048F000706590A126F0A304F0805C7F2C7E0912E5
:10490000374EEF5402FFE4FEFDFC90A24A12086D00
:1049100090A24A1248E1EC4D4E4F600890A12674D7
:1049200001F08005E490A126F07F307E0912374E19
:10493000EF5401FFE4FEFDFC90A24A12086D90A224
:104940004A1248E1EC4D4E4F6007E490A127F080F9
:104950000690A1277401F090A120E04401124C0FB1
:10496000900778E090A125F090A145E0FFE4FD12CA
:104970006FEF90A249E0FD70028024EDB4010A902F
:10498000A120E0541F4420F02290A249E0FDB4028F
:104990000A90A120E0541F4460F022EDB403079078
:1049A000A120E0541FF02290A31CEFF07F021248D8
:1049B00027909F17E0FF90A31CE0FEEF4E909F17FB
:1049C000F022900209E0FD120689FEAF05ED2E905F
:1049D0009F1BF09000011206A2FFED2F909F1CF08C
:1049E0009000021206A2FFED2F909F1DF090000391
:1049F0001206A2FFED2F909F1EF09000041206A257
:104A0000FFAE05ED2F909F1FF02290A20812492EB5
:104A1000120689FF547F90A096F0EFC4131313542D
:104A200001A3F09000011206A2FF54F0C4540FFE3F
:104A300090A095E054F04EF09000031206A25401AD
:104A400025E0FE90A093E054FD4EF0EF540FC454C7
:104A5000F0FF90A095E0540F4FF09000061206A2D0
:104A600030E05DC3135407FFC3940490A0A8500422
:104A7000EFF0802D7403F090A208124925E9240676
:104A8000F9E43AFA120689FF740324FDFEEFC454D8
:104A90000FFDEF540FFFED2E540FC454F04F1206CC
:104AA000CF90A2081249259000061206A2C4540F06
:104AB000FFC3940490A09E50057404F08002EFF0B0
:104AC00090A2081249259000041206A290A098F026
:104AD0009000051206A2FF5402FE90A0FBE054FDD8
:104AE0004EFEF0EF5404FFEE54FB4FFFF090000534
:104AF0001206A2FE5408FDEF54F74DFF90A0FBF004
:104B0000EE5410FEEF54EF4EFFF09000051206A297
:104B1000FE5420FDEF54DF4DFF90A0FBF0EE54401B
:104B2000FEEF54BF4EF0E0FFC41313540320E032F5
:104B3000EFC31320E00E90A20C7401F090A145E0A9
:104B4000600D8012E490A20CF090A145E06007E4B3
:104B500090A20BF0800690A20B7401F090A20B12B1
:104B60006FEA90A20812492590A20D12492E717782
:104B700090A096E0FF1265B090A096E0601890A219
:104B80000D1249259000011206A2540FFF90000259
:104B90001206A2FD71882290A093E054FBF0E490ED
:104BA000A09FF090A09AF022EF24FE600C047028E1
:104BB00090A09C7401F0A3F022ED700A90A0F9E09F
:104BC00090A09CF0800590A09CEDF090A09CE0A3AC
:104BD000F090A094E04408F02212068990A0FCF026
:104BE000603790A106E020E030E4FD7F04126161AF
:104BF00090A0FBE0FFC31330E01FEF131313541F0B
:104C000020E01690A0FBE01313543F90077830E0AB
:104C100005740DF080037409F090A0FCE09001E7AA
:104C2000F02290A2FF12492EE4FE90FD50EFF064B6
:104C300030603BA3EDF0EEC39D501E90A2FF1249E1
:104C4000258E827583001206A2FF74522EF582E42F
:104C500034FDF583EFF00E80DDEEC394065033741F
:104C6000522EF582E434FDF583E4F00E80EBEEC3C2
:104C70009407501E90A2FF1249258E827583001260
:104C800006A2FF74512EF582E434FDF583EFF00E99
:104C900080DC90FD587401F02290A20812492E90F9
:104CA000A302E070137F807E0812374E90A13D1260
:104CB000086D90A3027401F090A208124925120613
:104CC00089FFE4FCFDFE90A20B12086D90A13D123D
:104CD00048E1EC54C1FCC004C005C006C00790A266
:104CE0000B1248E1781912085AD003D002D001D033
:104CF000001248C390A13902086D9001CCE0540F16
:104D000090A31DF090A31DE0FD7002C167909F70FD
:104D1000E0FF7006A3E06409600AEF14FF909F7142
:104D2000E0B507047F0180027F00EF60089001C1B9
:104D3000E04401F02290A303E0FF74017E00A80785
:104D4000088005C333CE33CED8F9FFEF5D7002C1C2
:104D50006090A303E075F0049001D0124919E0FFC0
:104D6000909F71E0FE75F008909F20124919EFF0B6
:104D700090A303E075F0049001D1124919E0FF758A
:104D8000F008EE909F21124919EFF090A303E0750F
:104D9000F0049001D2124919E0FF75F008EE909FDF
:104DA00022124919EFF090A303E075F0049001D3AB
:104DB000124919E0FF75F008EE909F23124919EF90
:104DC000F090A303E075F0049001F0124919E0FFA0
:104DD00075F008EE909F24124919EFF090A303E0BC
:104DE00075F0049001F1124919E0FF75F008EE909A
:104DF0009F25124919EFF090A303E075F00490018C
:104E0000F2124919E0FF75F008EE909F2612491939
:104E1000EFF090A303E075F0049001F3124919E05C
:104E2000FF75F008EE909F27124919EFF090A31D2F
:104E3000E0FF90A303E0FE7401A806088002C333DC
:104E4000D8FCF45F90A31DF090A303E0FF7401A8C9
:104E500007088002C333D8FC9001CCF090A303E094
:104E600004F0E05403F0909F71E004F0E07F00B4A0
:104E70000A027F01EF700281E4E4909F71F081E407
:104E80009001C0E04402F02290A2F0EFF0A312499A
:104E90002E90A304E0FE04F0900001EE1206E174EF
:104EA000002FF9E434FBFA7B01C003C002C001907B
:104EB000A2F11249258B408A418942754302D001F3
:104EC000D002D00312352690A2F0E02402F9E43497
:104ED000FBFA7B01C003C002C001A3124925E924EB
:104EE00002F9E43A8B40F541894290A2F11249253A
:104EF00090000E1206A2F543D001D002D003023575
:104F0000267B017AA279087FF57E011234C1BF01A8
:104F10000690A208E0A3F07B017AA279087FF67ED2
:104F2000011234C1BF010890A208E090A20AF07BF0
:104F3000017AA279087FF47E011234C1BF01089082
:104F4000A208E090A20BF07B017AA279087FF37EA1
:104F5000011234C1BF010890A208E090A20CF07BBE
:104F6000017AA279087FF27E011234C1BF01089054
:104F7000A208E090A20DF090A209E0FFA3E0FDA33B
:104F8000E0FBA3E090A211F090A20DE090A212F03D
:104F900002571690A30512492EE4FF90A30512496B
:104FA000258F827583001206A2FE74F02FF582E42D
:104FB0003402F583EEF00FEFB410E022900194E09C
:104FC0004401F09001C7E4F022900101E04404F0B4
:104FD00090019AE054C0F07F0A7E00123E5090018A
:104FE00099E044C0F090019B7480F02290019AE017
:104FF00054C0440BF07F0A7E00123E50900198E0AE
:1050000054C07F00B440027F0122E490A1FDF0A3D0
:10501000F0F1CCEF64016045C390A1FEE09488906C
:10502000A1FDE09413400F9001C1E04410F0900105
:10503000C774FDF0802790A1FDE475F0011208D639
:105040007F147E00123E50D390A1FEE0943290A1D6
:10505000FDE0940040BB9001C6E030E3B49001C78E
:1050600074FEF0227F0290A152E0FEEFC39E50102A
:10507000EF25E02481F8E630E4037F00220F80E68C
:105080007F0122E4909F16F0A3F0A3F0A3F02290FA
:1050900001E4740FF0A37411F022900134E055156F
:1050A000F519A3E05516F51AA3E05517F51BA3E073
:1050B0005518F51C900134E519F0A3E51AF0A3E5A5
:1050C0001BF0A3E51CF02290013CE0551DF521A347
:1050D000E0551EF522A3E0551FF523A3E05520F56A
:1050E0002490013CE521F0A3E522F0A3E523F0A301
:1050F000E524F05391DF228F6D7F02124827909FA5
:1051000017E0456DF02290A08EE030E005E4A3F0BA
:10511000A3F02290A00DE06401702A90A096E060B8
:1051200024900157E4F090013C7402F0E4F53B90C8
:10513000A0F7E0F53CE4FBFD7F547E0112363E9083
:1051400001577405F022715890A236EFF090A093A9
:1051500030E006E04401F08004E054FEF090A23616
:10516000E030E61190012FE030E704E4F080069093
:10517000012F7480F090A0A7E0FFA3E0FD90A0AC09
:10518000E0FBAC0790A093E030E02E90A0A8E0D325
:105190009403500790A09EEBF0800AED24FD2B9025
:1051A000A09EF07D03C374049D2CFF90A0ABF090F3
:1051B000A0A1E4F0A3EFF0800E90A0A1E4F0A3740E
:1051C00002F090A09EEBF090A0A1A3E0900558F013
:1051D00022E490A226F0FDA3F0900562E0FE900587
:1051E00061E0FBEB7802CEC313CE13D8F9FF90A099
:1051F000BFEEF0A3EFF090A0BDE0FEA3E0FFA3E0C0
:10520000FAA3E0FBC39FEA9E402190A0BDA3EB9FC1
:10521000FDC3940F501374AE2DF582E434A0F583D2
:10522000E004F090A0A9E004F0516090A0A9E0D3C0
:105230009432404BE490A227F090A226F090A22650
:10524000E0FFC3940F502A74AE2FF582E434A0F52A
:1052500083E0FF90A227E02FF0E0D3940A400A9069
:10526000A226E090A0A8F0800890A226E004F0809A
:10527000CC90A0A8E0FD7B08E4FF316212774D22BC
:1052800090A0ADE0FD7FFD123DEF90A0F6E0FF9015
:10529000A09FE0D39F402490A0ADE004F0E0FF94F5
:1052A00004501890A0A7EFF025E0240890A0ACF0DF
:1052B000FB90A0A7E0FFA3E0FD31622290A00DE0EB
:1052C00064016002614790A096E07002614790A07F
:1052D00095E0FFC4540F640170229006ABE090A0EB
:1052E0009DF09006AAE090A09CF0A3E0FF700890CB
:1052F000A09CE0FEFF800090A09DEFF090A093E0C6
:1053000030E00231B190A094E04404F0E490A09F1A
:10531000F090A0A1A3E0900558F0900157E4F09020
:10532000013C7402F090A09AE054FDF054EFF0902C
:10533000A095E0FFC4540F24FD5002800E90A08E73
:10534000E030E00471A38003125EF290A094E013B9
:105350001313541F30E01090A09CE0FFA3E0B507AA
:105360000612776E12659490A08EE0C31320E007BA
:1053700090A094E04404F022E490A237F0A3F0A3BC
:10538000F07F83124C9990A237EFF07F83124C99F3
:10539000AE0790A237E0FFB5060122C390A239E024
:1053A000946490A238E09400400D9001C0E0444025
:1053B000F090A237E0FF2290A238E475F0011208C5
:1053C000D680BE9006A9E090A226F0E0FD54C07001
:1053D0000990A09AE054FEF08143ED30E64E90A093
:1053E00096E06402702B90A093E0FFC31320E009C5
:1053F00090A09AE04401F0802990A095E0540F64B9
:1054000001703090A09AE04404F07F01126FC980CF
:105410002290A09AE04401F090A095E0540F64021D
:105420006005125F73800C125EDB800790A09AE02B
:1054300054FEF090A226E090A09A30E725E04402C6
:10544000F0E4F53B90A0F7E0F53CE4FBFD7F547EF3
:105450000112363E9001577405F090A093E0440489
:10546000F022E054FDF02290A08EE0FF30E03F906B
:10547000A092E07E00B402027E0190A091E07D0047
:10548000B404027D01ED4E7025EFC31330E003023A
:10549000676912678E90A092E0B40806E4FD7F0C65
:1054A000800990A092E07006FD7F04126161229055
:1054B000A08EE0FF30E03F90A092E07E00B40202B8
:1054C0007E0190A091E07D00B404027D01ED4E705C
:1054D00025EFC31330E00302676991D790A092E0F3
:1054E000B40C06E4FD7F08800A90A092E0B40406A4
:1054F000E4FDFF12616122900157E06048E4F09002
:10550000013C7402F090A093E0FF1313543F30E08D
:105510000CEF54FBF090A09AE054FDF02290A09F75
:10552000E004F090A09AE054EFF090A0F6E0FF9035
:10553000A09FE0D39F400E90A00DE0B4010790A083
:1055400094E054FBF02290A093E0FFC41313135493
:105550000130E021EF547FF09004E0E090A094301F
:10556000E106E04402F08004E054FDF090A096E0F3
:105570006003125CDE90A10AE0C41313540330E010
:105580003290A10DE0FFC31330E028EF54FDF090FE
:1055900004E0E090A10D30E116E04404F090A12A6F
:1055A000E090042AF090A12BE090042BF08004E01E
:1055B00054FBF07F01028508D310AF01C3C0D09027
:1055C000041DE0601A900522E0549060079001C02D
:1055D000E04408F09001C6E030E1E47F0080027F03
:1055E00001D0D092AF22D310AF01C3C0D09001013F
:1055F000E04402F090010074FFF09006B77409F0E7
:105600009006B47486F090A0FBE0FF131313541FB0
:1056100030E0069007787403F090A120E020E03598
:10562000EFC31330E02F90A145E06007E490A30E94
:10563000F0800690A30E7401F090A0FBE0C4135418
:105640000790A30F30E0057401F080037402F0901E
:10565000A30E126FEA7F02124C99EF4401FD7F0204
:10566000124A1DD0D092AF22B1C690A0917403F01F
:1056700022B1C6900522E4F090A09104F022D1510D
:10568000900527E054BFF0E490A091F022D310AF32
:1056900001C3C0D090A091E090A31FF06F7002E111
:1056A00063EF14603E146062147002E1171470021C
:1056B000E13E24046002E16390A31FE0FFB4040410
:1056C000F168E163EFB40204D15EE16390A31FE0EF
:1056D000FFB40304F16CE163EF64016002E163D1A4
:1056E00060E16390A31FE0FFB40404F17BE163EF8A
:1056F000B40204D151E16390A31FE0FFB40304F1AD
:1057000070E163EF707DF1BA807990A31FE0B4047B
:105710000512B600806D90A31FE0B40104F1C380B0
:105720006290A31FE0B4030512B610805690A31F29
:10573000E07050F1C1804C90A31FE0FFB40405124B
:10574000B5EC803FEFB40104F1CF8037EFB4020431
:10575000D148802F90A31FE07029F1CD802590A320
:105760001FE0FFB4030512B61A8018EFB40104F16C
:10577000A68010EFB40204F18E800890A31FE070A1
:1057800002F1A4D0D092AF22F17BC160F170C16070
:10579000900522E4F090A09104F022900522E4F01C
:1057A000900527E04440F090A0917401F022B1C62A
:1057B000900522746FF0900527E054BFF090A091FF
:1057C0007404F022F1BA900522746FF0900527E07E
:1057D00054BFF090A0917404F02290A0917401F055
:1057E00022F1BA124C1090A0917402F022F1BA90FA
:1057F000052274FFF090A0917403F0228F6EE49064
:10580000A314F0A3F0900109E07F0030E7027F01CC
:10581000EF656E603EC390A315E0948890A314E0FA
:10582000941340089001C0E04410F02290A314E4C7
:1058300075F0011208D67F147E00123E50D390A35B
:1058400015E0943290A314E0940040B99001C6E0B2
:1058500030E0B222E490A1FDF0E490A1FEF090A12E
:10586000FEE0FFC39410507590A1FDE0FE2496F574
:1058700082E43498F583E054FEF0EF90A1FEB40387
:105880001BE0FF75F010EE908100124919E5822FA0
:10589000F582E43583F5837480F0801BE0FF90A1EE
:1058A000FDE075F010908100124919E5822FF58214
:1058B000E43583F583E4F090A1FEE0FF90A1FDE0E4
:1058C00075F008908900124919E5822FF582E435B8
:1058D00083F583E4F090A1FEE004F0808190A1FDC7
:1058E000E004F0E0648060020139E490ADE2F09001
:1058F000941112087900000000E490A1FDF090A13D
:10590000FDE0FFC394804002413CE490A1FFF09091
:10591000A1FFE0FEC39405502090A1FDE075F00AC0
:10592000908D0112491975F002EE124919E4F0A3A5
:10593000F090A1FFE004F080D690A1FDE0FE249657
:10594000F582E4349DF583743FF074162EF582E4FD
:10595000349AF583E4F074012EF582E43493F583F0
:1059600074C0F0EE25E02401F582E43492F583E47E
:10597000F0A3F074962EF582E43497F583E4F0EE0C
:1059800025E02496F582E4349AF583E4F0A3F0EE62
:1059900025E02496F582E4349BF583E4F0A3F075CA
:1059A000F004EE909596124919743FF075F004EEEC
:1059B0009095971249197403F075F004EE9095983C
:1059C000124919E054E04409F090A1FDE0FE75F0A1
:1059D00004909599124919E054F3F075F004EE9093
:1059E0009599124919E054FCF090A1FDE0FE75F084
:1059F00004909598124919E04420F075F004EE9057
:105A00009599124919E054CFF090A1FDE0FE75F090
:105A100004909599124919E04440F075F004EE9015
:105A20009599124919E0547FF090A1FDE0FE75F0C0
:105A300004909596124919E0FD75F010EE908100E2
:105A4000124919EDF090A1FDE02496F582E4349816
:105A5000F583E4F090A1FDE004F001DE90044974C8
:105A6000F0F0A3E4F0A374FFF074162FF582E43491
:105A700098F58374FFF022EF600AEDC3942C400484
:105A80007E208002E4FEC3ED9EFF228F5EAC059077
:105A900001C4746BF0749AA3F075F010E55E908108
:105AA00000124919E0FF90A21CF0BFBE03743FF042
:105AB00090A21CE0B4B3037434F090A21CE090A256
:105AC0001BF0547F90A221F075F004E55E9095974D
:105AD000124919E090A223F075F004E55E909596C6
