:10000000C18802004800000005101053C2390100E9
:1000100081630100000000000000000000000000FB
:100020000243BA00000000000000000000000000D1
:10003000000000025044000000000000000000002A
:1000400000000000000000000000000000000000B0
:1000500000000000000000000000000000000000A0
:100060000000000256E00000000000024B6A0000A1
:100070000504030200030605040300040605040248
:1000800000040807060400060A09080600080A0911
:10009000080400080A09080200080A090800000804
:1000A0001211100800101A19181000182221201817
:1000B00000202221201000202221200800202221BF
:1000C0001C080020222114080020222018080020EB
:1000D000313020100030313018000030312F101036
:1000E0000030312C10100030312810000030312049
:1000F0001000003031101000003004040405040426
:1001000004050505060604040405050506060404A1
:1001100005050505060604040505050506070A0B81
:100120000D100405050606090C11080809090A0C3A
:10013000101104040405040405070707080A040451
:100140000404060A0B0D05050707080B0D0F040430
:100150000405070709090C0E101204040505060A18
:100160001113090909090C0E111300000000000009
:1001700000000024262A181A1D1F2127292A000002
:10018000001F23282A2C0004000400080010001877
:100190000024003000480060009000C000D80050EB
:1001A000007800A000C80140019001E00230012C5D
:1001B000014001E002D003E804B0064007D000028D
:1001C000000200040008000C001200180024003097
:1001D00000480060006C0028003C0050006400A053
:1001E00000C800F00118006400A000F0016801F4EC
:1001F0000258032003E8020202020202030304047D
:1002000005070404070A0A0C0C12050707080B125D
:10021000243C010101010102030405060708010253
:1002200003040506070805060708090A0B0C201E2B
:100230001C18101800000000000000000000000062
:10024000BB010CE58229F582E5833AF583E0225073
:1002500006E92582F8E622BBFE06E92582F8E222BD
:10026000E58229F582E5833AF583E49322BB010612
:1002700089828A83F0225002F722BBFE01F322F822
:10028000BB010DE58229F582E5833AF583E8F0228A
:100290005006E92582C8F622BBFE05E92582C8F290
:1002A00022C5F0F8A3E028F0C5F0F8E582158270C9
:1002B000021583E038F022BB010A89828A83E0F5C7
:1002C000F0A3E022500687F009E71922BBFE07E3FE
:1002D000F5F009E3192289828A83E493F5F0740129
:1002E0009322BB0110E58229F582E5833AF583E08C
:1002F000F5F0A3E0225009E92582F886F008E6220D
:10030000BBFE0AE92582F8E2F5F008E222E5832A3D
:10031000F583E993F5F0A3E99322BB010A89828A68
:1003200083F0E5F0A3F0225006F709A7F01922BBED
:10033000FE06F3E5F009F31922F8BB0111E5822965
:10034000F582E5833AF583E8F0E5F0A3F022500961
:10035000E92582C8F608A6F022BBFE09E92582C875
:10036000F2E5F008F222EF4BFFEE4AFEED49FDEC1C
:1003700048FC22E0FCA3E0FDA3E0FEA3E0FF22A4F2
:100380002582F582E5F03583F58322E0FBA3E0FAD0
:10039000A3E0F922F8E0FBA3A3E0F925F0F0E58261
:1003A000158270021583E0FA38F022EBF0A3EAF030
:1003B000A3E9F022D083D082F8E493701274019301
:1003C000700DA3A393F8740193F5828883E473748A
:1003D00002936860EFA3A3A380DF0243F802482FD3
:1003E000E493A3F8E493A34003F68001F208DFF45A
:1003F0008029E493A3F85407240CC8C333C4540FD2
:100400004420C8834004F456800146F6DFE4800BA4
:10041000010204081020408090443DE47E01936076
:10042000BCA3FF543F30E509541FFEE493A36001D1
:100430000ECF54C025E060A840B8E493A3FAE4933B
:10044000A3F8E493A3C8C582C8CAC583CAF0A3C8E9
:10045000C582C8CAC583CADFE9DEE780BE41977F8F
:10046000004197A10041976B804197A300008F82C4
:100470008E83A3A3A3E4F022E4F5237F607E0180B2
:10048000EDD310AF01C3C0D090975D718B90975D95
:10049000716B90000151C2FAE5F02400FFE43AFECE
:1004A00090975D716B900001EE8FF07119122462CC
:1004B000FF6028B5231490975D716B90000151C2C5
:1004C00065257004E52465F0601F90975D716B9061
:1004D000000151C2FFAEF0B153800E90975D716B79
:1004E000122462652360029158D0D092AF22F4FFAB
:1004F000900043E05FF0D310AF01C3C0D07F10DFA6
:10050000FED0D092AF229001CAE526F0EF6002F152
:10051000DB22900209E0FF7D01D16190041F74018C
:10052000F02222025772025779D310AF01C3C0D014
:100530008B608A618962909788718BAB63AA64A98A
:100540006590978B718BAF661566EF601B90978BEC
:10055000E475F0017174122462FF909788E475F0DD
:10056000017174EF514D80DEAB60AA61A962D0D0F9
:1005700092AF22909760EEF0A3EFF07523018E24E6
:10058000F525E4FD7F0BB196E4FD7F02B196126D77
:100590005BE4FF91E6E4F5279001C9E527F0909729
:1005A00060E0FCA3E0FDECFB8D44E4F5457D017FBC
:1005B000607E01023062D310AF01C3C0D090976358
:1005C000EDF0909762EFF0D39407504EA3E0701ACD
:1005D000909762E0FF7401A807088002C333D8FC3B
:1005E000F4FF900047E05FF08017909762E0FF749F
:1005F00001A807088002C333D8FCFF900047E04FF2
:10060000F091D6909762E0FF7401A807088002C3BA
:1006100033D8FCF4FF9000468059909762E024F8AC
:10062000F0A3E0701D909762E0FF7401A8070880B6
:1006300002C333D8FCC454F0F4FF900043E05FF0F1
:10064000801A909762E0FF7401A807088002C33304
:10065000D8FCC454F0FF900043E04FF091D690973F
:1006600062E0FF7401A807088002C333D8FCF4FFDE
:10067000900043E05FF091D6D0D092AF22E0FF7DB2
:1006800001909794EFF0A3EDF0E4A3F0A3F0E56AF6
:100690006005E4FF124E79909794E030E00990975E
:1006A00096E4F0A37480F090041DE0601D90052294
:1006B000E0909798F0E0FF549060EC9001C874FCD3
:1006C000F0EF546F900522F080DD909794E0FFC327
:1006D0001390FD10F0900425EFF0909795E0601FC7
:1006E000A3A3E0FF240FF582E434FCF583E044800B
:1006F000F074102FF582E434FCF583E04480F09030
:100700009796A3E0FFFD2408F582E434FCF583E42A
:10071000F074092DF582E434FCF583E054F0F074B4
:10072000212FF582E434FCF583E054F7F09097969E
:10073000E0FEA3E0FF22F0900045E054FEFD7F457F
:10074000D310AF01C3C0D08F82758300EDF091D676
:10075000D0D092AF22EF14603014606524026002A2
:10076000E1DA9097387402F0900048E0440CFD7F85
:1007700048F120900047E04408FD7F47F1209000B9
:1007800045E04410FD7F45806FE4909738F09097E6
:100790003471539080961225087F807E08122B08B2
:1007A000900045E044EFFD7F45F120900045E05486
:1007B000EFFD7F45F120900046E04410FD7F46802C
:1007C000379097387401F090973E7153908096124D
:1007D00025087F807E08122B08900045E04420FD0C
:1007E0007F45F120900045E04410FD7F45F12090C9
:1007F0000046E04410FD7F46F12022900049E09041
:1008000097A4F0E0540FF044F0FD7F49F120909759
:10081000A4E044B0FD7F49E120752833E4F5297553
:100820002A02F52B900130E528F0A3E529F0A3E595
:100830002AF0A3E52BF02275301F753101E4F53263
:10084000900138E530F0A3E531F0A3E532F022E481
:1008500090974FF0A3F0758E02126CAD900002E0FD
:1008600054E090978660057401F080037402F09064
:1008700000F3E030E3089097877401F08005E4907E
:100880009787F0909787E0B401139000F2E030E78B
:100890000C90977D74FDF0A37433F0800A90977DDF
:1008A00074FDF0A3742FF0E4F557126AEB126FF2A7
:1008B000125FAC122E01126D571247F99000F3E04F
:1008C00030E20D9005417410F090055AF0A3E4F069
:1008D00090016474A0F07544FFE4F545FB7D017F51
:1008E000507E01123062111712450212774890971C
:1008F00051E5D9F0125015C2AF900080E04440F0AD
:100900001244D675E80343A885D2AF90974FE064B0
:1009100001F0242F9001C4F07448A3F0E55730E4AF
:100920000AC2AF5357EFD2AF125780E55730E616E1
:10093000C2AF5357BFD2AF12616490973CE0FF60E3
:1009400003B40102316090973CE070031277A63146
:100950003380B8900634E0602614701B7B017A0661
:1009600079357FF97E01126CF5BF0109900635E0FB
:10097000540FF080058000026C9EE4900634F02253
:10098000909733E0C394145005E004F04118909719
:1009900033E0641460024118909742E0702590970C
:1009A00045E0701F909743E07019909746E07013F0
:1009B000909744E0700D909747E070079004FDE039
:1009C00054FEF0909742E0900444F0909743E090FA
:1009D0000445F0909744E0900446F0A3E4F090972B
:1009E00045E0900448F0909746E0900449F09097D5
:1009F00047E090044AF0A3E4F090972EE0900700BF
:100A0000F090972FE0900701F0909730E090070268
:100A1000F0909731E0900703F0E4909733F09097CF
:100A20002E04F0E4A3F0A3F0A3F0909742F0A3F01B
:100A3000A3F0A3F0A3F0A3F0900560E0909752F02C
:100A4000900561E0909753F0900562E0909754F024
:100A5000900563E0909755F090974BE0FF90975585
:100A6000E0FED39F500B90974BE0C39ED394014080
:100A700010909739E0B40102800390973DE0FF5158
:100A80006222900560E0909748F0900561E09097B1
:100A900049F0900562E090974AF0900563E09097E6
:100AA0004BF0C374FF9FFE909749E0D39E401EE039
:100AB0002FF0A3E0B4FF0FE4F0A3E0B4FF03E4F0F1
:100AC0002290974B800390974AE004F02290974938
:100AD000E02FF02290973AE0640160026169900093
:100AE00046E04401FD7F4612472090974CE070326B
:100AF000909732E0601590973E1243539080961283
:100B000025087F807E08122B088006900522747FBE
:100B1000F0909739E0FF516290974C74011247169C
:100B2000804090974CE06401703890973DE0FF5111
:100B300062E490974CF0900045E04401FD7F45123F
:100B40004720909732E0601590973412435390807D
:100B5000961225087F807E08122B088005900522BA
:100B6000E4F0900587E06480F0909748E090058479
:100B7000F0909749E0900585F090974AE0900586BF
:100B8000F090974BE0900587F022C0E0C0F0C08362
:100B9000C082C0D075D000C000C001C002C003C078
:100BA00004C005C006C0079001C4746AF0744BA36A
:100BB000F05391DF90013CE05530F534A3E055311E
:100BC000F535A3E05532F536A3E05533F537E53476
:100BD00030E00690013C7401F0E53430E10890010A
:100BE0003C7402F0F1ABE53430E23290013C740425
:100BF000F0900692E030E01E754414754500E4FB69
:100C0000FD7F587E0112306290015B7405F0900602
:100C1000927401F08007909776E4F0918AE5343081
:100C2000E33290013C7408F0900692E030E11E75CA
:100C30004414754500E4FBFD7F5C7E011230629038
:100C4000015F7405F09006927402F080079097752A
:100C5000E4F0918AE53430E40990013C7410F0121C
:100C60006D77E53430E50890013C7420F051B4E52F
:100C70003530E01090013D7401F0900083E09097D2
:100C800079F0918A746A049001C4F0744BA3F0D097
:100C900007D006D005D004D003D002D001D000D0B8
:100CA000D0D082D083D0F0D0E032909779E0FF7D31
:100CB0000180047D017F0C8F678D68E567540FFF0D
:100CC000909777E0540F6F6071E56730E22D909751
:100CD00077E020E2047F01D1E7909777E030E309E5
:100CE000E56720E304B14E8051909777E020E34A16
:100CF000E56730E345AF68F106803F909777E054B1
:100D00000FFFBF0C0CE56720E307F125EF602BB167
:100D10004E909777E0540FFFBF040DE56720E2087F
:100D2000125631EF6014D194909777E0540FFFBFC3
:100D30000208126009EF6002D1CA909777E0540F61
:100D4000FF909779E0540F6F7023E030E61F909783
:100D500077E0540FFF90976BE0FE4F90012FF0EE7D
:100D6000648090976BF0909779E054BFF0229006E2
:100D700004E04440F0E569B401047F01F148909734
:100D800077E054F0F0E04404F022EF6401702E7D2F
:100D90007D7F0212312C7D027F0312312C9001578E
:100DA000E4F090013C7402F09193E4FFD179900655
:100DB00004E0547FF090060AE054F8F022900136E7
:100DC000747DF0A37402F07D7DFF12319D7D027F62
:100DD0000312319D900604E04480F090060AE0443E
:100DE00007F0909772E0A3E0900558F0E56930E0D5
:100DF0001A90976FE07019E004F0909777E0540F25
:100E0000C39404500B7D017F048197E490976FF0A9
:100E1000228B118A128913125FFBAB11AA12A9133C
:100E2000122462F56A14600E14601E14602F2403ED
:100E300070407F01803AAB11AA12A91390000212F0
:100E40004220FDE4FFD1538027AB11AA12A91390D1
:100E50000002124220FD7F01D1531F8013AB11AA63
:100E600012A913900002124220FD7F02D153E4FF29
:100E7000B16A22EF24FE600B04701D909778740114
:100E8000F08011ED90977870057405F08002EDF018
:100E9000909778E090976DF022EF600B909787E045
:100EA000B40110E4FF8009909787E0B401057F0149
:100EB000126FFB229001377402F090052274FFF04C
:100EC000126E5FEF70069001C874FDF07D027F0323
:100ED00012319DE56A60047F01D179126F1F9097EE
:100EE00077E054F0F0E04402F022909777E054F07D
:100EF000F0E04401F012604712609D909777E05453
:100F0000F0F0E04402F0229097A2EFF0126EA09071
:100F100097A2E06005900522E4F0909777E054F006
:100F2000F0E04404F022900604E054BFF0EF6009C2
:100F3000E569B40104E4FFF148909777E054F0F0DC
:100F4000E0440CF0221253FCBF011A909776E07037
:100F500014909775E0700E909779E0540FD3940435
:100F600050037F01227F00228F6B90978212465D93
:100F7000E56B601074212FF582E434FCF583E044C6
:100F800010F0800E74212FF582E434FCF583E054D8
:100F9000EFF090041F7401F0227D027F0312312CC8
:100FA000E56A1424FD5002802190977AE060067D66
:100FB000017F0C800F909777E0540FC39404500684
:100FC0007D017F049197E4FFD1792290977BE060C7
:100FD0000EE4F0A3E054FDF0E05407702780239066
:100FE000976EE004F090977CE054EFF090976EE0FD
:100FF000D39401400DE569B4010AA3E07006E00452
:10100000F022918A22900130E4F0A3F0A3F0A3F043
:10101000900138F0A3F0A3F0A3F0FD7F5012472019
:10102000E4FD7F51124720E4FD7F52124720E4FD8A
:101030007F5302472090013C74FFF0A3F0A3F0908F
:101040000134F0A3F0A3F0A3F0FD7F541247207DFC
:10105000FF7F551247207DFF7F561247207DFF7F7F
:1010600057024720C0E0C0F0C083C082C0D075D016
:1010700000C000C001C002C003C004C005C006C05B
:10108000079001C47444F07450A3F0900134E0550B
:1010900028F52C900136E0552AF52EA3E0552BF5C6
:1010A0002FE52C20E00221DB9001347401F085D182
:1010B0004D85D24E85D34F85D45085D55185D65296
:1010C00085D75385D954E5545440C313FFE5535491
:1010D000206F70022192E55430E5022192E55254CE
:1010E0001FF508E54D543FF509E551541FFFE5088C
:1010F00025E024E3F582E43494F583E48FF0124292
:1011000081E553541FFFE50825E024C0F582E4344F
:1011100091F583E48FF0124281E509D394044003F2
:1011200075090475F00AE50890900012435F75F0A8
:1011300002E50912435FE0FEA3E0FFE553541F2FD1
:10114000FFE43EFE75F00AE50890900012435F75DB
:10115000F002E50912435FEEF0A3EFF0E55420E65C
:1011600023E553541FFFE50825E02463F582E434AA
:1011700094F583E48FF0124281E54F30E734AF08F5
:10118000B1C3802EE553541FFFE50825E024A3F5E5
:1011900082E43494F583E48FF0124281E54F30E726
:1011A00011E54F547FFDE553541FF50DAB09AF0812
:1011B00091B0E56A1424FD5002804090977AE06077
:1011C0003290015BE4F090013C7404F071FCEF6438
:1011D000017028754414F545FBFD7F587E011230DF
:1011E0006290015B7405F09006927401F09097761E
:1011F000F0800871FCBF0103124C8AE52C30E12617
:101200009001347402F090FD10747FF085D1588500
:10121000D25985D35A85D45B85D55C85D65D85D773
:101220005E85D95F910BE52C30E30690013474089C
:10123000F0E52C30E4099001347410F0435710E5C8
:101240002C30E5269001CFE030E51FE054DFF09030
:1012500001347420F075A80075E800124FE5900085
:1012600003E054FBF01244D680FEE52C30E60690F5
:1012700001347440F0E52E30E13C9001367402F008
:10128000435740900102E0540364017029900137F4
:10129000E030E00A7401F090977FE4F080189097B6
:1012A0007FE004F0E0C3940A400CE4F0900419E0FD
:1012B00030E0031244F2E52E30E00890013674016C
:1012C000F0D165E52E30E2719001367404F0E569E5
:1012D00064017065E56A6061E56A64026006E56A5A
:1012E000640570279006ABE090976DF09006AAE039
:1012F000909778F090976DE07007909778E0FF8076
:101300000590976DE0FF90976DEFF090976FE0601C
:1013100003E014F090976EE4F0900157F090013CD8
:101320007402F090977CE054FDF0E054EFF0E56A31
:101330001424FD50028002B110E52E30E3319001FB
:10134000367408F0E56964017025E56A6021900152
:1013500057E4F090013C7402F0754403754500E4D5
:10136000FBFD7F547E011230629001577405F0E559
:101370002E30E42F9001367410F0E569640170237B
:10138000E56A601F900157E4F090013C7402F09010
:10139000977BE4F090977CE054FDF0E054077003F5
:1013A000124C8AE52E30E51D9001367420F0E56977
:1013B000B40112E56A600E90977AE064026004B1AD
:1013C000788002B189E52E30E61E9001367440F037
:1013D000E569B40113E56A600F90977CE054FEF074
:1013E000E054077003124C8AE52F30E10990013771
:1013F0007402F0124F797444049001C4F07450A345
:10140000F0D007D006D005D004D003D002D001D050
:1014100000D0D0D082D083D0F0D0E03290041BE056
:10142000547F647F7F0160027F002290974DE054DB
:10143000F04403F0540F4480F07B007A0079589018
:10144000979112438B0B7A97794DD310AF01C3C09C
:10145000D090978E12438B909786E06402606C90D8
:1014600001AFE060099001C7E004F0F080F19097CF
:10147000A3E0FF04F090978E12436B900001EF12EF
:10148000425F90978E12436B8B638A6489657566A1
:10149000027B017A0179A012450990979112436B62
:1014A0008B638A64896590978E12436B122462FF66
:1014B000C4540FF5667B017A0179A21245099001A7
:1014C000AF74FFF09001CBE06480F0D0D092AF22F7
:1014D000A905E9541FF50F74012FF582E43492F544
:1014E00083E0F50E9004FDE0B40105751003800360
:1014F000751001EBC395104002A1C3E50E250DFE4A
:10150000E50F9041D693FDEED39D740140172FF562
:1015100082E43492F583E4F074842FF582E4340499
:10152000F583E9F0222FF582E43492F583EEF02280
:101530009006A9E0F50A54C0700E90977CE054FE26
:10154000F0E054FDF0124C8AE50A30E61790977CE3
:10155000E04401F090977AE064026004B178800B77
:10156000B189800790977CE054FEF0E50A90977C63
:1015700030E720E04402F0754403E4F545FBFD7FCD
:10158000547E011230629001577405F090977B747D
:1015900001F022E054FDF022909781E0FFE4FD127B
:1015A000466190041F7401F02290015FE4F0900105
:1015B0003C7408F0754414E4F545FBFD7F5C7E0146
:1015C00012306290015F7405F09006927402F09000
:1015D000977514F0909777E0540FC3940C50031252
:1015E0004C9322AD0775F009ED90932712435FE00D
:1015F000FF74A52DF582E43496F583E0541FFCD3E7
:101600009F4002AC07EC25E0249EF582E43441F5CE
:1016100083E493FE740193FFEC25E02466F582E4F5
:101620003441F5837401932FFFE4933EC313FEEF1F
:1016300013FFED25E024E1F582E43492F583EEF02A
:10164000A3EFF074842DF582E43404F583ECF0FF0D
:101650002271FCEF6401702A90977CE054037022A1
:10166000909779E0540FD39402501790977CE02024
:10167000E21090977CE020E40990976FE070037F80
:1016800001227F0022E490974DF0E56A6071E569E0
:101690006401706BE56A14602924FD60252402242E
:1016A000FB5002802390976DE014F0E06004A3E00B
:1016B000601690976DE0700A909778E090976DF0C3
:1016C000800090974D7401F090974DE060319097B5
:1016D0007CE04410F0909774E0F544E4F545FBFDA0
:1016E0007F547E011230629001577405F090977715
:1016F000E0540FC3940450077D017F04124C9722DD
:10170000C0E0C0F0C083C082C0D075D000C000C0AF
:1017100001C002C003C004C005C006C0079001C4D8
:1017200074E0F07456A3F05391EF900051E0FF90F5
:101730000055E05FF53DE53D30E6187440F09097C8
:101740003BE05403FFBF030B909738E060057F0137
:10175000124735E53D30E7159000557480F09097BD
:101760003BE05403FFBF03057F021247359001C4DD
:1017700074E0F07456A3F0D007D006D005D004D0A2
:1017800003D002D001D000D0D0D082D083D0F0D00E
:10179000E0328F1D8C1E8D1F228F208C218D2222E6
:1017A0009001CCE0540F909752F0909752E0FD706A
:1017B000030258C79097A1E0FF74017E00A80708B4
:1017C0008005C333CE33CED8F9FFEF5D70030258E6
:1017D000BD9097A1E075F0049001D012435FE090B6
:1017E0009753F07563017564977565537566017B52
:1017F000017A977954124509909754E0FFC4131366
:101800001354019097A130E059E075F002900088E0
:1018100012435FE0909755F09097A1E075F0029029
:10182000008912435FE0909756F09097A1E075F021
:10183000049001D112435FE0909757F09097A1E098
:1018400075F0049001D212435FE0909758F09097A2
:10185000A1E075F0049001D312435FE0909759F036
:101860008033E075F0049001D112435FE09097550A
:10187000F09097A1E075F0049001D212435FE090E0
:101880009756F09097A1E075F0049001D312435F52
:10189000E0909757F0EF547FFF7B017A97795511CD
:1018A000C8909752E0FF9097A1E0FE7401A8060847
:1018B0008002C333D8FCF45F909752F09097A1E078
:1018C000FF7401A807088002C333D8FC9001CCF054
:1018D0009097A1E004F0E05403F002578A9001C60B
:1018E000E04402F002578A2290975A12438BEF127B
:1018F000439458F40158FC02590403590C05591437
:1019000006594607591C0959250C592E0D59360EF2
:101910000000593F90975A12436BC1D890975A12C2
:10192000436BC1D290975A12436BE16490975A125D
:10193000436BE10290975A12436B802B90975A1297
:10194000436B02446190975A12436B02787F9097E1
:101950005A12436BE13190975A12436B02767090A2
:1019600001C6E04401F022900004124220FF541FFF
:10197000FEEF5420C4135407FDAF0690975DEFF0BF
:10198000A3EDF0A312438B90975F12436B9000037B
:1019900012422054F0C4540F909762F09000041249
:1019A00042205440C413135403909763F090975D02
:1019B000E0FF75F00990932512435FAD82AC8390F0
:1019C0009764ECF0A3EDF0EF75F009A42423F9740B
:1019D0009335F0FA7B01A312438B90975F12436B10
:1019E000900003124220540FFF90976612436BEF52
:1019F00012424D90975F12436B900002124220FFFB
:101A000090976612436B900001EF12425F90975FD0
:101A100012436B900001124220FF909764E0FCA3F8
:101A2000E0FDF5828C83EFF01224628D828C83A31B
:101A3000F0909762E0FE90975DE0FF24C1F582E4AC
:101A40003492F583EEF090975EE0FE75F009EF902A
:101A5000932912435FEEF075F009EF90932A124339
:101A60005F7401F0909763E0FE75F009EF90932B9F
:101A700012435FEEF08F11EF25E024E4F582E434A9
:101A800095AF82F5138F14E51175F002A42481F946
:101A9000749235F0751501F516891775F009E51181
:101AA00090932512435FAF828583188F19E51175D6
:101AB000F009A42423F9749335F0751A01F51B89F4
:101AC0001C74C12511F582E43492F583E01243942D
:101AD0005AD5005AEA015AFF025B14035B3D045BCE
:101AE00052055B67065B8D0C5BBA0D5BE70E5C1401
:101AF0000F00005C48E51125E024E4F582E434950C
:101B0000F58374F0F0A37415803CE51125E024E41E
:101B1000F582E43495F58374F0F0A374108027E522
:101B20001125E024E4F582E43495F58374F0F0A304
:101B300074058012E51125E024E4F582E43495F57E
:101B40008374F0F0A3E4F0E51125E02481F582E44C
:101B50003492F583740FF0A3748FF08148E511255A
:101B6000E024E4F582E43495F583740FF0A374F572
:101B70008027E51125E024E4F582E43495F58374AB
:101B80000FF0A374F08012E51125E024E4F582E45F
:101B90003495F583E4F0A3740DF0E51125E024817C
:101BA000F582E43492F583E4F0A3F0814890044791
:101BB000E0AB15AA16A91712424D900446E0AB15EA
:101BC000AA16A91790000112425F900445E08514FF
:101BD00082851383F0900444813F90044BE0AB1561
:101BE000AA16A91712424D90044AE0AB15AA16A9ED
:101BF0001790000112425F900449E085148285131A
:101C000083F0900448805890044FE0AB15AA16A9C1
:101C10001712424D90044EE0AB15AA16A91790007A
:101C20000112425F90044DE0851482851383F09089
:101C3000044C802B900453E0AB15AA16A91712424E
:101C40004D900452E0AB15AA16A91790000112425C
:101C50005F900451E0851482851383F0900450E076
:101C6000851482851383A3F0AB15AA16A917C003A8
:101C7000C002C001122462FFAB1AAA1BA91C1224C5
:101C8000625FD001D002D00312424DAB15E517249C
:101C900001F9E43516FAC003C002C001122462FF44
:101CA000AB1AAA1BA91C9000011242205FD001D0E0
:101CB00002D00312424D851482851383C083C082F3
:101CC000E0FF851982851883E0FEEF5ED082D08325
:101CD000F0851482851383A3C083C082E0FF851939
:101CE00082851883A3E0FEEF5ED082D083F0E511F9
:101CF00025E02481F582E43492F583E0FEA3E04EF2
:101D0000603B75120B74017E00A812088005C33376
:101D1000CE33CED8F9FFE51125E02481F582E434F5
:101D200092F583E05EFEA3E05F4E6006E5122410AC
:101D3000805D1512E512C3940050CA8056E5112546
:101D4000E024E4F582E43495F583E0FEA3E04E6000
:101D50003D75120F74017E00A812088005C333CEB2
:101D600033CED8F9FFE51125E024E4F582E434957B
:101D7000F583E05EFEA3E05F4E6008909769E51290
:101D8000F080101512E512C3940050C88005E4904D
:101D90009769F0E51125E024E4F582E43495F583B4
:101DA000E0FEA3E04E603BE4F51274017E00A81251
:101DB000088005C333CE33CED8F9FFE51125E024E2
:101DC000E4F582E43495F583E05EFEA3E05F4E60C7
:101DD0000890976AE512F0805B0512E512B410CA0C
:101DE0008052E51125E02481F582E43492F583E008
:101DF000FEA3E04E6039E4F51274017E00A81208DB
:101E00008005C333CE33CED8F9FFE51125E0248118
:101E1000F582E43492F583E05EFEA3E05F4E600657
:101E2000E5122410800A0512E512B40CCC8005E4FA
:101E300090976AF0909769E0FF75F009E51190932B
:101E40002712435FEFF090976AE0FE75F009E51105
:101E500090932812435FEEF074842511F582E434E8
:101E600004F583E0D39F401F909769E0FF748425B9
:101E700011F582E43496F583EFF074842511F58230
:101E8000E43404F583EFF074842511F582E434041E
:101E9000F583E0C39E501F90976AE0FF748425117C
:101EA000F582E43496F583EFF074842511F582E42D
:101EB0003404F583EFF0909769E0FFD39413400862
:101EC0009093227403F08021EFD3940B40089093F9
:101ED000227402F08013EFD394034008909322748D
:101EE00001F08005E4909322F0909322E09004B1F9
:101EF000F022122462F56922D310AF01C3C0D09042
:101F0000000112422090977AF09000031242209034
:101F1000976CF0122462656A6003124DF1D0D09282
:101F2000AF22122462F511C39420501590000212C2
:101F30004220FF74232511F582E43495F583EFF0F8
:101F400022E511B4200A900002124220909321F061
:101F50002290000212422090973CF0E06004E0F4EE
:101F60007021A2AFE433F511C2AF900047E054FBFB
:101F7000FD7F471247207D407F01123166E5112425
:101F8000FF92AF22900209E0FD122462FEAF05ED40
:101F90002E909780F0900001124220FFED2F909735
:101FA00081F0900002124220FFED2F909782F09076
:101FB0000003124220FFED2F909783F0900004124F
:101FC0004220FFAE05ED2F909784F022E4F5699052
:101FD000977CF0F56A909779740CF0909777F0E41D
:101FE00090977AF0909776F0909775F090977804A4
:101FF000F090976DF0E490977BF090976FF090974A
:10200000747407F0E490976EF0909772F0A37402E6
:10201000F0E4909771F090976CF022E490977BF049
:1020200090976EF090977CF022E5577037909779F3
:10203000E0540FD39401502C900287E070269097C3
:1020400086E0B4021090977DE0FEA3E0F5828E83D7
:10205000E06008800F9001AFE07009909771E06038
:10206000037F01227F002290002BE04401F07FE8F3
:102070007E03123215900008E04410FD7F081247DD
:1020800020900009E054F7FD7F09124720900028B6
:10209000E054FEFD7F28124720900020E054FEFD12
:1020A0007F20124720900025E04440FD7F25124705
:1020B00020900009E054EFFD7F09024720900025A1
:1020C000E054BFFD7F25124720900020E04401FD31
:1020D0007F20124720900028E04401FD7F2812470E
:1020E000209000F0E030E1F9900009E04408FD7F25
:1020F00009124720900008E054EFFD7F08124720A6
:1021000090002BE054FEFD7F2B1247207FE87E03DA
:102110000232158F6C90978312465DE56C601074E7
:10212000212FF582E434FCF583E04410F0800E7436
:10213000212FF582E434FCF583E054EFF090041F86
:102140007401F022EFC394205039EF30E017EDC452
:1021500054F0FDEFC313FE24A4F582E43404F583A8
:10216000E0540F8010EFC313FE24A4F582E434047E
:10217000F583E054F0F074A42EF582E43404F58382
:10218000E04DF022E4F51175F009E51190932A1263
:10219000435FE064016002E161E51125E024C0F5E0
:1021A00082E43491F583E0FEA3E0D39400EE940042
:1021B0005002E161E51175F00AA42400F97490352C
:1021C000F0751601F5178918E51125E024C0F58290
:1021D000E43491F583E0FFA3E0909756CFF0A3EFAE
:1021E000F0E51125E02463F582E43494F583E0FF03
:1021F000A3E0909758CFF0A3EFF074842511F582F7
:10220000E43404F583E0543F909752F0E0FE541F0D
:10221000A3F075F009E51190932712435FE09097C2
:102220005BF074642511F582E43496F583E0C39481
:10223000054002813B90975BE0FF909753E09F4001
:102240001390975BE0909753F0EE5440FE909752B6
:10225000F0EF4EF09004FDE064017029909753E098
:10226000FF90414A93FE74232511F582E43495F5DD
:1022700083E0C39E4006EF9040DA8030909753E0B1
:102280009040F68027909753E0FF90414A93FE7468
:10229000232511F582E43495F583E0C39E4006EFD3
:1022A0009041128007909753E090412E9390975A57
:1022B000F090975AE075F006A42450F9744035F078
:1022C0007513FFF5148915909752E09041F293FF32
:1022D000D3909759E09F909758E094004009E4FD0F
:1022E000AF1112695AC1F8E51125E024E1F582E445
:1022F0003492F583E0F519A3E0F51AAB13AA14A9FB
:1023000015122462FF7E00AB16AA17A91812429775
:10231000FDACF012247BEF251AF51AEE3519F519EC
:10232000AB13AA14A915900001124220FF7E00AB46
:1023300016AA17A9189000021242C2FDACF012248E
:102340007BEF251AF51AEE3519F519AB13AA14A966
:1023500015900002124220FF7E00AB16AA17A918A2
:102360009000041242C2FDACF012247BEF251AF556
:102370001AEE3519F519AB13AA14A915900003121A
:102380004220FF7E00AB16AA17A918900006124241
:10239000C2FDACF012247BEF251AF51AEE3519F5C3
:1023A00019AB13AA14A915900004124220FF7E0055
:1023B000AB16AA17A9189000081242C2FDACF01281
:1023C000247BEF251AF51AEE3519F519AB13AA146B
:1023D000A915900005124220FF7E00909756E0FC60
:1023E000A3E0FD12247BD3E51A9FE5199E400CE57E
:1023F0001A9FF51AE5199EF5198005E4F519F51AE5
:10240000E51125E024E1F582E43492F583E519F045
:10241000A3E51AF0909752E025E02466F582E434B3
:1024200041F583C3740193951AE49395195006AF4F
:1024300011F16DC1CC909752E025E0249EF582E425
:102440003441F583D3740193951AE493951950029E
:10245000C1CC7D01AF1112695AC1CC74642511F54C
:1024600082E43496F583E0FC64056002A1D6909383
:1024700022E0FFB4030B909753E0C39419403D80D2
:102480002EEFB4020B909753E0C39411402E801F9F
:10249000909322E0FFB4010B909753E0C3940A405D
:1024A0001B800CEF7011909753E0C39403400D9084
:1024B00095437401F08005E4909543F07443251131
:1024C000F582E43494F583E0F51B74232511F5823D
:1024D000E43495F583E0FFC394305002A1839095D6
:1024E00043E064016002A18374442511F582E43461
:1024F00095F583E0640A6051EF2405FFE433FE7430
:10250000212511F582E43492F583E0FDD39FEE643A
:1025100080F87480985032ED2405FFE433FE742374
:102520002511F582E43495F583E0D39FEE6480F8BD
:10253000748098501474842511F582E43496F583E0
:10254000E0FF909753E06F603D74232511F582E41E
:102550003495F583E0FFD394424005751B05800E4A
:10256000EFD394394005751B038003751B0174215B
:102570002511F582E43492F583EFF074442511F5CA
:1025800082E43495802974642511F582E43496F54B
:1025900083E4F074442511F582E43495F583E00476
:1025A000F08010E4F51B74642511F582E43496F58F
:1025B00083E4F0909753E0FF74842511F582E434AE
:1025C00096F583EFF074432511F582E43494F58396
:1025D000E51BF075F009E51190932B12435FE0B411
:1025E0000110E4F51B74642511F582E43496F5833B
:1025F000E4F0AD1BC1C8EC64066002C1CCF519F56E
:102600001A90421393FF7E00909756E0FCA3E0FDE2
:1026100012247B909754EEF0A3EFF074432511F54C
:1026200082E43494F583E0F51BE4F512AB16AA17A7
:10263000A91875F002E512A4F58285F0831242C252
:10264000FDACF0E51290420E93FF7E0012247BEF6A
:10265000251AF51AEE3519F519C3909755E0951A14
:10266000909754E0951940070512E512B405BDE5B1
:1026700012C313F512E51BB40106E5127046801370
:10268000E51BB40315E5127005751B038039E512CF
:10269000B40105751B01802F802AE51BB40528E5D0
:1026A000127005751B05800DE512B40105751B033D
:1026B0008003751B01D3909759E09403909758E0DD
:1026C00094004003E4F51BD3909759E0940390974E
:1026D00058E094004003E4F51B74432511F582E4AF
:1026E0003494F583E51BF0FDAF113124746425119A
:1026F000F582E43496F583E0D394057464500E2596
:1027000011F582E43496F583E004F0800B2511F591
:1027100082E43496F583E4F0AB16AA17A918E4F521
:10272000F01242FAAB16AA17A918900002E4F5F0CD
:10273000124319900004E4F5F0124319900006E4E6
:10274000F5F0124319900008E4F5F0124319E51171
:1027500025E024C0F582E43491F583E4F0A3F0E5AC
:102760001125E02463F582E43494F583E4F0A3F0CA
:10277000E51125E024A3F582E43494F583E4F0A385
:10278000F00511E511C394205002216722A90774B6
:102790008429F582E43404F583E0547FF51C541F4A
:1027A000FD75F009E990932712435FE0FF90975C75
:1027B000F0E925E02481F582E43492F583E0FBA37F
:1027C000E090975DCBF0A3EBF0E925E024E4F582FF
:1027D000E43495F583E0FBA3E090975FCBF0A3EBA7
:1027E000F0ED25E02466F582E43441F583E493FAC4
:1027F000740193FBE925E024E1F582E43492F5834A
:10280000EAF0A3EBF0EDC39F400302687074A529C2
:10281000F582E43496F583EDF004FC90975CE0FFDC
:10282000ECD39F400201A1ECC394104021EC24F0B2
:10283000FF74017E00A807088005C333CE33CED8CD
:10284000F9FF90975DE05EFEA3E05F4E7023ECC35E
:102850009410503974017E00A804088005C333CE5B
:1028600033CED8F9FF90975FE05EFEA3E05F4E6045
:102870001CEC64136008EC64126003BC11099097AF
:102880005DE030E0027C18AD048D1C80340C808B40
:1028900090975CE0FC6D706974A529F582E434962C
:1028A000F583EDF075F009E990932912435FE0B4E8
:1028B000010CE51C20E607ED4440F51C8003AF1C2D
:1028C00022ED25E0249EF582E43441F583E493FE75
:1028D000740193FFED25E02466F582E43441F5832D
:1028E0007401932FFFE4933EC313FEEF13FFE9251A
:1028F000E024E1F582E43492F583EEF0A3EFF0807A
:102900005BEDD39C405690975CE0FF74A529F5825F
:10291000E43496F583EFF0AD078F1CED25E0249E9F
:10292000F582E43441F583E493FE740193FFED25D1
:10293000E02466F582E43441F5837401932FFFE4CB
:10294000933EC313FEEF13FFE925E024E1F582E493
:102950003492F583EEF0A3EFF0AF1C22740129F559
:1029600082E43492F583E4F0E51C4480FF7484290A
:10297000F582E43404F583EFF022AA0774842AF583
:1029800082E43404F583E0547FFB541FF990975E92
:10299000F075F009EA90932812435FE0909760F099
:1029A00075F009EA90932712435FE0909761F0FC7D
:1029B000EA25E024E4F582E43495F583E0FFA3E022
:1029C000909762CFF0A3EFF0EA25E02481F582E44E
:1029D0003492F583E0FFA3E0909764CFF0A3EFF08B
:1029E000E9D39C4009909761E090975EF0FBED7011
:1029F00002419D90975FEDF0EB30E60990975EE025
:102A0000FBA3E014F090975FE07002419D90975E09
:102A1000E0FFD394005002419DE490975DF0EF14E5
:102A200090975CF0909760E0F990975CE0FED39906
:102A30004072EE94104025EE24F0FF74017E00A851
:102A400007088005C333CE33CED8F9FF909764E0F2
:102A5000FCA3E0FDEC5EFEED5F4E702B90975CE01A
:102A6000FFC39410503674017E00A807088005C388
:102A700033CE33CED8F9FF909762E0FCA3E0FDECB3
:102A80005EFEED5F4E601590975CE0FBA3E004F006
:102A900090975FE0FF90975DE06F600890975CE033
:102AA00014F0808090975FE0FF90975DE0C39F50A7
:102AB0000C90975CE0B50105909760E0FBEB25E09A
:102AC000249EF582E43441F583E493FE740193FF80
:102AD000EB25E02466F582E43441F583E493FC744D
:102AE00001932FFFEC3EC313FEEF13FFEA25E02412
:102AF000E1F582E43492F583EEF0A3EFF074842ADA
:102B0000F582E43404F583EBF0FF22900444741161
:102B1000F0A374F0F0A3740FF0A3E4F0FD74A42DFF
:102B2000F582E43404F583E4F00DBD10F0E4FD75A6
:102B3000F00AED90900012435FE4F0A3F075F00A04
:102B4000ED90900212435FE4F0A3F075F00AED906F
:102B5000900412435FE4F0A3F075F00AED90900644
:102B600012435FE4F0A3F075F00AED909008124371
:102B70005FE4F0A3F074842DF582E43496F5837459
:102B800013F074442DF582E43495F583E4F0744336
:102B90002DF582E43494F583E4F0ED25E024C0F5CE
:102BA00082E43491F583E4F0A3F0ED25E02463F5AD
:102BB00082E43494F583E4F0A3F0ED25E024E3F51A
:102BC00082E43494F583E4F0A3F0ED25E024A3F54A
:102BD00082E43494F583E4F0A3F0ED25E02464F579
:102BE00082E43495F583E4F0A3F0ED25E024A4F528
:102BF00082E43495F583E4F0A3F074442DF582E487
:102C00003496F583E4F074242DF582E43496F5834C
:102C1000E4F074642DF582E43496F583E4F0904199
:102C2000C493FE740193FF90418C7401932FFFE4D1
:102C3000933EC313FEEF13FFED25E024E1F582E49C
:102C40003492F583EEF0A3EFF075F009ED90932A3E
:102C500012435F7401F075F009ED90932912435F00
:102C60007401F074C12DF582E43492F583740CF094
:102C700075F009ED90932512435F74FFF0A3F07592
:102C8000F009ED90932312435FE4F0A3740FF07505
:102C9000F009ED90932712435F7413F075F009ED7E
:102CA00090932812435FE4F074842DF582E4340499
:102CB000F5837413F00DED64206002610F2290061D
:102CC0003474FFF0E4A3F0A3F0A3F02222E4909781
:102CD00085F0A2AF33909753F0900080E020E11A86
:102CE00012322B12322B909752E06401F0E024ADA7
:102CF0009001C4F0746CA3F080DF9006307401F092
:102D0000C2AF900080E04480F01244D6909753E028
:102D100024FF92AF228E118F128B138A148915E42F
:102D2000909752F0EF900031F01244D6E511540321
:102D3000FF900032E054FC4FF01244D6900033E094
:102D4000547FF01244D6900033E020E70E90975263
:102D5000E0C394645005E004F080EB909752E0C328
:102D600094645010900030E0AB13AA14A9151242DD
:102D70004D7F01227F0022E4F526227F0BB1BEEFBA
:102D800065266010E526B40105E4F5268003752666
:102D9000017F01227F0022E52364017040B15BBF07
:102DA00001057F011244E6900046E04404FD7F46A1
:102DB000124720900044E054FBFD7F4412472090CE
:102DC0000046E054FBFD7F461247207F02B1BE8FD4
:102DD000279001C9E527F0B401031247DB22D31085
:102DE000AF01C3C0D09097A5EFF0D394075047E050
:102DF000FF7401A807088002C333D8FCF4FF9000D9
:102E000046E05FF01244D69097A5E0FD74017E0085
:102E1000A805088005C333CE33CED8F9FF9000440F
:102E2000E0FBE4FEEF5BA805088006CEA2E713CE28
:102E300013D8F8FF80449097A5E024F8F0E0FF74E1
:102E400001A807088002C333D8FC1244CE9097A58E
:102E5000E0FD74017E00A805088005C333CE33CEA3
:102E6000D8F9FF900042E0FBE4FEEF5BA805088084
:102E700006CEA2E713CE13D8F8FFD0D092AF22E44B
:102E800090979DF0A3F09005F8E0700FA3E0700B11
:102E9000A3E07007A3E070037F0122D390979EE028
:102EA00094E890979DE0940340037F00227F327E58
:102EB0000012321590979DE475F00112428180C690
:102EC000900011E04409F01244D690971D1243532C
:102ED0009080961225087F787E08122B0890972103
:102EE0001243539080961225087F047E0C122B0803
:102EF0009097251243539080961225087F007E08F4
:102F0000122B089097291243539080961225087F20
:102F1000707E0E122B0890806812251400032D95E8
:102F2000E4FDFF12302C909787E0B4011190806887
:102F300012251400032D95E4FD7F0112302C227F11
:102F4000787E0812226590971D1225087F047E0C5A
:102F50001222659097211225087F007E08122265B3
:102F6000909725122508909787E090971DB4010D42
:102F7000124353EF54C7FFED54C7FD80071243536C
:102F8000EF54C7FFEC9080961225087F787E0812D8
:102F90002B08909721124353EF540FFFEC9080962B
:102FA0001225087F047E0C122B089097251243539C
:102FB000EF4402FFEC9080961225087F007E0812F5
:102FC0002B087F707E0E122265909729122508909B
:102FD0008096122514001B25A07F707E0E122B08F0
:102FE00090806812251400000000E4FDFF12302CD0
:102FF000909787E0B40111908068122514000000BA
:1030000000E4FD7F0112302C900011E054F6F00234
:1030100044D6909787E090972DF022EF700221B16F
:1030200090972DE06002A17C9097191243539080F5
:10303000961225087F8C7E08122B089096C51243A5
:10304000539080961225087F447E08122B08909694
:10305000C91243539080961225087F5C7E08122B7C
:10306000089096CD1243539080961225087F6C7E6F
:103070000E122B089096D112435390809612250879
:103080007F707E0E122B089096D512435390809637
:103090001225087F747E0E122B089096D912435386
:1030A0009080961225087F787E0E122B089096DD70
:1030B0001243539080961225087F7C7E0E122B08B7
:1030C0009096E11243539080961225087F807E0EE1
:1030D000122B089096E51243539080961225087F94
:1030E000847E0E122B089096E9124353908096121C
:1030F00025087F887E0E122B089096ED1243539080
:1031000080961225087F8C7E0E122B089096F11265
:1031100043539080961225087FD07E0E122B089084
:1031200096F51243539080961225087FD47E0E1296
:103130002B089096F91243539080961225087FD859
:103140007E0E122B089096FD124353908096122506
:10315000087FDC7E0E122B0890970112435390805B
:10316000961225087FE07E0E122B089097051243D9
:10317000539080961225087FEC7E0E122B089097B4
:10318000091243539080961225087F047E0C122B5F
:103190000890970D1243539080961225087F047E65
:1031A0000D122B0890971112435390809612250808
:1031B0007F0C7E09122B089097151243539080962E
:1031C0001225087F047E08122B0890972D7401F0B9
:1031D0002290972DE064016002A17C7F8C7E081212
:1031E00022659097191225087F447E081222659067
:1031F00096C51225087F5C7E081222659096C9123A
:1032000025087F6C7E0E1222659096CD1225087FD0
:10321000707E0E1222659096D11225087F747E0E64
:103220001222659096D51225087F787E0E122265AF
:103230009096D91225087F7C7E0E1222659096DD2D
:103240001225087F807E0E1222659096E1122508D5
:103250007F847E0E1222659096E51225087F887E77
:103260000E1222659096E91225087F8C7E0E12229E
:10327000659096ED1225087FD07E0E1222659096FD
:10328000F11225087FD47E0E1222659096F5122544
:10329000087FD87E0E1222659096F91225087FDCF1
:1032A0007E0E1222659096FD1225087FE07E0E129A
:1032B00022659097011225087FEC7E0E1222659000
:1032C00097051225087F047E0C122265909709123B
:1032D00025087F047E0D12226590970D1225087F28
:1032E0000C7E091222659097111225087F047E0832
:1032F0001222659097151225087F8C7E0812226590
:10330000909799122508909799124353ED44C0FD68
:10331000EC909799122508909799124353908096B4
:103320001225087F8C7E08122B0890809612251497
:10333000000100007F447E08122B08908096122521
:103340001400DB25A47F5C7E08122B089080961267
:10335000251420DB25A47F6C7E0E122B089080960E
:1033600012251420DB25A47F707E0E122B0890807E
:1033700096122514041B25A47F747E0E122B089030
:103380008096122514041B25A47F787E0E122B082C
:10339000908096122514041B25A47F7C7E0E122B90
:1033A00008908096122514041B25A47F807E0E129F
:1033B0002B0890809612251463DB25A47F847E0E53
:1033C000122B08908096122514041B25A47F887E5A
:1033D0000E122B0890809612251420DB25A47F8CDA
:1033E0007E0E122B0890809612251420DB25A47FD8
:1033F000D07E0E122B0890809612251420DB25A477
:103400007FD47E0E122B0890809612251420DB2587
:10341000A47FD87E0E122B08908096122514001BD4
:1034200025A47FDC7E0E122B0890809612251400B6
:103430001B25A47FE07E0E122B0890809612251487
:1034400024DB25A47FEC7E0E122B087F047E0C1259
:103450002265909799122508909799124353E4FF9B
:10346000EC909799122508909799124353EF4411C5
:10347000FFEC9097991225089097991243539080EA
:10348000961225087F047E0C122B087F047E0D12F5
:103490002265909799122508909799124353EF54FB
:1034A000F0FFEC909799122508909799124353EFEB
:1034B0004401FFEC90979912250890979912435375
:1034C0009080961225087F047E0D122B087F0C7EBB
:1034D00009122265909799122508909799124353E3
:1034E000E4FFEC909799122508909799124353EFB7
:1034F0004411FFEC90979912250890979912435325
:103500009080961225087F0C7E09122B087F0C7E76
:1035100009122265909799122508909799124353A2
:10352000ED540FFDEC54F0FC9097991225089097FC
:1035300099124353ED4410FDEC4401FC909799120D
:1035400025089097991243539080961225087F0C76
:103550007E09122B087F047E08122265909799122B
:103560002508909799124353EF54F0FFEC909799E8
:10357000122508909799124353EF4401FFEC90975E
:103580009912250890979912435390809612250816
:103590007F047E08122B08E490972DF022D310AF01
:1035A00001C3C0D09097A0EDF090979FEFF0D39417
:1035B000075065E0FF7401A807088002C333D8FCF8
:1035C000F4FF900047E05FF01244D690979FE0FF31
:1035D0007401A807088002C333D8FCFF900046E0BE
:1035E0004FF01244D69097A0E0601690979FE0FFAE
:1035F0007401A807088002C333D8FCFF90004580FF
:103600006890979FE0FF7401A807088002C333D831
:10361000FCF4FF900045806D90979FE024F8F0E067
:10362000FF7401A807088002C333D8FCC454F01209
:1036300044CE90979FE0FF7401A807088002C3332F
:10364000D8FCFF900043E04FF01244D69097A0E0E2
:10365000601B90979FE0FF7401A807088002C333A6
:10366000D8FCC454F0FF900042E04F801A90979F1E
:10367000E0FF7401A807088002C333D8FCC454F0EB
:10368000F4FF900042E05FF01244D6D0D092AF2217
:103690008B118A12891390000212422090973BF0FE
:1036A000E030E04B9097327401F07F807E08122268
:1036B00065909734122508AB11AA12A91390000146
:1036C000124220FFE4FCFDFE781A1224F5A804A99A
:1036D00005AA06AB07909734124353EC5403FC122F
:1036E000434690973E122508900522E4F0802DE491
:1036F000909732F07F807E08122265EC5403FCEC38
:1037000044C0FC909734122508909734124353908C
:1037100080961225087F807E08122B0890973BE048
:1037200030E11B7D0C7F47124720900048E0440C9D
:10373000FD7F48124720900046E04410801E900014
:1037400047E054F3FD7F47124720900048E054F3D0
:10375000FD7F48124720900046E054EFFD7F46125F
:103760004720E4909738F022E4FD7F4512472090EF
:1037700004FDE4F0A3F090973CF0909742F090970E
:1037800045F0909743F0909746F0909744F09097CB
:1037900047F090972E04F0E4A3F0A3F0A3F09097E5
:1037A00033F0909738F090973AF090974CF09097CC
:1037B0003DF0909739F0909732F0900051E044C07E
:1037C000FD7F5102472090974CE06401600990977B
:1037D0003AE0600302787E90972EE0C394FF500594
:1037E000E004F0803B90972FE0C394FF5006E00484
:1037F000F0E48028909730E0C394FF500AE004F092
:10380000E490972FF08015909731E0C394FF50100B
:10381000E004F0E4909730F090972FF090972EF01E
:10382000900044E0540C6076E030E232909742E041
:10383000C394FF5005E004F08024909743E0C394C4
:10384000FF5006E004F0E48011909744E0C394FF39
:10385000500CE004F0E4909743F0909742F0900011
:1038600044E030E332909745E0C394FF5005E00414
:10387000F08024909746E0C394FF5006E004F0E403
:103880008011909747E0C394FF500CE004F0E4905F
:103890009746F0909745F09004FDE04401F02290A7
:1038A000000212422090973AF09000011242202527
:1038B000E025E0909739F012246225E025E090970A
:1038C0003DF0900560E0909748F0900561E090979A
:1038D00049F0900562E090974AF0900563E0909778
:1038E0004BF0A2AFE43390975DF0C2AF909739E010
:1038F000FF124A6290975DE024FF92AF90973AE002
:1039000070022189909739E07002218990973DE0FB
:1039100070022189A2AFE43390975DF0C2AF909717
:103920004C7401F090975DE024FF92AF124717901E
:103930000046E04401FD7F46124720909732E06048
:103940001590973E1243539080961225087F807EF3
:1039500008122B088006900522747FF0900045E045
:1039600054EFFD7F45124720900587E06480F0907A
:103970009748E0900584F0909749E0900585F09095
:10398000974AE0900586F090974BE0900587F0A26B
:10399000AFE43390975DF0C2AF90013CE04420F07B
:1039A0007D20E4FF1231B7802D90973AE0702F9080
:1039B000974C124716900046E054FEFD7F46124792
:1039C00020900522E4F0A2AF3390975DF0C2AF7D66
:1039D00020E4FF12314990975DE024FF92AF22006E
:0239E000871747
:00000001FF
