:10000000E18810000800000010252156B02B0000E8
:10001000A20400000000000000000000000000003A
:100020000245350000000000000000000000000054
:10003000000000C1560000000000000000000000A9
:1000400000000000000000000000000000000000B0
:1000500000000000000000000000000000000000A0
:10006000000000A1CD000000000000E1FC00000045
:100070000000000000000000000000000000000080
:100080000000000000000000000000000000000070
:100090000000000000000000000000000000000060
:1000A0000000000000000000000000000000000050
:1000B0000000000000000000000000000000000040
:1000C0000000000000000000000000000000000030
:1000D0000000000000000000000000000000000020
:1000E0000000000000000000000000000000000010
:1000F0000000000000000000000000000000000000
:1001000000000000000000000000000000000000EF
:1001100000000000000000000000000000000000DF
:1001200000000000000000000000000000000000CF
:1001300000000000000000000000000000000000BF
:1001400000000000000000000000000000000000AF
:10015000000000000000000000000000000000009F
:10016000000000000000000000000000000000008F
:10017000000000000000000000000000000000007F
:10018000000000000000000000000000000000006F
:10019000000000000000000000000000000000005F
:1001A000000000000000000000000000000000004F
:1001B000000000000000000000000000000000003F
:1001C000000000000000000000000000000000002F
:1001D000000000000000000000000000000000001F
:1001E000000000000000000000000000000000000F
:1001F00000000000000000000000000000000000FF
:1002000000000000000000000000000000000000EE
:1002100000000000000000000000000000000000DE
:10022000C2AF80FE3212420485D00B75D008AAE01E
:10023000C28CE58A2467F58AE58C3479F58CD28CFA
:10024000EC2489F8E6BC030274FFC39581B4400036
:1002500040CE7904788016E608700BC2AFE630E134
:10026000034418F6D2AF08D9EDEA8BD022E50CFF93
:10027000232481F80F0808BF04047F007881E6304A
:10028000E4F200E50CC39F5020050C7488250CF89F
:10029000E6FDA68108E6AE0CBE030274FFCDF8E8C9
:1002A0006D60E008E6C0E080F6E50CD39F4027E5EE
:1002B0000C2489F8E6AE0CBE030274FFFD18E6CDEF
:1002C000F8E5816D6006D0E0F61880F5E50C24882D
:1002D000C8F6150C80D3E50C232481F87F04C2AF47
:1002E000E630E00310E20C7F0030E10730E3047FEA
:1002F0000854F4547CC6D2AF54804207227888A6B2
:100300008174036006FF0876FFDFFB7F04E47880DA
:10031000F608F608DFFA788176309045C5740193C7
:10032000C0E0E493C0E0438901758A60758C79D29E
:100330008CD2AF2203EFD3940340037FFF2274815A
:100340002F2FF8E620E5F4C2AFE64430F6D2AFAE88
:100350000CEEC39F50210E74882EF8E6F908E618BB
:10036000BE030274FFFDED69600909E71919F70979
:100370000980F3161680DAEED39F400405810581CB
:10038000EED39F402274882EF808E6F9EEB50C02F1
:10039000A981180606E6FDED6960091919E7090942
:1003A000F71980F31E80D9EF2488F8E604F8EF2FC0
:1003B000049045C593F608EF2F93F67F0022EFD304
:1003C000940340037FFF22EF232481F8E630E5F415
:1003D000C2AFE6548CF6D2AFE50CB5070A74882F8D
:1003E000F8E6F58102424D502E74892FF8E6BF03DE
:1003F0000274FFFD18E6F974882FF8FBE6FCE96C3F
:100400006008A805E7F61D1980F4A803A6051FE5F6
:100410000CB507E37F002274892FF8E6FD188601EA
:100420000F74882FF8A601088604E50CB50702AC06
:1004300081ED6C60080D09A805E6F780F4E50CB5C0
:1004400007DE89817F0022EFD3940340037FFF22E0
:10045000EF232481F8C2AFE630E50530E002D2E4B4
:10046000D2E2C6D2AF7F0030E2010F02424C8FF0E1
:10047000E4FFFEE50C232480F8C2A930F70D7F08C5
:10048000E6600B2DF66030502E800730F106EDF659
:1004900060257E020830F010C2AFE610E7230E3070
:1004A000E20CD2AF7F048012C2AFE610E71354EC27
:1004B0004EF6D2AF02424D7F0808EF4483F4C2AF3C
:1004C00056C6D2AF54804FFF22C5F0F8A3E028F003
:1004D000C5F0F8E582158270021583E038F022EF4E
:1004E0005BFFEE5AFEED59FDEC58FC22EF4BFFEEA0
:1004F0004AFEED49FDEC48FC22E0FCA3E0FDA3E050
:10050000FEA3E0FF22E0F8A3E0F9A3E0FAA3E0FBFA
:1005100022A42582F582E5F03583F58322E0FBA352
:10052000E0FAA3E0F922EBF0A3EAF0A3E9F022D08D
:1005300083D082F8E4937012740193700DA3A39397
:10054000F8740193F5828883E4737402936860EF12
:10055000A3A3A380DF0245730242DDE493A3F8E482
:1005600093A34003F68001F208DFF48029E493A30B
:10057000F85407240CC8C333C4540F4420C8834024
:1005800004F456800146F6DFE4800B0102040810F3
:100590002040809045B8E47E019360BCA3FF543FA7
:1005A00030E509541FFEE493A360010ECF54C0252B
:1005B000E060A840B8E493A3FAE493A3F8E493A31B
:1005C000C8C582C8CAC583CAF0A3C8C582C8CAC57F
:1005D00083CADFE9DEE780BE004181970041819850
:1005E000004181A4005134574A57365829C0E0C011
:1005F000F0C083C082C0D075D000C000C001C0026E
:10060000C003C004C005C006C0079001C474CDF08B
:100610007445A3F0D11C74CD049001C4F07445A3BB
:10062000F0D007D006D005D004D003D002D001D03E
:1006300000D0D0D082D083D0F0D0E032900054E00F
:100640005535F539A3E05536F53AA3E05537F53B76
:10065000A3E05538F53CAD397F5412321EAD3A7FD8
:100660005512321EAD3B7F5612321EAD3C7F5712E3
:10067000321E5391EF22C0E0C0F0C083C082C0D0D0
:1006800075D000C000C001C002C003C004C005C0D6
:1006900006C0079001C47456F07446A3F01263229A
:1006A000E54130E4047F029127E54330E002D1F4D4
:1006B000E54330E103124DBBE54330E203124E0A3D
:1006C000E54330E30312637FE54330E402F1B0E534
:1006D0004330E502F1DEE54330E602F18BE54430DC
:1006E000E102D1EA7456049001C4F07446A3F0D03C
:1006F00007D006D005D004D003D002D001D000D05E
:10070000D0D082D083D0F0D0E0329080E7E0600398
:10071000124E842290810AE0600FE4F0900553E0CD
:100720004402F09005FCE004F0E4FF9080E7E06014
:10073000799080A3E0640170719080E6E0C4540F6A
:10074000602424FE600304701F9080EEE014F0E04B
:10075000FE60069080F0E0600FEE70069080EDE0A5
:10076000A3F07F0180027F01EF603F9080EBE044C7
:1007700010F09080F0E06003B40109E4F51D908072
:10078000F0E0800DE4F51D9080F0E075F003A42406
:10079000FEFF9080EFE02F124EF39001577405F0AA
:1007A0009080EAE020E203124AC0229080A3E0B4E5
:1007B00001139080E7E0600D9080EBE054FEF05470
:1007C000077002F1A6229080E9E0FF7D01024AC491
:1007D0009080A3E0640170259080E7E0601F9001A5
:1007E00057E4F090013C7402F09080E4E054FBF098
:1007F0009080EBE054FDF054077002F1A622908047
:10080000A3E0B401169080E7E060109080E6E05429
:100810000F64026003026A4A124E3D22C0E0C0F03B
:10082000C083C082C0D075D000C000C001C002C06B
:1008300003C004C005C006C0079001C474FCF07476
:1008400047A3F012634FE54930E1021194E54930C6
:10085000E2031263A1E54930E3031263DDE54A30A8
:10086000E003126419E54A30E4031264B8E54C3041
:10087000E1057F03124427E54C30E402119EE54C6C
:1008800030E5031264CEE54C30E60312656474FC77
:10089000049001C4F07447A3F0D007D006D005D06F
:1008A00004D003D002D001D000D0D0D082D083D0E9
:1008B000F0D0E0329080E7E06003126AFB22B12AB8
:1008C0009080EDE014900573F07D027F02516390FB
:1008D0008101E030E02D9080A3E0B401269081A456
:1008E000E004F0E0B40A0B908103E004F0E49081AE
:1008F000A4F0908103E0FF908102E0B50705E4A336
:10090000F011E422E4FF8F5390041DE0601890057D
:1009100022E0F55674FFF0F1F1BF0102315C900561
:1009200022E556F08002315C90041F7420F07F01B4
:1009300022741F2DF582E434FCF583E0543FF0EF80
:10094000601D74212DF582E434FCF583E04410F041
:10095000741F2DF582E434FCF583E04480F02274AA
:10096000212DF582E434FCF583E054EFF0741F2D63
:10097000F582E434FCF583E04440F022908004E00A
:10098000FF7D0131F98E548F55AD55AC54AF5331C5
:1009900011AF55AE54900480E0540FFDAC077411B4
:1009A0002CF582E434FCF583E04401F074112CF55D
:1009B00082E434FCF583E054FBF0AC0774162CF5AC
:1009C00082E434FCF583E044FAF074152CF582E4FB
:1009D00034FCF583E0441FF0AC0774062CF582E488
:1009E00034FCF583E0440FF0900453E4F09004529B
:1009F000F090045174FFF090045074FDF074142CC6
:100A0000F582E434FCF583E054C04DFD74142FF5F9
:100A100082E434FCF583EDF022D310AF01C3C0D0E3
:100A200090819CEDF090819BEFF0E4FDFC126B59FE
:100A30007C00AD0790819BE0900425F090819CE0C4
:100A4000600E740F2FF582E434FCF583E04480F0EF
:100A5000AF0574082FF582E434FCF583E4F07409E3
:100A60002FF582E434FCF583E054F0F074212DF589
:100A700082E434FCF583E054F7F0AE04AF05D0D047
:100A800092AF22743D2FF8E64DFEF674302FF582BA
:100A9000E43401F583EEF0229001367478F0A3740B
:100AA00002F07D78FF51637D027F03516390060A57
:100AB000E04407F09080F2A3E0900558F09080A306
:100AC000E0B401149080E5E054FBF09080EAE0206F
:100AD000E20D7D017F04800C9080E5E04404F0226B
:100AE0007D017F04D310AF01C3C0D09081A1EDF090
:100AF0009080EAE09081A2F09080E4E0FEC41313BD
:100B0000540330E0028116EEC4131313540130E095
:100B10000281169081A2E0FE6F70028116EF7002D2
:100B2000618D24FE700261C624FE604924FC7002BF
:100B3000810124FC60028116EEB40E029196908130
:100B4000A2E070047F0191BE9081A2E0B406029100
:100B5000709081A2E0B4040E9081A1E0FF600512C4
:100B600069828002F1579081A2E0640860028116D8
:100B700012668781169081A2E070047F0191BE9079
:100B800081A2E0B4060291709081A2E0B40E0791B8
:100B90001BBF010291969081A2E0640C6002811655
:100BA000911BEF64016002811691D881169081A299
:100BB000E0B40E07911BBF010291969081A2E0B4B0
:100BC000060291709081A2E0B40C07911BBF010254
:100BD00091D89081A2E06404705C1268D4EF640143
:100BE0007054B10E80509081A2E0B40E07911BBFEB
:100BF000010291969081A2E0B4060291709081A2C8
:100C0000E0B40C07911BBF010291D89081A2E07063
:100C1000047F0191BE9081A2E0B4041A1269C480DD
:100C2000159081A2E0B40C0E9080E5E0FF13135400
:100C30003F30E002F1E7D0D092AF22F16AEF6401D9
:100C400060089001B87401F0803D9080E4E0FF13EB
:100C50001313541F30E0089001B87402F08028EF9D
:100C6000C4540F30E0089001B87404F080199080EB
:100C7000E9E0D3940440089001B87408F08008902B
:100C800001B8E4F07F01229001B97402F07F0022E4
:100C90009080E5E090060420E00CE04440F0908075
:100CA000EA7404F0800AE0547FF09080EA740CF05B
:100CB000900522E4F0229080E5E0C31320E0089044
:100CC00080EA740CF08011900604E04440F0E044A7
:100CD00080F09080EA7404F0900522E4F022908184
:100CE000A3EFF012660C9081A3E06005900522E46A
:100CF000F09080EA7404F0229080A3E06401702DEB
:100D00009080E5E054FDF0900522746FF07F0111B2
:100D1000E6BF010E9080E4E04480F09080EA740E1B
:100D2000F0229001B97401F09001B804F02290050E
:100D30002274FFF0F1F19001377402F0FD7F03514E
:100D400063126690E49080EAF0229080E7E0602DE4
:100D50009080A3E0640170259080EEF004601E9006
:100D600080EBE04410F0E4F51D9080EFD1F29001AB
:100D7000577405F09080EAE020E20251C022EF7043
:100D8000367D787F02B1A37D027F03B1A37DC87F4A
:100D90000212676E900157E4F090013C7402F07DFE
:100DA000017F0C51C49080E4E054F7F054EFF090D0
:100DB000060AE054F8F02241787D027F02B1A37D5B
:100DC000017F02743D2FF8E6FEEDF45EFEF674300E
:100DD0002FF582E43401F583EEF0229080E7E060A5
:100DE000459080E5E0FF131313541F30E01290018B
:100DF0003BE030E40BB1999080EDE014900573F086
:100E0000908199E475F0011244A9C390819AE0940D
:100E100080908199E064809480400B900198E05428
:100E2000FEF0E04401F0F1B301AF9080EAE064022B
:100E3000602A126A659080E5E0131313541F30E0B6
:100E4000159080EDE0FFA3E06F700B12674AB19937
:100E50009080EEE014F09001E6E004F02290015F53
:100E6000E4F090013C7408F0E4F51D9080FAE0C3D2
:100E700013547FF51EE4FBFD7F5C7E01D1FC9001E5
:100E80005F7405F09006927402F09080E4E04410E4
:100E9000F09080EAE0640C600AE4FD7F0C51C4E449
:100EA000FF11E6229080E7E06401705E9080E6E04A
:100EB000540F604E9080EAE07003FF91BE9080EA8C
:100EC000E0640C6002F15790015BE4F090013C7427
:100ED00004F0F16AEF64017031F51D9080FAE0C30F
:100EE00013547FF51EE4FBFD7F587E01D1FC900179
:100EF0005B7405F09006927401F09080E4E0440881
:100F0000F0229080EAE0700251C022F0E4F51D90DA
:100F100080F9E0F51EE4FBFD7F547E018E198F1AE7
:100F2000E51E5407C43354E0851983851A82F0E521
:100F30001D5407C43354E0FFE51E131313541F4F11
:100F4000A3F0EB5407C43354E0FFE51D131313540F
:100F50001F4F851A82851983A3A3F0BD010C851A42
:100F6000828E83A3A3A37403F022851A828519833A
:100F7000A3A3A37401F022900604E0547FF090052F
:100F800022E4F09080EA740CF02290041AE0F460FD
:100F9000037F002290041BE0540764077F01600276
:100FA0007F00229081781245061268929080E7E0D7
:100FB000FFB15E9080E7E060199081781244FD9067
:100FC0000001121FBD540FFF900002121FBDFD1241
:100FD00068A322908104E030E02C908107E004F0C7
:100FE000E0FF908105E0B5071D900692E0541C706B
:100FF0000A11E4908108E004F08006900692741CC7
:10100000F0E4908107F0221266909080EA7408F074
:1010100022E490819DF0A3F09005F8E0700FA3E02A
:10102000700BA3E07007A3E070037F0122D39081CF
:101030009EE094E890819DE09403400A9001C0E016
:101040004420F07F00227F327E001232AA90819DE0
:10105000E475F0011244A980BF9000F7E020E70991
:10106000E07F0120E60C7F02229000F7E030E602EC
:101070007F03221139908001EFF0116590016474B3
:1010800001F0022DA711D33103119211B1E4F5350E
:10109000F536F537F538AD357F5012321EAD367F57
:1010A0005112321EAD377F5212321EAD387F5302BD
:1010B000321E753D10E4F53E753F07754002900104
:1010C00030E53DF0A3E53EF0A3E53FF0A3E540F0B9
:1010D0002275450E754601434610754703754862F3
:1010E000900138E545F0A3E546F0A3E547F0A3E518
:1010F00048F022900130E4F0A3F0A3F0A3F09001B7
:1011000038F0A3F0A3F0A3F0FD7F5012321EE4FDEF
:101110007F5112321EE4FD7F5212321EE4FD7F53D6
:1011200002321E90013474FFF0A3F0A3F0A3F090FC
:10113000013CF0A3F0A3F0A3F0FD7F5412321E7D1A
:10114000FF7F5512321E7DFF7F5612321E7DFF7FBC
:101150005702321E900080E04480FD7F8012321ED4
:1011600090FD00E054BFF031C0123277717B31A79F
:101170007F011243159081007402F0FF1243159015
:101180008100E004F07F03124315908100E004F039
:101190001153318C900080E04440FD7F8012321E5C
:1011A0007520FF31B19171E4FF02439E31AB31B83C
:1011B000B14331C8908104E054FEF0A37403F0A35E
:1011C000F0E4A3F0A3F022E4F54D22E49080A3F034
:1011D0002275E80375A88422E490809DF0A3F02294
:1011E000900194E04401F022908101E054FEF0541B
:1011F0007FF0A3740AF0E4A3F0223194121FA4FF3D
:101200005401FE908104E054FE4EF0EFC31330E031
:1012100014900001121FBD908105F0900002121F72
:10122000BD908106F022908175124506EF12450FA0
:10123000523200523A01524202524A03525204526E
:101240005A20526221526A23527225527AC00000FB
:1012500052829081751244FD81299081751244FD5E
:1012600080489081751244FD61AB9081751244FDF8
:10127000615B9081751244FD80809081751244FD00
:1012800081C79081751244FD61E39081751244FD20
:1012900061319081751244FD61399081751244FD70
:1012A00061499001C0E04401F02290817812450626
:1012B000900001121FBDFFFE121FA4FDC31330E0FA
:1012C000129081781244FD900002121FBD90817C23
:1012D000F0800590817CEFF090817BEEF090817C36
:1012E000E0FE90817BE0FFD39E50389081781244DD
:1012F000FD121FA45401FE74A32FF582E43480F57F
:1013000083EEF074A32FF582E43480F583E070045B
:101310007130800790817BE0FF712F90817BE0042A
:10132000F080BA9080A3E070259080EAE07004FF1E
:10133000124CBE9080EAE0640C6003124F5790801C
:10134000E4E054F7F054EFF054BFF0547FF0222261
:1013500022121FA49080F1F022121FA49080FFF0AF
:101360009080FFE09001E7F022121FA4908109F025
:10137000900001121FBD90810AF022121FA4FF5499
:1013800001FE908101E054FE4EF0EFC31330E00AFD
:10139000900001121FBD908102F022900101E044F3
:1013A00004F090019C747EF0A37492F0A374A0F0FA
:1013B000A37424F090019B7449F090019A74E0F0BA
:1013C000900199E4F090019804F022D310AF01C38A
:1013D000C0D0121FA4FF9080E3F0BF011290000163
:1013E000121FBD64016017900522746FF0800F908A
:1013F0000001121FBD64016005900522E4F0D0D009
:1014000092AF22900002121FBDFF30E026121FA4EF
:101410009080F8F0900001121FBD9080F9F0EF5419
:10142000FEFFA3E054014FF0900003121FBD908017
:10143000FBF0229080F87401F0A37407F0A3E0544D
:10144000014428F0A37405F022900209E0FD121F68
:10145000A4FEAF05ED2E908002F0900001121FBD9A
:10146000FFED2F908003F0900002121FBDFFED2FC3
:10147000908004F0900003121FBDFFED2F908005B7
:10148000F0900004121FBDFFAE05ED2F908006F016
:1014900022E4908110F0A3F0900198E07F0030E406
:1014A000027F01EF6401603EC3908111E094889057
:1014B0008110E0941340089001C1E04410F02290A4
:1014C0008110E475F0011244A97F147E001232AA43
:1014D000D3908111E09432908110E0940040B99053
:1014E00001C6E030E3B222121FA4FF547F9080E7D0
:1014F000F0EFC41313135401A3F0900001121FBDA9
:10150000FF54F0C4540FFE9080E6E054F04EF0908B
:101510000003121FBD540125E0FE9080E4E054FD5D
:101520004EF0EF540FC454F0FF9080E6E0540F4F9C
:10153000F0900004121FBD9080E9F0124F839001DB
:10154000B97401F09001B8F09080E7E09001BAF032
:101550009080E9E09001BBF09080E6E0540F9001AC
:10156000BEF022E49080E7F0A3F09080E6E0540F14
:10157000F054F0F09080E4E054FDF054F7F054EFB4
:10158000F09080ED7401F0A3F09080E4E054FBF063
:10159000A3E054FBF0E49080F0F09080EF7407F04B
:1015A0009080F2E4F0A37402F0E49080EBF090807D
:1015B000E4E054FEF09080E9740CF09080E4E05494
:1015C000DFF09080EA740CF09080E4E054BFF054B7
:1015D0007FF0A3E054FEF054FDF054F7F09080F457
:1015E0001220DA00000000908001E0B40108908031
:1015F000F17499F08012908001E09080F1B40305BD
:101600007490F080037440F09080F87401F0A3743B
:1016100007F0A3E054014428F0A37405F0E4A3F01C
:10162000A3F0A3F0A3F022D310AF01C3C0D0900168
:10163000CCE0540F90816BF090816BE0FD7002E183
:1016400031908197E0FF74017E00A807088005C3F0
:1016500033CE33CED8F9FFEF5D7002E12A90819747
:10166000E075F0049001D01244F1E090816CF075C7
:10167000130175148175156C7516017B017A8179DA
:101680006D122BED908197E075F0049001D112441A
:10169000F1E090816EF0908197E075F0049001D2B6
:1016A0001244F1E090816FF0908197E075F0049022
:1016B00001D31244F1E0908170F0908197E075F0D1
:1016C000049001F01244F1E0908171F0908197E074
:1016D00075F0049001F11244F1E0908172F0908174
:1016E00097E075F0049001F21244F1E0908173F0FC
:1016F000908197E075F0049001F31244F1E090813D
:1017000074F090816BE0FF908197E0FE7401A80671
:10171000088002C333D8FCF45F90816BF09081970E
:10172000E0FF7401A807088002C333D8FC9001CC05
:10173000F090816DE0FF7B017A81796E5106908196
:1017400097E004F0E05403F0C1189001C0E04402B7
:10175000F0D0D092AF22E4FBFAFD7F0112444E900C
:10176000816AEFF060F0D10780ECE4908112F09094
:101770008112E06401F0244A9001C4F07457A3F090
:101780009080EAE0FF9080E9E06F60031247A612C4
:1017900062FBBF0102F18512329EBF0103125E4659
:1017A00012424D80CAD310AF01C3C0D09080E4E094
:1017B00030E002F19AD0D092AF229080EAE0700E31
:1017C000126954BF0108F1AF9001E5E004F022D3A3
:1017D00010AF01C3C0D0126704F1C0D0D092AF22C5
:1017E0001266FC900008E054EFFD7F0812321EE400
:1017F000FF8F50E4908113F0A3F0900109E07F0087
:1018000030E7027F01EF6550603EC3908114E094A1
:1018100088908113E0941340089001C0E04410F0D8
:1018200022908113E475F0011244A97F147E001206
:1018300032AAD3908114E09432908113E094004056
:10184000B99001C6E030E0B222E4FBFAFD7F01125C
:10185000444E90817DEFF060F0113D80ECD310AFED
:1018600001C3C0D0E4FF90809EE0FE90809DE0FD2B
:10187000B506047E0180027E00EE640160329001B4
:10188000AFE07013ED75F00FA42407F9748035F004
:10189000FA7B0111957F01EF601690809DE004F0C6
:1018A000E07F00B40A027F01EF6005E490809DF0C4
:1018B000D0D092AF22D310AF01C3C0D090817E129E
:1018C0004506908198E0FF04F0900001EF121FFCA4
:1018D0007FAF7E0111F8EF603A90817E1244FD8B5C
:1018E000138A14891590000E121FBD2402F5167B71
:1018F000017A0179A0122BED90817E1244FD9000B7
:101900000E121FBD9001AEF0A374FFF09001CBE06A
:101910006480F0D0D092AF22D310AF01C3C0D0907A
:10192000818BEEF0A3EFF0E4A3F0A3F090818BE0C5
:10193000FEA3E0F5828E83E0602DC390818EE0945B
:10194000E890818DE09403400B9001C0E04480F06A
:101950007F00801590818DE475F0011244A97F0A03
:101960007E001232AA80C57F01D0D092AF22908132
:1019700045EFF0A3EDF0A31220DA00000000E490A0
:101980008153F07F247E08122D5C90814B1220CE73
:10199000908145E0FB700890814B1244D98016EB92
:1019A00075F008A42462F582E43487F583E0FEA391
:1019B000E0FF122D5C90814F1220CE908146E0FF17
:1019C000E4FCFDFE78171220BBA804A905AA06AB0B
:1019D0000790814F1244D9ED547FFDEC5480FC12E6
:1019E00044CCEC4480FC90814F1220CE90814B126D
:1019F00044D9EC547FFC9085BB1220CE7F247E0816
:101A0000122EA2908145E075F008A42462F582E4CC
:101A10003487F583E0FEA3E0FFC006C00790814F46
:101A20001244D99085BB1220CED007D006122EA228
:101A300090814B1244D9EC4480FC9085BB1220CE9F
:101A40007F247E08122EA2908145E070047F2080C2
:101A500009908145E0B401167F287E08122D5C783C
:101A6000081220A8EF5401FFE4908153EFF0908119
:101A700053E0908145600EE075F008A42466F5827D
:101A8000E43487800CE075F008A42464F582E43423
:101A900087F583E0FEA3E0FF122D5CED540FFDE41B
:101AA000FC9081471220CE9081470244D9D310AFD9
:101AB00001C3C0D0314ED0D092AF229081251245C3
:101AC00006121FA4908129F0900001121FBD908181
:101AD00028F0900002121FBD90813BF0900003128D
:101AE0001FBD90813CF09081251244FDE92404F94A
:101AF000E43A8B13F51489157516047B017A817904
:101B00003D122BED9081251244FDE92408F9E43AB9
:101B10008B13F51489157516047B017A81794112AE
:101B20002BED908129E024F8607924FC607524086D
:101B3000600281DC908128E0B401051229C581DFB3
:101B4000908128E0B402051211BD81DF908128E068
:101B5000B403051206EB81DF908128E0B4101990E0
:101B6000813CE0FE90813BE0FDEDFF90812AEEF0AC
:101B7000A3EFF01232AA81DF908128E0B41119900E
:101B8000813CE0FE90813BE0FDEDFF90812AEEF08C
:101B9000A3EFF012320681DF908128E0F460028129
:101BA000DFFF22908129E0B40C0890813A7401F0A3
:101BB0008005E490813AF0908128E064076002811A
:101BC000AF90813BE0908138F090813CE09081398A
:101BD000F090813EE0FFE4FCFDFE78081220BBA8F7
:101BE00004A905AA06AB0790813DE0FFE4FCFDFED9
:101BF0001244CCC004C005C006C00790813FE0FF7E
:101C0000E4FCFDFE78101220BBD003D002D001D03E
:101C1000001244CC90812C1220CE908139E0FF90AC
:101C20008138E0FD518D9081301220CE90813AE0D4
:101C300070028197908142E0FFE4FCFDFE7808127B
:101C400020BBA804A905AA06AB07908141E0FFE4E8
:101C5000FCFDFE1244CCC004C005C006C007908144
:101C600043E0FFE4FCFDFE78101220BBD003D0025D
:101C7000D001D0001244CC9081341220CE90813417
:101C80001244D912209B9081301244E51244BFC007
:101C900004C005C006C00790812C1244D99081343D
:101CA0001244E51244BFD003D002D001D000124448
:101CB000CC90812C1220CE90812C1244D990814757
:101CC0001220CE908138E0FDA3E0FF91E2803090B9
:101CD000813BE0FFA3E0FD90813AE0908148F07BFA
:101CE000017A81793DA31245067A81794190814C30
:101CF000124506908128E0FBF19380037F02227F4A
:101D00000122D310AF01C3C0D0C007C005908147E6
:101D10001244D990814D1220CED005D007B104D005
:101D2000D092AF2290814BEFF0AB05908151122001
:101D3000DA00000000AF03E4FCFDFE78141220BBC3
:101D4000A804A905AA06AB0790814D1244D9ED5409
:101D50000FFDE4FC1244CCEC540FFC908151122096
:101D6000CE90814BE075F008A42460F582E43487BE
:101D7000F583E0FEA3E0FFC006C007908151124446
:101D8000D99085BB1220CED007D006022EA2900299
:101D900009E0908113F0A37420F0908113E0FF30EC
:101DA000E005A3E02480F0EFC31390FD10F0E49071
:101DB0008124F0908114E02400F582E434FCF58362
:101DC000E0908116F0908124E06401F0246E90018F
:101DD000C4F0745DA3F0908116E0FF6404600AEF24
:101DE00064086005EF640C707AE4908115F09081CE
:101DF00016E0FF908115E0FEC39F503FE0FF908109
:101E000014E0FD2F2400F582E434FCF583E0FC743B
:101E1000172FF582E43481F583ECF0EEFFED2FFF10
:101E2000E433FEEFF44E700B90FD10E004F0E4900C
:101E30008114F0908115E004F080B37B017A817900
:101E400017519B908123EFF0C39402501690812389
:101E5000E0600D908115E0FF908114E02FF0A193D8
:101E60007F01227F0022122DA7E4F55212329EEF4D
:101E70006072635201E55224469001C4F0745EA37F
:101E8000F0900088E0F550F551540F60DFE55030D8
:101E9000E00B20E4031229C55351EE803EE550309B
:101EA000E11620E50E1211BDEF70034351209001A1
:101EB00006E4F05351FD8023E55030E20B20E603A9
:101EC0001206EB5351FB8013E55030E30E20E70878
:101ED000B16EEF70034351805351F7AD517F8812BB
:101EE000321E808822908181EFF0A3EDF0AD03AC2B
:101EF00002E4908189F0A3F09001C474C5F0745E8F
:101F0000A3F0EC543FFC900140EDF0AE04EEA3F0E2
:101F1000908181E02481603424DA601C243C70418B
:101F2000908182E0C43333335480908186F0A3746F
:101F300069F0A37480F0802C908182E0540190813C
:101F400086F0A374A5F0A37401F08018908182E05C
:101F5000C45410908186F0A3747FF0A37410F080B5
:101F6000037F0022908187E0900106F0908186E057
:101F7000600E900142F0908185E0900143F0800D69
:101F8000900143E4F0908186E0900142F0908188D6
:101F9000E0FF900142E05FFF908186E06F60EE74A9
:101FA000C5049001C4F0745EA3F0900143E4F07F97
:101FB000012222908145EFF0A3EDF0A3EBF0908198
:101FC000491244FD8B138A1489157516047B017A16
:101FD000817962122BED90814C1244FD8B138A148F
:101FE00089157516047B017A817966122BED908133
:101FF00046E0FE908145E0FDEDFF90814FEEF0A3BD
:10200000EFF0908147E0FFB404089081527401F032
:10201000800FEF908152B405057402F080037404C0
:10202000F0D3908150E094FF90814FE09400400203
:102030000192E4908151F0908152E0FF908151E053
:10204000FEC39F400241F474622EF582E43481F5B0
:1020500083E0908153F0EEFF908150E02FFF90815C
:102060004FE034008F82F583E0908154F0908148F6
:10207000E06025908151E02466F582E43481F583A7
:10208000E090815DF0E0FFF4FE908154E05EFE9010
:102090008153E0FDEF5D4EF090814FA3E0FFA3E0A0
:1020A0002FFF908153E0FD12321E908151E004F029
:1020B0008085D3908150E094FF90814FE094075049
:1020C00078E4908151F0908152E0FF908151E0FEE0
:1020D000C39F400241F474622EF582E43481F5839B
:1020E000E0908153F0EEFF908150E02FFB90814F04
:1020F000E03400FA8B82F583E0908154F0908148BF
:10210000E06025908151E02466F582E43481F58316
:10211000E090815DF0E0FFF4FE908154E05EFE907F
:102120008153E0FDEF5D4EF0908153E08B828A8316
:10213000F0908151E004F0808DE4908153F0908123
:102140005E1220DA000000009081551220DA0000B3
:102150000000908148E0601190814FE0FEA3E0FF15
:10216000122D5C9081591220CEE4908151F0908123
:1021700052E0FF908151E0FEC39F4002411F746214
:102180002EF582E43481F583E0908153F09081480C
:10219000E06077908151E0FB2466F582E43481F5BC
:1021A00083E090815DF09081591244D9EB75F0087D
:1021B000A4F9F81220A890815DE0FEF45FFF908101
:1021C00053E0FDEE5D4FF090815E1244E5C000C02B
:1021D00001C002C00390815DE0FF7E00908151E06C
:1021E00075F008A4FDEFA805088005C333CE33CEF3
:1021F000D8F9FFEE3395E0FDFCD003D002D001D03A
:10220000001244CC90815E1220CE9081551244E59C
:10221000C000C001908153E0FFE4FCFDFE908151BD
:10222000E075F008A4F9F81220BBD001D0001244E8
:10223000CC9081551220CE908151E004F0214E9037
:102240008148E0603A90815E1244D912209B9081CF
:10225000591244E51244BFC004C005C006C007902F
:1022600081551244D990815E1244E51244BFD003D7
:10227000D002D001D0001244CC9081551220CE90D3
:1022800081551244D99085BB1220CE90814FE0FE3B
:10229000A3E0FF122EA2908147E09001A0F0908170
:1022A00052E09001A1F0908148E09001A2F090816D
:1022B000491244FD121FA49001A4F0900001121FC6
:1022C000BD9001A5F0900002121FBD9001A6F090F4
:1022D0000003121FBD9001A7F09081551244D990C0
:1022E00001A8EFF09081551244D978081220A890E7
:1022F00001A9EFF09081551244D978101220A890CE
:1023000001AAEFF09081551244D978181220A890B4
:1023100001ABEFF0228F0D228F0E227F0290810001
:10232000E0FEEFC39E5018EF25E02481F8E630E48C
:102330000B9001B87408F0A3F07F00220F80DE7FBD
:102340000122900134E0553DF541A3E0553EF542B0
:10235000A3E0553FF543A3E05540F544900134E533
:1023600041F0A3E542F0A3E543F0A3E544F0229059
:10237000013CE05545F549A3E05546F54AA3E05533
:1023800047F54BA3E05548F54C90013CE549F0A3D7
:10239000E54AF0A3E54BF0A3E54CF05391DF229022
:1023A00080A3E0640170199080E7E060139001570A
:1023B000E4F090013C7402124EEB9001577405F06A
:1023C000229080E7E06035900692E030E024E4F56A
:1023D0001D9080FAE0C313547FF51EE4FBFD7F5887
:1023E0007E01124EFC90015B7405F0900692740120
:1023F000F0229080E4E054F7F01247A6229080E7A4
:10240000E06035900692E030E124E4F51D9080FA1A
:10241000E0C313547FF51EE4FBFD7F5C7E01124E8A
:10242000FC90015F7405F09006927402F022908097
:10243000E4E054EFF01247A622917190810CEFF086
:102440009080E430E006E04401F08004E054FEF0C7
:1024500090810CE030E61190012FE030E704E4F0C9
:10246000800690012F7480F09080E4E030E01A90B4
:1024700080F2E4F0A37407F09080F2A3E090055896
:10248000F09004ECE054DDF0229004ECE04422F003
:1024900022E490810DF0A3F0A3F0900083E09081FE
:1024A0000DF0900083E0FE90810DE0FFB506012263
:1024B000C390810FE0946490810EE09400400D90F1
:1024C00001C0E04440F090810DE0FF2290810EE4D5
:1024D00075F0011244A980C2908109E0600FE4F018
:1024E000900553E04401F09005FDE004F022908057
:1024F000E4E0FFC41313540330E027EF54BFF0901F
:1025000004E0E09080E530E006E04401F08010E077
:1025100054FEF09001B97401F09001B87404F01207
:1025200047A6E4FF908104E030E048908108E0FD98
:10253000604174017E00A807088005C333CE33CE06
:10254000D8F9FF9004E0E0FBEF5B6006E4908108BF
:10255000F022908106E0D39D50109001C77410F0D6
:10256000B154908104E054FEF0221248E4908108B6
:10257000E004F022908001E064026007900690E0A1
:102580004401F0229080E4E0FFC41313135401309F
:10259000E02CEF547FF09004E0E09080E530E1061D
:1025A000E04402F0800FE054FDF09001B97401F0B6
:1025B0009001B804F09080E7E060031247A67F0125
:1025C000A104D310AF01C3C0D090041DE0601A90E5
:1025D0000522E0549060079001C0E04408F09001AB
:1025E000C6E030E1E47F0080027F01D0D092AF22CC
:1025F000C3EE9401400A0DED1390FD10F0E42FFF9F
:1026000022C3EE9401402490FD11E06D701A9001F8
:1026100017E0B5050D9001E47477F090FD11E4F03A
:102620008006ED0490FD11F0E42FFF22D310AF01DE
:10263000C3C0D0900101E04402F090010074FFF0AB
:102640009006B77409F09006B47486F07F7C7E081B
:10265000122D5CEC547FFC90818F1220CE90818FE4
:102660001244D99085BB1220CE7F7C7E08122EA208
:102670009085BB1220DACCC000C07F8C7E08122E61
:10268000A29085BB1220DA00C000147F707E0E126B
:102690002EA29085961220DA00033E60E4FDFF1220
:1026A000314DD0D092AF22D10C9080EA740CF02240
:1026B000124FF19085BB1220DACCF000C07F8C7EE7
:1026C00008122EA29085BB1220DA000000147F7041
:1026D0007E0E122EA29085961220DA00000000E4F1
:1026E000FDFF12314D7F7C7E08122D5CEC4480FC96
:1026F0009081931220CE9081931244D99085BB1281
:1027000020CE7F7C7E08122EA2900100743FF0A3A1
:10271000E054FDF0900553E04420F022900090E05A
:1027200020E0F9229080F1E0FD7F9312321E90802C
:10273000E8E0601290012FE030E7057410F08006A9
:1027400090012F7490F0900008E04410FD7F081273
:10275000321E7F011257D1900090E04401FD7F901E
:1027600012321E7F147E000232AAEF14900573F01D
:1027700090013F7410F0FD7F0374452FF8E64DFE85
:10278000F674382FF582E43401F583EEF0227445B7
:102790002FF8E6FEEDF45EFEF674382FF582E43491
:1027A00001F583EEF022D310AF01C3C0D09081A019
:1027B000EDF090819FEFF0D394075070E0FF74012B
:1027C000A807088002C333D8FCF4FF900047E05FFD
:1027D000FD7F4712321E90819FE0FF7401A8070819
:1027E0008002C333D8FCFF900046E04FFD7F4612C5
:1027F000321E9081A0E0601890819FE0FF7401A8D4
:1028000007088002C333D8FCFF900045E04F8017D3
:1028100090819FE0FF7401A807088002C333D8FCB1
:10282000F4FF900045E05FFD7F45807E90819FE052
:1028300024F8F0E02404FF7401A807088002C333E1
:10284000D8FCF4FF900043E05FFD7F4312321E90FE
:10285000819FE0FF7401A807088002C333D8FCFF02
:10286000900043E04FFD7F4312321E9081A0E06054
:102870001D90819FE02404FF7401A807088002C313
:1028800033D8FCFF900042E04FFD7F42801C9081D6
:102890009FE02404FF7401A807088002C333D8FC1A
:1028A000F4FF900042E05FFD7F4212321ED0D092D2
:1028B000AF229080E4E054FBF0E49080F0F0908050
:1028C000EBF022EF24FE600C0470289080ED740180
:1028D000F0A3F022ED700A9080FBE09080EDF08094
:1028E000059080EDEDF09080EDE0A3F09080E5E0C4
:1028F0004408F022124F6AEF640160089001B87436
:1029000001F080679080EBE0FF540360089001B80D
:102910007402F080569080E9E0FEE4C39E50089077
:1029200001B87404F08044EF30E2089001B87408F4
:10293000F080389080EBE030E4089001B87410F03B
:1029400080299080E5E01313543F20E0089001B8FF
:102950007420F080169080FFE060089001B87480C9
:10296000F080089001B8E4F07F01229001B974046E
:10297000F07F0022900287E060089001B87401F0B7
:102980008017900286E020E1089001B87404F0807E
:10299000089001B8E4F07F01229001B97408F07F3B
:1029A0000022EF603E9080A3E0640170369080E5E5
:1029B000E054FEF0900522740FF0900604E054BF3E
:1029C000F0E4FF1248E6BF010E9080E4E04440F0DE
:1029D0009080EA7406F0229001B97401F09001B879
:1029E0007408F022900522746FF0900527E054BF20
:1029F000F09080EA7402F022E490810BF09006A936
:102A0000E090810BF0E054C0700D9080EBE054FE3C
:102A1000F054FDF00247A690810BE030E622908052
:102A2000E7E0640170219080EBE04401F09080E6E3
:102A3000E0540F64026004514A800C124E3D80073E
:102A40009080EBE054FEF090810BE09080EB30E75B
:102A500014E04402124EEB9001577405F09080E4AC
:102A6000E04404F022E054FDF02290041DE07014D4
:102A7000908003E0FFE4FD1249F98E4E8F4F9004E1
:102A80001F7420F0229080A3E06401600241FA905C
:102A900080E7E0700241FA9080E6E0C4540F6401E0
:102AA00070229006ABE09080EEF09006AAE0908055
:102AB000EDF0A3E0FF70089080EDE0FEFF80009055
:102AC00080EEEFF09080E5E04404F0E49080F0F0D8
:102AD0009080F2A3E0900558F0900157E4F0900147
:102AE0003C7402F09080EBE054FDF054EFF09080E5
:102AF000E6E0FFC4540F24FD5002800231D89080DC
:102B0000E5E0131313541F30E0109080EDE0FFA3B5
:102B1000E0B5070612674A124D9F229080E4E0FF5D
:102B20001313543F30E011EF54FBF09080EBE0546E
:102B3000FDF054077042803D9080F0E004F09080FA
:102B4000EBE054EFF09080F0E0FFB401028004EF7E
:102B5000B40206900558E004F09080F8E0FF908001
:102B6000F0E0D39F400F9080A3E0B4010B9080E58C
:102B7000E054FBF0221247A622E4FEEFC313FDEF60
:102B800030E004EE2480FE90FD10EDF0AF0622ABA5
:102B900007AA06ED2BFBE43AFAC39080A0E09B90D5
:102BA000809FE09A5013A3E02401FF90809FE034BF
:102BB00000FEC3EB9FFBEA9EFAEA90FD11F0AF0323
:102BC00074002FF582E434FBF583E0FF2200320825
:00000001FF
