:1000000001211300140000001009103818710000BD
:10001000A40B000000000000000000000000000031
:100020000248DD026FEA000000000000000000004E
:1000300000000002708000000000000000000000CE
:10004000000000027D8B00000000000000000000A6
:1000500000000000000000000000000000000000A0
:1000600000000002701B00000000000277E60000A4
:10007000000000027D3815F0FF0F00000015F00FA2
:100080000000000005F0FF0F00000005F00F000069
:10009000000010F0FF0F00000010F00F0000000043
:1000A000F50F0000000000F00F00000000000D0040
:1000B000000000000010F0FFFF00000010F03F0003
:1000C00000000015F03F0000000015F0CFFF000019
:1000D000000A0803030004090703030004080603D9
:1000E0000200040805030100040D0A070500080CBE
:1000F0000A070400080B0A060500080B0A0503009E
:10010000080B0A0302000814120C04001014120950
:1001100004001024221C1200202422180C00202489
:10012000221406002024220F04002024210A0400A7
:100130002023210C040020231F0A040020221F0F6B
:10014000040020211F160C0020312F201400303114
:100150002F18100030312C180C0030312A140C00EC
:1001600030312814000030312414000030311E14C6
:1001700000003004040405040405070707080A0406
:10018000070A0E1113141503040707080B0D0F05BA
:10019000050707080B0D0F05050707080B0D0F07CF
:1001A00008080A0A0C0E1011110709090B0B0D0F94
:1001B00011111205050707080B0D0F0F0F05050795
:1001C00007080B0D0F0F0F04040405070709090C9E
:1001D0000E10120506070D10111212070809090C5E
:1001E0000E1113090909090C0E1113090909090C4B
:1001F0000E1113050608090C0E1212131407080A33
:100200000B0D1011111416090909090C0E11131305
:1002100013090909090C0E11131313000000000043
:100220000000000024262A0000001F2125272800A6
:100230000000002326282A000000002326282A0088
:100240000000002326282A00000000202527292955
:100250002A0000000020252729292A000000002369
:1002600026282A2A2A0000001F2326282A2A2A00B4
:10027000000004000000040000000800000010005E
:1002800000001800000024000000300000004800BA
:1002900000006000000090000000C0000000D800D6
:1002A00000003C0000006400000078000000A00096
:1002B0000000F00000014000000190000001E0009B
:1002C0000000A0000000F0000001400000019000CC
:1002D00000025800000320000004B00000064000A7
:1002E0000000C800000118000001E0000002D0007A
:1002F0000003E8000004B000000640000007D00042
:100300000000C800000118000001E0000002D00059
:100310000003E8000004B000000640000007D00021
:1003200000003C0000006400000078000000A00015
:100330000000F00000014000000190000001E0001A
:1003400000025800000320000000C800000118004F
:100350000001E0000002D0000003E8000007D00028
:10036000000BB8000013880000177000001F400049
:100370000000C800000118000001E0000002D000E9
:100380000003E8000004B000000640000007D000B1
:100390000007D0000007D0000000C80000011800CE
:1003A0000001E0000002D0000003E8000004B000FB
:1003B000000640000007D0000007D0000007D00072
:1003C00002000200040008000C00120018002400C3
:1003D0003000480060006C00140032003C00500007
:1003E0007800A000C800F00050007800A000C8010C
:1003F0002C0190025803200064008C00F001680179
:10040000F40258032003E80064008C00F001680146
:10041000F40258032003E8001E0032003C005000A4
:100420007800A000C800F0012C01900064008C004E
:10043000F0016801F403E805DC09C40BB80FA00063
:1004400064008C00F0016801F40258032003E80303
:10045000E803E80064008C00F0016801F40258032E
:100460002003E803E803E8020406080A0C10182039
:10047000304050010101020102030304040505029A
:100480000406070708080802020303050506060517
:100490000606070708090A050606070708090A01EC
:1004A000030607070708080A0A02050607070708E0
:1004B000080A0B050606070708090A0A0B050606BF
:1004C000070708090A0A0B010101010102030405DB
:1004D00006070801020304050607080204060708C8
:1004E0000A0B0C03050607080A0B0C05060708098A
:1004F0000A0B0C0204060708090B0C0C0C0305067A
:100500000708090B0C0C0C05060708090A0B0C0C54
:100510000C05060708090A0B0C0C0C19060402004E
:1005200018000000000000000000000000000000B3
:1005300000000000000000000000000000000000BB
:1005400000000000000000000000000000000000AB
:10055000000000000000000000000000000000009B
:10056000000000000000000000000000000000008B
:10057000000000000000000000000000000000007B
:10058000000000000000000000000000000000006B
:10059000000000000000000000000000000000005B
:1005A000C2AF80FE3212458485D00B75D008AAE018
:1005B000C28CE58A2467F58AE58C3479F58CD28C77
:1005C000EC2487F8E6BC020274FFC39581B44000B6
:1005D00040CE7903788016E608700BC2AFE630E1B2
:1005E000034418F6D2AF08D9EDEA8BD022E50CFF10
:1005F000232481F80F0808BF03047F007881E630C8
:10060000E4F200E50CC39F5020050C7486250CF81D
:10061000E6FDA68108E6AE0CBE020274FFCDF8E846
:100620006D60E008E6C0E080F6E50CD39F4027E56A
:100630000C2487F8E6AE0CBE020274FFFD18E6CD6E
:10064000F8E5816D6006D0E0F61880F5E50C2486AB
:10065000C8F6150C80D3E50C232481F87F04C2AFC3
:10066000E630E00310E20C7F0030E10730E3047F66
:100670000854F4547CC6D2AF54804207227886A630
:100680008174026006FF0876FFDFFB7F03E4788059
:10069000F608F608DFFA7881763090498174019384
:1006A000C0E0E493C0E0438901758A60758C79D21B
:1006B0008CD2AF2202EFD3940240037FFF227481D9
:1006C0002F2FF8E620E5F4C2AFE64430F6D2AFAE05
:1006D0000CEEC39F50210E74862EF8E6F908E6183A
:1006E000BE020274FFFDED69600909E71919F709F7
:1006F0000980F3161680DAEED39F40040581058148
:10070000EED39F402274862EF808E6F9EEB50C026F
:10071000A981180606E6FDED6960091919E70909BE
:10072000F71980F31E80D9EF2486F8E604F8EF2F3E
:100730000490498193F608EF2F93F67F0022EFD3C0
:10074000940240037FFF22EF232481F8E630E5F492
:10075000C2AFE6548CF6D2AFE50CB5070A74862F0B
:10076000F8E6F5810245CD502E74872FF8E6BF02DA
:100770000274FFFD18E6F974862FF8FBE6FCE96CBD
:100780006008A805E7F61D1980F4A803A6051FE573
:100790000CB507E37F002274872FF8E6FD18860169
:1007A0000F74862FF8A601088604E50CB50702AC85
:1007B00081ED6C60080D09A805E6F780F4E50CB53D
:1007C00007DE89817F0022EFD3940240037FFF225E
:1007D000EF232481F8C2AFE630E50530E002D2E431
:1007E000D2E2C6D2AF7F0030E2010F0245CC8FF0DB
:1007F000E4FFFEE50C232480F8C2A930F70D7F0842
:10080000E6600B2DF66030502E800730F106EDF6D5
:1008100060257E020830F010C2AFE610E7230E30EC
:10082000E20CD2AF7F048012C2AFE610E71354ECA3
:100830004EF6D2AF0245CD7F0808EF4483F4C2AF35
:1008400056C6D2AF54804FFF22EF2BFFEE3AFEED9B
:1008500039FDEC38FC22EF5BFFEE5AFEED59FDEC62
:1008600058FC22EF4BFFEE4AFEED49FDEC48FC221E
:10087000EB9FF5F0EA9E42F0E99D42F0E89C45F0DE
:1008800022E0FCA3E0FDA3E0FEA3E0FF22E493FC52
:10089000740193FD740293FE740393FF22E0F8A3A6
:1008A000E0F9A3E0FAA3E0FB22E493F8740193F9E2
:1008B000740293FA740393FB22A42582F582E5F077
:1008C0003583F58322E0FBA3E0FAA3E0F922EBF005
:1008D000A3EAF0A3E9F022D083D082F8E493701267
:1008E000740193700DA3A393F8740193F582888328
:1008F000E4737402936860EFA3A3A380DF02491B33
:1009000002465DE493A3F8E493A34003F68001F26A
:1009100008DFF48029E493A3F85407240CC8C333F8
:10092000C4540F4420C8834004F456800146F6DFC7
:10093000E4800B0102040810204080904960E47EAE
:10094000019360BCA3FF543F30E509541FFEE493BC
:10095000A360010ECF54C025E060A840B8E493A383
:10096000FAE493A3F8E493A3C8C582C8CAC583CAAE
:10097000F0A3C8C582C8CAC583CADFE9DEE780BE66
:100980000041A3070041A3080041A3090041A2F7C9
:100990000041A2F80041A2F90041A2FA0041A324BB
:1009A000004CA2581460437F029140EF4401FD7F48
:1009B00002319D7F029140EF54FEFD7F02D310AFC4
:1009C00001C3C0D08F82758300EDF07F107E0012CE
:1009D0003D7AD0D092AF22D310AF01C3C0D07F8F69
:1009E0009140EF20E602611790008CE090A310F098
:1009F0007F8D914090A311EFF090008EE090A312B4
:100A0000F090A311E024FC600F24036002610990C0
:100A1000A310E0FFD157610990A310E02496F5825E
:100A2000E43499F583E0FBE4FDFF712190A310E02D
:100A300075F0049096191199E013135403FB0DE41B
:100A4000FF712190A310E075F0049096191199E0C0
:100A5000C41313135401FB0DE4FF712190A310E0A4
:100A600075F0049096191199E0C45403FB0DE4FF4E
:100A7000712190A310E075F0049096161199E0FB97
:100A8000E4FD0F712190A310E075F00490961771AA
:100A90001C90A310E075F0049096181199E0C4130F
:100AA0005401FB0D7F01712190A310E075F00490BB
:100AB00096181199E0541FFB0D712190A310E07559
:100AC000F0089089001199E0FBE4FD0F712190A3DB
:100AD00010E075F008908901711C90A310E075F08A
:100AE00008908902711C90A310E075F008908903AA
:100AF000711C90A310E075F0089089041199E0FB37
:100B0000E4FD0F712190A310E075F0089089057144
:100B10001C90A310E075F008908906711C90A3103A
:100B2000E075F008908907711C7F8F9140EF30E0ED
:100B300006E4FD7F8D319DD0D092AF221199E0FB6C
:100B40000DEF700474F08016EFB4010474F4800E9D
:100B5000EFB4020474F88006EFB4030C74FC2DF5B6
:100B600082E43402F583EBF022F090052274FFF06A
:100B7000D310AF01C3C0D0128DF47F007E0C1237AA
:100B8000BCEF54FCFFEC90A2E312086D90A2E311BD
:100B90006190AAB912086D7F007E0C1238077F00A1
:100BA0007E0E1237BCEF54FCFFEC90A2E312086DEE
:100BB00090A2E3116190AAB912086D7F007E0E1217
:100BC00038073193318731877FB47E081237BCEF05
:100BD0004440FFEC90A2E312086D90A2E3116190F3
:100BE000AAB912086D7FB47E08123807900100740C
:100BF0003FF0A3E054FDF0900553E04420F090A1B5
:100C00002CE0FF131313541F30E006900778740193
:100C1000F0EFC31330E03C90A16BE0600890A2E7D6
:100C20007401F08005E490A2E7F090A12CE0C413D9
:100C3000540730E007E490A2E8F0800690A2E87440
:100C400002F090A2E7E0FFA3E0FD126BB6900778F8
:100C50007401F090A12BE06002E4F0D0D092AF22BA
:100C6000D310AF01C3C0D08F82758300E090A32161
:100C7000F07F107E00123D7A90A321E0FFD0D09249
:100C8000AF227F549140E50D5FF5117F559140E50E
:100C90000E5FF5127F569140E50F5FF5137F579178
:100CA00040E5105FF514AD117F54319DAD127F55B5
:100CB000319DAD137F56319DAD147F57319D5391BA
:100CC000EF227F819140EF54FEFD7F81319D7F8037
:100CD0009140EF4480FD7F80319D128BBA123D3BE5
:100CE000128BC7128C897F0112469590A1757402F0
:100CF000F0FF12469590A175E004F0126022126D8B
:100D00004B7F809140EF4440FD7F80319D7528FFEF
:100D100012603C128C087F819140EF4404FD7F817A
:100D2000319D128C95E4FF02471ED310AF01C3C062
:100D3000D07F109140EF440CFD7F10319D7F729168
:100D400040EF54F3FD7F72319D900101E04402F0C9
:100D500090010074FFF090A12CE0FF131313541FB7
:100D600030E0069007787403F090A148E020E03A64
:100D7000EFC31330E03490A16BE06007E490A2E190
:100D8000F0800690A2E17401F090A12CE0C413540D
:100D90000790A2E230E0057401F080037402F09045
:100DA000A2E1E0FFA3E0FD126BB69006B77409F074
:100DB0009006B47486F07FB47E081237BCEF54BF3F
:100DC000FFEC90A2DD12086D90A2DD116190AAB92E
:100DD00012086D7FB47E081238077F029140EF44FD
:100DE00001FD7F02319D7F007E0C1237BCEF440372
:100DF000FFEC90A2DD12086D90A2DD116190AAB9FE
:100E000012086D7F007E0C1238077F007E0E1237AD
:100E1000BCEF4403FFEC90A2DD12086D90A2DD113F
:100E20006190AAB912086D7F007E0E123807D0D0EB
:100E300092AF2290A120E0FD7F93319D90A117E019
:100E4000601290012FE030E7057410F080069001E9
:100E50002F7490F07F089140EF4410FD7F08319D82
:100E60007F01F1E27F909140EF4401FD7F90319D41
:100E70007F147E00023D7AD310AF01C3C0D090A38F
:100E80001FEFF07F8F9140EF30E6487F8D9140EF6C
:100E90006401703F90A320F090A320E0FD90A31F79
:100EA000E075F0109081001199E5822DF582E4350E
:100EB00083F583E0FBE4FF712190A320E004F0E0E0
:100EC000C3941040D37F8F9140EF30E006E4FD7F64
:100ED0008D319DD0D092AF22E4F50DF50EF50F7552
:100EE0001080AD0D7F50319DAD0E7F51319DAD0F06
:100EF0007F52319DAD107F53219D900130E4F0A3CE
:100F0000F0A3F0A3F0900138F0A3F0A3F0A3F0FD5C
:100F10007F50319DE4FD7F51319DE4FD7F52319D35
:100F2000E4FD7F53219D90013474FFF0A3F0A3F002
:100F3000A3F090013CF0A3F0A3F0A3F0FD7F5431A7
:100F40009D7DFF7F55319D7DFF7F56319D7DFF7FCC
:100F500057219DD1DAF106128B79128B98C1B87D99
:100F6000037F11D310AF01C3C0D090A2E9EFF0A36B
:100F7000EDF0A311AE7FA39140EF54F84405FD7F3F
:100F8000A3319D7FA09140EF540F6404701D90FD2C
:100F900058E020E01290A2E9E0FFA3E0FDA311A534
:100FA00012874F7F0180067F0280027F03D0D0929C
:100FB000AF2290A20911AE7D067F0AF143EF6401D2
:100FC00060097F889140EF4440802190A20911A5DB
:100FD0009000011206A2FE1206897C002400FFEC9C
:100FE0003EFE127F877F889140EF4480FD7F8821FD
:100FF0009D128E577F089140EF54EFFD7F08319D81
:10100000E4FF8F71E490A31DF0A3F0900109E07F4D
:101010000030E7027F01EF6571603EC390A31EE0E0
:10102000948890A31DE0941340089001C0E0441000
:10103000F02290A31DE475F0011208D67F147E0003
:10104000123D7AD390A31EE0943290A31DE0940049
:1010500040B99001C6E030E0B222E04402F0E4F58D
:101060006590A128E0F566E4FBFD7F547E01D31076
:10107000AF01C3C0D08E618F6285653B85663C122F
:10108000357A856282856183A3A3A37405F0D0D0ED
:1010900092AF22E0C39FFFE4F5658F66FBFD7F6C96
:1010A0007E0180CA90A2397402F090A12EE020E067
:1010B00002A15B12819790A140E06401600221616E
:1010C0007F03117790A131E0C4540F90A14030E02C
:1010D000057405F08003E004F090A132E0C41354DD
:1010E0000730E00F90A12FE0FF90A13EE0C39F905A
:1010F000A144F090A12EE0C413540730E02990A140
:1011000032E0C413540730E06D90A144E0C3942052
:10111000500AE025E025E0FBE4FD80057B7F7DFFB4
:10112000E4FF127774804F90A12EE0C4540F30E09A
:101130003F90A134E054DFF0E4FD7F04B16390A15F
:1011400032E0C41313540330E02690A135E044028A
:10115000F054FBF0E490A143F090A140F090A13650
:101160007406F090A12DE0600790A135E04404F0F2
:10117000900522746FF090A131E020E002A15B8124
:101180008390A140E06402600241407F01126CA1A3
:1011900090A132E0FF1313543F30E009128DEEBFEF
:1011A0000103124B5090A132E0C413131354019069
:1011B000077830E0057403F080037401F090A12FEC
:1011C000E02403FF90A13E117390A12EE0C31330E1
:1011D000E007E490A238F0800690A2387401F09005
:1011E000A131E0C413540720E01390A16BE0600824
:1011F00090A2397401F08005E490A239F0126BAC32
:10120000E490A13FF0A3E004F090A12EE0C41354B9
:101210000730E008900522746FF0802790A12EE03F
:10122000C4540F30E00F90A132E0C413540720E003
:101230000CB15C800890A116E06008B15C900522BA
:1012400074FFF090A131E030E005900522E4F090C9
:10125000A131E0C4131313540120E002A15BA15695
:1012600090A140E06403600261C9FF126CA190A1EB
:1012700032E0FF1313543F30E003124D0A90A12EC9
:10128000E0C41313540330E008900778740DF08025
:101290001490A131E0C31390077830E0057403F097
:1012A00080037409F090A132E0C41313540330E0BA
:1012B0006D90A138E0FF90A142E0D39F4041E075DE
:1012C000F003A4FF90A13AE0FEC3EF9EFF2403FDCC
:1012D000E433FC90A130E0D39DEC6480F8748098F6
:1012E0004008E09F90A23AF0800690A23A7403F082
:1012F00090A23AE0FF117790A140E004F0801890AE
:10130000A13BE0FF117790A1367404F0E490A14076
:10131000F09006927404F0E490A142F0800D90A148
:1013200030E0FF117790A140E004F090A12EE0C4DE
:10133000131313540130E007E490A238F0800690B4
:10134000A2387401F090A131E0C413540720E013D7
:1013500090A16BE06007E490A239F0800690A2397A
:101360007401F0126BAC90A13F7401F090A12EE0DB
:10137000C413540720E03290A12EE0C4540F30E093
:101380001C90A134E04420F090A12DE060047D0188
:101390008013900522E4F07D017F0C800A90A11655
:1013A000E06006E4FD7F04B16390A12DE060089049
:1013B0000522746FF0801F90A12EE0C41354072003
:1013C000E00F90A12EE0FF1313543F30E0031272A0
:1013D000A3900522E4F090A131E0C413131354014B
:1013E00020E002A15B7F01A15890A140E06404606D
:1013F0000281897F03117790A140E004F090A1322F
:10140000E0C413540730E00F90A130E0FF90A13EFC
:10141000E0C39F90A144F090A12EE0C41354073084
:10142000E02990A132E0C413540730E06D90A1444C
:10143000E0C39420500AE025E025E0FBE4FD8005B0
:101440007B7F7DFFE4FF127774804F90A12EE0C474
:10145000540F30E03F90A134E054DFF0E4FD7F040E
:10146000B16390A132E0C41313540330E02690A17D
:1014700035E04402F054FBF0E490A143F090A14029
:10148000F090A1367407F090A12DE0600790A1358F
:10149000E04404F0900522746FF090A131E020E068
:1014A00002A15B900522E4F02290A140E064056077
:1014B00002A15B7F01126CA190A132E0FF131354D3
:1014C0003F30E009128DEEBF0103124B5090A13264
:1014D000E0C4131313540190077830E0057403F04F
:1014E00080037401F090A12EE0C31330E007E49074
:1014F000A238F0800690A2387401F090A131E0C4C7
:1015000013540720E01390A16BE0600890A2397497
:1015100001F08005E490A239F0126BACE490A13F99
:10152000F0A3F090A12EE0C413540730E00890051A
:1015300022746FF0802790A12EE0C4540F30E00F8A
:1015400090A132E0C413540720E00CB15C800890F5
:10155000A116E06008B15C90052274FFF090A13103
:10156000E030E005900522E4F090A131E0C41313CF
:1015700013540130E005E4FF12681A2290A118E02C
:10158000FFE4FDD310AF01C3C0D090A327EDF090CE
:10159000A113E0FEC41313540330E002C1B3EEC440
:1015A000131313540130E002C1B390A119E0FE6F90
:1015B0007002C1B3EF7002C12624FE7002C1612423
:1015C000FE604A24FC7002C19D24FC6002C1B3EE9F
:1015D000B40E02F16890A119E070047F01F1179038
:1015E000A119E0B40602F13590A119E0B4040F90FE
:1015F000A327E0FF600512AF89800312869890A1AF
:1016000019E064086002C1B312B0B5C1B390A1196A
:10161000E070047F01F11790A119E0B40602F135E2
:1016200090A119E0B40E07D1B8BF0102F16890A1F2
:1016300019E0640C6002C1B3D1B8EF64016002C16B
:10164000B312AFCFC1B390A119E0B40E07D1B8BFA8
:101650000102F16890A119E0B40602F13590A119D8
:10166000E0B40C08D1B8BF010312AFCF90A119E0CC
:101670006404705F12AEBAEF64017057128E3C8042
:101680005290A119E0B40E07D1B8BF0102F16890E1
:10169000A119E0B40602F13590A119E0B40C08D10B
:1016A000B8BF010312AFCF90A119E070047F01F120
:1016B0001790A119E0B4041B12B00A801690A1196A
:1016C000E0B40C0F90A114E0FF1313543F30E0037B
:1016D00012B0A7D0D092AF2290A12EE030E01390AC
:1016E000A134E0C413540730E0179001B87410F02F
:1016F000803CF1F8EF640160089001B87401F0805B
:101700002D90A113E0131313541F30E0089001B87B
:101710007402F0801990A118E0D39404400890015D
:10172000B87408F080089001B8E4F07F01229001BD
:10173000B97402F07F002290A326EFF0124D0A90B8
:10174000A326E06005900522E4F090A1197404F04E
:1017500090A112F02290A114E090060420E00CE089
:101760004440F090A1197404F08017E0547FF09089
:10177000A119740CF0900527E0547FF090A1127429
:101780000CF0900522E4F02290A114E0C31320E0B5
:101790000890A119740CF0801E900604E04440F0FB
:1017A000E04480F090A1197404F0900527E0448093
:1017B000F090A1127404F0900522E4F02290A12E82
:1017C000E020E02890A116E064017020127B5A907E
:1017D000A115E0540F6009E4FD7F0CB16302ADACCC
:1017E00090A119E070067D017F04B1632212ADACB7
:1017F00090A119E0640C600BE4FD7F0CB163E4FF81
:1018000012757222F1F8EF7002F19D2290A148E06A
:1018100030E003026F50018490041AE0F460037F0B
:10182000002290041BE0540764077F0160027F00E0
:10183000220249B7E490A204F090A204E06401F00F
:1018400024149001C4F07458A3F0123D6EBF01033C
:1018500012313890A116E0600E90A119E0FF90A11E
:1018600018E06F6002115BC2AF128C62BF010312FD
:10187000AC92D2AF11111245CD80BE90A10EE09076
:10188000A11830E004E0FF8021E0FF7D01025563F4
:1018900090A116E06013900692E030E10302ADAC37
:1018A00090A113E054F7F0115B22AE0711AABF011B
:1018B0001690A10EE0C41313540320E00AAF067D76
:1018C000011255637F01227F0022900543E07F00D3
:1018D00030E7027F0122D310AF01C3C0D0900527AB
:1018E000E090A209F0120689FF5401FE90A10EE0DB
:1018F00054FE4EFEF0EF5402FFEE54FD4FFFF01287
:101900000689FE5404FDEF54FB4DFF90A10EF0EE4E
:101910005408FEEF54F74EFFF0120689FE5410FDF6
:10192000EF54EF4DFF90A10EF0EE5420FEEF54DF88
:101930004EFFF0120689FE5440FDEF54BF4D90A1BA
:101940000EF0EEC31320E00221E8E0FF20E00221C8
:10195000CE90A2097421F0EF1313543F30E00B51E5
:10196000C290A209E04408F0800CE490A10FF0A31B
:10197000F07D40FF51EA90A10EE0FD131313541FB8
:1019800030E00790A209E04412F0EDC4540F30E0BB
:101990000790A209E04414F090A10EE0C41354078C
:1019A00030E00790A209E04480F090A10EE0C4135B
:1019B00013540320E00790A209E04440F090A209EC
:1019C000E0900527F090A111E070057F0112AAC6F2
:1019D00090A10EE0FFC41313540330E0047F048091
:1019E0002211AAEF60047F0180197F02801590A266
:1019F000097401F0900527F090A111E064046002E1
:101A000041BDFF12AAC641BD90A10EE0FD20E0023B
:101A1000418890A209E04431F0ED1313543F30E0C7
:101A20000B51C290A209E04408F080067D40E4FF1B
:101A300051EA90A10EE0FD131313541F30E00790FC
:101A4000A209E04402F0EDC4540F30E00790A2096F
:101A5000E04404F090A209E0900527F090A10EE088
:101A6000FFC41313540330E00E90A112E06402602F
:101A70006CE4FD7F028022900527E04440F090A1B5
:101A800012E0B4021912B02411AABF010990A118E2
:101A9000E0FF7D018003E4FDFF125563803F90A1CC
:101AA00019E090A112F0803590A2097401F0900520
:101AB00027F090A112E0B402067D017F04800B9014
:101AC000A112E0B408077D017F0C1255631257E4A0
:101AD00090A118E0FF7D01125563126F94D0D0924F
:101AE000AF229001347440F0FDE4FF74152FF8E646
:101AF0004DFEF674302FF582E43401F583EEF022CA
:101B00007D027F0251EA7D017F0274152FF8E6FE07
:101B1000EDF45EFEF674302FF582E43401F583EEC9
:101B2000F022EF70347D787F0251EA7D027F03510D
:101B3000EA7DC87F0212A994900157E4F090013C1D
:101B40007402F07D017F0C12556390A113E054F7ED
:101B5000F090060AE054F8F0229001367478F0A371
:101B60007402F07D78FF51CB7D027F0351CB90064C
:101B70000AE04407F090A121A3E0900558F090A05E
:101B80008DE0B4011590A114E054FBF090A119E090
:101B900020E20E7D017F0402556390A114E044040D
:101BA000F02290A17EE004F090A10EE0FF30E0086A
:101BB00090A112E06402603A90A116E07004EF3048
:101BC000E00A90A119E064026028F10F90A114E0EE
:101BD000131313541F30E01490A11CE0FFA3E06F17
:101BE000700AF1E451E090A11DE014F09001E6E0EC
:101BF00004F02290A148E030E005126F65800312E6
:101C0000841690A10EE030E00690A1107401F090CF
:101C1000A116E0604590A114E0FF131313541F3088
:101C2000E01290013BE030E40B51E090A11CE01485
:101C3000900573F090A317E475F0011208D6C390D5
:101C4000A318E0948090A317E064809480400B90E8
:101C50000198E054FEF0E04401F012AA7012AA1AB2
:101C60007F018004B19D7F048F707F021247A7908F
:101C70009F96E04570F02290FD68E0FF90FD60E0E7
:101C800090A248F0EF20E002A19C90A309E0701A16
:101C90007F2E124C4090A167EFF07F2D124C4090A8
:101CA000A168EFF090A3097401F090A248E06415D8
:101CB000706E90FD62E0FF30E61CF4543F04FE902D
:101CC000A167E01313543FC39E90A247F0D3943F03
:101CD000401DE4F0801990A167E01313543FFEEF1C
:101CE000543F2E90A247F0D3943F4003743FF090AE
:101CF000A247E0FF5430C4540FFEEF25E025E04E2C
:101D000090A246F0E0FD7F2E12499D90A247E0C4CC
:101D100054F0FF90A168E0540F4FFD7F2D12499DB4
:101D200090A248E0B4210B90FD62E0FFF1C07F0477
:101D3000914890A248E0B423047F01914490A248C6
:101D4000E0B427071284F47F02914490A248E0B4E3
:101D5000300CE4FBFD7F011281387F04914890A292
:101D600048E06434702890FD62E030E01E90A246A6
:101D70007401F0FB7AA27946FD7F34124F4390A2A2
:101D8000467403F0E0FF12848E800312851E90A239
:101D900048E0FDB4350790A135E04401F0EDB440D2
:101DA0001490FD62E030E00890A1507401F08005CD
:101DB000E490A150F090FD68E04401F02290A291DF
:101DC0007409F090A29F7407F090A293EFF0703125
:101DD00090A146E0601AA3E06002800C900770E0DA
:101DE0007006900774E0600890A2947401F080057A
:101DF000E490A294F0E490A295F0A3F0A3F0A38065
:101E00003990FD62E090A294F090FD63E090A2957D
:101E1000F090FD64E090A296F090FD65E090A297AE
:101E2000F090FD66E090A298F090FD67E090A29996
:101E3000F090A294E0540190A146F0A3F07B017AC7
:101E4000A27991D310AF01C3C0D090A088E0FF70F9
:101E500006A3E06409600AEF14FF90A089E0B507CB
:101E6000047F0180027F00EF60099001C1E044021D
:101E7000F08035C00190A089E075F00FA424F2F93C
:101E8000749F35F0A801FC7D01D0017E007F0F1208
:101E9000066390A089E004F0E07F00B40A027F01AD
:101EA000EF6005E490A089F0D0D092AF2290A228F4
:101EB000EFF090047EE0F55EA3E0F55F655E606E96
:101EC00090A2297403F090A2377408F0E55F0454DF
:101ED0000FF560E4F55DE56075F008A42400F58277
:101EE000E43480F583E582255DF582E43583F5836E
:101EF000E0FF742B255DF582E434A2F583EFF00555
:101F00005DE55DB408D07B017AA27929D123E55F34
:101F100004540FF55FB40F03E4F55F90047FE55FB1
:101F2000F090A228E07F047002814812658422901C
:101F3000A08DE064016002E1AF90A116E07002E1C3
:101F4000AF90A115E0C4540F640170229006ABE07D
:101F500090A11DF09006AAE090A11CF0A3E0FF70F4
:101F60000890A11CE0FEFF800090A11DEFF090A161
:101F700014E04404F0E490A11FF090A121A3E090AC
:101F80000558F0900157E4F090013C7402F090A1E4
:101F90001AE054FDF054EFF090A115E0FFC4540F87
:101FA00024FD5002800F90A10EE030E00512AD221A
:101FB000800312B03D90A114E0131313541F30E0BE
:101FC0000E90A11CE0FFA3E0B50704F1E451E690F8
:101FD000A10EE0C31320E00790A114E04404F02216
:101FE00090A2497408F090A2577401F090A24BEFB0
:101FF000F07B017AA27949C123E4FFC18D12887870
:102000007F028148EF14900573F090013F7410F047
:10201000FD7F03741D2FF8E64DFEF674382FF58210
:10202000E43401F583EEF0227FF4124C40EF20E51A
:102030000E7FF4124C40EF7F0120E4057F02227FE7
:1020400003221108909F9AEFF0124F3390016474AD
:1020500001F0900423E04480F002368375E80775B0
:10206000A88522E4FBFAFD7F011247CE90A205EF7E
:10207000F060F0909F97E0FF909F96E0FE4F60E346
:10208000C2AFEE30E00A54FEF0E4FF51CE12998860
:10209000D2AFC2AF909F96E0FF30E10554FDF01142
:1020A000CED2AFC2AF909F96E0FF30E20554FBF076
:1020B0003132D2AFC2AF909F96E0FF30E60554BFF9
:1020C000F011A7D2AF80ACE47B017AA17972124FF4
:1020D0003FEFB4021890A307E06404600B7F40B1A7
:1020E0008490A307E004F022E490A307F022D31029
:1020F000AF01C3C0D0909FF1E0FF909FF0E0B50723
:10210000047F0180027F00EF7043909FF0E0FE7536
:10211000F008909FA0124899E0FDEE75F008A42405
:10212000A1F9749F35F0FA7B01AF05910C909FF0F7
:10213000E004F0E07F00B40A027F01EF6005E49064
:102140009FF0F0128878909F96E04402F0D0D092F1
:10215000AF22D310AF01C3C0D0E4FF90A089E0FE4E
:1021600090A088E0FDB506047E0180027E00EE644A
:102170000160489001AFE07013ED75F00FA424F2F8
:10218000F9749F35F0FA7B0131A07F0190A088E0BF
:1021900075F00FA424F2F9749F35F0FA7B01510316
:1021A0007F01EF601690A088E004F0E0B40A02809E
:1021B000027F00EF6005E490A088F0D0D092AF22BB
:1021C000D310AF01C3C0D090A2061248AE90A2FABD
:1021D000E0FF04F0900001EF1206E17FAF7E0151B5
:1021E00078EF603A90A2061248A58B408A41894256
:1021F00090000E1206A22402F5437B017A0179A019
:1022000012346290A2061248A590000E1206A29007
:1022100001AEF0A374FFF09001CBE06480F0D0D069
:1022200092AF22D310AF01C3C0D090A3031248AE27
:102230007F967E025178EF605A900117E0FE900180
:1022400016E07C002400FFEC3EFEEF2401FFE43E9C
:10225000FE90A306EFF0EEFF90FD11F090A306E0D4
:10226000FD900294F0A3EFF090A3031248A5900014
:102270000E1206A22402FFE433FE1289B690A306D2
:10228000E02418FF90A3031248A5128A1190029629
:102290007401F0D0D092AF22D310AF01C3C0D09060
:1022A000A2FBEEF0A3EFF0E4A3F0A3F090A2FBE01A
:1022B000FEA3E0F5828E83E0602DC390A2FEE09441
:1022C000E890A2FDE09403400B9001C0E04480F050
:1022D0007F00801590A2FDE475F0011208D67F0AF8
:1022E0007E00123D7A80C57F01D0D092AF2290A1AE
:1022F00080EFF0E4F56D7481256DF582E434A1F58D
:1023000083E4F075F010E56D908103124899E03098
:10231000E70F7481256DF582E43493F583E4F08052
:1023200013AF6D12A9857481256DF582E434A1F592
:10233000837401F0056DE56DC3948040B97F0C7E18
:1023400000123D7AE4F56D7481256DF582E434A1C7
:10235000F583E07002810075F010E56D9081061242
:102360004899E0F56B75F010E56D9081071248997A
:10237000E0F56CFEE56BFFE56D25E02401F582E4F8
:102380003492F583EEF0A3EFF075F010E56D9081D7
:102390000A124899E0F56B75F010E56D90810B120B
:1023A0004899E0F56CFEE56BFF75F00AE56D908DE0
:1023B00001124899EEF0A3EFF07F0175F010E56D82
:1023C00090810B124899E5822FF582E43583F583DD
:1023D000E0FD75F00AE56D908D0112489975F002E7
:1023E000EF124899E4F0A3EDF00FEFB405CD75F0CE
:1023F00010E56D908109124899E0FF7416256DF57E
:1024000082E43498F583EFF090A180E0FDAF6D1287
:10241000A2567481256DF582E43493F5837401F03E
:10242000056DE56DC39480500261272290A20612CB
:1024300048AEEF1248B7646800647101647A0264C0
:102440008203648B04649312649B1464A42064ADBF
:102450002164B62364BF2464C82564D14064DA4291
:1024600064E34364EC6064F56164FD626506636582
:102470000F64651865652166652967653168653A89
:102480006965436A0000654C90A2061248A5028562
:102490008D90A2061248A50285D590A2061248A5E5
:1024A000C18490A2061248A502AA5090A206124822
:1024B000A5C11790A2061248A5A15490A2061248E1
:1024C000A50286AB90A2061248A5026DB890A2069E
:1024D0001248A50286BA90A2061248A5028700906B
:1024E000A2061248A50258B690A2061248A5028775
:1024F0000890A2061248A502A5A690A2061248A519
:1025000002A72F90A2061248A502A7E890A20612E1
:1025100048A502684190A2061248A5806B90A206C9
:102520001248A50287C690A2061248A50287CD9040
:10253000A2061248A50287E690A2061248A50288C4
:102540004790A2061248A5C14490A2061248A58051
:102550006E90A2061248A502885990A2061248A5BC
:1025600002805190A2061248A5024F929001C0E04D
:102570004401F022120689FF90A08CF0BF010812DE
:102580008ABFE490A08CF02290A152E04404F07D38
:10259000017F23124F43EFB40309E4FF125D9D7FD7
:1025A00004B1842290A322EFF07F021247A7909FEC
:1025B00096E0FF90A322E0FEEF4E909F96F022D38C
:1025C00010AF01C3C0D012068990A209F09000019B
:1025D0001206A290A20AF09000021206A290A20B8C
:1025E000F09000031206A290A20CF09000041206D4
:1025F000A290A20DF0E4A3F0A3F090A152E0444019
:10260000F07B017AA279097D077F30124F43EFB446
:10261000010890A2107401F08005E490A210F090DF
:10262000A210E0FD90A209E0FBE4FF1281387F04D4
:10263000B184D0D092AF22126F3B120689FF5401B1
:10264000FE90A179E054FE4EF0EFC31330E01490F9
:1026500000011206A290A17AF09000021206A29048
:10266000A17BF02290A2091248AE90A2091248A5BF
:1026700012068990A172F09000011206A290A17337
:10268000F09000021206A290A174F090A152E044D2
:1026900001F090A2091248A5124F3FEFB402047F47
:1026A00040B18422D310AF01C3C0D090A209124818
:1026B000AE120689FF90A10DF0BF011290A209127F
:1026C00048A59000011206A264016022801E90A21B
:1026D000091248A59000011206A26401601090A1A1
:1026E0000EE020E007E4FF12AAC68002D1D3D0D0CA
:1026F00092AF22D310AF01C3C0D090A10DE0B401BE
:10270000047F04800C1258AABF01047F0180027F5D
:102710000212AAC6D0D092AF2290A10EE030E010F3
:10272000A37401F090A10EE0FFC31330E002D1D3F7
:10273000127C8C90A3137402F090A12EE020E00391
:10274000026819E4FF126CA190A132E0FF13135448
:102750003F30E003124D0A90A12EE0FFC413135442
:102760000330E008900778740DF0802D90A131E0DF
:10277000FEC4540F30E00DEE1313543F9007783031
:10278000E00F801290A131E0FEC31390077830E093
:10279000057403F080037409F0EFC413131354019C
:1027A00030E007E490A314F0800690A3147401F0C5
:1027B00090A131E0C413540720E01390A16BE060B6
:1027C00007E490A313F0800690A3137401F090A384
:1027D00013E0FFA3E0FD126BB690A13F7401F090EF
:1027E000A12EE0FFC413540730E007900522E4F067
:1027F0008026EFC4540F30E01F90A134E04420F055
:1028000090A12DE060067D017F048009900522E4FF
:10281000F07D017F0C12556390A12DE090052260A0
:1028200005746FF08002E4F090A131E0C41313133B
:10283000540130E0047F01111A2290A15CE0FEC334
:102840001330E01CEFB4010590A163800390A15FF9
:1028500012486190AAB912086D7F587E0C12380791
:1028600022D310AF01C3C0D090A20B1248AE120603
:1028700089FF5401FE90A12EE054FE4EFEF0EF546D
:1028800002FFEE54FD4FFFF0120689FE5404FDEFE7
:1028900054FB4DFF90A12EF0EE5410FEEF54EF4E7E
:1028A000FFF0120689FE5420FDEF54DF4DFF90A18A
:1028B0002EF0EE5440FEEF54BF4EFFF01206895446
:1028C00080FEEF547F4E90A12EF09000031206A2DE
:1028D000FF5401FE90A131E054FE4EFEF0EF540291
:1028E000FFEE54FD4FFFF09000031206A2FE5404C9
:1028F000FDEF54FB4DFF90A131F0EE5410FEEF546C
:10290000EF4EFFF09000031206A2FE5420FDEF549C
:10291000DF4DFF90A131F0EE5440FEEF54BF4EFF6B
:10292000F09000031206A25480FEEF547F4E90A157
:1029300031F09000041206A2FF5420FE90A132E074
:1029400054DF4EFEF0EF5440FFEE54BF4FFFF090C7
:1029500000041206A2FE5480FDEF547F4DFF90A1AB
:1029600032F0EE5404FEEF54FB4EFFF090000412E0
:1029700006A2FE5402FDEF54FD4DFF90A132F0EE91
:102980005410FEEF54EF4EFFF09000041206A254D4
:1029900008FEEF54F74E90A132F0E0FF1313543FBE
:1029A00020E008124D0A900522E4F090A20B124894
:1029B000A512068920E0026100900554E0C313903F
:1029C000A13EF090A131E0C4540F30E01690000118
:1029D0001206A290A12FF09000021206A290A13040
:1029E000F080489000011206A2FFC3942A5012EF13
:1029F000C3940390A12F50057403F0800AEFF08078
:102A00000690A12F742AF09000021206A2FFC39430
:102A10002A5012EFC3940390A13050057403F08044
:102A20000AEFF0800690A130742AF090A132E0C441
:102A30001313540330E03D90A12FE075F003849010
:102A4000A137F0E0C313A3F090A130E075F0038448
:102A500090A139F090A12FE0C31390A13AF090A17A
:102A600030E0C31390A13BF090013E7408F0FD7F6D
:102A700002125FF3E490A169F090A20B1248A590B6
:102A800000031206A2C41313540320E02F12068978
:102A9000131313541F30E00890A16BE06008800E00
:102AA00090A16BE0600890A2097401F08005E490A9
:102AB000A209F090A209E0FF7D0271B690A12EE07C
:102AC000C4540F30E01B90A132E0C413540730E02F
:102AD0000690A1187404F0900500741CF0A3741102
:102AE000F09005587402F090A136E0FFB401089010
:102AF000A1407401F08022EFB4040890A140740456
:102B0000F08016EFB4060890A1407402F0800AEF3E
:102B1000B4070690A1407405F0E490A136F08076E9
:102B200090A20B1248A59000031206A2FFC4131333
:102B3000540330E00890A20A7402F080191206894A
:102B4000FF131313541F30E00890A20A7401F080A1
:102B500005E490A20AF0B15D7D207F4012499D906E
:102B6000A20B1248A59000031206A2131313541FC0
:102B700090077830E0057403F080037401F090A2B0
:102B80000AE0FD7F0271B6900522E4F09005007422
:102B90001CF0A37443F090A134E054DFF0E490A162
:102BA0003FF090A131E0C4131313540130E00990B9
:102BB000A15CE04402F0800B7F01111A90A15CE05F
:102BC00054FDF07F0391A1D0D092AF2290A239E0C2
:102BD000FF90A238E0FDD310AF01C3C0D090A2D7C0
:102BE000EFF0A3EDF090A131E0C41313540330E0F3
:102BF00002819C7FB47E0C1237BC90A2D912086D62
:102C000090A2D7E0FB6402602C90A2D9124861EC3C
:102C100054CFFC90A2D912086DEB90A2D9B4010850
:102C2000124861EC44208006124861EC4410FC908C
:102C3000A2D912086D90A2D8E0FB6402605E90A257
:102C4000D9124861E4FFEC90A2D912086DEB700D27
:102C500090A2D9124861EF4477FFEC803990A2D955
:102C6000124861EF4466FFEC90A2D912086D90A261
:102C7000D9124861EC54CFFC90A2D912086D90A1F2
:102C80006BE090A2D96008124861EC4410800612F3
:102C90004861EC4420FC90A2D912086D90A2D7E0C4
:102CA000B40206A3E06402601390A2D912486190B6
:102CB000AAB912086D7FB47E0C123807D0D092AF3B
:102CC00022D310AF01C3C0D0EFB4031390A131E001
:102CD000C4131354039006CC30E017E4F080169030
:102CE000A132E0C4540F30E00CEF9006CC7003F03A
:102CF00080037403F0D0D092AF2290A15CE054FE28
:102D0000F054FBF054FDF054F7F0E4A3F0A3F07F8F
:102D1000587E0C1237BC90A16312086D90A163120B
:102D2000486190A15F12086DE490A169F0A3F0A33F
:102D3000F0A304F0E4A3F0A3F0A3F0A3F0A3F090B9
:102D4000FD68E04402F09007787403F01283C6B186
:102D50005D90A1467401F0E4A3F090A150F0A3F0BF
:102D6000FD7F0171B6E490A16CF022F104F10A122A
:102D70008E61F19412ADE8F129F13B81DA90A13432
:102D8000E054DFF0E490A133F090A135E054FEF080
:102D900054FDF054FBF0E490A13CF0A3F0A3F0A3A9
:102DA000F0A3F0A37402F0E4A3F0A3F090A148E034
:102DB00054FEF054E1F0E490A145F090A152E054AB
:102DC000FEF054FDF054FBF054F7F054BFF0547F84
:102DD000F054EFF054DFF02290A2091248AE120630
:102DE00089FF547F90A116F0EFC41313135401A36D
:102DF000F09000011206A2FF54F0C4540FFE90A1FF
:102E000015E054F04EF09000031206A2540125E0A4
:102E1000FE90A113E054FD4EF0EF540FC454F0FFA8
:102E200090A115E0540F4FF09000041206A290A15B
:102E300018F09000051206A2FF5402FE90A12CE0AB
:102E400054FD4EFEF0EF5404FFEE54FB4FFFF090A4
:102E500000051206A2FE5408FDEF54F74DFF90A1A5
:102E60002CF0EE5410FEEF54EF4EFFF090000512E0
:102E700006A2FE5420FDEF54DF4DFF90A12CF0EE92
:102E80005440FEEF54BF4EF0E0FFC4131354032030
:102E9000E036EFC31320E00E90A20D7401F090A174
:102EA0006BE0600D8012E490A20DF090A16BE060E9
:102EB00007E490A20CF0800690A20C7401F090A29E
:102EC0000CE0FFA3E0FD71B690A2091248A5D1D590
:102ED0009001B97401F09001B8F090A116E0900152
:102EE000BAF090A118E09001BBF090A115E0540F4A
:102EF0009001BEF02290A20E1248AEF11890A116D9
:102F0000E0FF125B0290A116E0601890A20E12483A
:102F1000A59000011206A2540FFF9000021206A213
:102F2000FDF1B922E490A08DF022E490A088F0A3F6
:102F3000F0909FF0F0A3F02290A113E054FBF0E496
:102F400090A11FF090A11AF02290A176E054FEF01B
:102F5000547FF0A3740AF0E4A3F02290A179E05426
:102F6000FEF0A37403F0A3F0E4A3F0A3F0A3F02217
:102F700090052274FFF09007787401F090A16BE047
:102F8000FFE4FD61B6F15090A148E0FFC41354077F
:102F9000FEEFC313540FC39E400302851E90A14849
:102FA000E0FFC313540FFEEF54E1FFEE04540F256E
:102FB000E04FF02290A10EE054FEF054FDF054FBDF
:102FC000F054F7F054EFF054DFF054BFF0E4A3F006
:102FD000A3F0A3F0A3740CF022EF24FE600C0470A5
:102FE0002890A11C7401F0A3F022ED700A90A12A90
:102FF000E090A11CF0800590A11CEDF090A11CE0D8
:10300000A3F090A114E04408F022C0E0C083C08285
:10301000C0D075D000C005C0077DEA9001C4EDF0B6
:10302000746FFFA3F0ED049001C4F0A3EFF0D0079C
:10303000D005D0D0D082D083D0E032C0E0C0F0C084
:1030400083C082C0D075D000C000C001C002C003E0
:10305000C004C005C006C0079001C4741BF07470A2
:10306000A3F0124C62E51430E7021172741B049055
:1030700001C4F07470A3F0D007D006D005D004D0FE
:1030800003D002D001D000D0D0D082D083D0F0D0F5
:10309000E0327F05124C40EF4480FD7F0502499DE0
:1030A000C0E0C0F0C083C082C0D075D000C000C0F6
:1030B00001C002C003C004C005C006C0079001C41F
:1030C0007480F07470A3F0128C9FE51930E1031244
:1030D0005FD9E51930E403125FDDE51930E503122D
:1030E0008CCCE51930E602F1D9E51B30E00312661D
:1030F000F9E51B30E103125BD3E51B30E203125B01
:1031000082E51B30E303128D08E51B30E403128DCA
:1031100024E51B30E5025165E51B30E603128D53B3
:10312000E51C30E1025182E51C30E402F1C8E51CE7
:1031300030E5023142E51C30E602513B74800490D8
:1031400001C4F07470A3F0D007D006D005D004D02D
:1031500003D002D001D000D0D0D082D083D0F0D024
:10316000E032E4F55D748D255DF582E434A0F583ED
:10317000E07002412FE55D131313541FFFE55D540A
:1031800007FE74812FF582E43494F583E0FDAF06E9
:1031900074017E00A807088005C333CE33CED8F96A
:1031A000FFEF5D7002412F75F010E55D9081011217
:1031B0004899E020E702801075F010E55D908102EB
:1031C000124899E0FF20E7099001C1E04420F08017
:1031D0007EEF30E62375F010E55D9081001248998E
:1031E000E0FD75F010E55D908105124899E054030B
:1031F00090A2C1F0E4FB80537496255DF582E4341F
:103200009EF583E004F07496255DF582E4349EF526
:1032100083E0D394034013AF5D51C77496255DF5E9
:1032200082E4349EF583E4F0802575F010E55D902E
:103230008100124899E0FD75F010E55D908105125E
:103240004899E0540390A2C1F07B01AF5D712C0559
:103250005DE55DC39480500221452290071FE05434
:103260007FF090071CE05401FF90A22AF090A22862
:103270007402F090A23614F0FB7AA27928125E2331
:103280007F0402658490A08DE0B4011590A116E042
:10329000600F90A115E0540F640260028025125760
:1032A000CD2290A116E0700790A10EE030E01390BF
:1032B000A10EE030E0091258AABF0106027B0D12F0
:1032C000579D2290A12CE0C4540F20E01990041DBA
:1032D000E07013909F9CE0FFE4FD91FE8E6E8F6F77
:1032E00090041F7420F022AD079001C474C7F074DD
:1032F00072A3F075F010ED908105124899E0540327
:10330000F55F75F004ED909616124899E0F560743B
:10331000162DF582E4349FF583E0FF547FF55E744B
:10332000162DF582E4349DF583E0F55FE55ED395D7
:1033300060400385605EEF5480425EAF0590A2C19D
:10334000E55FF0E4FBAD5E712CAF5E22D310AF0100
:10335000C3C0D090A2BEEFF0A3EDF0A3EBF0E490D9
:10336000A2C7F090A2BEE0FF131313541F90A2C295
:10337000F0EF540790A2C4F090A2BEE075F0109058
:103380008101124899E090A2C5F075F004EF909683
:1033900016124899E0547F90A2C8F090A2BEE07542
:1033A000F004909617124899E090A2C9F0ED547F6E
:1033B00090A2C3F0EB7040E0FB25E0249FF582E48F
:1033C0003443F583E493FE740193FFE4FCFD75F050
:1033D00004EB90424F12489912488912482978010B
:1033E00012084790A2BEE025E02495F582E43494CB
:1033F000F583EEF0A3EFF090A2C8E0FF90A2C3E047
:10340000FED39F400C90A2BFE05480FDEF4DF080B2
:103410000F90A2C9E0FFEEC39F500590A2BFEFF04E
:1034200090A2BFE0FF547FFE90A2C3F0FDEF548056
:1034300090A2C6F090A2BEE0FF1298CF90A2C0E08A
:10344000703390A2C2E02481F582E43494F583C005
:1034500083C082E0FF90A2C4E0FE7401A806088049
:1034600002C333D8FCF45FD082D083F090A2C5E0D1
:10347000547FF0805390A2C2E02481F582E434941A
:10348000F583C083C082E0FF90A2C4E0FE7401A86F
:1034900006088002C333D8FC4FD082D083F090A2BC
:1034A000BEE075F010908101124899E05407FF903A
:1034B000A2C5F090A2C3E09044539333333354F841
:1034C0004F90A2C5F04480F090A2BFE0FF90A2BE52
:1034D000E0FE75F010908100124899EFF090A2C5BF
:1034E000E0FF75F010EE908101124899EFF075F051
:1034F00010EE908105124899E054FCFF90A2C1E0C3
:1035000054034FFE90A2BEE0FF75F01090810512AB
:103510004899EEF07D0112A256D0D092AF22D3107E
:10352000AF01C3C0D090A31AEDF090A319EFF0E45F
:10353000FDFCF1D17C00AD0790A319E0900425F0CB
:1035400090A31AE0600E74212FF582E434FCF58319
:10355000E04480F0AF0574202FF582E434FCF5835D
:10356000E054C0F074212FF582E434FCF583E0547C
:10357000C0F074292DF582E434FCF583E054F7F0B3
:10358000AE04AF05D0D092AF2290A135E04402F056
:103590007F01D310AF01C3C0D08F6790041DE060DE
:1035A0001E900522E0F56A74FFF0128DF4BF01074A
:1035B000AF6712B0C8B1AE900522E56AF08002B1E3
:1035C000AE90041F7420F07F01D0D092AF22909F64
:1035D0009DE0FF7D0191FE8E688F69AD69AC68AF9B
:1035E00067D14BAF69AE68908100E0540FFDAC0726
:1035F000740D2CF582E434FCF583E04401F0740D85
:103600002CF582E434FCF583E054FBF0AC07741233
:103610002CF582E434FCF583E044FAF074112CF5C7
:1036200082E434FCF583E0441FF0AC0774062CF50B
:1036300082E434FCF583E0440EF09004A7E4F090BB
:1036400004A6F09004A574FFF09004A474FDF07437
:10365000142CF582E434FCF583E054C04DFD741461
:103660002FF582E434FCF583EDF02274092DF58208
:10367000E434FCF583E0543FF0EF605274292DF5FB
:1036800082E434FCF583E04410F074092DF582E403
:1036900034FCF583E04480F090A132E0C413540779
:1036A00030E04790A144E0FFC394205013EF25E0A1
:1036B00025E0FF742B2DF582E434FCF583EFF02236
:1036C000742B2DF582E434FCF583747FF022742989
:1036D0002DF582E434FCF583E054EFF074092DF508
:1036E00082E434FCF583E04440F022909F9FE0FFA9
:1036F0007D0191FE90A23EEEF0FCA3EFF0FD90A2C2
:103700003BE0FFA3E0FBA3E090A245F090A242ECD7
:10371000F0A3EDF0A3EBF090A242E0FCA3E0FDD11A
:103720004B90A242A3E0FFFD240DF582E434FCF5AA
:1037300083E04480F0740D2DF582E434FCF583E0E1
:1037400054EFF074122FF582E434FCF583E0440268
:10375000F074122FF582E434FCF583E05403F0900A
:10376000A244E0FF90A242A3E0FE242AF582E434C2
:10377000FCF583EFF090A245E0FF742B2EF582E478
:1037800034FCF583EFF0742C2EF582E434FCF583E1
:10379000E004F02290A23BEFF0A3EDF0A3EBF09059
:1037A000041DE0601A900522E090A240F0128DEE18
:1037B000BF0102D1CB90A240E0900522F08002D15F
:1037C000CB90041F7420F0228F5D90041DE07017D1
:1037D000909F9EE0FF7D0191FEAD07AC06AF5DD1ED
:1037E0004B90041F7420F022E4FF0262CEE4FFA19C
:1037F0007290FD10EFF07F002290A10EE030E00506
:10380000E4A3F0A3F022C0E0C0F0C083C082C0D027
:1038100075D000C000C001C002C003C004C005C014
:1038200006C0079001C474E6F07477A3F0712AE52E
:103830002130E1021187E52130E203125870E522C0
:1038400030E002315BE52330E1023113E52330E063
:103850000211A5E52330E30251FCE52430E1057FA8
:1038600004125C48E52430E4021190E52430E502BE
:1038700031A4E52430E602513FE52430E703125736
:10388000EC74E6049001C4F07477A3F0D007D0067E
:10389000D005D004D003D002D001D000D0D0D08247
:1038A000D083D0F0D0E03290A116E06002912E22B9
:1038B000519B90A11CE014900573F07D027F0212D1
:1038C0005ACB02671390A10EE0FF30E03E90A112A8
:1038D000E07E00B402027E0190A111E07D00B404FC
:1038E000027D01ED4E7024EFC31330E0030266D376
:1038F00011EC90A112E0B40806E4FD7F0C80099061
:10390000A112E07006FD7F041255632290A10EE023
:10391000FFC41313540330E00F90A112E06402605F
:10392000077D017F0212556390A112E064026002DC
:10393000710D2290A10EE0FF30E03F90A112E07ED9
:1039400000B402027E0190A111E07D00B404027D6A
:1039500001ED4E7025EFC31330E0030266D371DF33
:1039600090A112E0B40C06E4FD7F08800A90A11239
:10397000E0B40406E4FDFF12556322719490A2386E
:10398000EFF090A11330E006E04401F08004E05431
:10399000FEF090A238E030E61190012FE030E7040D
:1039A000E4F0800690012F7480F090A113E030E0E5
:1039B0001290A121E4F0A37404F090A121A3E0905F
:1039C0000558F02290A113E0FFC41313540330E014
:1039D0003CEF54BFF09004E0E090A11430E006E02A
:1039E0004401F08010E054FEF09001B97401F090B1
:1039F00001B87404F090A134E0FFC413540730E020
:103A0000097D017F0C125563800312585BE4FF901F
:103A1000A179E030E04890A17DE0FD604174017E35
:103A200000A807088005C333CE33CED8F9FF900431
:103A3000E0E0FBEF5B6006E490A17DF02290A17BCB
:103A4000E0D39D50109001C77410F051FD90A17902
:103A5000E054FEF0221277CD90A17DE004F0229098
:103A6000A113E0FFC4131313540130E04AEF547F55
:103A7000F09004E0E090A11430E106E04402F08010
:103A80000FE054FDF09001B97401F09001B804F01A
:103A900090A132E0FFC41313540330E01190A1351C
:103AA000E0FFC31330E007EF4404F054FDF090A1B1
:103AB00016E0600312585B7F0121EFE490A238F01A
:103AC00090A116E0605590A08DE06401704D90A229
:103AD0003804F0E490A11DF090A10EE030E01690C3
:103AE000A112E0B40205E490A238F01258AAEF70D7
:103AF0000490A238F090A238E0602090A11AE0442F
:103B000010F0E4F56590A11E12504490A119E02038
:103B1000E2077D017F04125563715A2222909F9A19
:103B2000E064026007900690E04401F02290A11644
:103B3000E06402601490A115E0540F600C1257F875
:103B4000EF7006FD7F0C1255632290013CE0551D7D
:103B5000F521A3E0551EF522A3E0551FF523A3E0B0
:103B60005520F52490013CE521F0A3E522F0A3E5E2
:103B700023F0A3E524F05391DF2290A12CE0FFC3B2
:103B80001330E02FEF131313541F20E02690A131C0
:103B9000E0C4540F30E0079007787403F02290A13E
:103BA0002CE01313543F90077830E004740DF0229A
:103BB0007409F022E490A239F0A3F0A3F07F8312FD
:103BC0004C4090A239EFF07F83124C40AE0790A298
:103BD00039E0FFB5060122C390A23BE0946490A2B5
:103BE0003AE09400400D9001C0E04440F090A239CA
:103BF000E0FF2290A23AE475F0011208D680BE9050
:103C00000157E06048E4F090013C7402F090A11389
:103C1000E0FF1313543F30E00CEF54FBF090A11A77
:103C2000E054FDF02290A11FE004F090A11AE054AE
:103C3000EFF090A127E0FF90A11FE0D39F400E90EE
:103C4000A08DE0B4010790A114E054FBF02290A1F4
:103C500013E0FF1313543F30E011EF54FBF090A139
:103C60001AE054FDF054077042803D90A11FE0041B
:103C7000F090A11AE054EFF090A11FE0FFB4010210
:103C80008004EFB40206900558E004F090A127E00C
:103C9000FF90A11FE0D39F400F90A08DE0B4010BD7
:103CA00090A114E054FBF02212585B22E490A22869
:103CB000F090A116E07002A13790A08DE064016041
:103CC00002A13790A115E0FFC4540F602224FE60CA
:103CD0000304702190A11DE014F0E0FF600690A1A4
:103CE0001FE06011EF700890A11CE0A3F08000902D
:103CF000A2287401F090A10EE030E01690A112E02D
:103D0000B40205E490A228F01258AAEF700490A221
:103D100028F090A228E0603F90A11AE04410F090B3
:103D2000A11FE06003B40109E4F56590A11FE080E4
:103D30000DE4F56590A11FE075F003A424FEFF904B
:103D4000A11EE02F12504590A119E020E2077D014D
:103D50007F04125563715A22C0E0C0F0C083C08254
:103D6000C0D075D000C000C001C002C003C004C0F4
:103D700005C006C0079001C47438F0747DA3F0122A
:103D80005C575391BF7438049001C4F0747DA3F064
:103D9000D007D006D005D004D003D002D001D00087
:103DA000D0D0D082D083D0F0D0E032C0E0C083C089
:103DB00082C0D075D000C005C0077D8B9001C4EDD6
:103DC000F0747DFFA3F0ED049001C4F0A3EFF0D0F8
:103DD00007D005D0D0D082D083D0E03290A2CAEFF5
:103DE000F0A3EDF07D007C00E490A2D0F07FB07EE7
:103DF000081237BCE4FFEC90A2CC12086D90A2CC64
:103E000012487D90A2CBE0FFE4FCFDFE124843A3E4
:103E100012086D90A2CC12486190AAB912086D7F69
:103E2000B07E081238077F147E00123D7A90A2CA35
:103E3000E075F008A424B5F582E434ADF583E0FE26
:103E4000A3E0FF1237BCED540FFDE4FC22D310AF0A
:103E500001C3C0D0B1BCD0D092AF22D310AF01C348
:103E6000C0D090A26DECF0A3EDF090A26CEFF0A3A7
:103E7000A3E0FDD12D90A27712086D90A26F124899
:103E80006112083A90A27712487D124836C004C0E9
:103E900005C006C00790A26F12486190A273124835
:103EA0007D124836D003D002D001D0001248439092
:103EB000A27B12086D90A26DA3E0FDC00590A27BCD
:103EC00012486190AA9612086D90A26CE0FFD0058E
:103ED000123C33D0D092AF22D310AF01C3C0D0C0B8
:103EE00007C00590A2D312486190AA9C12086DD019
:103EF00005D007123234D0D092AF2290FD58E03076
:103F0000E0089001B8E004F080F1EF75F008A42417
:103F100000F582E434FCF583E090FD50F0EF75F09D
:103F200008A42401F582E434FCF583E090FD51F00F
:103F3000EF75F008A42402F582E434FCF583E090E8
:103F4000FD52F0EF75F008A42403F582E434FCF58B
:103F500083E090FD53F0EF75F008A42404F582E4AB
:103F600034FCF583E090FD54F0EF75F008A42405CF
:103F7000F582E434FCF583E090FD55F0EF75F00830
:103F8000A42406F582E434FCF583E090FD56F0EFBE
:103F900075F008A42407F582E434FCF583E090FD75
:103FA00057F0A37401F022D310AF01C3C0D0E4FCDA
:103FB00074282FFFE43EFE90A20CEFF0EEF9900182
:103FC000BDE04402F0900209E0C31390FD10F0EC54
:103FD000C3995043EC70047D058002E4FDEDC39469
:103FE000205007AF05D1DB0D80F30C90FD10E004ED
:103FF000F0ECB501DAE4FDED75F008A4FF90A20C39
:10400000E0FBC3EF9B7480F865F0985007AF05D1D3
:10401000DB0D80E30C80B89001BDE04404F0D0D00B
:1040200092AF2290A211740AF090A21F7406F012AF
:10403000068990A213F09000011206A290A214F03B
:104040009000021206A290A215F09000031206A2A0
:1040500090A216F09000041206A290A217F0900011
:10406000051206A290A218F07B017AA27911025ED5
:1040700023120689FF9000011206A290A20BF09075
:1040800000021206A290A20CF09000031206A29069
:10409000A20DF09000041206A290A20EF09000056E
:1040A0001206A290A20FF09000061206A290A21093
:1040B000F0EF1248B780AE0080BA0180C60280D20D
:1040C0000380DE0480EA0580F2060000811B90A2D6
:1040D000097402F0A37429F0806B90A2097406F0B1
:1040E000A3742AF0805F90A2097401F0A37431F0E8
:1040F000805390A2097401F0A37432F0804790A21B
:10410000097406F0A37433F0803B7B017AA2790B2B
:10411000010390A20BE090A16DF090A20CE090A1A1
:104120006EF090A20DE090A16FF090A20EE090A131
:1041300070F090A20FE090A171F02290A20974019A
:10414000F0A374FFF090A20AE0FF90A209E0FD7BCB
:10415000017AA2790B024F4390A2A0740BF090A2B7
:10416000AE7407F090A2A2EFF0603290FD63E09091
:10417000A2A3F090FD61E090A2A4F090FD64E09015
:10418000A2A5F090FD65E090A2A6F090FD66E090FB
:10419000A2A7F090FD67E090A2A8F0801190A2A3E2
:1041A000EDF0A3EBF0E4A3F0A3F0A3F0A3F07B0108
:1041B0007AA279A0025E2390A132E0C413135403C3
:1041C00020E00261C590A136E0640170349006924F
:1041D000E020E2069004E3E0601C9006927404F094
:1041E00090A142E004F090A137E0FF90A142E0B539
:1041F0000702800261AAE490A136F090A14004F089
:104200002290A136E064047035900692E020E20628
:104210009004E3E0601C9006927404F090A142E0E8
:1042200004F090A139E0FF90A142E0B507028002BE
:1042300061AAE490A136F090A1407404F02290A10C
:1042400036E064066002610990A143E0B404119075
:10425000A131E0C4540F90A14020E00241C5615358
:1042600090A135E0FF1313543F30E07DEF54FBF095
:10427000E4A3F090A131E0C4540F30E00EA3E0C3FA
:104280001330E002613990A140615390A143E0FFF7
:1042900090A142E02FFFE433FE7C007D0312070370
:1042A00090A13AE02FFFEC3EFEC3EF9432EE648023
:1042B0009480400F90A132E01330E002613990A168
:1042C00040615390A132E0C31330E01690A13674E0
:1042D00009F09006927404F0E490A142F090A308D3
:1042E000615F90A1407402F02212756990A143E0D1
:1042F00004F07F0312507790A143E0FF90A142E0C9
:104300002FFFE433FE7C007D0312070390A13AE007
:104310002FFFEC3EFEC3EF9432EE64809480500297
:1043200061C59007787403F02290A136E0640770AD
:104330005190A143E0B4040590A140803690A1358E
:10434000E0FF1313543F30E02EEF54FBF0E4A3F0F2
:1043500090A132E0C31330E01790A1367409F090B9
:1043600006927404F0E490A142F090A30804800F38
:1043700090A1407405F02212756990A143E004F009
:10438000804890A136E06409705B90A135E030E090
:104390000E90A1407405F090A135E054FEF02290FB
:1043A0000692E030E2297404F090A142E004F0E0CB
:1043B000B4021790A308E090A14060057405F08056
:1043C000037402F0E490A136F0227F03025077904C
:1043D000A308E090A14060057405F080037402F02A
:1043E000E490A136F02290A12EE054FEF054FDF0AE
:1043F00054FBF054EFF054DFF054BFF0547FF0A3BF
:10440000740BF0A37408F0A3E054FEF054FDF054D4
:10441000FBF054EFF054DFF054BFF0547FF0A3E012
:1044200054FDF054FBF054F7F054EFF054DFF05427
:10443000BFF0547FF022E490A228F090A12EE0304B
:10444000E06B90A132E0C41313540330E01F90A13D
:104450003AE0FF1250779006927404F090A13674FF
:1044600001F0E490A142F090A140F0801190A228C8
:10447000E0FF90A12F12507390A1407401F090A121
:104480003F7401F090A12DE06007900522746FF059
:1044900022900522E4F090A12EE0FFC413540720DF
:1044A000E00BEF1313543F30E0031272A32290A2EB
:1044B0004AEFF07FB47E0C1237BCE4FEFDEC90A115
:1044C0004912086D90A148E04401124B49900778C9
:1044D000E090A14DF090A16BE0FFE4FD126BB6906F
:1044E000A24AE0FD70028024EDB4010A90A148E0E8
:1044F000541F4420F02290A24AE0FDB4020A90A189
:1045000048E0541F4460F022EDB4030790A148E056
:10451000541FF02290A131E0C41313540320E01D76
:1045200090FD65E030E516E090A24930E6057401A3
:10453000F080037402F090A249E0FF918E2290A1D6
:1045400048E054FEF054E1F090A14DE0900778F07F
:104550007FB47E0C1237BCE4FFE4FC90A2F3120897
:104560006D90A2F312486190A14912487D12484310
:1045700090A2F312086D90A2F312486190AAB912AA
:10458000086D7FB47E0C123807124D0A900522E4A4
:10459000F02290A323EFF07F021247A7909F97E0AD
:1045A000FF90A323E0FEEF4E909F97F02290020928
:1045B000E0FD120689FEAF05ED2E909F9BF0900066
:1045C000011206A2FFED2F909F9CF09000021206B0
:1045D000A2FFED2F909F9DF09000031206A2FFED29
:1045E0002F909F9EF09000041206A2FFAE05ED2FC3
:1045F000909F9FF02290A2091248AE9000011206EF
:10460000A2FFFE120689FDC31330E01290A2091228
:1046100048A59000021206A290A20DF0800590A27B
:104620000DEFF090A20CEEF090A20DE0FE90A20C27
:10463000E0FFD39E503890A2091248A51206895473
:1046400001FE748D2FF582E434A0F583EEF0748DB5
:104650002FF582E434A0F583E07004D187800790C1
:10466000A20CE0FFD17690A20CE004F080BA90A0FA
:104670008DE0702190A119E07004FF12571790A1EE
:1046800019E0640C6002D19890A113E054F7F05443
:10469000BFF0547FF0228F5175F010EF908105121A
:1046A0004899E054FBF0228F5175F010EF9081058E
:1046B000124899E04404F022900604E0547FF09000
:1046C0000522E4F090A119740CF02212068954011D
:1046D000FF90A17FE054FE4FF0229000021206A24C
:1046E000FF30E02612068990A127F0900001120603
:1046F000A290A128F0EF54FEFFA3E054014FF090E8
:1047000000031206A290A12AF02290A1277401F0C2
:10471000A37405F0A3E054014428F0A37405F0222B
:1047200012068990A120F02212068990A12DF06036
:1047300035A3E020E030E4FD7F0412556390A12C06
:10474000E0FFC31330E01FEF131313541F20E016D4
:1047500090A12CE01313543F90077830E005740DBE
:10476000F080037409F090A12DE09001E7F0229011
:10477000A30A1248AEE4FE90FD50EFF06430603BB7
:10478000A3EDF0EEC39D501E90A30A1248A58E82A1
:104790007583001206A2FF74522EF582E434FDF5F3
:1047A00083EFF00E80DDEEC39406503374522EF585
:1047B00082E434FDF583E4F00E80EBEEC394075001
:1047C0001E90A30A1248A58E827583001206A2FFCE
:1047D00074512EF582E434FDF583EFF00E80DC9009
:1047E000FD587401F0227D017F17024F43E490A22F
:1047F00009F090A152E04410F07D017F1B124F435D
:1048000090A209EFF02290A2091248AE90A2F7E020
:1048100070137F587E0C1237BC90A16312086D9004
:10482000A2F77401F090A2091248A5120689FFE4CC
:10483000FCFDFE90A20C12086D90A163124861EC81
:1048400054C1FCC004C005C006C00790A20C1248A9
:1048500061781912085AD003D002D001D000124852
:104860004390A15F02086D12068990A16BF0900041
:10487000011206A290A16CF022D310AF01C3C0D0E8
:1048800090A153E04401F07D017F28124F4390A294
:1048900009EFF0D0D092AF229001CCE0540F90A35A
:1048A00015F090A315E0FD700221B5909FF0E0FF98
:1048B0007006A3E06409600AEF14FF909FF1E0B571
:1048C00007047F0180027F00EF60089001C1E0448F
:1048D00001F02290A2F8E0FF74017E00A807088092
:1048E00005C333CE33CED8F9FFEF5D700221A4E4C7
:1048F00090A316F090A316E0F9C39404507390A20D
:10490000F8E075F004A4FFE9FD7C002FFFEC35F022
:10491000FE74D02FF58274013EF583E0FF909FF185
:10492000E075F008909FA0124899E58229F582E48D
:104930003583F583EFF090A2F8E075F004A42DFF25
:10494000EC35F0FE74F02FF58274013EF583E0FF44
:10495000909FF1E075F008909FA4124899E5822994
:10496000F582E43583F583EFF090A316E004F08040
:104970008390A315E0FF90A2F8E0FE7401A806085A
:104980008002C333D8FCF45F90A315F090A2F8E046
:10499000FF7401A807088002C333D8FC9001CCF053
:1049A00090A2F8E004F0E05403F0909FF1E004F0EE
:1049B000E07F00B40A027F01EF70020182E4909F61
:1049C000F1F001829001C0E04402F090A2F8E044CE
:1049D0008090008AF022E4FCED2C2400F582E4347F
:1049E000FBF583E4F00CECB418EE74002DF582E4D2
:1049F00034FBF583EFF0EE543FFF74012DF582E4B4
:104A000034FBF583EFF074022DF582E434FBF5837B
:104A1000E054F0F074032DF582E434FBF583E044B8
:104A200080F0740B2DF582E434FBF583E04410F044
:104A30002290A2FFEFF0A31248AE90A2F9E0FE048C
:104A4000F0900001EE1206E174002FF9E434FBFA55
:104A50007B01C003C002C00190A3001248A58B4097
:104A60008A418942754302D001D002D003123462D8
:104A700090A2FFE02402F9E434FBFA7B01C003C0FA
:104A800002C001A31248A5E92402F9E43A8B40F5DB
:104A900041894290A3001248A590000E1206A2F58B
:104AA00043D001D002D00302346290A2147412F0F9
:104AB00090A2227405F090A216EFF0A3EDF0A3EB04
:104AC000F090A212E090A219F090A213E090A21A26
:104AD000F07B017AA27914125E237F040265847B45
:104AE000017AA279097FF57E011233FDBF0106909C
:104AF000A209E0A3F07B017AA279097FF67E011278
:104B000033FDBF010890A209E090A20BF07B017A6F
:104B1000A279097FF47E011233FDBF010890A2093A
:104B2000E090A20CF07B017AA279097FF37E01125A
:104B300033FDBF010890A209E090A20DF07B017A3D
:104B4000A279097FF27E011233FDBF010890A2090C
:104B5000E090A20EF090A20AE0FFA3E0FDA3E0FB2C
:104B6000A3E090A212F090A20EE090A213F0418A6E
:104B700090A30D1248AEE4FF90A30D1248A58F82BA
:104B80007583001206A2FE74F02FF582E43402F55C
:104B900083EEF00FEFB410E022751512E4F51675F0
:104BA0001707751872900130E515F0A3E516F0A30C
:104BB000E517F0A3E518F022751D06751E01751F97
:104BC00003752062432080900138E51DF0A3E51EA7
:104BD000F0A3E51FF0A3E520F022900194E044014A
:104BE000F09001C7E4F022900101E04404F090014C
:104BF0009AE054C0F07F0A7E00123D7A900199E05D
:104C000044C0F090019B7480F02290019AE054C05F
:104C1000440BF07F0A7E00123D7A900198E054C068
:104C20007F00B440027F0122E490A201F0A3F07162
:104C3000EAEF64016045C390A202E0948890A2016B
:104C4000E09413400F9001C1E04410F09001C7744C
:104C500003F0802790A201E475F0011208D67F14BA
:104C60007E00123D7AD390A202E0943290A201E03D
:104C7000940040BB9001C6E030E3B49001C77405D6
:104C8000F0227F0290A175E0FEEFC39E5018EF2541
:104C9000E02481F8E630E40B9001B87408F0A3F04A
:104CA0007F00220F80DE7F0122E4909F96F0A3F028
:104CB000A3F0A3F0229001E47414F0A3E4F0229096
:104CC0000134E05515F519A3E05516F51AA3E05582
:104CD00017F51BA3E05518F51C900134E519F0A356
:104CE000E51AF0A3E51BF0A3E51CF0229001CFE04C
:104CF00090A228F0E0FF30E0079001CFE054FEF0F2
:104D0000EF30E5239001CFE054DFF09001347420C0
:104D1000F0E4F5A8F5E8124EDA900003E054FBFD4C
:104D20007F0312499D80FE2290A08DE064017013E4
:104D300090A116E0600D900157E4F090013C7402E0
:104D400012503D2290A08DE06401702690A116E0E3
:104D50006020900157E4F090013C7402F090A113A0
:104D6000E054FBF090A11AE054FDF05407700312D8
:104D7000585B2290A08DE0B4011490A116E0600E63
:104D800090A11AE054FEF05407700312585B22D32E
:104D900010AF01C3C0D0E4FF90A2B0F09001C7E013
:104DA00064AD7037F090A2BD740FF090A2AF740A9A
:104DB000F0A3E004F090A2B0E02FFE74B12FF582D2
:104DC000E434A2F583EEF00FEFB40FE990013F74E5
:104DD00004F07B017AA279AF126203D0D092AF22A5
:104DE000D310AF01C3C0D090041DE0601A9005221B
:104DF000E0549060079001C0E04408F09001C6E0E4
:104E000030E1E47F0080027F01D0D092AF22900594
:104E10002274FFF0E490A31BF0A3F09005F8E0707B
:104E20000FA3E0700BA3E07007A3E070037F0122E3
:104E3000D390A31CE094E890A31BE09403400A9055
:104E400001C0E04420F07F00227F327E00123D7AD4
:104E500090A31BE475F0011208D680BFB1EE90015B
:104E6000377402F0FD7F03125ACB124B50E490A12D
:104E700019F090A112F0227F90124C40EF20E0F741
:104E800022E490A201F0E490A202F090A202E0FFDE
:104E9000C39410507590A201E0FE2416F582E4340C
:104EA00099F583E054FEF0EF90A202B4031BE0FFFB
:104EB00075F010EE908100124899E5822FF582E49A
:104EC0003583F5837480F0801BE0FF90A201E075CC
:104ED000F010908100124899E5822FF582E4358325
:104EE000F583E4F090A202E0FF90A201E075F008E3
:104EF000908900124899E5822FF582E43583F58385
:104F0000E4F090A202E004F0808190A201E004F0BD
:104F1000E064806002C166E490ADE2F0909491128A
:104F2000087900000000E490A201F090A201E0FFE7
:104F3000C39480400302906AE490A203F090A2031D
:104F4000E0FEC39405502090A201E075F00A908D18
:104F50000112489975F002EE124899E4F0A3F0901E
:104F6000A203E004F080D690A201E0FE2416F582B0
:104F7000E4349EF583743FF074962EF582E4349AFF
:104F8000F583E4F074012EF582E43493F58374C064
:104F9000F0EE25E02401F582E43492F583E4F0A3F9
:104FA000F074162EF582E43498F583E4F0EE25E0F3
:104FB0002416F582E4349BF583E4F0A3F0EE25E0BB
:104FC0002416F582E4349CF583E4F0A3F075F00434
:104FD000EE909616124899743FF075F004EE909694
:104FE00017124899E4F075F004EE9096181248995B
:104FF000E054E04409F090A201E0FE75F0049096C0
:1050000019124899E054F3F075F004EE90961912D5
:105010004899E054FCF090A201E0FE75F0049096EF
:1050200018124899E04420F075F004EE9096191299
:105030004899E054CFF090A201E0FE75F0049096FC
:1050400019124899E04440F075F004EE9096191258
:105050004899E0547FF090A201E0FE75F00490962C
:1050600017124899E0FD75F010EE908100124899F2
:10507000EDF090A201E02416F582E43499F583E482
:10508000F090A201E004F0028F0B90044974F0F05C
:10509000A3E4F0A374FFF09004337402F0A374044B
:1050A000F0A304F0A304F0A304F074962FF582E4B7
:1050B0003498F58374FFF0227EFFEDC39433401DD6
:1050C000EDD39435501775F004EF90961812489967
:1050D000E0C413540730E005ED144480FEAF06220F
:1050E0008F5CAC059001C474C0F07490A3F075F0AF
:1050F00010E55C908100124899E090A21DF090A20A
:105100001CF0547F90A222F075F004E55C90961795
:10511000124899E090A224F075F004E55C90961690
:10512000124899E0F990A225F075F010E55C9081A5
:1051300005124899E0540390A21EF0FA90A222E0D2
:10514000FB25E0249FF582E43443F583E493FE7469
:105150000193FFE55C25E02495F582E43494F58322
:10516000EEF0A3EFF075F004E55C90961912489903
:10517000E0C4540390A21FF07416255CF582E43459
:105180009FF583EBF07416255CF582E4349DF5837E
:10519000EAF090A222E0D399400C90A225E090A2E0
:1051A00022F090A21CF0EC7002613290A223ECF08D
:1051B00090A21CE030E70E90A222E090A21CF0909A
:1051C000A223E014F090A223E07002613290A21CAE
:1051D000E0FDAF5C119890A227EFF0F46017E0902B
:1051E000A21CF090A223E014F0E0F970026132AD4D
:1051F00001AF5C11C090A21CE0642C703F90A21E15
:10520000E0FFD394004035EFD39402502FE014F028
:1052100090A21C742DF090A21EE0540325E025E01E
:10522000FF75F004E55C909619124899E054F34F2D
:10523000F090A223E014F0E07002613290A21CE032
:10524000B42D1A90A21EE0D39402501190A21C74A7
:105250002CF090A223E014F0E07002613290A223BF
:10526000E07002613290A224E0FA90A222E0FED324
:105270009A5002612DE490A221F090A21FE0FFADB0
:1052800006714C90A222EFF090A21CF090A21FE0B9
:10529000FF90A224E0FD714CEFF090A21CE090A2E0
:1052A00026F090A222E01490A220F090A224E0FF29
:1052B00090A220E0C39F407CE0FB131313541FFF18
:1052C00075F008E55C908900124899E5822FF58217
:1052D000E43583F583E0FD7C00EB5407FF74017E29
:1052E00000A807088005C333CE33CED8F9FFEE5CA3
:1052F000FEEF5D4E603690A222E0B4140890A22624
:10530000740CF0800890A220E090A226F090A221D8
:10531000E004F090A223E0FF90A221E06F601590DE
:10532000A224E0FF90A226E0D39F400890A220E0B4
:1053300014F0418B90A226E090A21CF0FE90A21FD8
:10534000E0FFAD06716090A21CEFF0800590A21CFA
:10535000EAF090A21CE0FD90A21EE090A2C1F0E451
:10536000FBAF5C12732C90A21CE0FF22EF600AEDF1
:10537000C3942C40047E208002E4FEC3ED9EFF22F5
:10538000EF600AEDD3940B40047E208002E4FEED32
:105390002EFF2290A21CEFF09001C47473F074935E
:1053A000A3F090A21CE0FF75F010908100124899C4
:1053B000E090A21DF0E490A222F090A21DE0FE5425
:1053C0007FF9A3F0EE5480FB75F004EF909616126F
:1053D0004899E090A220F090A21CE0FA75F00490A9
:1053E0009619124899E0FFC4540390A221F075F079
:1053F00004E990424F12489912486DEA25E024953D
:10540000F582E43494F583EEF0A3EFF0AF0390A2BD
:105410001DE04FFE90A21CE0FF2416F582E4349FAD
:10542000F583EEF075F010EF908105124899E05485
:1054300003FE90A21FF074162FF582E4349DF583CD
:10544000EEF074162FF582E43499F583E030E040F5
:1054500090A21EE0643F7038743EF075F004EF9047
:105460009618124899E0FEC413540730E00890A241
:105470001D74BEF0800890A21EE090A21DF090A2C4
:105480001DE0FD90A21FE090A2C1F0E4FB0298266F
:1054900090A21EE0FFB42D2890A21CE075F00490AD
:1054A0009619124899E05403FE90A21FE0C39E5043
:1054B0000F90A21D742CF090A21FE004F00298142B
:1054C000EFB42C0990A21D742DF002981490A22024
:1054D000E0FF90A21EE0FEC39F4002E1A5EEC39450
:1054E0000C401FEE9413501A90A21CE0FF2416F5F6
:1054F00082E43499F583E0FE20E30790A222740150
:10550000802790A21EE0FFC3942C402EEF943550CC
:105510002990A21CE0FF2416F582E43499F583E07B
:10552000FE20E31690A2227402F074162FF582E496
:105530003499F583EE4408F08016E490A222F090AE
:10554000A21CE02416F582E43499F583E054F7F0C8
:1055500090A21CE02416F582E43499F583E020E65D
:105560000330E116E490A222F090A21CE02416F58C
:1055700082E43499F583E054F7F090A222E06401CC
:105580006002C10290A21CE075F0089089021248E6
:1055900099E020E71A20E61720E51420E41190A2F4
:1055A0001CE075F008908903124899E030E0739090
:1055B000A21CE0FF2416F582E43499F583E044044C
:1055C000F090A21EE0FEB40C047414803EEEB40D04
:1055D0000790A21E74158033EEB40E0790A21E74BD
:1055E000158028EEB40F0790A21E7416801DEEC31E
:1055F0009410400790A21E74178010EEC3941140BF
:105600000FEE9413500A90A21E7418F090A21DF091
:1056100090A21DE0FD90A21FE090A2C1F07B0102CC
:10562000982690A222E064026002C1A790A21CE02A
:1056300075F008908902124899E020E61A20E717D1
:1056400090A21CE075F008908903124899E020E0D0
:105650000620E10330E27090A21EE0FF642C60049B
:10566000EFB42D0790A21E74368042EF642E6004C2
:10567000EFB42F0790A21E74378032EFB43007903A
:10568000A21E74388027EFB4310790A21E743980AF
:105690001CEFC39432400DEFD39434500790A21EF8
:1056A000743A8009EFB4350A90A21E743BF090A2C0
:1056B0001DF090A21CE0FFA3E0FD90A21FE090A2CD
:1056C000C1F07B0102982690A21CE02416F582E42A
:1056D0003499F583E054FBF090A221E0FF90A21EE4
:1056E000E0FD714CEFF090A221E0FF90A220E0FDE0
:1056F000714CEFF090A21EE004FD90A220E0FFEDBF
:10570000D39F506CED131313541FFF90A21CE0FCA9
:1057100075F008908900124899E5822FF582E435EA
:1057200083F583E0FB7A00ED5407FF74017E00A847
:1057300007088005C333CE33CED8F9FFEE5AFEEF0B
:105740005B4E602990A21EE0B413177418F090A26B
:105750001DF074162CF582E43499F583E04404F0CE
:10576000800E90A21EEDF090A21DF080030D808AA5
:1057700090A221E0FF90A21DE0FD7160EFF090A2E9
:105780001CE0FF2416F582E43499F583E020E00361
:1057900002981490A21EE0643F6003029814743EC5
:1057A000F075F004EF909618124899E0C41354076E
:1057B00030E00890A21D74BEF0807990A21EE090A7
:1057C000A21DF0806F90A220E0FF90A21EE0FE6F6D
:1057D000704990A21CE075F004909618124899E068
:1057E000FFC413540730E00D90A21DE020E706EE41
:1057F0004480F0803F90A21EE075F00490424F126A
:10580000489912486D90A21CE025E02495F582E4A9
:105810003494F583EEF0A3EFF0802E90A220E0FF09
:1058200090A21CE02416F582E4349FF583EFF090FB
:10583000A21DEFF090A21CE0FFA3E0FD90A21FE0EC
:1058400090A2C1F07B0112732C90A21DE0FF22ED0B
:10585000547FFCED54806003AF0422ECC3943340CA
:1058600022ECD39435501C75F004EF909618124832
:1058700099E0C413540730E006EC4480FE80067EB5
:10588000FF80027EFFAF062290A25AEBF0705F907D
:10589000A25AE0FE2496F582E43498F583E0FC9069
:1058A000A25BE0FBEC6B604690A25FEBF0A3EEF036
:1058B000AE05EE25E04FA3F090A25CE090A263F06D
:1058C00090A25D740CF090A26B7404F07B017AA23C
:1058D000795D125E237F0412658490A25BE0FF90E5
:1058E000A25AE02496F582E43498F583EFF022750D
:1058F000F004EF909619124899E0C45403702EED0D
:10590000C394144015EDD39418500F9004337406CB
:10591000F0A304F0A304F0A3800F9004337402F00A
:10592000A37404F0A304F0A304F0A304F022E4FEA3
:1059300074962FF582E43495F583E0FCB40509ED07
:10594000C3943B40600E805DECB4040AEDC3943117
:1059500040537E01804F74962FF582E43495F58391
:10596000E0FCB4030AEDC39419403A7E018036ECA2
:10597000B4020AEDC39411402C7E01802874962F46
:10598000F582E43495F583E0FCB4010AEDC3940A92
:1059900040137E01800FEC700AEDC3940340067E35
:1059A000018002E4FEAF06229001C47488F074996D
:1059B000A3F0E4F551748D2551F582E434A0F5830C
:1059C000E0700302A24975F004E55190961912485F
:1059D00099E0C4131313540130E00302A249E551C6
:1059E00025E02401F582E43492F583E0FEA3E0D3C0
:1059F0009400EE9400500302A249E55175F00AA408
:105A00002401F9748D35F0FA7B018B55F5568957D1
:105A1000E55125E02401F582E43492F583E0FFA30B
:105A2000E090A209CFF0A3EFF074162551F582E4BF
:105A30003498F583E0FF90A20BE4F0A3EFF0900020
:105A4000021207ABFFAEF01207802FFFE5F03EFE1B
:105A50009000041207AB2FFFEE35F0FE9000061207
:105A600007AB2FFFEE35F0FE9000081207AB2FFFBB
:105A7000EE35F0FE90A20DF0A3EFF0120780FDC30B
:105A8000EF9DFFEE95F090A20FF0A3EFF075F010F0
:105A9000E551908100124899E090A208F090A2068A
:105AA000F0547FA3F075F004E551909616124899D2
:105AB000E090A212F075F004E55190961912489901
:105AC000E01313540390A214F074962551F582E468
:105AD000349DF583E0C394054002A1F890A212E042
