:10000000C18802003F000000120915296E3E000061
:100010003940010000000000000000000000000066
:100020000273EB0000000000000000000000000070
:1000300000000002599600000000000000000000CF
:1000400000000000000000000000000000000000B0
:1000500000000000000000000000000000000000A0
:1000600000000002724900000000000267EA000080
:100070000504030200030605040300040605040248
:1000800000040807060400060A09080600080A0911
:10009000080400080A09080200080A090800000804
:1000A0001211100800101A19181000182221201817
:1000B00000202221201000202221200800202221BF
:1000C0001C080020222114080020222018080020EB
:1000D000313020100030313018000030312F101036
:1000E0000030312C10100030312810000030312049
:1000F0001000003031101000003004040405040426
:1001000004050505060604040405050506060404A1
:1001100005050505060604040505050506070A0B81
:100120000D100405050606090C11080809090A0C3A
:10013000101104040405040405070707080A040451
:100140000404060A0C0D05050707080B0E0F04042E
:100150000405070709090C0E101204040505060A18
:100160001113090909090C0E111300000000000009
:1001700000000024262A181A1D1F2127292A000002
:10018000001F23282A2C0004000400080010001877
:100190000024003000480060009000C000D80050EB
:1001A000007800A000C80140019001E00230012C5D
:1001B000014001E002D003E804B0064007D000028D
:1001C000000200040008000C001200180024003097
:1001D00000480060006C0028003C0050006400A053
:1001E00000C800F00118006400A000F0016801F4EC
:1001F0000258032003E8020202020202030304047D
:1002000005070404070A0A0C0C12050707080B125D
:10021000243C010101010102030405060708010253
:1002200003040506070805060708090A0B0C221F28
:100230001E18102000000000000000000000000058
:10024000AB0774842BF582E43404F583E0547F908B
:100250009793F0E0541FA3F0FA75F009EBA424671C
:10026000F582E5F03493F583E0F9909796F0EB256D
:10027000E02481F582E43492F583E0FFA3E09097D7
:1002800097CFF0A3EFF0EB25E02424F582E4349639
:10029000F583E0FFA3E0909799CFF0A3EFF0EA2574
:1002A000E02466F582E43441F583E493FE7401931F
:1002B000FFE4FCFDEB25E025E024E1F582E4349247
:1002C000F583122A7FEAC399400302435990979419
:1002D000E0FF74E52BF582E43496F583EFF0EF044C
:1002E000909795F0909796E0FF909795E0FED39FBA
:1002F0004003024398EEC394104021EE24F0FF74B3
:10030000017E00A807088005C333CE33CED8F9FF9D
:10031000909797E05EFEA3E05F4E7027909795E080
:10032000FFC39410504A74017E00A807088005C3DB
:1003300033CE33CED8F9FF909799E05EFEA3E05F0D
:100340004E602D909795E0FF64136009EF64126092
:1003500004EFB4110D909797E030E00690979574F4
:1003600018F0909795E0909794F0909793F08048CC
:10037000909795E004F00242C4909796E0FA909727
:1003800094E0FF6A707974E52BF582E43496F58386
:10039000EFF075F009EBA42469F582E5F03493F5EC
:1003A00083E0B40113909793E0FF30E60122909729
:1003B00094E04440909793F0909794E0FF25E024D8
:1003C0009EF582E43441F583E493FC740193FDEFE0
:1003D00025E02466F582E43441F5837401932DFF12
:1003E000E4933CC313FEEF13FFE4FCFDEB25E02593
:1003F000E024E1F582E43492F583122A7F8069904B
:100400009794E0D39A4061909796E0FF74E52BF5BE
:1004100082E43496F583EFF0909794EFF090979301
:10042000F0FAA3E0FF25E0249EF582E43441F58351
:10043000E493FC740193FDEF25E02466F582E43437
:1004400041F5837401932DFFE4933CC313FEEF1336
:10045000FFE4FCFDEB25E025E024E1F582E43492A5
:10046000F583122A7FAF022274012BF582E43492C5
:10047000F583E4F0909793E04480FF74842BF58239
:10048000E43404F583EFF022909786EBF0A3EAF0D2
:10049000A3E9F0A2AFE433A3F0C2AF909786E0FBEC
:1004A000A3E0FAA3E0F9900001126340FAE5F0241A
:1004B00000FFE43AFE909786A3E0FA900001EE8FE9
:1004C000F01263971229D9FF6037B5221B909786E7
:1004D000E0FBA3E0FAA3E0F9900001126340652479
:1004E0007004E52365F0602E909786E0FBA3E0FAA8
:1004F000A3E0F9900001126340FFAEF0127AF080A1
:1005000015909786E0FBA3E0FAA3E0F91229D965DC
:10051000226003127E44909789E024FF92AF22E488
:10052000F52522027E57027E5EE490977AF090973E
:100530007AE0FFC394204003024E5975F009EFA4FE
:10054000246AF582E5F03493F583E06401600302E8
:100550004E5090977AE025E024C0F582E43491F57E
:1005600083E0FCA3E0D39400EC94005003024E50CF
:10057000EF75F00AA42400F9749035F0FA7B018B32
:1005800014F515891690977AE025E024C0F582E4E9
:100590003491F583E0FDA3E0909786CDF0A3EDF0D4
:1005A000EF25E024A3F582E43494F583E0FFA3E093
:1005B000909788CFF0A3EFF0900002126340FFAE57
:1005C000F01263152FFFE5F03E90978FF0A3EFF048
:1005D000900006126340FFAEF09000041263402FBB
:1005E000FFE5F03E90978DF0A3EFF09000081263C6
:1005F00040FF90978BE5F0F0A3EFF090977AE0FE44
:100600002484F582E43404F583E0543F90977CF031
:10061000E0FD541FA3F075F009EEA42467F582E510
:10062000F03493F583E0909791F090977AE0FB2473
:10063000A4F582E43496F583E0C3940540030249AF
:10064000C4909791E0FE90977DE09E401390979123
:10065000E090977DF0ED5440FD90977CF0EE4DF0EA
:100660009004FDE06401702890977DE0FF90414A7E
:1006700093FE74632BF582E43495F583E0C39E40CA
:1006800006EF9040DA803290977DE09040F6802926
:1006900090977DE0FF90414A93FE90977AE0246323
:1006A000F582E43495F583E0C39E4006EF90411255
:1006B000800790977DE090412E9390978AF09097D5
:1006C0008AE075F006A42450F9744035F07511FFE6
:1006D000F512891390977CE09041F293FFD39097A5
:1006E00089E09F909788E09400400D90977AE0FF12
:1006F000E4FD125F3B024DE690977AE025E025E0AD
:1007000024E1F582E43492F583E0FCA3E0FDA3E06C
:10071000FEA3E0FF90977E122A7F90977EE0F8A3D9
:10072000E0F9A3E0FAA3E0FBC000C001C002C003EF
:10073000AB11AA12A9131229D9FF7E00AB14AA1576
:10074000A916126315FDACF01229F2E4FCFDD003EA
:10075000D002D001D000EB2FFFEA3EFEED39FDECD8
:1007600038FC90977E122A7F90977EE0F8A3E0F9FC
:10077000A3E0FAA3E0FBC000C001C002C003AB11BC
:10078000AA12A913900001126288FF7E00AB14AA7E
:1007900015A916900002126340FDACF01229F2E494
:1007A000FCFDD003D002D001D000EB2FFFEA3EFECB
:1007B000ED39FDEC38FC90977E122A7F90977EE011
:1007C000F8A3E0F9A3E0FAA3E0FBC000C001C00277
:1007D000C003AB11AA12A913900002126288FF7E17
:1007E00000AB14AA15A916900004126340FDACF0EA
:1007F0001229F2E4FCFDD003D002D001D000EB2F8F
:10080000FFEA3EFEED39FDEC38FC90977E122A7F20
:1008100090977EE0F8A3E0F9A3E0FAA3E0FBC00024
:10082000C001C002C003AB11AA12A91390000312A9
:100830006288FF7E00AB14AA15A916900006126309
:1008400040FDACF01229F2E4FCFDD003D002D0014F
:10085000D000EB2FFFEA3EFEED39FDEC38FC90971F
:100860007E122A7F90977EE0F8A3E0F9A3E0FAA336
:10087000E0FBC000C001C002C003AB11AA12A91363
:10088000900004126288FF7E00AB14AA15A916908E
:100890000008126340FDACF01229F2E4FCFDD00325
:1008A000D002D001D000EB2FFFEA3EFEED39FDEC87
:1008B00038FC90977E122A7FAB11AA12A9139000E0
:1008C00005126288FF7E00909786E0FCA3E0FD128F
:1008D00029F2E4FCFD90977EE0F8A3E0F9A3E0FAAA
:1008E000A3E0FBD31263C490977E4050E0FCA3E0EA
:1008F000FDA3E0FEA3E0FFC004C005C006C007AB37
:1009000011AA12A913900005126288FF7E00909729
:1009100086E0FCA3E0FD1229F2AB07AA06D007D0BF
:1009200006D005D004C3EF9BFFEE9AFEED9400FDC8
:10093000EC9400FC90977E122A7F8007122A8B008D
:1009400000000090977EE0FCA3E0FDA3E0FEA3E0A2
:10095000FF90977AE025E025E024E1F582E43492E7
:10096000F583122A7F9004B3E030E103024DB49086
:10097000977CE025E02466F582E43441F583E49336
:10098000FE740193FFE4FCFD90977EE0F8A3E0F98C
:10099000A3E0FAA3E0FBD31263C4400B90977AE084
:1009A000FF124220024DB490977CE025E0249EF592
:1009B00082E43441F583E493FE740193FFE4FCFD8B
:1009C00090977EE0F8A3E0F9A3E0FAA3E0FBC3125E
:1009D00063C44003024DB490977AE0FF7D01125F3B
:1009E0003B024DB490977AE0FF24A4F582E434965C
:1009F000F583E064056003024BCA75F009EFA42497
:100A00006BF582E5F03493F583E064017003024BEB
:100A1000CA909362E0FFB4030B90977DE0C39419F2
:100A2000403D802EEFB4020B90977DE0C3941140BF
:100A30002E801F909362E0FFB4010B90977DE0C37E
:100A4000940A401B800CEF701190977DE0C39403D3
:100A5000400D9095837401F08005E4909583F090AB
:100A6000977AE0FF2483F582E43494F583E090974D
:100A700092F074632FF582E43495F583E0FFC3941C
:100A8000305003024B4E909583E064016003024BAB
:100A90004E90977AE02484F582E43495F583E064FF
:100AA0000A605690977AE0FEEF2405FDE433FC746B
:100AB000212EF582E43492F583E0FFD39DEC64802F
:100AC000F87480985033EF2405FDE433FC74632EF2
:100AD000F582E43495F583E0D39DEC6480F874806E
:100AE00098501690977AE024C4F582E43496F58302
:100AF000E0FF90977DE06F605690977AE02463F571
:100B000082E43495F583E0FFD394444008909792B3
:100B10007405F08011EFD3943A90979240057403D6
:100B2000F080037401F090977AE0FF2463F582E48B
:100B30003495F583E0FE74212FF582E43492F58339
:100B4000EEF090977AE02484F582E43495802F903B
:100B5000977AE0FF24A4F582E43496F583E4F074F8
:100B6000842FF582E43495F583E004F08014E4905A
:100B70009792F090977AE024A4F582E43496F58376
:100B8000E4F090977DE0FF90977AE0FE24C4F58230
:100B9000E43496F583EFF0909792E0FF74832EF59E
:100BA00082E43494F583EFF09004B3E030E0030284
:100BB0004DB4EE30E01EEFC454F0909792F0909751
:100BC0007AE0C313FF24A4F582E43404F583E054EF
:100BD0000F024D9790977AE0C313FF24A4F582E4A7
:100BE0003404F583E054F0024D9790977AE0FF24A7
:100BF000A4F582E43496F583E064066003024DB404
:100C000075F009EFA4246BF582E5F03493F583E0E9
:100C100064017003024DB490977E122A8B0000008D
:100C200000904213E493FF7E00909786E0FCA3E0DF
:100C3000FD1229F2E4FCFD909782122A7F90977AA8
:100C4000E02483F582E43494F583E0909792F0E415
:100C500090977BF090977EE0F8A3E0F9A3E0FAA3E9
:100C6000E0FBC000C001C002C003AB14AA15A91666
:100C700090977BE0FF75F002A4F58285F083126304
:100C800040FDACF0EF90420E93FF7E001229F2E49B
:100C9000FCFDD003D002D001D000EB2FFFEA3EFED6
:100CA000ED39FDEC38FC90977E122A7F909782E018
:100CB000FCA3E0FDA3E0FEA3E0FF90977EE0F8A395
:100CC000E0F9A3E0FAA3E0FBD31263C4500E9097BF
:100CD0007BE004F0E064056003024C3490977BE015
:100CE000C313F0909792E0FFB4010D90977BE070F2
:100CF0005D90979204F0805BEFB4031D90977BE0CA
:100D0000FF70089097927403F08048EFB401089048
:100D100097927401F0803C8035909792E064057062
:100D20003290977BE0FF70089097927405F0800FE7
:100D3000EF909792B401057403F080037401F0D32F
:100D4000909789E09403909788E094004005E490A0
:100D50009792F0D3909789E09403909788E094005D
:100D60004005E4909792F0909792E0FF90977AE098
:100D7000FE2483F582E43494F583EFF09004B3E02D
:100D800020E051EE30E01DEFC454F0909792F090C7
:100D9000977AE0C313FF24A4F582E43404F583E0DA
:100DA000540F801390977AE0C313FF24A4F582E4D4
:100DB0003404F583E054F0F074A42FF582E4340495
:100DC000F583C083C082E0FF909792E0FEEF4ED0A3
:100DD00082D083F090977AE0FF24A4F582E43496E1
:100DE000F583E0D39405500F74A42FF582E4349674
:100DF000F583E004F0800F90977AE024A4F582E474
:100E00003496F583E4F0AB14AA15A916E4F5F012B4
:100E10006378AB14AA15A916900002E4F5F01263EA
:100E200097900004E4F5F0126397900006E4F5F063
:100E3000126397900008E4F5F012639790977AE0B8
:100E4000FF25E024C0F582E43491F583E4F0A3F0BB
:100E5000EF25E024A3F582E43494F583E4F0A3F0D5
:100E6000EF25E024E3F582E43494F583E4F0A3F085
:100E700090977AE004F002450E22EF70030250C210
:100E800090976DE06003025504909759E0FCA3E051
:100E9000FDA3E0FEA3E0FF908085122A7F7F8C7E79
:100EA00008122FD9909705E0FCA3E0FDA3E0FEA374
:100EB000E0FF908085122A7F7F447E08122FD99010
:100EC0009709E0FCA3E0FDA3E0FEA3E0FF9080858E
:100ED000122A7F7F5C7E08122FD990970DE0FCA329
:100EE000E0FDA3E0FEA3E0FF908085122A7F7F6CE7
:100EF0007E0E122FD9909711E0FCA3E0FDA3E0FE37
:100F0000A3E0FF908085122A7F7F707E0E122FD97A
:100F1000909715E0FCA3E0FDA3E0FEA3E0FF908026
:100F200085122A7F7F747E0E122FD9909719E0FCCC
:100F3000A3E0FDA3E0FEA3E0FF908085122A7F7F5F
:100F4000787E0E122FD990971DE0FCA3E0FDA3E060
:100F5000FEA3E0FF908085122A7F7F7C7E0E122FF9
:100F6000D9909721E0FCA3E0FDA3E0FEA3E0FF9071
:100F70008085122A7F7F807E0E122FD9909725E0E0
:100F8000FCA3E0FDA3E0FEA3E0FF908085122A7F92
:100F90007F847E0E122FD9909729E0FCA3E0FDA359
:100FA000E0FEA3E0FF908085122A7F7F887E0E12EC
:100FB0002FD990972DE0FCA3E0FDA3E0FEA3E0FF76
:100FC000908085122A7F7F8C7E0E122FD9909731C8
:100FD000E0FCA3E0FDA3E0FEA3E0FF908085122AE1
:100FE0007F7FD07E0E122FD9909735E0FCA3E0FDD5
:100FF000A3E0FEA3E0FF908085122A7F7FD47E0EBF
:10100000122FD9909739E0FCA3E0FDA3E0FEA3E006
:10101000FF908085122A7F7FD87E0E122FD990975D
:101020003DE0FCA3E0FDA3E0FEA3E0FF908085127D
:101030002A7F7FDC7E0E122FD9909741E0FCA3E03F
:10104000FDA3E0FEA3E0FF908085122A7F7FE07E73
:101050000E122FD9909745E0FCA3E0FDA3E0FEA37C
:10106000E0FF908085122A7F7FEC7E0E122FD990B0
:101070009749E0FCA3E0FDA3E0FEA3E0FF9080859C
:10108000122A7F7F047E0C122FD990974DE0FCA38B
:10109000E0FDA3E0FEA3E0FF908085122A7F7F049D
:1010A0007E0D122FD9909751E0FCA3E0FDA3E0FE46
:1010B000A3E0FF908085122A7F7F0C7E09122FD932
:1010C000909755E0FCA3E0FDA3E0FEA3E0FF908035
:1010D00085122A7F7F047E08122FD990976D7401A4
:1010E000F02290976DE0640160030255047F8C7ECE
:1010F000081227DE909759122A7F7F447E08122714
:10110000DE909705122A7F7F5C7E081227DE90977B
:1011100009122A7F7F6C7E0E1227DE90970D122A0D
:101120007F7F707E0E1227DE909711122A7F7F74C8
:101130007E0E1227DE909715122A7F7F787E0E1280
:1011400027DE909719122A7F7F7C7E0E1227DE9071
:10115000971D122A7F7F807E0E1227DE9097211224
:101160002A7F7F847E0E1227DE909725122A7F7FAA
:10117000887E0E1227DE909729122A7F7F8C7E0EA2
:101180001227DE90972D122A7F7FD07E0E1227DE47
:10119000909731122A7F7FD47E0E1227DE909735EA
:1011A000122A7F7FD87E0E1227DE909739122A7F6F
:1011B0007FDC7E0E1227DE90973D122A7F7FE07E35
:1011C0000E1227DE909741122A7F7FEC7E0E1227A7
:1011D000DE909745122A7F7F047E0C1227DE9097BF
:1011E00049122A7F7F047E0D1227DE90974D122A26
:1011F0007F7F0C7E091227DE909751122A7F7F0491
:101200007E081227DE909755122A7F7F8C7E081267
:1012100027DE9097E2122A7F9097E2E0FCA3E0FDA0
:10122000A3E0FEA3E0FFED44C0FDEC9097E2122A9C
:101230007F9097E2E0FCA3E0FDA3E0FEA3E0FF9037
:101240008085122A7F7F8C7E08122FD9908085128C
:101250002A8B000100007F447E08122FD9908085E0
:10126000122A8B00DB25A47F5C7E08122FD9908088
:1012700085122A8B20DB25A47F6C7E0E122FD9903D
:101280008085122A8B20DB25A47F707E0E122FD939
:10129000908085122A8B041B25A47F747E0E122F4A
:1012A000D9908085122A8B041B25A47F787E0E128C
:1012B0002FD9908085122A8B041B25A47F7C7E0E5B
:1012C000122FD9908085122A8B041B25A47F807E43
:1012D0000E122FD9908085122A8B63DB25A47F8480
:1012E0007E0E122FD9908085122A8B041B25A47F95
:1012F000887E0E122FD9908085122A8B20DB25A4A0
:101300007F8C7E0E122FD9908085122A8B20DB25B0
:10131000A47FD07E0E122FD9908085122A8B20DBDD
:1013200025A47FD47E0E122FD9908085122A8B207F
:10133000DB25A47FD87E0E122FD9908085122A8BB0
:10134000001B25A47FDC7E0E122FD9908085122AE7
:101350008B001B25A47FE07E0E122FD99080851272
:101360002A8B24DB25A47FEC7E0E122FD97F047EEE
:101370000C1227DE9097E2122A7F9097E2E0FCA3FE
:10138000E0FDA3E0FEE4FFEC9097E2122A7F909745
:10139000E2E0FCA3E0FDA3E0FEA3E04411FFEC903B
:1013A00097E2122A7F9097E2E0FCA3E0FDA3E0FE23
:1013B000A3E0FF908085122A7F7F047E0C122FD934
:1013C0007F047E0D1227DE9097E2122A7F9097E22B
:1013D000E0FCA3E0FDA3E0FEA3E054F0FFEC909757
:1013E000E2122A7F9097E2E0FCA3E0FDA3E0FEA3D7
:1013F000E04401FFEC9097E2122A7F9097E2E0FC34
:10140000A3E0FDA3E0FEA3E0FF908085122A7F7F8A
:10141000047E0D122FD97F0C7E091227DE9097E2F1
:10142000122A7F9097E2E0FCA3E0FDA3E0FEE4FF38
:10143000EC9097E2122A7F9097E2E0FCA3E0FDA3F4
:10144000E0FEA3E04411FFEC9097E2122A7F909710
:10145000E2E0FCA3E0FDA3E0FEA3E0FF90808512A4
:101460002A7F7F0C7E09122FD97F0C7E091227DE7E
:101470009097E2122A7F9097E2E0FCA3E0FDA3E0C0
:10148000FEA3E0FFED540FFDEC54F0FC9097E21248
:101490002A7F9097E2E0FCA3E0FDA3E0FEA3E0FF3B
:1014A000ED4410FDEC4401FC9097E2122A7F9097E6
:1014B000E2E0FCA3E0FDA3E0FEA3E0FF9080851244
:1014C0002A7F7F0C7E09122FD97F047E081227DE27
:1014D0009097E2122A7F9097E2E0FCA3E0FDA3E060
:1014E000FEA3E054F0FFEC9097E2122A7F9097E27F
:1014F000E0FCA3E0FDA3E0FEA3E04401FFEC909735
:10150000E2122A7F9097E2E0FCA3E0FDA3E0FEA3B5
:10151000E0FF908085122A7F7F047E08122FD9E495
:1015200090976DF0228F11EF25E02424F582E434AA
:1015300096AF82F5128F13E51175F002A42481F99C
:10154000749235F0751401F515891675F009E511D9
:10155000A42465F582E5F03493AF82F5178F18E582
:101560001175F009A42463F9749335F0751901F528
:101570001A891B74C12511F582E43492F583E012B7
:1015800063E1558700559C0155B10255C60355F0DE
:1015900004560505561A0656410C566F0D569C0EFC
:1015A00056C90F000056FDE51125E02424F582E41C
:1015B0003496F58374F0F0A37415803CE51125E0B2
:1015C0002424F582E43496F58374F0F0A37410803B
:1015D00027E51125E02424F582E43496F58374F0A0
:1015E000F0A374058012E51125E02424F582E4348B
:1015F00096F58374F0F0A3E4F0E51125E02481F57D
:1016000082E43492F583740FF0A3748FF00256FDD8
:10161000E51125E02424F582E43496F583740FF077
:10162000A374F58027E51125E02424F582E434969F
:10163000F583740FF0A374F08012E51125E02424E3
:10164000F582E43496F583E4F0A3740DF0E51125FA
:10165000E02481F582E43492F583E4F0A3F00256AD
:10166000FD900447E0AB14AA15A9161262B59004C8
:1016700046E0AB14AA15A9169000011262C79004A7
:1016800045E0851382851283F09004440256F4905D
:10169000044BE0AB14AA15A9161262B590044AE0F7
:1016A000AB14AA15A9169000011262C7900449E074
:1016B000851382851283F0900448805890044FE08F
:1016C000AB14AA15A9161262B590044EE0AB14AA89
:1016D00015A9169000011262C790044DE08513828F
:1016E000851283F090044C802B900453E0AB14AA35
:1016F00015A9161262B5900452E0AB14AA15A916EA
:101700009000011262C7900451E085138285128314
:10171000F0900450E0851382851283A3F0AB14AAE5
:1017200015A916C003C002C0011229D9FFAB19AA1E
:101730001AA91B1229D95FD001D002D0031262B5B9
:10174000AB14E5162401F9E43515FAC003C002C054
:10175000011229D9FFAB19AA1AA91B900001126224
:10176000885FD001D002D0031262B5851382851242
:1017700083C083C082E0FF851882851783E0FEEF77
:101780005ED082D083F0851382851283A3C083C08C
:1017900082E0FF851882851783A3E0FEEF5ED0828A
:1017A000D083F0E51125E02481F582E43492F583BD
:1017B000E0FEA3E04E604C909792740BF0909792ED
:1017C000E0FFC39400500302584374017E00A80751
:1017D000088005C333CE33CED8F9FFE51125E024C8
:1017E00081F582E43492F583E05EFEA3E05F4E6013
:1017F0000A909792E02410A3F08068909792E014EA
:10180000F080BAE51125E02424F582E43496F583CE
:10181000E0FEA3E04E6047909792740FF09097928D
:10182000E0FFC39400403C74017E00A807088005D7
:10183000C333CE33CED8F9FFE51125E02424F58259
:10184000E43496F583E05EFEA3E05F4E6008909777
:1018500092E0A3F0800D909792E014F080BFE490A6
:101860009793F0E51125E02424F582E43496F5837E
:10187000E0FEA3E04E6047E4909792F0909792E0EC
:10188000FFC3941040030258FD74017E00A80708AE
:101890008005C333CE33CED8F9FFE51125E02424EB
:1018A000F582E43496F583E05EFEA3E05F4E6006C9
:1018B000909792E08063909792E004F080BEE511EB
:1018C00025E02481F582E43492F583E0FEA3E04E26
:1018D0006046E4909792F0909792E0FFC3940C508A
:1018E0003C74017E00A807088005C333CE33CED8F0
:1018F000F9FFE51125E02481F582E43492F583E0D7
:101900005EFEA3E05F4E6008909792E0241080098D
:10191000909792E004F080BFE4909794F0909793B2
:10192000E0FF75F009E511A42467F582E5F0349332
:10193000F583EFF0909794E0FE75F009E511A4248B
:1019400068F582E5F03493F583EEF074842511F5A3
:1019500082E43404F583E0D39F401F909793E0FF27
:1019600074C42511F582E43496F583EFF074842570
:1019700011F582E43404F583EFF0909793E0FFD300
:10198000941340089093627403F08021EFD3940B7A
:1019900040089093627402F08013EFD394034008E0
:1019A0009093627401F08005E4909362F0909362EA
:1019B000E09004B1F022C0E0C0F0C083C082C0D08B
:1019C00075D000C000C001C002C003C004C005C083
:1019D00006C0079001C47496F07459A3F0900137C3
:1019E000E0552BF52F900134E05528F52C90013669
:1019F000E0552AF52EE52C20E003025B48900134E7
:101A00007401F085D14D85D24E85D34F85D4508554
:101A1000D55185D65285D75385D954E5545440C302
:101A200013FFE55354206F7003025AF5E55430E577
:101A300003025AF5E552541FF508E54D543FF509E8
:101A4000E551541FFFE50825E02423F582E4349591
:101A5000F583E48FF01262E9E553541FFFE5082592
:101A6000E024C0F582E43491F583E48FF01262E95A
:101A7000E509D39404400375090475F00AE508A448
:101A80002400F582E5F03490F58375F002E5091243
:101A900063D5E0FEA3E0FFE553541F2FFFE43EFEB5
:101AA00075F00AE508A42400F582E5F03490F5838A
:101AB00075F002E5091263D5EEF0A3EFF0E55420CE
:101AC000E624E553541FFFE50825E024A3F582E44E
:101AD0003494F583E48FF01262E9E54F30E736AFD6
:101AE00008127567802FE553541FFFE50825E02491
:101AF000E3F582E43494F583E48FF01262E9E54F74
:101B000030E712E54F547FFDE553541FF50DAB0947
:101B1000AF08127649E566604F9097CCE06035904B
:101B2000015BE4F090013C7404F090041BE0547FEE
:101B3000647F7034754414F545FBFD7F587E0112B7
:101B400035AB90015B7405F09006927401F09097AC
:101B5000C6F0801490041BE0547FFFBF7F0A90976B
:101B6000CAE0FF7D01126E2DE52C30E12190013499
:101B70007402F085D15685D25785D35885D45985BE
:101B8000D55A85D65B85D75C85D95D127CACE52CB2
:101B900030E3069001347408F0E52C30E40990013C
:101BA000347410F0435510E52C30E5219001CFE05E
:101BB00030E51AE054DFF09001347420F090000317
:101BC000E054FBF07F107E0012375480FEE52C308D
:101BD000E6069001347440F0E52E30E109900136BC
:101BE0007402F0435540E52E30E00990013674014F
:101BF000F01274F1E52E30E2639001367404F0E5E2
:101C00006564017057E5666053E56664027027906D
:101C100006ABE09097BEF09006AAE09097C9F090CE
:101C200097BEE070079097C9E0FF80059097BEE0EF
:101C3000FF9097BEEFF09097C0E06003E014F09043
:101C400097BFE4F0900157F090013C7402F0909738
:101C5000CEE054FDF0E054EFF01275DDE52E30E3F8
:101C6000319001367408F0E56564017025E5666021
:101C700021900157E4F090013C7402F07544037523
:101C80004500E4FBFD7F547E011235AB9001577493
:101C900005F0E52E30E43A9001367410F0E5656405
:101CA00001702EE566602A900157E4F090013C74C3
:101CB00002F09097CDE4F09097CEE054FDF0E05420
:101CC00003700E9097C8F09097CAE0FF7D01126EE6
:101CD0002DE52E30E5129001367420F0E565B40153
:101CE00007E5666003127DCDE52E30E62A900136C9
:101CF0007440F0E5656401701EE566601A9097CE49
:101D0000E054FEF0E05403700E9097C8F09097CA2C
:101D1000E0FF7D01126E2DE52F30E109900137744F
:101D200002F0127BCD7496049001C4F07459A3F0B4
:101D3000D007D006D005D004D003D002D001D00007
:101D4000D0D0D082D083D0F0D0E03290044474114F
:101D5000F0A374F0F0A3740FF0A3E4F090977AF07E
:101D600090977AE0FFC39410501474A42FF582E486
:101D70003404F583E4F090977AE004F080E2E49094
:101D8000977AF090977AE0FBC394204003025F3A81
:101D9000E0FF75F00AA42400F582E5F03490F583A5
:101DA000E4F0A3F075F00AEFA42402F582E5F03424
:101DB00090F583E4F0A3F075F00AEFA42404F58213
:101DC000E5F03490F583E4F0A3F075F00AEFA42475
:101DD00006F582E5F03490F583E4F0A3F075F00A9F
:101DE000EFA42408F582E5F03490F583E4F0A3F045
:101DF00074C42FF582E43496F5837413F074842F41
:101E0000F582E43495F583E4F074832FF582E434AD
:101E100094F583E4F0EF25E024C0F582E43491F5F5
:101E200083E4F0A3F0EF25E024A3F582E43494F5F5
:101E300083E4F0A3F0EF25E02423F582E43495F564
:101E400083E4F0A3F0EF25E024E3F582E43494F595
:101E500083E4F0A3F0EF25E024A4F582E43495F5C3
:101E600083E4F0A3F0EF25E024E4F582E43495F573
:101E700083E4F0A3F074842FF582E43496F583E4D0
:101E8000F074642FF582E43496F583E4F074A42FA3
:101E9000F582E43496F583E4F09041C493FE740136
:101EA00093FF90418C7401932FFFE4933EC313FE84
:101EB000EF13FFE4FCFDEB25E025E024E1F582E4EF
:101EC0003492F583122A7F75F009EBA4246AF58217
:101ED000E5F03493F5837401F075F009EBA42469FF
:101EE000F582E5F03493F5837401F074C12BF5822B
:101EF000E43492F583740CF075F009EBA42465F5D5
:101F000082E5F03493F58374FFF0A3F075F009EBEC
:101F1000A42463F582E5F03493F583E4F0A3740F11
:101F2000F075F009EBA42467F582E5F03493F583AE
:101F30007413F075F009EBA42468F582E5F034938E
:101F4000F583E4F074842BF582E43404F583741390
:101F5000F090977AE004F0025D6322A90774842967
:101F6000F582E43404F583E0547F909793F0E054D5
:101F70001FFF909796F075F009E9A42468F582E5B3
:101F8000F03493F583E0909798F075F009E9A42474
:101F900067F582E5F03493F583E0FE909799F0E9D8
:101FA00025E02424F582E43496F583E0FBA3E09059
:101FB000979ACBF0A3EBF0E925E02481F582E43495
:101FC00092F583E0FBA3E090979CCBF0A3EBF0EFBE
:101FD000D39E400C909799E0909796F0909793F04D
:101FE000ED700302609A909797EDF0909793E03030
:101FF000E60E909796E0909793F0909797E014F004
:10200000909797E0700302609A909796E0FFD394C0
:1020100000500302609AE4909795F0EF1490979423
:10202000F0909798E0FD909794E0FFD39D406FEF7C
:1020300094104021EF24F0FF74017E00A80708806F
:1020400005C333CE33CED8F9FF90979CE05EFEA354
:10205000E05F4E7027909794E0FFC3941050377460
:10206000017E00A807088005C333CE33CED8F9FF20
:1020700090979AE05EFEA3E05F4E601A909794E01E
:10208000909793F0909795E004F0909797E0FF90E9
:102090009795E06F6008909794E014F08083909794
:1020A00097E0FF909795E0C39F500F909794E0B50D
:1020B0000508909798E0909793F0909793E0FF250C
:1020C000E0249EF582E43441F583E493FC740193AB
:1020D000FDEF25E02466F582E43441F58374019335
:1020E0002DFFE4933CC313FEEF13FFE4FCFDE92551
:1020F000E025E024E1F582E43492F583122A7F9012
:102100009793E0FF748429F582E43404F583EFF0BB
:10211000229001CCE0540F90977AF090977AE0FDEE
:1021200070030262879097F0E0FF74017E00A807B9
:10213000088005C333CE33CED8F9FFEF5D700302BC
:1021400062689097F0E075F004A424D0F582E5F081
:102150003401F583E090977BF0A2AFE433A3F0C2A3
:10216000AF75610175629775637B7564017B017A58
:1021700097797D12781E90977CE024FF92AFA3E0C0
:10218000FFC413131354019097F030E070E075F022
:1021900002A42488F582E435F0F583E090977EF080
:1021A0009097F0E075F002A42489F582E435F0F50B
:1021B00083E090977FF09097F0E075F004A424D12D
:1021C000F582E5F03401F583E0909780F09097F088
:1021D000E075F004A424D2F582E5F03401F583E043
:1021E000909781F09097F0E075F004A424D3F582E5
:1021F000E5F03401F583E0909782F08042E075F0DD
:1022000004A424D1F582E5F03401F583E090977EB3
:10221000F09097F0E075F004A424D2F582E5F03454
:1022200001F583E090977FF09097F0E075F004A4BB
:1022300024D3F582E5F03401F583E0909780F0EF48
:10224000547FFF7B017A97797E126C9D90977AE09C
:10225000FF9097F0E0FE7401A806088002C333D80F
:10226000FCF45F90977AF09097F0E0FF7401A80774
:10227000088002C333D8FC9001CCF09097F0E004C2
:10228000F0E05403F00260FBC2AF74F1049001C4AB
:10229000F07460A3F090977AE09001C6F09097F008
:1022A000E09001C7F080FE22BB010CE58229F58297
:1022B000E5833AF583E0225006E92582F8E622BB61
:1022C000FE06E92582F8E222E58229F582E5833AD5
:1022D000F583E49322BB010689828A83F0225002AF
:1022E000F722BBFE01F322F8BB010DE58229F5823E
:1022F000E5833AF583E8F0225006E92582C8F62204
:10230000BBFE05E92582C8F222C5F0F8A3E028F05B
:10231000C5F0F8E582158270021583E038F022A33B
:10232000F8E0C5F025F0F0E582158270021583E033
:10233000C838F0E822BB010A89828A83E0F5F0A35D
:10234000E022500687F009E71922BBFE07E3F5F00B
:1023500009E3192289828A83E493F5F074019322B8
:10236000BB0110E58229F582E5833AF583E0F5F0BB
:10237000A3E0225009E92582F886F008E622BBFE98
:102380000AE92582F8E2F5F008E222E5832AF583DE
:10239000E993F5F0A3E99322BB010A89828A83F0CD
:1023A000E5F0A3F0225006F709A7F01922BBFE06BC
:1023B000F3E5F009F31922F8BB0111E58229F58252
:1023C000E5833AF583E8F0E5F0A3F0225009E9252A
:1023D00082C8F608A6F022BBFE09E92582C8F2E50C
:1023E000F008F222EB9FF5F0EA9E42F0E99D42F000
:1023F000E89C45F022A42582F582E5F03583F5833B
:1024000022D083D082F8E4937012740193700DA3EC
:10241000A393F8740193F5828883E473740293683C
:1024200060EFA3A3A380DFE4909777F0A3F0127985
:1024300014900002E054E09097D560057401F0809C
:10244000037402F09000F3E030E3089097D6740133
:10245000F08005E49097D6F09097D6E0B401139001
:1024600000F2E030E70C9097CF74FDF0A37433F0E6
:10247000800A9097CF74FDF0A3742FF0E4F5551205
:102480005D2B127E4E1278C512323D1244FF752824
:1024900033E4F529752A02F52B900130E528F0A3E5
:1024A000E529F0A3E52AF0A3E52BF09000F3E03056
:1024B000E20D9005417410F090055AF0A3E4F090FD
:1024C000016474A0F07544FFE4F545FB7D017F5085
:1024D0007E011235AB75301F753101E4F532900184
:1024E00038E530F0A3E531F0A3E532F01277C7907C
:1024F0009779E5D9F090013C74FFF0A3F0A3F09038
:102500000134F0A3F0A3F0A3F0C2AF900080E04448
:1025100040F07F107E0012375475E80343A885D23F
:10252000AF9001C0E4F0A3F0A3F0A3F09001C6F0D7
:10253000A3F0909777E06401F024079001C4F07451
:1025400064A3F0E55530E617C2AF5355BFD2AF12C2
:1025500045099097ACE0FF6003B40103127056E5A3
:102560005530E707C2AF53557FD2AFE55530E40A87
:10257000C2AF5355EFD2AF1260F19097ACE0700349
:10258000126AEE127C5880AA909786EBF0A3EAF0CC
:10259000A3E9F0909786E0FBA3E0FAA3E0F99000AE
:1025A00004126288FF541F909789F0900003126212
:1025B0008854F0C4540F90978AF0EF5420C41354F9
:1025C00007A3F09000041262885440C4131354030C
:1025D00090978CF0909789E0FF75F009A42465F539
:1025E00082E5F03493AD8290978DF0A3EDF0EF7516
:1025F000F009A42463F9749335F0FAA37401F0A3ED
:10260000EAF0A3E9F0909786A3E0FAA3E0F990003E
:1026100003126288540FFF90978FE0FBA3E0FAA3A8
:10262000E0F9EF1262B5909786E0FBA3E0FAA3E031
:10263000F9900002126288FF90978FE0FBA3E0FA06
:10264000A3E0F9900001EF1262C7909786E0FBA328
:10265000E0FAA3E0F9900001126288FF90978DE004
:10266000FCA3E0FDF5828C83EFF01229D98D828CDA
:1026700083A3F090978AE0FE909789E0FF24C1F54C
:1026800082E43492F583EEF090978BE0FE75F009CA
:10269000EFA42469F582E5F03493F583EEF075F04C
:1026A00009EFA4246AF582E5F03493F5837401F010
:1026B00090978CE0FE75F009EFA4246BF582E5F0AD
:1026C0003493F583EEF00255059000021262889073
:1026D00097AAF090000112628825E025E09097A962
:1026E000F01229D925E025E09097ADF0900560E043
:1026F0009097B8F0900561E09097B9F0900562E08E
:102700009097BAF0900563E09097BBF0A2AFE433E6
:10271000909786F0C2AF9097A9E0FF1278739097D8
:1027200086E024FF92AF9097AAE070030267B6900C
:1027300097A9E070030267B69097ADE07003026757
:10274000B6A2AFE433909786F0C2AF9097BC740105
:10275000F0909786E024FF92AF900045E054FEF0A1
:10276000A3E04401F09097A2E0601D9097AEE0FCDA
:10277000A3E0FDA3E0FEA3E0FF908085122A7F7F07
:10278000807E08122FD98006900522747FF0900079
:1027900045E054EFF0900587E06480F09097B8E052
:1027A000900584F09097B9E0900585F09097BAE095
:1027B000900586F09097BBE0900587F0A2AFE433D8
:1027C000909786F0C2AF90013CE04420F07D20E479
:1027D000FF123700802B9097AAE0702D9097BCF0E5
:1027E000900045E054FEF0A3E054FEF0900522E492
:1027F000F0A2AF33909786F0C2AF7D20E4FF12368F
:1028000092909786E024FF92AF22C0E0C0F0C08390
:10281000C082C0D075D000C000C001C002C003C0DB
:1028200004C005C006C0079001C474EAF07467A331
:10283000F05391DF90013CE05530F534A3E0553181
:10284000F535A3E05532F536E53430E00F90013C24
:102850007401F09001537407F0435580E53430E182
:102860000990013C7402F01279A7E53430E23A9005
:10287000013C7404F0900692E030E01E754414753B
:102880004500E4FBFD7F587E011235AB90015B747F
:1028900005F09006927401F0800F9097C6E4F090D6
:1028A00097CAE0FF7D01126E2DE53430E3069001FA
:1028B0003C7408F0E53430E40990013C7410F012E7
:1028C0007960E53430E50990013C7420F0126D69BF
:1028D000E53530E01590013D7401F0900083E09003
:1028E00097CAF0E0FF7D01126E2DE53630E30690C9
:1028F000013E7408F074EA049001C4F07467A3F018
:10290000D007D006D005D004D003D002D001D0002B
:10291000D0D0D082D083D0F0D0E0329097EFEDF0DD
:102920009097EEEFF0D39407506DE0FF7401A80785
:10293000088002C333D8FCF4FF900047E05FF07FCB
:10294000107E001237549097EEE0FF7401A807083C
:102950008002C333D8FCFF900046E04FF07F107E2A
:10296000001237549097EFE060169097EEE0FF74F6
:1029700001A807088002C333D8FCFF900045807887
:102980009097EEE0FF7401A807088002C333D8FCDB
:10299000F4FF900045807D9097EEE024F8F0E0FF92
:1029A0007401A807088002C333D8FCC454F0F4FFB4
:1029B000900043E05FF07F107E001237549097EE56
:1029C000E0FF7401A807088002C333D8FCFF900021
:1029D00043E04FF07F107E001237549097EFE06095
:1029E0001B9097EEE0FF7401A807088002C333D85C
:1029F000FCC454F0FF900042E04F801A9097EEE044
:102A0000FF7401A807088002C333D8FCC454F0F453
:102A1000FF900042E05FF07F107E00123754227F6B
:102A2000787E081227DE90975D122A7F7F047E0C45
:102A30001227DE909761122A7F7F007E081227DE20
:102A4000909765122A7F9097D6E090975DB4011316
:102A5000E0FCA3E0FDA3E0FEA3E054C7FFED54C7F4
:102A6000FD800DE0FCA3E0FDA3E0FEA3E054C7FF62
:102A7000EC908085122A7F7F787E08122FD990975C
:102A800061E0FCA3E0FDA3E0FEA3E0540FFFEC90A7
:102A90008085122A7F7F047E0C122FD9909765E0E3
:102AA000FCA3E0FDA3E0FEA3E04402FFEC908085E0
:102AB000122A7F7F007E08122FD97F707E0E122788
:102AC000DE909769122A7F908085122A8B001B2541
:102AD000A07F707E0E122FD9908059122A8B000091
:102AE0000000E4FDFF1234819097D6E0B40111900C
:102AF0008059122A8B00000000E4FD7F011234810E
:102B0000900011E054F6F07F107E00023754909749
:102B1000BCE0640160099097AAE06003026BC69074
:102B2000979EE0C394FF5005E004F0803B90979F90
:102B3000E0C394FF5006E004F0E480289097A0E002
:102B4000C394FF500AE004F0E490979FF080159042
:102B500097A1E0C394FF5010E004F0E49097A0F038
:102B600090979FF090979EF0900044E0540C607610
:102B7000E030E2329097B2E0C394FF5005E004F0F9
:102B800080249097B3E0C394FF5006E004F0E48003
:102B9000119097B4E0C394FF500CE004F0E49097D8
:102BA000B3F09097B2F0900044E030E3329097B5E4
:102BB000E0C394FF5005E004F080249097B6E0C392
:102BC00094FF5006E004F0E480119097B7E0C394BE
:102BD000FF500CE004F0E49097B6F09097B5F090B9
:102BE00004FDE04401F0228B118A12891390000247
:102BF0001262889097ABF0E030E05C9097A274018D
:102C0000F07F807E081227DE9097A4122A7FAB11F6
:102C1000AA12A913900001126288FFE4FCFDFE785D
:102C20001A122A6CA804A905AA06AB079097A4E07B
:102C3000FCA3E0FDA3E0FEA3E0FFEC5403FCEB4F9C
:102C4000FFEA4EFEE94DFDE84CFC9097AE122A7F5C
:102C5000900522E4F08035E49097A2F07F807E0812
:102C60001227DEEC5403FCEC44C0FC9097A4122A1B
:102C70007F9097A4E0FCA3E0FDA3E0FEA3E0FF901B
:102C80008085122A7F7F807E08122FD99097ABE033
:102C900090004730E111740CF0A3E0440CF0900078
:102CA00046E04410F08010E054F3F0A3E054F3F059
:102CB000900046E054EFF0E49097A8F022909783BC
:102CC000EBF0A3EAF0A3E9F0EF1263E16CCE016C44
:102CD000DC026CEA036CF8056D06066D14076D22C4
:102CE000096D300C6D3E0D6D4C0E00006D5A9097C5
:102CF00083E0FBA3E0FAA3E0F9027C85909783E0F0
:102D0000FBA3E0FAA3E0F9027E65909783E0FBA3C2
:102D1000E0FAA3E0F9027BFC909783E0FBA3E0FAE2
:102D2000A3E0F9027AB4909783E0FBA3E0FAA3E072
:102D3000F9026568909783E0FBA3E0FAA3E0F9024B
:102D40007E16909783E0FBA3E0FAA3E0F9024468C3
:102D5000909783E0FBA3E0FAA3E0F90266A99097BD
:102D600083E0FBA3E0FAA3E0F9027C2A909783E0DA
:102D7000FBA3E0FAA3E0F9026BC7C2AF749D049015
:102D800001C4F0746CA3F080FE9097AAE064016027
:102D900003026E2C900046E04401F09097BCE07076
:102DA000409097A2E0601D9097AEE0FCA3E0FDA3E9
:102DB000E0FEA3E0FF908085122A7F7F807E0812CC
:102DC0002FD98006900522747FF09097A9E0FF121A
:102DD00078739097BC7401F0900045E054FEF08049
:102DE000449097BCE06401703C9097ADE0FF12788E
:102DF00073E49097BCF0900045E04401F09097A2F6
:102E0000E0601D9097A4E0FCA3E0FDA3E0FEA3E03A
:102E1000FF908085122A7F7F807E08122FD980053F
:102E2000900522E4F0900587E06480F09097B8E088
:102E3000900584F09097B9E0900585F09097BAE0FE
:102E4000900586F09097BBE0900587F0228F268D45
:102E500027E526540FFF9097C7E0540F6F6078E581
:102E60002630E2309097C7E020E2057F01127D1105
:102E70009097C7E030E30AE52620E305127D308015
:102E8000569097C7E020E34FE52630E34AAF27127C
:102E90007CF180439097C7E0540FFFBF0C0EE526EE
:102EA00020E309127CD0EF602E127D309097C7E0AE
:102EB000540FFFBF040EE52620E209127B29EF60C4
:102EC00016127B619097C7E0540FFFBF0209127A78
:102ED00076EF6003127D4D9097C7E0540FFF9097F7
:102EE000CAE0540F6F7023E030E61F9097C7E0549C
:102EF0000FFF9097BDE0FE4F90012FF0EE648090A1
:102F000097BDF09097CAE054BFF022909770EBF015
:102F1000A3EAF0A3E9F09097D5E064027003026F92
:102F2000A09001AFE060099001C7E004F0F080F1EB
:102F30009097F2E0FF04F0909770E0FBA3E0FAA313
:102F4000E0F9900001EF1262C7A2AFE433909776E8
:102F5000F0C2AF909770E0FBA3E0FAA3E08B618A28
:102F600062F5637564027B017A0179A012781E9084
:102F70009776E024FF92AFA2AFE433F0C2AF909710
:102F800073E0FBA3E0FAA3E08B618A62F56390979C
:102F900070E0FBA3E0FAA3E0F91229D9FFC4540FB3
:102FA000F5647B017A0179A212781E909776E0246D
:102FB000FF92AF9001AF74FFF09001CBE06480F01E
:102FC000229097DDEFF0A3EDF0E4A3F0A3F0E56627
:102FD0006005E4FF127D879097DDE030E00990976F
:102FE000DFE4F0A37480F090041DE0601D900522E2
:102FF000E09097E1F0E0FF549060EC9001C874FC21
:10300000F0EF546F900522F080DD9097DDE0FFC374
:103010001390FD10F0900425EFF09097DEE0601F14
:10302000A3A3E0FF240FF582E434FCF583E04480A1
:10303000F074102FF582E434FCF583E04480F090C6
:1030400097DFA3E0FFFD2408F582E434FCF583E478
:10305000F074092DF582E434FCF583E054F0F0744B
:10306000212FF582E434FCF583E054F7F09097DFEC
:10307000E0FEA3E0FF229097A3E0C394145005E084
:1030800004F080529097A3E06414704A9097B2E0E5
:1030900070259097B5E0701F9097B3E070199097E6
:1030A000B6E070139097B4E0700D9097B7E070079A
:1030B0009004FDE054FEF0E49097A3F090979E04F6
:1030C000F0E4A3F0A3F0A3F09097B2F0A3F0A3F084
:1030D000A3F0A3F0A3F0900560E090977AF090053C
:1030E00061E090977BF0900562E090977CF090050E
:1030F00063E090977DF09097BBE0FF90977DE0FEB6
:10310000D39F500B9097BBE0C39ED3940140119086
:1031100097A9E0B4010280039097ADE0FF127873A5
:10312000229097F4EFF0D39407504AE0FF7401A87F
:1031300007088002C333D8FCF4FF900046E05FF03C
:103140007F107E001237549097F4E0FD74017E00EA
:10315000A805088005C333CE33CED8F9FF900044CC
:10316000E0FBE4FEEF5BA805088006CEA2E713CEE5
:1031700013D8F8FF229097F4E024F8F0E0FF7401F0
:10318000A807088002C333D8FCF4FF900043E05F37
:10319000F07F107E001237549097F4E0FD74017EAA
:1031A00000A805088005C333CE33CED8F9FF9000C0
:1031B00042E0FBE4FEEF5BA805088006CEA2E71321
:1031C000CE13D8F8FF22900011E04409F07F107E62
:1031D0000012375490975DE0FCA3E0FDA3E0FEA34E
:1031E000E0FF908085122A7F7F787E08122FD99089
:1031F0009761E0FCA3E0FDA3E0FEA3E0FF908085E3
:10320000122A7F7F047E0C122FD9909765E0FCA3D1
:10321000E0FDA3E0FEA3E0FF908085122A7F7F00FF
:103220007E08122FD9909769E0FCA3E0FDA3E0FE91
:10323000A3E0FF908085122A7F7F707E0E122FD927
:10324000908059122A8B00032D95E4FDFF123481E2
:103250009097D6E0B40111908059122A8B00032D6B
:1032600095E4FD7F0112348122C0E0C0F0C083C02C
:1032700082C0D075D000C000C001C002C003C0042D
:10328000C005C006C0079001C47449F07472A3F071
:103290005391EF900051E0FF900055E05FF53DE560
:1032A0003D30E6187440F09097ABE05403FFBF0345
:1032B0000B9097A8E060057F01127367E53D30E74A
:1032C000159000557480F09097ABE05403FFBF0356
:1032D000057F021273679001C47449F07472A3F001
:1032E000D007D006D005D004D003D002D001D00042
:1032F000D0D0D082D083D0F0D0E032EF60347D7D6A
:103300007F021236757D027F03123675900157E4F5
:10331000F090013C7402F07D017F0C126E2DE4FFF1
:10332000127D87900604E0547FF090060AE054F87E
:10333000F022900136747DF0A37402F07D7DFF12BF
:1033400036E67D027F031236E6900604E04480F004
:1033500090060AE04407F09097C2E0A3E090055879
:10336000F0E56530E01B9097C0E0701AE004F09043
:1033700097C7E0540FC39404500C7D017F04026E84
:103380002DE49097C0F022EF14602014604B2402CB
:1033900070789097A87402F0900048E0440CF09088
:1033A0000047E04408F0900045805BE49097A8F067
:1033B0009097A4E0FCA3E0FDA3E0FEA3E0FF9080D3
:1033C00085122A7F7F807E08122FD9900045E04425
:1033D000EFF0E054EFF0A3802D9097A87401F090E7
:1033E00097AEE0FCA3E0FDA3E0FEA3E0FF908085A4
:1033F000122A7F7F807E08122FD9900045E044205A
:10340000F0E04410F0A3E04410F0220274290264BA
:1034100007E493A3F8E493A34003F68001F208DFE6
:10342000F48029E493A3F85407240CC8C333C4548C
:103430000F4420C8834004F456800146F6DFE48040
:103440000B0102040810204080907DFCE47E019373
:1034500060BCA3FF543F30E509541FFEE493A36012
:10346000010ECF54C025E060A840B8E493A3FAE46D
:1034700093A3F8E493A3C8C582C8CAC583CAF0A3BE
:10348000C8C582C8CAC583CADFE9DEE780BE909797
:103490008CEFF0D394075033E0FF7401A807088045
:1034A00002C333D8FCF4FF900047E05FF07F107E4A
:1034B0000012375490978CE0FF7401A8070880022F
:1034C000C333D8FCF4FF900046803B90978CE024F7
:1034D000F8F0E0FF7401A807088002C333D8FCC4E9
:1034E00054F0F4FF900043E05FF07F107E0012374D
:1034F0005490978CE0FF7401A807088002C333D86A
:10350000FCF4FF900043E05FF07F107E0012375420
:1035100022E490976EF0E566606CE5656401706684
:10352000E56664026006E5666403701D9097BEE080
:1035300014F0E06004A3E060169097BEE0700A907B
:1035400097C9E09097BEF0800090976E7401F0905C
:10355000976EE060319097CEE04410F09097C4E011
:10356000F544E4F545FBFD7F547E011235AB900137
:10357000577405F09097C7E0540FC3940450077D2B
:10358000017F04126E2D22AB0775F009EBA42467AE
:10359000F582E5F03493F583E0FF74E52BF582E4E2
:1035A0003496F583E0541FFAD39F4002AA07EA2518
:1035B000E0249EF582E43441F583E493FE740193A4
:1035C000FFEA25E02466F582E43441F58374019333
:1035D0002FFFE4933EC313FEEF13FFE4FCFDEB2546
:1035E000E025E024E1F582E43492F583122A7F7429
:1035F000842BF582E43404F583EAF0FF229006A9D7
:10360000E0F50A54C0700E9097C8F09097CAE0FF9A
:103610007D01026E2DE50A30E6129097C87401F024
:103620009097CEE04401F0127DCD80079097CEE0D8
:1036300054FEF0E50A30E7299097C87401F090979E
:10364000CEE04402F0754403E4F545FBFD7F547E73
:10365000011235AB9001577405F09097CD7401F0CD
:10366000229097CEE054FDF0228D0BE50B541FF510
:103670000F74012FF582E43492F583E0F50E900487
:10368000FDE0B401057510038003751001EBC395CF
:10369000104003027567E50E250DFEE50F9041D63B
:1036A00093FDEED39D740140182FF582E43492F51A
:1036B00083E4F074842FF582E43404F583E50BF0A1
:1036C000222FF582E43492F583EEF02290002BE075
:1036D0004401F07FE87E03123754900008E0441064
:1036E000F07F107E00123754900009E054F7F07F0D
:1036F000107E00123754900028E054FEF07F107EB8
:1037000000123754900020E054FEF07F107E00122B
:103710003754900025E04440F07F107E001237546B
:10372000900009E054EFF07F107E000237548B11B7
:103730008A128913127DBBAB11AA12A9131229D9BF
:10374000F56614600E14600F14601A2403703C7F39
:10375000018035E4FF80319097C97401F09097BEE5
:10376000F0E4FF8023AB11AA12A9139000021262A9
:1037700088FF9097C970057405F08002EFF090976C
:10378000C9E09097BEF0E4FF1272DB22900025E0C2
:1037900054BFF07F107E00123754900020E04401A7
:1037A000F07F107E00123754900028E04401F07F33
:1037B000107E001237549000F0E030E1F9900009DB
:1037C000E04408F07F107E00123754900008E05467
:1037D000EFF07F107E0012375490002BE054FEF083
:1037E0007FE87E03023754900045E4F09004FDF03A
:1037F000A3F09097ACF09097B2F09097B5F09097B7
:10380000B3F09097B6F09097B4F09097B7F0909788
:103810009E04F0E4A3F0A3F0A3F09097A3F0909798
:10382000A8F09097AAF09097BCF09097ADF0909781
:10383000A9F09097A2F0900051E044C0F0228B5E76
:103840008A5F89609097D7EBF0A3EAF0A3E9F0A331
:10385000E561F0A3E562F0A3E563F0AF641564EF02
:10386000602A9097DAE0FBA3E475F0011262FFA9E9
:10387000F0FA1229D9FF9097D7E0FBA3E475F00185
:103880001262FFA9F0FAEF1262B580CFAB5EAA5FB9
:10389000A96022900560E09097B8F0900561E090F3
:1038A00097B9F0900562E09097BAF0900563E090C8
:1038B00097BBF0C374FF9FFE9097B9E0D39E401E64
:1038C000E02FF0A3E0B4FF0FE4F0A3E0B4FF03E4C3
:1038D000F0229097BB80039097BAE004F022909773
:1038E000B9E02FF022E4F5659097CEF0F566909759
:1038F000CA740CF09097C7F0E49097CCF09097C6FC
:10390000F09097C5F09097C904F09097BEF0E490BE
:1039100097CDF09097C8F09097C0F09097C4740737
:10392000F0E49097BFF09097C2F0A37402F0E49097
:1039300097CBF022E49097D4F0A2AF3390977BF02E
:10394000900080E020E11A12377A12377A90977A45
:10395000E06401F0E024149001C4F07479A3F080D5
:10396000DF9006307401F0C2AF900080E04480F038
:103970007F107E0012375490977BE024FF92AF2295
:10398000E52264017040127D6ABF01057F01127E4D
:1039900009900046E04404F07F107E0012375490F6
:1039A0000044E054FBF07F107E0012375490004634
:1039B000E054FBF07F107E001237547F0212710139
:1039C000EF6003127DA2229097CDE06012E4F0A395
:1039D000E054FDF0E0540370339097C8F0802390DA
:1039E00097BFE004F09097CEE054EFF09097BFE0DF
:1039F000D39401400DE565B40112A3E0700EE0041C
:103A0000F0229097CAE0FF7D01126E2D22E490977C
:103A1000ECF0A3F09005F8E0700FA3E0700BA3E0CA
:103A20007007A3E070037F0122D39097EDE094E844
:103A30009097ECE0940340037F00227F327E0012D7
:103A400037549097EDE004F070CA9097ECE004F0E2
:103A500080C2E490977AF0EF900031F0EE5403FFCB
:103A6000A3E054FC4FF0A3E0547FF0900030E0203E
:103A7000E70E90977AE0C394645005E004F080EB81
:103A800090977AE0C39464500A900030E01262B5D7
:103A90007F01227F0022E55570379097CAE0540FCE
:103AA000D39401502C900287E070269097D5E0B413
:103AB00002109097CFE0FEA3E0F5828E83E06008CD
:103AC000800F9001AFE070099097CBE060037F0119
:103AD000227F00221229D9FFC394205015900002A2
:103AE000126288FE74632FF582E43495F583EEF05C
:103AF000800EEFB4200A900002126288909361F069
:103B000074632FF582E43495F583E090048BF02202
:103B100090978AEEF0A3EFF07522018E23F5247FB3
:103B20000B12746E7F0212746E127D6AE4FF127EB5
:103B30000990978AE0FCA3E0FDECFB8D44E4F54599
:103B40007D017F607E010235AB90041BE0547F64F1
:103B50007F702B9097C8E0640160239097CAE0546F
:103B60000FD3940250189097CEE020E4119097C69E
:103B7000E0640160099097C0E070037F01227F003C
:103B8000229001377402F090052274FFF01279ED53
:103B9000EF70069001C874FDF07D027F031236E6D7
:103BA000E56660057F01127D871269FF9097C7E087
:103BB00054F0F0E04402F0228F679097D3E0FF7D4D
:103BC00001126FA1E567601074212FF582E434FCC7
:103BD000F583E04410F0800E74212FF582E434FC6C
:103BE000F583E054EFF090041F7401F0227D027F12
:103BF00003123675E56660239097CCE060067D0180
:103C00007F0C800F9097C7E0540FC3940450077D3A
:103C1000017F04126E2DE4FF127D8722900209E0DD
:103C2000FD1229D9FEAF05ED2E9097D1F09000013D
:103C3000126288FFED2F9097D2F0900002126288F6
:103C4000FFAE05ED2F9097D3F0229000021262880C
:103C50009097ACF0E06004E0B4FF1CA2AFE433F551
:103C600011C2AF900047E054FBF07D407F01123657
:103C7000AFE51124FF92AF22900634E06026147065
:103C80001B7B017A0679357FF97E01127A32BF01FA
:103C900009900635E0540FF080058000027DEEE4C7
:103CA000900634F0229000011262889097CCF012B6
:103CB00029D965666015A2AFE433909786F0C2AF4C
:103CC00012770E909786E024FF92AF2290976EE0D5
:103CD00054F04403F0540F4480F0909773E4F0A341
:103CE0007400F0A37456F07B017A97796E026EEB44
:103CF00090041BE0547FFFBF7F149097C6E0700EC6
:103D00009097CAE0540FD3940450037F01227F00A0
:103D100022900604E054BFF0EF600AE565B40105A7
:103D2000E4FF127B989097C7E054F0F0E0440CF069
:103D3000229097F1EFF01271A69097F1E060059054
:103D40000522E4F09097C7E054F0F0E04404F0223C
:103D5000900604E04440F0E565B401057F01127B64
:103D6000989097C7E054F0F0E04404F0229097C791
:103D7000E054F0F0E04401F01276AC12776C9097CA
:103D8000C7E054F0F0E04402F0227F0B127101EF23
:103D900065256010E525B40105E4F525800375254A
:103DA000017F01227F0022EF600B9097D6E0B401E3
:103DB00010E4FF80099097D6E0B401057F01124E10
:103DC0005A22900049E09097F3F0E0540FF0E0FFA2
:103DD00044F0900049F0EF44B0F022E49097CDF029
:103DE0009097BFF09097C8F09097CEF0229097D21E
:103DF000E0FFE4FD126FA190041F7401F02290090E
:103E000028EFF0A3F0A3F0A3F0A3F0A3F022900614
:103E10003474FFF0E4A3F0A3F0A3F0224197F00084
:103E20004197BD804197F200009001CAE525F0EF6F
:103E30006003127DA222909786EBF0A3EAF0A3E93B
:103E4000F0229097E6EBF0A3EAF0A3E9F022909736
:103E5000E9EBF0A3EAF0A3E9F0228F828E83A3A31B
:103E6000A3E4F022E4F5227F607E01027E3A90977F
:103E7000D6E090976DF0228F1C8C1D8D1E228F1F17
:0E3E80008C208D21221229D9F5652222D382B1
:00000001FF
